{
  "contractName": "Tellor",
  "abi": [
    {
      "constant": false,
      "inputs": [
        {
          "name": "_address",
          "type": "address"
        },
        {
          "name": "_amount",
          "type": "uint256"
        }
      ],
      "name": "theLazyCoon",
      "outputs": [],
      "payable": false,
      "stateMutability": "nonpayable",
      "type": "function",
      "signature": "0xb079f64a"
    },
    {
      "constant": false,
      "inputs": [],
      "name": "tellorPostConstructor",
      "outputs": [],
      "payable": false,
      "stateMutability": "nonpayable",
      "type": "function",
      "signature": "0x799ce980"
    },
    {
      "constant": false,
      "inputs": [
        {
          "name": "_requestId",
          "type": "uint256"
        },
        {
          "name": "_tip",
          "type": "uint256"
        }
      ],
      "name": "addTip",
      "outputs": [],
      "payable": false,
      "stateMutability": "nonpayable",
      "type": "function",
      "signature": "0x752d49a1"
    },
    {
      "constant": false,
      "inputs": [
        {
          "name": "_spender",
          "type": "address"
        },
        {
          "name": "_amount",
          "type": "uint256"
        }
      ],
      "name": "approve",
      "outputs": [
        {
          "name": "",
          "type": "bool"
        }
      ],
      "payable": false,
      "stateMutability": "nonpayable",
      "type": "function",
      "signature": "0x095ea7b3"
    },
    {
      "constant": false,
      "inputs": [
        {
          "name": "_requestId",
          "type": "uint256"
        },
        {
          "name": "_timestamp",
          "type": "uint256"
        },
        {
          "name": "_minerIndex",
          "type": "uint256"
        }
      ],
      "name": "beginDispute",
      "outputs": [],
      "payable": false,
      "stateMutability": "nonpayable",
      "type": "function",
      "signature": "0x8581af19"
    },
    {
      "constant": false,
      "inputs": [],
      "name": "depositStake",
      "outputs": [],
      "payable": false,
      "stateMutability": "nonpayable",
      "type": "function",
      "signature": "0x0d2d76a2"
    },
    {
      "constant": false,
      "inputs": [
        {
          "name": "_propNewTellorAddress",
          "type": "address"
        }
      ],
      "name": "proposeFork",
      "outputs": [],
      "payable": false,
      "stateMutability": "nonpayable",
      "type": "function",
      "signature": "0x26b7d9f6"
    },
    {
      "constant": false,
      "inputs": [
        {
          "name": "_c_sapi",
          "type": "string"
        },
        {
          "name": "_c_symbol",
          "type": "string"
        },
        {
          "name": "_granularity",
          "type": "uint256"
        },
        {
          "name": "_tip",
          "type": "uint256"
        }
      ],
      "name": "requestData",
      "outputs": [],
      "payable": false,
      "stateMutability": "nonpayable",
      "type": "function",
      "signature": "0x3fff2816"
    },
    {
      "constant": false,
      "inputs": [],
      "name": "requestStakingWithdraw",
      "outputs": [],
      "payable": false,
      "stateMutability": "nonpayable",
      "type": "function",
      "signature": "0x28449c3a"
    },
    {
      "constant": false,
      "inputs": [
        {
          "name": "_disputeId",
          "type": "uint256"
        }
      ],
      "name": "tallyVotes",
      "outputs": [],
      "payable": false,
      "stateMutability": "nonpayable",
      "type": "function",
      "signature": "0x4d318b0e"
    },
    {
      "constant": false,
      "inputs": [
        {
          "name": "_nonce",
          "type": "string"
        },
        {
          "name": "_requestId",
          "type": "uint256"
        },
        {
          "name": "_value",
          "type": "uint256"
        }
      ],
      "name": "submitMiningSolution",
      "outputs": [],
      "payable": false,
      "stateMutability": "nonpayable",
      "type": "function",
      "signature": "0x68c180d5"
    },
    {
      "constant": false,
      "inputs": [
        {
          "name": "_to",
          "type": "address"
        },
        {
          "name": "_amount",
          "type": "uint256"
        }
      ],
      "name": "transfer",
      "outputs": [
        {
          "name": "",
          "type": "bool"
        }
      ],
      "payable": false,
      "stateMutability": "nonpayable",
      "type": "function",
      "signature": "0xa9059cbb"
    },
    {
      "constant": false,
      "inputs": [
        {
          "name": "_from",
          "type": "address"
        },
        {
          "name": "_to",
          "type": "address"
        },
        {
          "name": "_amount",
          "type": "uint256"
        }
      ],
      "name": "transferFrom",
      "outputs": [
        {
          "name": "",
          "type": "bool"
        }
      ],
      "payable": false,
      "stateMutability": "nonpayable",
      "type": "function",
      "signature": "0x23b872dd"
    },
    {
      "constant": false,
      "inputs": [
        {
          "name": "_newOwner",
          "type": "address"
        }
      ],
      "name": "transferOwnership",
      "outputs": [],
      "payable": false,
      "stateMutability": "nonpayable",
      "type": "function",
      "signature": "0xf2fde38b"
    },
    {
      "constant": false,
      "inputs": [
        {
          "name": "_disputeId",
          "type": "uint256"
        },
        {
          "name": "_supportsDispute",
          "type": "bool"
        }
      ],
      "name": "vote",
      "outputs": [],
      "payable": false,
      "stateMutability": "nonpayable",
      "type": "function",
      "signature": "0xc9d27afe"
    },
    {
      "constant": false,
      "inputs": [],
      "name": "withdrawStake",
      "outputs": [],
      "payable": false,
      "stateMutability": "nonpayable",
      "type": "function",
      "signature": "0xbed9d861"
    }
  ],
  "bytecode": "0x608060405234801561001057600080fd5b50615d9080620000216000396000f3fe6080604052600436106100e6576000357c0100000000000000000000000000000000000000000000000000000000900463ffffffff168063095ea7b3146100eb5780630d2d76a21461015e57806323b872dd1461017557806326b7d9f61461020857806328449c3a146102595780633fff2816146102705780634d318b0e1461035f57806368c180d51461039a578063752d49a114610434578063799ce980146104795780638581af1914610490578063a9059cbb146104df578063b079f64a14610552578063bed9d861146105ad578063c9d27afe146105c4578063f2fde38b1461060b575b600080fd5b3480156100f757600080fd5b506101446004803603604081101561010e57600080fd5b81019080803573ffffffffffffffffffffffffffffffffffffffff1690602001909291908035906020019092919050505061065c565b604051808215151515815260200191505060405180910390f35b34801561016a57600080fd5b5061017361074a565b005b34801561018157600080fd5b506101ee6004803603606081101561019857600080fd5b81019080803573ffffffffffffffffffffffffffffffffffffffff169060200190929190803573ffffffffffffffffffffffffffffffffffffffff169060200190929190803590602001909291905050506107d2565b604051808215151515815260200191505060405180910390f35b34801561021457600080fd5b506102576004803603602081101561022b57600080fd5b81019080803573ffffffffffffffffffffffffffffffffffffffff1690602001909291905050506107f5565b005b34801561026557600080fd5b5061026e61080c565b005b34801561027c57600080fd5b5061035d6004803603608081101561029357600080fd5b81019080803590602001906401000000008111156102b057600080fd5b8201836020820111156102c257600080fd5b803590602001918460018302840111640100000000831117156102e457600080fd5b90919293919293908035906020019064010000000081111561030557600080fd5b82018360208201111561031757600080fd5b8035906020019184600183028401116401000000008311171561033957600080fd5b90919293919293908035906020019092919080359060200190929190505050610818565b005b34801561036b57600080fd5b506103986004803603602081101561038257600080fd5b81019080803590602001909291905050506108c2565b005b3480156103a657600080fd5b50610432600480360360608110156103bd57600080fd5b81019080803590602001906401000000008111156103da57600080fd5b8201836020820111156103ec57600080fd5b8035906020019184600183028401116401000000008311171561040e57600080fd5b909192939192939080359060200190929190803590602001909291905050506108d9565b005b34801561044057600080fd5b506104776004803603604081101561045757600080fd5b81019080803590602001909291908035906020019092919050505061093b565b005b34801561048557600080fd5b5061048e6109d5565b005b34801561049c57600080fd5b506104dd600480360360608110156104b357600080fd5b81019080803590602001909291908035906020019092919080359060200190929190505050610a5d565b005b3480156104eb57600080fd5b506105386004803603604081101561050257600080fd5b81019080803573ffffffffffffffffffffffffffffffffffffffff16906020019092919080359060200190929190505050610b00565b604051808215151515815260200191505060405180910390f35b34801561055e57600080fd5b506105ab6004803603604081101561057557600080fd5b81019080803573ffffffffffffffffffffffffffffffffffffffff16906020019092919080359060200190929190505050610b20565b005b3480156105b957600080fd5b506105c2610be6565b005b3480156105d057600080fd5b50610609600480360360408110156105e757600080fd5b8101908080359060200190929190803515159060200190929190505050610bf2565b005b34801561061757600080fd5b5061065a6004803603602081101561062e57600080fd5b81019080803573ffffffffffffffffffffffffffffffffffffffff169060200190929190505050610c0c565b005b60008073__TellorLibrary_________________________63a3dd5a05909185856040518463ffffffff167c0100000000000000000000000000000000000000000000000000000000028152600401808481526020018373ffffffffffffffffffffffffffffffffffffffff1673ffffffffffffffffffffffffffffffffffffffff168152602001828152602001935050505060206040518083038186803b15801561070757600080fd5b505af415801561071b573d6000803e3d6000fd5b505050506040513d602081101561073157600080fd5b8101908080519060200190929190505050905092915050565b600073__TellorLibrary_________________________6316c7360c90916040518263ffffffff167c01000000000000000000000000000000000000000000000000000000000281526004018082815260200191505060006040518083038186803b1580156107b857600080fd5b505af41580156107cc573d6000803e3d6000fd5b50505050565b60006107ec8484846000610c23909392919063ffffffff16565b90509392505050565b610809816000610d5690919063ffffffff16565b50565b61081660006111b2565b565b6108ba86868080601f016020809104026020016040519081016040528093929190818152602001838380828437600081840152601f19601f8201169050808301925050505050505085858080601f016020809104026020016040519081016040528093929190818152602001838380828437600081840152601f19601f82011690508083019250505050505050848460006112cd90949392919063ffffffff16565b505050505050565b6108d681600061186190919063ffffffff16565b50565b61093584848080601f016020809104026020016040519081016040528093929190818152602001838380828437600081840152601f19601f820116905080830192505050505050508383600061213e909392919063ffffffff16565b50505050565b600073__TellorLibrary_________________________634cd87233909184846040518463ffffffff167c010000000000000000000000000000000000000000000000000000000002815260040180848152602001838152602001828152602001935050505060006040518083038186803b1580156109b957600080fd5b505af41580156109cd573d6000803e3d6000fd5b505050505050565b600073__TellorLibrary_________________________63a8181b3090916040518263ffffffff167c01000000000000000000000000000000000000000000000000000000000281526004018082815260200191505060006040518083038186803b158015610a4357600080fd5b505af4158015610a57573d6000803e3d6000fd5b50505050565b600073__TellorLibrary_________________________63e4d15a3a90918585856040518563ffffffff167c01000000000000000000000000000000000000000000000000000000000281526004018085815260200184815260200183815260200182815260200194505050505060006040518083038186803b158015610ae357600080fd5b505af4158015610af7573d6000803e3d6000fd5b50505050505050565b6000610b18838360006141029092919063ffffffff16565b905092915050565b600073__TellorLibrary_________________________6367f2cd10909184846040518463ffffffff167c0100000000000000000000000000000000000000000000000000000000028152600401808481526020018373ffffffffffffffffffffffffffffffffffffffff1673ffffffffffffffffffffffffffffffffffffffff168152602001828152602001935050505060006040518083038186803b158015610bca57600080fd5b505af4158015610bde573d6000803e3d6000fd5b505050505050565b610bf0600061411b565b565b610c08828260006141ef9092919063ffffffff16565b5050565b610c208160006144b590919063ffffffff16565b50565b6000818560490160008673ffffffffffffffffffffffffffffffffffffffff1673ffffffffffffffffffffffffffffffffffffffff16815260200190815260200160002060003373ffffffffffffffffffffffffffffffffffffffff1673ffffffffffffffffffffffffffffffffffffffff1681526020019081526020016000205410151515610cb257600080fd5b818560490160008673ffffffffffffffffffffffffffffffffffffffff1673ffffffffffffffffffffffffffffffffffffffff16815260200190815260200160002060003373ffffffffffffffffffffffffffffffffffffffff1673ffffffffffffffffffffffffffffffffffffffff16815260200190815260200160002060008282540392505081905550610d4a858585856146aa565b60019050949350505050565b600081604051602001808273ffffffffffffffffffffffffffffffffffffffff1673ffffffffffffffffffffffffffffffffffffffff166c01000000000000000000000000028152601401915050604051602081830303815290604052805190602001209050600083604d01600083815260200190815260200160002054141515610de057600080fd5b610e3683333086604301600060405180807f6469737075746546656500000000000000000000000000000000000000000000815250600a01905060405180910390208152602001908152602001600020546146aa565b82604301600060405180807f64697370757465436f756e740000000000000000000000000000000000000000815250600c0190506040518091039020815260200190815260200160002060008154809291906001019190505550600083604301600060405180807f64697370757465436f756e740000000000000000000000000000000000000000815250600c019050604051809103902081526020019081526020016000205490508084604d0160008481526020019081526020016000208190555061010060405190810160405280838152602001600081526020016000151581526020016000151581526020016001151581526020013373ffffffffffffffffffffffffffffffffffffffff1681526020013373ffffffffffffffffffffffffffffffffffffffff1681526020018473ffffffffffffffffffffffffffffffffffffffff16815250846047016000838152602001908152602001600020600082015181600001556020820151816001015560408201518160020160006101000a81548160ff02191690831515021790555060608201518160020160016101000a81548160ff02191690831515021790555060808201518160020160026101000a81548160ff02191690831515021790555060a08201518160020160036101000a81548173ffffffffffffffffffffffffffffffffffffffff021916908373ffffffffffffffffffffffffffffffffffffffff16021790555060c08201518160030160006101000a81548173ffffffffffffffffffffffffffffffffffffffff021916908373ffffffffffffffffffffffffffffffffffffffff16021790555060e08201518160040160006101000a81548173ffffffffffffffffffffffffffffffffffffffff021916908373ffffffffffffffffffffffffffffffffffffffff16021790555090505043846047016000838152602001908152602001600020600501600060405180807f626c6f636b4e756d626572000000000000000000000000000000000000000000815250600b019050604051809103902081526020019081526020016000208190555062093a804201846047016000838152602001908152602001600020600501600060405180807f6d696e457865637574696f6e44617465000000000000000000000000000000008152506010019050604051809103902081526020019081526020016000208190555050505050565b600081604a0160003373ffffffffffffffffffffffffffffffffffffffff1673ffffffffffffffffffffffffffffffffffffffff16815260200190815260200160002090506001816000015414151561120a57600080fd5b60028160000181905550620151804281151561122257fe5b0642038160010181905550600182604301600060405180807f7374616b6572436f756e74000000000000000000000000000000000000000000815250600b01905060405180910390208152602001908152602001600020600082825403925050819055503373ffffffffffffffffffffffffffffffffffffffff167f453865710d0cb4b14ad25de371c860da196368895daa9662e5087711d14daecf60405160405180910390a25050565b6000821115156112dc57600080fd5b670de0b6b3a764000082111515156112f357600080fd5b606084905060608490506000825111151561130d57600080fd5b6040815110151561131d57600080fd5b600082856040516020018083805190602001908083835b6020831015156113595780518252602082019150602081019050602083039250611334565b6001836020036101000a03801982511681845116808217855250505050505090500182815260200192505050604051602081830303815290604052805190602001209050600088604c0160008381526020019081526020016000205414156118365787604301600060405180807f72657175657374436f756e740000000000000000000000000000000000000000815250600c0190506040518091039020815260200190815260200160002060008154809291906001019190505550600088604301600060405180807f72657175657374436f756e740000000000000000000000000000000000000000815250600c0190506040518091039020815260200190815260200160002054905060806040519081016040528085815260200184815260200183815260200160006040519080825280602002602001820160405280156114b25781602001602082028038833980820191505090505b5081525089604b01600083815260200190815260200160002060008201518160000190805190602001906114e7929190615a60565b506020820151816001019080519060200190611504929190615a60565b5060408201518160020155606082015181600301908051906020019061152b929190615ae0565b509050508589604b016000838152602001908152602001600020600401600060405180807f6772616e756c6172697479000000000000000000000000000000000000000000815250600b0190506040518091039020815260200190815260200160002081905550600089604b016000838152602001908152602001600020600401600060405180807f7265717565737451506f736974696f6e0000000000000000000000000000000081525060100190506040518091039020815260200190815260200160002081905550600089604b016000838152602001908152602001600020600401600060405180807f746f74616c546970000000000000000000000000000000000000000000000000815250600801905060405180910390208152602001908152602001600020819055508089604c01600084815260200190815260200160002081905550600085111561168a57611689893330886146aa565b5b611697898287600061483c565b803373ffffffffffffffffffffffffffffffffffffffff167f6d7f869757848b19c8c2456e95cd98885bc6bed062fda4077bb07985e2f76cc98b604b0160008581526020019081526020016000206000018c604b0160008681526020019081526020016000206001018a8a60405180806020018060200185815260200184815260200183810383528781815460018160011615610100020316600290048152602001915080546001816001161561010002031660029004801561179b5780601f106117705761010080835404028352916020019161179b565b820191906000526020600020905b81548152906001019060200180831161177e57829003601f168201915b505083810382528681815460018160011615610100020316600290048152602001915080546001816001161561010002031660029004801561181e5780601f106117f35761010080835404028352916020019161181e565b820191906000526020600020905b81548152906001019060200180831161180157829003601f168201915b5050965050505050505060405180910390a350611857565b6118568889604c0160008481526020019081526020016000205486615265565b5b5050505050505050565b60008260470160008381526020019081526020016000209050600083604b01600083600501600060405180807f72657175657374496400000000000000000000000000000000000000000000008152506009019050604051809103902081526020019081526020016000205481526020019081526020016000209050600015158260020160009054906101000a900460ff16151514151561190157600080fd5b81600501600060405180807f6d696e457865637574696f6e4461746500000000000000000000000000000000815250601001905060405180910390208152602001908152602001600020544211151561195957600080fd5b600015158260020160029054906101000a900460ff1615151415611e1e57600084604a0160008460020160039054906101000a900473ffffffffffffffffffffffffffffffffffffffff1673ffffffffffffffffffffffffffffffffffffffff1673ffffffffffffffffffffffffffffffffffffffff1681526020019081526020016000209050600083600101541315611c8457600081600001819055506201518042811515611a0557fe5b064203816001018190555084604301600060405180807f7374616b6572436f756e74000000000000000000000000000000000000000000815250600b019050604051809103902081526020019081526020016000206000815480929190600190039190505550611b09858460020160039054906101000a900473ffffffffffffffffffffffffffffffffffffffff168560030160009054906101000a900473ffffffffffffffffffffffffffffffffffffffff1688604301600060405180807f7374616b65416d6f756e74000000000000000000000000000000000000000000815250600b01905060405180910390208152602001908152602001600020546146aa565b611b8385338560030160009054906101000a900473ffffffffffffffffffffffffffffffffffffffff1688604301600060405180807f6469737075746546656500000000000000000000000000000000000000000000815250600a01905060405180910390208152602001908152602001600020546146aa565b60018360020160016101000a81548160ff0219169083151502179055506001151582600701600085600501600060405180807f74696d657374616d70000000000000000000000000000000000000000000000081525060090190506040518091039020815260200190815260200160002054815260200190815260200160002060009054906101000a900460ff1615151415611c7f57600082600601600085600501600060405180807f74696d657374616d700000000000000000000000000000000000000000000000815250600901905060405180910390208152602001908152602001600020548152602001908152602001600020819055505b611e18565b6001816000018190555060008360020160016101000a81548160ff021916908315150217905550611d2585338560020160039054906101000a900473ffffffffffffffffffffffffffffffffffffffff1688604301600060405180807f6469737075746546656500000000000000000000000000000000000000000000815250600a01905060405180910390208152602001908152602001600020546146aa565b6001151582600701600085600501600060405180807f74696d657374616d70000000000000000000000000000000000000000000000081525060090190506040518091039020815260200190815260200160002054815260200190815260200160002060009054906101000a900460ff1615151415611e1757600082600701600085600501600060405180807f74696d657374616d70000000000000000000000000000000000000000000000081525060090190506040518091039020815260200190815260200160002054815260200190815260200160002060006101000a81548160ff0219169083151502179055505b5b5061202f565b60008260010154131561202e576064601485604301600060405180807f746f74616c5f737570706c790000000000000000000000000000000000000000815250600c019050604051809103902081526020019081526020016000205402811515611e8457fe5b0482600501600060405180807f71756f72756d000000000000000000000000000000000000000000000000000081525060060190506040518091039020815260200190815260200160002054111515611edc57600080fd5b8160040160009054906101000a900473ffffffffffffffffffffffffffffffffffffffff1684604201600060405180807f74656c6c6f72436f6e7472616374000000000000000000000000000000000000815250600e0190506040518091039020815260200190815260200160002060006101000a81548173ffffffffffffffffffffffffffffffffffffffff021916908373ffffffffffffffffffffffffffffffffffffffff16021790555060018260020160016101000a81548160ff0219169083151502179055507fc2d1449eb0b6547aa426e09d9942a77fa4fc8cd3296305b3163e22452e0bcb8d8260040160009054906101000a900473ffffffffffffffffffffffffffffffffffffffff16604051808273ffffffffffffffffffffffffffffffffffffffff1673ffffffffffffffffffffffffffffffffffffffff16815260200191505060405180910390a15b5b60018260020160006101000a81548160ff0219169083151502179055508160020160039054906101000a900473ffffffffffffffffffffffffffffffffffffffff1673ffffffffffffffffffffffffffffffffffffffff16837f21459c2f5447ebcf83a7f0a238c32c71076faef0d12295e771c0cb1e1043473984600101548560030160009054906101000a900473ffffffffffffffffffffffffffffffffffffffff168660020160019054906101000a900460ff16604051808481526020018373ffffffffffffffffffffffffffffffffffffffff1673ffffffffffffffffffffffffffffffffffffffff16815260200182151515158152602001935050505060405180910390a350505050565b600184604a0160003373ffffffffffffffffffffffffffffffffffffffff1673ffffffffffffffffffffffffffffffffffffffff1681526020019081526020016000206000015414151561219157600080fd5b83604301600060405180807f63757272656e745265717565737449640000000000000000000000000000000081525060100190506040518091039020815260200190815260200160002054821415156121e957600080fd5b600084604301600060405180807f646966666963756c747900000000000000000000000000000000000000000000815250600a01905060405180910390208152602001908152602001600020546002600387600001543388604051602001808481526020018373ffffffffffffffffffffffffffffffffffffffff1673ffffffffffffffffffffffffffffffffffffffff166c0100000000000000000000000002815260140182805190602001908083835b6020831015156122c0578051825260208201915060208101905060208303925061229b565b6001836020036101000a038019825116818451168082178552505050505050905001935050505060405160208183030381529060405280519060200120604051602001808281526020019150506040516020818303038152906040526040518082805190602001908083835b602083101515612351578051825260208201915060208101905060208303925061232c565b6001836020036101000a038019825116818451168082178552505050505050905001915050602060405180830381855afa158015612393573d6000803e3d6000fd5b505050604051516c010000000000000000000000000260405160200180826bffffffffffffffffffffffff19166bffffffffffffffffffffffff191681526014019150506040516020818303038152906040526040518082805190602001908083835b60208310151561241b57805182526020820191506020810190506020830392506123f6565b6001836020036101000a038019825116818451168082178552505050505050905001915050602060405180830381855afa15801561245d573d6000803e3d6000fd5b5050506040513d602081101561247257600080fd5b81019080805190602001909291905050506001900481151561249057fe5b0614151561249d57600080fd5b600015158460440160008660000154815260200190815260200160002060003373ffffffffffffffffffffffffffffffffffffffff1673ffffffffffffffffffffffffffffffffffffffff16815260200190815260200160002060009054906101000a900460ff16151514151561251357600080fd5b808460380185604301600060405180807f736c6f7450726f67726573730000000000000000000000000000000000000000815250600c019050604051809103902081526020019081526020016000205460058110151561256f57fe5b6002020160000181905550338460380185604301600060405180807f736c6f7450726f67726573730000000000000000000000000000000000000000815250600c01905060405180910390208152602001908152602001600020546005811015156125d657fe5b6002020160010160006101000a81548173ffffffffffffffffffffffffffffffffffffffff021916908373ffffffffffffffffffffffffffffffffffffffff16021790555083604301600060405180807f736c6f7450726f67726573730000000000000000000000000000000000000000815250600c019050604051809103902081526020019081526020016000206000815480929190600101919050555060018460440160008660000154815260200190815260200160002060003373ffffffffffffffffffffffffffffffffffffffff1673ffffffffffffffffffffffffffffffffffffffff16815260200190815260200160002060006101000a81548160ff021916908315150217905550813373ffffffffffffffffffffffffffffffffffffffff167fe6d63a2aee0aaed2ab49702313ce54114f2145af219d7db30d6624af9e6dffc4858488600001546040518080602001848152602001838152602001828103825285818151815260200191508051906020019080838360005b83811015612770578082015181840152602081019050612755565b50505050905090810190601f16801561279d5780820380516001836020036101000a031916815260200191505b5094505050505060405180910390a3600584604301600060405180807f736c6f7450726f67726573730000000000000000000000000000000000000000815250600c019050604051809103902081526020019081526020016000205414156140fc57600084604b01600084815260200190815260200160002090506000606486604301600060405180807f74696d654f664c6173744e657756616c7565000000000000000000000000000081525060120190506040518091039020815260200190815260200160002054420387604301600060405180807f74696d6554617267657400000000000000000000000000000000000000000000815250600a01905060405180910390208152602001908152602001600020540387604301600060405180807f646966666963756c747900000000000000000000000000000000000000000000815250600a01905060405180910390208152602001908152602001600020540281151561290a57fe5b0586604301600060405180807f646966666963756c747900000000000000000000000000000000000000000000815250600a01905060405180910390208152602001908152602001600020540190506000811315156129b857600186604301600060405180807f646966666963756c747900000000000000000000000000000000000000000000815250600a0190506040518091039020815260200190815260200160002081905550612a08565b8086604301600060405180807f646966666963756c747900000000000000000000000000000000000000000000815250600a01905060405180910390208152602001908152602001600020819055505b603c42811515612a1457fe5b06420386604301600060405180807f74696d654f664c6173744e657756616c7565000000000000000000000000000081525060120190506040518091039020815260200190815260200160002081905550612a6d615b2d565b86603801600580602002604051908101604052809291906000905b82821015612b1057838260020201604080519081016040529081600082015481526020016001820160009054906101000a900473ffffffffffffffffffffffffffffffffffffffff1673ffffffffffffffffffffffffffffffffffffffff1673ffffffffffffffffffffffffffffffffffffffff168152505081526020019060010190612a88565b5050505090506000600190505b6005811015612cb45760008282600581101515612b3657fe5b602002015160000151905060008383600581101515612b5157fe5b602002015160200151905060008390505b600081118015612b8a57508460018203600581101515612b7e57fe5b60200201516000015183105b15612c35578460018203600581101515612ba057fe5b6020020151600001518582600581101515612bb757fe5b602002015160000181815250508460018203600581101515612bd557fe5b6020020151602001518582600581101515612bec57fe5b60200201516020019073ffffffffffffffffffffffffffffffffffffffff16908173ffffffffffffffffffffffffffffffffffffffff1681525050808060019003915050612b62565b83811015612ca457828582600581101515612c4c57fe5b60200201516000018181525050818582600581101515612c6857fe5b60200201516020019073ffffffffffffffffffffffffffffffffffffffff16908173ffffffffffffffffffffffffffffffffffffffff16815250505b5050508080600101915050612b1d565b600090505b6005811015612d5157612d4488308484600581101515612cd557fe5b60200201516020015160058c604301600060405180807f63757272656e74546f74616c546970730000000000000000000000000000000081525060100190506040518091039020815260200190815260200160002054811515612d3457fe5b04674563918244f40000016146aa565b8080600101915050612cb9565b857fc509d04e0782579ee59912139246ccbdf6c36c43abd90591d912017f3467dd1689604301600060405180807f74696d654f664c6173744e657756616c7565000000000000000000000000000081525060120190506040518091039020815260200190815260200160002054846002600581101515612dcd57fe5b60200201516000015160058c604301600060405180807f63757272656e74546f74616c546970730000000000000000000000000000000081525060100190506040518091039020815260200190815260200160002054811515612e2c57fe5b068c604301600060405180807f63757272656e74546f74616c546970730000000000000000000000000000000081525060100190506040518091039020815260200190815260200160002054038c600001546040518085815260200184815260200183815260200182815260200194505050505060405180910390a268017da3a04c7b3e000088604301600060405180807f746f74616c5f737570706c790000000000000000000000000000000000000000815250600c0190506040518091039020815260200190815260200160002060008282540192505081905550612f8788308a604201600060405180807f5f6f776e6572000000000000000000000000000000000000000000000000000081525060060190506040518091039020815260200190815260200160002060009054906101000a900473ffffffffffffffffffffffffffffffffffffffff166722b1c8c1227a00006146aa565b816002600581101515612f9657fe5b6020020151600001518460060160008a604301600060405180807f74696d654f664c6173744e657756616c75650000000000000000000000000000815250601201905060405180910390208152602001908152602001600020548152602001908152602001600020819055508360030188604301600060405180807f74696d654f664c6173744e657756616c7565000000000000000000000000000081525060120190506040518091039020815260200190815260200160002054908060018154018082558091505090600182039060005260206000200160009091929091909150555060a06040519081016040528083600060058110151561309557fe5b60200201516020015173ffffffffffffffffffffffffffffffffffffffff1673ffffffffffffffffffffffffffffffffffffffff1681526020018360016005811015156130de57fe5b60200201516020015173ffffffffffffffffffffffffffffffffffffffff1673ffffffffffffffffffffffffffffffffffffffff16815260200183600260058110151561312757fe5b60200201516020015173ffffffffffffffffffffffffffffffffffffffff1673ffffffffffffffffffffffffffffffffffffffff16815260200183600360058110151561317057fe5b60200201516020015173ffffffffffffffffffffffffffffffffffffffff1673ffffffffffffffffffffffffffffffffffffffff1681526020018360046005811015156131b957fe5b60200201516020015173ffffffffffffffffffffffffffffffffffffffff1673ffffffffffffffffffffffffffffffffffffffff168152508460080160008a604301600060405180807f74696d654f664c6173744e657756616c7565000000000000000000000000000081525060120190506040518091039020815260200190815260200160002054815260200190815260200160002090600561325e929190615b5c565b5060a06040519081016040528083600060058110151561327a57fe5b602002015160000151815260200183600160058110151561329757fe5b60200201516000015181526020018360026005811015156132b457fe5b60200201516000015181526020018360036005811015156132d157fe5b60200201516000015181526020018360046005811015156132ee57fe5b6020020151600001518152508460090160008a604301600060405180807f74696d654f664c6173744e657756616c75650000000000000000000000000000815250601201905060405180910390208152602001908152602001600020548152602001908152602001600020906005613367929190615bd9565b50438460050160008a604301600060405180807f74696d654f664c6173744e657756616c756500000000000000000000000000008152506012019050604051809103902081526020019081526020016000205481526020019081526020016000208190555087604301600060405180807f6f6e4465636b5265717565737449640000000000000000000000000000000000815250600f019050604051809103902081526020019081526020016000205488604301600060405180807f63757272656e74526571756573744964000000000000000000000000000000008152506010019050604051809103902081526020019081526020016000208190555087604301600060405180807f6f6e4465636b546f74616c546970730000000000000000000000000000000000815250600f019050604051809103902081526020019081526020016000205488604301600060405180807f63757272656e74546f74616c546970730000000000000000000000000000000081525060100190506040518091039020815260200190815260200160002081905550858860450160008a604301600060405180807f74696d654f664c6173744e657756616c75650000000000000000000000000000815250601201905060405180910390208152602001908152602001600020548152602001908152602001600020819055508760370188604301600060405180807f74696d654f664c6173744e657756616c75650000000000000000000000000000815250601201905060405180910390208152602001908152602001600020549080600181540180825580915050906001820390600052602060002001600090919290919091505550600088604301600060405180807f736c6f7450726f67726573730000000000000000000000000000000000000000815250600c019050604051809103902081526020019081526020016000208190555060008860040189604b0160008b604301600060405180807f6f6e4465636b5265717565737449640000000000000000000000000000000000815250600f01905060405180910390208152602001908152602001600020548152602001908152602001600020600401600060405180807f7265717565737451506f736974696f6e00000000000000000000000000000000815250601001905060405180910390208152602001908152602001600020546033811015156136e557fe5b018190555060008860460160008a604b0160008c604301600060405180807f6f6e4465636b5265717565737449640000000000000000000000000000000000815250600f01905060405180910390208152602001908152602001600020548152602001908152602001600020600401600060405180807f7265717565737451506f736974696f6e0000000000000000000000000000000081525060100190506040518091039020815260200190815260200160002054815260200190815260200160002081905550600088604b0160008a604301600060405180807f6f6e4465636b5265717565737449640000000000000000000000000000000000815250600f01905060405180910390208152602001908152602001600020548152602001908152602001600020600401600060405180807f7265717565737451506f736974696f6e0000000000000000000000000000000081525060100190506040518091039020815260200190815260200160002081905550600088604b0160008a604301600060405180807f6f6e4465636b5265717565737449640000000000000000000000000000000000815250600f01905060405180910390208152602001908152602001600020548152602001908152602001600020600401600060405180807f746f74616c54697000000000000000000000000000000000000000000000000081525060080190506040518091039020815260200190815260200160002081905550613911615c19565b600089604301600060405180807f63757272656e7452657175657374496400000000000000000000000000000000815250601001905060405180910390208152602001908152602001600020541115614041576139ac896004016033806020026040519081016040528092919082603380156139a2576020028201915b81548152602001906001019080831161398e575b5050505050615351565b8260006002811015156139bb57fe5b602002018360016002811015156139ce57fe5b60200201828152508281525050508860460160008260016002811015156139f157fe5b602002015181526020019081526020016000205489604301600060405180807f6f6e4465636b5265717565737449640000000000000000000000000000000000815250600f019050604051809103902081526020019081526020016000208190555088604b0160008a604301600060405180807f6f6e4465636b5265717565737449640000000000000000000000000000000000815250600f01905060405180910390208152602001908152602001600020548152602001908152602001600020600201548960010181905550806000600281101515613acd57fe5b602002015189604301600060405180807f6f6e4465636b546f74616c546970730000000000000000000000000000000000815250600f019050604051809103902081526020019081526020016000208190555087896000015460014303406040516020018084805190602001908083835b602083101515613b635780518252602082019150602081019050602083039250613b3e565b6001836020036101000a038019825116818451168082178552505050505050905001838152602001828152602001935050505060405160208183030381529060405280519060200120896000018190555088604301600060405180807f63757272656e7452657175657374496400000000000000000000000000000000815250601001905060405180910390208152602001908152602001600020547f9e959738f09af22daede9ff9563f8edf3f5cec8e17ce60287c911c95fa767f428a600001548b604301600060405180807f646966666963756c747900000000000000000000000000000000000000000000815250600a01905060405180910390208152602001908152602001600020548c604b0160008e604301600060405180807f63757272656e7452657175657374496400000000000000000000000000000000815250601001905060405180910390208152602001908152602001600020548152602001908152602001600020600401600060405180807f6772616e756c6172697479000000000000000000000000000000000000000000815250600b01905060405180910390208152602001908152602001600020548d604b0160008f604301600060405180807f63757272656e74526571756573744964000000000000000000000000000000008152506010019050604051809103902081526020019081526020016000205481526020019081526020016000206000018e604301600060405180807f63757272656e74546f74616c5469707300000000000000000000000000000000815250601001905060405180910390208152602001908152602001600020546040518086815260200185815260200184815260200180602001838152602001828103825284818154600181600116156101000203166002900481526020019150805460018160011615610100020316600290048015613e675780601f10613e3c57610100808354040283529160200191613e67565b820191906000526020600020905b815481529060010190602001808311613e4a57829003601f168201915b5050965050505050505060405180910390a288604301600060405180807f6f6e4465636b5265717565737449640000000000000000000000000000000000815250600f01905060405180910390208152602001908152602001600020547f5ab383fe3e28263c839564bc7545520a7dd34b78cbd7ab21b2da5d2fd027bf6c8a604b0160008c604301600060405180807f6f6e4465636b5265717565737449640000000000000000000000000000000000815250600f019050604051809103902081526020019081526020016000205481526020019081526020016000206000018b600101548c604301600060405180807f6f6e4465636b546f74616c546970730000000000000000000000000000000000815250600f0190506040518091039020815260200190815260200160002054604051808060200184815260200183815260200182810382528581815460018160011615610100020316600290048152602001915080546001816001161561010002031660029004801561402c5780601f106140015761010080835404028352916020019161402c565b820191906000526020600020905b81548152906001019060200180831161400f57829003601f168201915b505094505050505060405180910390a26140f6565b600089604301600060405180807f6f6e4465636b5265717565737449640000000000000000000000000000000000815250600f0190506040518091039020815260200190815260200160002081905550600089604301600060405180807f6f6e4465636b546f74616c546970730000000000000000000000000000000000815250600f019050604051809103902081526020019081526020016000208190555060008960010181905550600089600001819055505b50505050505b50505050565b6000614110843385856146aa565b600190509392505050565b600081604a0160003373ffffffffffffffffffffffffffffffffffffffff1673ffffffffffffffffffffffffffffffffffffffff16815260200190815260200160002090506000620151804281151561417057fe5b064203905062093a808260010154820310158015614192575060028260000154145b151561419d57600080fd5b600082600001819055503373ffffffffffffffffffffffffffffffffffffffff167f4a7934670bd8304e7da22378be1368f7c4fef17c5aee81804beda8638fe428ec60405160405180910390a2505050565b60008360470160008481526020019081526020016000209050600061425f853384600501600060405180807f626c6f636b4e756d626572000000000000000000000000000000000000000000815250600b01905060405180910390208152602001908152602001600020546153c0565b9050600115158260060160003373ffffffffffffffffffffffffffffffffffffffff1673ffffffffffffffffffffffffffffffffffffffff16815260200190815260200160002060009054906101000a900460ff161515141515156142c357600080fd5b6000811115156142d257600080fd5b600385604a0160003373ffffffffffffffffffffffffffffffffffffffff1673ffffffffffffffffffffffffffffffffffffffff168152602001908152602001600020600001541415151561432657600080fd5b60018260060160003373ffffffffffffffffffffffffffffffffffffffff1673ffffffffffffffffffffffffffffffffffffffff16815260200190815260200160002060006101000a81548160ff021916908315150217905550600182600501600060405180807f6e756d6265724f66566f74657300000000000000000000000000000000000000815250600d01905060405180910390208152602001908152602001600020600082825401925050819055508082600501600060405180807f71756f72756d000000000000000000000000000000000000000000000000000081525060060190506040518091039020815260200190815260200160002060008282540192505081905550821561444b5780826001015401826001018190555061445b565b8082600101540382600101819055505b3373ffffffffffffffffffffffffffffffffffffffff16847f86abfce99b7dd908bec0169288797f85049ec73cbe046ed9de818fab3a497ae085604051808215151515815260200191505060405180910390a35050505050565b81604201600060405180807f5f6f776e6572000000000000000000000000000000000000000000000000000081525060060190506040518091039020815260200190815260200160002060009054906101000a900473ffffffffffffffffffffffffffffffffffffffff1673ffffffffffffffffffffffffffffffffffffffff163373ffffffffffffffffffffffffffffffffffffffff1614151561455957600080fd5b8073ffffffffffffffffffffffffffffffffffffffff1682604201600060405180807f5f6f776e6572000000000000000000000000000000000000000000000000000081525060060190506040518091039020815260200190815260200160002060009054906101000a900473ffffffffffffffffffffffffffffffffffffffff1673ffffffffffffffffffffffffffffffffffffffff167f8be0079c531659141344cd1fd0a4f28419497f9722a3daafe3b4186f6b6457e060405160405180910390a38082604201600060405180807f5f6f776e6572000000000000000000000000000000000000000000000000000081525060060190506040518091039020815260200190815260200160002060006101000a81548173ffffffffffffffffffffffffffffffffffffffff021916908373ffffffffffffffffffffffffffffffffffffffff1602179055505050565b6000811115156146b957600080fd5b600073ffffffffffffffffffffffffffffffffffffffff168273ffffffffffffffffffffffffffffffffffffffff16141515156146f557600080fd5b6147008484836154ff565b151561470b57600080fd5b60006147188585436153c0565b90506147668560480160008673ffffffffffffffffffffffffffffffffffffffff1673ffffffffffffffffffffffffffffffffffffffff168152602001908152602001600020838303615617565b6147718584436153c0565b9050808282011015151561478457600080fd5b6147d08560480160008573ffffffffffffffffffffffffffffffffffffffff1673ffffffffffffffffffffffffffffffffffffffff168152602001908152602001600020838301615617565b8273ffffffffffffffffffffffffffffffffffffffff168473ffffffffffffffffffffffffffffffffffffffff167fddf252ad1be2c89b69c2b068fc378daa952ba7f163c4a11628f55a4df523b3ef846040518082815260200191505060405180910390a35050505050565b600084604b0160008581526020019081526020016000209050600083111561490a576148bb8382600401600060405180807f746f74616c5469700000000000000000000000000000000000000000000000008152506008019050604051809103902081526020019081526020016000205461578c90919063ffffffff16565b81600401600060405180807f746f74616c546970000000000000000000000000000000000000000000000000815250600801905060405180910390208152602001908152602001600020819055505b600081600401600060405180807f746f74616c546970000000000000000000000000000000000000000000000000815250600801905060405180910390208152602001908152602001600020549050600086604301600060405180807f63757272656e7452657175657374496400000000000000000000000000000000815250601001905060405180910390208152602001908152602001600020541415614dab57600082600401600060405180807f746f74616c546970000000000000000000000000000000000000000000000000815250600801905060405180910390208152602001908152602001600020819055508486604301600060405180807f63757272656e7452657175657374496400000000000000000000000000000000815250601001905060405180910390208152602001908152602001600020819055508086604301600060405180807f63757272656e74546f74616c546970730000000000000000000000000000000081525060100190506040518091039020815260200190815260200160002081905550808660000154600143034060405160200180848152602001838152602001828152602001935050505060405160208183030381529060405280519060200120866000018190555085604301600060405180807f63757272656e7452657175657374496400000000000000000000000000000000815250601001905060405180910390208152602001908152602001600020547f9e959738f09af22daede9ff9563f8edf3f5cec8e17ce60287c911c95fa767f42876000015488604301600060405180807f646966666963756c747900000000000000000000000000000000000000000000815250600a019050604051809103902081526020019081526020016000205489604b0160008b604301600060405180807f63757272656e7452657175657374496400000000000000000000000000000000815250601001905060405180910390208152602001908152602001600020548152602001908152602001600020600401600060405180807f6772616e756c6172697479000000000000000000000000000000000000000000815250600b01905060405180910390208152602001908152602001600020548a604b0160008c604301600060405180807f63757272656e74526571756573744964000000000000000000000000000000008152506010019050604051809103902081526020019081526020016000205481526020019081526020016000206000018b604301600060405180807f63757272656e74546f74616c5469707300000000000000000000000000000000815250601001905060405180910390208152602001908152602001600020546040518086815260200185815260200184815260200180602001838152602001828103825284818154600181600116156101000203166002900481526020019150805460018160011615610100020316600290048015614d945780601f10614d6957610100808354040283529160200191614d94565b820191906000526020600020905b815481529060010190602001808311614d7757829003601f168201915b5050965050505050505060405180910390a261525d565b85604301600060405180807f6f6e4465636b5265717565737449640000000000000000000000000000000000815250600f0190506040518091039020815260200190815260200160002054851415614e51578086604301600060405180807f6f6e4465636b546f74616c546970730000000000000000000000000000000000815250600f0190506040518091039020815260200190815260200160002081905550615086565b85604301600060405180807f6f6e4465636b546f74616c546970730000000000000000000000000000000000815250600f0190506040518091039020815260200190815260200160002054811180614f035750600086604301600060405180807f6f6e4465636b5265717565737449640000000000000000000000000000000000815250600f0190506040518091039020815260200190815260200160002054148015614f02575060001515831515145b5b15615085578486604301600060405180807f6f6e4465636b5265717565737449640000000000000000000000000000000000815250600f0190506040518091039020815260200190815260200160002081905550816002015486600101819055508086604301600060405180807f6f6e4465636b546f74616c546970730000000000000000000000000000000000815250600f0190506040518091039020815260200190815260200160002081905550847f5ab383fe3e28263c839564bc7545520a7dd34b78cbd7ab21b2da5d2fd027bf6c8360000188600101548460405180806020018481526020018381526020018281038252858181546001816001161561010002031660029004815260200191508054600181600116156101000203166002900480156150745780601f1061504957610100808354040283529160200191615074565b820191906000526020600020905b81548152906001019060200180831161505757829003601f168201915b505094505050505060405180910390a25b5b600082600401600060405180807f7265717565737451506f736974696f6e00000000000000000000000000000000815250601001905060405180910390208152602001908152602001600020541480156150e4575060001515831515145b156151d7576000806151348860040160338060200260405190810160405280929190826033801561512a576020028201915b815481526020019060010190808311615116575b50505050506157aa565b80925081935050508183118061514a5750600082145b156151d05782886004018260338110151561516157fe5b018190555086886046016000838152602001908152602001600020819055508084600401600060405180807f7265717565737451506f736974696f6e00000000000000000000000000000000815250601001905060405180910390208152602001908152602001600020819055505b505061525c565b6000841180156151eb575060001515831515145b1561525b57838660040183600401600060405180807f7265717565737451506f736974696f6e000000000000000000000000000000008152506010019050604051809103902081526020019081526020016000205460338110151561524c57fe5b01600082825401925050819055505b5b5b505050505050565b60008211151561527457600080fd5b600081111561528a57615289833330846146aa565b5b615297838383600061483c565b813373ffffffffffffffffffffffffffffffffffffffff167fd32134405b68f6f7220f9c38ae310df1b648d16188006768d45be2f7c24e88208386604b016000878152602001908152602001600020600401600060405180807f746f74616c54697000000000000000000000000000000000000000000000000081525060080190506040518091039020815260200190815260200160002054604051808381526020018281526020019250505060405180910390a3505050565b60008082600160338110151561536357fe5b602002015191506000600190505b60338110156153ba5782848260338110151561538957fe5b602002015111156153ad5783816033811015156153a257fe5b602002015192508091505b8080600101915050615371565b50915091565b6000808460480160008573ffffffffffffffffffffffffffffffffffffffff1673ffffffffffffffffffffffffffffffffffffffff16815260200190815260200160002080549050148061549d5750818460480160008573ffffffffffffffffffffffffffffffffffffffff1673ffffffffffffffffffffffffffffffffffffffff168152602001908152602001600020600081548110151561545f57fe5b9060005260206000200160000160009054906101000a90046fffffffffffffffffffffffffffffffff166fffffffffffffffffffffffffffffffff16115b156154ab57600090506154f8565b6154f58460480160008573ffffffffffffffffffffffffffffffffffffffff1673ffffffffffffffffffffffffffffffffffffffff16815260200190815260200160002083615823565b90505b9392505050565b60008084604a0160008573ffffffffffffffffffffffffffffffffffffffff1673ffffffffffffffffffffffffffffffffffffffff1681526020019081526020016000206000015411156155dc5760006155c7836155b987604301600060405180807f7374616b65416d6f756e74000000000000000000000000000000000000000000815250600b01905060405180910390208152602001908152602001600020546155ab8989615a32565b615a4790919063ffffffff16565b615a4790919063ffffffff16565b1015156155d75760019050615610565b61560b565b60006155fa836155ec8787615a32565b615a4790919063ffffffff16565b10151561560a5760019050615610565b5b600090505b9392505050565b60008280549050148061567957504382600184805490500381548110151561563b57fe5b9060005260206000200160000160009054906101000a90046fffffffffffffffffffffffffffffffff166fffffffffffffffffffffffffffffffff16105b15615728576000828380548091906001016156949190615c3b565b8154811015156156a057fe5b906000526020600020019050438160000160006101000a8154816fffffffffffffffffffffffffffffffff02191690836fffffffffffffffffffffffffffffffff160217905550818160000160106101000a8154816fffffffffffffffffffffffffffffffff02191690836fffffffffffffffffffffffffffffffff16021790555050615788565b600082600184805490500381548110151561573f57fe5b906000526020600020019050818160000160106101000a8154816fffffffffffffffffffffffffffffffff02191690836fffffffffffffffffffffffffffffffff160217905550505b5050565b60008082840190508381101515156157a057fe5b8091505092915050565b6000806001603303905082816033811015156157c257fe5b602002015191506000600160330390505b600081111561581d578284826033811015156157eb57fe5b6020020151101561580f57838160338110151561580457fe5b602002015192508091505b8080600190039150506157d3565b50915091565b6000808380549050141561583a5760009050615a2c565b82600184805490500381548110151561584f57fe5b9060005260206000200160000160009054906101000a90046fffffffffffffffffffffffffffffffff166fffffffffffffffffffffffffffffffff16821015156158eb578260018480549050038154811015156158a857fe5b9060005260206000200160000160109054906101000a90046fffffffffffffffffffffffffffffffff166fffffffffffffffffffffffffffffffff169050615a2c565b8260008154811015156158fa57fe5b9060005260206000200160000160009054906101000a90046fffffffffffffffffffffffffffffffff166fffffffffffffffffffffffffffffffff168210156159465760009050615a2c565b60008090506000600185805490500390505b818111156159dd576000600260018484010181151561597357fe5b04905084868281548110151561598557fe5b9060005260206000200160000160009054906101000a90046fffffffffffffffffffffffffffffffff166fffffffffffffffffffffffffffffffff161115156159d0578092506159d7565b6001810391505b50615958565b84828154811015156159eb57fe5b9060005260206000200160000160109054906101000a90046fffffffffffffffffffffffffffffffff166fffffffffffffffffffffffffffffffff16925050505b92915050565b6000615a3f8383436153c0565b905092915050565b6000828211151515615a5557fe5b818303905092915050565b828054600181600116156101000203166002900490600052602060002090601f016020900481019282601f10615aa157805160ff1916838001178555615acf565b82800160010185558215615acf579182015b82811115615ace578251825591602001919060010190615ab3565b5b509050615adc9190615c67565b5090565b828054828255906000526020600020908101928215615b1c579160200282015b82811115615b1b578251825591602001919060010190615b00565b5b509050615b299190615c67565b5090565b610140604051908101604052806005905b615b46615c8c565b815260200190600190039081615b3e5790505090565b8260058101928215615bc8579160200282015b82811115615bc75782518260006101000a81548173ffffffffffffffffffffffffffffffffffffffff021916908373ffffffffffffffffffffffffffffffffffffffff16021790555091602001919060010190615b6f565b5b509050615bd59190615cbc565b5090565b8260058101928215615c08579160200282015b82811115615c07578251825591602001919060010190615bec565b5b509050615c159190615c67565b5090565b6040805190810160405280600290602082028038833980820191505090505090565b815481835581811115615c6257818360005260206000209182019101615c619190615cff565b5b505050565b615c8991905b80821115615c85576000816000905550600101615c6d565b5090565b90565b604080519081016040528060008152602001600073ffffffffffffffffffffffffffffffffffffffff1681525090565b615cfc91905b80821115615cf857600081816101000a81549073ffffffffffffffffffffffffffffffffffffffff021916905550600101615cc2565b5090565b90565b615d6191905b80821115615d5d57600080820160006101000a8154906fffffffffffffffffffffffffffffffff02191690556000820160106101000a8154906fffffffffffffffffffffffffffffffff021916905550600101615d05565b5090565b9056fea165627a7a7230582069118c2371ece121ae7523511f58534f738134efec5c71e81f57fdbd45be39fa0029",
  "source": "pragma solidity ^0.5.0;\n\nimport \"./libraries/SafeMath.sol\";\nimport \"./libraries/Utilities.sol\";\nimport \"./libraries/TellorLibrary.sol\";\n//import \"./TellorGetters.sol\";\n\n/**\n * @title Tellor Oracle System\n * @dev Oracle contract where miners can submit the proof of work along with the value.\n * The logic for this contract is in TellorLibrary.sol\n */\ncontract Tellor /* is TellorGetters*/{\n\n    using SafeMath for uint256;\n\n    using TellorLibrary for TellorLibrary.TellorStorageStruct;\n    TellorLibrary.TellorStorageStruct tellor;\n\n    /*Functions*/\n    /*This is a cheat for demo purposes, will delete upon actual launch*/\n    function theLazyCoon(address _address, uint _amount) public {\n        tellor.theLazyCoon(_address,_amount);\n    }\n\n    /*\n    * @dev This function gives 5 miners the inital staked tokens in the system.  \n    * It would run with the constructor, but throws on too much gas\n    * It only runs once or only when the requestCount is zero. \n    */\n    function tellorPostConstructor() external {\n        tellor.tellorPostConstructor();\n    }\n\n    /**\n    * @dev Add tip to Request value from oracle\n    * @param _requestId being requested to be mined\n    * @param _tip amount the requester is willing to pay to be get on queue. Miners\n    * mine the onDeckQueryHash, or the api with the highest payout pool\n    */\n    function addTip(uint _requestId, uint _tip) external {\n        tellor.addTip(_requestId,_tip);\n    }\n\n    /**\n    * @dev This function approves a _spender an _amount of tokens to use\n    * @param _spender address\n    * @param _amount amount the spender is being approved for\n    * @return true if spender appproved successfully\n    */\n    function approve(address _spender, uint _amount) external returns (bool) {\n        return tellor.approve(_spender,_amount);\n    }\n\n\n    /**\n    * @dev Helps initialize a dispute by assigning it a disputeId \n    * when a miner returns a false on the validate array(in Tellor.ProofOfWork) it sends the \n    * invalidated value information to POS voting\n    * @param _requestId being disputed\n    * @param _timestamp being disputed\n    * @param _minerIndex the index of the miner that submitted the value being disputed. Since each official value \n    * requires 5 miners to submit a value.\n    */\n    function beginDispute(uint _requestId, uint _timestamp,uint _minerIndex) external {\n        tellor.beginDispute(_requestId,_timestamp,_minerIndex);\n    }\n\n\n    /**\n    * @dev This function allows miners to deposit their stake.\n    */\n    function depositStake() external {\n        tellor.depositStake();\n    }\n\n\n    /**\n    * @dev Allows for a fork to be proposed\n    * @param _propNewTellorAddress address for new proposed Tellor\n    */\n    function proposeFork(address _propNewTellorAddress) external {\n        tellor.proposeFork(_propNewTellorAddress);\n    }\n\n\n    /**\n    * @dev Request to retreive value from oracle based on timestamp. The tip is not required to be \n    * greater than 0 because there are no tokens in circulation for the initial(genesis) request \n    * @param _c_sapi string API being requested be mined\n    * @param _c_symbol is the short string symbol for the api request\n    * @param _granularity is the number of decimals miners should include on the submitted value\n    * @param _tip amount the requester is willing to pay to be get on queue. Miners\n    * mine the onDeckQueryHash, or the api with the highest payout pool\n    */\n    function requestData(string calldata _c_sapi,string calldata _c_symbol,uint _granularity, uint _tip) external {\n        tellor.requestData(_c_sapi,_c_symbol,_granularity,_tip);\n    }\n    \n\n    /**\n    * @dev This function allows stakers to request to withdraw their stake (no longer stake) \n    * once they lock for withdraw(stakes.currentStatus = 2) they are locked for 7 days before they \n    * can withdraw the stake\n    */\n    function requestStakingWithdraw() external {\n        tellor.requestStakingWithdraw();\n    }\n\n\n    /**\n    * @dev tallies the votes.\n    * @param _disputeId is the dispute id\n    */\n    function tallyVotes(uint _disputeId) external {\n        tellor.tallyVotes(_disputeId);\n    }\n\n\n    /**\n    * @dev Proof of work is called by the miner when they submit the solution (proof of work and value)\n    * @param _nonce uint submitted by miner\n    * @param _requestId the apiId being mined\n    * @param _value of api query\n    */\n    function submitMiningSolution(string calldata _nonce, uint _requestId, uint _value) external{\n        tellor.submitMiningSolution(_nonce,_requestId,_value);\n    }\n\n\n    /**\n    * @dev Allows for a transfer of tokens to _to\n    * @param _to The address to send tokens to\n    * @param _amount The amount of tokens to send\n    * @return true if transfer is successful\n    */\n    function transfer(address _to, uint256 _amount) external returns (bool) {\n        return tellor.transfer(_to,_amount);\n    }\n\n\n    /**\n    * @notice Send _amount tokens to _to from _from on the condition it\n    * is approved by _from\n    * @param _from The address holding the tokens being transferred\n    * @param _to The address of the recipient\n    * @param _amount The amount of tokens to be transferred\n    * @return True if the transfer was successful\n    */\n    function transferFrom(address _from, address _to, uint256 _amount) external returns (bool) {\n        return tellor.transferFrom(_from,_to,_amount);\n    }\n\n\n    /**\n    * @dev Allows the current owner to transfer control of the contract to a newOwner.\n    * @param _newOwner The address to transfer ownership to.\n    */\n    function transferOwnership(address payable _newOwner) external {\n        tellor.transferOwnership(_newOwner);\n    }\n\n\n    /**\n    * @dev Allows token holders to vote\n    * @param _disputeId is the dispute id\n    * @param _supportsDispute is the vote (true=the dispute has basis false = vote against dispute)\n    */\n    function vote(uint _disputeId, bool _supportsDispute) external {\n        tellor.vote(_disputeId,_supportsDispute);\n    }\n\n\n    /**\n    * @dev This function allows users to withdraw their stake after a 7 day waiting period from request \n    */\n    function withdrawStake() external {\n        tellor.withdrawStake();\n    }\n\n}\n",
  "sourcePath": "/Users/mdcoon/git/TellorCore/contracts/Tellor.sol",
  "compiler": {
    "name": "solc",
    "version": "0.5.0+commit.1d4f565a.Emscripten.clang"
  },
  "schemaVersion": "3.0.6",
  "updatedAt": "2019-05-06T15:53:14.626Z",
  "devdoc": {
    "details": "Oracle contract where miners can submit the proof of work along with the value. The logic for this contract is in TellorLibrary.sol",
    "methods": {
      "addTip(uint256,uint256)": {
        "details": "Add tip to Request value from oracle",
        "params": {
          "_requestId": "being requested to be mined",
          "_tip": "amount the requester is willing to pay to be get on queue. Miners mine the onDeckQueryHash, or the api with the highest payout pool"
        }
      },
      "approve(address,uint256)": {
        "details": "This function approves a _spender an _amount of tokens to use",
        "params": {
          "_amount": "amount the spender is being approved for",
          "_spender": "address"
        },
        "return": "true if spender appproved successfully"
      },
      "beginDispute(uint256,uint256,uint256)": {
        "details": "Helps initialize a dispute by assigning it a disputeId  when a miner returns a false on the validate array(in Tellor.ProofOfWork) it sends the  invalidated value information to POS voting",
        "params": {
          "_minerIndex": "the index of the miner that submitted the value being disputed. Since each official value  requires 5 miners to submit a value.",
          "_requestId": "being disputed",
          "_timestamp": "being disputed"
        }
      },
      "depositStake()": {
        "details": "This function allows miners to deposit their stake."
      },
      "proposeFork(address)": {
        "details": "Allows for a fork to be proposed",
        "params": {
          "_propNewTellorAddress": "address for new proposed Tellor"
        }
      },
      "requestData(string,string,uint256,uint256)": {
        "details": "Request to retreive value from oracle based on timestamp. The tip is not required to be  greater than 0 because there are no tokens in circulation for the initial(genesis) request ",
        "params": {
          "_c_sapi": "string API being requested be mined",
          "_c_symbol": "is the short string symbol for the api request",
          "_granularity": "is the number of decimals miners should include on the submitted value",
          "_tip": "amount the requester is willing to pay to be get on queue. Miners mine the onDeckQueryHash, or the api with the highest payout pool"
        }
      },
      "requestStakingWithdraw()": {
        "details": "This function allows stakers to request to withdraw their stake (no longer stake)  once they lock for withdraw(stakes.currentStatus = 2) they are locked for 7 days before they  can withdraw the stake"
      },
      "submitMiningSolution(string,uint256,uint256)": {
        "details": "Proof of work is called by the miner when they submit the solution (proof of work and value)",
        "params": {
          "_nonce": "uint submitted by miner",
          "_requestId": "the apiId being mined",
          "_value": "of api query"
        }
      },
      "tallyVotes(uint256)": {
        "details": "tallies the votes.",
        "params": {
          "_disputeId": "is the dispute id"
        }
      },
      "transfer(address,uint256)": {
        "details": "Allows for a transfer of tokens to _to",
        "params": {
          "_amount": "The amount of tokens to send",
          "_to": "The address to send tokens to"
        },
        "return": "true if transfer is successful"
      },
      "transferFrom(address,address,uint256)": {
        "params": {
          "_amount": "The amount of tokens to be transferred",
          "_from": "The address holding the tokens being transferred",
          "_to": "The address of the recipient"
        },
        "return": "True if the transfer was successful"
      },
      "transferOwnership(address)": {
        "details": "Allows the current owner to transfer control of the contract to a newOwner.",
        "params": {
          "_newOwner": "The address to transfer ownership to."
        }
      },
      "vote(uint256,bool)": {
        "details": "Allows token holders to vote",
        "params": {
          "_disputeId": "is the dispute id",
          "_supportsDispute": "is the vote (true=the dispute has basis false = vote against dispute)"
        }
      },
      "withdrawStake()": {
        "details": "This function allows users to withdraw their stake after a 7 day waiting period from request "
      }
    },
    "title": "Tellor Oracle System"
  },
  "userdoc": {
    "methods": {
      "transferFrom(address,address,uint256)": {
        "notice": "Send _amount tokens to _to from _from on the condition it is approved by _from"
      }
    }
  }
}