{
  "contractName": "OldTellor",
  "abi": [
    {
      "constant": false,
      "inputs": [
        {
          "name": "_address",
          "type": "address"
        },
        {
          "name": "_amount",
          "type": "uint256"
        }
      ],
      "name": "theLazyCoon",
      "outputs": [],
      "payable": false,
      "stateMutability": "nonpayable",
      "type": "function"
    },
    {
      "constant": false,
      "inputs": [
        {
          "name": "_requestId",
          "type": "uint256"
        },
        {
          "name": "_timestamp",
          "type": "uint256"
        },
        {
          "name": "_minerIndex",
          "type": "uint256"
        }
      ],
      "name": "beginDispute",
      "outputs": [],
      "payable": false,
      "stateMutability": "nonpayable",
      "type": "function"
    },
    {
      "constant": false,
      "inputs": [
        {
          "name": "_disputeId",
          "type": "uint256"
        },
        {
          "name": "_supportsDispute",
          "type": "bool"
        }
      ],
      "name": "vote",
      "outputs": [],
      "payable": false,
      "stateMutability": "nonpayable",
      "type": "function"
    },
    {
      "constant": false,
      "inputs": [
        {
          "name": "_disputeId",
          "type": "uint256"
        }
      ],
      "name": "tallyVotes",
      "outputs": [],
      "payable": false,
      "stateMutability": "nonpayable",
      "type": "function"
    },
    {
      "constant": false,
      "inputs": [
        {
          "name": "_propNewTellorAddress",
          "type": "address"
        }
      ],
      "name": "proposeFork",
      "outputs": [],
      "payable": false,
      "stateMutability": "nonpayable",
      "type": "function"
    },
    {
      "constant": false,
      "inputs": [
        {
          "name": "_requestId",
          "type": "uint256"
        },
        {
          "name": "_tip",
          "type": "uint256"
        }
      ],
      "name": "addTip",
      "outputs": [],
      "payable": false,
      "stateMutability": "nonpayable",
      "type": "function"
    },
    {
      "constant": false,
      "inputs": [
        {
          "name": "_c_sapi",
          "type": "string"
        },
        {
          "name": "_c_symbol",
          "type": "string"
        },
        {
          "name": "_granularity",
          "type": "uint256"
        },
        {
          "name": "_tip",
          "type": "uint256"
        }
      ],
      "name": "requestData",
      "outputs": [],
      "payable": false,
      "stateMutability": "nonpayable",
      "type": "function"
    },
    {
      "constant": false,
      "inputs": [
        {
          "name": "_nonce",
          "type": "string"
        },
        {
          "name": "_requestId",
          "type": "uint256"
        },
        {
          "name": "_value",
          "type": "uint256"
        }
      ],
      "name": "submitMiningSolution",
      "outputs": [],
      "payable": false,
      "stateMutability": "nonpayable",
      "type": "function"
    },
    {
      "constant": false,
      "inputs": [
        {
          "name": "_pendingOwner",
          "type": "address"
        }
      ],
      "name": "proposeOwnership",
      "outputs": [],
      "payable": false,
      "stateMutability": "nonpayable",
      "type": "function"
    },
    {
      "constant": false,
      "inputs": [],
      "name": "claimOwnership",
      "outputs": [],
      "payable": false,
      "stateMutability": "nonpayable",
      "type": "function"
    },
    {
      "constant": false,
      "inputs": [],
      "name": "depositStake",
      "outputs": [],
      "payable": false,
      "stateMutability": "nonpayable",
      "type": "function"
    },
    {
      "constant": false,
      "inputs": [],
      "name": "requestStakingWithdraw",
      "outputs": [],
      "payable": false,
      "stateMutability": "nonpayable",
      "type": "function"
    },
    {
      "constant": false,
      "inputs": [],
      "name": "withdrawStake",
      "outputs": [],
      "payable": false,
      "stateMutability": "nonpayable",
      "type": "function"
    },
    {
      "constant": false,
      "inputs": [
        {
          "name": "_spender",
          "type": "address"
        },
        {
          "name": "_amount",
          "type": "uint256"
        }
      ],
      "name": "approve",
      "outputs": [
        {
          "name": "",
          "type": "bool"
        }
      ],
      "payable": false,
      "stateMutability": "nonpayable",
      "type": "function"
    },
    {
      "constant": false,
      "inputs": [
        {
          "name": "_to",
          "type": "address"
        },
        {
          "name": "_amount",
          "type": "uint256"
        }
      ],
      "name": "transfer",
      "outputs": [
        {
          "name": "",
          "type": "bool"
        }
      ],
      "payable": false,
      "stateMutability": "nonpayable",
      "type": "function"
    },
    {
      "constant": false,
      "inputs": [
        {
          "name": "_from",
          "type": "address"
        },
        {
          "name": "_to",
          "type": "address"
        },
        {
          "name": "_amount",
          "type": "uint256"
        }
      ],
      "name": "transferFrom",
      "outputs": [
        {
          "name": "",
          "type": "bool"
        }
      ],
      "payable": false,
      "stateMutability": "nonpayable",
      "type": "function"
    }
  ],
  "bytecode": "0x608060405234801561001057600080fd5b50611382806100206000396000f3fe608060405234801561001057600080fd5b50600436106101005760003560e01c806368c180d511610097578063a9059cbb11610066578063a9059cbb146104ae578063b079f64a14610514578063bed9d86114610562578063c9d27afe1461056c57610100565b806368c180d514610363578063710bf322146103f0578063752d49a1146104345780638581af191461046c57610100565b806328449c3a116100d357806328449c3a1461023f5780633fff2816146102495780634d318b0e1461032b5780634e71e0c81461035957610100565b8063095ea7b3146101055780630d2d76a21461016b57806323b872dd1461017557806326b7d9f6146101fb575b600080fd5b6101516004803603604081101561011b57600080fd5b81019080803573ffffffffffffffffffffffffffffffffffffffff169060200190929190803590602001909291905050506105a6565b604051808215151515815260200191505060405180910390f35b610173610678565b005b6101e16004803603606081101561018b57600080fd5b81019080803573ffffffffffffffffffffffffffffffffffffffff169060200190929190803573ffffffffffffffffffffffffffffffffffffffff169060200190929190803590602001909291905050506106e4565b604051808215151515815260200191505060405180910390f35b61023d6004803603602081101561021157600080fd5b81019080803573ffffffffffffffffffffffffffffffffffffffff1690602001909291905050506107eb565b005b61024761088c565b005b6103296004803603608081101561025f57600080fd5b810190808035906020019064010000000081111561027c57600080fd5b82018360208201111561028e57600080fd5b803590602001918460018302840111640100000000831117156102b057600080fd5b9091929391929390803590602001906401000000008111156102d157600080fd5b8201836020820111156102e357600080fd5b8035906020019184600183028401116401000000008311171561030557600080fd5b909192939192939080359060200190929190803590602001909291905050506108f8565b005b6103576004803603602081101561034157600080fd5b81019080803590602001909291905050506109e2565b005b610361610a57565b005b6103ee6004803603606081101561037957600080fd5b810190808035906020019064010000000081111561039657600080fd5b8201836020820111156103a857600080fd5b803590602001918460018302840111640100000000831117156103ca57600080fd5b90919293919293908035906020019092919080359060200190929190505050610a63565b005b6104326004803603602081101561040657600080fd5b81019080803573ffffffffffffffffffffffffffffffffffffffff169060200190929190505050610b17565b005b61046a6004803603604081101561044a57600080fd5b810190808035906020019092919080359060200190929190505050610b2e565b005b6104ac6004803603606081101561048257600080fd5b81019080803590602001909291908035906020019092919080359060200190929190505050610bac565b005b6104fa600480360360408110156104c457600080fd5b81019080803573ffffffffffffffffffffffffffffffffffffffff16906020019092919080359060200190929190505050610c33565b604051808215151515815260200191505060405180910390f35b6105606004803603604081101561052a57600080fd5b81019080803573ffffffffffffffffffffffffffffffffffffffff16906020019092919080359060200190929190505050610d05565b005b61056a610daf565b005b6105a46004803603604081101561058257600080fd5b8101908080359060200190929190803515159060200190929190505050610e1b565b005b60008073__OldTellorTransfer_____________________63850dcc32909185856040518463ffffffff1660e01b8152600401808481526020018373ffffffffffffffffffffffffffffffffffffffff1673ffffffffffffffffffffffffffffffffffffffff168152602001828152602001935050505060206040518083038186803b15801561063557600080fd5b505af4158015610649573d6000803e3d6000fd5b505050506040513d602081101561065f57600080fd5b8101908080519060200190929190505050905092915050565b600073__TellorStake___________________________63820a2d6690916040518263ffffffff1660e01b81526004018082815260200191505060006040518083038186803b1580156106ca57600080fd5b505af41580156106de573d6000803e3d6000fd5b50505050565b60008073__OldTellorTransfer_____________________63ca50189990918686866040518563ffffffff1660e01b8152600401808581526020018473ffffffffffffffffffffffffffffffffffffffff1673ffffffffffffffffffffffffffffffffffffffff1681526020018373ffffffffffffffffffffffffffffffffffffffff1673ffffffffffffffffffffffffffffffffffffffff16815260200182815260200194505050505060206040518083038186803b1580156107a757600080fd5b505af41580156107bb573d6000803e3d6000fd5b505050506040513d60208110156107d157600080fd5b810190808051906020019092919050505090509392505050565b600073__OldTellorDispute______________________63694bf49f9091836040518363ffffffff1660e01b8152600401808381526020018273ffffffffffffffffffffffffffffffffffffffff1673ffffffffffffffffffffffffffffffffffffffff1681526020019250505060006040518083038186803b15801561087157600080fd5b505af4158015610885573d6000803e3d6000fd5b5050505050565b600073__TellorStake___________________________63c9cf5e4c90916040518263ffffffff1660e01b81526004018082815260200191505060006040518083038186803b1580156108de57600080fd5b505af41580156108f2573d6000803e3d6000fd5b50505050565b600073__OldTellorLibrary______________________6385997bf690918888888888886040518863ffffffff1660e01b81526004018088815260200180602001806020018581526020018481526020018381038352898982818152602001925080828437600081840152601f19601f8201169050808301925050508381038252878782818152602001925080828437600081840152601f19601f820116905080830192505050995050505050505050505060006040518083038186803b1580156109c257600080fd5b505af41580156109d6573d6000803e3d6000fd5b50505050505050505050565b600073__OldTellorDispute______________________63def6fac79091836040518363ffffffff1660e01b8152600401808381526020018281526020019250505060006040518083038186803b158015610a3c57600080fd5b505af4158015610a50573d6000803e3d6000fd5b5050505050565b610a616000610e9d565b565b600073__OldTellorLibrary______________________63a098b5b49091868686866040518663ffffffff1660e01b815260040180868152602001806020018481526020018381526020018281038252868682818152602001925080828437600081840152601f19601f820116905080830192505050965050505050505060006040518083038186803b158015610af957600080fd5b505af4158015610b0d573d6000803e3d6000fd5b5050505050505050565b610b2b81600061116390919063ffffffff16565b50565b600073__OldTellorLibrary______________________6302e8f21b909184846040518463ffffffff1660e01b815260040180848152602001838152602001828152602001935050505060006040518083038186803b158015610b9057600080fd5b505af4158015610ba4573d6000803e3d6000fd5b505050505050565b600073__OldTellorDispute______________________63ca9a4ea590918585856040518563ffffffff1660e01b81526004018085815260200184815260200183815260200182815260200194505050505060006040518083038186803b158015610c1657600080fd5b505af4158015610c2a573d6000803e3d6000fd5b50505050505050565b60008073__OldTellorTransfer_____________________63c84b96f5909185856040518463ffffffff1660e01b8152600401808481526020018373ffffffffffffffffffffffffffffffffffffffff1673ffffffffffffffffffffffffffffffffffffffff168152602001828152602001935050505060206040518083038186803b158015610cc257600080fd5b505af4158015610cd6573d6000803e3d6000fd5b505050506040513d6020811015610cec57600080fd5b8101908080519060200190929190505050905092915050565b600073__OldTellorLibrary______________________6348656ba6909184846040518463ffffffff1660e01b8152600401808481526020018373ffffffffffffffffffffffffffffffffffffffff1673ffffffffffffffffffffffffffffffffffffffff168152602001828152602001935050505060006040518083038186803b158015610d9357600080fd5b505af4158015610da7573d6000803e3d6000fd5b505050505050565b600073__TellorStake___________________________6344bacc4b90916040518263ffffffff1660e01b81526004018082815260200191505060006040518083038186803b158015610e0157600080fd5b505af4158015610e15573d6000803e3d6000fd5b50505050565b600073__OldTellorDispute______________________632da0706e909184846040518463ffffffff1660e01b81526004018084815260200183815260200182151515158152602001935050505060006040518083038186803b158015610e8157600080fd5b505af4158015610e95573d6000803e3d6000fd5b505050505050565b80603f01600060405180807f70656e64696e675f6f776e657200000000000000000000000000000000000000815250600d0190506040518091039020815260200190815260200160002060009054906101000a900473ffffffffffffffffffffffffffffffffffffffff1673ffffffffffffffffffffffffffffffffffffffff163373ffffffffffffffffffffffffffffffffffffffff1614610f3f57600080fd5b80603f01600060405180807f70656e64696e675f6f776e657200000000000000000000000000000000000000815250600d0190506040518091039020815260200190815260200160002060009054906101000a900473ffffffffffffffffffffffffffffffffffffffff1673ffffffffffffffffffffffffffffffffffffffff1681603f01600060405180807f5f6f776e6572000000000000000000000000000000000000000000000000000081525060060190506040518091039020815260200190815260200160002060009054906101000a900473ffffffffffffffffffffffffffffffffffffffff1673ffffffffffffffffffffffffffffffffffffffff167f8be0079c531659141344cd1fd0a4f28419497f9722a3daafe3b4186f6b6457e060405160405180910390a380603f01600060405180807f70656e64696e675f6f776e657200000000000000000000000000000000000000815250600d0190506040518091039020815260200190815260200160002060009054906101000a900473ffffffffffffffffffffffffffffffffffffffff1681603f01600060405180807f5f6f776e6572000000000000000000000000000000000000000000000000000081525060060190506040518091039020815260200190815260200160002060006101000a81548173ffffffffffffffffffffffffffffffffffffffff021916908373ffffffffffffffffffffffffffffffffffffffff16021790555050565b81603f01600060405180807f5f6f776e6572000000000000000000000000000000000000000000000000000081525060060190506040518091039020815260200190815260200160002060009054906101000a900473ffffffffffffffffffffffffffffffffffffffff1673ffffffffffffffffffffffffffffffffffffffff163373ffffffffffffffffffffffffffffffffffffffff161461120557600080fd5b8073ffffffffffffffffffffffffffffffffffffffff1682603f01600060405180807f5f6f776e6572000000000000000000000000000000000000000000000000000081525060060190506040518091039020815260200190815260200160002060009054906101000a900473ffffffffffffffffffffffffffffffffffffffff1673ffffffffffffffffffffffffffffffffffffffff167fb51454ce8c7f26becd312a46c4815553887f2ec876a0b8dc813b87f62edf6f8060405160405180910390a38082603f01600060405180807f70656e64696e675f6f776e657200000000000000000000000000000000000000815250600d0190506040518091039020815260200190815260200160002060006101000a81548173ffffffffffffffffffffffffffffffffffffffff021916908373ffffffffffffffffffffffffffffffffffffffff160217905550505056fea165627a7a7230582037013223955009721f74f5c372e996053858e96480a5c127e184b4912dd3f9550029",
  "source": "pragma solidity ^0.5.0;\n\nimport \"./libraries/SafeMath.sol\";\nimport \"./libraries/TellorStorage.sol\";\nimport \"./libraries/OldTellorTransfer.sol\";\nimport \"./libraries/OldTellorDispute.sol\";\nimport \"./libraries/TellorStake.sol\";\nimport \"./libraries/OldTellorLibrary.sol\";\n\n/**\n * @title Tellor Oracle System\n * @dev Oracle contract where miners can submit the proof of work along with the value.\n * The logic for this contract is in TellorLibrary.sol, TellorDispute.sol, TellorStake.sol, \n * and TellorTransfer.sol\n */\ncontract OldTellor{\n\n    using SafeMath for uint256;\n\n    using OldTellorDispute for TellorStorage.TellorStorageStruct;\n    using OldTellorLibrary for TellorStorage.TellorStorageStruct;\n    using TellorStake for TellorStorage.TellorStorageStruct;\n    using OldTellorTransfer for TellorStorage.TellorStorageStruct;\n\n    TellorStorage.TellorStorageStruct tellor;\n\n    /*Functions*/\n    \n    /*This is a cheat for demo purposes, will delete upon actual launch*/\n    function theLazyCoon(address _address, uint _amount) public {\n        tellor.theLazyCoon(_address,_amount);\n    }\n\n\n    /**\n    * @dev Helps initialize a dispute by assigning it a disputeId \n    * when a miner returns a false on the validate array(in Tellor.ProofOfWork) it sends the \n    * invalidated value information to POS voting\n    * @param _requestId being disputed\n    * @param _timestamp being disputed\n    * @param _minerIndex the index of the miner that submitted the value being disputed. Since each official value \n    * requires 5 miners to submit a value.\n    */\n    function beginDispute(uint _requestId, uint _timestamp,uint _minerIndex) external {\n        tellor.beginDispute(_requestId,_timestamp,_minerIndex);\n    }\n\n\n    /**\n    * @dev Allows token holders to vote\n    * @param _disputeId is the dispute id\n    * @param _supportsDispute is the vote (true=the dispute has basis false = vote against dispute)\n    */\n    function vote(uint _disputeId, bool _supportsDispute) external {\n        tellor.vote(_disputeId,_supportsDispute);\n    }\n\n\n    /**\n    * @dev tallies the votes.\n    * @param _disputeId is the dispute id\n    */\n    function tallyVotes(uint _disputeId) external {\n        tellor.tallyVotes(_disputeId);\n    }\n\n\n    /**\n    * @dev Allows for a fork to be proposed\n    * @param _propNewTellorAddress address for new proposed Tellor\n    */\n    function proposeFork(address _propNewTellorAddress) external {\n        tellor.proposeFork(_propNewTellorAddress);\n    }\n\n\n   /**\n    * @dev Add tip to Request value from oracle\n    * @param _requestId being requested to be mined\n    * @param _tip amount the requester is willing to pay to be get on queue. Miners\n    * mine the onDeckQueryHash, or the api with the highest payout pool\n    */\n    function addTip(uint _requestId, uint _tip) external {\n        tellor.addTip(_requestId,_tip);\n    }\n\n\n    /**\n    * @dev Request to retreive value from oracle based on timestamp. The tip is not required to be \n    * greater than 0 because there are no tokens in circulation for the initial(genesis) request \n    * @param _c_sapi string API being requested be mined\n    * @param _c_symbol is the short string symbol for the api request\n    * @param _granularity is the number of decimals miners should include on the submitted value\n    * @param _tip amount the requester is willing to pay to be get on queue. Miners\n    * mine the onDeckQueryHash, or the api with the highest payout pool\n    */\n    function requestData(string calldata _c_sapi,string calldata _c_symbol,uint _granularity, uint _tip) external {\n        tellor.requestData(_c_sapi,_c_symbol,_granularity,_tip);\n    }\n\n\n    /**\n    * @dev Proof of work is called by the miner when they submit the solution (proof of work and value)\n    * @param _nonce uint submitted by miner\n    * @param _requestId the apiId being mined\n    * @param _value of api query\n    */\n    function submitMiningSolution(string calldata _nonce, uint _requestId, uint _value) external{\n        tellor.submitMiningSolution(_nonce,_requestId,_value);\n    }\n\n\n    /**\n    * @dev Allows the current owner to propose transfer control of the contract to a \n    * newOwner and the ownership is pending until the new owner calls the claimOwnership \n    * function\n    * @param _pendingOwner The address to transfer ownership to.\n    */\n    function proposeOwnership(address payable _pendingOwner) external {\n        tellor.proposeOwnership(_pendingOwner);\n    }\n\n\n    /**\n    * @dev Allows the new owner to claim control of the contract\n    */\n    function claimOwnership() external {\n        tellor.claimOwnership();\n    }\n\n\n    /**\n    * @dev This function allows miners to deposit their stake.\n    */\n    function depositStake() external {\n        tellor.depositStake();\n    }\n\n\n    /**\n    * @dev This function allows stakers to request to withdraw their stake (no longer stake) \n    * once they lock for withdraw(stakes.currentStatus = 2) they are locked for 7 days before they \n    * can withdraw the stake\n    */\n    function requestStakingWithdraw() external {\n        tellor.requestStakingWithdraw();\n    }\n\n\n    /**\n    * @dev This function allows users to withdraw their stake after a 7 day waiting period from request \n    */\n    function withdrawStake() external {\n        tellor.withdrawStake();\n    }\n\n\n    /**\n    * @dev This function approves a _spender an _amount of tokens to use\n    * @param _spender address\n    * @param _amount amount the spender is being approved for\n    * @return true if spender appproved successfully\n    */\n    function approve(address _spender, uint _amount) external returns (bool) {\n        return tellor.approve(_spender,_amount);\n    }\n\n\n    /**\n    * @dev Allows for a transfer of tokens to _to\n    * @param _to The address to send tokens to\n    * @param _amount The amount of tokens to send\n    * @return true if transfer is successful\n    */\n    function transfer(address _to, uint256 _amount) external returns (bool) {\n        return tellor.transfer(_to,_amount);\n    }\n\n\n    /**\n    * @notice Send _amount tokens to _to from _from on the condition it\n    * is approved by _from\n    * @param _from The address holding the tokens being transferred\n    * @param _to The address of the recipient\n    * @param _amount The amount of tokens to be transferred\n    * @return True if the transfer was successful\n    */\n    function transferFrom(address _from, address _to, uint256 _amount) external returns (bool) {\n        return tellor.transferFrom(_from,_to,_amount);\n    }\n\n}\n",
  "sourcePath": "/Users/mdcoon/git/TellorCore/contracts/oldContracts/OldTellor.sol",
  "compiler": {
    "name": "solc",
    "version": "0.5.8+commit.23d335f2.Emscripten.clang"
  },
  "schemaVersion": "3.0.11",
  "updatedAt": "2019-09-29T18:14:31.016Z",
  "devdoc": {
    "details": "Oracle contract where miners can submit the proof of work along with the value. The logic for this contract is in TellorLibrary.sol, TellorDispute.sol, TellorStake.sol,  and TellorTransfer.sol",
    "methods": {
      "addTip(uint256,uint256)": {
        "details": "Add tip to Request value from oracle",
        "params": {
          "_requestId": "being requested to be mined",
          "_tip": "amount the requester is willing to pay to be get on queue. Miners mine the onDeckQueryHash, or the api with the highest payout pool"
        }
      },
      "approve(address,uint256)": {
        "details": "This function approves a _spender an _amount of tokens to use",
        "params": {
          "_amount": "amount the spender is being approved for",
          "_spender": "address"
        },
        "return": "true if spender appproved successfully"
      },
      "beginDispute(uint256,uint256,uint256)": {
        "details": "Helps initialize a dispute by assigning it a disputeId  when a miner returns a false on the validate array(in Tellor.ProofOfWork) it sends the  invalidated value information to POS voting",
        "params": {
          "_minerIndex": "the index of the miner that submitted the value being disputed. Since each official value  requires 5 miners to submit a value.",
          "_requestId": "being disputed",
          "_timestamp": "being disputed"
        }
      },
      "claimOwnership()": {
        "details": "Allows the new owner to claim control of the contract"
      },
      "depositStake()": {
        "details": "This function allows miners to deposit their stake."
      },
      "proposeFork(address)": {
        "details": "Allows for a fork to be proposed",
        "params": {
          "_propNewTellorAddress": "address for new proposed Tellor"
        }
      },
      "proposeOwnership(address)": {
        "details": "Allows the current owner to propose transfer control of the contract to a  newOwner and the ownership is pending until the new owner calls the claimOwnership  function",
        "params": {
          "_pendingOwner": "The address to transfer ownership to."
        }
      },
      "requestData(string,string,uint256,uint256)": {
        "details": "Request to retreive value from oracle based on timestamp. The tip is not required to be  greater than 0 because there are no tokens in circulation for the initial(genesis) request ",
        "params": {
          "_c_sapi": "string API being requested be mined",
          "_c_symbol": "is the short string symbol for the api request",
          "_granularity": "is the number of decimals miners should include on the submitted value",
          "_tip": "amount the requester is willing to pay to be get on queue. Miners mine the onDeckQueryHash, or the api with the highest payout pool"
        }
      },
      "requestStakingWithdraw()": {
        "details": "This function allows stakers to request to withdraw their stake (no longer stake)  once they lock for withdraw(stakes.currentStatus = 2) they are locked for 7 days before they  can withdraw the stake"
      },
      "submitMiningSolution(string,uint256,uint256)": {
        "details": "Proof of work is called by the miner when they submit the solution (proof of work and value)",
        "params": {
          "_nonce": "uint submitted by miner",
          "_requestId": "the apiId being mined",
          "_value": "of api query"
        }
      },
      "tallyVotes(uint256)": {
        "details": "tallies the votes.",
        "params": {
          "_disputeId": "is the dispute id"
        }
      },
      "transfer(address,uint256)": {
        "details": "Allows for a transfer of tokens to _to",
        "params": {
          "_amount": "The amount of tokens to send",
          "_to": "The address to send tokens to"
        },
        "return": "true if transfer is successful"
      },
      "transferFrom(address,address,uint256)": {
        "params": {
          "_amount": "The amount of tokens to be transferred",
          "_from": "The address holding the tokens being transferred",
          "_to": "The address of the recipient"
        },
        "return": "True if the transfer was successful"
      },
      "vote(uint256,bool)": {
        "details": "Allows token holders to vote",
        "params": {
          "_disputeId": "is the dispute id",
          "_supportsDispute": "is the vote (true=the dispute has basis false = vote against dispute)"
        }
      },
      "withdrawStake()": {
        "details": "This function allows users to withdraw their stake after a 7 day waiting period from request "
      }
    },
    "title": "Tellor Oracle System"
  },
  "userdoc": {
    "methods": {
      "transferFrom(address,address,uint256)": {
        "notice": "Send _amount tokens to _to from _from on the condition it is approved by _from"
      }
    }
  }
}