{
  "contractName": "TellorGetters",
  "abi": [
    {
      "constant": true,
      "inputs": [
        {
          "name": "_user",
          "type": "address"
        },
        {
          "name": "_spender",
          "type": "address"
        }
      ],
      "name": "allowance",
      "outputs": [
        {
          "name": "",
          "type": "uint256"
        }
      ],
      "payable": false,
      "stateMutability": "view",
      "type": "function"
    },
    {
      "constant": true,
      "inputs": [
        {
          "name": "_user",
          "type": "address"
        },
        {
          "name": "_amount",
          "type": "uint256"
        }
      ],
      "name": "allowedToTrade",
      "outputs": [
        {
          "name": "",
          "type": "bool"
        }
      ],
      "payable": false,
      "stateMutability": "view",
      "type": "function"
    },
    {
      "constant": true,
      "inputs": [
        {
          "name": "_user",
          "type": "address"
        }
      ],
      "name": "balanceOf",
      "outputs": [
        {
          "name": "",
          "type": "uint256"
        }
      ],
      "payable": false,
      "stateMutability": "view",
      "type": "function"
    },
    {
      "constant": true,
      "inputs": [
        {
          "name": "_user",
          "type": "address"
        },
        {
          "name": "_blockNumber",
          "type": "uint256"
        }
      ],
      "name": "balanceOfAt",
      "outputs": [
        {
          "name": "",
          "type": "uint256"
        }
      ],
      "payable": false,
      "stateMutability": "view",
      "type": "function"
    },
    {
      "constant": true,
      "inputs": [
        {
          "name": "_challenge",
          "type": "bytes32"
        },
        {
          "name": "_miner",
          "type": "address"
        }
      ],
      "name": "didMine",
      "outputs": [
        {
          "name": "",
          "type": "bool"
        }
      ],
      "payable": false,
      "stateMutability": "view",
      "type": "function"
    },
    {
      "constant": true,
      "inputs": [
        {
          "name": "_disputeId",
          "type": "uint256"
        },
        {
          "name": "_address",
          "type": "address"
        }
      ],
      "name": "didVote",
      "outputs": [
        {
          "name": "",
          "type": "bool"
        }
      ],
      "payable": false,
      "stateMutability": "view",
      "type": "function"
    },
    {
      "constant": true,
      "inputs": [
        {
          "name": "_data",
          "type": "bytes32"
        }
      ],
      "name": "getAddressVars",
      "outputs": [
        {
          "name": "",
          "type": "address"
        }
      ],
      "payable": false,
      "stateMutability": "view",
      "type": "function"
    },
    {
      "constant": true,
      "inputs": [
        {
          "name": "_disputeId",
          "type": "uint256"
        }
      ],
      "name": "getAllDisputeVars",
      "outputs": [
        {
          "name": "",
          "type": "bytes32"
        },
        {
          "name": "",
          "type": "bool"
        },
        {
          "name": "",
          "type": "bool"
        },
        {
          "name": "",
          "type": "bool"
        },
        {
          "name": "",
          "type": "address"
        },
        {
          "name": "",
          "type": "address"
        },
        {
          "name": "",
          "type": "address"
        },
        {
          "name": "",
          "type": "uint256[8]"
        },
        {
          "name": "",
          "type": "int256"
        }
      ],
      "payable": false,
      "stateMutability": "view",
      "type": "function"
    },
    {
      "constant": true,
      "inputs": [],
      "name": "getCurrentVariables",
      "outputs": [
        {
          "name": "",
          "type": "bytes32"
        },
        {
          "name": "",
          "type": "uint256"
        },
        {
          "name": "",
          "type": "uint256"
        },
        {
          "name": "",
          "type": "string"
        },
        {
          "name": "",
          "type": "uint256"
        },
        {
          "name": "",
          "type": "uint256"
        }
      ],
      "payable": false,
      "stateMutability": "view",
      "type": "function"
    },
    {
      "constant": true,
      "inputs": [
        {
          "name": "_hash",
          "type": "bytes32"
        }
      ],
      "name": "getDisputeIdByDisputeHash",
      "outputs": [
        {
          "name": "",
          "type": "uint256"
        }
      ],
      "payable": false,
      "stateMutability": "view",
      "type": "function"
    },
    {
      "constant": true,
      "inputs": [],
      "name": "getLastNewValue",
      "outputs": [
        {
          "name": "",
          "type": "uint256"
        },
        {
          "name": "",
          "type": "bool"
        }
      ],
      "payable": false,
      "stateMutability": "view",
      "type": "function"
    },
    {
      "constant": true,
      "inputs": [
        {
          "name": "_requestId",
          "type": "uint256"
        },
        {
          "name": "_timestamp",
          "type": "uint256"
        }
      ],
      "name": "retrieveData",
      "outputs": [
        {
          "name": "",
          "type": "uint256"
        }
      ],
      "payable": false,
      "stateMutability": "view",
      "type": "function"
    },
    {
      "constant": true,
      "inputs": [
        {
          "name": "_requestId",
          "type": "uint256"
        },
        {
          "name": "_timestamp",
          "type": "uint256"
        }
      ],
      "name": "getMinedBlockNum",
      "outputs": [
        {
          "name": "",
          "type": "uint256"
        }
      ],
      "payable": false,
      "stateMutability": "view",
      "type": "function"
    },
    {
      "constant": true,
      "inputs": [
        {
          "name": "_requestId",
          "type": "uint256"
        },
        {
          "name": "_timestamp",
          "type": "uint256"
        }
      ],
      "name": "getMinersByRequestIdAndTimestamp",
      "outputs": [
        {
          "name": "",
          "type": "address[5]"
        }
      ],
      "payable": false,
      "stateMutability": "view",
      "type": "function"
    },
    {
      "constant": true,
      "inputs": [
        {
          "name": "_requestId",
          "type": "uint256"
        }
      ],
      "name": "getNewValueCountbyRequestId",
      "outputs": [
        {
          "name": "",
          "type": "uint256"
        }
      ],
      "payable": false,
      "stateMutability": "view",
      "type": "function"
    },
    {
      "constant": true,
      "inputs": [
        {
          "name": "_index",
          "type": "uint256"
        }
      ],
      "name": "getRequestIdByRequestQIndex",
      "outputs": [
        {
          "name": "",
          "type": "uint256"
        }
      ],
      "payable": false,
      "stateMutability": "view",
      "type": "function"
    },
    {
      "constant": true,
      "inputs": [
        {
          "name": "_timestamp",
          "type": "uint256"
        }
      ],
      "name": "getRequestIdByTimestamp",
      "outputs": [
        {
          "name": "",
          "type": "uint256"
        }
      ],
      "payable": false,
      "stateMutability": "view",
      "type": "function"
    },
    {
      "constant": true,
      "inputs": [
        {
          "name": "_request",
          "type": "bytes32"
        }
      ],
      "name": "getRequestIdByQueryHash",
      "outputs": [
        {
          "name": "",
          "type": "uint256"
        }
      ],
      "payable": false,
      "stateMutability": "view",
      "type": "function"
    },
    {
      "constant": true,
      "inputs": [],
      "name": "getRequestQ",
      "outputs": [
        {
          "name": "",
          "type": "uint256[51]"
        }
      ],
      "payable": false,
      "stateMutability": "view",
      "type": "function"
    },
    {
      "constant": true,
      "inputs": [
        {
          "name": "_requestId",
          "type": "uint256"
        }
      ],
      "name": "getRequestVars",
      "outputs": [
        {
          "name": "",
          "type": "string"
        },
        {
          "name": "",
          "type": "string"
        },
        {
          "name": "",
          "type": "bytes32"
        },
        {
          "name": "",
          "type": "uint256"
        },
        {
          "name": "",
          "type": "uint256"
        },
        {
          "name": "",
          "type": "uint256"
        }
      ],
      "payable": false,
      "stateMutability": "view",
      "type": "function"
    },
    {
      "constant": true,
      "inputs": [
        {
          "name": "_staker",
          "type": "address"
        }
      ],
      "name": "getStakerInfo",
      "outputs": [
        {
          "name": "",
          "type": "uint256"
        },
        {
          "name": "",
          "type": "uint256"
        }
      ],
      "payable": false,
      "stateMutability": "view",
      "type": "function"
    },
    {
      "constant": true,
      "inputs": [
        {
          "name": "_requestId",
          "type": "uint256"
        },
        {
          "name": "_timestamp",
          "type": "uint256"
        }
      ],
      "name": "getSubmissionsByTimestamp",
      "outputs": [
        {
          "name": "",
          "type": "uint256[5]"
        }
      ],
      "payable": false,
      "stateMutability": "view",
      "type": "function"
    },
    {
      "constant": true,
      "inputs": [
        {
          "name": "_requestID",
          "type": "uint256"
        },
        {
          "name": "_index",
          "type": "uint256"
        }
      ],
      "name": "getTimestampbyRequestIDandIndex",
      "outputs": [
        {
          "name": "",
          "type": "uint256"
        }
      ],
      "payable": false,
      "stateMutability": "view",
      "type": "function"
    },
    {
      "constant": true,
      "inputs": [
        {
          "name": "_data",
          "type": "bytes32"
        }
      ],
      "name": "getUintVar",
      "outputs": [
        {
          "name": "",
          "type": "uint256"
        }
      ],
      "payable": false,
      "stateMutability": "view",
      "type": "function"
    },
    {
      "constant": true,
      "inputs": [],
      "name": "getVariablesOnDeck",
      "outputs": [
        {
          "name": "",
          "type": "uint256"
        },
        {
          "name": "",
          "type": "uint256"
        },
        {
          "name": "",
          "type": "string"
        }
      ],
      "payable": false,
      "stateMutability": "view",
      "type": "function"
    },
    {
      "constant": true,
      "inputs": [
        {
          "name": "_requestId",
          "type": "uint256"
        },
        {
          "name": "_timestamp",
          "type": "uint256"
        }
      ],
      "name": "isInDispute",
      "outputs": [
        {
          "name": "",
          "type": "bool"
        }
      ],
      "payable": false,
      "stateMutability": "view",
      "type": "function"
    },
    {
      "constant": true,
      "inputs": [],
      "name": "getName",
      "outputs": [
        {
          "name": "",
          "type": "string"
        }
      ],
      "payable": false,
      "stateMutability": "view",
      "type": "function"
    },
    {
      "constant": true,
      "inputs": [],
      "name": "getSymbol",
      "outputs": [
        {
          "name": "",
          "type": "string"
        }
      ],
      "payable": false,
      "stateMutability": "view",
      "type": "function"
    },
    {
      "constant": true,
      "inputs": [],
      "name": "totalSupply",
      "outputs": [
        {
          "name": "",
          "type": "uint256"
        }
      ],
      "payable": false,
      "stateMutability": "view",
      "type": "function"
    }
  ],
  "bytecode": "0x608060405234801561001057600080fd5b50612a8a806100206000396000f3fe608060405260043610610175576000357c0100000000000000000000000000000000000000000000000000000000900463ffffffff1680630f0b424d1461017a57806311c98512146101c9578063133bee5e1461024a57806315070401146102c557806317d7de7c1461035557806318160ddd146103e557806319e8e03b146104105780631db842f0146104ae5780633df0777b146104fd57806346eee1c41461055a5780634ee2cd7e146105a9578063612c8f7f146106185780636173c0b81461066757806363bb82ad146106b657806369026d631461072957806370a08231146107aa578063733bdef01461080f57806377fbb6631461087b57806393fa4915146108d4578063999cf26c1461092d578063a22e407a146109a0578063a7c438bc14610a53578063af0b132714610ac6578063b541302914610c05578063c775b54214610c58578063da37994114610cb1578063dd62ed3e14610d00578063e1eee6d614610d85578063fc7cf0a014610ec1575b600080fd5b34801561018657600080fd5b506101b36004803603602081101561019d57600080fd5b8101908080359060200190929190505050610ef7565b6040518082815260200191505060405180910390f35b3480156101d557600080fd5b5061020c600480360360408110156101ec57600080fd5b810190808035906020019092919080359060200190929190505050610f14565b6040518082600560200280838360005b8381101561023757808201518184015260208101905061021c565b5050505090500191505060405180910390f35b34801561025657600080fd5b506102836004803603602081101561026d57600080fd5b8101908080359060200190929190505050610f3a565b604051808273ffffffffffffffffffffffffffffffffffffffff1673ffffffffffffffffffffffffffffffffffffffff16815260200191505060405180910390f35b3480156102d157600080fd5b506102da610f57565b6040518080602001828103825283818151815260200191508051906020019080838360005b8381101561031a5780820151818401526020810190506102ff565b50505050905090810190601f1680156103475780820380516001836020036101000a031916815260200191505b509250505060405180910390f35b34801561036157600080fd5b5061036a610f68565b6040518080602001828103825283818151815260200191508051906020019080838360005b838110156103aa57808201518184015260208101905061038f565b50505050905090810190601f1680156103d75780820380516001836020036101000a031916815260200191505b509250505060405180910390f35b3480156103f157600080fd5b506103fa610f79565b6040518082815260200191505060405180910390f35b34801561041c57600080fd5b50610425610f8a565b6040518084815260200183815260200180602001828103825283818151815260200191508051906020019080838360005b83811015610471578082015181840152602081019050610456565b50505050905090810190601f16801561049e5780820380516001836020036101000a031916815260200191505b5094505050505060405180910390f35b3480156104ba57600080fd5b506104e7600480360360208110156104d157600080fd5b8101908080359060200190929190505050610fa4565b6040518082815260200191505060405180910390f35b34801561050957600080fd5b506105406004803603604081101561052057600080fd5b810190808035906020019092919080359060200190929190505050610fc1565b604051808215151515815260200191505060405180910390f35b34801561056657600080fd5b506105936004803603602081101561057d57600080fd5b8101908080359060200190929190505050610fe1565b6040518082815260200191505060405180910390f35b3480156105b557600080fd5b50610602600480360360408110156105cc57600080fd5b81019080803573ffffffffffffffffffffffffffffffffffffffff16906020019092919080359060200190929190505050610ffe565b6040518082815260200191505060405180910390f35b34801561062457600080fd5b506106516004803603602081101561063b57600080fd5b810190808035906020019092919050505061101e565b6040518082815260200191505060405180910390f35b34801561067357600080fd5b506106a06004803603602081101561068a57600080fd5b810190808035906020019092919050505061103b565b6040518082815260200191505060405180910390f35b3480156106c257600080fd5b5061070f600480360360408110156106d957600080fd5b8101908080359060200190929190803573ffffffffffffffffffffffffffffffffffffffff169060200190929190505050611058565b604051808215151515815260200191505060405180910390f35b34801561073557600080fd5b5061076c6004803603604081101561074c57600080fd5b810190808035906020019092919080359060200190929190505050611078565b6040518082600560200280838360005b8381101561079757808201518184015260208101905061077c565b5050505090500191505060405180910390f35b3480156107b657600080fd5b506107f9600480360360208110156107cd57600080fd5b81019080803573ffffffffffffffffffffffffffffffffffffffff16906020019092919050505061109e565b6040518082815260200191505060405180910390f35b34801561081b57600080fd5b5061085e6004803603602081101561083257600080fd5b81019080803573ffffffffffffffffffffffffffffffffffffffff1690602001909291905050506110bb565b604051808381526020018281526020019250505060405180910390f35b34801561088757600080fd5b506108be6004803603604081101561089e57600080fd5b8101908080359060200190929190803590602001909291905050506110db565b6040518082815260200191505060405180910390f35b3480156108e057600080fd5b50610917600480360360408110156108f757600080fd5b8101908080359060200190929190803590602001909291905050506110fb565b6040518082815260200191505060405180910390f35b34801561093957600080fd5b506109866004803603604081101561095057600080fd5b81019080803573ffffffffffffffffffffffffffffffffffffffff1690602001909291908035906020019092919050505061111b565b604051808215151515815260200191505060405180910390f35b3480156109ac57600080fd5b506109b561113b565b6040518087815260200186815260200185815260200180602001848152602001838152602001828103825285818151815260200191508051906020019080838360005b83811015610a135780820151818401526020810190506109f8565b50505050905090810190601f168015610a405780820380516001836020036101000a031916815260200191505b5097505050505050505060405180910390f35b348015610a5f57600080fd5b50610aac60048036036040811015610a7657600080fd5b8101908080359060200190929190803573ffffffffffffffffffffffffffffffffffffffff169060200190929190505050611163565b604051808215151515815260200191505060405180910390f35b348015610ad257600080fd5b50610aff60048036036020811015610ae957600080fd5b8101908080359060200190929190505050611183565b604051808a81526020018915151515815260200188151515158152602001871515151581526020018673ffffffffffffffffffffffffffffffffffffffff1673ffffffffffffffffffffffffffffffffffffffff1681526020018573ffffffffffffffffffffffffffffffffffffffff1673ffffffffffffffffffffffffffffffffffffffff1681526020018473ffffffffffffffffffffffffffffffffffffffff1673ffffffffffffffffffffffffffffffffffffffff16815260200183600860200280838360005b83811015610be4578082015181840152602081019050610bc9565b50505050905001828152602001995050505050505050505060405180910390f35b348015610c1157600080fd5b50610c1a6111cb565b6040518082603360200280838360005b83811015610c45578082015181840152602081019050610c2a565b5050505090500191505060405180910390f35b348015610c6457600080fd5b50610c9b60048036036040811015610c7b57600080fd5b8101908080359060200190929190803590602001909291905050506111e2565b6040518082815260200191505060405180910390f35b348015610cbd57600080fd5b50610cea60048036036020811015610cd457600080fd5b8101908080359060200190929190505050611202565b6040518082815260200191505060405180910390f35b348015610d0c57600080fd5b50610d6f60048036036040811015610d2357600080fd5b81019080803573ffffffffffffffffffffffffffffffffffffffff169060200190929190803573ffffffffffffffffffffffffffffffffffffffff16906020019092919050505061121f565b6040518082815260200191505060405180910390f35b348015610d9157600080fd5b50610dbe60048036036020811015610da857600080fd5b8101908080359060200190929190505050611339565b604051808060200180602001878152602001868152602001858152602001848152602001838103835289818151815260200191508051906020019080838360005b83811015610e1a578082015181840152602081019050610dff565b50505050905090810190601f168015610e475780820380516001836020036101000a031916815260200191505b50838103825288818151815260200191508051906020019080838360005b83811015610e80578082015181840152602081019050610e65565b50505050905090810190601f168015610ead5780820380516001836020036101000a031916815260200191505b509850505050505050505060405180910390f35b348015610ecd57600080fd5b50610ed661136b565b60405180838152602001821515151581526020019250505060405180910390f35b6000610f0d82600061138090919063ffffffff16565b9050919050565b610f1c6129d0565b610f32838360006113a09092919063ffffffff16565b905092915050565b6000610f5082600061141690919063ffffffff16565b9050919050565b6060610f636000611456565b905090565b6060610f7460006114fc565b905090565b6000610f8560006115a2565b905090565b6000806060610f9960006115f6565b925092509250909192565b6000610fba82600061179c90919063ffffffff16565b9050919050565b6000610fd9838360006117bc9092919063ffffffff16565b905092915050565b6000610ff78260006117fe90919063ffffffff16565b9050919050565b6000611016838360006118249092919063ffffffff16565b905092915050565b6000611034826000611b6790919063ffffffff16565b9050919050565b6000611051826000611b8790919063ffffffff16565b9050919050565b600061107083836000611ba79092919063ffffffff16565b905092915050565b6110806129f3565b61109683836000611c129092919063ffffffff16565b905092915050565b60006110b4826000611cbe90919063ffffffff16565b9050919050565b6000806110d2836000611cd390919063ffffffff16565b91509150915091565b60006110f383836000611d6b9092919063ffffffff16565b905092915050565b600061111383836000611da69092919063ffffffff16565b905092915050565b600061113383836000611ddb9092919063ffffffff16565b905092915050565b6000806000606060008061114f6000611ef3565b955095509550955095509550909192939495565b600061117b838360006121fd9092919063ffffffff16565b905092915050565b6000806000806000806000611196612a16565b60006111ac8a600061226b90919063ffffffff16565b9850985098509850985098509850985098509193959799909294969850565b6111d3612a3a565b6111dd60006125f2565b905090565b60006111fa838360006126419092919063ffffffff16565b905092915050565b600061121882600061267690919063ffffffff16565b9050919050565b60008073__TellorGettersLibrary__________________63912c0e65909185856040518463ffffffff167c0100000000000000000000000000000000000000000000000000000000028152600401808481526020018373ffffffffffffffffffffffffffffffffffffffff1673ffffffffffffffffffffffffffffffffffffffff1681526020018273ffffffffffffffffffffffffffffffffffffffff1673ffffffffffffffffffffffffffffffffffffffff168152602001935050505060206040518083038186803b1580156112f657600080fd5b505af415801561130a573d6000803e3d6000fd5b505050506040513d602081101561132057600080fd5b8101908080519060200190929190505050905092915050565b60608060008060008061135687600061269690919063ffffffff16565b95509550955095509550955091939550919395565b60008061137860006128f5565b915091509091565b600082604a01600083815260200190815260200160002054905092915050565b6113a86129d0565b8360500160008481526020019081526020016000206009016000838152602001908152602001600020600580602002604051908101604052809291908260058015611408576020028201915b8154815260200190600101908083116113f4575b505050505090509392505050565b600082604701600083815260200190815260200160002060009054906101000a900473ffffffffffffffffffffffffffffffffffffffff16905092915050565b6060816003018054600181600116156101000203166002900480601f0160208091040260200160405190810160405280929190818152602001828054600181600116156101000203166002900480156114f05780601f106114c5576101008083540402835291602001916114f0565b820191906000526020600020905b8154815290600101906020018083116114d357829003601f168201915b50505050509050919050565b6060816002018054600181600116156101000203166002900480601f0160208091040260200160405190810160405280929190818152602001828054600181600116156101000203166002900480156115965780601f1061156b57610100808354040283529160200191611596565b820191906000526020600020905b81548152906001019060200180831161157957829003601f168201915b50505050509050919050565b600081604801600060405180807f746f74616c5f737570706c790000000000000000000000000000000000000000815250600c01905060405180910390208152602001908152602001600020549050919050565b600080606083604801600060405180807f6f6e4465636b5265717565737449640000000000000000000000000000000000815250600f019050604051809103902081526020019081526020016000205484604801600060405180807f6f6e4465636b546f74616c546970730000000000000000000000000000000000815250600f019050604051809103902081526020019081526020016000205485605001600087604801600060405180807f6f6e4465636b5265717565737449640000000000000000000000000000000000815250600f01905060405180910390208152602001908152602001600020548152602001908152602001600020600001808054600181600116156101000203166002900480601f0160208091040260200160405190810160405280929190818152602001828054600181600116156101000203166002900480156117885780601f1061175d57610100808354040283529160200191611788565b820191906000526020600020905b81548152906001019060200180831161176b57829003601f168201915b505050505090509250925092509193909250565b600082605101600083815260200190815260200160002054905092915050565b6000836050016000848152602001908152602001600020600701600083815260200190815260200160002060009054906101000a900460ff1690509392505050565b600082605001600083815260200190815260200160002060030180549050905092915050565b60008084604d0160008573ffffffffffffffffffffffffffffffffffffffff1673ffffffffffffffffffffffffffffffffffffffff16815260200190815260200160002080549050148061190157508184604d0160008573ffffffffffffffffffffffffffffffffffffffff1673ffffffffffffffffffffffffffffffffffffffff16815260200190815260200160002060008154811015156118c357fe5b9060005260206000200160000160009054906101000a90046fffffffffffffffffffffffffffffffff166fffffffffffffffffffffffffffffffff16115b1561190f5760009050611b60565b600084604d0160008573ffffffffffffffffffffffffffffffffffffffff1673ffffffffffffffffffffffffffffffffffffffff168152602001908152602001600020905060008180549050141561196b576000915050611b60565b80600182805490500381548110151561198057fe5b9060005260206000200160000160009054906101000a90046fffffffffffffffffffffffffffffffff166fffffffffffffffffffffffffffffffff1683101515611a1d578060018280549050038154811015156119d957fe5b9060005260206000200160000160109054906101000a90046fffffffffffffffffffffffffffffffff166fffffffffffffffffffffffffffffffff16915050611b60565b806000815481101515611a2c57fe5b9060005260206000200160000160009054906101000a90046fffffffffffffffffffffffffffffffff166fffffffffffffffffffffffffffffffff16831015611a79576000915050611b60565b60008090506000600183805490500390505b81811115611b105760006002600184840101811515611aa657fe5b049050858482815481101515611ab857fe5b9060005260206000200160000160009054906101000a90046fffffffffffffffffffffffffffffffff166fffffffffffffffffffffffffffffffff16111515611b0357809250611b0a565b6001810391505b50611a8b565b8282815481101515611b1e57fe5b9060005260206000200160000160109054906101000a90046fffffffffffffffffffffffffffffffff166fffffffffffffffffffffffffffffffff1693505050505b9392505050565b600082604801600083815260200190815260200160002054905092915050565b600082604b01600083815260200190815260200160002054905092915050565b600083604901600084815260200190815260200160002060008373ffffffffffffffffffffffffffffffffffffffff1673ffffffffffffffffffffffffffffffffffffffff16815260200190815260200160002060009054906101000a900460ff1690509392505050565b611c1a6129f3565b8360500160008481526020019081526020016000206008016000838152602001908152602001600020600580602002604051908101604052809291908260058015611cb0576020028201915b8160009054906101000a900473ffffffffffffffffffffffffffffffffffffffff1673ffffffffffffffffffffffffffffffffffffffff1681526020019060010190808311611c66575b505050505090509392505050565b6000611ccb838343611824565b905092915050565b60008083604f0160008473ffffffffffffffffffffffffffffffffffffffff1673ffffffffffffffffffffffffffffffffffffffff1681526020019081526020016000206000015484604f0160008573ffffffffffffffffffffffffffffffffffffffff1673ffffffffffffffffffffffffffffffffffffffff16815260200190815260200160002060010154915091509250929050565b600083605001600084815260200190815260200160002060030182815481101515611d9257fe5b906000526020600020015490509392505050565b600083605001600084815260200190815260200160002060060160008381526020019081526020016000205490509392505050565b60008084604f0160008573ffffffffffffffffffffffffffffffffffffffff1673ffffffffffffffffffffffffffffffffffffffff168152602001908152602001600020600001541115611eb8576000611ea383611e9587604801600060405180807f7374616b65416d6f756e74000000000000000000000000000000000000000000815250600b0190506040518091039020815260200190815260200160002054611e878989611cbe565b6129b790919063ffffffff16565b6129b790919063ffffffff16565b101515611eb35760019050611eec565b611ee7565b6000611ed683611ec88787611cbe565b6129b790919063ffffffff16565b101515611ee65760019050611eec565b5b600090505b9392505050565b60008060006060600080866000015487604801600060405180807f63757272656e74526571756573744964000000000000000000000000000000008152506010019050604051809103902081526020019081526020016000205488604801600060405180807f646966666963756c747900000000000000000000000000000000000000000000815250600a01905060405180910390208152602001908152602001600020548960500160008b604801600060405180807f63757272656e74526571756573744964000000000000000000000000000000008152506010019050604051809103902081526020019081526020016000205481526020019081526020016000206000018a60500160008c604801600060405180807f63757272656e7452657175657374496400000000000000000000000000000000815250601001905060405180910390208152602001908152602001600020548152602001908152602001600020600401600060405180807f6772616e756c6172697479000000000000000000000000000000000000000000815250600b01905060405180910390208152602001908152602001600020548b60500160008d604801600060405180807f63757272656e7452657175657374496400000000000000000000000000000000815250601001905060405180910390208152602001908152602001600020548152602001908152602001600020600401600060405180807f746f74616c54697000000000000000000000000000000000000000000000000081525060080190506040518091039020815260200190815260200160002054828054600181600116156101000203166002900480601f0160208091040260200160405190810160405280929190818152602001828054600181600116156101000203166002900480156121e15780601f106121b6576101008083540402835291602001916121e1565b820191906000526020600020905b8154815290600101906020018083116121c457829003601f168201915b5050505050925095509550955095509550955091939550919395565b600083604c01600084815260200190815260200160002060060160008373ffffffffffffffffffffffffffffffffffffffff1673ffffffffffffffffffffffffffffffffffffffff16815260200190815260200160002060009054906101000a900460ff1690509392505050565b600080600080600080600061227e612a16565b6000808b604c0160008c8152602001908152602001600020905080600001548160020160009054906101000a900460ff168260020160019054906101000a900460ff168360020160029054906101000a900460ff168460020160039054906101000a900473ffffffffffffffffffffffffffffffffffffffff168560030160009054906101000a900473ffffffffffffffffffffffffffffffffffffffff168660040160009054906101000a900473ffffffffffffffffffffffffffffffffffffffff166101006040519081016040528089600501600060405180807f726571756573744964000000000000000000000000000000000000000000000081525060090190506040518091039020815260200190815260200160002054815260200189600501600060405180807f74696d657374616d70000000000000000000000000000000000000000000000081525060090190506040518091039020815260200190815260200160002054815260200189600501600060405180807f76616c756500000000000000000000000000000000000000000000000000000081525060050190506040518091039020815260200190815260200160002054815260200189600501600060405180807f6d696e457865637574696f6e446174650000000000000000000000000000000081525060100190506040518091039020815260200190815260200160002054815260200189600501600060405180807f6e756d6265724f66566f74657300000000000000000000000000000000000000815250600d0190506040518091039020815260200190815260200160002054815260200189600501600060405180807f626c6f636b4e756d626572000000000000000000000000000000000000000000815250600b0190506040518091039020815260200190815260200160002054815260200189600501600060405180807f6d696e6572536c6f74000000000000000000000000000000000000000000000081525060090190506040518091039020815260200190815260200160002054815260200189600501600060405180807f71756f72756d0000000000000000000000000000000000000000000000000000815250600601905060405180910390208152602001908152602001600020548152508860010154995099509950995099509950995099509950509295985092959850929598565b6125fa612a3a565b81600901603380602002604051908101604052809291908260338015612635576020028201915b815481526020019060010190808311612621575b50505050509050919050565b600083605001600084815260200190815260200160002060050160008381526020019081526020016000205490509392505050565b600082605201600083815260200190815260200160002054905092915050565b606080600080600080600088605001600089815260200190815260200160002090508060000181600101826002015483600401600060405180807f6772616e756c6172697479000000000000000000000000000000000000000000815250600b019050604051809103902081526020019081526020016000205484600401600060405180807f7265717565737451506f736974696f6e000000000000000000000000000000008152506010019050604051809103902081526020019081526020016000205485600401600060405180807f746f74616c54697000000000000000000000000000000000000000000000000081525060080190506040518091039020815260200190815260200160002054858054600181600116156101000203166002900480601f01602080910402602001604051908101604052809291908181526020018280546001816001161561010002031660029004801561283b5780601f106128105761010080835404028352916020019161283b565b820191906000526020600020905b81548152906001019060200180831161281e57829003601f168201915b50505050509550848054600181600116156101000203166002900480601f0160208091040260200160405190810160405280929190818152602001828054600181600116156101000203166002900480156128d75780601f106128ac576101008083540402835291602001916128d7565b820191906000526020600020905b8154815290600101906020018083116128ba57829003601f168201915b50505050509450965096509650965096509650509295509295509295565b6000806129ac8384604a01600086604801600060405180807f74696d654f664c6173744e657756616c756500000000000000000000000000008152506012019050604051809103902081526020019081526020016000205481526020019081526020016000205485604801600060405180807f74696d654f664c6173744e657756616c7565000000000000000000000000000081525060120190506040518091039020815260200190815260200160002054611da6565b600191509150915091565b60008282111515156129c557fe5b818303905092915050565b60a060405190810160405280600590602082028038833980820191505090505090565b60a060405190810160405280600590602082028038833980820191505090505090565b61010060405190810160405280600890602082028038833980820191505090505090565b6106606040519081016040528060339060208202803883398082019150509050509056fea165627a7a72305820053eef242f8e921e5bc5b8b0f19b00076408e5ac05fb6598d541da74882ebbea0029",
  "source": "pragma solidity ^0.5.0;\n\nimport \"./libraries/SafeMath.sol\"; \nimport \"./libraries/TellorGettersLibrary.sol\";\n\n/**\n* @title Tellor Getters\n* @dev Oracle contract with all tellor getter functions. The logic for the functions on this contract \n* is saved on the TellorGettersLibrary.sol\n* @dev Note at the top is the struct.  THE STRUCT SHOULD ALWAYS BE THE SAME AS TellorLibrary.SOL\n* @dev Failure to do so will result in errors with the fallback proxy\n*/\n\n//add in base getters for eternal storage ???\n//add in getters for public variables ???\n\ncontract TellorGetters{\n    using SafeMath for uint256;\n    using TellorGettersLibrary for TellorGettersLibrary.TellorStorageStruct;\n    TellorGettersLibrary.TellorStorageStruct tellor;\n    \n    /**\n    * @param _user address\n    * @param _spender address\n    * @return Returns the remaining allowance of tokens granted to the _spender from the _user\n    */\n    function allowance(address _user, address _spender) external view returns (uint) {\n       return tellor.allowance(_user,_spender);\n    }\n\n    /**\n    * @dev This function returns whether or not a given user is allowed to trade a given amount  \n    * @param _user address\n    * @param _amount uint of amount\n    * @return true if the user is alloed to trade the amount specified\n    */\n    function allowedToTrade(address _user,uint _amount) external view returns(bool){\n        return tellor.allowedToTrade(_user,_amount);\n    }\n\n    /**\n    * @dev Gets balance of owner specified\n    * @param _user is the owner address used to look up the balance\n    * @return Returns the balance associated with the passed in _user\n    */\n    function balanceOf(address _user) external view returns (uint) { \n        return tellor.balanceOf(_user);\n    }\n\n    /**\n    * @dev Queries the balance of _user at a specific _blockNumber\n    * @param _user The address from which the balance will be retrieved\n    * @param _blockNumber The block number when the balance is queried\n    * @return The balance at _blockNumber\n    */\n    function balanceOfAt(address _user, uint _blockNumber) external view returns (uint) {\n        return tellor.balanceOfAt(_user,_blockNumber);\n    }\n\n    /**\n    * @dev This function tells you if a given challenge has been completed by a given miner\n    * @param _challenge the challenge to search for\n    * @param _miner address that you want to know if they solved the challenge\n    * @return true if the _miner address provided solved the \n    */\n    function didMine(bytes32 _challenge,address _miner) external view returns(bool){\n        return tellor.didMine(_challenge,_miner);\n    }\n\n    /**\n    * @dev Checks if an address voted in a dispute\n    * @param _disputeId to look up\n    * @param _address to look up\n    * @return bool of whether or not party voted\n    */\n    function didVote(uint _disputeId, address _address) external view returns(bool){\n        return tellor.didVote(_disputeId,_address);\n    }\n\n\n    /**\n    * @dev allows Tellor to read data from the addressVars mapping\n    * @param _data is the keccak256(\"variable_name\") of the variable that is being accessed. \n    * These are examples of how the variables are saved within other functions:\n    * addressVars[keccak256(\"_owner\")]\n    * addressVars[keccak256(\"tellorContract\")]\n    **/\n    function getAddressVars(bytes32 _data) view external returns(address){\n        return tellor.getAddressVars(_data);\n    }\n\n    /**\n    * @dev Gets all dispute variables\n    * @param _disputeId to look up\n    * @return address of reported miner\n    * @return address of reporting party\n    * @return disputed apiId\n    * @return disputed minimum execution date\n    * @return uint number of votes\n    * @return uint blockNumber of vote\n    * @return uint index in disputeId array\n    * @return int count of the current tally\n    * @return bool of whether vote has been tallied\n    */\n    function getAllDisputeVars(uint _disputeId) public view returns(bytes32, bool, bool, bool, address, address, address,uint[8] memory, int){\n        return tellor.getAllDisputeVars(_disputeId);\n    }\n\n    /**\n    * @dev Getter function for variables for the requestId being currently mined(currentRequestId)\n    * @return current challenge, curretnRequestId, level of difficulty, api/query string, and granularity(number of decimals requested), , total tip for the request \n    */\n    function getCurrentVariables() external view returns(bytes32, uint, uint,string memory,uint,uint){    \n        return tellor.getCurrentVariables();\n    }\n\n    /**\n    * @dev Checks if a given hash of miner,requestId has been disputed\n    * @param _hash is the sha256(abi.encodePacked(_miners[2],_requestId));\n    * @return uint disputeId\n    */\n    function getDisputeIdByDisputeHash(bytes32 _hash) external view returns(uint){\n        return  tellor.getDisputeIdByDisputeHash(_hash);\n    }\n    \n    /**\n    * @dev Checks for uint variables in the disputeUintVars mapping based on the disuputeId\n    * @param _disputeId is the dispute id;\n    * @param _data the variable to pull from the mapping. _data = keccak256(\"variable_name\") where variable_name is \n    * the variables/strings used to save the data in the mapping. The variables names are  \n    * commented out under the disputeUintVars under the Dispute struct\n    * @return uint value for the bytes32 data submitted\n    */\n    function getDisputeUintVars(uint _disputeId,bytes32 _data) internal view returns(uint){\n        return tellor.getDisputeUintVars(_disputeId,_data);\n    }\n\n    /**\n    * @dev Gets the a value for the latest timestamp available\n    * @return value for timestamp of last proof of work submited\n    */\n    function getLastNewValue() external view returns(uint,bool){\n        return tellor.getLastNewValue();\n    }\n\n    /**\n    * @dev Retreive value from oracle based on timestamp\n    * @param _requestId being requested\n    * @param _timestamp to retreive data/value from\n    * @return value for timestamp submitted\n    */\n    function retrieveData(uint _requestId, uint _timestamp) external view returns (uint) {\n        return tellor.retrieveData(_requestId,_timestamp);\n    }\n\n\n    /**\n    * @dev Gets blocknumber for mined timestamp \n    * @param _requestId to look up\n    * @param _timestamp is the timestamp to look up blocknumber\n    * @return uint of the blocknumber which the dispute was mined\n    */\n    function getMinedBlockNum(uint _requestId, uint _timestamp) external view returns(uint){\n        return tellor.getMinedBlockNum(_requestId,_timestamp);\n    }\n\n\n    /**\n    * @dev Gets the 5 miners who mined the value for the specified requestId/_timestamp \n    * @param _requestId to look up\n    * @param _timestamp is the timestamp to look up miners for\n    * @return the 5 miners' addresses\n    */\n    function getMinersByRequestIdAndTimestamp(uint _requestId, uint _timestamp) external view returns(address[5] memory){\n        return tellor.getMinersByRequestIdAndTimestamp(_requestId,_timestamp);\n    }\n\n\n    /**\n    * @dev Counts the number of values that have been submited for the request \n    * if called for the currentRequest being mined it can tell you how many miners have submitted a value for that\n    * request so far\n    * @param _requestId the requestId to look up\n    * @return uint count of the number of values received for the requestId\n    */\n    function getNewValueCountbyRequestId(uint _requestId) external view returns(uint){\n        return tellor.getNewValueCountbyRequestId(_requestId);\n    }\n\n\n    /**\n    * @dev Getter function for the specified requestQ index\n    * @param _index to look up in the requestQ array\n    * @return uint of reqeuestId\n    */\n    function getRequestIdByRequestQIndex(uint _index) external view returns(uint){\n        return tellor.getRequestIdByRequestQIndex(_index);\n    }\n\n\n    /**\n    * @dev Getter function for requestId based on timestamp \n    * @param _timestamp to check requestId\n    * @return uint of reqeuestId\n    */\n    function getRequestIdByTimestamp(uint _timestamp) external view returns(uint){    \n        return tellor.getRequestIdByTimestamp(_timestamp);\n    }\n\n    /**\n    * @dev Getter function for requestId based on the queryHash\n    * @param _request is the hash(of string api and granularity) to check if a request already exists\n    * @return uint requestId\n    */\n    function getRequestIdByQueryHash(bytes32 _request) external view returns(uint){    \n        return tellor.getRequestIdByQueryHash(_request);\n    }\n\n\n    /**\n    * @dev Getter function for the requestQ array\n    * @return the requestQ arrray\n    */\n    function getRequestQ() view public returns(uint[51] memory){\n        return tellor.getRequestQ();\n    }\n\n\n    /**\n    * @dev Allowes access to the uint variables saved in the apiUintVars under the requestDetails struct\n    * for the requestId specified\n    * @param _requestId to look up\n    * @param _data the variable to pull from the mapping. _data = keccak256(\"variable_name\") where variable_name is \n    * the variables/strings used to save the data in the mapping. The variables names are  \n    * commented out under the apiUintVars under the requestDetails struct\n    */\n    function getRequestUintVars(uint _requestId,bytes32 _data) internal view returns(uint){\n        return tellor.getRequestUintVars(_requestId,_data);\n    }\n\n\n    /**\n    * @dev Gets the API struct variables that are not mappings\n    * @param _requestId to look up\n    * @return string of api to query\n    * @return string of symbol of api to query\n    * @return bytes32 hash of string\n    * @return bytes32 of the granularity(decimal places) requested\n    * @return uint of index in requestQ array\n    * @return uint of current payout/tip for this requestId\n    */\n    function getRequestVars(uint _requestId) external view returns(string memory, string memory,bytes32,uint, uint, uint) {\n        return tellor.getRequestVars(_requestId);\n    }\n\n\n    /**\n    * @dev This function allows users to retireve all information about a staker\n    * @param _staker address of staker inquiring about\n    * @return uint current state of staker\n    * @return uint startDate of staking\n    */\n    function getStakerInfo(address _staker) external view returns(uint,uint){\n        return tellor.getStakerInfo(_staker);\n    }\n    \n    /**\n    * @dev Gets the 5 miners who mined the value for the specified requestId/_timestamp \n    * @param _requestId to look up\n    * @param _timestamp is the timestampt to look up miners for\n    * @return address[5] array of 5 addresses ofminers that mined the requestId\n    */    function getSubmissionsByTimestamp(uint _requestId, uint _timestamp) external view returns(uint[5] memory){\n        return tellor.getSubmissionsByTimestamp(_requestId,_timestamp);\n    }\n\n\n    /**\n    * @dev Gets the timestamp for the value based on their index\n    * @param _requestID is the requestId to look up\n    * @param _index is the value index to look up\n    * @return uint timestamp\n    */\n    function getTimestampbyRequestIDandIndex(uint _requestID, uint _index) external view returns(uint){\n        return tellor.getTimestampbyRequestIDandIndex(_requestID,_index);\n    }\n\n\n    /**\n    * @dev Getter for the variables saved under the TellorStorageStruct uintVars variable\n    * @param _data the variable to pull from the mapping. _data = keccak256(\"variable_name\") where variable_name is \n    * the variables/strings used to save the data in the mapping. The variables names are  \n    * commented out under the uintVars under the TellorStorageStruct struct\n    * This is an example of how data is saved into the mapping within other functions: \n    * self.uintVars[keccak256(\"stakerCount\")]\n    * @return uint of specified variable  \n    */ \n    function getUintVar(bytes32 _data) view public returns(uint){\n        return tellor.getUintVar(_data);\n    }\n\n\n\n    /**\n    * @dev Getter function for next requestId on queue\n    * @return onDeckRequestId, onDeckTotaltips, , and API query string\n    */\n    function getVariablesOnDeck() external view returns(uint, uint,string memory){    \n        return tellor.getVariablesOnDeck();\n    }\n    \n    /**\n    * @dev Gets the 5 miners who mined the value for the specified requestId/_timestamp \n    * @param _requestId to look up\n    * @param _timestamp is the timestamp to look up miners for\n    * @return bool true if requestId/timestamp is under dispute\n    */\n    function isInDispute(uint _requestId, uint _timestamp) external view returns(bool){\n        return tellor.isInDispute(_requestId,_timestamp);\n    }\n    \n\n    /**\n    * @dev Get the name of the token\n    * return string of the token name\n    */\n    function getName() external view returns(string memory){\n        return tellor.getName();\n    }\n\n\n    /**\n    * @dev Get the symbol of the token\n    * return string of the token symbol\n    */\n    function getSymbol() external view returns(string memory){\n        return tellor.getSymbol();\n    } \n\n\n    /**\n    * @dev Getter for the total_supply of oracle tokens\n    * @return uint total supply\n    */\n    function totalSupply() external view returns (uint) {\n       return tellor.totalSupply();\n    }\n\n}",
  "sourcePath": "/Users/mdcoon/git/TellorCore/contracts/TellorGetters.sol",
  "compiler": {
    "name": "solc",
    "version": "0.5.0+commit.1d4f565a.Emscripten.clang"
  },
  "schemaVersion": "3.0.6",
  "updatedAt": "2019-04-30T10:31:54.675Z",
  "devdoc": {
    "details": "Oracle contract with all tellor getter functions. The logic for the functions on this contract  is saved on the TellorGettersLibrary.solNote at the top is the struct.  THE STRUCT SHOULD ALWAYS BE THE SAME AS TellorLibrary.SOLFailure to do so will result in errors with the fallback proxy",
    "methods": {
      "allowance(address,address)": {
        "params": {
          "_spender": "address",
          "_user": "address"
        },
        "return": "Returns the remaining allowance of tokens granted to the _spender from the _user"
      },
      "allowedToTrade(address,uint256)": {
        "details": "This function returns whether or not a given user is allowed to trade a given amount  ",
        "params": {
          "_amount": "uint of amount",
          "_user": "address"
        },
        "return": "true if the user is alloed to trade the amount specified"
      },
      "balanceOf(address)": {
        "details": "Gets balance of owner specified",
        "params": {
          "_user": "is the owner address used to look up the balance"
        },
        "return": "Returns the balance associated with the passed in _user"
      },
      "balanceOfAt(address,uint256)": {
        "details": "Queries the balance of _user at a specific _blockNumber",
        "params": {
          "_blockNumber": "The block number when the balance is queried",
          "_user": "The address from which the balance will be retrieved"
        },
        "return": "The balance at _blockNumber"
      },
      "didMine(bytes32,address)": {
        "details": "This function tells you if a given challenge has been completed by a given miner",
        "params": {
          "_challenge": "the challenge to search for",
          "_miner": "address that you want to know if they solved the challenge"
        },
        "return": "true if the _miner address provided solved the "
      },
      "didVote(uint256,address)": {
        "details": "Checks if an address voted in a dispute",
        "params": {
          "_address": "to look up",
          "_disputeId": "to look up"
        },
        "return": "bool of whether or not party voted"
      },
      "getAddressVars(bytes32)": {
        "details": "allows Tellor to read data from the addressVars mapping",
        "params": {
          "_data": "is the keccak256(\"variable_name\") of the variable that is being accessed.  These are examples of how the variables are saved within other functions: addressVars[keccak256(\"_owner\")] addressVars[keccak256(\"tellorContract\")]*"
        }
      },
      "getAllDisputeVars(uint256)": {
        "details": "Gets all dispute variables",
        "params": {
          "_disputeId": "to look up"
        },
        "return": "address of reported mineraddress of reporting partydisputed apiIddisputed minimum execution dateuint number of votesuint blockNumber of voteuint index in disputeId arrayint count of the current tallybool of whether vote has been tallied"
      },
      "getCurrentVariables()": {
        "details": "Getter function for variables for the requestId being currently mined(currentRequestId)",
        "return": "current challenge, curretnRequestId, level of difficulty, api/query string, and granularity(number of decimals requested), , total tip for the request "
      },
      "getDisputeIdByDisputeHash(bytes32)": {
        "details": "Checks if a given hash of miner,requestId has been disputed",
        "params": {
          "_hash": "is the sha256(abi.encodePacked(_miners[2],_requestId));"
        },
        "return": "uint disputeId"
      },
      "getLastNewValue()": {
        "details": "Gets the a value for the latest timestamp available",
        "return": "value for timestamp of last proof of work submited"
      },
      "getMinedBlockNum(uint256,uint256)": {
        "details": "Gets blocknumber for mined timestamp ",
        "params": {
          "_requestId": "to look up",
          "_timestamp": "is the timestamp to look up blocknumber"
        },
        "return": "uint of the blocknumber which the dispute was mined"
      },
      "getMinersByRequestIdAndTimestamp(uint256,uint256)": {
        "details": "Gets the 5 miners who mined the value for the specified requestId/_timestamp ",
        "params": {
          "_requestId": "to look up",
          "_timestamp": "is the timestamp to look up miners for"
        },
        "return": "the 5 miners' addresses"
      },
      "getName()": {
        "details": "Get the name of the token return string of the token name"
      },
      "getNewValueCountbyRequestId(uint256)": {
        "details": "Counts the number of values that have been submited for the request  if called for the currentRequest being mined it can tell you how many miners have submitted a value for that request so far",
        "params": {
          "_requestId": "the requestId to look up"
        },
        "return": "uint count of the number of values received for the requestId"
      },
      "getRequestIdByQueryHash(bytes32)": {
        "details": "Getter function for requestId based on the queryHash",
        "params": {
          "_request": "is the hash(of string api and granularity) to check if a request already exists"
        },
        "return": "uint requestId"
      },
      "getRequestIdByRequestQIndex(uint256)": {
        "details": "Getter function for the specified requestQ index",
        "params": {
          "_index": "to look up in the requestQ array"
        },
        "return": "uint of reqeuestId"
      },
      "getRequestIdByTimestamp(uint256)": {
        "details": "Getter function for requestId based on timestamp ",
        "params": {
          "_timestamp": "to check requestId"
        },
        "return": "uint of reqeuestId"
      },
      "getRequestQ()": {
        "details": "Getter function for the requestQ array",
        "return": "the requestQ arrray"
      },
      "getRequestVars(uint256)": {
        "details": "Gets the API struct variables that are not mappings",
        "params": {
          "_requestId": "to look up"
        },
        "return": "string of api to querystring of symbol of api to querybytes32 hash of stringbytes32 of the granularity(decimal places) requesteduint of index in requestQ arrayuint of current payout/tip for this requestId"
      },
      "getStakerInfo(address)": {
        "details": "This function allows users to retireve all information about a staker",
        "params": {
          "_staker": "address of staker inquiring about"
        },
        "return": "uint current state of stakeruint startDate of staking"
      },
      "getSubmissionsByTimestamp(uint256,uint256)": {
        "details": "Gets the 5 miners who mined the value for the specified requestId/_timestamp ",
        "params": {
          "_requestId": "to look up",
          "_timestamp": "is the timestampt to look up miners for"
        },
        "return": "address[5] array of 5 addresses ofminers that mined the requestId"
      },
      "getSymbol()": {
        "details": "Get the symbol of the token return string of the token symbol"
      },
      "getTimestampbyRequestIDandIndex(uint256,uint256)": {
        "details": "Gets the timestamp for the value based on their index",
        "params": {
          "_index": "is the value index to look up",
          "_requestID": "is the requestId to look up"
        },
        "return": "uint timestamp"
      },
      "getUintVar(bytes32)": {
        "details": "Getter for the variables saved under the TellorStorageStruct uintVars variable",
        "params": {
          "_data": "the variable to pull from the mapping. _data = keccak256(\"variable_name\") where variable_name is  the variables/strings used to save the data in the mapping. The variables names are   commented out under the uintVars under the TellorStorageStruct struct This is an example of how data is saved into the mapping within other functions:  self.uintVars[keccak256(\"stakerCount\")]"
        },
        "return": "uint of specified variable  "
      },
      "getVariablesOnDeck()": {
        "details": "Getter function for next requestId on queue",
        "return": "onDeckRequestId, onDeckTotaltips, , and API query string"
      },
      "isInDispute(uint256,uint256)": {
        "details": "Gets the 5 miners who mined the value for the specified requestId/_timestamp ",
        "params": {
          "_requestId": "to look up",
          "_timestamp": "is the timestamp to look up miners for"
        },
        "return": "bool true if requestId/timestamp is under dispute"
      },
      "retrieveData(uint256,uint256)": {
        "details": "Retreive value from oracle based on timestamp",
        "params": {
          "_requestId": "being requested",
          "_timestamp": "to retreive data/value from"
        },
        "return": "value for timestamp submitted"
      },
      "totalSupply()": {
        "details": "Getter for the total_supply of oracle tokens",
        "return": "uint total supply"
      }
    },
    "title": "Tellor Getters"
  },
  "userdoc": {
    "methods": {}
  }
}