{
  "contractName": "TellorMaster",
  "abi": [
    {
      "constant": true,
      "inputs": [
        {
          "name": "_timestamp",
          "type": "uint256"
        }
      ],
      "name": "getRequestIdByTimestamp",
      "outputs": [
        {
          "name": "",
          "type": "uint256"
        }
      ],
      "payable": false,
      "stateMutability": "view",
      "type": "function",
      "signature": "0x0f0b424d"
    },
    {
      "constant": true,
      "inputs": [
        {
          "name": "_requestId",
          "type": "uint256"
        },
        {
          "name": "_timestamp",
          "type": "uint256"
        }
      ],
      "name": "getSubmissionsByTimestamp",
      "outputs": [
        {
          "name": "",
          "type": "uint256[5]"
        }
      ],
      "payable": false,
      "stateMutability": "view",
      "type": "function",
      "signature": "0x11c98512"
    },
    {
      "constant": true,
      "inputs": [
        {
          "name": "_data",
          "type": "bytes32"
        }
      ],
      "name": "getAddressVars",
      "outputs": [
        {
          "name": "",
          "type": "address"
        }
      ],
      "payable": false,
      "stateMutability": "view",
      "type": "function",
      "signature": "0x133bee5e"
    },
    {
      "constant": true,
      "inputs": [],
      "name": "getSymbol",
      "outputs": [
        {
          "name": "",
          "type": "string"
        }
      ],
      "payable": false,
      "stateMutability": "view",
      "type": "function",
      "signature": "0x15070401"
    },
    {
      "constant": true,
      "inputs": [],
      "name": "getName",
      "outputs": [
        {
          "name": "",
          "type": "string"
        }
      ],
      "payable": false,
      "stateMutability": "view",
      "type": "function",
      "signature": "0x17d7de7c"
    },
    {
      "constant": true,
      "inputs": [],
      "name": "totalSupply",
      "outputs": [
        {
          "name": "",
          "type": "uint256"
        }
      ],
      "payable": false,
      "stateMutability": "view",
      "type": "function",
      "signature": "0x18160ddd"
    },
    {
      "constant": true,
      "inputs": [],
      "name": "getVariablesOnDeck",
      "outputs": [
        {
          "name": "",
          "type": "uint256"
        },
        {
          "name": "",
          "type": "uint256"
        },
        {
          "name": "",
          "type": "string"
        }
      ],
      "payable": false,
      "stateMutability": "view",
      "type": "function",
      "signature": "0x19e8e03b"
    },
    {
      "constant": true,
      "inputs": [
        {
          "name": "_request",
          "type": "bytes32"
        }
      ],
      "name": "getRequestIdByQueryHash",
      "outputs": [
        {
          "name": "",
          "type": "uint256"
        }
      ],
      "payable": false,
      "stateMutability": "view",
      "type": "function",
      "signature": "0x1db842f0"
    },
    {
      "constant": true,
      "inputs": [
        {
          "name": "_requestId",
          "type": "uint256"
        },
        {
          "name": "_timestamp",
          "type": "uint256"
        }
      ],
      "name": "isInDispute",
      "outputs": [
        {
          "name": "",
          "type": "bool"
        }
      ],
      "payable": false,
      "stateMutability": "view",
      "type": "function",
      "signature": "0x3df0777b"
    },
    {
      "constant": true,
      "inputs": [
        {
          "name": "_requestId",
          "type": "uint256"
        }
      ],
      "name": "getNewValueCountbyRequestId",
      "outputs": [
        {
          "name": "",
          "type": "uint256"
        }
      ],
      "payable": false,
      "stateMutability": "view",
      "type": "function",
      "signature": "0x46eee1c4"
    },
    {
      "constant": true,
      "inputs": [
        {
          "name": "_user",
          "type": "address"
        },
        {
          "name": "_blockNumber",
          "type": "uint256"
        }
      ],
      "name": "balanceOfAt",
      "outputs": [
        {
          "name": "",
          "type": "uint256"
        }
      ],
      "payable": false,
      "stateMutability": "view",
      "type": "function",
      "signature": "0x4ee2cd7e"
    },
    {
      "constant": true,
      "inputs": [
        {
          "name": "_data",
          "type": "bytes32"
        }
      ],
      "name": "getUintVar",
      "outputs": [
        {
          "name": "",
          "type": "uint256"
        }
      ],
      "payable": false,
      "stateMutability": "view",
      "type": "function",
      "signature": "0x612c8f7f"
    },
    {
      "constant": true,
      "inputs": [
        {
          "name": "_index",
          "type": "uint256"
        }
      ],
      "name": "getRequestIdByRequestQIndex",
      "outputs": [
        {
          "name": "",
          "type": "uint256"
        }
      ],
      "payable": false,
      "stateMutability": "view",
      "type": "function",
      "signature": "0x6173c0b8"
    },
    {
      "constant": true,
      "inputs": [
        {
          "name": "_challenge",
          "type": "bytes32"
        },
        {
          "name": "_miner",
          "type": "address"
        }
      ],
      "name": "didMine",
      "outputs": [
        {
          "name": "",
          "type": "bool"
        }
      ],
      "payable": false,
      "stateMutability": "view",
      "type": "function",
      "signature": "0x63bb82ad"
    },
    {
      "constant": true,
      "inputs": [
        {
          "name": "_requestId",
          "type": "uint256"
        },
        {
          "name": "_timestamp",
          "type": "uint256"
        }
      ],
      "name": "getMinersByRequestIdAndTimestamp",
      "outputs": [
        {
          "name": "",
          "type": "address[5]"
        }
      ],
      "payable": false,
      "stateMutability": "view",
      "type": "function",
      "signature": "0x69026d63"
    },
    {
      "constant": true,
      "inputs": [
        {
          "name": "_user",
          "type": "address"
        }
      ],
      "name": "balanceOf",
      "outputs": [
        {
          "name": "",
          "type": "uint256"
        }
      ],
      "payable": false,
      "stateMutability": "view",
      "type": "function",
      "signature": "0x70a08231"
    },
    {
      "constant": true,
      "inputs": [
        {
          "name": "_staker",
          "type": "address"
        }
      ],
      "name": "getStakerInfo",
      "outputs": [
        {
          "name": "",
          "type": "uint256"
        },
        {
          "name": "",
          "type": "uint256"
        }
      ],
      "payable": false,
      "stateMutability": "view",
      "type": "function",
      "signature": "0x733bdef0"
    },
    {
      "constant": true,
      "inputs": [
        {
          "name": "_requestID",
          "type": "uint256"
        },
        {
          "name": "_index",
          "type": "uint256"
        }
      ],
      "name": "getTimestampbyRequestIDandIndex",
      "outputs": [
        {
          "name": "",
          "type": "uint256"
        }
      ],
      "payable": false,
      "stateMutability": "view",
      "type": "function",
      "signature": "0x77fbb663"
    },
    {
      "constant": true,
      "inputs": [
        {
          "name": "_requestId",
          "type": "uint256"
        },
        {
          "name": "_timestamp",
          "type": "uint256"
        }
      ],
      "name": "retrieveData",
      "outputs": [
        {
          "name": "",
          "type": "uint256"
        }
      ],
      "payable": false,
      "stateMutability": "view",
      "type": "function",
      "signature": "0x93fa4915"
    },
    {
      "constant": true,
      "inputs": [
        {
          "name": "_user",
          "type": "address"
        },
        {
          "name": "_amount",
          "type": "uint256"
        }
      ],
      "name": "allowedToTrade",
      "outputs": [
        {
          "name": "",
          "type": "bool"
        }
      ],
      "payable": false,
      "stateMutability": "view",
      "type": "function",
      "signature": "0x999cf26c"
    },
    {
      "constant": true,
      "inputs": [],
      "name": "getCurrentVariables",
      "outputs": [
        {
          "name": "",
          "type": "bytes32"
        },
        {
          "name": "",
          "type": "uint256"
        },
        {
          "name": "",
          "type": "uint256"
        },
        {
          "name": "",
          "type": "string"
        },
        {
          "name": "",
          "type": "uint256"
        },
        {
          "name": "",
          "type": "uint256"
        }
      ],
      "payable": false,
      "stateMutability": "view",
      "type": "function",
      "signature": "0xa22e407a"
    },
    {
      "constant": true,
      "inputs": [
        {
          "name": "_disputeId",
          "type": "uint256"
        },
        {
          "name": "_address",
          "type": "address"
        }
      ],
      "name": "didVote",
      "outputs": [
        {
          "name": "",
          "type": "bool"
        }
      ],
      "payable": false,
      "stateMutability": "view",
      "type": "function",
      "signature": "0xa7c438bc"
    },
    {
      "constant": true,
      "inputs": [
        {
          "name": "_disputeId",
          "type": "uint256"
        }
      ],
      "name": "getAllDisputeVars",
      "outputs": [
        {
          "name": "",
          "type": "bytes32"
        },
        {
          "name": "",
          "type": "bool"
        },
        {
          "name": "",
          "type": "bool"
        },
        {
          "name": "",
          "type": "bool"
        },
        {
          "name": "",
          "type": "address"
        },
        {
          "name": "",
          "type": "address"
        },
        {
          "name": "",
          "type": "address"
        },
        {
          "name": "",
          "type": "uint256[8]"
        },
        {
          "name": "",
          "type": "int256"
        }
      ],
      "payable": false,
      "stateMutability": "view",
      "type": "function",
      "signature": "0xaf0b1327"
    },
    {
      "constant": true,
      "inputs": [],
      "name": "getRequestQ",
      "outputs": [
        {
          "name": "",
          "type": "uint256[51]"
        }
      ],
      "payable": false,
      "stateMutability": "view",
      "type": "function",
      "signature": "0xb5413029"
    },
    {
      "constant": true,
      "inputs": [
        {
          "name": "_requestId",
          "type": "uint256"
        },
        {
          "name": "_timestamp",
          "type": "uint256"
        }
      ],
      "name": "getMinedBlockNum",
      "outputs": [
        {
          "name": "",
          "type": "uint256"
        }
      ],
      "payable": false,
      "stateMutability": "view",
      "type": "function",
      "signature": "0xc775b542"
    },
    {
      "constant": true,
      "inputs": [
        {
          "name": "_hash",
          "type": "bytes32"
        }
      ],
      "name": "getDisputeIdByDisputeHash",
      "outputs": [
        {
          "name": "",
          "type": "uint256"
        }
      ],
      "payable": false,
      "stateMutability": "view",
      "type": "function",
      "signature": "0xda379941"
    },
    {
      "constant": true,
      "inputs": [
        {
          "name": "_user",
          "type": "address"
        },
        {
          "name": "_spender",
          "type": "address"
        }
      ],
      "name": "allowance",
      "outputs": [
        {
          "name": "",
          "type": "uint256"
        }
      ],
      "payable": false,
      "stateMutability": "view",
      "type": "function",
      "signature": "0xdd62ed3e"
    },
    {
      "constant": true,
      "inputs": [
        {
          "name": "_requestId",
          "type": "uint256"
        }
      ],
      "name": "getRequestVars",
      "outputs": [
        {
          "name": "",
          "type": "string"
        },
        {
          "name": "",
          "type": "string"
        },
        {
          "name": "",
          "type": "bytes32"
        },
        {
          "name": "",
          "type": "uint256"
        },
        {
          "name": "",
          "type": "uint256"
        },
        {
          "name": "",
          "type": "uint256"
        }
      ],
      "payable": false,
      "stateMutability": "view",
      "type": "function",
      "signature": "0xe1eee6d6"
    },
    {
      "constant": true,
      "inputs": [],
      "name": "getLastNewValue",
      "outputs": [
        {
          "name": "",
          "type": "uint256"
        },
        {
          "name": "",
          "type": "bool"
        }
      ],
      "payable": false,
      "stateMutability": "view",
      "type": "function",
      "signature": "0xfc7cf0a0"
    },
    {
      "inputs": [
        {
          "name": "_tellorContract",
          "type": "address"
        }
      ],
      "payable": false,
      "stateMutability": "nonpayable",
      "type": "constructor",
      "signature": "constructor"
    },
    {
      "payable": true,
      "stateMutability": "payable",
      "type": "fallback"
    }
  ],
  "bytecode": "0x60806040523480156200001157600080fd5b5060405160208062002ed7833981018060405260208110156200003357600080fd5b8101908080519060200190929190505050620000688160006200006f6401000000000262002b3a179091906401000000009004565b50620001e8565b3382604701600060405180807f5f6f776e6572000000000000000000000000000000000000000000000000000081525060060190506040518091039020815260200190815260200160002060006101000a81548173ffffffffffffffffffffffffffffffffffffffff021916908373ffffffffffffffffffffffffffffffffffffffff1602179055508082604701600060405180807f74656c6c6f72436f6e7472616374000000000000000000000000000000000000815250600e0190506040518091039020815260200190815260200160002060006101000a81548173ffffffffffffffffffffffffffffffffffffffff021916908373ffffffffffffffffffffffffffffffffffffffff1602179055507fc2d1449eb0b6547aa426e09d9942a77fa4fc8cd3296305b3163e22452e0bcb8d81604051808273ffffffffffffffffffffffffffffffffffffffff1673ffffffffffffffffffffffffffffffffffffffff16815260200191505060405180910390a15050565b612cdf80620001f86000396000f3fe608060405260043610610175576000357c0100000000000000000000000000000000000000000000000000000000900463ffffffff1680630f0b424d1461025657806311c98512146102a5578063133bee5e1461032657806315070401146103a157806317d7de7c1461043157806318160ddd146104c157806319e8e03b146104ec5780631db842f01461058a5780633df0777b146105d957806346eee1c4146106365780634ee2cd7e14610685578063612c8f7f146106f45780636173c0b81461074357806363bb82ad1461079257806369026d631461080557806370a0823114610886578063733bdef0146108eb57806377fbb6631461095757806393fa4915146109b0578063999cf26c14610a09578063a22e407a14610a7c578063a7c438bc14610b2f578063af0b132714610ba2578063b541302914610ce1578063c775b54214610d34578063da37994114610d8d578063dd62ed3e14610ddc578063e1eee6d614610e61578063fc7cf0a014610f9d575b600080604701600060405180807f74656c6c6f72436f6e7472616374000000000000000000000000000000000000815250600e0190506040518091039020815260200190815260200160002060009054906101000a900473ffffffffffffffffffffffffffffffffffffffff16905060606000368080601f016020809104026020016040519081016040528093929190818152602001838380828437600081840152601f19601f82011690508083019250505050505050905060008082516020840185600019f43d604051816000823e8260008114610252578282f35b8282fd5b34801561026257600080fd5b5061028f6004803603602081101561027957600080fd5b8101908080359060200190929190505050610fd3565b6040518082815260200191505060405180910390f35b3480156102b157600080fd5b506102e8600480360360408110156102c857600080fd5b810190808035906020019092919080359060200190929190505050610ff0565b6040518082600560200280838360005b838110156103135780820151818401526020810190506102f8565b5050505090500191505060405180910390f35b34801561033257600080fd5b5061035f6004803603602081101561034957600080fd5b8101908080359060200190929190505050611016565b604051808273ffffffffffffffffffffffffffffffffffffffff1673ffffffffffffffffffffffffffffffffffffffff16815260200191505060405180910390f35b3480156103ad57600080fd5b506103b6611033565b6040518080602001828103825283818151815260200191508051906020019080838360005b838110156103f65780820151818401526020810190506103db565b50505050905090810190601f1680156104235780820380516001836020036101000a031916815260200191505b509250505060405180910390f35b34801561043d57600080fd5b50610446611044565b6040518080602001828103825283818151815260200191508051906020019080838360005b8381101561048657808201518184015260208101905061046b565b50505050905090810190601f1680156104b35780820380516001836020036101000a031916815260200191505b509250505060405180910390f35b3480156104cd57600080fd5b506104d6611055565b6040518082815260200191505060405180910390f35b3480156104f857600080fd5b50610501611066565b6040518084815260200183815260200180602001828103825283818151815260200191508051906020019080838360005b8381101561054d578082015181840152602081019050610532565b50505050905090810190601f16801561057a5780820380516001836020036101000a031916815260200191505b5094505050505060405180910390f35b34801561059657600080fd5b506105c3600480360360208110156105ad57600080fd5b8101908080359060200190929190505050611080565b6040518082815260200191505060405180910390f35b3480156105e557600080fd5b5061061c600480360360408110156105fc57600080fd5b81019080803590602001909291908035906020019092919050505061109d565b604051808215151515815260200191505060405180910390f35b34801561064257600080fd5b5061066f6004803603602081101561065957600080fd5b81019080803590602001909291905050506110bd565b6040518082815260200191505060405180910390f35b34801561069157600080fd5b506106de600480360360408110156106a857600080fd5b81019080803573ffffffffffffffffffffffffffffffffffffffff169060200190929190803590602001909291905050506110da565b6040518082815260200191505060405180910390f35b34801561070057600080fd5b5061072d6004803603602081101561071757600080fd5b81019080803590602001909291905050506110fa565b6040518082815260200191505060405180910390f35b34801561074f57600080fd5b5061077c6004803603602081101561076657600080fd5b8101908080359060200190929190505050611117565b6040518082815260200191505060405180910390f35b34801561079e57600080fd5b506107eb600480360360408110156107b557600080fd5b8101908080359060200190929190803573ffffffffffffffffffffffffffffffffffffffff169060200190929190505050611134565b604051808215151515815260200191505060405180910390f35b34801561081157600080fd5b506108486004803603604081101561082857600080fd5b810190808035906020019092919080359060200190929190505050611154565b6040518082600560200280838360005b83811015610873578082015181840152602081019050610858565b5050505090500191505060405180910390f35b34801561089257600080fd5b506108d5600480360360208110156108a957600080fd5b81019080803573ffffffffffffffffffffffffffffffffffffffff16906020019092919050505061117a565b6040518082815260200191505060405180910390f35b3480156108f757600080fd5b5061093a6004803603602081101561090e57600080fd5b81019080803573ffffffffffffffffffffffffffffffffffffffff169060200190929190505050611197565b604051808381526020018281526020019250505060405180910390f35b34801561096357600080fd5b5061099a6004803603604081101561097a57600080fd5b8101908080359060200190929190803590602001909291905050506111b7565b6040518082815260200191505060405180910390f35b3480156109bc57600080fd5b506109f3600480360360408110156109d357600080fd5b8101908080359060200190929190803590602001909291905050506111d7565b6040518082815260200191505060405180910390f35b348015610a1557600080fd5b50610a6260048036036040811015610a2c57600080fd5b81019080803573ffffffffffffffffffffffffffffffffffffffff169060200190929190803590602001909291905050506111f7565b604051808215151515815260200191505060405180910390f35b348015610a8857600080fd5b50610a91611217565b6040518087815260200186815260200185815260200180602001848152602001838152602001828103825285818151815260200191508051906020019080838360005b83811015610aef578082015181840152602081019050610ad4565b50505050905090810190601f168015610b1c5780820380516001836020036101000a031916815260200191505b5097505050505050505060405180910390f35b348015610b3b57600080fd5b50610b8860048036036040811015610b5257600080fd5b8101908080359060200190929190803573ffffffffffffffffffffffffffffffffffffffff16906020019092919050505061123f565b604051808215151515815260200191505060405180910390f35b348015610bae57600080fd5b50610bdb60048036036020811015610bc557600080fd5b810190808035906020019092919050505061125f565b604051808a81526020018915151515815260200188151515158152602001871515151581526020018673ffffffffffffffffffffffffffffffffffffffff1673ffffffffffffffffffffffffffffffffffffffff1681526020018573ffffffffffffffffffffffffffffffffffffffff1673ffffffffffffffffffffffffffffffffffffffff1681526020018473ffffffffffffffffffffffffffffffffffffffff1673ffffffffffffffffffffffffffffffffffffffff16815260200183600860200280838360005b83811015610cc0578082015181840152602081019050610ca5565b50505050905001828152602001995050505050505050505060405180910390f35b348015610ced57600080fd5b50610cf66112a7565b6040518082603360200280838360005b83811015610d21578082015181840152602081019050610d06565b5050505090500191505060405180910390f35b348015610d4057600080fd5b50610d7760048036036040811015610d5757600080fd5b8101908080359060200190929190803590602001909291905050506112be565b6040518082815260200191505060405180910390f35b348015610d9957600080fd5b50610dc660048036036020811015610db057600080fd5b81019080803590602001909291905050506112de565b6040518082815260200191505060405180910390f35b348015610de857600080fd5b50610e4b60048036036040811015610dff57600080fd5b81019080803573ffffffffffffffffffffffffffffffffffffffff169060200190929190803573ffffffffffffffffffffffffffffffffffffffff1690602001909291905050506112fb565b6040518082815260200191505060405180910390f35b348015610e6d57600080fd5b50610e9a60048036036020811015610e8457600080fd5b8101908080359060200190929190505050611415565b604051808060200180602001878152602001868152602001858152602001848152602001838103835289818151815260200191508051906020019080838360005b83811015610ef6578082015181840152602081019050610edb565b50505050905090810190601f168015610f235780820380516001836020036101000a031916815260200191505b50838103825288818151815260200191508051906020019080838360005b83811015610f5c578082015181840152602081019050610f41565b50505050905090810190601f168015610f895780820380516001836020036101000a031916815260200191505b509850505050505050505060405180910390f35b348015610fa957600080fd5b50610fb2611447565b60405180838152602001821515151581526020019250505060405180910390f35b6000610fe982600061145c90919063ffffffff16565b9050919050565b610ff8612aac565b61100e8383600061147c9092919063ffffffff16565b905092915050565b600061102c8260006114f290919063ffffffff16565b9050919050565b606061103f6000611532565b905090565b606061105060006115d8565b905090565b6000611061600061167e565b905090565b600080606061107560006116d2565b925092509250909192565b600061109682600061187890919063ffffffff16565b9050919050565b60006110b5838360006118989092919063ffffffff16565b905092915050565b60006110d38260006118da90919063ffffffff16565b9050919050565b60006110f2838360006119009092919063ffffffff16565b905092915050565b6000611110826000611c4390919063ffffffff16565b9050919050565b600061112d826000611c6390919063ffffffff16565b9050919050565b600061114c83836000611c839092919063ffffffff16565b905092915050565b61115c612acf565b61117283836000611cee9092919063ffffffff16565b905092915050565b6000611190826000611d9a90919063ffffffff16565b9050919050565b6000806111ae836000611daf90919063ffffffff16565b91509150915091565b60006111cf83836000611e479092919063ffffffff16565b905092915050565b60006111ef83836000611e829092919063ffffffff16565b905092915050565b600061120f83836000611eb79092919063ffffffff16565b905092915050565b6000806000606060008061122b6000611fcf565b955095509550955095509550909192939495565b6000611257838360006122d99092919063ffffffff16565b905092915050565b6000806000806000806000611272612af2565b60006112888a600061234790919063ffffffff16565b9850985098509850985098509850985098509193959799909294969850565b6112af612b16565b6112b960006126ce565b905090565b60006112d68383600061271d9092919063ffffffff16565b905092915050565b60006112f482600061275290919063ffffffff16565b9050919050565b60008073__TellorGettersLibrary__________________63912c0e65909185856040518463ffffffff167c0100000000000000000000000000000000000000000000000000000000028152600401808481526020018373ffffffffffffffffffffffffffffffffffffffff1673ffffffffffffffffffffffffffffffffffffffff1681526020018273ffffffffffffffffffffffffffffffffffffffff1673ffffffffffffffffffffffffffffffffffffffff168152602001935050505060206040518083038186803b1580156113d257600080fd5b505af41580156113e6573d6000803e3d6000fd5b505050506040513d60208110156113fc57600080fd5b8101908080519060200190929190505050905092915050565b60608060008060008061143287600061277290919063ffffffff16565b95509550955095509550955091939550919395565b60008061145460006129d1565b915091509091565b600082604a01600083815260200190815260200160002054905092915050565b611484612aac565b83605001600084815260200190815260200160002060090160008381526020019081526020016000206005806020026040519081016040528092919082600580156114e4576020028201915b8154815260200190600101908083116114d0575b505050505090509392505050565b600082604701600083815260200190815260200160002060009054906101000a900473ffffffffffffffffffffffffffffffffffffffff16905092915050565b6060816003018054600181600116156101000203166002900480601f0160208091040260200160405190810160405280929190818152602001828054600181600116156101000203166002900480156115cc5780601f106115a1576101008083540402835291602001916115cc565b820191906000526020600020905b8154815290600101906020018083116115af57829003601f168201915b50505050509050919050565b6060816002018054600181600116156101000203166002900480601f0160208091040260200160405190810160405280929190818152602001828054600181600116156101000203166002900480156116725780601f1061164757610100808354040283529160200191611672565b820191906000526020600020905b81548152906001019060200180831161165557829003601f168201915b50505050509050919050565b600081604801600060405180807f746f74616c5f737570706c790000000000000000000000000000000000000000815250600c01905060405180910390208152602001908152602001600020549050919050565b600080606083604801600060405180807f6f6e4465636b5265717565737449640000000000000000000000000000000000815250600f019050604051809103902081526020019081526020016000205484604801600060405180807f6f6e4465636b546f74616c546970730000000000000000000000000000000000815250600f019050604051809103902081526020019081526020016000205485605001600087604801600060405180807f6f6e4465636b5265717565737449640000000000000000000000000000000000815250600f01905060405180910390208152602001908152602001600020548152602001908152602001600020600001808054600181600116156101000203166002900480601f0160208091040260200160405190810160405280929190818152602001828054600181600116156101000203166002900480156118645780601f1061183957610100808354040283529160200191611864565b820191906000526020600020905b81548152906001019060200180831161184757829003601f168201915b505050505090509250925092509193909250565b600082605101600083815260200190815260200160002054905092915050565b6000836050016000848152602001908152602001600020600701600083815260200190815260200160002060009054906101000a900460ff1690509392505050565b600082605001600083815260200190815260200160002060030180549050905092915050565b60008084604d0160008573ffffffffffffffffffffffffffffffffffffffff1673ffffffffffffffffffffffffffffffffffffffff1681526020019081526020016000208054905014806119dd57508184604d0160008573ffffffffffffffffffffffffffffffffffffffff1673ffffffffffffffffffffffffffffffffffffffff168152602001908152602001600020600081548110151561199f57fe5b9060005260206000200160000160009054906101000a90046fffffffffffffffffffffffffffffffff166fffffffffffffffffffffffffffffffff16115b156119eb5760009050611c3c565b600084604d0160008573ffffffffffffffffffffffffffffffffffffffff1673ffffffffffffffffffffffffffffffffffffffff1681526020019081526020016000209050600081805490501415611a47576000915050611c3c565b806001828054905003815481101515611a5c57fe5b9060005260206000200160000160009054906101000a90046fffffffffffffffffffffffffffffffff166fffffffffffffffffffffffffffffffff1683101515611af957806001828054905003815481101515611ab557fe5b9060005260206000200160000160109054906101000a90046fffffffffffffffffffffffffffffffff166fffffffffffffffffffffffffffffffff16915050611c3c565b806000815481101515611b0857fe5b9060005260206000200160000160009054906101000a90046fffffffffffffffffffffffffffffffff166fffffffffffffffffffffffffffffffff16831015611b55576000915050611c3c565b60008090506000600183805490500390505b81811115611bec5760006002600184840101811515611b8257fe5b049050858482815481101515611b9457fe5b9060005260206000200160000160009054906101000a90046fffffffffffffffffffffffffffffffff166fffffffffffffffffffffffffffffffff16111515611bdf57809250611be6565b6001810391505b50611b67565b8282815481101515611bfa57fe5b9060005260206000200160000160109054906101000a90046fffffffffffffffffffffffffffffffff166fffffffffffffffffffffffffffffffff1693505050505b9392505050565b600082604801600083815260200190815260200160002054905092915050565b600082604b01600083815260200190815260200160002054905092915050565b600083604901600084815260200190815260200160002060008373ffffffffffffffffffffffffffffffffffffffff1673ffffffffffffffffffffffffffffffffffffffff16815260200190815260200160002060009054906101000a900460ff1690509392505050565b611cf6612acf565b8360500160008481526020019081526020016000206008016000838152602001908152602001600020600580602002604051908101604052809291908260058015611d8c576020028201915b8160009054906101000a900473ffffffffffffffffffffffffffffffffffffffff1673ffffffffffffffffffffffffffffffffffffffff1681526020019060010190808311611d42575b505050505090509392505050565b6000611da7838343611900565b905092915050565b60008083604f0160008473ffffffffffffffffffffffffffffffffffffffff1673ffffffffffffffffffffffffffffffffffffffff1681526020019081526020016000206000015484604f0160008573ffffffffffffffffffffffffffffffffffffffff1673ffffffffffffffffffffffffffffffffffffffff16815260200190815260200160002060010154915091509250929050565b600083605001600084815260200190815260200160002060030182815481101515611e6e57fe5b906000526020600020015490509392505050565b600083605001600084815260200190815260200160002060060160008381526020019081526020016000205490509392505050565b60008084604f0160008573ffffffffffffffffffffffffffffffffffffffff1673ffffffffffffffffffffffffffffffffffffffff168152602001908152602001600020600001541115611f94576000611f7f83611f7187604801600060405180807f7374616b65416d6f756e74000000000000000000000000000000000000000000815250600b0190506040518091039020815260200190815260200160002054611f638989611d9a565b612a9390919063ffffffff16565b612a9390919063ffffffff16565b101515611f8f5760019050611fc8565b611fc3565b6000611fb283611fa48787611d9a565b612a9390919063ffffffff16565b101515611fc25760019050611fc8565b5b600090505b9392505050565b60008060006060600080866000015487604801600060405180807f63757272656e74526571756573744964000000000000000000000000000000008152506010019050604051809103902081526020019081526020016000205488604801600060405180807f646966666963756c747900000000000000000000000000000000000000000000815250600a01905060405180910390208152602001908152602001600020548960500160008b604801600060405180807f63757272656e74526571756573744964000000000000000000000000000000008152506010019050604051809103902081526020019081526020016000205481526020019081526020016000206000018a60500160008c604801600060405180807f63757272656e7452657175657374496400000000000000000000000000000000815250601001905060405180910390208152602001908152602001600020548152602001908152602001600020600401600060405180807f6772616e756c6172697479000000000000000000000000000000000000000000815250600b01905060405180910390208152602001908152602001600020548b60500160008d604801600060405180807f63757272656e7452657175657374496400000000000000000000000000000000815250601001905060405180910390208152602001908152602001600020548152602001908152602001600020600401600060405180807f746f74616c54697000000000000000000000000000000000000000000000000081525060080190506040518091039020815260200190815260200160002054828054600181600116156101000203166002900480601f0160208091040260200160405190810160405280929190818152602001828054600181600116156101000203166002900480156122bd5780601f10612292576101008083540402835291602001916122bd565b820191906000526020600020905b8154815290600101906020018083116122a057829003601f168201915b5050505050925095509550955095509550955091939550919395565b600083604c01600084815260200190815260200160002060060160008373ffffffffffffffffffffffffffffffffffffffff1673ffffffffffffffffffffffffffffffffffffffff16815260200190815260200160002060009054906101000a900460ff1690509392505050565b600080600080600080600061235a612af2565b6000808b604c0160008c8152602001908152602001600020905080600001548160020160009054906101000a900460ff168260020160019054906101000a900460ff168360020160029054906101000a900460ff168460020160039054906101000a900473ffffffffffffffffffffffffffffffffffffffff168560030160009054906101000a900473ffffffffffffffffffffffffffffffffffffffff168660040160009054906101000a900473ffffffffffffffffffffffffffffffffffffffff166101006040519081016040528089600501600060405180807f726571756573744964000000000000000000000000000000000000000000000081525060090190506040518091039020815260200190815260200160002054815260200189600501600060405180807f74696d657374616d70000000000000000000000000000000000000000000000081525060090190506040518091039020815260200190815260200160002054815260200189600501600060405180807f76616c756500000000000000000000000000000000000000000000000000000081525060050190506040518091039020815260200190815260200160002054815260200189600501600060405180807f6d696e457865637574696f6e446174650000000000000000000000000000000081525060100190506040518091039020815260200190815260200160002054815260200189600501600060405180807f6e756d6265724f66566f74657300000000000000000000000000000000000000815250600d0190506040518091039020815260200190815260200160002054815260200189600501600060405180807f626c6f636b4e756d626572000000000000000000000000000000000000000000815250600b0190506040518091039020815260200190815260200160002054815260200189600501600060405180807f6d696e6572536c6f74000000000000000000000000000000000000000000000081525060090190506040518091039020815260200190815260200160002054815260200189600501600060405180807f71756f72756d0000000000000000000000000000000000000000000000000000815250600601905060405180910390208152602001908152602001600020548152508860010154995099509950995099509950995099509950509295985092959850929598565b6126d6612b16565b81600901603380602002604051908101604052809291908260338015612711576020028201915b8154815260200190600101908083116126fd575b50505050509050919050565b600083605001600084815260200190815260200160002060050160008381526020019081526020016000205490509392505050565b600082605201600083815260200190815260200160002054905092915050565b606080600080600080600088605001600089815260200190815260200160002090508060000181600101826002015483600401600060405180807f6772616e756c6172697479000000000000000000000000000000000000000000815250600b019050604051809103902081526020019081526020016000205484600401600060405180807f7265717565737451506f736974696f6e000000000000000000000000000000008152506010019050604051809103902081526020019081526020016000205485600401600060405180807f746f74616c54697000000000000000000000000000000000000000000000000081525060080190506040518091039020815260200190815260200160002054858054600181600116156101000203166002900480601f0160208091040260200160405190810160405280929190818152602001828054600181600116156101000203166002900480156129175780601f106128ec57610100808354040283529160200191612917565b820191906000526020600020905b8154815290600101906020018083116128fa57829003601f168201915b50505050509550848054600181600116156101000203166002900480601f0160208091040260200160405190810160405280929190818152602001828054600181600116156101000203166002900480156129b35780601f10612988576101008083540402835291602001916129b3565b820191906000526020600020905b81548152906001019060200180831161299657829003601f168201915b50505050509450965096509650965096509650509295509295509295565b600080612a888384604a01600086604801600060405180807f74696d654f664c6173744e657756616c756500000000000000000000000000008152506012019050604051809103902081526020019081526020016000205481526020019081526020016000205485604801600060405180807f74696d654f664c6173744e657756616c7565000000000000000000000000000081525060120190506040518091039020815260200190815260200160002054611e82565b600191509150915091565b6000828211151515612aa157fe5b818303905092915050565b60a060405190810160405280600590602082028038833980820191505090505090565b60a060405190810160405280600590602082028038833980820191505090505090565b61010060405190810160405280600890602082028038833980820191505090505090565b61066060405190810160405280603390602082028038833980820191505090505090565b3382604701600060405180807f5f6f776e6572000000000000000000000000000000000000000000000000000081525060060190506040518091039020815260200190815260200160002060006101000a81548173ffffffffffffffffffffffffffffffffffffffff021916908373ffffffffffffffffffffffffffffffffffffffff1602179055508082604701600060405180807f74656c6c6f72436f6e7472616374000000000000000000000000000000000000815250600e0190506040518091039020815260200190815260200160002060006101000a81548173ffffffffffffffffffffffffffffffffffffffff021916908373ffffffffffffffffffffffffffffffffffffffff1602179055507fc2d1449eb0b6547aa426e09d9942a77fa4fc8cd3296305b3163e22452e0bcb8d81604051808273ffffffffffffffffffffffffffffffffffffffff1673ffffffffffffffffffffffffffffffffffffffff16815260200191505060405180910390a1505056fea165627a7a723058208b4ccbd4ecd0760354126919f58b7f9cd5455243499a06a66ed6abdfc26842300029",
  "source": "pragma solidity ^0.5.0;\n\nimport \"./TellorGetters.sol\";\nimport \"./libraries/TellorLibrary.sol\";\nimport \"./libraries/TellorGettersLibrary.sol\";\n\ncontract TellorMaster is TellorGetters{\n    /**\n    * @dev The constructor sets the original `tellorStorageOwner` of the contract to the sender\n    * account.\n    */\n    constructor (address _tellorContract)  public{\n        tellor.tellorMasterConstructor(_tellorContract);\n    }\n\n\n    /**\n    @dev this fuction allows for delegate calls to the Tellor contract.???\n    */\n    function () external payable {\n        address addr = tellor.addressVars[keccak256(\"tellorContract\")];\n        bytes memory _calldata = msg.data;\n        assembly {\n            let result := delegatecall(not(0), addr, add(_calldata, 0x20), mload(_calldata), 0, 0)\n            let size := returndatasize\n            let ptr := mload(0x40)\n            returndatacopy(ptr, 0, size)\n            // revert instead of invalid() bc if the underlying call failed with invalid() it already wasted gas.\n            // if the call returned error data, forward it\n            switch result case 0 { revert(ptr, size) }\n            default { return(ptr, size) }\n        }\n    }\n\n}\n\n\n        // Test this one:\n        //     let result := delegatecall(not(0), addr, add(_calldata, 0x20), mload(_calldata), 0, 0)\n        //     let size := returndatasize\n        //     let ptr := mload(0x40)\n        //     returndatacopy(ptr, 0, size)\n\n        //     // revert instead of invalid() bc if the underlying call failed with invalid() it already wasted gas.\n        //     // if the call returned error data, forward it\n        //     switch result case 0 { revert(ptr, size) }\n        //     default { return(ptr, size) }\n\n\n        //     vs old:\n\n        //                 let freememstart := mload(0x40)\n        //     calldatacopy(freememstart, 0, calldatasize())\n        //     let success := delegatecall(not(0), addr, freememstart, calldatasize(), freememstart, 32)\n        //     switch success\n        //     case 0 { revert(freememstart, 32) }\n        //     default { return(freememstart, 32) }",
  "sourcePath": "/Users/mdcoon/git/TellorCore/contracts/TellorMaster.sol",
  "compiler": {
    "name": "solc",
    "version": "0.5.0+commit.1d4f565a.Emscripten.clang"
  },
  "schemaVersion": "3.0.6",
  "updatedAt": "2019-04-30T10:31:54.683Z",
  "devdoc": {
    "methods": {
      "allowance(address,address)": {
        "params": {
          "_spender": "address",
          "_user": "address"
        },
        "return": "Returns the remaining allowance of tokens granted to the _spender from the _user"
      },
      "allowedToTrade(address,uint256)": {
        "details": "This function returns whether or not a given user is allowed to trade a given amount  ",
        "params": {
          "_amount": "uint of amount",
          "_user": "address"
        },
        "return": "true if the user is alloed to trade the amount specified"
      },
      "balanceOf(address)": {
        "details": "Gets balance of owner specified",
        "params": {
          "_user": "is the owner address used to look up the balance"
        },
        "return": "Returns the balance associated with the passed in _user"
      },
      "balanceOfAt(address,uint256)": {
        "details": "Queries the balance of _user at a specific _blockNumber",
        "params": {
          "_blockNumber": "The block number when the balance is queried",
          "_user": "The address from which the balance will be retrieved"
        },
        "return": "The balance at _blockNumber"
      },
      "constructor": {
        "details": "The constructor sets the original `tellorStorageOwner` of the contract to the sender account."
      },
      "didMine(bytes32,address)": {
        "details": "This function tells you if a given challenge has been completed by a given miner",
        "params": {
          "_challenge": "the challenge to search for",
          "_miner": "address that you want to know if they solved the challenge"
        },
        "return": "true if the _miner address provided solved the "
      },
      "didVote(uint256,address)": {
        "details": "Checks if an address voted in a dispute",
        "params": {
          "_address": "to look up",
          "_disputeId": "to look up"
        },
        "return": "bool of whether or not party voted"
      },
      "getAddressVars(bytes32)": {
        "details": "allows Tellor to read data from the addressVars mapping",
        "params": {
          "_data": "is the keccak256(\"variable_name\") of the variable that is being accessed.  These are examples of how the variables are saved within other functions: addressVars[keccak256(\"_owner\")] addressVars[keccak256(\"tellorContract\")]*"
        }
      },
      "getAllDisputeVars(uint256)": {
        "details": "Gets all dispute variables",
        "params": {
          "_disputeId": "to look up"
        },
        "return": "address of reported mineraddress of reporting partydisputed apiIddisputed minimum execution dateuint number of votesuint blockNumber of voteuint index in disputeId arrayint count of the current tallybool of whether vote has been tallied"
      },
      "getCurrentVariables()": {
        "details": "Getter function for variables for the requestId being currently mined(currentRequestId)",
        "return": "current challenge, curretnRequestId, level of difficulty, api/query string, and granularity(number of decimals requested), , total tip for the request "
      },
      "getDisputeIdByDisputeHash(bytes32)": {
        "details": "Checks if a given hash of miner,requestId has been disputed",
        "params": {
          "_hash": "is the sha256(abi.encodePacked(_miners[2],_requestId));"
        },
        "return": "uint disputeId"
      },
      "getLastNewValue()": {
        "details": "Gets the a value for the latest timestamp available",
        "return": "value for timestamp of last proof of work submited"
      },
      "getMinedBlockNum(uint256,uint256)": {
        "details": "Gets blocknumber for mined timestamp ",
        "params": {
          "_requestId": "to look up",
          "_timestamp": "is the timestamp to look up blocknumber"
        },
        "return": "uint of the blocknumber which the dispute was mined"
      },
      "getMinersByRequestIdAndTimestamp(uint256,uint256)": {
        "details": "Gets the 5 miners who mined the value for the specified requestId/_timestamp ",
        "params": {
          "_requestId": "to look up",
          "_timestamp": "is the timestamp to look up miners for"
        },
        "return": "the 5 miners' addresses"
      },
      "getName()": {
        "details": "Get the name of the token return string of the token name"
      },
      "getNewValueCountbyRequestId(uint256)": {
        "details": "Counts the number of values that have been submited for the request  if called for the currentRequest being mined it can tell you how many miners have submitted a value for that request so far",
        "params": {
          "_requestId": "the requestId to look up"
        },
        "return": "uint count of the number of values received for the requestId"
      },
      "getRequestIdByQueryHash(bytes32)": {
        "details": "Getter function for requestId based on the queryHash",
        "params": {
          "_request": "is the hash(of string api and granularity) to check if a request already exists"
        },
        "return": "uint requestId"
      },
      "getRequestIdByRequestQIndex(uint256)": {
        "details": "Getter function for the specified requestQ index",
        "params": {
          "_index": "to look up in the requestQ array"
        },
        "return": "uint of reqeuestId"
      },
      "getRequestIdByTimestamp(uint256)": {
        "details": "Getter function for requestId based on timestamp ",
        "params": {
          "_timestamp": "to check requestId"
        },
        "return": "uint of reqeuestId"
      },
      "getRequestQ()": {
        "details": "Getter function for the requestQ array",
        "return": "the requestQ arrray"
      },
      "getRequestVars(uint256)": {
        "details": "Gets the API struct variables that are not mappings",
        "params": {
          "_requestId": "to look up"
        },
        "return": "string of api to querystring of symbol of api to querybytes32 hash of stringbytes32 of the granularity(decimal places) requesteduint of index in requestQ arrayuint of current payout/tip for this requestId"
      },
      "getStakerInfo(address)": {
        "details": "This function allows users to retireve all information about a staker",
        "params": {
          "_staker": "address of staker inquiring about"
        },
        "return": "uint current state of stakeruint startDate of staking"
      },
      "getSubmissionsByTimestamp(uint256,uint256)": {
        "details": "Gets the 5 miners who mined the value for the specified requestId/_timestamp ",
        "params": {
          "_requestId": "to look up",
          "_timestamp": "is the timestampt to look up miners for"
        },
        "return": "address[5] array of 5 addresses ofminers that mined the requestId"
      },
      "getSymbol()": {
        "details": "Get the symbol of the token return string of the token symbol"
      },
      "getTimestampbyRequestIDandIndex(uint256,uint256)": {
        "details": "Gets the timestamp for the value based on their index",
        "params": {
          "_index": "is the value index to look up",
          "_requestID": "is the requestId to look up"
        },
        "return": "uint timestamp"
      },
      "getUintVar(bytes32)": {
        "details": "Getter for the variables saved under the TellorStorageStruct uintVars variable",
        "params": {
          "_data": "the variable to pull from the mapping. _data = keccak256(\"variable_name\") where variable_name is  the variables/strings used to save the data in the mapping. The variables names are   commented out under the uintVars under the TellorStorageStruct struct This is an example of how data is saved into the mapping within other functions:  self.uintVars[keccak256(\"stakerCount\")]"
        },
        "return": "uint of specified variable  "
      },
      "getVariablesOnDeck()": {
        "details": "Getter function for next requestId on queue",
        "return": "onDeckRequestId, onDeckTotaltips, , and API query string"
      },
      "isInDispute(uint256,uint256)": {
        "details": "Gets the 5 miners who mined the value for the specified requestId/_timestamp ",
        "params": {
          "_requestId": "to look up",
          "_timestamp": "is the timestamp to look up miners for"
        },
        "return": "bool true if requestId/timestamp is under dispute"
      },
      "retrieveData(uint256,uint256)": {
        "details": "Retreive value from oracle based on timestamp",
        "params": {
          "_requestId": "being requested",
          "_timestamp": "to retreive data/value from"
        },
        "return": "value for timestamp submitted"
      },
      "totalSupply()": {
        "details": "Getter for the total_supply of oracle tokens",
        "return": "uint total supply"
      }
    }
  },
  "userdoc": {
    "methods": {}
  }
}