{
  "contractName": "TellorMaster",
  "abi": [
    {
      "constant": true,
      "inputs": [],
      "name": "getPayoutPool",
      "outputs": [
        {
          "name": "",
          "type": "uint256[51]"
        }
      ],
      "payable": false,
      "stateMutability": "view",
      "type": "function",
      "signature": "0x10c55725"
    },
    {
      "constant": true,
      "inputs": [
        {
          "name": "_apiId",
          "type": "uint256"
        },
        {
          "name": "_timestamp",
          "type": "uint256"
        }
      ],
      "name": "getSubmissionsByTimestamp",
      "outputs": [
        {
          "name": "",
          "type": "uint256[5]"
        }
      ],
      "payable": false,
      "stateMutability": "view",
      "type": "function",
      "signature": "0x11c98512"
    },
    {
      "constant": true,
      "inputs": [
        {
          "name": "_data",
          "type": "bytes32"
        }
      ],
      "name": "getAddressVars",
      "outputs": [
        {
          "name": "",
          "type": "address"
        }
      ],
      "payable": false,
      "stateMutability": "view",
      "type": "function",
      "signature": "0x133bee5e"
    },
    {
      "constant": true,
      "inputs": [],
      "name": "totalSupply",
      "outputs": [
        {
          "name": "",
          "type": "uint256"
        }
      ],
      "payable": false,
      "stateMutability": "view",
      "type": "function",
      "signature": "0x18160ddd"
    },
    {
      "constant": true,
      "inputs": [
        {
          "name": "_apiId",
          "type": "uint256"
        },
        {
          "name": "_timestamp",
          "type": "uint256"
        }
      ],
      "name": "getMinersByValue",
      "outputs": [
        {
          "name": "",
          "type": "address[5]"
        }
      ],
      "payable": false,
      "stateMutability": "view",
      "type": "function",
      "signature": "0x36b040e1"
    },
    {
      "constant": true,
      "inputs": [
        {
          "name": "_apiId",
          "type": "uint256"
        },
        {
          "name": "_timestamp",
          "type": "uint256"
        }
      ],
      "name": "isInDispute",
      "outputs": [
        {
          "name": "",
          "type": "bool"
        }
      ],
      "payable": false,
      "stateMutability": "view",
      "type": "function",
      "signature": "0x3df0777b"
    },
    {
      "constant": true,
      "inputs": [
        {
          "name": "_user",
          "type": "address"
        },
        {
          "name": "_blockNumber",
          "type": "uint256"
        }
      ],
      "name": "balanceOfAt",
      "outputs": [
        {
          "name": "",
          "type": "uint256"
        }
      ],
      "payable": false,
      "stateMutability": "view",
      "type": "function",
      "signature": "0x4ee2cd7e"
    },
    {
      "constant": true,
      "inputs": [],
      "name": "getVariablesOnQ",
      "outputs": [
        {
          "name": "",
          "type": "uint256"
        },
        {
          "name": "",
          "type": "uint256"
        },
        {
          "name": "",
          "type": "string"
        }
      ],
      "payable": false,
      "stateMutability": "view",
      "type": "function",
      "signature": "0x60ab8154"
    },
    {
      "constant": true,
      "inputs": [
        {
          "name": "_data",
          "type": "bytes32"
        }
      ],
      "name": "getUintVar",
      "outputs": [
        {
          "name": "",
          "type": "uint256"
        }
      ],
      "payable": false,
      "stateMutability": "view",
      "type": "function",
      "signature": "0x612c8f7f"
    },
    {
      "constant": true,
      "inputs": [
        {
          "name": "_challenge",
          "type": "bytes32"
        },
        {
          "name": "_miner",
          "type": "address"
        }
      ],
      "name": "didMine",
      "outputs": [
        {
          "name": "",
          "type": "bool"
        }
      ],
      "payable": false,
      "stateMutability": "view",
      "type": "function",
      "signature": "0x63bb82ad"
    },
    {
      "constant": true,
      "inputs": [
        {
          "name": "_apiId",
          "type": "uint256"
        }
      ],
      "name": "getApiVars",
      "outputs": [
        {
          "name": "",
          "type": "string"
        },
        {
          "name": "",
          "type": "string"
        },
        {
          "name": "",
          "type": "bytes32"
        },
        {
          "name": "",
          "type": "uint256"
        },
        {
          "name": "",
          "type": "uint256"
        },
        {
          "name": "",
          "type": "uint256"
        }
      ],
      "payable": false,
      "stateMutability": "view",
      "type": "function",
      "signature": "0x6e9fb31d"
    },
    {
      "constant": true,
      "inputs": [
        {
          "name": "_user",
          "type": "address"
        }
      ],
      "name": "balanceOf",
      "outputs": [
        {
          "name": "bal",
          "type": "uint256"
        }
      ],
      "payable": false,
      "stateMutability": "view",
      "type": "function",
      "signature": "0x70a08231"
    },
    {
      "constant": true,
      "inputs": [
        {
          "name": "_staker",
          "type": "address"
        }
      ],
      "name": "getStakerInfo",
      "outputs": [
        {
          "name": "",
          "type": "uint256"
        },
        {
          "name": "",
          "type": "uint256"
        }
      ],
      "payable": false,
      "stateMutability": "view",
      "type": "function",
      "signature": "0x733bdef0"
    },
    {
      "constant": true,
      "inputs": [
        {
          "name": "_timestamp",
          "type": "uint256"
        }
      ],
      "name": "getApiForTime",
      "outputs": [
        {
          "name": "",
          "type": "uint256"
        }
      ],
      "payable": false,
      "stateMutability": "view",
      "type": "function",
      "signature": "0x73645f37"
    },
    {
      "constant": true,
      "inputs": [
        {
          "name": "_hash",
          "type": "bytes32"
        }
      ],
      "name": "getDisputeHashToId",
      "outputs": [
        {
          "name": "",
          "type": "uint256"
        }
      ],
      "payable": false,
      "stateMutability": "view",
      "type": "function",
      "signature": "0x798782d7"
    },
    {
      "constant": true,
      "inputs": [
        {
          "name": "_payoutPoolIndexToApiId",
          "type": "uint256"
        }
      ],
      "name": "getpayoutPoolIndexToApiId",
      "outputs": [
        {
          "name": "",
          "type": "uint256"
        }
      ],
      "payable": false,
      "stateMutability": "view",
      "type": "function",
      "signature": "0x9110a51d"
    },
    {
      "constant": true,
      "inputs": [
        {
          "name": "_apiId",
          "type": "uint256"
        },
        {
          "name": "_timestamp",
          "type": "uint256"
        }
      ],
      "name": "retrieveData",
      "outputs": [
        {
          "name": "",
          "type": "uint256"
        }
      ],
      "payable": false,
      "stateMutability": "view",
      "type": "function",
      "signature": "0x93fa4915"
    },
    {
      "constant": true,
      "inputs": [],
      "name": "getVariables",
      "outputs": [
        {
          "name": "",
          "type": "bytes32"
        },
        {
          "name": "",
          "type": "uint256"
        },
        {
          "name": "",
          "type": "uint256"
        },
        {
          "name": "",
          "type": "string"
        },
        {
          "name": "",
          "type": "uint256"
        }
      ],
      "payable": false,
      "stateMutability": "view",
      "type": "function",
      "signature": "0x94aef022"
    },
    {
      "constant": true,
      "inputs": [
        {
          "name": "_user",
          "type": "address"
        },
        {
          "name": "_amount",
          "type": "uint256"
        }
      ],
      "name": "allowedToTrade",
      "outputs": [
        {
          "name": "",
          "type": "bool"
        }
      ],
      "payable": false,
      "stateMutability": "view",
      "type": "function",
      "signature": "0x999cf26c"
    },
    {
      "constant": true,
      "inputs": [
        {
          "name": "_api",
          "type": "bytes32"
        }
      ],
      "name": "getApiId",
      "outputs": [
        {
          "name": "",
          "type": "uint256"
        }
      ],
      "payable": false,
      "stateMutability": "view",
      "type": "function",
      "signature": "0xa0590fe1"
    },
    {
      "constant": true,
      "inputs": [
        {
          "name": "_disputeId",
          "type": "uint256"
        },
        {
          "name": "_address",
          "type": "address"
        }
      ],
      "name": "didVote",
      "outputs": [
        {
          "name": "",
          "type": "bool"
        }
      ],
      "payable": false,
      "stateMutability": "view",
      "type": "function",
      "signature": "0xa7c438bc"
    },
    {
      "constant": true,
      "inputs": [
        {
          "name": "_disputeId",
          "type": "uint256"
        }
      ],
      "name": "getAllDisputeVars",
      "outputs": [
        {
          "name": "",
          "type": "bytes32"
        },
        {
          "name": "",
          "type": "bool"
        },
        {
          "name": "",
          "type": "bool"
        },
        {
          "name": "",
          "type": "bool"
        },
        {
          "name": "",
          "type": "address"
        },
        {
          "name": "",
          "type": "address"
        },
        {
          "name": "",
          "type": "address"
        },
        {
          "name": "",
          "type": "uint256[8]"
        },
        {
          "name": "",
          "type": "int256"
        }
      ],
      "payable": false,
      "stateMutability": "view",
      "type": "function",
      "signature": "0xaf0b1327"
    },
    {
      "constant": true,
      "inputs": [
        {
          "name": "_apiId",
          "type": "uint256"
        },
        {
          "name": "_timestamp",
          "type": "uint256"
        }
      ],
      "name": "getMinedBlockNum",
      "outputs": [
        {
          "name": "",
          "type": "uint256"
        }
      ],
      "payable": false,
      "stateMutability": "view",
      "type": "function",
      "signature": "0xc775b542"
    },
    {
      "constant": true,
      "inputs": [
        {
          "name": "_user",
          "type": "address"
        },
        {
          "name": "_spender",
          "type": "address"
        }
      ],
      "name": "allowance",
      "outputs": [
        {
          "name": "",
          "type": "uint256"
        }
      ],
      "payable": false,
      "stateMutability": "view",
      "type": "function",
      "signature": "0xdd62ed3e"
    },
    {
      "constant": true,
      "inputs": [],
      "name": "getLastQuery",
      "outputs": [
        {
          "name": "",
          "type": "uint256"
        },
        {
          "name": "",
          "type": "bool"
        }
      ],
      "payable": false,
      "stateMutability": "view",
      "type": "function",
      "signature": "0xdfba5095"
    },
    {
      "inputs": [
        {
          "name": "_tellorContract",
          "type": "address"
        }
      ],
      "payable": false,
      "stateMutability": "nonpayable",
      "type": "constructor",
      "signature": "constructor"
    },
    {
      "payable": true,
      "stateMutability": "payable",
      "type": "fallback"
    }
  ],
  "bytecode": "0x60806040523480156200001157600080fd5b50604051602080620029d3833981018060405260208110156200003357600080fd5b8101908080519060200190929190505050620000688160006200006f6401000000000262002636179091906401000000009004565b50620001e8565b3382600001600060405180807f5f6f776e6572000000000000000000000000000000000000000000000000000081525060060190506040518091039020815260200190815260200160002060006101000a81548173ffffffffffffffffffffffffffffffffffffffff021916908373ffffffffffffffffffffffffffffffffffffffff1602179055508082600001600060405180807f74656c6c6f72436f6e7472616374000000000000000000000000000000000000815250600e0190506040518091039020815260200190815260200160002060006101000a81548173ffffffffffffffffffffffffffffffffffffffff021916908373ffffffffffffffffffffffffffffffffffffffff1602179055507fc2d1449eb0b6547aa426e09d9942a77fa4fc8cd3296305b3163e22452e0bcb8d81604051808273ffffffffffffffffffffffffffffffffffffffff1673ffffffffffffffffffffffffffffffffffffffff16815260200191505060405180910390a15050565b6127db80620001f86000396000f3fe608060405260043610610149576000357c0100000000000000000000000000000000000000000000000000000000900463ffffffff16806310c55725146101dd57806311c9851214610230578063133bee5e146102b157806318160ddd1461032c57806336b040e1146103575780633df0777b146103d85780634ee2cd7e1461043557806360ab8154146104a4578063612c8f7f1461054257806363bb82ad146105915780636e9fb31d1461060457806370a0823114610740578063733bdef0146107a557806373645f3714610811578063798782d7146108605780639110a51d146108af57806393fa4915146108fe57806394aef02214610957578063999cf26c14610a03578063a0590fe114610a76578063a7c438bc14610ac5578063af0b132714610b38578063c775b54214610c77578063dd62ed3e14610cd0578063dfba509514610d55575b600080600001600060405180807f74656c6c6f72436f6e7472616374000000000000000000000000000000000000815250600e0190506040518091039020815260200190815260200160002060009054906101000a900473ffffffffffffffffffffffffffffffffffffffff1690506040513660008237602081368385600019f480600081146101d857602083f35b602083fd5b3480156101e957600080fd5b506101f2610d8b565b6040518082603360200280838360005b8381101561021d578082015181840152602081019050610202565b5050505090500191505060405180910390f35b34801561023c57600080fd5b506102736004803603604081101561025357600080fd5b810190808035906020019092919080359060200190929190505050610da2565b6040518082600560200280838360005b8381101561029e578082015181840152602081019050610283565b5050505090500191505060405180910390f35b3480156102bd57600080fd5b506102ea600480360360208110156102d457600080fd5b8101908080359060200190929190505050610dc8565b604051808273ffffffffffffffffffffffffffffffffffffffff1673ffffffffffffffffffffffffffffffffffffffff16815260200191505060405180910390f35b34801561033857600080fd5b50610341610de5565b6040518082815260200191505060405180910390f35b34801561036357600080fd5b5061039a6004803603604081101561037a57600080fd5b810190808035906020019092919080359060200190929190505050610df6565b6040518082600560200280838360005b838110156103c55780820151818401526020810190506103aa565b5050505090500191505060405180910390f35b3480156103e457600080fd5b5061041b600480360360408110156103fb57600080fd5b810190808035906020019092919080359060200190929190505050610e1c565b604051808215151515815260200191505060405180910390f35b34801561044157600080fd5b5061048e6004803603604081101561045857600080fd5b81019080803573ffffffffffffffffffffffffffffffffffffffff16906020019092919080359060200190929190505050610e3c565b6040518082815260200191505060405180910390f35b3480156104b057600080fd5b506104b9610e5c565b6040518084815260200183815260200180602001828103825283818151815260200191508051906020019080838360005b838110156105055780820151818401526020810190506104ea565b50505050905090810190601f1680156105325780820380516001836020036101000a031916815260200191505b5094505050505060405180910390f35b34801561054e57600080fd5b5061057b6004803603602081101561056557600080fd5b8101908080359060200190929190505050610e76565b6040518082815260200191505060405180910390f35b34801561059d57600080fd5b506105ea600480360360408110156105b457600080fd5b8101908080359060200190929190803573ffffffffffffffffffffffffffffffffffffffff169060200190929190505050610e93565b604051808215151515815260200191505060405180910390f35b34801561061057600080fd5b5061063d6004803603602081101561062757600080fd5b8101908080359060200190929190505050610eb3565b604051808060200180602001878152602001868152602001858152602001848152602001838103835289818151815260200191508051906020019080838360005b8381101561069957808201518184015260208101905061067e565b50505050905090810190601f1680156106c65780820380516001836020036101000a031916815260200191505b50838103825288818151815260200191508051906020019080838360005b838110156106ff5780820151818401526020810190506106e4565b50505050905090810190601f16801561072c5780820380516001836020036101000a031916815260200191505b509850505050505050505060405180910390f35b34801561074c57600080fd5b5061078f6004803603602081101561076357600080fd5b81019080803573ffffffffffffffffffffffffffffffffffffffff169060200190929190505050610ee5565b6040518082815260200191505060405180910390f35b3480156107b157600080fd5b506107f4600480360360208110156107c857600080fd5b81019080803573ffffffffffffffffffffffffffffffffffffffff169060200190929190505050610f02565b604051808381526020018281526020019250505060405180910390f35b34801561081d57600080fd5b5061084a6004803603602081101561083457600080fd5b8101908080359060200190929190505050610f22565b6040518082815260200191505060405180910390f35b34801561086c57600080fd5b506108996004803603602081101561088357600080fd5b8101908080359060200190929190505050610f3f565b6040518082815260200191505060405180910390f35b3480156108bb57600080fd5b506108e8600480360360208110156108d257600080fd5b8101908080359060200190929190505050610f5c565b6040518082815260200191505060405180910390f35b34801561090a57600080fd5b506109416004803603604081101561092157600080fd5b810190808035906020019092919080359060200190929190505050610f79565b6040518082815260200191505060405180910390f35b34801561096357600080fd5b5061096c610f99565b6040518086815260200185815260200184815260200180602001838152602001828103825284818151815260200191508051906020019080838360005b838110156109c45780820151818401526020810190506109a9565b50505050905090810190601f1680156109f15780820380516001836020036101000a031916815260200191505b50965050505050505060405180910390f35b348015610a0f57600080fd5b50610a5c60048036036040811015610a2657600080fd5b81019080803573ffffffffffffffffffffffffffffffffffffffff16906020019092919080359060200190929190505050610fbd565b604051808215151515815260200191505060405180910390f35b348015610a8257600080fd5b50610aaf60048036036020811015610a9957600080fd5b8101908080359060200190929190505050610fdd565b6040518082815260200191505060405180910390f35b348015610ad157600080fd5b50610b1e60048036036040811015610ae857600080fd5b8101908080359060200190929190803573ffffffffffffffffffffffffffffffffffffffff169060200190929190505050610ffa565b604051808215151515815260200191505060405180910390f35b348015610b4457600080fd5b50610b7160048036036020811015610b5b57600080fd5b810190808035906020019092919050505061101a565b604051808a81526020018915151515815260200188151515158152602001871515151581526020018673ffffffffffffffffffffffffffffffffffffffff1673ffffffffffffffffffffffffffffffffffffffff1681526020018573ffffffffffffffffffffffffffffffffffffffff1673ffffffffffffffffffffffffffffffffffffffff1681526020018473ffffffffffffffffffffffffffffffffffffffff1673ffffffffffffffffffffffffffffffffffffffff16815260200183600860200280838360005b83811015610c56578082015181840152602081019050610c3b565b50505050905001828152602001995050505050505050505060405180910390f35b348015610c8357600080fd5b50610cba60048036036040811015610c9a57600080fd5b810190808035906020019092919080359060200190929190505050611062565b6040518082815260200191505060405180910390f35b348015610cdc57600080fd5b50610d3f60048036036040811015610cf357600080fd5b81019080803573ffffffffffffffffffffffffffffffffffffffff169060200190929190803573ffffffffffffffffffffffffffffffffffffffff169060200190929190505050611082565b6040518082815260200191505060405180910390f35b348015610d6157600080fd5b50610d6a61119c565b60405180838152602001821515151581526020019250505060405180910390f35b610d936125a8565b610d9d60006111b1565b905090565b610daa6125cc565b610dc0838360006112009092919063ffffffff16565b905092915050565b6000610dde82600061127690919063ffffffff16565b9050919050565b6000610df160006112b6565b905090565b610dfe6125ef565b610e148383600061130a9092919063ffffffff16565b905092915050565b6000610e34838360006113b69092919063ffffffff16565b905092915050565b6000610e54838360006113f89092919063ffffffff16565b905092915050565b6000806060610e6b600061173b565b925092509250909192565b6000610e8c8260006118e190919063ffffffff16565b9050919050565b6000610eab838360006119019092919063ffffffff16565b905092915050565b606080600080600080610ed087600061196c90919063ffffffff16565b95509550955095509550955091939550919395565b6000610efb826000611bcb90919063ffffffff16565b9050919050565b600080610f19836000611be090919063ffffffff16565b91509150915091565b6000610f38826000611c7890919063ffffffff16565b9050919050565b6000610f55826000611c9890919063ffffffff16565b9050919050565b6000610f72826000611cb890919063ffffffff16565b9050919050565b6000610f9183836000611cd89092919063ffffffff16565b905092915050565b600080600060606000610fac6000611d0d565b945094509450945094509091929394565b6000610fd583836000611f6b9092919063ffffffff16565b905092915050565b6000610ff382600061208390919063ffffffff16565b9050919050565b6000611012838360006120a39092919063ffffffff16565b905092915050565b600080600080600080600061102d612612565b60006110438a600061211190919063ffffffff16565b9850985098509850985098509850985098509193959799909294969850565b600061107a838360006124989092919063ffffffff16565b905092915050565b60008073__TellorGettersLibrary__________________63912c0e65909185856040518463ffffffff167c0100000000000000000000000000000000000000000000000000000000028152600401808481526020018373ffffffffffffffffffffffffffffffffffffffff1673ffffffffffffffffffffffffffffffffffffffff1681526020018273ffffffffffffffffffffffffffffffffffffffff1673ffffffffffffffffffffffffffffffffffffffff168152602001935050505060206040518083038186803b15801561115957600080fd5b505af415801561116d573d6000803e3d6000fd5b505050506040513d602081101561118357600080fd5b8101908080519060200190929190505050905092915050565b6000806111a960006124cd565b915091509091565b6111b96125a8565b816009016033806020026040519081016040528092919082603380156111f4576020028201915b8154815260200190600101908083116111e0575b50505050509050919050565b6112086125cc565b8360440160008481526020019081526020016000206008016000838152602001908152602001600020600580602002604051908101604052809291908260058015611268576020028201915b815481526020019060010190808311611254575b505050505090509392505050565b600082600001600083815260200190815260200160002060009054906101000a900473ffffffffffffffffffffffffffffffffffffffff16905092915050565b600081600301600060405180807f746f74616c5f737570706c790000000000000000000000000000000000000000815250600c01905060405180910390208152602001908152602001600020549050919050565b6113126125ef565b83604401600084815260200190815260200160002060070160008381526020019081526020016000206005806020026040519081016040528092919082600580156113a8576020028201915b8160009054906101000a900473ffffffffffffffffffffffffffffffffffffffff1673ffffffffffffffffffffffffffffffffffffffff168152602001906001019080831161135e575b505050505090509392505050565b6000836044016000848152602001908152602001600020600601600083815260200190815260200160002060009054906101000a900460ff1690509392505050565b6000808460410160008573ffffffffffffffffffffffffffffffffffffffff1673ffffffffffffffffffffffffffffffffffffffff1681526020019081526020016000208054905014806114d55750818460410160008573ffffffffffffffffffffffffffffffffffffffff1673ffffffffffffffffffffffffffffffffffffffff168152602001908152602001600020600081548110151561149757fe5b9060005260206000200160000160009054906101000a90046fffffffffffffffffffffffffffffffff166fffffffffffffffffffffffffffffffff16115b156114e35760009050611734565b60008460410160008573ffffffffffffffffffffffffffffffffffffffff1673ffffffffffffffffffffffffffffffffffffffff168152602001908152602001600020905060008180549050141561153f576000915050611734565b80600182805490500381548110151561155457fe5b9060005260206000200160000160009054906101000a90046fffffffffffffffffffffffffffffffff166fffffffffffffffffffffffffffffffff16831015156115f1578060018280549050038154811015156115ad57fe5b9060005260206000200160000160109054906101000a90046fffffffffffffffffffffffffffffffff166fffffffffffffffffffffffffffffffff16915050611734565b80600081548110151561160057fe5b9060005260206000200160000160009054906101000a90046fffffffffffffffffffffffffffffffff166fffffffffffffffffffffffffffffffff1683101561164d576000915050611734565b60008090506000600183805490500390505b818111156116e4576000600260018484010181151561167a57fe5b04905085848281548110151561168c57fe5b9060005260206000200160000160009054906101000a90046fffffffffffffffffffffffffffffffff166fffffffffffffffffffffffffffffffff161115156116d7578092506116de565b6001810391505b5061165f565b82828154811015156116f257fe5b9060005260206000200160000160109054906101000a90046fffffffffffffffffffffffffffffffff166fffffffffffffffffffffffffffffffff1693505050505b9392505050565b600080606083600301600060405180807f61706949644f6e510000000000000000000000000000000000000000000000008152506008019050604051809103902081526020019081526020016000205484600301600060405180807f6170694f6e515061796f75740000000000000000000000000000000000000000815250600c019050604051809103902081526020019081526020016000205485604401600087600301600060405180807f61706949644f6e51000000000000000000000000000000000000000000000000815250600801905060405180910390208152602001908152602001600020548152602001908152602001600020600001808054600181600116156101000203166002900480601f0160208091040260200160405190810160405280929190818152602001828054600181600116156101000203166002900480156118cd5780601f106118a2576101008083540402835291602001916118cd565b820191906000526020600020905b8154815290600101906020018083116118b057829003601f168201915b505050505090509250925092509193909250565b600082600301600083815260200190815260200160002054905092915050565b600083603d01600084815260200190815260200160002060008373ffffffffffffffffffffffffffffffffffffffff1673ffffffffffffffffffffffffffffffffffffffff16815260200190815260200160002060009054906101000a900460ff1690509392505050565b606080600080600080600088604401600089815260200190815260200160002090508060000181600101826002015483600301600060405180807f6772616e756c6172697479000000000000000000000000000000000000000000815250600b019050604051809103902081526020019081526020016000205484600301600060405180807f696e6465780000000000000000000000000000000000000000000000000000008152506005019050604051809103902081526020019081526020016000205485600301600060405180807f7061796f7574000000000000000000000000000000000000000000000000000081525060060190506040518091039020815260200190815260200160002054858054600181600116156101000203166002900480601f016020809104026020016040519081016040528092919081815260200182805460018160011615610100020316600290048015611b115780601f10611ae657610100808354040283529160200191611b11565b820191906000526020600020905b815481529060010190602001808311611af457829003601f168201915b50505050509550848054600181600116156101000203166002900480601f016020809104026020016040519081016040528092919081815260200182805460018160011615610100020316600290048015611bad5780601f10611b8257610100808354040283529160200191611bad565b820191906000526020600020905b815481529060010190602001808311611b9057829003601f168201915b50505050509450965096509650965096509650509295509295509295565b6000611bd88383436113f8565b905092915050565b6000808360430160008473ffffffffffffffffffffffffffffffffffffffff1673ffffffffffffffffffffffffffffffffffffffff168152602001908152602001600020600001548460430160008573ffffffffffffffffffffffffffffffffffffffff1673ffffffffffffffffffffffffffffffffffffffff16815260200190815260200160002060010154915091509250929050565b600082603e01600083815260200190815260200160002054905092915050565b600082604601600083815260200190815260200160002054905092915050565b600082603f01600083815260200190815260200160002054905092915050565b600083604401600084815260200190815260200160002060050160008381526020019081526020016000205490509392505050565b600080600060606000856001015486600301600060405180807f6d696e696e674170694964000000000000000000000000000000000000000000815250600b019050604051809103902081526020019081526020016000205487600301600060405180807f646966666963756c74795f6c6576656c00000000000000000000000000000000815250601001905060405180910390208152602001908152602001600020548860440160008a600301600060405180807f6d696e696e674170694964000000000000000000000000000000000000000000815250600b019050604051809103902081526020019081526020016000205481526020019081526020016000206000018960440160008b600301600060405180807f6d696e696e674170694964000000000000000000000000000000000000000000815250600b01905060405180910390208152602001908152602001600020548152602001908152602001600020600301600060405180807f6772616e756c6172697479000000000000000000000000000000000000000000815250600b0190506040518091039020815260200190815260200160002054818054600181600116156101000203166002900480601f016020809104026020016040519081016040528092919081815260200182805460018160011615610100020316600290048015611f515780601f10611f2657610100808354040283529160200191611f51565b820191906000526020600020905b815481529060010190602001808311611f3457829003601f168201915b505050505091509450945094509450945091939590929450565b6000808460430160008573ffffffffffffffffffffffffffffffffffffffff1673ffffffffffffffffffffffffffffffffffffffff1681526020019081526020016000206000015411156120485760006120338361202587600301600060405180807f7374616b65416d74000000000000000000000000000000000000000000000000815250600801905060405180910390208152602001908152602001600020546120178989611bcb565b61258f90919063ffffffff16565b61258f90919063ffffffff16565b101515612043576001905061207c565b612077565b6000612066836120588787611bcb565b61258f90919063ffffffff16565b101515612076576001905061207c565b5b600090505b9392505050565b600082604501600083815260200190815260200160002054905092915050565b600083604001600084815260200190815260200160002060060160008373ffffffffffffffffffffffffffffffffffffffff1673ffffffffffffffffffffffffffffffffffffffff16815260200190815260200160002060009054906101000a900460ff1690509392505050565b6000806000806000806000612124612612565b6000808b60400160008c8152602001908152602001600020905080600001548160010160009054906101000a900460ff168260010160019054906101000a900460ff168360010160029054906101000a900460ff168460010160039054906101000a900473ffffffffffffffffffffffffffffffffffffffff168560020160009054906101000a900473ffffffffffffffffffffffffffffffffffffffff168660030160009054906101000a900473ffffffffffffffffffffffffffffffffffffffff166101006040519081016040528089600401600060405180807f617069496400000000000000000000000000000000000000000000000000000081525060050190506040518091039020815260200190815260200160002054815260200189600401600060405180807f74696d657374616d70000000000000000000000000000000000000000000000081525060090190506040518091039020815260200190815260200160002054815260200189600401600060405180807f76616c756500000000000000000000000000000000000000000000000000000081525060050190506040518091039020815260200190815260200160002054815260200189600401600060405180807f6d696e457865637574696f6e446174650000000000000000000000000000000081525060100190506040518091039020815260200190815260200160002054815260200189600401600060405180807f6e756d6265724f66566f74657300000000000000000000000000000000000000815250600d0190506040518091039020815260200190815260200160002054815260200189600401600060405180807f626c6f636b4e756d626572000000000000000000000000000000000000000000815250600b0190506040518091039020815260200190815260200160002054815260200189600401600060405180807f696e64657800000000000000000000000000000000000000000000000000000081525060050190506040518091039020815260200190815260200160002054815260200189600401600060405180807f71756f72756d0000000000000000000000000000000000000000000000000000815250600601905060405180910390208152602001908152602001600020548152508860050154995099509950995099509950995099509950509295985092959850929598565b600083604401600084815260200190815260200160002060040160008381526020019081526020016000205490509392505050565b6000806125848384603e01600086600301600060405180807f74696d654f664c61737450726f6f660000000000000000000000000000000000815250600f019050604051809103902081526020019081526020016000205481526020019081526020016000205485600301600060405180807f74696d654f664c61737450726f6f660000000000000000000000000000000000815250600f0190506040518091039020815260200190815260200160002054611cd8565b600191509150915091565b600082821115151561259d57fe5b818303905092915050565b61066060405190810160405280603390602082028038833980820191505090505090565b60a060405190810160405280600590602082028038833980820191505090505090565b60a060405190810160405280600590602082028038833980820191505090505090565b61010060405190810160405280600890602082028038833980820191505090505090565b3382600001600060405180807f5f6f776e6572000000000000000000000000000000000000000000000000000081525060060190506040518091039020815260200190815260200160002060006101000a81548173ffffffffffffffffffffffffffffffffffffffff021916908373ffffffffffffffffffffffffffffffffffffffff1602179055508082600001600060405180807f74656c6c6f72436f6e7472616374000000000000000000000000000000000000815250600e0190506040518091039020815260200190815260200160002060006101000a81548173ffffffffffffffffffffffffffffffffffffffff021916908373ffffffffffffffffffffffffffffffffffffffff1602179055507fc2d1449eb0b6547aa426e09d9942a77fa4fc8cd3296305b3163e22452e0bcb8d81604051808273ffffffffffffffffffffffffffffffffffffffff1673ffffffffffffffffffffffffffffffffffffffff16815260200191505060405180910390a1505056fea165627a7a72305820fb605d7c50318319eeaba02734687fdc2381be276f1a2cef7580b37eec291b600029",
  "source": "pragma solidity ^0.5.0;\n\nimport \"./TellorGetters.sol\";\nimport \"./libraries/TellorLibrary.sol\";\nimport \"./libraries/TellorGettersLibrary.sol\";\n\ncontract TellorMaster is TellorGetters{\n    /**\n     * @dev The constructor sets the original `tellorStorageOwner` of the contract to the sender\n     * account.\n    */\n    constructor (address _tellorContract)  public{\n        tellor.tellorMasterConstructor(_tellorContract);\n    }\n\n    function () external payable {\n        address addr = tellor.addressVars[keccak256(\"tellorContract\")];\n        assembly {\n            let freememstart := mload(0x40)\n            calldatacopy(freememstart, 0, calldatasize())\n            let success := delegatecall(not(0), addr, freememstart, calldatasize(), freememstart, 32)\n            switch success\n            case 0 { revert(freememstart, 32) }\n            default { return(freememstart, 32) }\n        }\n    }\n\n}\n\n        //Test this one:\n            // let result := delegatecall(not(0), addr, add(_calldata, 0x20), mload(_calldata), 0, 0)\n            // let size := returndatasize\n            // let ptr := mload(0x40)\n            // returndatacopy(ptr, 0, size)\n\n            // // revert instead of invalid() bc if the underlying call failed with invalid() it already wasted gas.\n            // // if the call returned error data, forward it\n            // switch result case 0 { revert(ptr, size) }\n            // default { return(ptr, size) }",
  "sourcePath": "/Users/mdcoon/git/TellorCore/contracts/TellorMaster.sol",
  "compiler": {
    "name": "solc",
    "version": "0.5.0+commit.1d4f565a.Emscripten.clang"
  },
  "schemaVersion": "3.0.6",
  "updatedAt": "2019-04-14T19:32:08.362Z",
  "devdoc": {
    "methods": {
      "allowance(address,address)": {
        "params": {
          "_spender": "address",
          "_user": "address"
        },
        "return": "Returns the remaining allowance of tokens granted to the _spender from the _user"
      },
      "balanceOf(address)": {
        "details": "Gets balance of owner specified",
        "params": {
          "_user": "is the owner address used to look up the balance"
        },
        "return": "Returns the balance associated with the passed in _user"
      },
      "balanceOfAt(address,uint256)": {
        "details": "Queries the balance of _user at a specific _blockNumber",
        "params": {
          "_blockNumber": "The block number when the balance is queried",
          "_user": "The address from which the balance will be retrieved"
        },
        "return": "The balance at _blockNumber"
      },
      "constructor": {
        "details": "The constructor sets the original `tellorStorageOwner` of the contract to the sender account."
      },
      "didMine(bytes32,address)": {
        "details": "This function tells you if a given challenge has been completed by a given miner",
        "params": {
          "_challenge": "the challenge to search for",
          "_miner": "address that you want to know if they solved the challenge"
        },
        "return": "true if the _miner address provided solved the "
      },
      "didVote(uint256,address)": {
        "details": "Checks if an address voted in a dispute",
        "params": {
          "_address": "to look up",
          "_disputeId": "to look up"
        },
        "return": "bool of whether or not party voted"
      },
      "getAllDisputeVars(uint256)": {
        "details": "Gets all dispute variables",
        "params": {
          "_disputeId": "to look up"
        },
        "return": "address of reported mineraddress of reporting partydisputed apiIddisputed minimum execution dateuint number of votesuint blockNumber of voteuint index in disputeId arrayint count of the current tallybool of whether vote has been tallied"
      },
      "getApiForTime(uint256)": {
        "details": "Getter function for apiId based on timestamp. Only one value is mined per timestamp and each timestamp can correspond to a different API. ",
        "params": {
          "_timestamp": "to check APIId"
        },
        "return": "apiId"
      },
      "getApiId(bytes32)": {
        "details": "Getter function for apiId based on api hash",
        "params": {
          "_api": "string to check if it already has an apiId"
        },
        "return": "uint apiId"
      },
      "getApiVars(uint256)": {
        "details": "Gets the API struct variables that are not mappings",
        "params": {
          "_apiId": "to look up"
        },
        "return": "string of api to querybytes32 hash of stringuint of index in PayoutPool arrayuint of current payout for this api"
      },
      "getDisputeHashToId(bytes32)": {
        "details": "Checks if a given hash of miner,apiId has been disputed",
        "params": {
          "_hash": "of sha256(abi.encodePacked(_miners[2],_apiId));"
        },
        "return": "uint disputeId"
      },
      "getLastQuery()": {
        "details": "Gets the a value for the latest timestamp available",
        "return": "value for timestamp of last proof of work submited"
      },
      "getMinedBlockNum(uint256,uint256)": {
        "details": "Gets blocknumber for mined timestamp ",
        "params": {
          "_apiId": "to look up",
          "_timestamp": "is the timestamp to look up blocknumber"
        },
        "return": "uint of the blocknumber which the dispute was mined"
      },
      "getMinersByValue(uint256,uint256)": {
        "details": "Gets the 5 miners who mined the value for the specified apiId/_timestamp ",
        "params": {
          "_apiId": "to look up",
          "_timestamp": "is the timestampt to look up miners for"
        }
      },
      "getSubmissionsByTimestamp(uint256,uint256)": {
        "details": "Gets the 5 miners who mined the value for the specified apiId/_timestamp ",
        "params": {
          "_apiId": "to look up",
          "_timestamp": "is the timestampt to look up miners for"
        }
      },
      "getVariables()": {
        "details": "Getter function for currentChallenge difficulty_level",
        "return": "current challenge, MiningApiID, level of difficulty_level"
      },
      "getVariablesOnQ()": {
        "details": "Getter function for api on queue",
        "return": "apionQ hash, id, payout, and api string"
      },
      "getpayoutPoolIndexToApiId(uint256)": {
        "details": "Getter function for the apiId for the specified payoutPool index",
        "params": {
          "_payoutPoolIndexToApiId": "to look up the apiId"
        },
        "return": "apiId"
      },
      "isInDispute(uint256,uint256)": {
        "details": "Gets the 5 miners who mined the value for the specified apiId/_timestamp ",
        "params": {
          "_apiId": "to look up",
          "_timestamp": "is the timestampt to look up miners for"
        }
      },
      "retrieveData(uint256,uint256)": {
        "details": "Retreive value from oracle based on timestamp",
        "params": {
          "_apiId": "being requested",
          "_timestamp": "to retreive data/value from"
        },
        "return": "value for timestamp submitted"
      },
      "totalSupply()": {
        "details": "Getter for the total_supply of oracle tokens",
        "return": "total supply"
      }
    }
  },
  "userdoc": {
    "methods": {
      "allowedToTrade(address,uint256)": {
        "notice": "dev This function returns whether or not a given user is allowed to trade a given amount   param address of user param address of amount"
      },
      "getStakerInfo(address)": {
        "notice": "dev This function allows users to retireve all information about a staker param address of staker enquiring about return uint current state of staker return uint startDate of staking"
      }
    }
  }
}