{
  "contractName": "TellorGetters",
  "abi": [
    {
      "constant": true,
      "inputs": [
        {
          "name": "_user",
          "type": "address"
        },
        {
          "name": "_spender",
          "type": "address"
        }
      ],
      "name": "allowance",
      "outputs": [
        {
          "name": "",
          "type": "uint256"
        }
      ],
      "payable": false,
      "stateMutability": "view",
      "type": "function"
    },
    {
      "constant": true,
      "inputs": [
        {
          "name": "_user",
          "type": "address"
        },
        {
          "name": "_amount",
          "type": "uint256"
        }
      ],
      "name": "allowedToTrade",
      "outputs": [
        {
          "name": "",
          "type": "bool"
        }
      ],
      "payable": false,
      "stateMutability": "view",
      "type": "function"
    },
    {
      "constant": true,
      "inputs": [
        {
          "name": "_user",
          "type": "address"
        }
      ],
      "name": "balanceOf",
      "outputs": [
        {
          "name": "bal",
          "type": "uint256"
        }
      ],
      "payable": false,
      "stateMutability": "view",
      "type": "function"
    },
    {
      "constant": true,
      "inputs": [
        {
          "name": "_user",
          "type": "address"
        },
        {
          "name": "_blockNumber",
          "type": "uint256"
        }
      ],
      "name": "balanceOfAt",
      "outputs": [
        {
          "name": "",
          "type": "uint256"
        }
      ],
      "payable": false,
      "stateMutability": "view",
      "type": "function"
    },
    {
      "constant": true,
      "inputs": [
        {
          "name": "_challenge",
          "type": "bytes32"
        },
        {
          "name": "_miner",
          "type": "address"
        }
      ],
      "name": "didMine",
      "outputs": [
        {
          "name": "",
          "type": "bool"
        }
      ],
      "payable": false,
      "stateMutability": "view",
      "type": "function"
    },
    {
      "constant": true,
      "inputs": [
        {
          "name": "_disputeId",
          "type": "uint256"
        },
        {
          "name": "_address",
          "type": "address"
        }
      ],
      "name": "didVote",
      "outputs": [
        {
          "name": "",
          "type": "bool"
        }
      ],
      "payable": false,
      "stateMutability": "view",
      "type": "function"
    },
    {
      "constant": true,
      "inputs": [
        {
          "name": "_data",
          "type": "bytes32"
        }
      ],
      "name": "getAddressVars",
      "outputs": [
        {
          "name": "",
          "type": "address"
        }
      ],
      "payable": false,
      "stateMutability": "view",
      "type": "function"
    },
    {
      "constant": true,
      "inputs": [
        {
          "name": "_disputeId",
          "type": "uint256"
        }
      ],
      "name": "getAllDisputeVars",
      "outputs": [
        {
          "name": "",
          "type": "bytes32"
        },
        {
          "name": "",
          "type": "bool"
        },
        {
          "name": "",
          "type": "bool"
        },
        {
          "name": "",
          "type": "bool"
        },
        {
          "name": "",
          "type": "address"
        },
        {
          "name": "",
          "type": "address"
        },
        {
          "name": "",
          "type": "address"
        },
        {
          "name": "",
          "type": "uint256[8]"
        },
        {
          "name": "",
          "type": "int256"
        }
      ],
      "payable": false,
      "stateMutability": "view",
      "type": "function"
    },
    {
      "constant": true,
      "inputs": [
        {
          "name": "_timestamp",
          "type": "uint256"
        }
      ],
      "name": "getApiForTime",
      "outputs": [
        {
          "name": "",
          "type": "uint256"
        }
      ],
      "payable": false,
      "stateMutability": "view",
      "type": "function"
    },
    {
      "constant": true,
      "inputs": [
        {
          "name": "_api",
          "type": "bytes32"
        }
      ],
      "name": "getApiId",
      "outputs": [
        {
          "name": "",
          "type": "uint256"
        }
      ],
      "payable": false,
      "stateMutability": "view",
      "type": "function"
    },
    {
      "constant": true,
      "inputs": [
        {
          "name": "_apiId",
          "type": "uint256"
        }
      ],
      "name": "getApiVars",
      "outputs": [
        {
          "name": "",
          "type": "string"
        },
        {
          "name": "",
          "type": "string"
        },
        {
          "name": "",
          "type": "bytes32"
        },
        {
          "name": "",
          "type": "uint256"
        },
        {
          "name": "",
          "type": "uint256"
        },
        {
          "name": "",
          "type": "uint256"
        }
      ],
      "payable": false,
      "stateMutability": "view",
      "type": "function"
    },
    {
      "constant": true,
      "inputs": [
        {
          "name": "_hash",
          "type": "bytes32"
        }
      ],
      "name": "getDisputeHashToId",
      "outputs": [
        {
          "name": "",
          "type": "uint256"
        }
      ],
      "payable": false,
      "stateMutability": "view",
      "type": "function"
    },
    {
      "constant": true,
      "inputs": [],
      "name": "getLastQuery",
      "outputs": [
        {
          "name": "",
          "type": "uint256"
        },
        {
          "name": "",
          "type": "bool"
        }
      ],
      "payable": false,
      "stateMutability": "view",
      "type": "function"
    },
    {
      "constant": true,
      "inputs": [
        {
          "name": "_apiId",
          "type": "uint256"
        },
        {
          "name": "_timestamp",
          "type": "uint256"
        }
      ],
      "name": "getMinedBlockNum",
      "outputs": [
        {
          "name": "",
          "type": "uint256"
        }
      ],
      "payable": false,
      "stateMutability": "view",
      "type": "function"
    },
    {
      "constant": true,
      "inputs": [
        {
          "name": "_apiId",
          "type": "uint256"
        },
        {
          "name": "_timestamp",
          "type": "uint256"
        }
      ],
      "name": "getMinersByValue",
      "outputs": [
        {
          "name": "",
          "type": "address[5]"
        }
      ],
      "payable": false,
      "stateMutability": "view",
      "type": "function"
    },
    {
      "constant": true,
      "inputs": [],
      "name": "getPayoutPool",
      "outputs": [
        {
          "name": "",
          "type": "uint256[51]"
        }
      ],
      "payable": false,
      "stateMutability": "view",
      "type": "function"
    },
    {
      "constant": true,
      "inputs": [
        {
          "name": "_payoutPoolIndexToApiId",
          "type": "uint256"
        }
      ],
      "name": "getpayoutPoolIndexToApiId",
      "outputs": [
        {
          "name": "",
          "type": "uint256"
        }
      ],
      "payable": false,
      "stateMutability": "view",
      "type": "function"
    },
    {
      "constant": true,
      "inputs": [
        {
          "name": "_staker",
          "type": "address"
        }
      ],
      "name": "getStakerInfo",
      "outputs": [
        {
          "name": "",
          "type": "uint256"
        },
        {
          "name": "",
          "type": "uint256"
        }
      ],
      "payable": false,
      "stateMutability": "view",
      "type": "function"
    },
    {
      "constant": true,
      "inputs": [
        {
          "name": "_apiId",
          "type": "uint256"
        },
        {
          "name": "_timestamp",
          "type": "uint256"
        }
      ],
      "name": "getSubmissionsByTimestamp",
      "outputs": [
        {
          "name": "",
          "type": "uint256[5]"
        }
      ],
      "payable": false,
      "stateMutability": "view",
      "type": "function"
    },
    {
      "constant": true,
      "inputs": [
        {
          "name": "_data",
          "type": "bytes32"
        }
      ],
      "name": "getUintVar",
      "outputs": [
        {
          "name": "",
          "type": "uint256"
        }
      ],
      "payable": false,
      "stateMutability": "view",
      "type": "function"
    },
    {
      "constant": true,
      "inputs": [],
      "name": "getVariables",
      "outputs": [
        {
          "name": "",
          "type": "bytes32"
        },
        {
          "name": "",
          "type": "uint256"
        },
        {
          "name": "",
          "type": "uint256"
        },
        {
          "name": "",
          "type": "string"
        },
        {
          "name": "",
          "type": "uint256"
        }
      ],
      "payable": false,
      "stateMutability": "view",
      "type": "function"
    },
    {
      "constant": true,
      "inputs": [],
      "name": "getVariablesOnQ",
      "outputs": [
        {
          "name": "",
          "type": "uint256"
        },
        {
          "name": "",
          "type": "uint256"
        },
        {
          "name": "",
          "type": "string"
        }
      ],
      "payable": false,
      "stateMutability": "view",
      "type": "function"
    },
    {
      "constant": true,
      "inputs": [
        {
          "name": "_apiId",
          "type": "uint256"
        },
        {
          "name": "_timestamp",
          "type": "uint256"
        }
      ],
      "name": "isInDispute",
      "outputs": [
        {
          "name": "",
          "type": "bool"
        }
      ],
      "payable": false,
      "stateMutability": "view",
      "type": "function"
    },
    {
      "constant": true,
      "inputs": [
        {
          "name": "_apiId",
          "type": "uint256"
        },
        {
          "name": "_timestamp",
          "type": "uint256"
        }
      ],
      "name": "retrieveData",
      "outputs": [
        {
          "name": "",
          "type": "uint256"
        }
      ],
      "payable": false,
      "stateMutability": "view",
      "type": "function"
    },
    {
      "constant": true,
      "inputs": [],
      "name": "totalSupply",
      "outputs": [
        {
          "name": "",
          "type": "uint256"
        }
      ],
      "payable": false,
      "stateMutability": "view",
      "type": "function"
    }
  ],
  "bytecode": "0x608060405234801561001057600080fd5b506125d3806100206000396000f3fe608060405260043610610149576000357c0100000000000000000000000000000000000000000000000000000000900463ffffffff16806310c557251461014e57806311c98512146101a1578063133bee5e1461022257806318160ddd1461029d57806336b040e1146102c85780633df0777b146103495780634ee2cd7e146103a657806360ab815414610415578063612c8f7f146104b357806363bb82ad146105025780636e9fb31d1461057557806370a08231146106b1578063733bdef01461071657806373645f3714610782578063798782d7146107d15780639110a51d1461082057806393fa49151461086f57806394aef022146108c8578063999cf26c14610974578063a0590fe1146109e7578063a7c438bc14610a36578063af0b132714610aa9578063c775b54214610be8578063dd62ed3e14610c41578063dfba509514610cc6575b600080fd5b34801561015a57600080fd5b50610163610cfc565b6040518082603360200280838360005b8381101561018e578082015181840152602081019050610173565b5050505090500191505060405180910390f35b3480156101ad57600080fd5b506101e4600480360360408110156101c457600080fd5b810190808035906020019092919080359060200190929190505050610d13565b6040518082600560200280838360005b8381101561020f5780820151818401526020810190506101f4565b5050505090500191505060405180910390f35b34801561022e57600080fd5b5061025b6004803603602081101561024557600080fd5b8101908080359060200190929190505050610d39565b604051808273ffffffffffffffffffffffffffffffffffffffff1673ffffffffffffffffffffffffffffffffffffffff16815260200191505060405180910390f35b3480156102a957600080fd5b506102b2610d56565b6040518082815260200191505060405180910390f35b3480156102d457600080fd5b5061030b600480360360408110156102eb57600080fd5b810190808035906020019092919080359060200190929190505050610d67565b6040518082600560200280838360005b8381101561033657808201518184015260208101905061031b565b5050505090500191505060405180910390f35b34801561035557600080fd5b5061038c6004803603604081101561036c57600080fd5b810190808035906020019092919080359060200190929190505050610d8d565b604051808215151515815260200191505060405180910390f35b3480156103b257600080fd5b506103ff600480360360408110156103c957600080fd5b81019080803573ffffffffffffffffffffffffffffffffffffffff16906020019092919080359060200190929190505050610dad565b6040518082815260200191505060405180910390f35b34801561042157600080fd5b5061042a610dcd565b6040518084815260200183815260200180602001828103825283818151815260200191508051906020019080838360005b8381101561047657808201518184015260208101905061045b565b50505050905090810190601f1680156104a35780820380516001836020036101000a031916815260200191505b5094505050505060405180910390f35b3480156104bf57600080fd5b506104ec600480360360208110156104d657600080fd5b8101908080359060200190929190505050610de7565b6040518082815260200191505060405180910390f35b34801561050e57600080fd5b5061055b6004803603604081101561052557600080fd5b8101908080359060200190929190803573ffffffffffffffffffffffffffffffffffffffff169060200190929190505050610e04565b604051808215151515815260200191505060405180910390f35b34801561058157600080fd5b506105ae6004803603602081101561059857600080fd5b8101908080359060200190929190505050610e24565b604051808060200180602001878152602001868152602001858152602001848152602001838103835289818151815260200191508051906020019080838360005b8381101561060a5780820151818401526020810190506105ef565b50505050905090810190601f1680156106375780820380516001836020036101000a031916815260200191505b50838103825288818151815260200191508051906020019080838360005b83811015610670578082015181840152602081019050610655565b50505050905090810190601f16801561069d5780820380516001836020036101000a031916815260200191505b509850505050505050505060405180910390f35b3480156106bd57600080fd5b50610700600480360360208110156106d457600080fd5b81019080803573ffffffffffffffffffffffffffffffffffffffff169060200190929190505050610e56565b6040518082815260200191505060405180910390f35b34801561072257600080fd5b506107656004803603602081101561073957600080fd5b81019080803573ffffffffffffffffffffffffffffffffffffffff169060200190929190505050610e73565b604051808381526020018281526020019250505060405180910390f35b34801561078e57600080fd5b506107bb600480360360208110156107a557600080fd5b8101908080359060200190929190505050610e93565b6040518082815260200191505060405180910390f35b3480156107dd57600080fd5b5061080a600480360360208110156107f457600080fd5b8101908080359060200190929190505050610eb0565b6040518082815260200191505060405180910390f35b34801561082c57600080fd5b506108596004803603602081101561084357600080fd5b8101908080359060200190929190505050610ecd565b6040518082815260200191505060405180910390f35b34801561087b57600080fd5b506108b26004803603604081101561089257600080fd5b810190808035906020019092919080359060200190929190505050610eea565b6040518082815260200191505060405180910390f35b3480156108d457600080fd5b506108dd610f0a565b6040518086815260200185815260200184815260200180602001838152602001828103825284818151815260200191508051906020019080838360005b8381101561093557808201518184015260208101905061091a565b50505050905090810190601f1680156109625780820380516001836020036101000a031916815260200191505b50965050505050505060405180910390f35b34801561098057600080fd5b506109cd6004803603604081101561099757600080fd5b81019080803573ffffffffffffffffffffffffffffffffffffffff16906020019092919080359060200190929190505050610f2e565b604051808215151515815260200191505060405180910390f35b3480156109f357600080fd5b50610a2060048036036020811015610a0a57600080fd5b8101908080359060200190929190505050610f4e565b6040518082815260200191505060405180910390f35b348015610a4257600080fd5b50610a8f60048036036040811015610a5957600080fd5b8101908080359060200190929190803573ffffffffffffffffffffffffffffffffffffffff169060200190929190505050610f6b565b604051808215151515815260200191505060405180910390f35b348015610ab557600080fd5b50610ae260048036036020811015610acc57600080fd5b8101908080359060200190929190505050610f8b565b604051808a81526020018915151515815260200188151515158152602001871515151581526020018673ffffffffffffffffffffffffffffffffffffffff1673ffffffffffffffffffffffffffffffffffffffff1681526020018573ffffffffffffffffffffffffffffffffffffffff1673ffffffffffffffffffffffffffffffffffffffff1681526020018473ffffffffffffffffffffffffffffffffffffffff1673ffffffffffffffffffffffffffffffffffffffff16815260200183600860200280838360005b83811015610bc7578082015181840152602081019050610bac565b50505050905001828152602001995050505050505050505060405180910390f35b348015610bf457600080fd5b50610c2b60048036036040811015610c0b57600080fd5b810190808035906020019092919080359060200190929190505050610fd3565b6040518082815260200191505060405180910390f35b348015610c4d57600080fd5b50610cb060048036036040811015610c6457600080fd5b81019080803573ffffffffffffffffffffffffffffffffffffffff169060200190929190803573ffffffffffffffffffffffffffffffffffffffff169060200190929190505050610ff3565b6040518082815260200191505060405180910390f35b348015610cd257600080fd5b50610cdb61110d565b60405180838152602001821515151581526020019250505060405180910390f35b610d04612519565b610d0e6000611122565b905090565b610d1b61253d565b610d31838360006111719092919063ffffffff16565b905092915050565b6000610d4f8260006111e790919063ffffffff16565b9050919050565b6000610d626000611227565b905090565b610d6f612560565b610d858383600061127b9092919063ffffffff16565b905092915050565b6000610da5838360006113279092919063ffffffff16565b905092915050565b6000610dc5838360006113699092919063ffffffff16565b905092915050565b6000806060610ddc60006116ac565b925092509250909192565b6000610dfd82600061185290919063ffffffff16565b9050919050565b6000610e1c838360006118729092919063ffffffff16565b905092915050565b606080600080600080610e418760006118dd90919063ffffffff16565b95509550955095509550955091939550919395565b6000610e6c826000611b3c90919063ffffffff16565b9050919050565b600080610e8a836000611b5190919063ffffffff16565b91509150915091565b6000610ea9826000611be990919063ffffffff16565b9050919050565b6000610ec6826000611c0990919063ffffffff16565b9050919050565b6000610ee3826000611c2990919063ffffffff16565b9050919050565b6000610f0283836000611c499092919063ffffffff16565b905092915050565b600080600060606000610f1d6000611c7e565b945094509450945094509091929394565b6000610f4683836000611edc9092919063ffffffff16565b905092915050565b6000610f64826000611ff490919063ffffffff16565b9050919050565b6000610f83838360006120149092919063ffffffff16565b905092915050565b6000806000806000806000610f9e612583565b6000610fb48a600061208290919063ffffffff16565b9850985098509850985098509850985098509193959799909294969850565b6000610feb838360006124099092919063ffffffff16565b905092915050565b60008073__TellorGettersLibrary__________________63912c0e65909185856040518463ffffffff167c0100000000000000000000000000000000000000000000000000000000028152600401808481526020018373ffffffffffffffffffffffffffffffffffffffff1673ffffffffffffffffffffffffffffffffffffffff1681526020018273ffffffffffffffffffffffffffffffffffffffff1673ffffffffffffffffffffffffffffffffffffffff168152602001935050505060206040518083038186803b1580156110ca57600080fd5b505af41580156110de573d6000803e3d6000fd5b505050506040513d60208110156110f457600080fd5b8101908080519060200190929190505050905092915050565b60008061111a600061243e565b915091509091565b61112a612519565b81600901603380602002604051908101604052809291908260338015611165576020028201915b815481526020019060010190808311611151575b50505050509050919050565b61117961253d565b83604401600084815260200190815260200160002060080160008381526020019081526020016000206005806020026040519081016040528092919082600580156111d9576020028201915b8154815260200190600101908083116111c5575b505050505090509392505050565b600082600001600083815260200190815260200160002060009054906101000a900473ffffffffffffffffffffffffffffffffffffffff16905092915050565b600081600301600060405180807f746f74616c5f737570706c790000000000000000000000000000000000000000815250600c01905060405180910390208152602001908152602001600020549050919050565b611283612560565b8360440160008481526020019081526020016000206007016000838152602001908152602001600020600580602002604051908101604052809291908260058015611319576020028201915b8160009054906101000a900473ffffffffffffffffffffffffffffffffffffffff1673ffffffffffffffffffffffffffffffffffffffff16815260200190600101908083116112cf575b505050505090509392505050565b6000836044016000848152602001908152602001600020600601600083815260200190815260200160002060009054906101000a900460ff1690509392505050565b6000808460410160008573ffffffffffffffffffffffffffffffffffffffff1673ffffffffffffffffffffffffffffffffffffffff1681526020019081526020016000208054905014806114465750818460410160008573ffffffffffffffffffffffffffffffffffffffff1673ffffffffffffffffffffffffffffffffffffffff168152602001908152602001600020600081548110151561140857fe5b9060005260206000200160000160009054906101000a90046fffffffffffffffffffffffffffffffff166fffffffffffffffffffffffffffffffff16115b1561145457600090506116a5565b60008460410160008573ffffffffffffffffffffffffffffffffffffffff1673ffffffffffffffffffffffffffffffffffffffff16815260200190815260200160002090506000818054905014156114b05760009150506116a5565b8060018280549050038154811015156114c557fe5b9060005260206000200160000160009054906101000a90046fffffffffffffffffffffffffffffffff166fffffffffffffffffffffffffffffffff16831015156115625780600182805490500381548110151561151e57fe5b9060005260206000200160000160109054906101000a90046fffffffffffffffffffffffffffffffff166fffffffffffffffffffffffffffffffff169150506116a5565b80600081548110151561157157fe5b9060005260206000200160000160009054906101000a90046fffffffffffffffffffffffffffffffff166fffffffffffffffffffffffffffffffff168310156115be5760009150506116a5565b60008090506000600183805490500390505b8181111561165557600060026001848401018115156115eb57fe5b0490508584828154811015156115fd57fe5b9060005260206000200160000160009054906101000a90046fffffffffffffffffffffffffffffffff166fffffffffffffffffffffffffffffffff161115156116485780925061164f565b6001810391505b506115d0565b828281548110151561166357fe5b9060005260206000200160000160109054906101000a90046fffffffffffffffffffffffffffffffff166fffffffffffffffffffffffffffffffff1693505050505b9392505050565b600080606083600301600060405180807f61706949644f6e510000000000000000000000000000000000000000000000008152506008019050604051809103902081526020019081526020016000205484600301600060405180807f6170694f6e515061796f75740000000000000000000000000000000000000000815250600c019050604051809103902081526020019081526020016000205485604401600087600301600060405180807f61706949644f6e51000000000000000000000000000000000000000000000000815250600801905060405180910390208152602001908152602001600020548152602001908152602001600020600001808054600181600116156101000203166002900480601f01602080910402602001604051908101604052809291908181526020018280546001816001161561010002031660029004801561183e5780601f106118135761010080835404028352916020019161183e565b820191906000526020600020905b81548152906001019060200180831161182157829003601f168201915b505050505090509250925092509193909250565b600082600301600083815260200190815260200160002054905092915050565b600083603d01600084815260200190815260200160002060008373ffffffffffffffffffffffffffffffffffffffff1673ffffffffffffffffffffffffffffffffffffffff16815260200190815260200160002060009054906101000a900460ff1690509392505050565b606080600080600080600088604401600089815260200190815260200160002090508060000181600101826002015483600301600060405180807f6772616e756c6172697479000000000000000000000000000000000000000000815250600b019050604051809103902081526020019081526020016000205484600301600060405180807f696e6465780000000000000000000000000000000000000000000000000000008152506005019050604051809103902081526020019081526020016000205485600301600060405180807f7061796f7574000000000000000000000000000000000000000000000000000081525060060190506040518091039020815260200190815260200160002054858054600181600116156101000203166002900480601f016020809104026020016040519081016040528092919081815260200182805460018160011615610100020316600290048015611a825780601f10611a5757610100808354040283529160200191611a82565b820191906000526020600020905b815481529060010190602001808311611a6557829003601f168201915b50505050509550848054600181600116156101000203166002900480601f016020809104026020016040519081016040528092919081815260200182805460018160011615610100020316600290048015611b1e5780601f10611af357610100808354040283529160200191611b1e565b820191906000526020600020905b815481529060010190602001808311611b0157829003601f168201915b50505050509450965096509650965096509650509295509295509295565b6000611b49838343611369565b905092915050565b6000808360430160008473ffffffffffffffffffffffffffffffffffffffff1673ffffffffffffffffffffffffffffffffffffffff168152602001908152602001600020600001548460430160008573ffffffffffffffffffffffffffffffffffffffff1673ffffffffffffffffffffffffffffffffffffffff16815260200190815260200160002060010154915091509250929050565b600082603e01600083815260200190815260200160002054905092915050565b600082604601600083815260200190815260200160002054905092915050565b600082603f01600083815260200190815260200160002054905092915050565b600083604401600084815260200190815260200160002060050160008381526020019081526020016000205490509392505050565b600080600060606000856001015486600301600060405180807f6d696e696e674170694964000000000000000000000000000000000000000000815250600b019050604051809103902081526020019081526020016000205487600301600060405180807f646966666963756c74795f6c6576656c00000000000000000000000000000000815250601001905060405180910390208152602001908152602001600020548860440160008a600301600060405180807f6d696e696e674170694964000000000000000000000000000000000000000000815250600b019050604051809103902081526020019081526020016000205481526020019081526020016000206000018960440160008b600301600060405180807f6d696e696e674170694964000000000000000000000000000000000000000000815250600b01905060405180910390208152602001908152602001600020548152602001908152602001600020600301600060405180807f6772616e756c6172697479000000000000000000000000000000000000000000815250600b0190506040518091039020815260200190815260200160002054818054600181600116156101000203166002900480601f016020809104026020016040519081016040528092919081815260200182805460018160011615610100020316600290048015611ec25780601f10611e9757610100808354040283529160200191611ec2565b820191906000526020600020905b815481529060010190602001808311611ea557829003601f168201915b505050505091509450945094509450945091939590929450565b6000808460430160008573ffffffffffffffffffffffffffffffffffffffff1673ffffffffffffffffffffffffffffffffffffffff168152602001908152602001600020600001541115611fb9576000611fa483611f9687600301600060405180807f7374616b65416d7400000000000000000000000000000000000000000000000081525060080190506040518091039020815260200190815260200160002054611f888989611b3c565b61250090919063ffffffff16565b61250090919063ffffffff16565b101515611fb45760019050611fed565b611fe8565b6000611fd783611fc98787611b3c565b61250090919063ffffffff16565b101515611fe75760019050611fed565b5b600090505b9392505050565b600082604501600083815260200190815260200160002054905092915050565b600083604001600084815260200190815260200160002060060160008373ffffffffffffffffffffffffffffffffffffffff1673ffffffffffffffffffffffffffffffffffffffff16815260200190815260200160002060009054906101000a900460ff1690509392505050565b6000806000806000806000612095612583565b6000808b60400160008c8152602001908152602001600020905080600001548160010160009054906101000a900460ff168260010160019054906101000a900460ff168360010160029054906101000a900460ff168460010160039054906101000a900473ffffffffffffffffffffffffffffffffffffffff168560020160009054906101000a900473ffffffffffffffffffffffffffffffffffffffff168660030160009054906101000a900473ffffffffffffffffffffffffffffffffffffffff166101006040519081016040528089600401600060405180807f617069496400000000000000000000000000000000000000000000000000000081525060050190506040518091039020815260200190815260200160002054815260200189600401600060405180807f74696d657374616d70000000000000000000000000000000000000000000000081525060090190506040518091039020815260200190815260200160002054815260200189600401600060405180807f76616c756500000000000000000000000000000000000000000000000000000081525060050190506040518091039020815260200190815260200160002054815260200189600401600060405180807f6d696e457865637574696f6e446174650000000000000000000000000000000081525060100190506040518091039020815260200190815260200160002054815260200189600401600060405180807f6e756d6265724f66566f74657300000000000000000000000000000000000000815250600d0190506040518091039020815260200190815260200160002054815260200189600401600060405180807f626c6f636b4e756d626572000000000000000000000000000000000000000000815250600b0190506040518091039020815260200190815260200160002054815260200189600401600060405180807f696e64657800000000000000000000000000000000000000000000000000000081525060050190506040518091039020815260200190815260200160002054815260200189600401600060405180807f71756f72756d0000000000000000000000000000000000000000000000000000815250600601905060405180910390208152602001908152602001600020548152508860050154995099509950995099509950995099509950509295985092959850929598565b600083604401600084815260200190815260200160002060040160008381526020019081526020016000205490509392505050565b6000806124f58384603e01600086600301600060405180807f74696d654f664c61737450726f6f660000000000000000000000000000000000815250600f019050604051809103902081526020019081526020016000205481526020019081526020016000205485600301600060405180807f74696d654f664c61737450726f6f660000000000000000000000000000000000815250600f0190506040518091039020815260200190815260200160002054611c49565b600191509150915091565b600082821115151561250e57fe5b818303905092915050565b61066060405190810160405280603390602082028038833980820191505090505090565b60a060405190810160405280600590602082028038833980820191505090505090565b60a060405190810160405280600590602082028038833980820191505090505090565b6101006040519081016040528060089060208202803883398082019150509050509056fea165627a7a72305820fd557e7d82e4b1c5ca548c7e8de9c4f82b93168579536f4f292b0a29f2f87fca0029",
  "source": "pragma solidity ^0.5.0;\n\nimport \"./libraries/SafeMath.sol\"; \nimport \"./libraries/TellorGettersLibrary.sol\";\n\n//add in base getters for eteernal storage\n//add in getters for public variables\n\ncontract TellorGetters{\n    using SafeMath for uint256;\n    using TellorGettersLibrary for TellorGettersLibrary.TellorStorageStruct;\n    TellorGettersLibrary.TellorStorageStruct tellor;\n    \n     /**\n    * @param _user address\n    * @param _spender address\n    * @return Returns the remaining allowance of tokens granted to the _spender from the _user\n    */\n    function allowance(address _user, address _spender) external view returns (uint) {\n       return tellor.allowance(_user,_spender);\n    }\n/**\n     *@dev This function returns whether or not a given user is allowed to trade a given amount  \n     *@param address of user\n     *@param address of amount\n    */\n    function allowedToTrade(address _user,uint _amount) external view returns(bool){\n        return tellor.allowedToTrade(_user,_amount);\n    }\n\n    /**\n    * @dev Gets balance of owner specified\n    * @param _user is the owner address used to look up the balance\n    * @return Returns the balance associated with the passed in _user\n    */\n    function balanceOf(address _user) external view returns (uint bal) { \n        return tellor.balanceOf(_user);\n    }\n/**\n    * @dev Queries the balance of _user at a specific _blockNumber\n    * @param _user The address from which the balance will be retrieved\n    * @param _blockNumber The block number when the balance is queried\n    * @return The balance at _blockNumber\n    */\n    function balanceOfAt(address _user, uint _blockNumber) external view returns (uint) {\n        return tellor.balanceOfAt(_user,_blockNumber);\n    }\n\n    /**\n    * @dev This function tells you if a given challenge has been completed by a given miner\n    * @param _challenge the challenge to search for\n    * @param _miner address that you want to know if they solved the challenge\n    * @return true if the _miner address provided solved the \n    */\n    function didMine(bytes32 _challenge,address _miner) external view returns(bool){\n        return tellor.didMine(_challenge,_miner);\n    }\n    /**\n    * @dev Checks if an address voted in a dispute\n    * @param _disputeId to look up\n    * @param _address to look up\n    * @return bool of whether or not party voted\n    */\n    function didVote(uint _disputeId, address _address) external view returns(bool){\n        return tellor.didVote(_disputeId,_address);\n    }\n\n\n    //self.addressVars[keccak256(\"_owner\")]\n    //addressVars[keccak256(\"tellorContract\")]\n    function getAddressVars(bytes32 _data) view external returns(address){\n        return tellor.getAddressVars(_data);\n    }\n\n    /**\n    * @dev Gets all dispute variables\n    * @param _disputeId to look up\n    * @return address of reported miner\n    * @return address of reporting party\n    * @return disputed apiId\n    * @return disputed minimum execution date\n    * @return uint number of votes\n    * @return uint blockNumber of vote\n    * @return uint index in disputeId array\n    * @return int count of the current tally\n    * @return bool of whether vote has been tallied\n    */\n    function getAllDisputeVars(uint _disputeId) public view returns(bytes32, bool, bool, bool, address, address, address,uint[8] memory, int){\n        return tellor.getAllDisputeVars(_disputeId);\n    }\n        /**\n    * @dev Getter function for apiId based on timestamp. Only one value is mined per\n    * timestamp and each timestamp can correspond to a different API. \n    * @param _timestamp to check APIId\n    * @return apiId\n    */\n    function getApiForTime(uint _timestamp) external view returns(uint){    \n        return tellor.getApiForTime(_timestamp);\n    }\n   /**\n    * @dev Getter function for apiId based on api hash\n    * @param _api string to check if it already has an apiId\n    * @return uint apiId\n    */\n    function getApiId(bytes32 _api) external view returns(uint){    \n        return tellor.getApiId(_api);\n    }\n\n    function getApiUintVars(uint _apiId,bytes32 _data) internal view returns(uint){\n        return tellor.getApiUintVars(_apiId,_data);\n    }\n\n      /**\n    * @dev Gets the API struct variables that are not mappings\n    * @param _apiId to look up\n    * @return string of api to query\n    * @return bytes32 hash of string\n    * @return uint of index in PayoutPool array\n    * @return uint of current payout for this api\n    */\n    function getApiVars(uint _apiId) external view returns(string memory, string memory,bytes32,uint, uint, uint) {\n        return tellor.getApiVars(_apiId);\n    }\n\n\n    /**\n    * @dev Checks if a given hash of miner,apiId has been disputed\n    * @param _hash of sha256(abi.encodePacked(_miners[2],_apiId));\n    * @return uint disputeId\n    */\n    function getDisputeHashToId(bytes32 _hash) external view returns(uint){\n        return  tellor.getDisputeHashToId(_hash);\n    }\n    \n    function getDisputeUintVars(uint _disputeId,bytes32 _data) internal view returns(uint){\n        return tellor.getDisputeUintVars(_disputeId,_data);\n    }\n    /**\n    * @dev Gets the a value for the latest timestamp available\n    * @return value for timestamp of last proof of work submited\n    */\n    function getLastQuery() external view returns(uint,bool){\n        return tellor.getLastQuery();\n    }\n\n    /**\n    * @dev Gets blocknumber for mined timestamp \n    * @param _apiId to look up\n    * @param _timestamp is the timestamp to look up blocknumber\n    * @return uint of the blocknumber which the dispute was mined\n    */\n    function getMinedBlockNum(uint _apiId, uint _timestamp) external view returns(uint){\n        return tellor.getMinedBlockNum(_apiId,_timestamp);\n    }\n    /**\n    * @dev Gets the 5 miners who mined the value for the specified apiId/_timestamp \n    * @param _apiId to look up\n    * @param _timestamp is the timestampt to look up miners for\n    */\n    function getMinersByValue(uint _apiId, uint _timestamp) external view returns(address[5] memory){\n        return tellor.getMinersByValue(_apiId,_timestamp);\n    }\n\n    function getPayoutPool() view public returns(uint[51] memory){\n        return tellor.getPayoutPool();\n    }\n        /**\n    * @dev Getter function for the apiId for the specified payoutPool index\n    * @param _payoutPoolIndexToApiId to look up the apiId\n    * @return apiId\n    */\n    function getpayoutPoolIndexToApiId(uint _payoutPoolIndexToApiId) external view returns(uint){\n        return tellor.getpayoutPoolIndexToApiId(_payoutPoolIndexToApiId);\n    }\n    /**\n     *@dev This function allows users to retireve all information about a staker\n     *@param address of staker enquiring about\n     *@return uint current state of staker\n     *@return uint startDate of staking\n    */\n    function getStakerInfo(address _staker) external view returns(uint,uint){\n        return tellor.getStakerInfo(_staker);\n    }\n            /**\n    * @dev Gets the 5 miners who mined the value for the specified apiId/_timestamp \n    * @param _apiId to look up\n    * @param _timestamp is the timestampt to look up miners for\n    */\n    function getSubmissionsByTimestamp(uint _apiId, uint _timestamp) external view returns(uint[5] memory){\n        return tellor.getSubmissionsByTimestamp(_apiId,_timestamp);\n    }\n\n    function getUintVar(bytes32 _data) view public returns(uint){\n        return tellor.getUintVar(_data);\n    }\n\n     /**\n    * @dev Getter function for currentChallenge difficulty_level\n    * @return current challenge, MiningApiID, level of difficulty_level\n    */\n    function getVariables() external view returns(bytes32, uint, uint,string memory,uint){    \n        return tellor.getVariables();\n    }\n\n    /**\n    * @dev Getter function for api on queue\n    * @return apionQ hash, id, payout, and api string\n    */\n    function getVariablesOnQ() external view returns(uint, uint,string memory){    \n        return tellor.getVariablesOnQ();\n    }\n    \n    /**\n    * @dev Gets the 5 miners who mined the value for the specified apiId/_timestamp \n    * @param _apiId to look up\n    * @param _timestamp is the timestampt to look up miners for\n    */\n    function isInDispute(uint _apiId, uint _timestamp) external view returns(bool){\n        return tellor.isInDispute(_apiId,_timestamp);\n    }\n    function name() internal returns(string memory){\n        return tellor.name();\n    }\n\n    /**\n    * @dev Retreive value from oracle based on timestamp\n    * @param _apiId being requested\n    * @param _timestamp to retreive data/value from\n    * @return value for timestamp submitted\n    */\n    function retrieveData(uint _apiId, uint _timestamp) external view returns (uint) {\n        return tellor.retrieveData(_apiId,_timestamp);\n    }\n\n        function symbol() internal returns(string memory){\n        return tellor.symbol();\n    } \n\n    /**\n    * @dev Getter for the total_supply of oracle tokens\n    * @return total supply\n    */\n    function totalSupply() external view returns (uint) {\n       return tellor.totalSupply();\n    }\n\n}",
  "sourcePath": "/Users/mdcoon/git/TellorCore/contracts/TellorGetters.sol",
  "compiler": {
    "name": "solc",
    "version": "0.5.0+commit.1d4f565a.Emscripten.clang"
  },
  "schemaVersion": "3.0.6",
  "updatedAt": "2019-04-12T16:02:16.574Z",
  "devdoc": {
    "methods": {
      "allowance(address,address)": {
        "params": {
          "_spender": "address",
          "_user": "address"
        },
        "return": "Returns the remaining allowance of tokens granted to the _spender from the _user"
      },
      "balanceOf(address)": {
        "details": "Gets balance of owner specified",
        "params": {
          "_user": "is the owner address used to look up the balance"
        },
        "return": "Returns the balance associated with the passed in _user"
      },
      "balanceOfAt(address,uint256)": {
        "details": "Queries the balance of _user at a specific _blockNumber",
        "params": {
          "_blockNumber": "The block number when the balance is queried",
          "_user": "The address from which the balance will be retrieved"
        },
        "return": "The balance at _blockNumber"
      },
      "didMine(bytes32,address)": {
        "details": "This function tells you if a given challenge has been completed by a given miner",
        "params": {
          "_challenge": "the challenge to search for",
          "_miner": "address that you want to know if they solved the challenge"
        },
        "return": "true if the _miner address provided solved the "
      },
      "didVote(uint256,address)": {
        "details": "Checks if an address voted in a dispute",
        "params": {
          "_address": "to look up",
          "_disputeId": "to look up"
        },
        "return": "bool of whether or not party voted"
      },
      "getAllDisputeVars(uint256)": {
        "details": "Gets all dispute variables",
        "params": {
          "_disputeId": "to look up"
        },
        "return": "address of reported mineraddress of reporting partydisputed apiIddisputed minimum execution dateuint number of votesuint blockNumber of voteuint index in disputeId arrayint count of the current tallybool of whether vote has been tallied"
      },
      "getApiForTime(uint256)": {
        "details": "Getter function for apiId based on timestamp. Only one value is mined per timestamp and each timestamp can correspond to a different API. ",
        "params": {
          "_timestamp": "to check APIId"
        },
        "return": "apiId"
      },
      "getApiId(bytes32)": {
        "details": "Getter function for apiId based on api hash",
        "params": {
          "_api": "string to check if it already has an apiId"
        },
        "return": "uint apiId"
      },
      "getApiVars(uint256)": {
        "details": "Gets the API struct variables that are not mappings",
        "params": {
          "_apiId": "to look up"
        },
        "return": "string of api to querybytes32 hash of stringuint of index in PayoutPool arrayuint of current payout for this api"
      },
      "getDisputeHashToId(bytes32)": {
        "details": "Checks if a given hash of miner,apiId has been disputed",
        "params": {
          "_hash": "of sha256(abi.encodePacked(_miners[2],_apiId));"
        },
        "return": "uint disputeId"
      },
      "getLastQuery()": {
        "details": "Gets the a value for the latest timestamp available",
        "return": "value for timestamp of last proof of work submited"
      },
      "getMinedBlockNum(uint256,uint256)": {
        "details": "Gets blocknumber for mined timestamp ",
        "params": {
          "_apiId": "to look up",
          "_timestamp": "is the timestamp to look up blocknumber"
        },
        "return": "uint of the blocknumber which the dispute was mined"
      },
      "getMinersByValue(uint256,uint256)": {
        "details": "Gets the 5 miners who mined the value for the specified apiId/_timestamp ",
        "params": {
          "_apiId": "to look up",
          "_timestamp": "is the timestampt to look up miners for"
        }
      },
      "getSubmissionsByTimestamp(uint256,uint256)": {
        "details": "Gets the 5 miners who mined the value for the specified apiId/_timestamp ",
        "params": {
          "_apiId": "to look up",
          "_timestamp": "is the timestampt to look up miners for"
        }
      },
      "getVariables()": {
        "details": "Getter function for currentChallenge difficulty_level",
        "return": "current challenge, MiningApiID, level of difficulty_level"
      },
      "getVariablesOnQ()": {
        "details": "Getter function for api on queue",
        "return": "apionQ hash, id, payout, and api string"
      },
      "getpayoutPoolIndexToApiId(uint256)": {
        "details": "Getter function for the apiId for the specified payoutPool index",
        "params": {
          "_payoutPoolIndexToApiId": "to look up the apiId"
        },
        "return": "apiId"
      },
      "isInDispute(uint256,uint256)": {
        "details": "Gets the 5 miners who mined the value for the specified apiId/_timestamp ",
        "params": {
          "_apiId": "to look up",
          "_timestamp": "is the timestampt to look up miners for"
        }
      },
      "retrieveData(uint256,uint256)": {
        "details": "Retreive value from oracle based on timestamp",
        "params": {
          "_apiId": "being requested",
          "_timestamp": "to retreive data/value from"
        },
        "return": "value for timestamp submitted"
      },
      "totalSupply()": {
        "details": "Getter for the total_supply of oracle tokens",
        "return": "total supply"
      }
    }
  },
  "userdoc": {
    "methods": {
      "allowedToTrade(address,uint256)": {
        "notice": "dev This function returns whether or not a given user is allowed to trade a given amount   param address of user param address of amount"
      },
      "getStakerInfo(address)": {
        "notice": "dev This function allows users to retireve all information about a staker param address of staker enquiring about return uint current state of staker return uint startDate of staking"
      }
    }
  }
}