{
  "contractName": "TellorMaster",
  "abi": [
    {
      "constant": true,
      "inputs": [
        {
          "name": "_timestamp",
          "type": "uint256"
        }
      ],
      "name": "getRequestIdByTimestamp",
      "outputs": [
        {
          "name": "",
          "type": "uint256"
        }
      ],
      "payable": false,
      "stateMutability": "view",
      "type": "function",
      "signature": "0x0f0b424d"
    },
    {
      "constant": true,
      "inputs": [
        {
          "name": "_requestId",
          "type": "uint256"
        },
        {
          "name": "_timestamp",
          "type": "uint256"
        }
      ],
      "name": "getSubmissionsByTimestamp",
      "outputs": [
        {
          "name": "",
          "type": "uint256[5]"
        }
      ],
      "payable": false,
      "stateMutability": "view",
      "type": "function",
      "signature": "0x11c98512"
    },
    {
      "constant": true,
      "inputs": [
        {
          "name": "_data",
          "type": "bytes32"
        }
      ],
      "name": "getAddressVars",
      "outputs": [
        {
          "name": "",
          "type": "address"
        }
      ],
      "payable": false,
      "stateMutability": "view",
      "type": "function",
      "signature": "0x133bee5e"
    },
    {
      "constant": true,
      "inputs": [],
      "name": "totalSupply",
      "outputs": [
        {
          "name": "",
          "type": "uint256"
        }
      ],
      "payable": false,
      "stateMutability": "view",
      "type": "function",
      "signature": "0x18160ddd"
    },
    {
      "constant": true,
      "inputs": [],
      "name": "getVariablesOnDeck",
      "outputs": [
        {
          "name": "",
          "type": "uint256"
        },
        {
          "name": "",
          "type": "uint256"
        },
        {
          "name": "",
          "type": "string"
        }
      ],
      "payable": false,
      "stateMutability": "view",
      "type": "function",
      "signature": "0x19e8e03b"
    },
    {
      "constant": true,
      "inputs": [
        {
          "name": "_request",
          "type": "bytes32"
        }
      ],
      "name": "getRequestIdByQueryHash",
      "outputs": [
        {
          "name": "",
          "type": "uint256"
        }
      ],
      "payable": false,
      "stateMutability": "view",
      "type": "function",
      "signature": "0x1db842f0"
    },
    {
      "constant": true,
      "inputs": [
        {
          "name": "_requestId",
          "type": "uint256"
        },
        {
          "name": "_timestamp",
          "type": "uint256"
        }
      ],
      "name": "isInDispute",
      "outputs": [
        {
          "name": "",
          "type": "bool"
        }
      ],
      "payable": false,
      "stateMutability": "view",
      "type": "function",
      "signature": "0x3df0777b"
    },
    {
      "constant": true,
      "inputs": [
        {
          "name": "_requestId",
          "type": "uint256"
        }
      ],
      "name": "getNewValueCountbyRequestId",
      "outputs": [
        {
          "name": "",
          "type": "uint256"
        }
      ],
      "payable": false,
      "stateMutability": "view",
      "type": "function",
      "signature": "0x46eee1c4"
    },
    {
      "constant": true,
      "inputs": [
        {
          "name": "_user",
          "type": "address"
        },
        {
          "name": "_blockNumber",
          "type": "uint256"
        }
      ],
      "name": "balanceOfAt",
      "outputs": [
        {
          "name": "",
          "type": "uint256"
        }
      ],
      "payable": false,
      "stateMutability": "view",
      "type": "function",
      "signature": "0x4ee2cd7e"
    },
    {
      "constant": true,
      "inputs": [
        {
          "name": "_data",
          "type": "bytes32"
        }
      ],
      "name": "getUintVar",
      "outputs": [
        {
          "name": "",
          "type": "uint256"
        }
      ],
      "payable": false,
      "stateMutability": "view",
      "type": "function",
      "signature": "0x612c8f7f"
    },
    {
      "constant": true,
      "inputs": [
        {
          "name": "_index",
          "type": "uint256"
        }
      ],
      "name": "getRequestIdByRequestQIndex",
      "outputs": [
        {
          "name": "",
          "type": "uint256"
        }
      ],
      "payable": false,
      "stateMutability": "view",
      "type": "function",
      "signature": "0x6173c0b8"
    },
    {
      "constant": true,
      "inputs": [
        {
          "name": "_challenge",
          "type": "bytes32"
        },
        {
          "name": "_miner",
          "type": "address"
        }
      ],
      "name": "didMine",
      "outputs": [
        {
          "name": "",
          "type": "bool"
        }
      ],
      "payable": false,
      "stateMutability": "view",
      "type": "function",
      "signature": "0x63bb82ad"
    },
    {
      "constant": true,
      "inputs": [
        {
          "name": "_requestId",
          "type": "uint256"
        },
        {
          "name": "_timestamp",
          "type": "uint256"
        }
      ],
      "name": "getMinersByRequestIdAndTimestamp",
      "outputs": [
        {
          "name": "",
          "type": "address[5]"
        }
      ],
      "payable": false,
      "stateMutability": "view",
      "type": "function",
      "signature": "0x69026d63"
    },
    {
      "constant": true,
      "inputs": [
        {
          "name": "_user",
          "type": "address"
        }
      ],
      "name": "balanceOf",
      "outputs": [
        {
          "name": "",
          "type": "uint256"
        }
      ],
      "payable": false,
      "stateMutability": "view",
      "type": "function",
      "signature": "0x70a08231"
    },
    {
      "constant": true,
      "inputs": [
        {
          "name": "_staker",
          "type": "address"
        }
      ],
      "name": "getStakerInfo",
      "outputs": [
        {
          "name": "",
          "type": "uint256"
        },
        {
          "name": "",
          "type": "uint256"
        }
      ],
      "payable": false,
      "stateMutability": "view",
      "type": "function",
      "signature": "0x733bdef0"
    },
    {
      "constant": true,
      "inputs": [
        {
          "name": "_requestID",
          "type": "uint256"
        },
        {
          "name": "_index",
          "type": "uint256"
        }
      ],
      "name": "getTimestampbyRequestIDandIndex",
      "outputs": [
        {
          "name": "",
          "type": "uint256"
        }
      ],
      "payable": false,
      "stateMutability": "view",
      "type": "function",
      "signature": "0x77fbb663"
    },
    {
      "constant": true,
      "inputs": [
        {
          "name": "_requestId",
          "type": "uint256"
        },
        {
          "name": "_timestamp",
          "type": "uint256"
        }
      ],
      "name": "retrieveData",
      "outputs": [
        {
          "name": "",
          "type": "uint256"
        }
      ],
      "payable": false,
      "stateMutability": "view",
      "type": "function",
      "signature": "0x93fa4915"
    },
    {
      "constant": true,
      "inputs": [
        {
          "name": "_user",
          "type": "address"
        },
        {
          "name": "_amount",
          "type": "uint256"
        }
      ],
      "name": "allowedToTrade",
      "outputs": [
        {
          "name": "",
          "type": "bool"
        }
      ],
      "payable": false,
      "stateMutability": "view",
      "type": "function",
      "signature": "0x999cf26c"
    },
    {
      "constant": true,
      "inputs": [],
      "name": "getCurrentVariables",
      "outputs": [
        {
          "name": "",
          "type": "bytes32"
        },
        {
          "name": "",
          "type": "uint256"
        },
        {
          "name": "",
          "type": "uint256"
        },
        {
          "name": "",
          "type": "string"
        },
        {
          "name": "",
          "type": "uint256"
        },
        {
          "name": "",
          "type": "uint256"
        }
      ],
      "payable": false,
      "stateMutability": "view",
      "type": "function",
      "signature": "0xa22e407a"
    },
    {
      "constant": true,
      "inputs": [
        {
          "name": "_disputeId",
          "type": "uint256"
        },
        {
          "name": "_address",
          "type": "address"
        }
      ],
      "name": "didVote",
      "outputs": [
        {
          "name": "",
          "type": "bool"
        }
      ],
      "payable": false,
      "stateMutability": "view",
      "type": "function",
      "signature": "0xa7c438bc"
    },
    {
      "constant": true,
      "inputs": [
        {
          "name": "_disputeId",
          "type": "uint256"
        }
      ],
      "name": "getAllDisputeVars",
      "outputs": [
        {
          "name": "",
          "type": "bytes32"
        },
        {
          "name": "",
          "type": "bool"
        },
        {
          "name": "",
          "type": "bool"
        },
        {
          "name": "",
          "type": "bool"
        },
        {
          "name": "",
          "type": "address"
        },
        {
          "name": "",
          "type": "address"
        },
        {
          "name": "",
          "type": "address"
        },
        {
          "name": "",
          "type": "uint256[8]"
        },
        {
          "name": "",
          "type": "int256"
        }
      ],
      "payable": false,
      "stateMutability": "view",
      "type": "function",
      "signature": "0xaf0b1327"
    },
    {
      "constant": true,
      "inputs": [],
      "name": "getRequestQ",
      "outputs": [
        {
          "name": "",
          "type": "uint256[51]"
        }
      ],
      "payable": false,
      "stateMutability": "view",
      "type": "function",
      "signature": "0xb5413029"
    },
    {
      "constant": true,
      "inputs": [
        {
          "name": "_requestId",
          "type": "uint256"
        },
        {
          "name": "_timestamp",
          "type": "uint256"
        }
      ],
      "name": "getMinedBlockNum",
      "outputs": [
        {
          "name": "",
          "type": "uint256"
        }
      ],
      "payable": false,
      "stateMutability": "view",
      "type": "function",
      "signature": "0xc775b542"
    },
    {
      "constant": true,
      "inputs": [
        {
          "name": "_hash",
          "type": "bytes32"
        }
      ],
      "name": "getDisputeIdByDisputeHash",
      "outputs": [
        {
          "name": "",
          "type": "uint256"
        }
      ],
      "payable": false,
      "stateMutability": "view",
      "type": "function",
      "signature": "0xda379941"
    },
    {
      "constant": true,
      "inputs": [
        {
          "name": "_user",
          "type": "address"
        },
        {
          "name": "_spender",
          "type": "address"
        }
      ],
      "name": "allowance",
      "outputs": [
        {
          "name": "",
          "type": "uint256"
        }
      ],
      "payable": false,
      "stateMutability": "view",
      "type": "function",
      "signature": "0xdd62ed3e"
    },
    {
      "constant": true,
      "inputs": [
        {
          "name": "_requestId",
          "type": "uint256"
        }
      ],
      "name": "getRequestVars",
      "outputs": [
        {
          "name": "",
          "type": "string"
        },
        {
          "name": "",
          "type": "string"
        },
        {
          "name": "",
          "type": "bytes32"
        },
        {
          "name": "",
          "type": "uint256"
        },
        {
          "name": "",
          "type": "uint256"
        },
        {
          "name": "",
          "type": "uint256"
        }
      ],
      "payable": false,
      "stateMutability": "view",
      "type": "function",
      "signature": "0xe1eee6d6"
    },
    {
      "constant": true,
      "inputs": [],
      "name": "getLastNewValue",
      "outputs": [
        {
          "name": "",
          "type": "uint256"
        },
        {
          "name": "",
          "type": "bool"
        }
      ],
      "payable": false,
      "stateMutability": "view",
      "type": "function",
      "signature": "0xfc7cf0a0"
    },
    {
      "inputs": [
        {
          "name": "_tellorContract",
          "type": "address"
        }
      ],
      "payable": false,
      "stateMutability": "nonpayable",
      "type": "constructor",
      "signature": "constructor"
    },
    {
      "payable": true,
      "stateMutability": "payable",
      "type": "fallback"
    }
  ],
  "bytecode": "0x60806040523480156200001157600080fd5b5060405160208062002c33833981018060405260208110156200003357600080fd5b8101908080519060200190929190505050620000688160006200006f6401000000000262002896179091906401000000009004565b50620001e8565b3382604701600060405180807f5f6f776e6572000000000000000000000000000000000000000000000000000081525060060190506040518091039020815260200190815260200160002060006101000a81548173ffffffffffffffffffffffffffffffffffffffff021916908373ffffffffffffffffffffffffffffffffffffffff1602179055508082604701600060405180807f74656c6c6f72436f6e7472616374000000000000000000000000000000000000815250600e0190506040518091039020815260200190815260200160002060006101000a81548173ffffffffffffffffffffffffffffffffffffffff021916908373ffffffffffffffffffffffffffffffffffffffff1602179055507fc2d1449eb0b6547aa426e09d9942a77fa4fc8cd3296305b3163e22452e0bcb8d81604051808273ffffffffffffffffffffffffffffffffffffffff1673ffffffffffffffffffffffffffffffffffffffff16815260200191505060405180910390a15050565b612a3b80620001f86000396000f3fe60806040526004361061015f576000357c0100000000000000000000000000000000000000000000000000000000900463ffffffff1680630f0b424d1461024057806311c985121461028f578063133bee5e1461031057806318160ddd1461038b57806319e8e03b146103b65780631db842f0146104545780633df0777b146104a357806346eee1c4146105005780634ee2cd7e1461054f578063612c8f7f146105be5780636173c0b81461060d57806363bb82ad1461065c57806369026d63146106cf57806370a0823114610750578063733bdef0146107b557806377fbb6631461082157806393fa49151461087a578063999cf26c146108d3578063a22e407a14610946578063a7c438bc146109f9578063af0b132714610a6c578063b541302914610bab578063c775b54214610bfe578063da37994114610c57578063dd62ed3e14610ca6578063e1eee6d614610d2b578063fc7cf0a014610e67575b600080604701600060405180807f74656c6c6f72436f6e7472616374000000000000000000000000000000000000815250600e0190506040518091039020815260200190815260200160002060009054906101000a900473ffffffffffffffffffffffffffffffffffffffff16905060606000368080601f016020809104026020016040519081016040528093929190818152602001838380828437600081840152601f19601f82011690508083019250505050505050905060008082516020840185600019f43d604051816000823e826000811461023c578282f35b8282fd5b34801561024c57600080fd5b506102796004803603602081101561026357600080fd5b8101908080359060200190929190505050610e9d565b6040518082815260200191505060405180910390f35b34801561029b57600080fd5b506102d2600480360360408110156102b257600080fd5b810190808035906020019092919080359060200190929190505050610eba565b6040518082600560200280838360005b838110156102fd5780820151818401526020810190506102e2565b5050505090500191505060405180910390f35b34801561031c57600080fd5b506103496004803603602081101561033357600080fd5b8101908080359060200190929190505050610ee0565b604051808273ffffffffffffffffffffffffffffffffffffffff1673ffffffffffffffffffffffffffffffffffffffff16815260200191505060405180910390f35b34801561039757600080fd5b506103a0610efd565b6040518082815260200191505060405180910390f35b3480156103c257600080fd5b506103cb610f0e565b6040518084815260200183815260200180602001828103825283818151815260200191508051906020019080838360005b838110156104175780820151818401526020810190506103fc565b50505050905090810190601f1680156104445780820380516001836020036101000a031916815260200191505b5094505050505060405180910390f35b34801561046057600080fd5b5061048d6004803603602081101561047757600080fd5b8101908080359060200190929190505050610f28565b6040518082815260200191505060405180910390f35b3480156104af57600080fd5b506104e6600480360360408110156104c657600080fd5b810190808035906020019092919080359060200190929190505050610f45565b604051808215151515815260200191505060405180910390f35b34801561050c57600080fd5b506105396004803603602081101561052357600080fd5b8101908080359060200190929190505050610f65565b6040518082815260200191505060405180910390f35b34801561055b57600080fd5b506105a86004803603604081101561057257600080fd5b81019080803573ffffffffffffffffffffffffffffffffffffffff16906020019092919080359060200190929190505050610f82565b6040518082815260200191505060405180910390f35b3480156105ca57600080fd5b506105f7600480360360208110156105e157600080fd5b8101908080359060200190929190505050610fa2565b6040518082815260200191505060405180910390f35b34801561061957600080fd5b506106466004803603602081101561063057600080fd5b8101908080359060200190929190505050610fbf565b6040518082815260200191505060405180910390f35b34801561066857600080fd5b506106b56004803603604081101561067f57600080fd5b8101908080359060200190929190803573ffffffffffffffffffffffffffffffffffffffff169060200190929190505050610fdc565b604051808215151515815260200191505060405180910390f35b3480156106db57600080fd5b50610712600480360360408110156106f257600080fd5b810190808035906020019092919080359060200190929190505050610ffc565b6040518082600560200280838360005b8381101561073d578082015181840152602081019050610722565b5050505090500191505060405180910390f35b34801561075c57600080fd5b5061079f6004803603602081101561077357600080fd5b81019080803573ffffffffffffffffffffffffffffffffffffffff169060200190929190505050611022565b6040518082815260200191505060405180910390f35b3480156107c157600080fd5b50610804600480360360208110156107d857600080fd5b81019080803573ffffffffffffffffffffffffffffffffffffffff16906020019092919050505061103f565b604051808381526020018281526020019250505060405180910390f35b34801561082d57600080fd5b506108646004803603604081101561084457600080fd5b81019080803590602001909291908035906020019092919050505061105f565b6040518082815260200191505060405180910390f35b34801561088657600080fd5b506108bd6004803603604081101561089d57600080fd5b81019080803590602001909291908035906020019092919050505061107f565b6040518082815260200191505060405180910390f35b3480156108df57600080fd5b5061092c600480360360408110156108f657600080fd5b81019080803573ffffffffffffffffffffffffffffffffffffffff1690602001909291908035906020019092919050505061109f565b604051808215151515815260200191505060405180910390f35b34801561095257600080fd5b5061095b6110bf565b6040518087815260200186815260200185815260200180602001848152602001838152602001828103825285818151815260200191508051906020019080838360005b838110156109b957808201518184015260208101905061099e565b50505050905090810190601f1680156109e65780820380516001836020036101000a031916815260200191505b5097505050505050505060405180910390f35b348015610a0557600080fd5b50610a5260048036036040811015610a1c57600080fd5b8101908080359060200190929190803573ffffffffffffffffffffffffffffffffffffffff1690602001909291905050506110e7565b604051808215151515815260200191505060405180910390f35b348015610a7857600080fd5b50610aa560048036036020811015610a8f57600080fd5b8101908080359060200190929190505050611107565b604051808a81526020018915151515815260200188151515158152602001871515151581526020018673ffffffffffffffffffffffffffffffffffffffff1673ffffffffffffffffffffffffffffffffffffffff1681526020018573ffffffffffffffffffffffffffffffffffffffff1673ffffffffffffffffffffffffffffffffffffffff1681526020018473ffffffffffffffffffffffffffffffffffffffff1673ffffffffffffffffffffffffffffffffffffffff16815260200183600860200280838360005b83811015610b8a578082015181840152602081019050610b6f565b50505050905001828152602001995050505050505050505060405180910390f35b348015610bb757600080fd5b50610bc061114f565b6040518082603360200280838360005b83811015610beb578082015181840152602081019050610bd0565b5050505090500191505060405180910390f35b348015610c0a57600080fd5b50610c4160048036036040811015610c2157600080fd5b810190808035906020019092919080359060200190929190505050611166565b6040518082815260200191505060405180910390f35b348015610c6357600080fd5b50610c9060048036036020811015610c7a57600080fd5b8101908080359060200190929190505050611186565b6040518082815260200191505060405180910390f35b348015610cb257600080fd5b50610d1560048036036040811015610cc957600080fd5b81019080803573ffffffffffffffffffffffffffffffffffffffff169060200190929190803573ffffffffffffffffffffffffffffffffffffffff1690602001909291905050506111a3565b6040518082815260200191505060405180910390f35b348015610d3757600080fd5b50610d6460048036036020811015610d4e57600080fd5b81019080803590602001909291905050506112bd565b604051808060200180602001878152602001868152602001858152602001848152602001838103835289818151815260200191508051906020019080838360005b83811015610dc0578082015181840152602081019050610da5565b50505050905090810190601f168015610ded5780820380516001836020036101000a031916815260200191505b50838103825288818151815260200191508051906020019080838360005b83811015610e26578082015181840152602081019050610e0b565b50505050905090810190601f168015610e535780820380516001836020036101000a031916815260200191505b509850505050505050505060405180910390f35b348015610e7357600080fd5b50610e7c6112ef565b60405180838152602001821515151581526020019250505060405180910390f35b6000610eb382600061130490919063ffffffff16565b9050919050565b610ec2612808565b610ed8838360006113249092919063ffffffff16565b905092915050565b6000610ef682600061139a90919063ffffffff16565b9050919050565b6000610f0960006113da565b905090565b6000806060610f1d600061142e565b925092509250909192565b6000610f3e8260006115d490919063ffffffff16565b9050919050565b6000610f5d838360006115f49092919063ffffffff16565b905092915050565b6000610f7b82600061163690919063ffffffff16565b9050919050565b6000610f9a8383600061165c9092919063ffffffff16565b905092915050565b6000610fb882600061199f90919063ffffffff16565b9050919050565b6000610fd58260006119bf90919063ffffffff16565b9050919050565b6000610ff4838360006119df9092919063ffffffff16565b905092915050565b61100461282b565b61101a83836000611a4a9092919063ffffffff16565b905092915050565b6000611038826000611af690919063ffffffff16565b9050919050565b600080611056836000611b0b90919063ffffffff16565b91509150915091565b600061107783836000611ba39092919063ffffffff16565b905092915050565b600061109783836000611bde9092919063ffffffff16565b905092915050565b60006110b783836000611c139092919063ffffffff16565b905092915050565b600080600060606000806110d36000611d2b565b955095509550955095509550909192939495565b60006110ff838360006120359092919063ffffffff16565b905092915050565b600080600080600080600061111a61284e565b60006111308a60006120a390919063ffffffff16565b9850985098509850985098509850985098509193959799909294969850565b611157612872565b611161600061242a565b905090565b600061117e838360006124799092919063ffffffff16565b905092915050565b600061119c8260006124ae90919063ffffffff16565b9050919050565b60008073__TellorGettersLibrary__________________63912c0e65909185856040518463ffffffff167c0100000000000000000000000000000000000000000000000000000000028152600401808481526020018373ffffffffffffffffffffffffffffffffffffffff1673ffffffffffffffffffffffffffffffffffffffff1681526020018273ffffffffffffffffffffffffffffffffffffffff1673ffffffffffffffffffffffffffffffffffffffff168152602001935050505060206040518083038186803b15801561127a57600080fd5b505af415801561128e573d6000803e3d6000fd5b505050506040513d60208110156112a457600080fd5b8101908080519060200190929190505050905092915050565b6060806000806000806112da8760006124ce90919063ffffffff16565b95509550955095509550955091939550919395565b6000806112fc600061272d565b915091509091565b600082604a01600083815260200190815260200160002054905092915050565b61132c612808565b836050016000848152602001908152602001600020600901600083815260200190815260200160002060058060200260405190810160405280929190826005801561138c576020028201915b815481526020019060010190808311611378575b505050505090509392505050565b600082604701600083815260200190815260200160002060009054906101000a900473ffffffffffffffffffffffffffffffffffffffff16905092915050565b600081604801600060405180807f746f74616c5f737570706c790000000000000000000000000000000000000000815250600c01905060405180910390208152602001908152602001600020549050919050565b600080606083604801600060405180807f6f6e4465636b5265717565737449640000000000000000000000000000000000815250600f019050604051809103902081526020019081526020016000205484604801600060405180807f6f6e4465636b546f74616c546970730000000000000000000000000000000000815250600f019050604051809103902081526020019081526020016000205485605001600087604801600060405180807f6f6e4465636b5265717565737449640000000000000000000000000000000000815250600f01905060405180910390208152602001908152602001600020548152602001908152602001600020600001808054600181600116156101000203166002900480601f0160208091040260200160405190810160405280929190818152602001828054600181600116156101000203166002900480156115c05780601f10611595576101008083540402835291602001916115c0565b820191906000526020600020905b8154815290600101906020018083116115a357829003601f168201915b505050505090509250925092509193909250565b600082605101600083815260200190815260200160002054905092915050565b6000836050016000848152602001908152602001600020600701600083815260200190815260200160002060009054906101000a900460ff1690509392505050565b600082605001600083815260200190815260200160002060030180549050905092915050565b60008084604d0160008573ffffffffffffffffffffffffffffffffffffffff1673ffffffffffffffffffffffffffffffffffffffff16815260200190815260200160002080549050148061173957508184604d0160008573ffffffffffffffffffffffffffffffffffffffff1673ffffffffffffffffffffffffffffffffffffffff16815260200190815260200160002060008154811015156116fb57fe5b9060005260206000200160000160009054906101000a90046fffffffffffffffffffffffffffffffff166fffffffffffffffffffffffffffffffff16115b156117475760009050611998565b600084604d0160008573ffffffffffffffffffffffffffffffffffffffff1673ffffffffffffffffffffffffffffffffffffffff16815260200190815260200160002090506000818054905014156117a3576000915050611998565b8060018280549050038154811015156117b857fe5b9060005260206000200160000160009054906101000a90046fffffffffffffffffffffffffffffffff166fffffffffffffffffffffffffffffffff16831015156118555780600182805490500381548110151561181157fe5b9060005260206000200160000160109054906101000a90046fffffffffffffffffffffffffffffffff166fffffffffffffffffffffffffffffffff16915050611998565b80600081548110151561186457fe5b9060005260206000200160000160009054906101000a90046fffffffffffffffffffffffffffffffff166fffffffffffffffffffffffffffffffff168310156118b1576000915050611998565b60008090506000600183805490500390505b8181111561194857600060026001848401018115156118de57fe5b0490508584828154811015156118f057fe5b9060005260206000200160000160009054906101000a90046fffffffffffffffffffffffffffffffff166fffffffffffffffffffffffffffffffff1611151561193b57809250611942565b6001810391505b506118c3565b828281548110151561195657fe5b9060005260206000200160000160109054906101000a90046fffffffffffffffffffffffffffffffff166fffffffffffffffffffffffffffffffff1693505050505b9392505050565b600082604801600083815260200190815260200160002054905092915050565b600082604b01600083815260200190815260200160002054905092915050565b600083604901600084815260200190815260200160002060008373ffffffffffffffffffffffffffffffffffffffff1673ffffffffffffffffffffffffffffffffffffffff16815260200190815260200160002060009054906101000a900460ff1690509392505050565b611a5261282b565b8360500160008481526020019081526020016000206008016000838152602001908152602001600020600580602002604051908101604052809291908260058015611ae8576020028201915b8160009054906101000a900473ffffffffffffffffffffffffffffffffffffffff1673ffffffffffffffffffffffffffffffffffffffff1681526020019060010190808311611a9e575b505050505090509392505050565b6000611b0383834361165c565b905092915050565b60008083604f0160008473ffffffffffffffffffffffffffffffffffffffff1673ffffffffffffffffffffffffffffffffffffffff1681526020019081526020016000206000015484604f0160008573ffffffffffffffffffffffffffffffffffffffff1673ffffffffffffffffffffffffffffffffffffffff16815260200190815260200160002060010154915091509250929050565b600083605001600084815260200190815260200160002060030182815481101515611bca57fe5b906000526020600020015490509392505050565b600083605001600084815260200190815260200160002060060160008381526020019081526020016000205490509392505050565b60008084604f0160008573ffffffffffffffffffffffffffffffffffffffff1673ffffffffffffffffffffffffffffffffffffffff168152602001908152602001600020600001541115611cf0576000611cdb83611ccd87604801600060405180807f7374616b65416d6f756e74000000000000000000000000000000000000000000815250600b0190506040518091039020815260200190815260200160002054611cbf8989611af6565b6127ef90919063ffffffff16565b6127ef90919063ffffffff16565b101515611ceb5760019050611d24565b611d1f565b6000611d0e83611d008787611af6565b6127ef90919063ffffffff16565b101515611d1e5760019050611d24565b5b600090505b9392505050565b60008060006060600080866000015487604801600060405180807f63757272656e74526571756573744964000000000000000000000000000000008152506010019050604051809103902081526020019081526020016000205488604801600060405180807f646966666963756c747900000000000000000000000000000000000000000000815250600a01905060405180910390208152602001908152602001600020548960500160008b604801600060405180807f63757272656e74526571756573744964000000000000000000000000000000008152506010019050604051809103902081526020019081526020016000205481526020019081526020016000206000018a60500160008c604801600060405180807f63757272656e7452657175657374496400000000000000000000000000000000815250601001905060405180910390208152602001908152602001600020548152602001908152602001600020600401600060405180807f6772616e756c6172697479000000000000000000000000000000000000000000815250600b01905060405180910390208152602001908152602001600020548b60500160008d604801600060405180807f63757272656e7452657175657374496400000000000000000000000000000000815250601001905060405180910390208152602001908152602001600020548152602001908152602001600020600401600060405180807f746f74616c54697000000000000000000000000000000000000000000000000081525060080190506040518091039020815260200190815260200160002054828054600181600116156101000203166002900480601f0160208091040260200160405190810160405280929190818152602001828054600181600116156101000203166002900480156120195780601f10611fee57610100808354040283529160200191612019565b820191906000526020600020905b815481529060010190602001808311611ffc57829003601f168201915b5050505050925095509550955095509550955091939550919395565b600083604c01600084815260200190815260200160002060060160008373ffffffffffffffffffffffffffffffffffffffff1673ffffffffffffffffffffffffffffffffffffffff16815260200190815260200160002060009054906101000a900460ff1690509392505050565b60008060008060008060006120b661284e565b6000808b604c0160008c8152602001908152602001600020905080600001548160020160009054906101000a900460ff168260020160019054906101000a900460ff168360020160029054906101000a900460ff168460020160039054906101000a900473ffffffffffffffffffffffffffffffffffffffff168560030160009054906101000a900473ffffffffffffffffffffffffffffffffffffffff168660040160009054906101000a900473ffffffffffffffffffffffffffffffffffffffff166101006040519081016040528089600501600060405180807f726571756573744964000000000000000000000000000000000000000000000081525060090190506040518091039020815260200190815260200160002054815260200189600501600060405180807f74696d657374616d70000000000000000000000000000000000000000000000081525060090190506040518091039020815260200190815260200160002054815260200189600501600060405180807f76616c756500000000000000000000000000000000000000000000000000000081525060050190506040518091039020815260200190815260200160002054815260200189600501600060405180807f6d696e457865637574696f6e446174650000000000000000000000000000000081525060100190506040518091039020815260200190815260200160002054815260200189600501600060405180807f6e756d6265724f66566f74657300000000000000000000000000000000000000815250600d0190506040518091039020815260200190815260200160002054815260200189600501600060405180807f626c6f636b4e756d626572000000000000000000000000000000000000000000815250600b0190506040518091039020815260200190815260200160002054815260200189600501600060405180807f6d696e6572536c6f74000000000000000000000000000000000000000000000081525060090190506040518091039020815260200190815260200160002054815260200189600501600060405180807f71756f72756d0000000000000000000000000000000000000000000000000000815250600601905060405180910390208152602001908152602001600020548152508860010154995099509950995099509950995099509950509295985092959850929598565b612432612872565b8160090160338060200260405190810160405280929190826033801561246d576020028201915b815481526020019060010190808311612459575b50505050509050919050565b600083605001600084815260200190815260200160002060050160008381526020019081526020016000205490509392505050565b600082605201600083815260200190815260200160002054905092915050565b606080600080600080600088605001600089815260200190815260200160002090508060000181600101826002015483600401600060405180807f6772616e756c6172697479000000000000000000000000000000000000000000815250600b019050604051809103902081526020019081526020016000205484600401600060405180807f7265717565737451506f736974696f6e000000000000000000000000000000008152506010019050604051809103902081526020019081526020016000205485600401600060405180807f746f74616c54697000000000000000000000000000000000000000000000000081525060080190506040518091039020815260200190815260200160002054858054600181600116156101000203166002900480601f0160208091040260200160405190810160405280929190818152602001828054600181600116156101000203166002900480156126735780601f1061264857610100808354040283529160200191612673565b820191906000526020600020905b81548152906001019060200180831161265657829003601f168201915b50505050509550848054600181600116156101000203166002900480601f01602080910402602001604051908101604052809291908181526020018280546001816001161561010002031660029004801561270f5780601f106126e45761010080835404028352916020019161270f565b820191906000526020600020905b8154815290600101906020018083116126f257829003601f168201915b50505050509450965096509650965096509650509295509295509295565b6000806127e48384604a01600086604801600060405180807f74696d654f664c6173744e657756616c756500000000000000000000000000008152506012019050604051809103902081526020019081526020016000205481526020019081526020016000205485604801600060405180807f74696d654f664c6173744e657756616c7565000000000000000000000000000081525060120190506040518091039020815260200190815260200160002054611bde565b600191509150915091565b60008282111515156127fd57fe5b818303905092915050565b60a060405190810160405280600590602082028038833980820191505090505090565b60a060405190810160405280600590602082028038833980820191505090505090565b61010060405190810160405280600890602082028038833980820191505090505090565b61066060405190810160405280603390602082028038833980820191505090505090565b3382604701600060405180807f5f6f776e6572000000000000000000000000000000000000000000000000000081525060060190506040518091039020815260200190815260200160002060006101000a81548173ffffffffffffffffffffffffffffffffffffffff021916908373ffffffffffffffffffffffffffffffffffffffff1602179055508082604701600060405180807f74656c6c6f72436f6e7472616374000000000000000000000000000000000000815250600e0190506040518091039020815260200190815260200160002060006101000a81548173ffffffffffffffffffffffffffffffffffffffff021916908373ffffffffffffffffffffffffffffffffffffffff1602179055507fc2d1449eb0b6547aa426e09d9942a77fa4fc8cd3296305b3163e22452e0bcb8d81604051808273ffffffffffffffffffffffffffffffffffffffff1673ffffffffffffffffffffffffffffffffffffffff16815260200191505060405180910390a1505056fea165627a7a723058208a8516a13a03b1dcb6b2b272124786a3bec309b95b6d38aed8a68026aa4c5a430029",
  "source": "pragma solidity ^0.5.0;\n\nimport \"./TellorGetters.sol\";\nimport \"./libraries/TellorLibrary.sol\";\nimport \"./libraries/TellorGettersLibrary.sol\";\n\ncontract TellorMaster is TellorGetters{\n    /**\n     * @dev The constructor sets the original `tellorStorageOwner` of the contract to the sender\n     * account.\n    */\n    constructor (address _tellorContract)  public{\n        tellor.tellorMasterConstructor(_tellorContract);\n    }\n\n    function () external payable {\n        address addr = tellor.addressVars[keccak256(\"tellorContract\")];\n        bytes memory _calldata = msg.data;\n        assembly {\n            let result := delegatecall(not(0), addr, add(_calldata, 0x20), mload(_calldata), 0, 0)\n            let size := returndatasize\n            let ptr := mload(0x40)\n            returndatacopy(ptr, 0, size)\n            // revert instead of invalid() bc if the underlying call failed with invalid() it already wasted gas.\n            // if the call returned error data, forward it\n            switch result case 0 { revert(ptr, size) }\n            default { return(ptr, size) }\n        }\n    }\n\n}\n\n        // Test this one:\n        //     let result := delegatecall(not(0), addr, add(_calldata, 0x20), mload(_calldata), 0, 0)\n        //     let size := returndatasize\n        //     let ptr := mload(0x40)\n        //     returndatacopy(ptr, 0, size)\n\n        //     // revert instead of invalid() bc if the underlying call failed with invalid() it already wasted gas.\n        //     // if the call returned error data, forward it\n        //     switch result case 0 { revert(ptr, size) }\n        //     default { return(ptr, size) }\n\n\n        //     vs old:\n\n        //                 let freememstart := mload(0x40)\n        //     calldatacopy(freememstart, 0, calldatasize())\n        //     let success := delegatecall(not(0), addr, freememstart, calldatasize(), freememstart, 32)\n        //     switch success\n        //     case 0 { revert(freememstart, 32) }\n        //     default { return(freememstart, 32) }",
  "sourcePath": "/Users/mdcoon/git/TellorCore/contracts/TellorMaster.sol",
  "compiler": {
    "name": "solc",
    "version": "0.5.0+commit.1d4f565a.Emscripten.clang"
  },
  "schemaVersion": "3.0.6",
  "updatedAt": "2019-04-19T13:20:59.836Z",
  "devdoc": {
    "methods": {
      "allowance(address,address)": {
        "params": {
          "_spender": "address",
          "_user": "address"
        },
        "return": "Returns the remaining allowance of tokens granted to the _spender from the _user"
      },
      "balanceOf(address)": {
        "details": "Gets balance of owner specified",
        "params": {
          "_user": "is the owner address used to look up the balance"
        },
        "return": "Returns the balance associated with the passed in _user"
      },
      "balanceOfAt(address,uint256)": {
        "details": "Queries the balance of _user at a specific _blockNumber",
        "params": {
          "_blockNumber": "The block number when the balance is queried",
          "_user": "The address from which the balance will be retrieved"
        },
        "return": "The balance at _blockNumber"
      },
      "constructor": {
        "details": "The constructor sets the original `tellorStorageOwner` of the contract to the sender account."
      },
      "didMine(bytes32,address)": {
        "details": "This function tells you if a given challenge has been completed by a given miner",
        "params": {
          "_challenge": "the challenge to search for",
          "_miner": "address that you want to know if they solved the challenge"
        },
        "return": "true if the _miner address provided solved the "
      },
      "didVote(uint256,address)": {
        "details": "Checks if an address voted in a dispute",
        "params": {
          "_address": "to look up",
          "_disputeId": "to look up"
        },
        "return": "bool of whether or not party voted"
      },
      "getAllDisputeVars(uint256)": {
        "details": "Gets all dispute variables",
        "params": {
          "_disputeId": "to look up"
        },
        "return": "address of reported mineraddress of reporting partydisputed apiIddisputed minimum execution dateuint number of votesuint blockNumber of voteuint index in disputeId arrayint count of the current tallybool of whether vote has been tallied"
      },
      "getCurrentVariables()": {
        "details": "Getter function for currentChallenge difficulty_level",
        "return": "current challenge, MiningApiID, level of difficulty_level"
      },
      "getDisputeIdByDisputeHash(bytes32)": {
        "details": "Checks if a given hash of miner,apiId has been disputed",
        "params": {
          "_hash": "of sha256(abi.encodePacked(_miners[2],_requestId));"
        },
        "return": "uint disputeId"
      },
      "getLastNewValue()": {
        "details": "Gets the a value for the latest timestamp available",
        "return": "value for timestamp of last proof of work submited"
      },
      "getMinedBlockNum(uint256,uint256)": {
        "details": "Gets blocknumber for mined timestamp ",
        "params": {
          "_requestId": "to look up",
          "_timestamp": "is the timestamp to look up blocknumber"
        },
        "return": "uint of the blocknumber which the dispute was mined"
      },
      "getMinersByRequestIdAndTimestamp(uint256,uint256)": {
        "details": "Gets the 5 miners who mined the value for the specified apiId/_timestamp ",
        "params": {
          "_requestId": "to look up",
          "_timestamp": "is the timestampt to look up miners for"
        }
      },
      "getRequestIdByQueryHash(bytes32)": {
        "details": "Getter function for apiId based on api hash",
        "params": {
          "_request": "string to check if it already has an apiId"
        },
        "return": "uint apiId"
      },
      "getRequestIdByRequestQIndex(uint256)": {
        "details": "Getter function for the apiId for the specified payoutPool index",
        "params": {
          "_index": "to look up the apiId"
        },
        "return": "apiId"
      },
      "getRequestIdByTimestamp(uint256)": {
        "details": "Getter function for apiId based on timestamp. Only one value is mined per timestamp and each timestamp can correspond to a different API. ",
        "params": {
          "_timestamp": "to check APIId"
        },
        "return": "apiId"
      },
      "getRequestVars(uint256)": {
        "details": "Gets the API struct variables that are not mappings",
        "params": {
          "_requestId": "to look up"
        },
        "return": "string of api to querybytes32 hash of stringuint of index in PayoutPool arrayuint of current payout for this api"
      },
      "getSubmissionsByTimestamp(uint256,uint256)": {
        "details": "Gets the 5 miners who mined the value for the specified apiId/_timestamp ",
        "params": {
          "_requestId": "to look up",
          "_timestamp": "is the timestampt to look up miners for"
        }
      },
      "getVariablesOnDeck()": {
        "details": "Getter function for api on queue",
        "return": "apionQ hash, id, payout, and api string"
      },
      "isInDispute(uint256,uint256)": {
        "details": "Gets the 5 miners who mined the value for the specified apiId/_timestamp ",
        "params": {
          "_requestId": "to look up",
          "_timestamp": "is the timestampt to look up miners for"
        }
      },
      "retrieveData(uint256,uint256)": {
        "details": "Retreive value from oracle based on timestamp",
        "params": {
          "_requestId": "being requested",
          "_timestamp": "to retreive data/value from"
        },
        "return": "value for timestamp submitted"
      },
      "totalSupply()": {
        "details": "Getter for the total_supply of oracle tokens",
        "return": "total supply"
      }
    }
  },
  "userdoc": {
    "methods": {
      "allowedToTrade(address,uint256)": {
        "notice": "dev This function returns whether or not a given user is allowed to trade a given amount   param address of user param address of amount"
      },
      "getStakerInfo(address)": {
        "notice": "dev This function allows users to retireve all information about a staker param address of staker enquiring about return uint current state of staker return uint startDate of staking"
      }
    }
  }
}