{
  "contractName": "Tellor",
  "abi": [
    {
      "constant": false,
      "inputs": [
        {
          "name": "_apiId",
          "type": "uint256"
        },
        {
          "name": "_tip",
          "type": "uint256"
        }
      ],
      "name": "addTip",
      "outputs": [],
      "payable": false,
      "stateMutability": "nonpayable",
      "type": "function",
      "signature": "0x752d49a1"
    },
    {
      "constant": false,
      "inputs": [
        {
          "name": "_spender",
          "type": "address"
        },
        {
          "name": "_amount",
          "type": "uint256"
        }
      ],
      "name": "approve",
      "outputs": [
        {
          "name": "",
          "type": "bool"
        }
      ],
      "payable": false,
      "stateMutability": "nonpayable",
      "type": "function",
      "signature": "0x095ea7b3"
    },
    {
      "constant": false,
      "inputs": [],
      "name": "depositStake",
      "outputs": [],
      "payable": false,
      "stateMutability": "nonpayable",
      "type": "function",
      "signature": "0x0d2d76a2"
    },
    {
      "constant": false,
      "inputs": [
        {
          "name": "_apiId",
          "type": "uint256"
        },
        {
          "name": "_timestamp",
          "type": "uint256"
        },
        {
          "name": "_minerIndex",
          "type": "uint256"
        }
      ],
      "name": "initDispute",
      "outputs": [],
      "payable": false,
      "stateMutability": "nonpayable",
      "type": "function",
      "signature": "0xabdb5fca"
    },
    {
      "constant": false,
      "inputs": [],
      "name": "initStake",
      "outputs": [],
      "payable": false,
      "stateMutability": "nonpayable",
      "type": "function",
      "signature": "0x3981194f"
    },
    {
      "constant": false,
      "inputs": [
        {
          "name": "nonce",
          "type": "string"
        },
        {
          "name": "_apiId",
          "type": "uint256"
        },
        {
          "name": "value",
          "type": "uint256"
        }
      ],
      "name": "proofOfWork",
      "outputs": [],
      "payable": false,
      "stateMutability": "nonpayable",
      "type": "function",
      "signature": "0xbb916296"
    },
    {
      "constant": false,
      "inputs": [
        {
          "name": "_propNewTellorAddress",
          "type": "address"
        }
      ],
      "name": "propFork",
      "outputs": [],
      "payable": false,
      "stateMutability": "nonpayable",
      "type": "function",
      "signature": "0x31a2134a"
    },
    {
      "constant": false,
      "inputs": [
        {
          "name": "_c_sapi",
          "type": "string"
        },
        {
          "name": "_c_symbol",
          "type": "string"
        },
        {
          "name": "c_apiId",
          "type": "uint256"
        },
        {
          "name": "_granularity",
          "type": "uint256"
        },
        {
          "name": "_tip",
          "type": "uint256"
        }
      ],
      "name": "requestData",
      "outputs": [],
      "payable": false,
      "stateMutability": "nonpayable",
      "type": "function",
      "signature": "0xf78a63c4"
    },
    {
      "constant": false,
      "inputs": [],
      "name": "requestWithdraw",
      "outputs": [],
      "payable": false,
      "stateMutability": "nonpayable",
      "type": "function",
      "signature": "0xb3423eec"
    },
    {
      "constant": false,
      "inputs": [
        {
          "name": "_disputeId",
          "type": "uint256"
        }
      ],
      "name": "tallyVotes",
      "outputs": [],
      "payable": false,
      "stateMutability": "nonpayable",
      "type": "function",
      "signature": "0x4d318b0e"
    },
    {
      "constant": false,
      "inputs": [
        {
          "name": "_to",
          "type": "address"
        },
        {
          "name": "_amount",
          "type": "uint256"
        }
      ],
      "name": "transfer",
      "outputs": [
        {
          "name": "success",
          "type": "bool"
        }
      ],
      "payable": false,
      "stateMutability": "nonpayable",
      "type": "function",
      "signature": "0xa9059cbb"
    },
    {
      "constant": false,
      "inputs": [
        {
          "name": "_from",
          "type": "address"
        },
        {
          "name": "_to",
          "type": "address"
        },
        {
          "name": "_amount",
          "type": "uint256"
        }
      ],
      "name": "transferFrom",
      "outputs": [
        {
          "name": "success",
          "type": "bool"
        }
      ],
      "payable": false,
      "stateMutability": "nonpayable",
      "type": "function",
      "signature": "0x23b872dd"
    },
    {
      "constant": false,
      "inputs": [
        {
          "name": "newOwner",
          "type": "address"
        }
      ],
      "name": "transferOwnership",
      "outputs": [],
      "payable": false,
      "stateMutability": "nonpayable",
      "type": "function",
      "signature": "0xf2fde38b"
    },
    {
      "constant": false,
      "inputs": [
        {
          "name": "_disputeId",
          "type": "uint256"
        },
        {
          "name": "_supportsDispute",
          "type": "bool"
        }
      ],
      "name": "vote",
      "outputs": [],
      "payable": false,
      "stateMutability": "nonpayable",
      "type": "function",
      "signature": "0xc9d27afe"
    },
    {
      "constant": false,
      "inputs": [],
      "name": "withdrawStake",
      "outputs": [],
      "payable": false,
      "stateMutability": "nonpayable",
      "type": "function",
      "signature": "0xbed9d861"
    }
  ],
  "bytecode": "0x608060405234801561001057600080fd5b50615d2880620000216000396000f3fe6080604052600436106100db576000357c0100000000000000000000000000000000000000000000000000000000900463ffffffff168063095ea7b3146100e05780630d2d76a21461015357806323b872dd1461016a57806331a2134a146101fd5780633981194f1461024e5780634d318b0e14610265578063752d49a1146102a0578063a9059cbb146102e5578063abdb5fca14610358578063b3423eec146103a7578063bb916296146103be578063bed9d86114610458578063c9d27afe1461046f578063f2fde38b146104b6578063f78a63c414610507575b600080fd5b3480156100ec57600080fd5b506101396004803603604081101561010357600080fd5b81019080803573ffffffffffffffffffffffffffffffffffffffff16906020019092919080359060200190929190505050610600565b604051808215151515815260200191505060405180910390f35b34801561015f57600080fd5b506101686106ee565b005b34801561017657600080fd5b506101e36004803603606081101561018d57600080fd5b81019080803573ffffffffffffffffffffffffffffffffffffffff169060200190929190803573ffffffffffffffffffffffffffffffffffffffff16906020019092919080359060200190929190505050610776565b604051808215151515815260200191505060405180910390f35b34801561020957600080fd5b5061024c6004803603602081101561022057600080fd5b81019080803573ffffffffffffffffffffffffffffffffffffffff169060200190929190505050610799565b005b34801561025a57600080fd5b506102636107b0565b005b34801561027157600080fd5b5061029e6004803603602081101561028857600080fd5b8101908080359060200190929190505050610838565b005b3480156102ac57600080fd5b506102e3600480360360408110156102c357600080fd5b81019080803590602001909291908035906020019092919050505061084f565b005b3480156102f157600080fd5b5061033e6004803603604081101561030857600080fd5b81019080803573ffffffffffffffffffffffffffffffffffffffff169060200190929190803590602001909291905050506108e9565b604051808215151515815260200191505060405180910390f35b34801561036457600080fd5b506103a56004803603606081101561037b57600080fd5b81019080803590602001909291908035906020019092919080359060200190929190505050610909565b005b3480156103b357600080fd5b506103bc6109ac565b005b3480156103ca57600080fd5b50610456600480360360608110156103e157600080fd5b81019080803590602001906401000000008111156103fe57600080fd5b82018360208201111561041057600080fd5b8035906020019184600183028401116401000000008311171561043257600080fd5b909192939192939080359060200190929190803590602001909291905050506109b8565b005b34801561046457600080fd5b5061046d610a1a565b005b34801561047b57600080fd5b506104b46004803603604081101561049257600080fd5b8101908080359060200190929190803515159060200190929190505050610a26565b005b3480156104c257600080fd5b50610505600480360360208110156104d957600080fd5b81019080803573ffffffffffffffffffffffffffffffffffffffff169060200190929190505050610a40565b005b34801561051357600080fd5b506105fe600480360360a081101561052a57600080fd5b810190808035906020019064010000000081111561054757600080fd5b82018360208201111561055957600080fd5b8035906020019184600183028401116401000000008311171561057b57600080fd5b90919293919293908035906020019064010000000081111561059c57600080fd5b8201836020820111156105ae57600080fd5b803590602001918460018302840111640100000000831117156105d057600080fd5b9091929391929390803590602001909291908035906020019092919080359060200190929190505050610a57565b005b60008073__TellorLibrary_________________________63a3dd5a05909185856040518463ffffffff167c0100000000000000000000000000000000000000000000000000000000028152600401808481526020018373ffffffffffffffffffffffffffffffffffffffff1673ffffffffffffffffffffffffffffffffffffffff168152602001828152602001935050505060206040518083038186803b1580156106ab57600080fd5b505af41580156106bf573d6000803e3d6000fd5b505050506040513d60208110156106d557600080fd5b8101908080519060200190929190505050905092915050565b600073__TellorLibrary_________________________6316c7360c90916040518263ffffffff167c01000000000000000000000000000000000000000000000000000000000281526004018082815260200191505060006040518083038186803b15801561075c57600080fd5b505af4158015610770573d6000803e3d6000fd5b50505050565b60006107908484846000610b04909392919063ffffffff16565b90509392505050565b6107ad816000610c3790919063ffffffff16565b50565b600073__TellorLibrary_________________________638a94c04790916040518263ffffffff167c01000000000000000000000000000000000000000000000000000000000281526004018082815260200191505060006040518083038186803b15801561081e57600080fd5b505af4158015610832573d6000803e3d6000fd5b50505050565b61084c81600061109390919063ffffffff16565b50565b600073__TellorLibrary_________________________634cd87233909184846040518463ffffffff167c010000000000000000000000000000000000000000000000000000000002815260040180848152602001838152602001828152602001935050505060006040518083038186803b1580156108cd57600080fd5b505af41580156108e1573d6000803e3d6000fd5b505050505050565b6000610901838360006119459092919063ffffffff16565b905092915050565b600073__TellorLibrary_________________________63797e18ee90918585856040518563ffffffff167c01000000000000000000000000000000000000000000000000000000000281526004018085815260200184815260200183815260200182815260200194505050505060006040518083038186803b15801561098f57600080fd5b505af41580156109a3573d6000803e3d6000fd5b50505050505050565b6109b6600061195e565b565b610a1484848080601f016020809104026020016040519081016040528093929190818152602001838380828437600081840152601f19601f8201169050808301925050505050505083836000611a79909392919063ffffffff16565b50505050565b610a246000613ca5565b565b610a3c82826000613d799092919063ffffffff16565b5050565b610a5481600061403f90919063ffffffff16565b50565b610afb87878080601f016020809104026020016040519081016040528093929190818152602001838380828437600081840152601f19601f8201169050808301925050505050505086868080601f016020809104026020016040519081016040528093929190818152602001838380828437600081840152601f19601f8201169050808301925050505050505085858560006142349095949392919063ffffffff16565b50505050505050565b6000818560420160008673ffffffffffffffffffffffffffffffffffffffff1673ffffffffffffffffffffffffffffffffffffffff16815260200190815260200160002060003373ffffffffffffffffffffffffffffffffffffffff1673ffffffffffffffffffffffffffffffffffffffff1681526020019081526020016000205410151515610b9357600080fd5b818560420160008673ffffffffffffffffffffffffffffffffffffffff1673ffffffffffffffffffffffffffffffffffffffff16815260200190815260200160002060003373ffffffffffffffffffffffffffffffffffffffff1673ffffffffffffffffffffffffffffffffffffffff16815260200190815260200160002060008282540392505081905550610c2b8585858561477b565b60019050949350505050565b600081604051602001808273ffffffffffffffffffffffffffffffffffffffff1673ffffffffffffffffffffffffffffffffffffffff166c01000000000000000000000000028152601401915050604051602081830303815290604052805190602001209050600083604601600083815260200190815260200160002054141515610cc157600080fd5b610d1783333086600301600060405180807f6469737075746546656500000000000000000000000000000000000000000000815250600a019050604051809103902081526020019081526020016000205461477b565b82600301600060405180807f64697370757465436f756e740000000000000000000000000000000000000000815250600c0190506040518091039020815260200190815260200160002060008154809291906001019190505550600083600301600060405180807f64697370757465436f756e740000000000000000000000000000000000000000815250600c019050604051809103902081526020019081526020016000205490508084604601600084815260200190815260200160002081905550610100604051908101604052808381526020016000151581526020016000151581526020016001151581526020013373ffffffffffffffffffffffffffffffffffffffff1681526020013373ffffffffffffffffffffffffffffffffffffffff1681526020018473ffffffffffffffffffffffffffffffffffffffff16815260200160008152508460400160008381526020019081526020016000206000820151816000015560208201518160010160006101000a81548160ff02191690831515021790555060408201518160010160016101000a81548160ff02191690831515021790555060608201518160010160026101000a81548160ff02191690831515021790555060808201518160010160036101000a81548173ffffffffffffffffffffffffffffffffffffffff021916908373ffffffffffffffffffffffffffffffffffffffff16021790555060a08201518160020160006101000a81548173ffffffffffffffffffffffffffffffffffffffff021916908373ffffffffffffffffffffffffffffffffffffffff16021790555060c08201518160030160006101000a81548173ffffffffffffffffffffffffffffffffffffffff021916908373ffffffffffffffffffffffffffffffffffffffff16021790555060e0820151816005015590505043846040016000838152602001908152602001600020600401600060405180807f626c6f636b4e756d626572000000000000000000000000000000000000000000815250600b019050604051809103902081526020019081526020016000208190555062093a804201846040016000838152602001908152602001600020600401600060405180807f6d696e457865637574696f6e44617465000000000000000000000000000000008152506010019050604051809103902081526020019081526020016000208190555050505050565b60008260400160008381526020019081526020016000209050600083604401600083600401600060405180807f61706949640000000000000000000000000000000000000000000000000000008152506005019050604051809103902081526020019081526020016000205481526020019081526020016000209050600015158260010160009054906101000a900460ff16151514151561113357600080fd5b81600401600060405180807f6d696e457865637574696f6e4461746500000000000000000000000000000000815250601001905060405180910390208152602001908152602001600020544211151561118b57600080fd5b600015158260010160029054906101000a900460ff16151514156117595760008460430160008460010160039054906101000a900473ffffffffffffffffffffffffffffffffffffffff1673ffffffffffffffffffffffffffffffffffffffff1673ffffffffffffffffffffffffffffffffffffffff16815260200190815260200160002090506000836005015413156114b65760008160000181905550620151804281151561123757fe5b064203816001018190555084600301600060405180807f7374616b65727300000000000000000000000000000000000000000000000000815250600701905060405180910390208152602001908152602001600020600081548092919060019003919050555061133b858460010160039054906101000a900473ffffffffffffffffffffffffffffffffffffffff168560020160009054906101000a900473ffffffffffffffffffffffffffffffffffffffff1688600301600060405180807f7374616b65416d740000000000000000000000000000000000000000000000008152506008019050604051809103902081526020019081526020016000205461477b565b6113b585338560020160009054906101000a900473ffffffffffffffffffffffffffffffffffffffff1688600301600060405180807f6469737075746546656500000000000000000000000000000000000000000000815250600a019050604051809103902081526020019081526020016000205461477b565b60018360010160016101000a81548160ff0219169083151502179055506001151582600601600085600401600060405180807f74696d657374616d70000000000000000000000000000000000000000000000081525060090190506040518091039020815260200190815260200160002054815260200190815260200160002060009054906101000a900460ff16151514156114b157600082600501600085600401600060405180807f74696d657374616d700000000000000000000000000000000000000000000000815250600901905060405180910390208152602001908152602001600020548152602001908152602001600020819055505b611667565b6001816000018190555060018360010160006101000a81548160ff02191690831515021790555060008360010160016101000a81548160ff02191690831515021790555061157485338560010160039054906101000a900473ffffffffffffffffffffffffffffffffffffffff1688600301600060405180807f6469737075746546656500000000000000000000000000000000000000000000815250600a019050604051809103902081526020019081526020016000205461477b565b6001151582600601600085600401600060405180807f74696d657374616d70000000000000000000000000000000000000000000000081525060090190506040518091039020815260200190815260200160002054815260200190815260200160002060009054906101000a900460ff161515141561166657600082600601600085600401600060405180807f74696d657374616d70000000000000000000000000000000000000000000000081525060090190506040518091039020815260200190815260200160002054815260200190815260200160002060006101000a81548160ff0219169083151502179055505b5b8260010160039054906101000a900473ffffffffffffffffffffffffffffffffffffffff1673ffffffffffffffffffffffffffffffffffffffff16847f21459c2f5447ebcf83a7f0a238c32c71076faef0d12295e771c0cb1e1043473985600501548660020160009054906101000a900473ffffffffffffffffffffffffffffffffffffffff168760010160019054906101000a900460ff16604051808481526020018373ffffffffffffffffffffffffffffffffffffffff1673ffffffffffffffffffffffffffffffffffffffff16815260200182151515158152602001935050505060405180910390a35061193f565b6064601485600301600060405180807f746f74616c5f737570706c790000000000000000000000000000000000000000815250600c0190506040518091039020815260200190815260200160002054028115156117b257fe5b0482600401600060405180807f71756f72756d00000000000000000000000000000000000000000000000000008152506006019050604051809103902081526020019081526020016000205411151561180a57600080fd5b8160030160009054906101000a900473ffffffffffffffffffffffffffffffffffffffff1684600001600060405180807f74656c6c6f72436f6e7472616374000000000000000000000000000000000000815250600e0190506040518091039020815260200190815260200160002060006101000a81548173ffffffffffffffffffffffffffffffffffffffff021916908373ffffffffffffffffffffffffffffffffffffffff1602179055507fc2d1449eb0b6547aa426e09d9942a77fa4fc8cd3296305b3163e22452e0bcb8d8260030160009054906101000a900473ffffffffffffffffffffffffffffffffffffffff16604051808273ffffffffffffffffffffffffffffffffffffffff1673ffffffffffffffffffffffffffffffffffffffff16815260200191505060405180910390a15b50505050565b60006119538433858561477b565b600190509392505050565b60008160430160003373ffffffffffffffffffffffffffffffffffffffff1673ffffffffffffffffffffffffffffffffffffffff1681526020019081526020016000209050600181600001541415156119b657600080fd5b6002816000018190555062015180428115156119ce57fe5b0642038160010181905550600182600301600060405180807f7374616b65727300000000000000000000000000000000000000000000000000815250600701905060405180910390208152602001908152602001600020600082825403925050819055503373ffffffffffffffffffffffffffffffffffffffff167f453865710d0cb4b14ad25de371c860da196368895daa9662e5087711d14daecf60405160405180910390a25050565b60018460430160003373ffffffffffffffffffffffffffffffffffffffff1673ffffffffffffffffffffffffffffffffffffffff16815260200190815260200160002060000154141515611acc57600080fd5b83600301600060405180807f6d696e696e674170694964000000000000000000000000000000000000000000815250600b019050604051809103902081526020019081526020016000205482141515611b2457600080fd5b60006002600386600101543387604051602001808481526020018373ffffffffffffffffffffffffffffffffffffffff1673ffffffffffffffffffffffffffffffffffffffff166c0100000000000000000000000002815260140182805190602001908083835b602083101515611bb05780518252602082019150602081019050602083039250611b8b565b6001836020036101000a038019825116818451168082178552505050505050905001935050505060405160208183030381529060405280519060200120604051602001808281526020019150506040516020818303038152906040526040518082805190602001908083835b602083101515611c415780518252602082019150602081019050602083039250611c1c565b6001836020036101000a038019825116818451168082178552505050505050905001915050602060405180830381855afa158015611c83573d6000803e3d6000fd5b505050604051516c010000000000000000000000000260405160200180826bffffffffffffffffffffffff19166bffffffffffffffffffffffff191681526014019150506040516020818303038152906040526040518082805190602001908083835b602083101515611d0b5780518252602082019150602081019050602083039250611ce6565b6001836020036101000a038019825116818451168082178552505050505050905001915050602060405180830381855afa158015611d4d573d6000803e3d6000fd5b5050506040513d6020811015611d6257600080fd5b81019080805190602001909291905050509050600085600301600060405180807f646966666963756c74795f6c6576656c00000000000000000000000000000000815250601001905060405180910390208152602001908152602001600020548260019004811515611dd057fe5b06141515611ddd57600080fd5b6000151585603d0160008760010154815260200190815260200160002060003373ffffffffffffffffffffffffffffffffffffffff1673ffffffffffffffffffffffffffffffffffffffff16815260200190815260200160002060009054906101000a900460ff161515141515611e5357600080fd5b818560490186600301600060405180807f636f756e7400000000000000000000000000000000000000000000000000000081525060050190506040518091039020815260200190815260200160002054600581101515611eaf57fe5b6002020160000181905550338560490186600301600060405180807f636f756e7400000000000000000000000000000000000000000000000000000081525060050190506040518091039020815260200190815260200160002054600581101515611f1657fe5b6002020160010160006101000a81548173ffffffffffffffffffffffffffffffffffffffff021916908373ffffffffffffffffffffffffffffffffffffffff16021790555084600301600060405180807f636f756e7400000000000000000000000000000000000000000000000000000081525060050190506040518091039020815260200190815260200160002060008154809291906001019190505550600185603d0160008760010154815260200190815260200160002060003373ffffffffffffffffffffffffffffffffffffffff1673ffffffffffffffffffffffffffffffffffffffff16815260200190815260200160002060006101000a81548160ff021916908315150217905550823373ffffffffffffffffffffffffffffffffffffffff167fe6d63a2aee0aaed2ab49702313ce54114f2145af219d7db30d6624af9e6dffc4868589600101546040518080602001848152602001838152602001828103825285818151815260200191508051906020019080838360005b838110156120b0578082015181840152602081019050612095565b50505050905090810190601f1680156120dd5780820380516001836020036101000a031916815260200191505b5094505050505060405180910390a3600585600301600060405180807f636f756e74000000000000000000000000000000000000000000000000000000815250600501905060405180910390208152602001908152602001600020541415613c9e57600085604401600085815260200190815260200160002090506000603c87600301600060405180807f74696d654f664c61737450726f6f660000000000000000000000000000000000815250600f0190506040518091039020815260200190815260200160002054420388600301600060405180807f74696d6554617267657400000000000000000000000000000000000000000000815250600a0190506040518091039020815260200190815260200160002054038115156121fe57fe5b0587600301600060405180807f646966666963756c74795f6c6576656c000000000000000000000000000000008152506010019050604051809103902081526020019081526020016000205401131561239557603c86600301600060405180807f74696d654f664c61737450726f6f660000000000000000000000000000000000815250600f0190506040518091039020815260200190815260200160002054420387600301600060405180807f74696d6554617267657400000000000000000000000000000000000000000000815250600a0190506040518091039020815260200190815260200160002054038115156122f557fe5b0586600301600060405180807f646966666963756c74795f6c6576656c00000000000000000000000000000000815250601001905060405180910390208152602001908152602001600020540186600301600060405180807f646966666963756c74795f6c6576656c00000000000000000000000000000000815250601001905060405180910390208152602001908152602001600020819055506123e6565b600186600301600060405180807f646966666963756c74795f6c6576656c00000000000000000000000000000000815250601001905060405180910390208152602001908152602001600020819055505b85600301600060405180807f74696d6554617267657400000000000000000000000000000000000000000000815250600a01905060405180910390208152602001908152602001600020544281151561243b57fe5b06420386600301600060405180807f74696d654f664c61737450726f6f660000000000000000000000000000000000815250600f0190506040518091039020815260200190815260200160002081905550612494615a45565b86604901600580602002604051908101604052809291906000905b8282101561253757838260020201604080519081016040529081600082015481526020016001820160009054906101000a900473ffffffffffffffffffffffffffffffffffffffff1673ffffffffffffffffffffffffffffffffffffffff1673ffffffffffffffffffffffffffffffffffffffff1681525050815260200190600101906124af565b5050505090506000600190505b60058110156126db576000828260058110151561255d57fe5b60200201516000015190506000838360058110151561257857fe5b602002015160200151905060008390505b6000811180156125b1575084600182036005811015156125a557fe5b60200201516000015183105b1561265c5784600182036005811015156125c757fe5b60200201516000015185826005811015156125de57fe5b6020020151600001818152505084600182036005811015156125fc57fe5b602002015160200151858260058110151561261357fe5b60200201516020019073ffffffffffffffffffffffffffffffffffffffff16908173ffffffffffffffffffffffffffffffffffffffff1681525050808060019003915050612589565b838110156126cb5782858260058110151561267357fe5b6020020151600001818152505081858260058110151561268f57fe5b60200201516020019073ffffffffffffffffffffffffffffffffffffffff16908173ffffffffffffffffffffffffffffffffffffffff16815250505b5050508080600101915050612544565b600090505b60058110156127a95761279c883084846005811015156126fc57fe5b602002015160200151670de0b6b3a76400008c6004018660058110151561271f57fe5b015460168e600301600060405180807f6d696e696e675061796f75740000000000000000000000000000000000000000815250600c019050604051809103902081526020019081526020016000205481151561277757fe5b040281151561278257fe5b048c6004018660058110151561279457fe5b01540161477b565b80806001019150506126e0565b857fc509d04e0782579ee59912139246ccbdf6c36c43abd90591d912017f3467dd1689600301600060405180807f74696d654f664c61737450726f6f660000000000000000000000000000000000815250600f019050604051809103902081526020019081526020016000205484600260058110151561282557fe5b60200201516000015160168c600301600060405180807f6d696e696e675061796f75740000000000000000000000000000000000000000815250600c019050604051809103902081526020019081526020016000205481151561288457fe5b068c600301600060405180807f6d696e696e675061796f75740000000000000000000000000000000000000000815250600c0190506040518091039020815260200190815260200160002054038c600101546040518085815260200184815260200183815260200182815260200194505050505060405180910390a26000601689600301600060405180807f6d696e696e675061796f75740000000000000000000000000000000000000000815250600c019050604051809103902081526020019081526020016000205481151561295857fe5b0611156129c3576129c2888760168b600301600060405180807f6d696e696e675061796f75740000000000000000000000000000000000000000815250600c01905060405180910390208152602001908152602001600020548115156129ba57fe5b06600161490d565b5b6064606e89600301600060405180807f7061796f7574546f74616c000000000000000000000000000000000000000000815250600b019050604051809103902081526020019081526020016000205402811515612a1c57fe5b04601689600301600060405180807f6d696e696e675061796f75740000000000000000000000000000000000000000815250600c0190506040518091039020815260200190815260200160002054811515612a7357fe5b0689600301600060405180807f6d696e696e675061796f75740000000000000000000000000000000000000000815250600c0190506040518091039020815260200190815260200160002054030188600301600060405180807f746f74616c5f737570706c790000000000000000000000000000000000000000815250600c0190506040518091039020815260200190815260200160002060008282540192505081905550612be788308a600001600060405180807f5f6f776e6572000000000000000000000000000000000000000000000000000081525060060190506040518091039020815260200190815260200160002060009054906101000a900473ffffffffffffffffffffffffffffffffffffffff166064600a8d600301600060405180807f7061796f7574546f74616c000000000000000000000000000000000000000000815250600b019050604051809103902081526020019081526020016000205402811515612be157fe5b0461477b565b816002600581101515612bf657fe5b6020020151600001518360050160008a600301600060405180807f74696d654f664c61737450726f6f660000000000000000000000000000000000815250600f019050604051809103902081526020019081526020016000205481526020019081526020016000208190555060a060405190810160405280836000600581101515612c7d57fe5b60200201516020015173ffffffffffffffffffffffffffffffffffffffff1673ffffffffffffffffffffffffffffffffffffffff168152602001836001600581101515612cc657fe5b60200201516020015173ffffffffffffffffffffffffffffffffffffffff1673ffffffffffffffffffffffffffffffffffffffff168152602001836002600581101515612d0f57fe5b60200201516020015173ffffffffffffffffffffffffffffffffffffffff1673ffffffffffffffffffffffffffffffffffffffff168152602001836003600581101515612d5857fe5b60200201516020015173ffffffffffffffffffffffffffffffffffffffff1673ffffffffffffffffffffffffffffffffffffffff168152602001836004600581101515612da157fe5b60200201516020015173ffffffffffffffffffffffffffffffffffffffff1673ffffffffffffffffffffffffffffffffffffffff168152508360070160008a600301600060405180807f74696d654f664c61737450726f6f660000000000000000000000000000000000815250600f01905060405180910390208152602001908152602001600020548152602001908152602001600020906005612e46929190615a74565b5060a060405190810160405280836000600581101515612e6257fe5b6020020151600001518152602001836001600581101515612e7f57fe5b6020020151600001518152602001836002600581101515612e9c57fe5b6020020151600001518152602001836003600581101515612eb957fe5b6020020151600001518152602001836004600581101515612ed657fe5b6020020151600001518152508360080160008a600301600060405180807f74696d654f664c61737450726f6f660000000000000000000000000000000000815250600f01905060405180910390208152602001908152602001600020548152602001908152602001600020906005612f4f929190615af1565b50438360040160008a600301600060405180807f74696d654f664c61737450726f6f660000000000000000000000000000000000815250600f0190506040518091039020815260200190815260200160002054815260200190815260200160002081905550876045016000896002015481526020019081526020016000205488600301600060405180807f6d696e696e674170694964000000000000000000000000000000000000000000815250600b019050604051809103902081526020019081526020016000208190555087600301600060405180807f6170694f6e515061796f75740000000000000000000000000000000000000000815250600c019050604051809103902081526020019081526020016000205488600301600060405180807f6d696e696e675061796f75740000000000000000000000000000000000000000815250600c01905060405180910390208152602001908152602001600020819055508588603e0160008a600301600060405180807f74696d654f664c61737450726f6f660000000000000000000000000000000000815250600f019050604051809103902081526020019081526020016000205481526020019081526020016000208190555087603c0188600301600060405180807f74696d654f664c61737450726f6f660000000000000000000000000000000000815250600f01905060405180910390208152602001908152602001600020549080600181540180825580915050906001820390600052602060002001600090919290919091505550600088600301600060405180807f636f756e74000000000000000000000000000000000000000000000000000000815250600501905060405180910390208152602001908152602001600020819055506000886009018960440160008b600301600060405180807f61706949644f6e51000000000000000000000000000000000000000000000000815250600801905060405180910390208152602001908152602001600020548152602001908152602001600020600301600060405180807f696e6465780000000000000000000000000000000000000000000000000000008152506005019050604051809103902081526020019081526020016000205460338110151561329c57fe5b0181905550600088603f0160008a60440160008c600301600060405180807f61706949644f6e51000000000000000000000000000000000000000000000000815250600801905060405180910390208152602001908152602001600020548152602001908152602001600020600301600060405180807f696e6465780000000000000000000000000000000000000000000000000000008152506005019050604051809103902081526020019081526020016000205481526020019081526020016000208190555060008860440160008a600301600060405180807f61706949644f6e51000000000000000000000000000000000000000000000000815250600801905060405180910390208152602001908152602001600020548152602001908152602001600020600301600060405180807f696e6465780000000000000000000000000000000000000000000000000000008152506005019050604051809103902081526020019081526020016000208190555060008860440160008a600301600060405180807f61706949644f6e51000000000000000000000000000000000000000000000000815250600801905060405180910390208152602001908152602001600020548152602001908152602001600020600301600060405180807f7061796f75740000000000000000000000000000000000000000000000000000815250600601905060405180910390208152602001908152602001600020819055506134c8615b31565b600089600301600060405180807f6d696e696e674170694964000000000000000000000000000000000000000000815250600b01905060405180910390208152602001908152602001600020541115613bf85761356389600901603380602002604051908101604052809291908260338015613559576020028201915b815481526020019060010190808311613545575b5050505050615336565b82600060028110151561357257fe5b6020020183600160028110151561358557fe5b602002018281525082815250505088603f0160008260016002811015156135a857fe5b602002015181526020019081526020016000205489600301600060405180807f61706949644f6e51000000000000000000000000000000000000000000000000815250600801905060405180910390208152602001908152602001600020819055508860440160008a600301600060405180807f61706949644f6e5100000000000000000000000000000000000000000000000081525060080190506040518091039020815260200190815260200160002054815260200190815260200160002060020154896002018190555080600060028110151561368457fe5b602002015189600301600060405180807f6170694f6e515061796f75740000000000000000000000000000000000000000815250600c019050604051809103902081526020019081526020016000208190555087896001015460014303406040516020018084805190602001908083835b60208310151561371a57805182526020820191506020810190506020830392506136f5565b6001836020036101000a038019825116818451168082178552505050505050905001838152602001828152602001935050505060405160208183030381529060405280519060200120896001018190555088600301600060405180807f6d696e696e674170694964000000000000000000000000000000000000000000815250600b01905060405180910390208152602001908152602001600020547f9e959738f09af22daede9ff9563f8edf3f5cec8e17ce60287c911c95fa767f428a600101548b600301600060405180807f646966666963756c74795f6c6576656c00000000000000000000000000000000815250601001905060405180910390208152602001908152602001600020548c60440160008e600301600060405180807f6d696e696e674170694964000000000000000000000000000000000000000000815250600b01905060405180910390208152602001908152602001600020548152602001908152602001600020600301600060405180807f6772616e756c6172697479000000000000000000000000000000000000000000815250600b01905060405180910390208152602001908152602001600020548d60440160008f600301600060405180807f6d696e696e674170694964000000000000000000000000000000000000000000815250600b019050604051809103902081526020019081526020016000205481526020019081526020016000206000018e600301600060405180807f6d696e696e675061796f75740000000000000000000000000000000000000000815250600c01905060405180910390208152602001908152602001600020546040518086815260200185815260200184815260200180602001838152602001828103825284818154600181600116156101000203166002900481526020019150805460018160011615610100020316600290048015613a1e5780601f106139f357610100808354040283529160200191613a1e565b820191906000526020600020905b815481529060010190602001808311613a0157829003601f168201915b5050965050505050505060405180910390a288600301600060405180807f61706949644f6e51000000000000000000000000000000000000000000000000815250600801905060405180910390208152602001908152602001600020547f1c59b53c2f787064c7f5aae431916a0600db3a76bb4029c09e24fe83130426748a60440160008c600301600060405180807f61706949644f6e510000000000000000000000000000000000000000000000008152506008019050604051809103902081526020019081526020016000205481526020019081526020016000206000018b600201548c600301600060405180807f6170694f6e515061796f75740000000000000000000000000000000000000000815250600c01905060405180910390208152602001908152602001600020546040518080602001848152602001838152602001828103825285818154600181600116156101000203166002900481526020019150805460018160011615610100020316600290048015613be35780601f10613bb857610100808354040283529160200191613be3565b820191906000526020600020905b815481529060010190602001808311613bc657829003601f168201915b505094505050505060405180910390a2613c99565b600089600301600060405180807f61706949644f6e5100000000000000000000000000000000000000000000000081525060080190506040518091039020815260200190815260200160002081905550600089600301600060405180807f6170694f6e515061796f75740000000000000000000000000000000000000000815250600c01905060405180910390208152602001908152602001600020819055505b505050505b5050505050565b60008160430160003373ffffffffffffffffffffffffffffffffffffffff1673ffffffffffffffffffffffffffffffffffffffff168152602001908152602001600020905060006201518042811515613cfa57fe5b064203905062093a808260010154820310158015613d1c575060028260000154145b1515613d2757600080fd5b600082600001819055503373ffffffffffffffffffffffffffffffffffffffff167f4a7934670bd8304e7da22378be1368f7c4fef17c5aee81804beda8638fe428ec60405160405180910390a2505050565b600083604001600084815260200190815260200160002090506000613de9853384600401600060405180807f626c6f636b4e756d626572000000000000000000000000000000000000000000815250600b01905060405180910390208152602001908152602001600020546153a5565b9050600115158260060160003373ffffffffffffffffffffffffffffffffffffffff1673ffffffffffffffffffffffffffffffffffffffff16815260200190815260200160002060009054906101000a900460ff16151514151515613e4d57600080fd5b600081111515613e5c57600080fd5b60038560430160003373ffffffffffffffffffffffffffffffffffffffff1673ffffffffffffffffffffffffffffffffffffffff1681526020019081526020016000206000015414151515613eb057600080fd5b60018260060160003373ffffffffffffffffffffffffffffffffffffffff1673ffffffffffffffffffffffffffffffffffffffff16815260200190815260200160002060006101000a81548160ff021916908315150217905550600182600401600060405180807f6e756d6265724f66566f74657300000000000000000000000000000000000000815250600d01905060405180910390208152602001908152602001600020600082825401925050819055508082600401600060405180807f71756f72756d0000000000000000000000000000000000000000000000000000815250600601905060405180910390208152602001908152602001600020600082825401925050819055508215613fd557808260050154018260050181905550613fe5565b8082600501540382600501819055505b3373ffffffffffffffffffffffffffffffffffffffff16847f86abfce99b7dd908bec0169288797f85049ec73cbe046ed9de818fab3a497ae085604051808215151515815260200191505060405180910390a35050505050565b81600001600060405180807f5f6f776e6572000000000000000000000000000000000000000000000000000081525060060190506040518091039020815260200190815260200160002060009054906101000a900473ffffffffffffffffffffffffffffffffffffffff1673ffffffffffffffffffffffffffffffffffffffff163373ffffffffffffffffffffffffffffffffffffffff161415156140e357600080fd5b8073ffffffffffffffffffffffffffffffffffffffff1682600001600060405180807f5f6f776e6572000000000000000000000000000000000000000000000000000081525060060190506040518091039020815260200190815260200160002060009054906101000a900473ffffffffffffffffffffffffffffffffffffffff1673ffffffffffffffffffffffffffffffffffffffff167f8be0079c531659141344cd1fd0a4f28419497f9722a3daafe3b4186f6b6457e060405160405180910390a38082600001600060405180807f5f6f776e6572000000000000000000000000000000000000000000000000000081525060060190506040518091039020815260200190815260200160002060006101000a81548173ffffffffffffffffffffffffffffffffffffffff021916908373ffffffffffffffffffffffffffffffffffffffff1602179055505050565b600083905060008311151561424857600080fd5b670de0b6b3a7640000831115151561425f57600080fd5b60008114156145b657606086905060608690506000825111151561428257600080fd5b6040815110151561429257600080fd5b600082866040516020018083805190602001908083835b6020831015156142ce57805182526020820191506020810190506020830392506142a9565b6001836020036101000a0380198251168184511680821785525050505050509050018281526020019250505060405160208183030381529060405280519060200120905060008a60450160008381526020019081526020016000205414156145995789600301600060405180807f72657175657374730000000000000000000000000000000000000000000000008152506008019050604051809103902081526020019081526020016000206000815480929190600101919050555089600301600060405180807f7265717565737473000000000000000000000000000000000000000000000000815250600801905060405180910390208152602001908152602001600020549350606060405190810160405280848152602001838152602001828152508a60440160008681526020019081526020016000206000820151816000019080519060200190614424929190615b53565b506020820151816001019080519060200190614441929190615b53565b5060408201518160020155905050858a6044016000868152602001908152602001600020600301600060405180807f6772616e756c6172697479000000000000000000000000000000000000000000815250600b019050604051809103902081526020019081526020016000208190555060008a6044016000868152602001908152602001600020600301600060405180807f696e6465780000000000000000000000000000000000000000000000000000008152506005019050604051809103902081526020019081526020016000208190555060008a6044016000868152602001908152602001600020600301600060405180807f7061796f7574000000000000000000000000000000000000000000000000000081525060060190506040518091039020815260200190815260200160002081905550838a6045016000838152602001908152602001600020819055506145b2565b8960450160008281526020019081526020016000205493505b5050505b60008211156145cc576145cb8733308561477b565b5b6145d9878284600061490d565b803373ffffffffffffffffffffffffffffffffffffffff167f6d7f869757848b19c8c2456e95cd98885bc6bed062fda4077bb07985e2f76cc98960440160008581526020019081526020016000206000018a604401600086815260200190815260200160002060010187876040518080602001806020018581526020018481526020018381038352878181546001816001161561010002031660029004815260200191508054600181600116156101000203166002900480156146dd5780601f106146b2576101008083540402835291602001916146dd565b820191906000526020600020905b8154815290600101906020018083116146c057829003601f168201915b50508381038252868181546001816001161561010002031660029004815260200191508054600181600116156101000203166002900480156147605780601f1061473557610100808354040283529160200191614760565b820191906000526020600020905b81548152906001019060200180831161474357829003601f168201915b5050965050505050505060405180910390a350505050505050565b60008111151561478a57600080fd5b600073ffffffffffffffffffffffffffffffffffffffff168273ffffffffffffffffffffffffffffffffffffffff16141515156147c657600080fd5b6147d18484836154e4565b15156147dc57600080fd5b60006147e98585436153a5565b90506148378560410160008673ffffffffffffffffffffffffffffffffffffffff1673ffffffffffffffffffffffffffffffffffffffff1681526020019081526020016000208383036155fc565b6148428584436153a5565b9050808282011015151561485557600080fd5b6148a18560410160008573ffffffffffffffffffffffffffffffffffffffff1673ffffffffffffffffffffffffffffffffffffffff1681526020019081526020016000208383016155fc565b8273ffffffffffffffffffffffffffffffffffffffff168473ffffffffffffffffffffffffffffffffffffffff167fddf252ad1be2c89b69c2b068fc378daa952ba7f163c4a11628f55a4df523b3ef846040518082815260200191505060405180910390a35050505050565b6000846044016000858152602001908152602001600020905060008311156149db5761498c8382600301600060405180807f7061796f757400000000000000000000000000000000000000000000000000008152506006019050604051809103902081526020019081526020016000205461577190919063ffffffff16565b81600301600060405180807f7061796f75740000000000000000000000000000000000000000000000000000815250600601905060405180910390208152602001908152602001600020819055505b600081600301600060405180807f7061796f75740000000000000000000000000000000000000000000000000000815250600601905060405180910390208152602001908152602001600020549050600086600301600060405180807f6d696e696e674170694964000000000000000000000000000000000000000000815250600b01905060405180910390208152602001908152602001600020541415614e7c57600082600301600060405180807f7061796f75740000000000000000000000000000000000000000000000000000815250600601905060405180910390208152602001908152602001600020819055508486600301600060405180807f6d696e696e674170694964000000000000000000000000000000000000000000815250600b01905060405180910390208152602001908152602001600020819055508086600301600060405180807f6d696e696e675061796f75740000000000000000000000000000000000000000815250600c0190506040518091039020815260200190815260200160002081905550808660010154600143034060405160200180848152602001838152602001828152602001935050505060405160208183030381529060405280519060200120866001018190555085600301600060405180807f6d696e696e674170694964000000000000000000000000000000000000000000815250600b01905060405180910390208152602001908152602001600020547f9e959738f09af22daede9ff9563f8edf3f5cec8e17ce60287c911c95fa767f42876001015488600301600060405180807f646966666963756c74795f6c6576656c00000000000000000000000000000000815250601001905060405180910390208152602001908152602001600020548960440160008b600301600060405180807f6d696e696e674170694964000000000000000000000000000000000000000000815250600b01905060405180910390208152602001908152602001600020548152602001908152602001600020600301600060405180807f6772616e756c6172697479000000000000000000000000000000000000000000815250600b01905060405180910390208152602001908152602001600020548a60440160008c600301600060405180807f6d696e696e674170694964000000000000000000000000000000000000000000815250600b019050604051809103902081526020019081526020016000205481526020019081526020016000206000018b600301600060405180807f6d696e696e675061796f75740000000000000000000000000000000000000000815250600c01905060405180910390208152602001908152602001600020546040518086815260200185815260200184815260200180602001838152602001828103825284818154600181600116156101000203166002900481526020019150805460018160011615610100020316600290048015614e655780601f10614e3a57610100808354040283529160200191614e65565b820191906000526020600020905b815481529060010190602001808311614e4857829003601f168201915b5050965050505050505060405180910390a261532e565b85600301600060405180807f61706949644f6e5100000000000000000000000000000000000000000000000081525060080190506040518091039020815260200190815260200160002054851415614f22578086600301600060405180807f6170694f6e515061796f75740000000000000000000000000000000000000000815250600c0190506040518091039020815260200190815260200160002081905550615157565b85600301600060405180807f6170694f6e515061796f75740000000000000000000000000000000000000000815250600c0190506040518091039020815260200190815260200160002054811180614fd45750600086600301600060405180807f61706949644f6e5100000000000000000000000000000000000000000000000081525060080190506040518091039020815260200190815260200160002054148015614fd3575060001515831515145b5b15615156578486600301600060405180807f61706949644f6e5100000000000000000000000000000000000000000000000081525060080190506040518091039020815260200190815260200160002081905550816002015486600201819055508086600301600060405180807f6170694f6e515061796f75740000000000000000000000000000000000000000815250600c0190506040518091039020815260200190815260200160002081905550847f1c59b53c2f787064c7f5aae431916a0600db3a76bb4029c09e24fe83130426748360000188600201548460405180806020018481526020018381526020018281038252858181546001816001161561010002031660029004815260200191508054600181600116156101000203166002900480156151455780601f1061511a57610100808354040283529160200191615145565b820191906000526020600020905b81548152906001019060200180831161512857829003601f168201915b505094505050505060405180910390a25b5b600082600301600060405180807f696e646578000000000000000000000000000000000000000000000000000000815250600501905060405180910390208152602001908152602001600020541480156151b5575060001515831515145b156152a857600080615205886009016033806020026040519081016040528092919082603380156151fb576020028201915b8154815260200190600101908083116151e7575b505050505061578f565b80925081935050508183118061521b5750600082145b156152a15782886009018260338110151561523257fe5b01819055508688603f016000838152602001908152602001600020819055508084600301600060405180807f696e646578000000000000000000000000000000000000000000000000000000815250600501905060405180910390208152602001908152602001600020819055505b505061532d565b6000841180156152bc575060001515831515145b1561532c57838660090183600301600060405180807f696e6465780000000000000000000000000000000000000000000000000000008152506005019050604051809103902081526020019081526020016000205460338110151561531d57fe5b01600082825401925050819055505b5b5b505050505050565b60008082600160338110151561534857fe5b602002015191506000600190505b603381101561539f5782848260338110151561536e57fe5b6020020151111561539257838160338110151561538757fe5b602002015192508091505b8080600101915050615356565b50915091565b6000808460410160008573ffffffffffffffffffffffffffffffffffffffff1673ffffffffffffffffffffffffffffffffffffffff1681526020019081526020016000208054905014806154825750818460410160008573ffffffffffffffffffffffffffffffffffffffff1673ffffffffffffffffffffffffffffffffffffffff168152602001908152602001600020600081548110151561544457fe5b9060005260206000200160000160009054906101000a90046fffffffffffffffffffffffffffffffff166fffffffffffffffffffffffffffffffff16115b1561549057600090506154dd565b6154da8460410160008573ffffffffffffffffffffffffffffffffffffffff1673ffffffffffffffffffffffffffffffffffffffff16815260200190815260200160002083615808565b90505b9392505050565b6000808460430160008573ffffffffffffffffffffffffffffffffffffffff1673ffffffffffffffffffffffffffffffffffffffff1681526020019081526020016000206000015411156155c15760006155ac8361559e87600301600060405180807f7374616b65416d74000000000000000000000000000000000000000000000000815250600801905060405180910390208152602001908152602001600020546155908989615a17565b615a2c90919063ffffffff16565b615a2c90919063ffffffff16565b1015156155bc57600190506155f5565b6155f0565b60006155df836155d18787615a17565b615a2c90919063ffffffff16565b1015156155ef57600190506155f5565b5b600090505b9392505050565b60008280549050148061565e57504382600184805490500381548110151561562057fe5b9060005260206000200160000160009054906101000a90046fffffffffffffffffffffffffffffffff166fffffffffffffffffffffffffffffffff16105b1561570d576000828380548091906001016156799190615bd3565b81548110151561568557fe5b906000526020600020019050438160000160006101000a8154816fffffffffffffffffffffffffffffffff02191690836fffffffffffffffffffffffffffffffff160217905550818160000160106101000a8154816fffffffffffffffffffffffffffffffff02191690836fffffffffffffffffffffffffffffffff1602179055505061576d565b600082600184805490500381548110151561572457fe5b906000526020600020019050818160000160106101000a8154816fffffffffffffffffffffffffffffffff02191690836fffffffffffffffffffffffffffffffff160217905550505b5050565b600080828401905083811015151561578557fe5b8091505092915050565b6000806001603303905082816033811015156157a757fe5b602002015191506000600160330390505b6000811115615802578284826033811015156157d057fe5b602002015110156157f45783816033811015156157e957fe5b602002015192508091505b8080600190039150506157b8565b50915091565b6000808380549050141561581f5760009050615a11565b82600184805490500381548110151561583457fe5b9060005260206000200160000160009054906101000a90046fffffffffffffffffffffffffffffffff166fffffffffffffffffffffffffffffffff16821015156158d05782600184805490500381548110151561588d57fe5b9060005260206000200160000160109054906101000a90046fffffffffffffffffffffffffffffffff166fffffffffffffffffffffffffffffffff169050615a11565b8260008154811015156158df57fe5b9060005260206000200160000160009054906101000a90046fffffffffffffffffffffffffffffffff166fffffffffffffffffffffffffffffffff1682101561592b5760009050615a11565b60008090506000600185805490500390505b818111156159c2576000600260018484010181151561595857fe5b04905084868281548110151561596a57fe5b9060005260206000200160000160009054906101000a90046fffffffffffffffffffffffffffffffff166fffffffffffffffffffffffffffffffff161115156159b5578092506159bc565b6001810391505b5061593d565b84828154811015156159d057fe5b9060005260206000200160000160109054906101000a90046fffffffffffffffffffffffffffffffff166fffffffffffffffffffffffffffffffff16925050505b92915050565b6000615a248383436153a5565b905092915050565b6000828211151515615a3a57fe5b818303905092915050565b610140604051908101604052806005905b615a5e615bff565b815260200190600190039081615a565790505090565b8260058101928215615ae0579160200282015b82811115615adf5782518260006101000a81548173ffffffffffffffffffffffffffffffffffffffff021916908373ffffffffffffffffffffffffffffffffffffffff16021790555091602001919060010190615a87565b5b509050615aed9190615c2f565b5090565b8260058101928215615b20579160200282015b82811115615b1f578251825591602001919060010190615b04565b5b509050615b2d9190615c72565b5090565b6040805190810160405280600290602082028038833980820191505090505090565b828054600181600116156101000203166002900490600052602060002090601f016020900481019282601f10615b9457805160ff1916838001178555615bc2565b82800160010185558215615bc2579182015b82811115615bc1578251825591602001919060010190615ba6565b5b509050615bcf9190615c72565b5090565b815481835581811115615bfa57818360005260206000209182019101615bf99190615c97565b5b505050565b604080519081016040528060008152602001600073ffffffffffffffffffffffffffffffffffffffff1681525090565b615c6f91905b80821115615c6b57600081816101000a81549073ffffffffffffffffffffffffffffffffffffffff021916905550600101615c35565b5090565b90565b615c9491905b80821115615c90576000816000905550600101615c78565b5090565b90565b615cf991905b80821115615cf557600080820160006101000a8154906fffffffffffffffffffffffffffffffff02191690556000820160106101000a8154906fffffffffffffffffffffffffffffffff021916905550600101615c9d565b5090565b9056fea165627a7a72305820ff3460a752358812478d5f2b34d1f0fabe6a11b57bc42355a9ef6b03d489c9e70029",
  "source": "pragma solidity ^0.5.0;\n\nimport \"./libraries/SafeMath.sol\";\nimport \"./libraries/Utilities.sol\";\nimport \"./libraries/TellorLibrary.sol\";\n//import \"./TellorGetters.sol\";\n\n/**\n * @title Tellor Oracle System\n * @dev Oracle contract where miners can submit the proof of work along with the value.\n */\ncontract Tellor /* is TellorGetters*/{\n\n    using SafeMath for uint256;\n\n    using TellorLibrary for TellorLibrary.TellorStorageStruct;\n    TellorLibrary.TellorStorageStruct tellor;\n\n\n\n    function addTip(uint _apiId, uint _tip) external {\n        tellor.addTip(_apiId,_tip);\n    }\n    /**\n    * @dev This function approves a _spender an _amount of tokens to use\n    * @param _spender address\n    * @param _amount amount the spender is being approved for\n    * @return true if spender appproved successfully\n    */\n    function approve(address _spender, uint _amount) external returns (bool) {\n        return tellor.approve(_spender,_amount);\n    }\n        function depositStake() external {\n        tellor.depositStake();\n    }\n    /**\n    * @dev Helps initialize a dispute by assigning it a disputeId \n    * when a miner returns a false on the validate array(in Tellor.ProofOfWork) it sends the \n    * invalidated value information to POS voting\n    * @param _apiId being disputed\n    * @param _timestamp being disputed\n    */\n    function initDispute(uint _apiId, uint _timestamp,uint _minerIndex) external {\n        tellor.initDispute(_apiId,_timestamp,_minerIndex);\n    }\n\n    function initStake() external {\n        tellor.initStake();\n    }\n\n\n        /**\n    * @dev Proof of work is called by the miner when they submit the solution (proof of work and value)\n    * @param nonce uint submitted by miner\n    * @param _apiId the apiId being mined\n    * @param value of api query\n    * @return count of values sumbitted so far and the time of the last successful mine\n    */\n    function proofOfWork(string calldata nonce, uint _apiId, uint value) external{\n        tellor.proofOfWork(nonce,_apiId,value);\n    }\n\n    /**\n    * @dev propose fork\n    * @param _propNewTellorAddress address for new proposed Tellor\n    */\n    function propFork(address _propNewTellorAddress) external {\n        tellor.propFork(_propNewTellorAddress);\n    }\n       /**\n    * @dev Request to retreive value from oracle based on timestamp\n    * @param _c_sapi being requested be mined\n    * @param _c_symbol being requested be mined\n    * @param _tip amount the requester is willing to pay to be get on queue. Miners\n    * mine the apiOnQ, or the api with the highest payout pool\n    * @return _apiId for the request\n    */\n    function requestData(string calldata _c_sapi,string calldata _c_symbol,uint c_apiId,uint _granularity, uint _tip) external {\n        tellor.requestData(_c_sapi,_c_symbol,c_apiId,_granularity,_tip);\n    }\n    \n    /**\n    * @dev This function allows stakers to request to withdraw their stake (no longer stake) \n    */\n    function requestWithdraw() external {\n        tellor.requestWithdraw();\n    }\n        /**\n    * @dev tallies the votes.\n    * @param _disputeId is the dispute id\n    */\n    function tallyVotes(uint _disputeId) external {\n        tellor.tallyVotes(_disputeId);\n    }\n    /**\n    * @dev Allows for a transfer of tokens to _to\n    * @param _to The address to send tokens to\n    * @param _amount The amount of tokens to send\n    * @return true if transfer is successful\n    */\n    function transfer(address _to, uint256 _amount) external returns (bool success) {\n        return tellor.transfer(_to,_amount);\n    }\n\n    /**\n    * @notice Send _amount tokens to _to from _from on the condition it\n    * is approved by _from\n    * @param _from The address holding the tokens being transferred\n    * @param _to The address of the recipient\n    * @param _amount The amount of tokens to be transferred\n    * @return True if the transfer was successful\n    */\n    function transferFrom(address _from, address _to, uint256 _amount) external returns (bool success) {\n        return tellor.transferFrom(_from,_to,_amount);\n    }\n    /**\n         * @dev Allows the current owner to transfer control of the contract to a newOwner.\n         * @param newOwner The address to transfer ownership to.\n    */\n    function transferOwnership(address payable newOwner) external {\n        tellor.transferOwnership(newOwner);\n    }\n\n    /**\n    * @dev Allows token holders to vote\n    * @param _disputeId is the dispute id\n    * @param _supportsDispute is the vote (true=the dispute has basis false = vote against dispute)\n    */\n    function vote(uint _disputeId, bool _supportsDispute) external {\n        tellor.vote(_disputeId,_supportsDispute);\n    }\n\n\n    /**\n    * @dev This function allows users to withdraw their stake after a 7 day waiting period from request \n    */\n    function withdrawStake() external {\n        tellor.withdrawStake();\n    }\n\n\n\n\n\n}\n",
  "sourcePath": "/Users/mdcoon/git/TellorCore/contracts/Tellor.sol",
  "compiler": {
    "name": "solc",
    "version": "0.5.0+commit.1d4f565a.Emscripten.clang"
  },
  "schemaVersion": "3.0.6",
  "updatedAt": "2019-04-12T16:02:16.565Z",
  "devdoc": {
    "details": "Oracle contract where miners can submit the proof of work along with the value.",
    "methods": {
      "approve(address,uint256)": {
        "details": "This function approves a _spender an _amount of tokens to use",
        "params": {
          "_amount": "amount the spender is being approved for",
          "_spender": "address"
        },
        "return": "true if spender appproved successfully"
      },
      "initDispute(uint256,uint256,uint256)": {
        "details": "Helps initialize a dispute by assigning it a disputeId  when a miner returns a false on the validate array(in Tellor.ProofOfWork) it sends the  invalidated value information to POS voting",
        "params": {
          "_apiId": "being disputed",
          "_timestamp": "being disputed"
        }
      },
      "proofOfWork(string,uint256,uint256)": {
        "details": "Proof of work is called by the miner when they submit the solution (proof of work and value)",
        "params": {
          "_apiId": "the apiId being mined",
          "nonce": "uint submitted by miner",
          "value": "of api query"
        },
        "return": "count of values sumbitted so far and the time of the last successful mine"
      },
      "propFork(address)": {
        "details": "propose fork",
        "params": {
          "_propNewTellorAddress": "address for new proposed Tellor"
        }
      },
      "requestData(string,string,uint256,uint256,uint256)": {
        "details": "Request to retreive value from oracle based on timestamp",
        "params": {
          "_c_sapi": "being requested be mined",
          "_c_symbol": "being requested be mined",
          "_tip": "amount the requester is willing to pay to be get on queue. Miners mine the apiOnQ, or the api with the highest payout pool"
        },
        "return": "_apiId for the request"
      },
      "requestWithdraw()": {
        "details": "This function allows stakers to request to withdraw their stake (no longer stake) "
      },
      "tallyVotes(uint256)": {
        "details": "tallies the votes.",
        "params": {
          "_disputeId": "is the dispute id"
        }
      },
      "transfer(address,uint256)": {
        "details": "Allows for a transfer of tokens to _to",
        "params": {
          "_amount": "The amount of tokens to send",
          "_to": "The address to send tokens to"
        },
        "return": "true if transfer is successful"
      },
      "transferFrom(address,address,uint256)": {
        "params": {
          "_amount": "The amount of tokens to be transferred",
          "_from": "The address holding the tokens being transferred",
          "_to": "The address of the recipient"
        },
        "return": "True if the transfer was successful"
      },
      "transferOwnership(address)": {
        "details": "Allows the current owner to transfer control of the contract to a newOwner.",
        "params": {
          "newOwner": "The address to transfer ownership to."
        }
      },
      "vote(uint256,bool)": {
        "details": "Allows token holders to vote",
        "params": {
          "_disputeId": "is the dispute id",
          "_supportsDispute": "is the vote (true=the dispute has basis false = vote against dispute)"
        }
      },
      "withdrawStake()": {
        "details": "This function allows users to withdraw their stake after a 7 day waiting period from request "
      }
    },
    "title": "Tellor Oracle System"
  },
  "userdoc": {
    "methods": {
      "transferFrom(address,address,uint256)": {
        "notice": "Send _amount tokens to _to from _from on the condition it is approved by _from"
      }
    }
  }
}