{
  "contractName": "TellorGettersLibrary",
  "abi": [
    {
      "anonymous": false,
      "inputs": [
        {
          "indexed": true,
          "name": "_owner",
          "type": "address"
        },
        {
          "indexed": true,
          "name": "_spender",
          "type": "address"
        },
        {
          "indexed": false,
          "name": "_value",
          "type": "uint256"
        }
      ],
      "name": "Approval",
      "type": "event",
      "signature": "0x8c5be1e5ebec7d5bd14f71427d1e84f3dd0314c0f7b2291e5b200ac8c7c3b925"
    },
    {
      "anonymous": false,
      "inputs": [
        {
          "indexed": true,
          "name": "_sender",
          "type": "address"
        },
        {
          "indexed": false,
          "name": "_query",
          "type": "string"
        },
        {
          "indexed": false,
          "name": "_querySymbol",
          "type": "string"
        },
        {
          "indexed": false,
          "name": "_granularity",
          "type": "uint256"
        },
        {
          "indexed": true,
          "name": "_requestId",
          "type": "uint256"
        },
        {
          "indexed": false,
          "name": "_totalTips",
          "type": "uint256"
        }
      ],
      "name": "DataRequested",
      "type": "event",
      "signature": "0x6d7f869757848b19c8c2456e95cd98885bc6bed062fda4077bb07985e2f76cc9"
    },
    {
      "anonymous": false,
      "inputs": [
        {
          "indexed": true,
          "name": "_disputeID",
          "type": "uint256"
        },
        {
          "indexed": false,
          "name": "_result",
          "type": "int256"
        },
        {
          "indexed": true,
          "name": "_reportedMiner",
          "type": "address"
        },
        {
          "indexed": false,
          "name": "_reportingParty",
          "type": "address"
        },
        {
          "indexed": false,
          "name": "_active",
          "type": "bool"
        }
      ],
      "name": "DisputeVoteTallied",
      "type": "event",
      "signature": "0x21459c2f5447ebcf83a7f0a238c32c71076faef0d12295e771c0cb1e10434739"
    },
    {
      "anonymous": false,
      "inputs": [
        {
          "indexed": false,
          "name": "_currentChallenge",
          "type": "bytes32"
        },
        {
          "indexed": true,
          "name": "_currentRequestId",
          "type": "uint256"
        },
        {
          "indexed": false,
          "name": "_difficulty",
          "type": "uint256"
        },
        {
          "indexed": false,
          "name": "_multiplier",
          "type": "uint256"
        },
        {
          "indexed": false,
          "name": "_query",
          "type": "string"
        },
        {
          "indexed": false,
          "name": "_totalTips",
          "type": "uint256"
        }
      ],
      "name": "NewChallenge",
      "type": "event",
      "signature": "0x9e959738f09af22daede9ff9563f8edf3f5cec8e17ce60287c911c95fa767f42"
    },
    {
      "anonymous": false,
      "inputs": [
        {
          "indexed": true,
          "name": "_disputeId",
          "type": "uint256"
        },
        {
          "indexed": true,
          "name": "_requestId",
          "type": "uint256"
        },
        {
          "indexed": false,
          "name": "_timestamp",
          "type": "uint256"
        }
      ],
      "name": "NewDispute",
      "type": "event",
      "signature": "0xd739c8b7fe870f381c5442416ff79d9f44c3e1d54a16ce39fc0fbe8206c4a6e8"
    },
    {
      "anonymous": false,
      "inputs": [
        {
          "indexed": true,
          "name": "_requestId",
          "type": "uint256"
        },
        {
          "indexed": false,
          "name": "_query",
          "type": "string"
        },
        {
          "indexed": false,
          "name": "_onDeckQueryHash",
          "type": "bytes32"
        },
        {
          "indexed": false,
          "name": "_onDeckTotalTips",
          "type": "uint256"
        }
      ],
      "name": "NewRequestOnDeck",
      "type": "event",
      "signature": "0x5ab383fe3e28263c839564bc7545520a7dd34b78cbd7ab21b2da5d2fd027bf6c"
    },
    {
      "anonymous": false,
      "inputs": [
        {
          "indexed": true,
          "name": "_sender",
          "type": "address"
        }
      ],
      "name": "NewStake",
      "type": "event",
      "signature": "0x46d8ab1385f70e5a3673e97c23c764f7600f7ed7a09b6687deae7131d51752e2"
    },
    {
      "anonymous": false,
      "inputs": [
        {
          "indexed": false,
          "name": "_newTellor",
          "type": "address"
        }
      ],
      "name": "NewTellorAddress",
      "type": "event",
      "signature": "0xc2d1449eb0b6547aa426e09d9942a77fa4fc8cd3296305b3163e22452e0bcb8d"
    },
    {
      "anonymous": false,
      "inputs": [
        {
          "indexed": true,
          "name": "_requestId",
          "type": "uint256"
        },
        {
          "indexed": false,
          "name": "_time",
          "type": "uint256"
        },
        {
          "indexed": false,
          "name": "_value",
          "type": "uint256"
        },
        {
          "indexed": false,
          "name": "_totalTips",
          "type": "uint256"
        },
        {
          "indexed": false,
          "name": "_currentChallenge",
          "type": "bytes32"
        }
      ],
      "name": "NewValue",
      "type": "event",
      "signature": "0xc509d04e0782579ee59912139246ccbdf6c36c43abd90591d912017f3467dd16"
    },
    {
      "anonymous": false,
      "inputs": [
        {
          "indexed": true,
          "name": "_miner",
          "type": "address"
        },
        {
          "indexed": false,
          "name": "_nonce",
          "type": "string"
        },
        {
          "indexed": true,
          "name": "_requestId",
          "type": "uint256"
        },
        {
          "indexed": false,
          "name": "_value",
          "type": "uint256"
        },
        {
          "indexed": false,
          "name": "_currentChallenge",
          "type": "bytes32"
        }
      ],
      "name": "NonceSubmitted",
      "type": "event",
      "signature": "0xe6d63a2aee0aaed2ab49702313ce54114f2145af219d7db30d6624af9e6dffc4"
    },
    {
      "anonymous": false,
      "inputs": [
        {
          "indexed": true,
          "name": "_previousOwner",
          "type": "address"
        },
        {
          "indexed": true,
          "name": "_newOwner",
          "type": "address"
        }
      ],
      "name": "OwnershipTransferred",
      "type": "event",
      "signature": "0x8be0079c531659141344cd1fd0a4f28419497f9722a3daafe3b4186f6b6457e0"
    },
    {
      "anonymous": false,
      "inputs": [
        {
          "indexed": true,
          "name": "_sender",
          "type": "address"
        }
      ],
      "name": "StakeWithdrawn",
      "type": "event",
      "signature": "0x4a7934670bd8304e7da22378be1368f7c4fef17c5aee81804beda8638fe428ec"
    },
    {
      "anonymous": false,
      "inputs": [
        {
          "indexed": true,
          "name": "_sender",
          "type": "address"
        }
      ],
      "name": "StakeWithdrawRequested",
      "type": "event",
      "signature": "0x453865710d0cb4b14ad25de371c860da196368895daa9662e5087711d14daecf"
    },
    {
      "anonymous": false,
      "inputs": [
        {
          "indexed": true,
          "name": "_sender",
          "type": "address"
        },
        {
          "indexed": true,
          "name": "_requestId",
          "type": "uint256"
        },
        {
          "indexed": false,
          "name": "_tip",
          "type": "uint256"
        },
        {
          "indexed": false,
          "name": "_totalTips",
          "type": "uint256"
        }
      ],
      "name": "TipAdded",
      "type": "event",
      "signature": "0xd32134405b68f6f7220f9c38ae310df1b648d16188006768d45be2f7c24e8820"
    },
    {
      "anonymous": false,
      "inputs": [
        {
          "indexed": true,
          "name": "_from",
          "type": "address"
        },
        {
          "indexed": true,
          "name": "_to",
          "type": "address"
        },
        {
          "indexed": false,
          "name": "_value",
          "type": "uint256"
        }
      ],
      "name": "Transfer",
      "type": "event",
      "signature": "0xddf252ad1be2c89b69c2b068fc378daa952ba7f163c4a11628f55a4df523b3ef"
    },
    {
      "anonymous": false,
      "inputs": [
        {
          "indexed": true,
          "name": "_disputeID",
          "type": "uint256"
        },
        {
          "indexed": false,
          "name": "_position",
          "type": "bool"
        },
        {
          "indexed": true,
          "name": "_voter",
          "type": "address"
        }
      ],
      "name": "Voted",
      "type": "event",
      "signature": "0x86abfce99b7dd908bec0169288797f85049ec73cbe046ed9de818fab3a497ae0"
    },
    {
      "constant": true,
      "inputs": [
        {
          "name": "self",
          "type": "TellorGettersLibrary.TellorStorageStruct storage"
        },
        {
          "name": "_user",
          "type": "address"
        },
        {
          "name": "_spender",
          "type": "address"
        }
      ],
      "name": "allowance",
      "outputs": [
        {
          "name": "",
          "type": "uint256"
        }
      ],
      "payable": false,
      "stateMutability": "view",
      "type": "function",
      "signature": "0x912c0e65"
    }
  ],
  "bytecode": "0x610195610030600b82828239805160001a6073146000811461002057610022565bfe5b5030600052607381538281f3fe7300000000000000000000000000000000000000003014608060405260043610610058576000357c0100000000000000000000000000000000000000000000000000000000900463ffffffff168063912c0e651461005d575b600080fd5b6100c96004803603606081101561007357600080fd5b8101908080359060200190929190803573ffffffffffffffffffffffffffffffffffffffff169060200190929190803573ffffffffffffffffffffffffffffffffffffffff1690602001909291905050506100df565b6040518082815260200191505060405180910390f35b600083604e0160008473ffffffffffffffffffffffffffffffffffffffff1673ffffffffffffffffffffffffffffffffffffffff16815260200190815260200160002060008373ffffffffffffffffffffffffffffffffffffffff1673ffffffffffffffffffffffffffffffffffffffff168152602001908152602001600020549050939250505056fea165627a7a72305820570c22160604f016a04afd2ed55fd23a8fc3c2381f6adfdfd1d7aafdcbf9b9c50029",
  "source": "pragma solidity ^0.5.0;\n\nimport \"./SafeMath.sol\";\nimport \"./Utilities.sol\";\n\n/**\n * @title Tellor Oracle System Library\n * @dev Oracle contract where miners can submit the proof of work along with the value.\n * @dev Note at the top is the struct.  THE STRUCT SHOULD ALWAYS BE THE SAME AS TELLORDATA.SOL\n * @dev Failure to do so will result in errors with the fallback proxy\n */\nlibrary TellorGettersLibrary{\n    using SafeMath for uint256;\n    struct Details {\n        uint value;\n        address miner;\n    }\n\n    struct Dispute {\n        bytes32 hash;\n        int tally;//current tally of votes for - against measure\n        bool executed;//is the dispute settled\n        bool disputeVotePassed;//did the vote pass?\n        bool isPropFork; //true for fork proposal NEW\n        address reportedMiner; //miner who alledgedly submitted the 'bad value' will get disputeFee if dispute vote fails\n        address reportingParty;//miner reporting the 'bad value'-pay disputeFee will get reportedMiner's stake if dispute vote passes\n        address proposedForkAddress;\n        mapping(bytes32 => uint) disputeUintVars;\n        // uint keccak256(\"requestId\");//apiID of disputed value\n        // uint keccak256(\"timestamp\");//timestamp of distputed value\n        // uint keccak256(\"value\"); //the value being disputed\n        // uint keccak256(\"minExecutionDate\");//7 days from when dispute initialized\n        // uint keccak256(\"numberOfVotes\");//the number of parties who have voted on the measure\n        // uint keccak256(\"blockNumber\");// the blocknumber for which votes will be calculated from\n        // uint keccak256(\"minerSlot\"); //index in dispute array\n        // uint keccak256(\"quorum\"); //quorum for dispute vote NEW\n        mapping (address => bool) voted; //mapping of address to whether or not they voted\n    }  \n    struct StakeInfo {\n        uint currentStatus;//0-not Staked, 1=Staked, 2=LockedForWithdraw 3= OnDispute\n        uint startDate; //stake start date\n    }\n    struct  Checkpoint {\n        uint128 fromBlock;// fromBlock is the block number that the value was generated from\n        uint128 value;// value is the amount of tokens at a specific block number\n    }\n    struct Request{\n        string queryString;//id to string api\n        string dataSymbol;\n        bytes32 queryHash;//hash of string\n        /*Tellor*/ uint[]  requestTimestamps; //array of all newValueTimestamps requested\n        mapping(bytes32 => uint) apiUintVars;\n        // uint keccak256(\"granularity\"); //multiplier for miners\n        // uint keccak256(\"requestQPosition\"); //index in requestQ\n        // uint keccak256(\"totalTip\");//bonus portion of payout\n        mapping(uint => uint) minedBlockNum;//[apiId][minedTimestamp]=>block.number\n        mapping(uint => uint) finalValues;//This the time series of finalValues stored by the contract where uint UNIX timestamp is mapped to value\n        mapping(uint => bool) inDispute;//checks if API id is in dispute or finalized.\n        mapping(uint => address[5]) minersByValue;  \n        mapping(uint => uint[5])valuesByTimestamp;\n    }    \n\n\n    struct TellorStorageStruct{\n            /*TellorStorage*/ \n            /*Tellor*/ bytes32 currentChallenge; //current challenge to be solved\n            /*Tellor*/ bytes32 onDeckQueryHash; //string of current api with highest PayoutPool not currently being mined\n            /*DisputesAndVoting*/ string _name; //name of the Token\n            /*DisputesAndVoting*/ string _symbol;//Token Symbol\n            /*Tellor*/ uint[5]  miningRewardDistributions;//The structure of the payout (how much uncles vs winner recieve)[1,5,10,5,1]\n            /*Tellor*/ uint[51]  requestQ; //uint50 array of the top50 requests by payment amount\n            /*Tellor*/ uint[]  newValueTimestamps; //array of all timestamps requested\n            /*Tellor*/ Details[5]  currentMiners; //This struct is for organizing the five mined values to find the median\n            mapping(bytes32 => address) addressVars;\n            // address keccak256(\"tellorContract\");//Tellor address\n            // address  keccak256(\"_owner\");//Tellor Owner address\n            mapping(bytes32 => uint) uintVars; \n            // /*DisputesAndVoting*/  keccak256(\"decimals\");    //18 decimal standard ERC20\n            // /*DisputesAndVoting*/ keccak256(\"disputeFee\");//cost to dispute a mined value\n            // /*DisputesAndVoting*/keccak256(\"disputeCount\");//totalHistoricalDisputes\n            // /*TokenAndStaking*/ keccak256(\"total_supply\"); //total_supply of the token in circulation\n            // /*TokenAndStaking*/ keccak256(\"stakeAmount\");//stakeAmount for miners (we can cut gas if we just hardcode it in...or should it be variable?)\n            // /*TokenAndStaking*/ keccak256(\"stakerCount\"); //number of parties currently staked\n            // /*Tellor*/ keccak256(\"timeOfLastNewValue\"); // time of last challenge solved\n            // /*Tellor*/ keccak256(\"difficulty\"); // Difficulty of current block\n            // /*Tellor*/ keccak256(\"onDeckRequestId\"); // apiId of the on queue request\n            // /*Tellor*/ keccak256(\"onDeckTotalTips\"); //value of highest api/timestamp PayoutPool\n            //keccak256(\"currentTotalTips\"); //value of highest api/timestamp PayoutPool\n            // /*Tellor*/ keccak256(\"currentRequestId\"); //API being mined--updates with the ApiOnQ Id \n            // /*Tellor*/ keccak256(\"requestCount\"); // total number of requests through the system\n            // /*Tellor*/ keccak256(\"slotProgress\");//Number of miners who have mined this value so far\n            // /*Tellor*/ keccak256(\"miningReward\");//Mining Reward in PoWo tokens given to all miners per value\n            // /*Tellor*/ keccak256(\"timeTarget\"); //The time between blocks (mined Oracle values)\n            /*Tellor*/ mapping(bytes32 => mapping(address=>bool)) minersByChallenge;//This is a boolean that tells you if a given challenge has been completed by a given miner\n            /*Tellor*/ mapping(uint => uint) requestIdByTimestamp;//minedTimestamp to apiId \n            /*Tellor*/ mapping(uint => uint) requestIdByRequestQIndex; //link from payoutPoolIndex (position in payout pool array) to apiId\n            /*DisputesAndVoting*/ mapping(uint => Dispute) disputesById;//disputeId=> Dispute details\n            /*TokenAndStaking*/ mapping (address => Checkpoint[]) balances; //balances of a party given blocks\n            /*TokenAndStaking*/ mapping(address => mapping (address => uint)) allowed; //allowance for a given party and approver\n            /*TokenAndStaking*/ mapping(address => StakeInfo)  stakerDetails;//mapping from a persons address to their staking info\n            /*DisputesAndVoting*/ mapping(uint => Request) requestDetails;//mapping of apiID to details\n            /*DisputesAndVoting*/ mapping(bytes32 => uint) requestIdByQueryHash;// api bytes32 gets an id = to count of requests array\n            /*DisputesAndVoting*/mapping(bytes32 => uint) disputeIdByDisputeHash;//maps a hash to an ID for each dispute\n    }\n\n    event Approval(address indexed _owner, address indexed _spender, uint256 _value);//ERC20 Approval event\n    event DataRequested(address indexed _sender, string _query,string _querySymbol,uint _granularity, uint indexed _requestId, uint _totalTips);//Emits upon someone adding value to a pool; msg.sender, amount added, and timestamp incentivized to be mined\n    event DisputeVoteTallied(uint indexed _disputeID, int _result,address indexed _reportedMiner,address _reportingParty, bool _active);//emitted upon dispute tally\n    event NewChallenge(bytes32 _currentChallenge,uint indexed _currentRequestId,uint _difficulty,uint _multiplier,string _query,uint _totalTips); //emits when a new challenge is created (either on mined block or when a new request is pushed forward on waiting system)\n    event NewDispute(uint indexed _disputeId, uint indexed _requestId, uint _timestamp);//emitted when a new dispute is initialized\n    event NewRequestOnDeck(uint indexed _requestId, string _query, bytes32 _onDeckQueryHash, uint _onDeckTotalTips); //emits when a the payout of another request is higher after adding to the payoutPool or submitting a request\n    event NewStake(address indexed _sender);//Emits upon new staker\n    event NewTellorAddress(address _newTellor); //emmited when a proposed fork is voted true\n    event NewValue(uint indexed _requestId, uint _time, uint _value,uint _totalTips,bytes32 _currentChallenge);//Emits upon a successful Mine, indicates the blocktime at point of the mine and the value mined\n    event NonceSubmitted(address indexed _miner, string _nonce, uint indexed _requestId, uint _value,bytes32 _currentChallenge);//Emits upon each mine (5 total) and shows the miner, nonce, and value submitted\n    event OwnershipTransferred(address indexed _previousOwner, address indexed _newOwner);\n    event StakeWithdrawn(address indexed _sender);//Emits when a staker is now no longer staked\n    event StakeWithdrawRequested(address indexed _sender);//Emits when a staker begins the 7 day withdraw period\n    event TipAdded(address indexed _sender,uint indexed _requestId, uint _tip, uint _totalTips);\n    event Transfer(address indexed _from, address indexed _to, uint256 _value);//ERC20 Transfer Event\n    event Voted(uint indexed _disputeID, bool _position, address indexed _voter);//emitted when a new vote happens\n    \n    //Tellor Getters\n\n\n /**\n    * @param _user address\n    * @param _spender address\n    * @return Returns the remaining allowance of tokens granted to the _spender from the _user\n    */\n    function allowance(TellorStorageStruct storage self,address _user, address _spender) public view returns (uint) {\n       return self.allowed[_user][_spender]; }\n\n\n    /**\n     *@dev This function returns whether or not a given user is allowed to trade a given amount  \n     *@param address of user\n     *@param address of amount\n    */\n    function allowedToTrade(TellorStorageStruct storage self,address _user,uint _amount) internal view returns(bool){\n        if(self.stakerDetails[_user].currentStatus >0){\n            if(balanceOf(self,_user).sub(self.uintVars[keccak256(\"stakeAmount\")]).sub(_amount) >= 0){\n                return true;\n            }\n        }\n        else if(balanceOf(self,_user).sub(_amount) >= 0){\n                return true;\n        }\n        return false;\n    }\n    /**\n    }\n    }\n    * @dev Gets balance of owner specified\n    * @param _user is the owner address used to look up the balance\n    * @return Returns the balance associated with the passed in _user\n    */\n    function balanceOf(TellorStorageStruct storage self,address _user) internal view returns (uint) { \n        return balanceOfAt(self,_user, block.number); \n    }\n\n    \n\n/**\n    * @dev Queries the balance of _user at a specific _blockNumber\n    * @param _user The address from which the balance will be retrieved\n    * @param _blockNumber The block number when the balance is queried\n    * @return The balance at _blockNumber\n    */\n    function balanceOfAt(TellorStorageStruct storage self,address _user, uint _blockNumber) internal view returns (uint) {\n        if ((self.balances[_user].length == 0) || (self.balances[_user][0].fromBlock > _blockNumber)) {\n                return 0;\n        }\n     else {\n        Checkpoint[] storage checkpoints = self.balances[_user];\n        if (checkpoints.length == 0) return 0;\n        if (_blockNumber >= checkpoints[checkpoints.length-1].fromBlock)\n            return checkpoints[checkpoints.length-1].value;\n        if (_blockNumber < checkpoints[0].fromBlock) return 0;\n        // Binary search of the value in the array\n        uint min = 0;\n        uint max = checkpoints.length-1;\n        while (max > min) {\n            uint mid = (max + min + 1)/ 2;\n            if (checkpoints[mid].fromBlock<=_blockNumber) {\n                min = mid;\n            } else {\n                max = mid-1;\n            }\n        }\n        return checkpoints[min].value;\n     }\n    }\n    /**\n    * @dev This function tells you if a given challenge has been completed by a given miner\n    * @param _challenge the challenge to search for\n    * @param _miner address that you want to know if they solved the challenge\n    * @return true if the _miner address provided solved the \n    */\n    function didMine(TellorStorageStruct storage self, bytes32 _challenge,address _miner) internal view returns(bool){\n        return self.minersByChallenge[_challenge][_miner];\n    }\n    \n    /**\n    * @dev Checks if an address voted in a dispute\n    * @param _disputeId to look up\n    * @param _address to look up\n    * @return bool of whether or not party voted\n    */\n    function didVote(TellorStorageStruct storage self,uint _disputeId, address _address) internal view returns(bool){\n        return self.disputesById[_disputeId].voted[_address];\n    }\n\n\n    //self.addressVars[keccak256(\"_owner\")]\n    //addressVars[keccak256(\"tellorContract\")]\n    function getAddressVars(TellorStorageStruct storage self, bytes32 _data) view internal returns(address){\n        return self.addressVars[_data];\n    }\n\n        /**\n    * @dev Gets all dispute variables\n    * @param _disputeId to look up\n    * @return address of reported miner\n    * @return address of reporting party\n    * @return disputed apiId\n    * @return disputed minimum execution date\n    * @return uint number of votes\n    * @return uint blockNumber of vote\n    * @return uint index in disputeId array\n    * @return int count of the current tally\n    * @return bool of whether vote has been tallied\n    */\n    function getAllDisputeVars(TellorStorageStruct storage self,uint _disputeId) internal view returns(bytes32, bool, bool, bool, address, address, address,uint[8] memory, int){\n        Dispute storage disp = self.disputesById[_disputeId];\n        return(disp.hash,disp.executed, disp.disputeVotePassed, disp.isPropFork, disp.reportedMiner, disp.reportingParty,disp.proposedForkAddress,[disp.disputeUintVars[keccak256(\"requestId\")], disp.disputeUintVars[keccak256(\"timestamp\")], disp.disputeUintVars[keccak256(\"value\")], disp.disputeUintVars[keccak256(\"minExecutionDate\")], disp.disputeUintVars[keccak256(\"numberOfVotes\")], disp.disputeUintVars[keccak256(\"blockNumber\")], disp.disputeUintVars[keccak256(\"minerSlot\")], disp.disputeUintVars[keccak256(\"quorum\")]],disp.tally);\n    }\n    /**\n    * @dev Getter function for currentChallenge difficulty\n    * @return current challenge, MiningApiID, level of difficulty\n    */\n    function getCurrentVariables(TellorStorageStruct storage self) internal view returns(bytes32, uint, uint,string memory,uint,uint){    \n        return (self.currentChallenge,self.uintVars[keccak256(\"currentRequestId\")],self.uintVars[keccak256(\"difficulty\")],self.requestDetails[self.uintVars[keccak256(\"currentRequestId\")]].queryString,self.requestDetails[self.uintVars[keccak256(\"currentRequestId\")]].apiUintVars[keccak256(\"granularity\")],self.requestDetails[self.uintVars[keccak256(\"currentRequestId\")]].apiUintVars[keccak256(\"totalTip\")]);\n    }\n\n    /**\n    * @dev Checks if a given hash of miner,apiId has been disputed\n    * @param _hash of sha256(abi.encodePacked(_miners[2],_requestId));\n    * @return uint disputeId\n    */\n    function getDisputeIdByDisputeHash(TellorStorageStruct storage self,bytes32 _hash) internal view returns(uint){\n        return  self.disputeIdByDisputeHash[_hash];\n    }\n\n    function getDisputeUintVars(TellorStorageStruct storage self,uint _disputeId,bytes32 _data) internal view returns(uint){\n        return self.disputesById[_disputeId].disputeUintVars[_data];\n    }\n\n\n\n    /**\n    * @dev Gets the a value for the latest timestamp available\n    * @return value for timestamp of last proof of work submited\n    */\n    function getLastNewValue(TellorStorageStruct storage self) internal view returns(uint,bool){\n        return (retrieveData(self,self.requestIdByTimestamp[self.uintVars[keccak256(\"timeOfLastNewValue\")]], self.uintVars[keccak256(\"timeOfLastNewValue\")]),true);\n    }\n            /**\n    * @dev Gets blocknumber for mined timestamp \n    * @param _requestId to look up\n    * @param _timestamp is the timestamp to look up blocknumber\n    * @return uint of the blocknumber which the dispute was mined\n    */\n    function getMinedBlockNum(TellorStorageStruct storage self,uint _requestId, uint _timestamp) internal view returns(uint){\n        return self.requestDetails[_requestId].minedBlockNum[_timestamp];\n    }\n\n    /**\n    * @dev Gets the 5 miners who mined the value for the specified apiId/_timestamp \n    * @param _requestId to look up\n    * @param _timestamp is the timestampt to look up miners for\n    */\n    function getMinersByRequestIdAndTimestamp(TellorStorageStruct storage self, uint _requestId, uint _timestamp) internal view returns(address[5] memory){\n        return self.requestDetails[_requestId].minersByValue[_timestamp];\n    }\n\n\n\n\n    function getNewValueCountbyRequestId(TellorStorageStruct storage self, uint _requestId) internal view returns(uint){\n        return self.requestDetails[_requestId].requestTimestamps.length;\n    }\n\n        /**\n    * @dev Getter function for the apiId for the specified requestQ index\n    * @param _index to look up the apiId\n    * @return apiId\n    */\n    function getRequestIdByRequestQIndex(TellorStorageStruct storage self, uint _index) internal view returns(uint){\n        return self.requestIdByRequestQIndex[_index];\n    }\n\n    /**\n    * @dev Getter function for apiId based on timestamp. Only one value is mined per\n    * timestamp and each timestamp can correspond to a different API. \n    * @param _timestamp to check APIId\n    * @return apiId\n    */\n    function getRequestIdByTimestamp(TellorStorageStruct storage self, uint _timestamp) internal view returns(uint){    \n        return self.requestIdByTimestamp[_timestamp];\n    }\n    /**\n    * @dev Getter function for apiId based on api hash\n    * @param _queryHash string to check if it already has an apiId\n    * @return uint apiId\n    */\n    function getRequestIdByQueryHash(TellorStorageStruct storage self, bytes32 _queryHash) internal view returns(uint){    \n        return self.requestIdByQueryHash[_queryHash];\n    }\n\n\n\n    function getRequestQ(TellorStorageStruct storage self) view internal returns(uint[51] memory){\n        return self.requestQ;\n    }\n\n    function getRequestUintVars(TellorStorageStruct storage self,uint _requestId,bytes32 _data) internal view returns(uint){\n        return self.requestDetails[_requestId].apiUintVars[_data];\n    }\n        /**\n    * @dev Gets the API struct variables that are not mappings\n    * @param _requestId to look up\n    * @return string of api to query\n    * @return string of symbol of api to query\n    * @return bytes32 hash of string\n    * @return uint of index in PayoutPool array\n    * @return uint of current payout for this api\n    */\n    function getRequestVars(TellorStorageStruct storage self,uint _requestId) internal view returns(string memory,string memory, bytes32,uint, uint, uint) {\n        Request storage _request = self.requestDetails[_requestId]; \n        return (_request.queryString,_request.dataSymbol,_request.queryHash, _request.apiUintVars[keccak256(\"granularity\")],_request.apiUintVars[keccak256(\"requestQPosition\")],_request.apiUintVars[keccak256(\"totalTip\")]);\n    }\n\n\n    /**\n     *@dev This function allows users to retireve all information about a staker\n     *@param address of staker enquiring about\n     *@return uint current state of staker\n     *@return uint startDate of staking\n    */\n    function getStakerInfo(TellorStorageStruct storage self,address _staker) internal view returns(uint,uint){\n        return (self.stakerDetails[_staker].currentStatus,self.stakerDetails[_staker].startDate);\n    }\n\n\n        /**\n    * @dev Gets the 5 miners who mined the value for the specified apiId/_timestamp \n    * @param _requestId to look up\n    * @param _timestamp is the timestampt to look up miners for\n    */\n    function getSubmissionsByTimestamp(TellorStorageStruct storage self, uint _requestId, uint _timestamp) internal view returns(uint[5] memory){\n        return self.requestDetails[_requestId].valuesByTimestamp[_timestamp];\n    }\n\n\n    function getTimestampbyRequestIDandIndex(TellorStorageStruct storage self,uint _requestID, uint _index) internal view returns(uint){\n        return self.requestDetails[_requestID].requestTimestamps[_index];\n    }\n\n\n    //self.uintVars[keccak256(\"stakerCount\")]\n    function getUintVar(TellorStorageStruct storage self,bytes32 _data) view internal returns(uint){\n        return self.uintVars[_data];\n    }\n\n    /**\n    * @dev Getter function for api on queue\n    * @return apionQ hash, id, payout, and api string\n    */\n    function getVariablesOnDeck(TellorStorageStruct storage self) internal view returns(uint, uint,string memory){    \n        return (self.uintVars[keccak256(\"onDeckRequestId\")],self.uintVars[keccak256(\"onDeckTotalTips\")],self.requestDetails[self.uintVars[keccak256(\"onDeckRequestId\")]].queryString);\n    }\n    /**\n    * @dev Gets the 5 miners who mined the value for the specified apiId/_timestamp \n    * @param _requestId to look up\n    * @param _timestamp is the timestampt to look up miners for\n    */\n    function isInDispute(TellorStorageStruct storage self, uint _requestId, uint _timestamp) internal view returns(bool){\n        return self.requestDetails[_requestId].inDispute[_timestamp];\n    }\n        //add tests for these\n    //should I just drop these?\n    function name(TellorStorageStruct storage self) internal returns(string memory){\n        return self._name;\n    }\n\n    /**\n    * @dev Retreive value from oracle based on timestamp\n    * @param _requestId being requested\n    * @param _timestamp to retreive data/value from\n    * @return value for timestamp submitted\n    */\n    function retrieveData(TellorStorageStruct storage self, uint _requestId, uint _timestamp) internal view returns (uint) {\n        return self.requestDetails[_requestId].finalValues[_timestamp];\n    }\n\n    function symbol(TellorStorageStruct storage self) internal returns(string memory){\n        return self._symbol;\n    } \n\n    //Only needs to be in library\n    function tellorMasterConstructor(TellorStorageStruct storage self,address _tellorContract) internal{\n        self.addressVars[keccak256(\"_owner\")] = msg.sender;\n        self.addressVars[keccak256(\"tellorContract\")]= _tellorContract;\n        emit NewTellorAddress(_tellorContract);\n    }\n    /**\n    * @dev Getter for the total_supply of oracle tokens\n    * @return total supply\n    */\n    function totalSupply(TellorStorageStruct storage self) internal view returns (uint) {\n       return self.uintVars[keccak256(\"total_supply\")];\n    }\n\n\n}\n",
  "sourcePath": "/Users/mdcoon/git/TellorCore/contracts/libraries/TellorGettersLibrary.sol",
  "compiler": {
    "name": "solc",
    "version": "0.5.0+commit.1d4f565a.Emscripten.clang"
  },
  "schemaVersion": "3.0.6",
  "updatedAt": "2019-04-17T17:43:00.916Z",
  "devdoc": {
    "details": "Oracle contract where miners can submit the proof of work along with the value.Note at the top is the struct.  THE STRUCT SHOULD ALWAYS BE THE SAME AS TELLORDATA.SOLFailure to do so will result in errors with the fallback proxy",
    "methods": {
      "allowance(TellorGettersLibrary.TellorStorageStruct storage,address,address)": {
        "params": {
          "_spender": "address",
          "_user": "address"
        },
        "return": "Returns the remaining allowance of tokens granted to the _spender from the _user"
      }
    },
    "title": "Tellor Oracle System Library"
  },
  "userdoc": {
    "methods": {}
  }
}