{
  "contractName": "Tellor",
  "abi": [
    {
      "constant": false,
      "inputs": [
        {
          "name": "_apiId",
          "type": "uint256"
        },
        {
          "name": "_tip",
          "type": "uint256"
        }
      ],
      "name": "addTip",
      "outputs": [],
      "payable": false,
      "stateMutability": "nonpayable",
      "type": "function",
      "signature": "0x752d49a1"
    },
    {
      "constant": false,
      "inputs": [
        {
          "name": "_spender",
          "type": "address"
        },
        {
          "name": "_amount",
          "type": "uint256"
        }
      ],
      "name": "approve",
      "outputs": [
        {
          "name": "",
          "type": "bool"
        }
      ],
      "payable": false,
      "stateMutability": "nonpayable",
      "type": "function",
      "signature": "0x095ea7b3"
    },
    {
      "constant": false,
      "inputs": [],
      "name": "depositStake",
      "outputs": [],
      "payable": false,
      "stateMutability": "nonpayable",
      "type": "function",
      "signature": "0x0d2d76a2"
    },
    {
      "constant": false,
      "inputs": [
        {
          "name": "_apiId",
          "type": "uint256"
        },
        {
          "name": "_timestamp",
          "type": "uint256"
        },
        {
          "name": "_minerIndex",
          "type": "uint256"
        }
      ],
      "name": "initDispute",
      "outputs": [],
      "payable": false,
      "stateMutability": "nonpayable",
      "type": "function",
      "signature": "0xabdb5fca"
    },
    {
      "constant": false,
      "inputs": [],
      "name": "initStake",
      "outputs": [],
      "payable": false,
      "stateMutability": "nonpayable",
      "type": "function",
      "signature": "0x3981194f"
    },
    {
      "constant": false,
      "inputs": [
        {
          "name": "nonce",
          "type": "string"
        },
        {
          "name": "_apiId",
          "type": "uint256"
        },
        {
          "name": "value",
          "type": "uint256"
        }
      ],
      "name": "proofOfWork",
      "outputs": [],
      "payable": false,
      "stateMutability": "nonpayable",
      "type": "function",
      "signature": "0xbb916296"
    },
    {
      "constant": false,
      "inputs": [
        {
          "name": "_propNewTellorAddress",
          "type": "address"
        }
      ],
      "name": "propFork",
      "outputs": [],
      "payable": false,
      "stateMutability": "nonpayable",
      "type": "function",
      "signature": "0x31a2134a"
    },
    {
      "constant": false,
      "inputs": [
        {
          "name": "_c_sapi",
          "type": "string"
        },
        {
          "name": "_c_symbol",
          "type": "string"
        },
        {
          "name": "c_apiId",
          "type": "uint256"
        },
        {
          "name": "_granularity",
          "type": "uint256"
        },
        {
          "name": "_tip",
          "type": "uint256"
        }
      ],
      "name": "requestData",
      "outputs": [],
      "payable": false,
      "stateMutability": "nonpayable",
      "type": "function",
      "signature": "0xf78a63c4"
    },
    {
      "constant": false,
      "inputs": [],
      "name": "requestWithdraw",
      "outputs": [],
      "payable": false,
      "stateMutability": "nonpayable",
      "type": "function",
      "signature": "0xb3423eec"
    },
    {
      "constant": false,
      "inputs": [
        {
          "name": "_disputeId",
          "type": "uint256"
        }
      ],
      "name": "tallyVotes",
      "outputs": [],
      "payable": false,
      "stateMutability": "nonpayable",
      "type": "function",
      "signature": "0x4d318b0e"
    },
    {
      "constant": false,
      "inputs": [
        {
          "name": "_to",
          "type": "address"
        },
        {
          "name": "_amount",
          "type": "uint256"
        }
      ],
      "name": "transfer",
      "outputs": [
        {
          "name": "success",
          "type": "bool"
        }
      ],
      "payable": false,
      "stateMutability": "nonpayable",
      "type": "function",
      "signature": "0xa9059cbb"
    },
    {
      "constant": false,
      "inputs": [
        {
          "name": "_from",
          "type": "address"
        },
        {
          "name": "_to",
          "type": "address"
        },
        {
          "name": "_amount",
          "type": "uint256"
        }
      ],
      "name": "transferFrom",
      "outputs": [
        {
          "name": "success",
          "type": "bool"
        }
      ],
      "payable": false,
      "stateMutability": "nonpayable",
      "type": "function",
      "signature": "0x23b872dd"
    },
    {
      "constant": false,
      "inputs": [
        {
          "name": "newOwner",
          "type": "address"
        }
      ],
      "name": "transferOwnership",
      "outputs": [],
      "payable": false,
      "stateMutability": "nonpayable",
      "type": "function",
      "signature": "0xf2fde38b"
    },
    {
      "constant": false,
      "inputs": [
        {
          "name": "_disputeId",
          "type": "uint256"
        },
        {
          "name": "_supportsDispute",
          "type": "bool"
        }
      ],
      "name": "vote",
      "outputs": [],
      "payable": false,
      "stateMutability": "nonpayable",
      "type": "function",
      "signature": "0xc9d27afe"
    },
    {
      "constant": false,
      "inputs": [],
      "name": "withdrawStake",
      "outputs": [],
      "payable": false,
      "stateMutability": "nonpayable",
      "type": "function",
      "signature": "0xbed9d861"
    }
  ],
  "bytecode": "0x608060405234801561001057600080fd5b50615dcf80620000216000396000f3fe6080604052600436106100db576000357c0100000000000000000000000000000000000000000000000000000000900463ffffffff168063095ea7b3146100e05780630d2d76a21461015357806323b872dd1461016a57806331a2134a146101fd5780633981194f1461024e5780634d318b0e14610265578063752d49a1146102a0578063a9059cbb146102e5578063abdb5fca14610358578063b3423eec146103a7578063bb916296146103be578063bed9d86114610458578063c9d27afe1461046f578063f2fde38b146104b6578063f78a63c414610507575b600080fd5b3480156100ec57600080fd5b506101396004803603604081101561010357600080fd5b81019080803573ffffffffffffffffffffffffffffffffffffffff16906020019092919080359060200190929190505050610600565b604051808215151515815260200191505060405180910390f35b34801561015f57600080fd5b506101686106ee565b005b34801561017657600080fd5b506101e36004803603606081101561018d57600080fd5b81019080803573ffffffffffffffffffffffffffffffffffffffff169060200190929190803573ffffffffffffffffffffffffffffffffffffffff16906020019092919080359060200190929190505050610776565b604051808215151515815260200191505060405180910390f35b34801561020957600080fd5b5061024c6004803603602081101561022057600080fd5b81019080803573ffffffffffffffffffffffffffffffffffffffff169060200190929190505050610799565b005b34801561025a57600080fd5b506102636107b0565b005b34801561027157600080fd5b5061029e6004803603602081101561028857600080fd5b8101908080359060200190929190505050610838565b005b3480156102ac57600080fd5b506102e3600480360360408110156102c357600080fd5b81019080803590602001909291908035906020019092919050505061084f565b005b3480156102f157600080fd5b5061033e6004803603604081101561030857600080fd5b81019080803573ffffffffffffffffffffffffffffffffffffffff169060200190929190803590602001909291905050506108e9565b604051808215151515815260200191505060405180910390f35b34801561036457600080fd5b506103a56004803603606081101561037b57600080fd5b81019080803590602001909291908035906020019092919080359060200190929190505050610909565b005b3480156103b357600080fd5b506103bc6109ac565b005b3480156103ca57600080fd5b50610456600480360360608110156103e157600080fd5b81019080803590602001906401000000008111156103fe57600080fd5b82018360208201111561041057600080fd5b8035906020019184600183028401116401000000008311171561043257600080fd5b909192939192939080359060200190929190803590602001909291905050506109b8565b005b34801561046457600080fd5b5061046d610a1a565b005b34801561047b57600080fd5b506104b46004803603604081101561049257600080fd5b8101908080359060200190929190803515159060200190929190505050610a26565b005b3480156104c257600080fd5b50610505600480360360208110156104d957600080fd5b81019080803573ffffffffffffffffffffffffffffffffffffffff169060200190929190505050610a40565b005b34801561051357600080fd5b506105fe600480360360a081101561052a57600080fd5b810190808035906020019064010000000081111561054757600080fd5b82018360208201111561055957600080fd5b8035906020019184600183028401116401000000008311171561057b57600080fd5b90919293919293908035906020019064010000000081111561059c57600080fd5b8201836020820111156105ae57600080fd5b803590602001918460018302840111640100000000831117156105d057600080fd5b9091929391929390803590602001909291908035906020019092919080359060200190929190505050610a57565b005b60008073__TellorLibrary_________________________63a3dd5a05909185856040518463ffffffff167c0100000000000000000000000000000000000000000000000000000000028152600401808481526020018373ffffffffffffffffffffffffffffffffffffffff1673ffffffffffffffffffffffffffffffffffffffff168152602001828152602001935050505060206040518083038186803b1580156106ab57600080fd5b505af41580156106bf573d6000803e3d6000fd5b505050506040513d60208110156106d557600080fd5b8101908080519060200190929190505050905092915050565b600073__TellorLibrary_________________________6316c7360c90916040518263ffffffff167c01000000000000000000000000000000000000000000000000000000000281526004018082815260200191505060006040518083038186803b15801561075c57600080fd5b505af4158015610770573d6000803e3d6000fd5b50505050565b60006107908484846000610b04909392919063ffffffff16565b90509392505050565b6107ad816000610c3790919063ffffffff16565b50565b600073__TellorLibrary_________________________638a94c04790916040518263ffffffff167c01000000000000000000000000000000000000000000000000000000000281526004018082815260200191505060006040518083038186803b15801561081e57600080fd5b505af4158015610832573d6000803e3d6000fd5b50505050565b61084c81600061109390919063ffffffff16565b50565b600073__TellorLibrary_________________________634cd87233909184846040518463ffffffff167c010000000000000000000000000000000000000000000000000000000002815260040180848152602001838152602001828152602001935050505060006040518083038186803b1580156108cd57600080fd5b505af41580156108e1573d6000803e3d6000fd5b505050505050565b6000610901838360006119459092919063ffffffff16565b905092915050565b600073__TellorLibrary_________________________63797e18ee90918585856040518563ffffffff167c01000000000000000000000000000000000000000000000000000000000281526004018085815260200184815260200183815260200182815260200194505050505060006040518083038186803b15801561098f57600080fd5b505af41580156109a3573d6000803e3d6000fd5b50505050505050565b6109b6600061195e565b565b610a1484848080601f016020809104026020016040519081016040528093929190818152602001838380828437600081840152601f19601f8201169050808301925050505050505083836000611a79909392919063ffffffff16565b50505050565b610a246000613d4c565b565b610a3c82826000613e209092919063ffffffff16565b5050565b610a548160006140e690919063ffffffff16565b50565b610afb87878080601f016020809104026020016040519081016040528093929190818152602001838380828437600081840152601f19601f8201169050808301925050505050505086868080601f016020809104026020016040519081016040528093929190818152602001838380828437600081840152601f19601f8201169050808301925050505050505085858560006142db9095949392919063ffffffff16565b50505050505050565b6000818560420160008673ffffffffffffffffffffffffffffffffffffffff1673ffffffffffffffffffffffffffffffffffffffff16815260200190815260200160002060003373ffffffffffffffffffffffffffffffffffffffff1673ffffffffffffffffffffffffffffffffffffffff1681526020019081526020016000205410151515610b9357600080fd5b818560420160008673ffffffffffffffffffffffffffffffffffffffff1673ffffffffffffffffffffffffffffffffffffffff16815260200190815260200160002060003373ffffffffffffffffffffffffffffffffffffffff1673ffffffffffffffffffffffffffffffffffffffff16815260200190815260200160002060008282540392505081905550610c2b85858585614822565b60019050949350505050565b600081604051602001808273ffffffffffffffffffffffffffffffffffffffff1673ffffffffffffffffffffffffffffffffffffffff166c01000000000000000000000000028152601401915050604051602081830303815290604052805190602001209050600083604601600083815260200190815260200160002054141515610cc157600080fd5b610d1783333086600301600060405180807f6469737075746546656500000000000000000000000000000000000000000000815250600a0190506040518091039020815260200190815260200160002054614822565b82600301600060405180807f64697370757465436f756e740000000000000000000000000000000000000000815250600c0190506040518091039020815260200190815260200160002060008154809291906001019190505550600083600301600060405180807f64697370757465436f756e740000000000000000000000000000000000000000815250600c019050604051809103902081526020019081526020016000205490508084604601600084815260200190815260200160002081905550610100604051908101604052808381526020016000151581526020016000151581526020016001151581526020013373ffffffffffffffffffffffffffffffffffffffff1681526020013373ffffffffffffffffffffffffffffffffffffffff1681526020018473ffffffffffffffffffffffffffffffffffffffff16815260200160008152508460400160008381526020019081526020016000206000820151816000015560208201518160010160006101000a81548160ff02191690831515021790555060408201518160010160016101000a81548160ff02191690831515021790555060608201518160010160026101000a81548160ff02191690831515021790555060808201518160010160036101000a81548173ffffffffffffffffffffffffffffffffffffffff021916908373ffffffffffffffffffffffffffffffffffffffff16021790555060a08201518160020160006101000a81548173ffffffffffffffffffffffffffffffffffffffff021916908373ffffffffffffffffffffffffffffffffffffffff16021790555060c08201518160030160006101000a81548173ffffffffffffffffffffffffffffffffffffffff021916908373ffffffffffffffffffffffffffffffffffffffff16021790555060e0820151816005015590505043846040016000838152602001908152602001600020600401600060405180807f626c6f636b4e756d626572000000000000000000000000000000000000000000815250600b019050604051809103902081526020019081526020016000208190555062093a804201846040016000838152602001908152602001600020600401600060405180807f6d696e457865637574696f6e44617465000000000000000000000000000000008152506010019050604051809103902081526020019081526020016000208190555050505050565b60008260400160008381526020019081526020016000209050600083604401600083600401600060405180807f61706949640000000000000000000000000000000000000000000000000000008152506005019050604051809103902081526020019081526020016000205481526020019081526020016000209050600015158260010160009054906101000a900460ff16151514151561113357600080fd5b81600401600060405180807f6d696e457865637574696f6e4461746500000000000000000000000000000000815250601001905060405180910390208152602001908152602001600020544211151561118b57600080fd5b600015158260010160029054906101000a900460ff16151514156117595760008460430160008460010160039054906101000a900473ffffffffffffffffffffffffffffffffffffffff1673ffffffffffffffffffffffffffffffffffffffff1673ffffffffffffffffffffffffffffffffffffffff16815260200190815260200160002090506000836005015413156114b65760008160000181905550620151804281151561123757fe5b064203816001018190555084600301600060405180807f7374616b65727300000000000000000000000000000000000000000000000000815250600701905060405180910390208152602001908152602001600020600081548092919060019003919050555061133b858460010160039054906101000a900473ffffffffffffffffffffffffffffffffffffffff168560020160009054906101000a900473ffffffffffffffffffffffffffffffffffffffff1688600301600060405180807f7374616b65416d7400000000000000000000000000000000000000000000000081525060080190506040518091039020815260200190815260200160002054614822565b6113b585338560020160009054906101000a900473ffffffffffffffffffffffffffffffffffffffff1688600301600060405180807f6469737075746546656500000000000000000000000000000000000000000000815250600a0190506040518091039020815260200190815260200160002054614822565b60018360010160016101000a81548160ff0219169083151502179055506001151582600601600085600401600060405180807f74696d657374616d70000000000000000000000000000000000000000000000081525060090190506040518091039020815260200190815260200160002054815260200190815260200160002060009054906101000a900460ff16151514156114b157600082600501600085600401600060405180807f74696d657374616d700000000000000000000000000000000000000000000000815250600901905060405180910390208152602001908152602001600020548152602001908152602001600020819055505b611667565b6001816000018190555060018360010160006101000a81548160ff02191690831515021790555060008360010160016101000a81548160ff02191690831515021790555061157485338560010160039054906101000a900473ffffffffffffffffffffffffffffffffffffffff1688600301600060405180807f6469737075746546656500000000000000000000000000000000000000000000815250600a0190506040518091039020815260200190815260200160002054614822565b6001151582600601600085600401600060405180807f74696d657374616d70000000000000000000000000000000000000000000000081525060090190506040518091039020815260200190815260200160002054815260200190815260200160002060009054906101000a900460ff161515141561166657600082600601600085600401600060405180807f74696d657374616d70000000000000000000000000000000000000000000000081525060090190506040518091039020815260200190815260200160002054815260200190815260200160002060006101000a81548160ff0219169083151502179055505b5b8260010160039054906101000a900473ffffffffffffffffffffffffffffffffffffffff1673ffffffffffffffffffffffffffffffffffffffff16847f21459c2f5447ebcf83a7f0a238c32c71076faef0d12295e771c0cb1e1043473985600501548660020160009054906101000a900473ffffffffffffffffffffffffffffffffffffffff168760010160019054906101000a900460ff16604051808481526020018373ffffffffffffffffffffffffffffffffffffffff1673ffffffffffffffffffffffffffffffffffffffff16815260200182151515158152602001935050505060405180910390a35061193f565b6064601485600301600060405180807f746f74616c5f737570706c790000000000000000000000000000000000000000815250600c0190506040518091039020815260200190815260200160002054028115156117b257fe5b0482600401600060405180807f71756f72756d00000000000000000000000000000000000000000000000000008152506006019050604051809103902081526020019081526020016000205411151561180a57600080fd5b8160030160009054906101000a900473ffffffffffffffffffffffffffffffffffffffff1684600001600060405180807f74656c6c6f72436f6e7472616374000000000000000000000000000000000000815250600e0190506040518091039020815260200190815260200160002060006101000a81548173ffffffffffffffffffffffffffffffffffffffff021916908373ffffffffffffffffffffffffffffffffffffffff1602179055507fc2d1449eb0b6547aa426e09d9942a77fa4fc8cd3296305b3163e22452e0bcb8d8260030160009054906101000a900473ffffffffffffffffffffffffffffffffffffffff16604051808273ffffffffffffffffffffffffffffffffffffffff1673ffffffffffffffffffffffffffffffffffffffff16815260200191505060405180910390a15b50505050565b600061195384338585614822565b600190509392505050565b60008160430160003373ffffffffffffffffffffffffffffffffffffffff1673ffffffffffffffffffffffffffffffffffffffff1681526020019081526020016000209050600181600001541415156119b657600080fd5b6002816000018190555062015180428115156119ce57fe5b0642038160010181905550600182600301600060405180807f7374616b65727300000000000000000000000000000000000000000000000000815250600701905060405180910390208152602001908152602001600020600082825403925050819055503373ffffffffffffffffffffffffffffffffffffffff167f453865710d0cb4b14ad25de371c860da196368895daa9662e5087711d14daecf60405160405180910390a25050565b60018460430160003373ffffffffffffffffffffffffffffffffffffffff1673ffffffffffffffffffffffffffffffffffffffff16815260200190815260200160002060000154141515611acc57600080fd5b83600301600060405180807f6d696e696e674170694964000000000000000000000000000000000000000000815250600b019050604051809103902081526020019081526020016000205482141515611b2457600080fd5b60006002600386600101543387604051602001808481526020018373ffffffffffffffffffffffffffffffffffffffff1673ffffffffffffffffffffffffffffffffffffffff166c0100000000000000000000000002815260140182805190602001908083835b602083101515611bb05780518252602082019150602081019050602083039250611b8b565b6001836020036101000a038019825116818451168082178552505050505050905001935050505060405160208183030381529060405280519060200120604051602001808281526020019150506040516020818303038152906040526040518082805190602001908083835b602083101515611c415780518252602082019150602081019050602083039250611c1c565b6001836020036101000a038019825116818451168082178552505050505050905001915050602060405180830381855afa158015611c83573d6000803e3d6000fd5b505050604051516c010000000000000000000000000260405160200180826bffffffffffffffffffffffff19166bffffffffffffffffffffffff191681526014019150506040516020818303038152906040526040518082805190602001908083835b602083101515611d0b5780518252602082019150602081019050602083039250611ce6565b6001836020036101000a038019825116818451168082178552505050505050905001915050602060405180830381855afa158015611d4d573d6000803e3d6000fd5b5050506040513d6020811015611d6257600080fd5b81019080805190602001909291905050509050600085600301600060405180807f646966666963756c74795f6c6576656c00000000000000000000000000000000815250601001905060405180910390208152602001908152602001600020548260019004811515611dd057fe5b06141515611ddd57600080fd5b6000151585603d0160008760010154815260200190815260200160002060003373ffffffffffffffffffffffffffffffffffffffff1673ffffffffffffffffffffffffffffffffffffffff16815260200190815260200160002060009054906101000a900460ff161515141515611e5357600080fd5b818560490186600301600060405180807f636f756e7400000000000000000000000000000000000000000000000000000081525060050190506040518091039020815260200190815260200160002054600581101515611eaf57fe5b6002020160000181905550338560490186600301600060405180807f636f756e7400000000000000000000000000000000000000000000000000000081525060050190506040518091039020815260200190815260200160002054600581101515611f1657fe5b6002020160010160006101000a81548173ffffffffffffffffffffffffffffffffffffffff021916908373ffffffffffffffffffffffffffffffffffffffff16021790555084600301600060405180807f636f756e7400000000000000000000000000000000000000000000000000000081525060050190506040518091039020815260200190815260200160002060008154809291906001019190505550600185603d0160008760010154815260200190815260200160002060003373ffffffffffffffffffffffffffffffffffffffff1673ffffffffffffffffffffffffffffffffffffffff16815260200190815260200160002060006101000a81548160ff021916908315150217905550600585600301600060405180807f636f756e740000000000000000000000000000000000000000000000000000008152506005019050604051809103902081526020019081526020016000205411151561219357823373ffffffffffffffffffffffffffffffffffffffff167f17503de3c6fa23f77db33726c43f7e525831a662eadc3075a69ce8086dadb67e868589600101548a600301600060405180807f636f756e74000000000000000000000000000000000000000000000000000000815250600501905060405180910390208152602001908152602001600020546040518080602001858152602001848152602001838152602001828103825286818151815260200191508051906020019080838360005b8381101561215557808201518184015260208101905061213a565b50505050905090810190601f1680156121825780820380516001836020036101000a031916815260200191505b509550505050505060405180910390a35b600585600301600060405180807f636f756e74000000000000000000000000000000000000000000000000000000815250600501905060405180910390208152602001908152602001600020541415613d4557600085604401600085815260200190815260200160002090506000603c87600301600060405180807f74696d654f664c61737450726f6f660000000000000000000000000000000000815250600f0190506040518091039020815260200190815260200160002054420388600301600060405180807f74696d6554617267657400000000000000000000000000000000000000000000815250600a0190506040518091039020815260200190815260200160002054038115156122a557fe5b0587600301600060405180807f646966666963756c74795f6c6576656c000000000000000000000000000000008152506010019050604051809103902081526020019081526020016000205401131561243c57603c86600301600060405180807f74696d654f664c61737450726f6f660000000000000000000000000000000000815250600f0190506040518091039020815260200190815260200160002054420387600301600060405180807f74696d6554617267657400000000000000000000000000000000000000000000815250600a01905060405180910390208152602001908152602001600020540381151561239c57fe5b0586600301600060405180807f646966666963756c74795f6c6576656c00000000000000000000000000000000815250601001905060405180910390208152602001908152602001600020540186600301600060405180807f646966666963756c74795f6c6576656c000000000000000000000000000000008152506010019050604051809103902081526020019081526020016000208190555061248d565b600186600301600060405180807f646966666963756c74795f6c6576656c00000000000000000000000000000000815250601001905060405180910390208152602001908152602001600020819055505b85600301600060405180807f74696d6554617267657400000000000000000000000000000000000000000000815250600a0190506040518091039020815260200190815260200160002054428115156124e257fe5b06420386600301600060405180807f74696d654f664c61737450726f6f660000000000000000000000000000000000815250600f019050604051809103902081526020019081526020016000208190555061253b615aec565b86604901600580602002604051908101604052809291906000905b828210156125de57838260020201604080519081016040529081600082015481526020016001820160009054906101000a900473ffffffffffffffffffffffffffffffffffffffff1673ffffffffffffffffffffffffffffffffffffffff1673ffffffffffffffffffffffffffffffffffffffff168152505081526020019060010190612556565b5050505090506000600190505b6005811015612782576000828260058110151561260457fe5b60200201516000015190506000838360058110151561261f57fe5b602002015160200151905060008390505b6000811180156126585750846001820360058110151561264c57fe5b60200201516000015183105b1561270357846001820360058110151561266e57fe5b602002015160000151858260058110151561268557fe5b6020020151600001818152505084600182036005811015156126a357fe5b60200201516020015185826005811015156126ba57fe5b60200201516020019073ffffffffffffffffffffffffffffffffffffffff16908173ffffffffffffffffffffffffffffffffffffffff1681525050808060019003915050612630565b838110156127725782858260058110151561271a57fe5b6020020151600001818152505081858260058110151561273657fe5b60200201516020019073ffffffffffffffffffffffffffffffffffffffff16908173ffffffffffffffffffffffffffffffffffffffff16815250505b50505080806001019150506125eb565b600090505b600581101561285057612843883084846005811015156127a357fe5b602002015160200151670de0b6b3a76400008c600401866005811015156127c657fe5b015460168e600301600060405180807f6d696e696e675061796f75740000000000000000000000000000000000000000815250600c019050604051809103902081526020019081526020016000205481151561281e57fe5b040281151561282957fe5b048c6004018660058110151561283b57fe5b015401614822565b8080600101915050612787565b857fc509d04e0782579ee59912139246ccbdf6c36c43abd90591d912017f3467dd1689600301600060405180807f74696d654f664c61737450726f6f660000000000000000000000000000000000815250600f01905060405180910390208152602001908152602001600020548460026005811015156128cc57fe5b60200201516000015160168c600301600060405180807f6d696e696e675061796f75740000000000000000000000000000000000000000815250600c019050604051809103902081526020019081526020016000205481151561292b57fe5b068c600301600060405180807f6d696e696e675061796f75740000000000000000000000000000000000000000815250600c0190506040518091039020815260200190815260200160002054038c600101546040518085815260200184815260200183815260200182815260200194505050505060405180910390a26000601689600301600060405180807f6d696e696e675061796f75740000000000000000000000000000000000000000815250600c01905060405180910390208152602001908152602001600020548115156129ff57fe5b061115612a6a57612a69888760168b600301600060405180807f6d696e696e675061796f75740000000000000000000000000000000000000000815250600c0190506040518091039020815260200190815260200160002054811515612a6157fe5b0660016149b4565b5b6064606e89600301600060405180807f7061796f7574546f74616c000000000000000000000000000000000000000000815250600b019050604051809103902081526020019081526020016000205402811515612ac357fe5b04601689600301600060405180807f6d696e696e675061796f75740000000000000000000000000000000000000000815250600c0190506040518091039020815260200190815260200160002054811515612b1a57fe5b0689600301600060405180807f6d696e696e675061796f75740000000000000000000000000000000000000000815250600c0190506040518091039020815260200190815260200160002054030188600301600060405180807f746f74616c5f737570706c790000000000000000000000000000000000000000815250600c0190506040518091039020815260200190815260200160002060008282540192505081905550612c8e88308a600001600060405180807f5f6f776e6572000000000000000000000000000000000000000000000000000081525060060190506040518091039020815260200190815260200160002060009054906101000a900473ffffffffffffffffffffffffffffffffffffffff166064600a8d600301600060405180807f7061796f7574546f74616c000000000000000000000000000000000000000000815250600b019050604051809103902081526020019081526020016000205402811515612c8857fe5b04614822565b816002600581101515612c9d57fe5b6020020151600001518360050160008a600301600060405180807f74696d654f664c61737450726f6f660000000000000000000000000000000000815250600f019050604051809103902081526020019081526020016000205481526020019081526020016000208190555060a060405190810160405280836000600581101515612d2457fe5b60200201516020015173ffffffffffffffffffffffffffffffffffffffff1673ffffffffffffffffffffffffffffffffffffffff168152602001836001600581101515612d6d57fe5b60200201516020015173ffffffffffffffffffffffffffffffffffffffff1673ffffffffffffffffffffffffffffffffffffffff168152602001836002600581101515612db657fe5b60200201516020015173ffffffffffffffffffffffffffffffffffffffff1673ffffffffffffffffffffffffffffffffffffffff168152602001836003600581101515612dff57fe5b60200201516020015173ffffffffffffffffffffffffffffffffffffffff1673ffffffffffffffffffffffffffffffffffffffff168152602001836004600581101515612e4857fe5b60200201516020015173ffffffffffffffffffffffffffffffffffffffff1673ffffffffffffffffffffffffffffffffffffffff168152508360070160008a600301600060405180807f74696d654f664c61737450726f6f660000000000000000000000000000000000815250600f01905060405180910390208152602001908152602001600020548152602001908152602001600020906005612eed929190615b1b565b5060a060405190810160405280836000600581101515612f0957fe5b6020020151600001518152602001836001600581101515612f2657fe5b6020020151600001518152602001836002600581101515612f4357fe5b6020020151600001518152602001836003600581101515612f6057fe5b6020020151600001518152602001836004600581101515612f7d57fe5b6020020151600001518152508360080160008a600301600060405180807f74696d654f664c61737450726f6f660000000000000000000000000000000000815250600f01905060405180910390208152602001908152602001600020548152602001908152602001600020906005612ff6929190615b98565b50438360040160008a600301600060405180807f74696d654f664c61737450726f6f660000000000000000000000000000000000815250600f0190506040518091039020815260200190815260200160002054815260200190815260200160002081905550876045016000896002015481526020019081526020016000205488600301600060405180807f6d696e696e674170694964000000000000000000000000000000000000000000815250600b019050604051809103902081526020019081526020016000208190555087600301600060405180807f6170694f6e515061796f75740000000000000000000000000000000000000000815250600c019050604051809103902081526020019081526020016000205488600301600060405180807f6d696e696e675061796f75740000000000000000000000000000000000000000815250600c01905060405180910390208152602001908152602001600020819055508588603e0160008a600301600060405180807f74696d654f664c61737450726f6f660000000000000000000000000000000000815250600f019050604051809103902081526020019081526020016000205481526020019081526020016000208190555087603c0188600301600060405180807f74696d654f664c61737450726f6f660000000000000000000000000000000000815250600f01905060405180910390208152602001908152602001600020549080600181540180825580915050906001820390600052602060002001600090919290919091505550600088600301600060405180807f636f756e74000000000000000000000000000000000000000000000000000000815250600501905060405180910390208152602001908152602001600020819055506000886009018960440160008b600301600060405180807f61706949644f6e51000000000000000000000000000000000000000000000000815250600801905060405180910390208152602001908152602001600020548152602001908152602001600020600301600060405180807f696e6465780000000000000000000000000000000000000000000000000000008152506005019050604051809103902081526020019081526020016000205460338110151561334357fe5b0181905550600088603f0160008a60440160008c600301600060405180807f61706949644f6e51000000000000000000000000000000000000000000000000815250600801905060405180910390208152602001908152602001600020548152602001908152602001600020600301600060405180807f696e6465780000000000000000000000000000000000000000000000000000008152506005019050604051809103902081526020019081526020016000205481526020019081526020016000208190555060008860440160008a600301600060405180807f61706949644f6e51000000000000000000000000000000000000000000000000815250600801905060405180910390208152602001908152602001600020548152602001908152602001600020600301600060405180807f696e6465780000000000000000000000000000000000000000000000000000008152506005019050604051809103902081526020019081526020016000208190555060008860440160008a600301600060405180807f61706949644f6e51000000000000000000000000000000000000000000000000815250600801905060405180910390208152602001908152602001600020548152602001908152602001600020600301600060405180807f7061796f757400000000000000000000000000000000000000000000000000008152506006019050604051809103902081526020019081526020016000208190555061356f615bd8565b600089600301600060405180807f6d696e696e674170694964000000000000000000000000000000000000000000815250600b01905060405180910390208152602001908152602001600020541115613c9f5761360a89600901603380602002604051908101604052809291908260338015613600576020028201915b8154815260200190600101908083116135ec575b50505050506153dd565b82600060028110151561361957fe5b6020020183600160028110151561362c57fe5b602002018281525082815250505088603f01600082600160028110151561364f57fe5b602002015181526020019081526020016000205489600301600060405180807f61706949644f6e51000000000000000000000000000000000000000000000000815250600801905060405180910390208152602001908152602001600020819055508860440160008a600301600060405180807f61706949644f6e5100000000000000000000000000000000000000000000000081525060080190506040518091039020815260200190815260200160002054815260200190815260200160002060020154896002018190555080600060028110151561372b57fe5b602002015189600301600060405180807f6170694f6e515061796f75740000000000000000000000000000000000000000815250600c019050604051809103902081526020019081526020016000208190555087896001015460014303406040516020018084805190602001908083835b6020831015156137c1578051825260208201915060208101905060208303925061379c565b6001836020036101000a038019825116818451168082178552505050505050905001838152602001828152602001935050505060405160208183030381529060405280519060200120896001018190555088600301600060405180807f6d696e696e674170694964000000000000000000000000000000000000000000815250600b01905060405180910390208152602001908152602001600020547f9e959738f09af22daede9ff9563f8edf3f5cec8e17ce60287c911c95fa767f428a600101548b600301600060405180807f646966666963756c74795f6c6576656c00000000000000000000000000000000815250601001905060405180910390208152602001908152602001600020548c60440160008e600301600060405180807f6d696e696e674170694964000000000000000000000000000000000000000000815250600b01905060405180910390208152602001908152602001600020548152602001908152602001600020600301600060405180807f6772616e756c6172697479000000000000000000000000000000000000000000815250600b01905060405180910390208152602001908152602001600020548d60440160008f600301600060405180807f6d696e696e674170694964000000000000000000000000000000000000000000815250600b019050604051809103902081526020019081526020016000205481526020019081526020016000206000018e600301600060405180807f6d696e696e675061796f75740000000000000000000000000000000000000000815250600c01905060405180910390208152602001908152602001600020546040518086815260200185815260200184815260200180602001838152602001828103825284818154600181600116156101000203166002900481526020019150805460018160011615610100020316600290048015613ac55780601f10613a9a57610100808354040283529160200191613ac5565b820191906000526020600020905b815481529060010190602001808311613aa857829003601f168201915b5050965050505050505060405180910390a288600301600060405180807f61706949644f6e51000000000000000000000000000000000000000000000000815250600801905060405180910390208152602001908152602001600020547f1c59b53c2f787064c7f5aae431916a0600db3a76bb4029c09e24fe83130426748a60440160008c600301600060405180807f61706949644f6e510000000000000000000000000000000000000000000000008152506008019050604051809103902081526020019081526020016000205481526020019081526020016000206000018b600201548c600301600060405180807f6170694f6e515061796f75740000000000000000000000000000000000000000815250600c01905060405180910390208152602001908152602001600020546040518080602001848152602001838152602001828103825285818154600181600116156101000203166002900481526020019150805460018160011615610100020316600290048015613c8a5780601f10613c5f57610100808354040283529160200191613c8a565b820191906000526020600020905b815481529060010190602001808311613c6d57829003601f168201915b505094505050505060405180910390a2613d40565b600089600301600060405180807f61706949644f6e5100000000000000000000000000000000000000000000000081525060080190506040518091039020815260200190815260200160002081905550600089600301600060405180807f6170694f6e515061796f75740000000000000000000000000000000000000000815250600c01905060405180910390208152602001908152602001600020819055505b505050505b5050505050565b60008160430160003373ffffffffffffffffffffffffffffffffffffffff1673ffffffffffffffffffffffffffffffffffffffff168152602001908152602001600020905060006201518042811515613da157fe5b064203905062093a808260010154820310158015613dc3575060028260000154145b1515613dce57600080fd5b600082600001819055503373ffffffffffffffffffffffffffffffffffffffff167f4a7934670bd8304e7da22378be1368f7c4fef17c5aee81804beda8638fe428ec60405160405180910390a2505050565b600083604001600084815260200190815260200160002090506000613e90853384600401600060405180807f626c6f636b4e756d626572000000000000000000000000000000000000000000815250600b019050604051809103902081526020019081526020016000205461544c565b9050600115158260060160003373ffffffffffffffffffffffffffffffffffffffff1673ffffffffffffffffffffffffffffffffffffffff16815260200190815260200160002060009054906101000a900460ff16151514151515613ef457600080fd5b600081111515613f0357600080fd5b60038560430160003373ffffffffffffffffffffffffffffffffffffffff1673ffffffffffffffffffffffffffffffffffffffff1681526020019081526020016000206000015414151515613f5757600080fd5b60018260060160003373ffffffffffffffffffffffffffffffffffffffff1673ffffffffffffffffffffffffffffffffffffffff16815260200190815260200160002060006101000a81548160ff021916908315150217905550600182600401600060405180807f6e756d6265724f66566f74657300000000000000000000000000000000000000815250600d01905060405180910390208152602001908152602001600020600082825401925050819055508082600401600060405180807f71756f72756d000000000000000000000000000000000000000000000000000081525060060190506040518091039020815260200190815260200160002060008282540192505081905550821561407c5780826005015401826005018190555061408c565b8082600501540382600501819055505b3373ffffffffffffffffffffffffffffffffffffffff16847f86abfce99b7dd908bec0169288797f85049ec73cbe046ed9de818fab3a497ae085604051808215151515815260200191505060405180910390a35050505050565b81600001600060405180807f5f6f776e6572000000000000000000000000000000000000000000000000000081525060060190506040518091039020815260200190815260200160002060009054906101000a900473ffffffffffffffffffffffffffffffffffffffff1673ffffffffffffffffffffffffffffffffffffffff163373ffffffffffffffffffffffffffffffffffffffff1614151561418a57600080fd5b8073ffffffffffffffffffffffffffffffffffffffff1682600001600060405180807f5f6f776e6572000000000000000000000000000000000000000000000000000081525060060190506040518091039020815260200190815260200160002060009054906101000a900473ffffffffffffffffffffffffffffffffffffffff1673ffffffffffffffffffffffffffffffffffffffff167f8be0079c531659141344cd1fd0a4f28419497f9722a3daafe3b4186f6b6457e060405160405180910390a38082600001600060405180807f5f6f776e6572000000000000000000000000000000000000000000000000000081525060060190506040518091039020815260200190815260200160002060006101000a81548173ffffffffffffffffffffffffffffffffffffffff021916908373ffffffffffffffffffffffffffffffffffffffff1602179055505050565b60008390506000831115156142ef57600080fd5b670de0b6b3a7640000831115151561430657600080fd5b600081141561465d57606086905060608690506000825111151561432957600080fd5b6040815110151561433957600080fd5b600082866040516020018083805190602001908083835b6020831015156143755780518252602082019150602081019050602083039250614350565b6001836020036101000a0380198251168184511680821785525050505050509050018281526020019250505060405160208183030381529060405280519060200120905060008a60450160008381526020019081526020016000205414156146405789600301600060405180807f72657175657374730000000000000000000000000000000000000000000000008152506008019050604051809103902081526020019081526020016000206000815480929190600101919050555089600301600060405180807f7265717565737473000000000000000000000000000000000000000000000000815250600801905060405180910390208152602001908152602001600020549350606060405190810160405280848152602001838152602001828152508a604401600086815260200190815260200160002060008201518160000190805190602001906144cb929190615bfa565b5060208201518160010190805190602001906144e8929190615bfa565b5060408201518160020155905050858a6044016000868152602001908152602001600020600301600060405180807f6772616e756c6172697479000000000000000000000000000000000000000000815250600b019050604051809103902081526020019081526020016000208190555060008a6044016000868152602001908152602001600020600301600060405180807f696e6465780000000000000000000000000000000000000000000000000000008152506005019050604051809103902081526020019081526020016000208190555060008a6044016000868152602001908152602001600020600301600060405180807f7061796f7574000000000000000000000000000000000000000000000000000081525060060190506040518091039020815260200190815260200160002081905550838a604501600083815260200190815260200160002081905550614659565b8960450160008281526020019081526020016000205493505b5050505b60008211156146735761467287333085614822565b5b61468087828460006149b4565b803373ffffffffffffffffffffffffffffffffffffffff167f6d7f869757848b19c8c2456e95cd98885bc6bed062fda4077bb07985e2f76cc98960440160008581526020019081526020016000206000018a604401600086815260200190815260200160002060010187876040518080602001806020018581526020018481526020018381038352878181546001816001161561010002031660029004815260200191508054600181600116156101000203166002900480156147845780601f1061475957610100808354040283529160200191614784565b820191906000526020600020905b81548152906001019060200180831161476757829003601f168201915b50508381038252868181546001816001161561010002031660029004815260200191508054600181600116156101000203166002900480156148075780601f106147dc57610100808354040283529160200191614807565b820191906000526020600020905b8154815290600101906020018083116147ea57829003601f168201915b5050965050505050505060405180910390a350505050505050565b60008111151561483157600080fd5b600073ffffffffffffffffffffffffffffffffffffffff168273ffffffffffffffffffffffffffffffffffffffff161415151561486d57600080fd5b61487884848361558b565b151561488357600080fd5b600061489085854361544c565b90506148de8560410160008673ffffffffffffffffffffffffffffffffffffffff1673ffffffffffffffffffffffffffffffffffffffff1681526020019081526020016000208383036156a3565b6148e985844361544c565b905080828201101515156148fc57600080fd5b6149488560410160008573ffffffffffffffffffffffffffffffffffffffff1673ffffffffffffffffffffffffffffffffffffffff1681526020019081526020016000208383016156a3565b8273ffffffffffffffffffffffffffffffffffffffff168473ffffffffffffffffffffffffffffffffffffffff167fddf252ad1be2c89b69c2b068fc378daa952ba7f163c4a11628f55a4df523b3ef846040518082815260200191505060405180910390a35050505050565b600084604401600085815260200190815260200160002090506000831115614a8257614a338382600301600060405180807f7061796f757400000000000000000000000000000000000000000000000000008152506006019050604051809103902081526020019081526020016000205461581890919063ffffffff16565b81600301600060405180807f7061796f75740000000000000000000000000000000000000000000000000000815250600601905060405180910390208152602001908152602001600020819055505b600081600301600060405180807f7061796f75740000000000000000000000000000000000000000000000000000815250600601905060405180910390208152602001908152602001600020549050600086600301600060405180807f6d696e696e674170694964000000000000000000000000000000000000000000815250600b01905060405180910390208152602001908152602001600020541415614f2357600082600301600060405180807f7061796f75740000000000000000000000000000000000000000000000000000815250600601905060405180910390208152602001908152602001600020819055508486600301600060405180807f6d696e696e674170694964000000000000000000000000000000000000000000815250600b01905060405180910390208152602001908152602001600020819055508086600301600060405180807f6d696e696e675061796f75740000000000000000000000000000000000000000815250600c0190506040518091039020815260200190815260200160002081905550808660010154600143034060405160200180848152602001838152602001828152602001935050505060405160208183030381529060405280519060200120866001018190555085600301600060405180807f6d696e696e674170694964000000000000000000000000000000000000000000815250600b01905060405180910390208152602001908152602001600020547f9e959738f09af22daede9ff9563f8edf3f5cec8e17ce60287c911c95fa767f42876001015488600301600060405180807f646966666963756c74795f6c6576656c00000000000000000000000000000000815250601001905060405180910390208152602001908152602001600020548960440160008b600301600060405180807f6d696e696e674170694964000000000000000000000000000000000000000000815250600b01905060405180910390208152602001908152602001600020548152602001908152602001600020600301600060405180807f6772616e756c6172697479000000000000000000000000000000000000000000815250600b01905060405180910390208152602001908152602001600020548a60440160008c600301600060405180807f6d696e696e674170694964000000000000000000000000000000000000000000815250600b019050604051809103902081526020019081526020016000205481526020019081526020016000206000018b600301600060405180807f6d696e696e675061796f75740000000000000000000000000000000000000000815250600c01905060405180910390208152602001908152602001600020546040518086815260200185815260200184815260200180602001838152602001828103825284818154600181600116156101000203166002900481526020019150805460018160011615610100020316600290048015614f0c5780601f10614ee157610100808354040283529160200191614f0c565b820191906000526020600020905b815481529060010190602001808311614eef57829003601f168201915b5050965050505050505060405180910390a26153d5565b85600301600060405180807f61706949644f6e5100000000000000000000000000000000000000000000000081525060080190506040518091039020815260200190815260200160002054851415614fc9578086600301600060405180807f6170694f6e515061796f75740000000000000000000000000000000000000000815250600c01905060405180910390208152602001908152602001600020819055506151fe565b85600301600060405180807f6170694f6e515061796f75740000000000000000000000000000000000000000815250600c019050604051809103902081526020019081526020016000205481118061507b5750600086600301600060405180807f61706949644f6e510000000000000000000000000000000000000000000000008152506008019050604051809103902081526020019081526020016000205414801561507a575060001515831515145b5b156151fd578486600301600060405180807f61706949644f6e5100000000000000000000000000000000000000000000000081525060080190506040518091039020815260200190815260200160002081905550816002015486600201819055508086600301600060405180807f6170694f6e515061796f75740000000000000000000000000000000000000000815250600c0190506040518091039020815260200190815260200160002081905550847f1c59b53c2f787064c7f5aae431916a0600db3a76bb4029c09e24fe83130426748360000188600201548460405180806020018481526020018381526020018281038252858181546001816001161561010002031660029004815260200191508054600181600116156101000203166002900480156151ec5780601f106151c1576101008083540402835291602001916151ec565b820191906000526020600020905b8154815290600101906020018083116151cf57829003601f168201915b505094505050505060405180910390a25b5b600082600301600060405180807f696e6465780000000000000000000000000000000000000000000000000000008152506005019050604051809103902081526020019081526020016000205414801561525c575060001515831515145b1561534f576000806152ac886009016033806020026040519081016040528092919082603380156152a2576020028201915b81548152602001906001019080831161528e575b5050505050615836565b8092508193505050818311806152c25750600082145b15615348578288600901826033811015156152d957fe5b01819055508688603f016000838152602001908152602001600020819055508084600301600060405180807f696e646578000000000000000000000000000000000000000000000000000000815250600501905060405180910390208152602001908152602001600020819055505b50506153d4565b600084118015615363575060001515831515145b156153d357838660090183600301600060405180807f696e646578000000000000000000000000000000000000000000000000000000815250600501905060405180910390208152602001908152602001600020546033811015156153c457fe5b01600082825401925050819055505b5b5b505050505050565b6000808260016033811015156153ef57fe5b602002015191506000600190505b60338110156154465782848260338110151561541557fe5b6020020151111561543957838160338110151561542e57fe5b602002015192508091505b80806001019150506153fd565b50915091565b6000808460410160008573ffffffffffffffffffffffffffffffffffffffff1673ffffffffffffffffffffffffffffffffffffffff1681526020019081526020016000208054905014806155295750818460410160008573ffffffffffffffffffffffffffffffffffffffff1673ffffffffffffffffffffffffffffffffffffffff16815260200190815260200160002060008154811015156154eb57fe5b9060005260206000200160000160009054906101000a90046fffffffffffffffffffffffffffffffff166fffffffffffffffffffffffffffffffff16115b156155375760009050615584565b6155818460410160008573ffffffffffffffffffffffffffffffffffffffff1673ffffffffffffffffffffffffffffffffffffffff168152602001908152602001600020836158af565b90505b9392505050565b6000808460430160008573ffffffffffffffffffffffffffffffffffffffff1673ffffffffffffffffffffffffffffffffffffffff1681526020019081526020016000206000015411156156685760006156538361564587600301600060405180807f7374616b65416d74000000000000000000000000000000000000000000000000815250600801905060405180910390208152602001908152602001600020546156378989615abe565b615ad390919063ffffffff16565b615ad390919063ffffffff16565b101515615663576001905061569c565b615697565b6000615686836156788787615abe565b615ad390919063ffffffff16565b101515615696576001905061569c565b5b600090505b9392505050565b6000828054905014806157055750438260018480549050038154811015156156c757fe5b9060005260206000200160000160009054906101000a90046fffffffffffffffffffffffffffffffff166fffffffffffffffffffffffffffffffff16105b156157b4576000828380548091906001016157209190615c7a565b81548110151561572c57fe5b906000526020600020019050438160000160006101000a8154816fffffffffffffffffffffffffffffffff02191690836fffffffffffffffffffffffffffffffff160217905550818160000160106101000a8154816fffffffffffffffffffffffffffffffff02191690836fffffffffffffffffffffffffffffffff16021790555050615814565b60008260018480549050038154811015156157cb57fe5b906000526020600020019050818160000160106101000a8154816fffffffffffffffffffffffffffffffff02191690836fffffffffffffffffffffffffffffffff160217905550505b5050565b600080828401905083811015151561582c57fe5b8091505092915050565b60008060016033039050828160338110151561584e57fe5b602002015191506000600160330390505b60008111156158a95782848260338110151561587757fe5b6020020151101561589b57838160338110151561589057fe5b602002015192508091505b80806001900391505061585f565b50915091565b600080838054905014156158c65760009050615ab8565b8260018480549050038154811015156158db57fe5b9060005260206000200160000160009054906101000a90046fffffffffffffffffffffffffffffffff166fffffffffffffffffffffffffffffffff16821015156159775782600184805490500381548110151561593457fe5b9060005260206000200160000160109054906101000a90046fffffffffffffffffffffffffffffffff166fffffffffffffffffffffffffffffffff169050615ab8565b82600081548110151561598657fe5b9060005260206000200160000160009054906101000a90046fffffffffffffffffffffffffffffffff166fffffffffffffffffffffffffffffffff168210156159d25760009050615ab8565b60008090506000600185805490500390505b81811115615a6957600060026001848401018115156159ff57fe5b049050848682815481101515615a1157fe5b9060005260206000200160000160009054906101000a90046fffffffffffffffffffffffffffffffff166fffffffffffffffffffffffffffffffff16111515615a5c57809250615a63565b6001810391505b506159e4565b8482815481101515615a7757fe5b9060005260206000200160000160109054906101000a90046fffffffffffffffffffffffffffffffff166fffffffffffffffffffffffffffffffff16925050505b92915050565b6000615acb83834361544c565b905092915050565b6000828211151515615ae157fe5b818303905092915050565b610140604051908101604052806005905b615b05615ca6565b815260200190600190039081615afd5790505090565b8260058101928215615b87579160200282015b82811115615b865782518260006101000a81548173ffffffffffffffffffffffffffffffffffffffff021916908373ffffffffffffffffffffffffffffffffffffffff16021790555091602001919060010190615b2e565b5b509050615b949190615cd6565b5090565b8260058101928215615bc7579160200282015b82811115615bc6578251825591602001919060010190615bab565b5b509050615bd49190615d19565b5090565b6040805190810160405280600290602082028038833980820191505090505090565b828054600181600116156101000203166002900490600052602060002090601f016020900481019282601f10615c3b57805160ff1916838001178555615c69565b82800160010185558215615c69579182015b82811115615c68578251825591602001919060010190615c4d565b5b509050615c769190615d19565b5090565b815481835581811115615ca157818360005260206000209182019101615ca09190615d3e565b5b505050565b604080519081016040528060008152602001600073ffffffffffffffffffffffffffffffffffffffff1681525090565b615d1691905b80821115615d1257600081816101000a81549073ffffffffffffffffffffffffffffffffffffffff021916905550600101615cdc565b5090565b90565b615d3b91905b80821115615d37576000816000905550600101615d1f565b5090565b90565b615da091905b80821115615d9c57600080820160006101000a8154906fffffffffffffffffffffffffffffffff02191690556000820160106101000a8154906fffffffffffffffffffffffffffffffff021916905550600101615d44565b5090565b9056fea165627a7a72305820877bf2001ee32ea9a8f7e98458c33f79c51ac93c6a982801339316d92d9d7b510029",
  "source": "pragma solidity ^0.5.0;\n\nimport \"./libraries/SafeMath.sol\";\nimport \"./libraries/Utilities.sol\";\nimport \"./libraries/TellorLibrary.sol\";\n//import \"./TellorGetters.sol\";\n\n/**\n * @title Tellor Oracle System\n * @dev Oracle contract where miners can submit the proof of work along with the value.\n */\ncontract Tellor /* is TellorGetters*/{\n\n    using SafeMath for uint256;\n\n    using TellorLibrary for TellorLibrary.TellorStorageStruct;\n    TellorLibrary.TellorStorageStruct tellor;\n\n\n\n    function addTip(uint _apiId, uint _tip) external {\n        tellor.addTip(_apiId,_tip);\n    }\n    /**\n    * @dev This function approves a _spender an _amount of tokens to use\n    * @param _spender address\n    * @param _amount amount the spender is being approved for\n    * @return true if spender appproved successfully\n    */\n    function approve(address _spender, uint _amount) external returns (bool) {\n        return tellor.approve(_spender,_amount);\n    }\n        function depositStake() external {\n        tellor.depositStake();\n    }\n    /**\n    * @dev Helps initialize a dispute by assigning it a disputeId \n    * when a miner returns a false on the validate array(in Tellor.ProofOfWork) it sends the \n    * invalidated value information to POS voting\n    * @param _apiId being disputed\n    * @param _timestamp being disputed\n    */\n    function initDispute(uint _apiId, uint _timestamp,uint _minerIndex) external {\n        tellor.initDispute(_apiId,_timestamp,_minerIndex);\n    }\n\n    function initStake() external {\n        tellor.initStake();\n    }\n\n\n        /**\n    * @dev Proof of work is called by the miner when they submit the solution (proof of work and value)\n    * @param nonce uint submitted by miner\n    * @param _apiId the apiId being mined\n    * @param value of api query\n    * @return count of values sumbitted so far and the time of the last successful mine\n    */\n    function proofOfWork(string calldata nonce, uint _apiId, uint value) external{\n        tellor.proofOfWork(nonce,_apiId,value);\n    }\n\n    /**\n    * @dev propose fork\n    * @param _propNewTellorAddress address for new proposed Tellor\n    */\n    function propFork(address _propNewTellorAddress) external {\n        tellor.propFork(_propNewTellorAddress);\n    }\n       /**\n    * @dev Request to retreive value from oracle based on timestamp\n    * @param _c_sapi being requested be mined\n    * @param _c_symbol being requested be mined\n    * @param _tip amount the requester is willing to pay to be get on queue. Miners\n    * mine the apiOnQ, or the api with the highest payout pool\n    * @return _apiId for the request\n    */\n    function requestData(string calldata _c_sapi,string calldata _c_symbol,uint c_apiId,uint _granularity, uint _tip) external {\n        tellor.requestData(_c_sapi,_c_symbol,c_apiId,_granularity,_tip);\n    }\n    \n    /**\n    * @dev This function allows stakers to request to withdraw their stake (no longer stake) \n    */\n    function requestWithdraw() external {\n        tellor.requestWithdraw();\n    }\n        /**\n    * @dev tallies the votes.\n    * @param _disputeId is the dispute id\n    */\n    function tallyVotes(uint _disputeId) external {\n        tellor.tallyVotes(_disputeId);\n    }\n    /**\n    * @dev Allows for a transfer of tokens to _to\n    * @param _to The address to send tokens to\n    * @param _amount The amount of tokens to send\n    * @return true if transfer is successful\n    */\n    function transfer(address _to, uint256 _amount) external returns (bool success) {\n        return tellor.transfer(_to,_amount);\n    }\n\n    /**\n    * @notice Send _amount tokens to _to from _from on the condition it\n    * is approved by _from\n    * @param _from The address holding the tokens being transferred\n    * @param _to The address of the recipient\n    * @param _amount The amount of tokens to be transferred\n    * @return True if the transfer was successful\n    */\n    function transferFrom(address _from, address _to, uint256 _amount) external returns (bool success) {\n        return tellor.transferFrom(_from,_to,_amount);\n    }\n    /**\n         * @dev Allows the current owner to transfer control of the contract to a newOwner.\n         * @param newOwner The address to transfer ownership to.\n    */\n    function transferOwnership(address payable newOwner) external {\n        tellor.transferOwnership(newOwner);\n    }\n\n    /**\n    * @dev Allows token holders to vote\n    * @param _disputeId is the dispute id\n    * @param _supportsDispute is the vote (true=the dispute has basis false = vote against dispute)\n    */\n    function vote(uint _disputeId, bool _supportsDispute) external {\n        tellor.vote(_disputeId,_supportsDispute);\n    }\n\n\n    /**\n    * @dev This function allows users to withdraw their stake after a 7 day waiting period from request \n    */\n    function withdrawStake() external {\n        tellor.withdrawStake();\n    }\n\n\n\n\n\n}\n",
  "sourcePath": "/Users/mdcoon/git/TellorCore/contracts/Tellor.sol",
  "compiler": {
    "name": "solc",
    "version": "0.5.0+commit.1d4f565a.Emscripten.clang"
  },
  "schemaVersion": "3.0.6",
  "updatedAt": "2019-04-14T19:32:08.379Z",
  "devdoc": {
    "details": "Oracle contract where miners can submit the proof of work along with the value.",
    "methods": {
      "approve(address,uint256)": {
        "details": "This function approves a _spender an _amount of tokens to use",
        "params": {
          "_amount": "amount the spender is being approved for",
          "_spender": "address"
        },
        "return": "true if spender appproved successfully"
      },
      "initDispute(uint256,uint256,uint256)": {
        "details": "Helps initialize a dispute by assigning it a disputeId  when a miner returns a false on the validate array(in Tellor.ProofOfWork) it sends the  invalidated value information to POS voting",
        "params": {
          "_apiId": "being disputed",
          "_timestamp": "being disputed"
        }
      },
      "proofOfWork(string,uint256,uint256)": {
        "details": "Proof of work is called by the miner when they submit the solution (proof of work and value)",
        "params": {
          "_apiId": "the apiId being mined",
          "nonce": "uint submitted by miner",
          "value": "of api query"
        },
        "return": "count of values sumbitted so far and the time of the last successful mine"
      },
      "propFork(address)": {
        "details": "propose fork",
        "params": {
          "_propNewTellorAddress": "address for new proposed Tellor"
        }
      },
      "requestData(string,string,uint256,uint256,uint256)": {
        "details": "Request to retreive value from oracle based on timestamp",
        "params": {
          "_c_sapi": "being requested be mined",
          "_c_symbol": "being requested be mined",
          "_tip": "amount the requester is willing to pay to be get on queue. Miners mine the apiOnQ, or the api with the highest payout pool"
        },
        "return": "_apiId for the request"
      },
      "requestWithdraw()": {
        "details": "This function allows stakers to request to withdraw their stake (no longer stake) "
      },
      "tallyVotes(uint256)": {
        "details": "tallies the votes.",
        "params": {
          "_disputeId": "is the dispute id"
        }
      },
      "transfer(address,uint256)": {
        "details": "Allows for a transfer of tokens to _to",
        "params": {
          "_amount": "The amount of tokens to send",
          "_to": "The address to send tokens to"
        },
        "return": "true if transfer is successful"
      },
      "transferFrom(address,address,uint256)": {
        "params": {
          "_amount": "The amount of tokens to be transferred",
          "_from": "The address holding the tokens being transferred",
          "_to": "The address of the recipient"
        },
        "return": "True if the transfer was successful"
      },
      "transferOwnership(address)": {
        "details": "Allows the current owner to transfer control of the contract to a newOwner.",
        "params": {
          "newOwner": "The address to transfer ownership to."
        }
      },
      "vote(uint256,bool)": {
        "details": "Allows token holders to vote",
        "params": {
          "_disputeId": "is the dispute id",
          "_supportsDispute": "is the vote (true=the dispute has basis false = vote against dispute)"
        }
      },
      "withdrawStake()": {
        "details": "This function allows users to withdraw their stake after a 7 day waiting period from request "
      }
    },
    "title": "Tellor Oracle System"
  },
  "userdoc": {
    "methods": {
      "transferFrom(address,address,uint256)": {
        "notice": "Send _amount tokens to _to from _from on the condition it is approved by _from"
      }
    }
  }
}