{
  "contractName": "Tellor",
  "abi": [
    {
      "constant": false,
      "inputs": [
        {
          "name": "_address",
          "type": "address"
        },
        {
          "name": "_amount",
          "type": "uint256"
        }
      ],
      "name": "theLazyCoon",
      "outputs": [],
      "payable": false,
      "stateMutability": "nonpayable",
      "type": "function",
      "signature": "0xb079f64a"
    },
    {
      "constant": false,
      "inputs": [
        {
          "name": "_requestId",
          "type": "uint256"
        },
        {
          "name": "_tip",
          "type": "uint256"
        }
      ],
      "name": "addTip",
      "outputs": [],
      "payable": false,
      "stateMutability": "nonpayable",
      "type": "function",
      "signature": "0x752d49a1"
    },
    {
      "constant": false,
      "inputs": [
        {
          "name": "_spender",
          "type": "address"
        },
        {
          "name": "_amount",
          "type": "uint256"
        }
      ],
      "name": "approve",
      "outputs": [
        {
          "name": "",
          "type": "bool"
        }
      ],
      "payable": false,
      "stateMutability": "nonpayable",
      "type": "function",
      "signature": "0x095ea7b3"
    },
    {
      "constant": false,
      "inputs": [
        {
          "name": "_requestId",
          "type": "uint256"
        },
        {
          "name": "_timestamp",
          "type": "uint256"
        },
        {
          "name": "_minerIndex",
          "type": "uint256"
        }
      ],
      "name": "beginDispute",
      "outputs": [],
      "payable": false,
      "stateMutability": "nonpayable",
      "type": "function",
      "signature": "0x8581af19"
    },
    {
      "constant": false,
      "inputs": [],
      "name": "depositStake",
      "outputs": [],
      "payable": false,
      "stateMutability": "nonpayable",
      "type": "function",
      "signature": "0x0d2d76a2"
    },
    {
      "constant": false,
      "inputs": [
        {
          "name": "_propNewTellorAddress",
          "type": "address"
        }
      ],
      "name": "proposeFork",
      "outputs": [],
      "payable": false,
      "stateMutability": "nonpayable",
      "type": "function",
      "signature": "0x26b7d9f6"
    },
    {
      "constant": false,
      "inputs": [
        {
          "name": "_c_sapi",
          "type": "string"
        },
        {
          "name": "_c_symbol",
          "type": "string"
        },
        {
          "name": "_requestId",
          "type": "uint256"
        },
        {
          "name": "_granularity",
          "type": "uint256"
        },
        {
          "name": "_tip",
          "type": "uint256"
        }
      ],
      "name": "requestData",
      "outputs": [],
      "payable": false,
      "stateMutability": "nonpayable",
      "type": "function",
      "signature": "0xf78a63c4"
    },
    {
      "constant": false,
      "inputs": [],
      "name": "requestStakingWithdraw",
      "outputs": [],
      "payable": false,
      "stateMutability": "nonpayable",
      "type": "function",
      "signature": "0x28449c3a"
    },
    {
      "constant": false,
      "inputs": [
        {
          "name": "_nonce",
          "type": "string"
        },
        {
          "name": "_requestId",
          "type": "uint256"
        },
        {
          "name": "_value",
          "type": "uint256"
        }
      ],
      "name": "submitMiningSolution",
      "outputs": [],
      "payable": false,
      "stateMutability": "nonpayable",
      "type": "function",
      "signature": "0x68c180d5"
    },
    {
      "constant": false,
      "inputs": [
        {
          "name": "_disputeId",
          "type": "uint256"
        }
      ],
      "name": "tallyVotes",
      "outputs": [],
      "payable": false,
      "stateMutability": "nonpayable",
      "type": "function",
      "signature": "0x4d318b0e"
    },
    {
      "constant": false,
      "inputs": [],
      "name": "tellorPostConstructor",
      "outputs": [],
      "payable": false,
      "stateMutability": "nonpayable",
      "type": "function",
      "signature": "0x799ce980"
    },
    {
      "constant": false,
      "inputs": [
        {
          "name": "_to",
          "type": "address"
        },
        {
          "name": "_amount",
          "type": "uint256"
        }
      ],
      "name": "transfer",
      "outputs": [
        {
          "name": "",
          "type": "bool"
        }
      ],
      "payable": false,
      "stateMutability": "nonpayable",
      "type": "function",
      "signature": "0xa9059cbb"
    },
    {
      "constant": false,
      "inputs": [
        {
          "name": "_from",
          "type": "address"
        },
        {
          "name": "_to",
          "type": "address"
        },
        {
          "name": "_amount",
          "type": "uint256"
        }
      ],
      "name": "transferFrom",
      "outputs": [
        {
          "name": "",
          "type": "bool"
        }
      ],
      "payable": false,
      "stateMutability": "nonpayable",
      "type": "function",
      "signature": "0x23b872dd"
    },
    {
      "constant": false,
      "inputs": [
        {
          "name": "_newOwner",
          "type": "address"
        }
      ],
      "name": "transferOwnership",
      "outputs": [],
      "payable": false,
      "stateMutability": "nonpayable",
      "type": "function",
      "signature": "0xf2fde38b"
    },
    {
      "constant": false,
      "inputs": [
        {
          "name": "_disputeId",
          "type": "uint256"
        },
        {
          "name": "_supportsDispute",
          "type": "bool"
        }
      ],
      "name": "vote",
      "outputs": [],
      "payable": false,
      "stateMutability": "nonpayable",
      "type": "function",
      "signature": "0xc9d27afe"
    },
    {
      "constant": false,
      "inputs": [],
      "name": "withdrawStake",
      "outputs": [],
      "payable": false,
      "stateMutability": "nonpayable",
      "type": "function",
      "signature": "0xbed9d861"
    }
  ],
  "bytecode": "0x608060405234801561001057600080fd5b50615f1d80620000216000396000f3fe6080604052600436106100e6576000357c0100000000000000000000000000000000000000000000000000000000900463ffffffff168063095ea7b3146100eb5780630d2d76a21461015e57806323b872dd1461017557806326b7d9f61461020857806328449c3a146102595780634d318b0e1461027057806368c180d5146102ab578063752d49a114610345578063799ce9801461038a5780638581af19146103a1578063a9059cbb146103f0578063b079f64a14610463578063bed9d861146104be578063c9d27afe146104d5578063f2fde38b1461051c578063f78a63c41461056d575b600080fd5b3480156100f757600080fd5b506101446004803603604081101561010e57600080fd5b81019080803573ffffffffffffffffffffffffffffffffffffffff16906020019092919080359060200190929190505050610666565b604051808215151515815260200191505060405180910390f35b34801561016a57600080fd5b50610173610754565b005b34801561018157600080fd5b506101ee6004803603606081101561019857600080fd5b81019080803573ffffffffffffffffffffffffffffffffffffffff169060200190929190803573ffffffffffffffffffffffffffffffffffffffff169060200190929190803590602001909291905050506107dc565b604051808215151515815260200191505060405180910390f35b34801561021457600080fd5b506102576004803603602081101561022b57600080fd5b81019080803573ffffffffffffffffffffffffffffffffffffffff1690602001909291905050506107ff565b005b34801561026557600080fd5b5061026e610816565b005b34801561027c57600080fd5b506102a96004803603602081101561029357600080fd5b8101908080359060200190929190505050610822565b005b3480156102b757600080fd5b50610343600480360360608110156102ce57600080fd5b81019080803590602001906401000000008111156102eb57600080fd5b8201836020820111156102fd57600080fd5b8035906020019184600183028401116401000000008311171561031f57600080fd5b90919293919293908035906020019092919080359060200190929190505050610839565b005b34801561035157600080fd5b506103886004803603604081101561036857600080fd5b81019080803590602001909291908035906020019092919050505061089b565b005b34801561039657600080fd5b5061039f610935565b005b3480156103ad57600080fd5b506103ee600480360360608110156103c457600080fd5b810190808035906020019092919080359060200190929190803590602001909291905050506109bd565b005b3480156103fc57600080fd5b506104496004803603604081101561041357600080fd5b81019080803573ffffffffffffffffffffffffffffffffffffffff16906020019092919080359060200190929190505050610a60565b604051808215151515815260200191505060405180910390f35b34801561046f57600080fd5b506104bc6004803603604081101561048657600080fd5b81019080803573ffffffffffffffffffffffffffffffffffffffff16906020019092919080359060200190929190505050610a80565b005b3480156104ca57600080fd5b506104d3610b46565b005b3480156104e157600080fd5b5061051a600480360360408110156104f857600080fd5b8101908080359060200190929190803515159060200190929190505050610b52565b005b34801561052857600080fd5b5061056b6004803603602081101561053f57600080fd5b81019080803573ffffffffffffffffffffffffffffffffffffffff169060200190929190505050610b6c565b005b34801561057957600080fd5b50610664600480360360a081101561059057600080fd5b81019080803590602001906401000000008111156105ad57600080fd5b8201836020820111156105bf57600080fd5b803590602001918460018302840111640100000000831117156105e157600080fd5b90919293919293908035906020019064010000000081111561060257600080fd5b82018360208201111561061457600080fd5b8035906020019184600183028401116401000000008311171561063657600080fd5b9091929391929390803590602001909291908035906020019092919080359060200190929190505050610b83565b005b60008073__TellorLibrary_________________________63a3dd5a05909185856040518463ffffffff167c0100000000000000000000000000000000000000000000000000000000028152600401808481526020018373ffffffffffffffffffffffffffffffffffffffff1673ffffffffffffffffffffffffffffffffffffffff168152602001828152602001935050505060206040518083038186803b15801561071157600080fd5b505af4158015610725573d6000803e3d6000fd5b505050506040513d602081101561073b57600080fd5b8101908080519060200190929190505050905092915050565b600073__TellorLibrary_________________________6316c7360c90916040518263ffffffff167c01000000000000000000000000000000000000000000000000000000000281526004018082815260200191505060006040518083038186803b1580156107c257600080fd5b505af41580156107d6573d6000803e3d6000fd5b50505050565b60006107f68484846000610c30909392919063ffffffff16565b90509392505050565b610813816000610d6390919063ffffffff16565b50565b61082060006111bf565b565b6108368160006112da90919063ffffffff16565b50565b61089584848080601f016020809104026020016040519081016040528093929190818152602001838380828437600081840152601f19601f8201169050808301925050505050505083836000611b8c909392919063ffffffff16565b50505050565b600073__TellorLibrary_________________________634cd87233909184846040518463ffffffff167c010000000000000000000000000000000000000000000000000000000002815260040180848152602001838152602001828152602001935050505060006040518083038186803b15801561091957600080fd5b505af415801561092d573d6000803e3d6000fd5b505050505050565b600073__TellorLibrary_________________________63a8181b3090916040518263ffffffff167c01000000000000000000000000000000000000000000000000000000000281526004018082815260200191505060006040518083038186803b1580156109a357600080fd5b505af41580156109b7573d6000803e3d6000fd5b50505050565b600073__TellorLibrary_________________________63e4d15a3a90918585856040518563ffffffff167c01000000000000000000000000000000000000000000000000000000000281526004018085815260200184815260200183815260200182815260200194505050505060006040518083038186803b158015610a4357600080fd5b505af4158015610a57573d6000803e3d6000fd5b50505050505050565b6000610a7883836000613de79092919063ffffffff16565b905092915050565b600073__TellorLibrary_________________________6367f2cd10909184846040518463ffffffff167c0100000000000000000000000000000000000000000000000000000000028152600401808481526020018373ffffffffffffffffffffffffffffffffffffffff1673ffffffffffffffffffffffffffffffffffffffff168152602001828152602001935050505060006040518083038186803b158015610b2a57600080fd5b505af4158015610b3e573d6000803e3d6000fd5b505050505050565b610b506000613e00565b565b610b6882826000613ed49092919063ffffffff16565b5050565b610b8081600061419a90919063ffffffff16565b50565b610c2787878080601f016020809104026020016040519081016040528093929190818152602001838380828437600081840152601f19601f8201169050808301925050505050505086868080601f016020809104026020016040519081016040528093929190818152602001838380828437600081840152601f19601f82011690508083019250505050505050858585600061438f9095949392919063ffffffff16565b50505050505050565b60008185604e0160008673ffffffffffffffffffffffffffffffffffffffff1673ffffffffffffffffffffffffffffffffffffffff16815260200190815260200160002060003373ffffffffffffffffffffffffffffffffffffffff1673ffffffffffffffffffffffffffffffffffffffff1681526020019081526020016000205410151515610cbf57600080fd5b8185604e0160008673ffffffffffffffffffffffffffffffffffffffff1673ffffffffffffffffffffffffffffffffffffffff16815260200190815260200160002060003373ffffffffffffffffffffffffffffffffffffffff1673ffffffffffffffffffffffffffffffffffffffff16815260200190815260200160002060008282540392505081905550610d5785858585614923565b60019050949350505050565b600081604051602001808273ffffffffffffffffffffffffffffffffffffffff1673ffffffffffffffffffffffffffffffffffffffff166c01000000000000000000000000028152601401915050604051602081830303815290604052805190602001209050600083605201600083815260200190815260200160002054141515610ded57600080fd5b610e4383333086604801600060405180807f6469737075746546656500000000000000000000000000000000000000000000815250600a0190506040518091039020815260200190815260200160002054614923565b82604801600060405180807f64697370757465436f756e740000000000000000000000000000000000000000815250600c0190506040518091039020815260200190815260200160002060008154809291906001019190505550600083604801600060405180807f64697370757465436f756e740000000000000000000000000000000000000000815250600c01905060405180910390208152602001908152602001600020549050808460520160008481526020019081526020016000208190555061010060405190810160405280838152602001600081526020016000151581526020016000151581526020016001151581526020013373ffffffffffffffffffffffffffffffffffffffff1681526020013373ffffffffffffffffffffffffffffffffffffffff1681526020018473ffffffffffffffffffffffffffffffffffffffff1681525084604c016000838152602001908152602001600020600082015181600001556020820151816001015560408201518160020160006101000a81548160ff02191690831515021790555060608201518160020160016101000a81548160ff02191690831515021790555060808201518160020160026101000a81548160ff02191690831515021790555060a08201518160020160036101000a81548173ffffffffffffffffffffffffffffffffffffffff021916908373ffffffffffffffffffffffffffffffffffffffff16021790555060c08201518160030160006101000a81548173ffffffffffffffffffffffffffffffffffffffff021916908373ffffffffffffffffffffffffffffffffffffffff16021790555060e08201518160040160006101000a81548173ffffffffffffffffffffffffffffffffffffffff021916908373ffffffffffffffffffffffffffffffffffffffff1602179055509050504384604c016000838152602001908152602001600020600501600060405180807f626c6f636b4e756d626572000000000000000000000000000000000000000000815250600b019050604051809103902081526020019081526020016000208190555062093a80420184604c016000838152602001908152602001600020600501600060405180807f6d696e457865637574696f6e44617465000000000000000000000000000000008152506010019050604051809103902081526020019081526020016000208190555050505050565b600081604f0160003373ffffffffffffffffffffffffffffffffffffffff1673ffffffffffffffffffffffffffffffffffffffff16815260200190815260200160002090506001816000015414151561121757600080fd5b60028160000181905550620151804281151561122f57fe5b0642038160010181905550600182604801600060405180807f7374616b6572436f756e74000000000000000000000000000000000000000000815250600b01905060405180910390208152602001908152602001600020600082825403925050819055503373ffffffffffffffffffffffffffffffffffffffff167f453865710d0cb4b14ad25de371c860da196368895daa9662e5087711d14daecf60405160405180910390a25050565b600082604c0160008381526020019081526020016000209050600083605001600083600501600060405180807f72657175657374496400000000000000000000000000000000000000000000008152506009019050604051809103902081526020019081526020016000205481526020019081526020016000209050600015158260020160009054906101000a900460ff16151514151561137a57600080fd5b81600501600060405180807f6d696e457865637574696f6e446174650000000000000000000000000000000081525060100190506040518091039020815260200190815260200160002054421115156113d257600080fd5b600015158260020160029054906101000a900460ff16151514156119a057600084604f0160008460020160039054906101000a900473ffffffffffffffffffffffffffffffffffffffff1673ffffffffffffffffffffffffffffffffffffffff1673ffffffffffffffffffffffffffffffffffffffff16815260200190815260200160002090506000836001015413156116fd5760008160000181905550620151804281151561147e57fe5b064203816001018190555084604801600060405180807f7374616b6572436f756e74000000000000000000000000000000000000000000815250600b019050604051809103902081526020019081526020016000206000815480929190600190039190505550611582858460020160039054906101000a900473ffffffffffffffffffffffffffffffffffffffff168560030160009054906101000a900473ffffffffffffffffffffffffffffffffffffffff1688604801600060405180807f7374616b65416d6f756e74000000000000000000000000000000000000000000815250600b0190506040518091039020815260200190815260200160002054614923565b6115fc85338560030160009054906101000a900473ffffffffffffffffffffffffffffffffffffffff1688604801600060405180807f6469737075746546656500000000000000000000000000000000000000000000815250600a0190506040518091039020815260200190815260200160002054614923565b60018360020160016101000a81548160ff0219169083151502179055506001151582600701600085600501600060405180807f74696d657374616d70000000000000000000000000000000000000000000000081525060090190506040518091039020815260200190815260200160002054815260200190815260200160002060009054906101000a900460ff16151514156116f857600082600601600085600501600060405180807f74696d657374616d700000000000000000000000000000000000000000000000815250600901905060405180910390208152602001908152602001600020548152602001908152602001600020819055505b6118ae565b6001816000018190555060018360020160006101000a81548160ff02191690831515021790555060008360020160016101000a81548160ff0219169083151502179055506117bb85338560020160039054906101000a900473ffffffffffffffffffffffffffffffffffffffff1688604801600060405180807f6469737075746546656500000000000000000000000000000000000000000000815250600a0190506040518091039020815260200190815260200160002054614923565b6001151582600701600085600501600060405180807f74696d657374616d70000000000000000000000000000000000000000000000081525060090190506040518091039020815260200190815260200160002054815260200190815260200160002060009054906101000a900460ff16151514156118ad57600082600701600085600501600060405180807f74696d657374616d70000000000000000000000000000000000000000000000081525060090190506040518091039020815260200190815260200160002054815260200190815260200160002060006101000a81548160ff0219169083151502179055505b5b8260020160039054906101000a900473ffffffffffffffffffffffffffffffffffffffff1673ffffffffffffffffffffffffffffffffffffffff16847f21459c2f5447ebcf83a7f0a238c32c71076faef0d12295e771c0cb1e1043473985600101548660030160009054906101000a900473ffffffffffffffffffffffffffffffffffffffff168760020160019054906101000a900460ff16604051808481526020018373ffffffffffffffffffffffffffffffffffffffff1673ffffffffffffffffffffffffffffffffffffffff16815260200182151515158152602001935050505060405180910390a350611b86565b6064601485604801600060405180807f746f74616c5f737570706c790000000000000000000000000000000000000000815250600c0190506040518091039020815260200190815260200160002054028115156119f957fe5b0482600501600060405180807f71756f72756d000000000000000000000000000000000000000000000000000081525060060190506040518091039020815260200190815260200160002054111515611a5157600080fd5b8160040160009054906101000a900473ffffffffffffffffffffffffffffffffffffffff1684604701600060405180807f74656c6c6f72436f6e7472616374000000000000000000000000000000000000815250600e0190506040518091039020815260200190815260200160002060006101000a81548173ffffffffffffffffffffffffffffffffffffffff021916908373ffffffffffffffffffffffffffffffffffffffff1602179055507fc2d1449eb0b6547aa426e09d9942a77fa4fc8cd3296305b3163e22452e0bcb8d8260040160009054906101000a900473ffffffffffffffffffffffffffffffffffffffff16604051808273ffffffffffffffffffffffffffffffffffffffff1673ffffffffffffffffffffffffffffffffffffffff16815260200191505060405180910390a15b50505050565b600184604f0160003373ffffffffffffffffffffffffffffffffffffffff1673ffffffffffffffffffffffffffffffffffffffff16815260200190815260200160002060000154141515611bdf57600080fd5b83604801600060405180807f63757272656e74526571756573744964000000000000000000000000000000008152506010019050604051809103902081526020019081526020016000205482141515611c3757600080fd5b60006002600386600001543387604051602001808481526020018373ffffffffffffffffffffffffffffffffffffffff1673ffffffffffffffffffffffffffffffffffffffff166c0100000000000000000000000002815260140182805190602001908083835b602083101515611cc35780518252602082019150602081019050602083039250611c9e565b6001836020036101000a038019825116818451168082178552505050505050905001935050505060405160208183030381529060405280519060200120604051602001808281526020019150506040516020818303038152906040526040518082805190602001908083835b602083101515611d545780518252602082019150602081019050602083039250611d2f565b6001836020036101000a038019825116818451168082178552505050505050905001915050602060405180830381855afa158015611d96573d6000803e3d6000fd5b505050604051516c010000000000000000000000000260405160200180826bffffffffffffffffffffffff19166bffffffffffffffffffffffff191681526014019150506040516020818303038152906040526040518082805190602001908083835b602083101515611e1e5780518252602082019150602081019050602083039250611df9565b6001836020036101000a038019825116818451168082178552505050505050905001915050602060405180830381855afa158015611e60573d6000803e3d6000fd5b5050506040513d6020811015611e7557600080fd5b81019080805190602001909291905050509050600085604801600060405180807f646966666963756c747900000000000000000000000000000000000000000000815250600a01905060405180910390208152602001908152602001600020548260019004811515611ee357fe5b06141515611ef057600080fd5b600015158560490160008760000154815260200190815260200160002060003373ffffffffffffffffffffffffffffffffffffffff1673ffffffffffffffffffffffffffffffffffffffff16815260200190815260200160002060009054906101000a900460ff161515141515611f6657600080fd5b8185603d0186604801600060405180807f736c6f7450726f67726573730000000000000000000000000000000000000000815250600c0190506040518091039020815260200190815260200160002054600581101515611fc257fe5b60020201600001819055503385603d0186604801600060405180807f736c6f7450726f67726573730000000000000000000000000000000000000000815250600c019050604051809103902081526020019081526020016000205460058110151561202957fe5b6002020160010160006101000a81548173ffffffffffffffffffffffffffffffffffffffff021916908373ffffffffffffffffffffffffffffffffffffffff16021790555084604801600060405180807f736c6f7450726f67726573730000000000000000000000000000000000000000815250600c019050604051809103902081526020019081526020016000206000815480929190600101919050555060018560490160008760000154815260200190815260200160002060003373ffffffffffffffffffffffffffffffffffffffff1673ffffffffffffffffffffffffffffffffffffffff16815260200190815260200160002060006101000a81548160ff021916908315150217905550823373ffffffffffffffffffffffffffffffffffffffff167fe6d63a2aee0aaed2ab49702313ce54114f2145af219d7db30d6624af9e6dffc4868589600001546040518080602001848152602001838152602001828103825285818151815260200191508051906020019080838360005b838110156121c35780820151818401526020810190506121a8565b50505050905090810190601f1680156121f05780820380516001836020036101000a031916815260200191505b5094505050505060405180910390a3600585604801600060405180807f736c6f7450726f67726573730000000000000000000000000000000000000000815250600c01905060405180910390208152602001908152602001600020541415613de057600085605001600085815260200190815260200160002090506000603c87604801600060405180807f74696d654f664c6173744e657756616c7565000000000000000000000000000081525060120190506040518091039020815260200190815260200160002054420388604801600060405180807f74696d6554617267657400000000000000000000000000000000000000000000815250600a01905060405180910390208152602001908152602001600020540381151561231157fe5b0587604801600060405180807f646966666963756c747900000000000000000000000000000000000000000000815250600a01905060405180910390208152602001908152602001600020540113156124a857603c86604801600060405180807f74696d654f664c6173744e657756616c7565000000000000000000000000000081525060120190506040518091039020815260200190815260200160002054420387604801600060405180807f74696d6554617267657400000000000000000000000000000000000000000000815250600a01905060405180910390208152602001908152602001600020540381151561240857fe5b0586604801600060405180807f646966666963756c747900000000000000000000000000000000000000000000815250600a01905060405180910390208152602001908152602001600020540186604801600060405180807f646966666963756c747900000000000000000000000000000000000000000000815250600a01905060405180910390208152602001908152602001600020819055506124f9565b600186604801600060405180807f646966666963756c747900000000000000000000000000000000000000000000815250600a01905060405180910390208152602001908152602001600020819055505b603c4281151561250557fe5b06420386604801600060405180807f74696d654f664c6173744e657756616c756500000000000000000000000000008152506012019050604051809103902081526020019081526020016000208190555061255e615bed565b86603d01600580602002604051908101604052809291906000905b8282101561260157838260020201604080519081016040529081600082015481526020016001820160009054906101000a900473ffffffffffffffffffffffffffffffffffffffff1673ffffffffffffffffffffffffffffffffffffffff1673ffffffffffffffffffffffffffffffffffffffff168152505081526020019060010190612579565b5050505090506000600190505b60058110156127a5576000828260058110151561262757fe5b60200201516000015190506000838360058110151561264257fe5b602002015160200151905060008390505b60008111801561267b5750846001820360058110151561266f57fe5b60200201516000015183105b1561272657846001820360058110151561269157fe5b60200201516000015185826005811015156126a857fe5b6020020151600001818152505084600182036005811015156126c657fe5b60200201516020015185826005811015156126dd57fe5b60200201516020019073ffffffffffffffffffffffffffffffffffffffff16908173ffffffffffffffffffffffffffffffffffffffff1681525050808060019003915050612653565b838110156127955782858260058110151561273d57fe5b6020020151600001818152505081858260058110151561275957fe5b60200201516020019073ffffffffffffffffffffffffffffffffffffffff16908173ffffffffffffffffffffffffffffffffffffffff16815250505b505050808060010191505061260e565b600090505b600581101561287357612866883084846005811015156127c657fe5b602002015160200151670de0b6b3a76400008c600401866005811015156127e957fe5b015460168e604801600060405180807f63757272656e74546f74616c54697073000000000000000000000000000000008152506010019050604051809103902081526020019081526020016000205481151561284157fe5b040281151561284c57fe5b048c6004018660058110151561285e57fe5b015401614923565b80806001019150506127aa565b857fc509d04e0782579ee59912139246ccbdf6c36c43abd90591d912017f3467dd1689604801600060405180807f74696d654f664c6173744e657756616c75650000000000000000000000000000815250601201905060405180910390208152602001908152602001600020548460026005811015156128ef57fe5b60200201516000015160168c604801600060405180807f63757272656e74546f74616c54697073000000000000000000000000000000008152506010019050604051809103902081526020019081526020016000205481151561294e57fe5b068c604801600060405180807f63757272656e74546f74616c546970730000000000000000000000000000000081525060100190506040518091039020815260200190815260200160002054038c600001546040518085815260200184815260200183815260200182815260200194505050505060405180910390a26000601689604801600060405180807f63757272656e74546f74616c546970730000000000000000000000000000000081525060100190506040518091039020815260200190815260200160002054811515612a2257fe5b061115612a8d57612a8c888760168b604801600060405180807f63757272656e74546f74616c546970730000000000000000000000000000000081525060100190506040518091039020815260200190815260200160002054811515612a8457fe5b066001614ab5565b5b6064606e89604801600060405180807f6d696e696e675265776172640000000000000000000000000000000000000000815250600c019050604051809103902081526020019081526020016000205402811515612ae657fe5b04601689604801600060405180807f63757272656e74546f74616c546970730000000000000000000000000000000081525060100190506040518091039020815260200190815260200160002054811515612b3d57fe5b0689604801600060405180807f63757272656e74546f74616c546970730000000000000000000000000000000081525060100190506040518091039020815260200190815260200160002054030188604801600060405180807f746f74616c5f737570706c790000000000000000000000000000000000000000815250600c0190506040518091039020815260200190815260200160002060008282540192505081905550612cb188308a604701600060405180807f5f6f776e6572000000000000000000000000000000000000000000000000000081525060060190506040518091039020815260200190815260200160002060009054906101000a900473ffffffffffffffffffffffffffffffffffffffff166064600a8d604801600060405180807f6d696e696e675265776172640000000000000000000000000000000000000000815250600c019050604051809103902081526020019081526020016000205402811515612cab57fe5b04614923565b816002600581101515612cc057fe5b6020020151600001518360060160008a604801600060405180807f74696d654f664c6173744e657756616c75650000000000000000000000000000815250601201905060405180910390208152602001908152602001600020548152602001908152602001600020819055508260030188604801600060405180807f74696d654f664c6173744e657756616c7565000000000000000000000000000081525060120190506040518091039020815260200190815260200160002054908060018154018082558091505090600182039060005260206000200160009091929091909150555060a060405190810160405280836000600581101515612dbf57fe5b60200201516020015173ffffffffffffffffffffffffffffffffffffffff1673ffffffffffffffffffffffffffffffffffffffff168152602001836001600581101515612e0857fe5b60200201516020015173ffffffffffffffffffffffffffffffffffffffff1673ffffffffffffffffffffffffffffffffffffffff168152602001836002600581101515612e5157fe5b60200201516020015173ffffffffffffffffffffffffffffffffffffffff1673ffffffffffffffffffffffffffffffffffffffff168152602001836003600581101515612e9a57fe5b60200201516020015173ffffffffffffffffffffffffffffffffffffffff1673ffffffffffffffffffffffffffffffffffffffff168152602001836004600581101515612ee357fe5b60200201516020015173ffffffffffffffffffffffffffffffffffffffff1673ffffffffffffffffffffffffffffffffffffffff168152508360080160008a604801600060405180807f74696d654f664c6173744e657756616c75650000000000000000000000000000815250601201905060405180910390208152602001908152602001600020548152602001908152602001600020906005612f88929190615c1c565b5060a060405190810160405280836000600581101515612fa457fe5b6020020151600001518152602001836001600581101515612fc157fe5b6020020151600001518152602001836002600581101515612fde57fe5b6020020151600001518152602001836003600581101515612ffb57fe5b602002015160000151815260200183600460058110151561301857fe5b6020020151600001518152508360090160008a604801600060405180807f74696d654f664c6173744e657756616c75650000000000000000000000000000815250601201905060405180910390208152602001908152602001600020548152602001908152602001600020906005613091929190615c99565b50438360050160008a604801600060405180807f74696d654f664c6173744e657756616c7565000000000000000000000000000081525060120190506040518091039020815260200190815260200160002054815260200190815260200160002081905550876051016000896001015481526020019081526020016000205488604801600060405180807f63757272656e74526571756573744964000000000000000000000000000000008152506010019050604051809103902081526020019081526020016000208190555087604801600060405180807f6f6e4465636b546f74616c546970730000000000000000000000000000000000815250600f019050604051809103902081526020019081526020016000205488604801600060405180807f63757272656e74546f74616c5469707300000000000000000000000000000000815250601001905060405180910390208152602001908152602001600020819055508588604a0160008a604801600060405180807f74696d654f664c6173744e657756616c756500000000000000000000000000008152506012019050604051809103902081526020019081526020016000205481526020019081526020016000208190555087603c0188604801600060405180807f74696d654f664c6173744e657756616c75650000000000000000000000000000815250601201905060405180910390208152602001908152602001600020549080600181540180825580915050906001820390600052602060002001600090919290919091505550600088604801600060405180807f736c6f7450726f67726573730000000000000000000000000000000000000000815250600c01905060405180910390208152602001908152602001600020819055506000886009018960500160008b604801600060405180807f6f6e4465636b5265717565737449640000000000000000000000000000000000815250600f01905060405180910390208152602001908152602001600020548152602001908152602001600020600401600060405180807f7265717565737451506f736974696f6e00000000000000000000000000000000815250601001905060405180910390208152602001908152602001600020546033811015156133de57fe5b0181905550600088604b0160008a60500160008c604801600060405180807f6f6e4465636b5265717565737449640000000000000000000000000000000000815250600f01905060405180910390208152602001908152602001600020548152602001908152602001600020600401600060405180807f7265717565737451506f736974696f6e000000000000000000000000000000008152506010019050604051809103902081526020019081526020016000205481526020019081526020016000208190555060008860500160008a604801600060405180807f6f6e4465636b5265717565737449640000000000000000000000000000000000815250600f01905060405180910390208152602001908152602001600020548152602001908152602001600020600401600060405180807f7265717565737451506f736974696f6e000000000000000000000000000000008152506010019050604051809103902081526020019081526020016000208190555060008860500160008a604801600060405180807f6f6e4465636b5265717565737449640000000000000000000000000000000000815250600f01905060405180910390208152602001908152602001600020548152602001908152602001600020600401600060405180807f746f74616c5469700000000000000000000000000000000000000000000000008152506008019050604051809103902081526020019081526020016000208190555061360a615cd9565b600089604801600060405180807f63757272656e7452657175657374496400000000000000000000000000000000815250601001905060405180910390208152602001908152602001600020541115613d3a576136a58960090160338060200260405190810160405280929190826033801561369b576020028201915b815481526020019060010190808311613687575b50505050506154de565b8260006002811015156136b457fe5b602002018360016002811015156136c757fe5b602002018281525082815250505088604b0160008260016002811015156136ea57fe5b602002015181526020019081526020016000205489604801600060405180807f6f6e4465636b5265717565737449640000000000000000000000000000000000815250600f01905060405180910390208152602001908152602001600020819055508860500160008a604801600060405180807f6f6e4465636b5265717565737449640000000000000000000000000000000000815250600f019050604051809103902081526020019081526020016000205481526020019081526020016000206002015489600101819055508060006002811015156137c657fe5b602002015189604801600060405180807f6f6e4465636b546f74616c546970730000000000000000000000000000000000815250600f019050604051809103902081526020019081526020016000208190555087896000015460014303406040516020018084805190602001908083835b60208310151561385c5780518252602082019150602081019050602083039250613837565b6001836020036101000a038019825116818451168082178552505050505050905001838152602001828152602001935050505060405160208183030381529060405280519060200120896000018190555088604801600060405180807f63757272656e7452657175657374496400000000000000000000000000000000815250601001905060405180910390208152602001908152602001600020547f9e959738f09af22daede9ff9563f8edf3f5cec8e17ce60287c911c95fa767f428a600001548b604801600060405180807f646966666963756c747900000000000000000000000000000000000000000000815250600a01905060405180910390208152602001908152602001600020548c60500160008e604801600060405180807f63757272656e7452657175657374496400000000000000000000000000000000815250601001905060405180910390208152602001908152602001600020548152602001908152602001600020600401600060405180807f6772616e756c6172697479000000000000000000000000000000000000000000815250600b01905060405180910390208152602001908152602001600020548d60500160008f604801600060405180807f63757272656e74526571756573744964000000000000000000000000000000008152506010019050604051809103902081526020019081526020016000205481526020019081526020016000206000018e604801600060405180807f63757272656e74546f74616c5469707300000000000000000000000000000000815250601001905060405180910390208152602001908152602001600020546040518086815260200185815260200184815260200180602001838152602001828103825284818154600181600116156101000203166002900481526020019150805460018160011615610100020316600290048015613b605780601f10613b3557610100808354040283529160200191613b60565b820191906000526020600020905b815481529060010190602001808311613b4357829003601f168201915b5050965050505050505060405180910390a288604801600060405180807f6f6e4465636b5265717565737449640000000000000000000000000000000000815250600f01905060405180910390208152602001908152602001600020547f5ab383fe3e28263c839564bc7545520a7dd34b78cbd7ab21b2da5d2fd027bf6c8a60500160008c604801600060405180807f6f6e4465636b5265717565737449640000000000000000000000000000000000815250600f019050604051809103902081526020019081526020016000205481526020019081526020016000206000018b600101548c604801600060405180807f6f6e4465636b546f74616c546970730000000000000000000000000000000000815250600f01905060405180910390208152602001908152602001600020546040518080602001848152602001838152602001828103825285818154600181600116156101000203166002900481526020019150805460018160011615610100020316600290048015613d255780601f10613cfa57610100808354040283529160200191613d25565b820191906000526020600020905b815481529060010190602001808311613d0857829003601f168201915b505094505050505060405180910390a2613ddb565b600089604801600060405180807f6f6e4465636b5265717565737449640000000000000000000000000000000000815250600f0190506040518091039020815260200190815260200160002081905550600089604801600060405180807f6f6e4465636b546f74616c546970730000000000000000000000000000000000815250600f01905060405180910390208152602001908152602001600020819055505b505050505b5050505050565b6000613df584338585614923565b600190509392505050565b600081604f0160003373ffffffffffffffffffffffffffffffffffffffff1673ffffffffffffffffffffffffffffffffffffffff168152602001908152602001600020905060006201518042811515613e5557fe5b064203905062093a808260010154820310158015613e77575060028260000154145b1515613e8257600080fd5b600082600001819055503373ffffffffffffffffffffffffffffffffffffffff167f4a7934670bd8304e7da22378be1368f7c4fef17c5aee81804beda8638fe428ec60405160405180910390a2505050565b600083604c01600084815260200190815260200160002090506000613f44853384600501600060405180807f626c6f636b4e756d626572000000000000000000000000000000000000000000815250600b019050604051809103902081526020019081526020016000205461554d565b9050600115158260060160003373ffffffffffffffffffffffffffffffffffffffff1673ffffffffffffffffffffffffffffffffffffffff16815260200190815260200160002060009054906101000a900460ff16151514151515613fa857600080fd5b600081111515613fb757600080fd5b600385604f0160003373ffffffffffffffffffffffffffffffffffffffff1673ffffffffffffffffffffffffffffffffffffffff168152602001908152602001600020600001541415151561400b57600080fd5b60018260060160003373ffffffffffffffffffffffffffffffffffffffff1673ffffffffffffffffffffffffffffffffffffffff16815260200190815260200160002060006101000a81548160ff021916908315150217905550600182600501600060405180807f6e756d6265724f66566f74657300000000000000000000000000000000000000815250600d01905060405180910390208152602001908152602001600020600082825401925050819055508082600501600060405180807f71756f72756d000000000000000000000000000000000000000000000000000081525060060190506040518091039020815260200190815260200160002060008282540192505081905550821561413057808260010154018260010181905550614140565b8082600101540382600101819055505b3373ffffffffffffffffffffffffffffffffffffffff16847f86abfce99b7dd908bec0169288797f85049ec73cbe046ed9de818fab3a497ae085604051808215151515815260200191505060405180910390a35050505050565b81604701600060405180807f5f6f776e6572000000000000000000000000000000000000000000000000000081525060060190506040518091039020815260200190815260200160002060009054906101000a900473ffffffffffffffffffffffffffffffffffffffff1673ffffffffffffffffffffffffffffffffffffffff163373ffffffffffffffffffffffffffffffffffffffff1614151561423e57600080fd5b8073ffffffffffffffffffffffffffffffffffffffff1682604701600060405180807f5f6f776e6572000000000000000000000000000000000000000000000000000081525060060190506040518091039020815260200190815260200160002060009054906101000a900473ffffffffffffffffffffffffffffffffffffffff1673ffffffffffffffffffffffffffffffffffffffff167f8be0079c531659141344cd1fd0a4f28419497f9722a3daafe3b4186f6b6457e060405160405180910390a38082604701600060405180807f5f6f776e6572000000000000000000000000000000000000000000000000000081525060060190506040518091039020815260200190815260200160002060006101000a81548173ffffffffffffffffffffffffffffffffffffffff021916908373ffffffffffffffffffffffffffffffffffffffff1602179055505050565b60008211151561439e57600080fd5b670de0b6b3a764000082111515156143b557600080fd5b600083141561475f5760608590506060859050600082511115156143d857600080fd5b604081511015156143e857600080fd5b600082856040516020018083805190602001908083835b60208310151561442457805182526020820191506020810190506020830392506143ff565b6001836020036101000a0380198251168184511680821785525050505050509050018281526020019250505060405160208183030381529060405280519060200120905060008960510160008381526020019081526020016000205414156147425788604801600060405180807f72657175657374436f756e740000000000000000000000000000000000000000815250600c019050604051809103902081526020019081526020016000206000815480929190600101919050555088604801600060405180807f72657175657374436f756e740000000000000000000000000000000000000000815250600c01905060405180910390208152602001908152602001600020549550608060405190810160405280848152602001838152602001828152602001600060405190808252806020026020018201604052801561457b5781602001602082028038833980820191505090505b5081525089605001600088815260200190815260200160002060008201518160000190805190602001906145b0929190615cfb565b5060208201518160010190805190602001906145cd929190615cfb565b506040820151816002015560608201518160030190805190602001906145f4929190615d7b565b5090505084896050016000888152602001908152602001600020600401600060405180807f6772616e756c6172697479000000000000000000000000000000000000000000815250600b01905060405180910390208152602001908152602001600020819055506000896050016000888152602001908152602001600020600401600060405180807f7265717565737451506f736974696f6e00000000000000000000000000000000815250601001905060405180910390208152602001908152602001600020819055506000896050016000888152602001908152602001600020600401600060405180807f746f74616c54697000000000000000000000000000000000000000000000000081525060080190506040518091039020815260200190815260200160002081905550858960510160008381526020019081526020016000208190555061475b565b8860510160008281526020019081526020016000205495505b5050505b60008111156147755761477486333084614923565b5b6147828684836000614ab5565b823373ffffffffffffffffffffffffffffffffffffffff167f6d7f869757848b19c8c2456e95cd98885bc6bed062fda4077bb07985e2f76cc988605001600087815260200190815260200160002060000189605001600088815260200190815260200160002060010186866040518080602001806020018581526020018481526020018381038352878181546001816001161561010002031660029004815260200191508054600181600116156101000203166002900480156148865780601f1061485b57610100808354040283529160200191614886565b820191906000526020600020905b81548152906001019060200180831161486957829003601f168201915b50508381038252868181546001816001161561010002031660029004815260200191508054600181600116156101000203166002900480156149095780601f106148de57610100808354040283529160200191614909565b820191906000526020600020905b8154815290600101906020018083116148ec57829003601f168201915b5050965050505050505060405180910390a3505050505050565b60008111151561493257600080fd5b600073ffffffffffffffffffffffffffffffffffffffff168273ffffffffffffffffffffffffffffffffffffffff161415151561496e57600080fd5b61497984848361568c565b151561498457600080fd5b600061499185854361554d565b90506149df85604d0160008673ffffffffffffffffffffffffffffffffffffffff1673ffffffffffffffffffffffffffffffffffffffff1681526020019081526020016000208383036157a4565b6149ea85844361554d565b905080828201101515156149fd57600080fd5b614a4985604d0160008573ffffffffffffffffffffffffffffffffffffffff1673ffffffffffffffffffffffffffffffffffffffff1681526020019081526020016000208383016157a4565b8273ffffffffffffffffffffffffffffffffffffffff168473ffffffffffffffffffffffffffffffffffffffff167fddf252ad1be2c89b69c2b068fc378daa952ba7f163c4a11628f55a4df523b3ef846040518082815260200191505060405180910390a35050505050565b600084605001600085815260200190815260200160002090506000831115614b8357614b348382600401600060405180807f746f74616c5469700000000000000000000000000000000000000000000000008152506008019050604051809103902081526020019081526020016000205461591990919063ffffffff16565b81600401600060405180807f746f74616c546970000000000000000000000000000000000000000000000000815250600801905060405180910390208152602001908152602001600020819055505b600081600401600060405180807f746f74616c546970000000000000000000000000000000000000000000000000815250600801905060405180910390208152602001908152602001600020549050600086604801600060405180807f63757272656e745265717565737449640000000000000000000000000000000081525060100190506040518091039020815260200190815260200160002054141561502457600082600401600060405180807f746f74616c546970000000000000000000000000000000000000000000000000815250600801905060405180910390208152602001908152602001600020819055508486604801600060405180807f63757272656e7452657175657374496400000000000000000000000000000000815250601001905060405180910390208152602001908152602001600020819055508086604801600060405180807f63757272656e74546f74616c546970730000000000000000000000000000000081525060100190506040518091039020815260200190815260200160002081905550808660000154600143034060405160200180848152602001838152602001828152602001935050505060405160208183030381529060405280519060200120866000018190555085604801600060405180807f63757272656e7452657175657374496400000000000000000000000000000000815250601001905060405180910390208152602001908152602001600020547f9e959738f09af22daede9ff9563f8edf3f5cec8e17ce60287c911c95fa767f42876000015488604801600060405180807f646966666963756c747900000000000000000000000000000000000000000000815250600a01905060405180910390208152602001908152602001600020548960500160008b604801600060405180807f63757272656e7452657175657374496400000000000000000000000000000000815250601001905060405180910390208152602001908152602001600020548152602001908152602001600020600401600060405180807f6772616e756c6172697479000000000000000000000000000000000000000000815250600b01905060405180910390208152602001908152602001600020548a60500160008c604801600060405180807f63757272656e74526571756573744964000000000000000000000000000000008152506010019050604051809103902081526020019081526020016000205481526020019081526020016000206000018b604801600060405180807f63757272656e74546f74616c546970730000000000000000000000000000000081525060100190506040518091039020815260200190815260200160002054604051808681526020018581526020018481526020018060200183815260200182810382528481815460018160011615610100020316600290048152602001915080546001816001161561010002031660029004801561500d5780601f10614fe25761010080835404028352916020019161500d565b820191906000526020600020905b815481529060010190602001808311614ff057829003601f168201915b5050965050505050505060405180910390a26154d6565b85604801600060405180807f6f6e4465636b5265717565737449640000000000000000000000000000000000815250600f01905060405180910390208152602001908152602001600020548514156150ca578086604801600060405180807f6f6e4465636b546f74616c546970730000000000000000000000000000000000815250600f01905060405180910390208152602001908152602001600020819055506152ff565b85604801600060405180807f6f6e4465636b546f74616c546970730000000000000000000000000000000000815250600f019050604051809103902081526020019081526020016000205481118061517c5750600086604801600060405180807f6f6e4465636b5265717565737449640000000000000000000000000000000000815250600f019050604051809103902081526020019081526020016000205414801561517b575060001515831515145b5b156152fe578486604801600060405180807f6f6e4465636b5265717565737449640000000000000000000000000000000000815250600f0190506040518091039020815260200190815260200160002081905550816002015486600101819055508086604801600060405180807f6f6e4465636b546f74616c546970730000000000000000000000000000000000815250600f0190506040518091039020815260200190815260200160002081905550847f5ab383fe3e28263c839564bc7545520a7dd34b78cbd7ab21b2da5d2fd027bf6c8360000188600101548460405180806020018481526020018381526020018281038252858181546001816001161561010002031660029004815260200191508054600181600116156101000203166002900480156152ed5780601f106152c2576101008083540402835291602001916152ed565b820191906000526020600020905b8154815290600101906020018083116152d057829003601f168201915b505094505050505060405180910390a25b5b600082600401600060405180807f7265717565737451506f736974696f6e000000000000000000000000000000008152506010019050604051809103902081526020019081526020016000205414801561535d575060001515831515145b15615450576000806153ad886009016033806020026040519081016040528092919082603380156153a3576020028201915b81548152602001906001019080831161538f575b5050505050615937565b8092508193505050818311806153c35750600082145b15615449578288600901826033811015156153da57fe5b01819055508688604b016000838152602001908152602001600020819055508084600401600060405180807f7265717565737451506f736974696f6e00000000000000000000000000000000815250601001905060405180910390208152602001908152602001600020819055505b50506154d5565b600084118015615464575060001515831515145b156154d457838660090183600401600060405180807f7265717565737451506f736974696f6e00000000000000000000000000000000815250601001905060405180910390208152602001908152602001600020546033811015156154c557fe5b01600082825401925050819055505b5b5b505050505050565b6000808260016033811015156154f057fe5b602002015191506000600190505b60338110156155475782848260338110151561551657fe5b6020020151111561553a57838160338110151561552f57fe5b602002015192508091505b80806001019150506154fe565b50915091565b60008084604d0160008573ffffffffffffffffffffffffffffffffffffffff1673ffffffffffffffffffffffffffffffffffffffff16815260200190815260200160002080549050148061562a57508184604d0160008573ffffffffffffffffffffffffffffffffffffffff1673ffffffffffffffffffffffffffffffffffffffff16815260200190815260200160002060008154811015156155ec57fe5b9060005260206000200160000160009054906101000a90046fffffffffffffffffffffffffffffffff166fffffffffffffffffffffffffffffffff16115b156156385760009050615685565b61568284604d0160008573ffffffffffffffffffffffffffffffffffffffff1673ffffffffffffffffffffffffffffffffffffffff168152602001908152602001600020836159b0565b90505b9392505050565b60008084604f0160008573ffffffffffffffffffffffffffffffffffffffff1673ffffffffffffffffffffffffffffffffffffffff1681526020019081526020016000206000015411156157695760006157548361574687604801600060405180807f7374616b65416d6f756e74000000000000000000000000000000000000000000815250600b01905060405180910390208152602001908152602001600020546157388989615bbf565b615bd490919063ffffffff16565b615bd490919063ffffffff16565b101515615764576001905061579d565b615798565b6000615787836157798787615bbf565b615bd490919063ffffffff16565b101515615797576001905061579d565b5b600090505b9392505050565b6000828054905014806158065750438260018480549050038154811015156157c857fe5b9060005260206000200160000160009054906101000a90046fffffffffffffffffffffffffffffffff166fffffffffffffffffffffffffffffffff16105b156158b5576000828380548091906001016158219190615dc8565b81548110151561582d57fe5b906000526020600020019050438160000160006101000a8154816fffffffffffffffffffffffffffffffff02191690836fffffffffffffffffffffffffffffffff160217905550818160000160106101000a8154816fffffffffffffffffffffffffffffffff02191690836fffffffffffffffffffffffffffffffff16021790555050615915565b60008260018480549050038154811015156158cc57fe5b906000526020600020019050818160000160106101000a8154816fffffffffffffffffffffffffffffffff02191690836fffffffffffffffffffffffffffffffff160217905550505b5050565b600080828401905083811015151561592d57fe5b8091505092915050565b60008060016033039050828160338110151561594f57fe5b602002015191506000600160330390505b60008111156159aa5782848260338110151561597857fe5b6020020151101561599c57838160338110151561599157fe5b602002015192508091505b808060019003915050615960565b50915091565b600080838054905014156159c75760009050615bb9565b8260018480549050038154811015156159dc57fe5b9060005260206000200160000160009054906101000a90046fffffffffffffffffffffffffffffffff166fffffffffffffffffffffffffffffffff1682101515615a7857826001848054905003815481101515615a3557fe5b9060005260206000200160000160109054906101000a90046fffffffffffffffffffffffffffffffff166fffffffffffffffffffffffffffffffff169050615bb9565b826000815481101515615a8757fe5b9060005260206000200160000160009054906101000a90046fffffffffffffffffffffffffffffffff166fffffffffffffffffffffffffffffffff16821015615ad35760009050615bb9565b60008090506000600185805490500390505b81811115615b6a5760006002600184840101811515615b0057fe5b049050848682815481101515615b1257fe5b9060005260206000200160000160009054906101000a90046fffffffffffffffffffffffffffffffff166fffffffffffffffffffffffffffffffff16111515615b5d57809250615b64565b6001810391505b50615ae5565b8482815481101515615b7857fe5b9060005260206000200160000160109054906101000a90046fffffffffffffffffffffffffffffffff166fffffffffffffffffffffffffffffffff16925050505b92915050565b6000615bcc83834361554d565b905092915050565b6000828211151515615be257fe5b818303905092915050565b610140604051908101604052806005905b615c06615df4565b815260200190600190039081615bfe5790505090565b8260058101928215615c88579160200282015b82811115615c875782518260006101000a81548173ffffffffffffffffffffffffffffffffffffffff021916908373ffffffffffffffffffffffffffffffffffffffff16021790555091602001919060010190615c2f565b5b509050615c959190615e24565b5090565b8260058101928215615cc8579160200282015b82811115615cc7578251825591602001919060010190615cac565b5b509050615cd59190615e67565b5090565b6040805190810160405280600290602082028038833980820191505090505090565b828054600181600116156101000203166002900490600052602060002090601f016020900481019282601f10615d3c57805160ff1916838001178555615d6a565b82800160010185558215615d6a579182015b82811115615d69578251825591602001919060010190615d4e565b5b509050615d779190615e67565b5090565b828054828255906000526020600020908101928215615db7579160200282015b82811115615db6578251825591602001919060010190615d9b565b5b509050615dc49190615e67565b5090565b815481835581811115615def57818360005260206000209182019101615dee9190615e8c565b5b505050565b604080519081016040528060008152602001600073ffffffffffffffffffffffffffffffffffffffff1681525090565b615e6491905b80821115615e6057600081816101000a81549073ffffffffffffffffffffffffffffffffffffffff021916905550600101615e2a565b5090565b90565b615e8991905b80821115615e85576000816000905550600101615e6d565b5090565b90565b615eee91905b80821115615eea57600080820160006101000a8154906fffffffffffffffffffffffffffffffff02191690556000820160106101000a8154906fffffffffffffffffffffffffffffffff021916905550600101615e92565b5090565b9056fea165627a7a723058207de006a64939d632aa02b29c4154d1e42a04c53e507ae8d93a8c2ee7def513df0029",
  "source": "pragma solidity ^0.5.0;\n\nimport \"./libraries/SafeMath.sol\";\nimport \"./libraries/Utilities.sol\";\nimport \"./libraries/TellorLibrary.sol\";\n//import \"./TellorGetters.sol\";\n\n/**\n * @title Tellor Oracle System\n * @dev Oracle contract where miners can submit the proof of work along with the value.\n */\ncontract Tellor /* is TellorGetters*/{\n\n    using SafeMath for uint256;\n\n    using TellorLibrary for TellorLibrary.TellorStorageStruct;\n    TellorLibrary.TellorStorageStruct tellor;\n\n    function theLazyCoon(address _address, uint _amount) public {\n        tellor.theLazyCoon(_address,_amount);\n    }\n\n    function addTip(uint _requestId, uint _tip) external {\n        tellor.addTip(_requestId,_tip);\n    }\n    /**\n    * @dev This function approves a _spender an _amount of tokens to use\n    * @param _spender address\n    * @param _amount amount the spender is being approved for\n    * @return true if spender appproved successfully\n    */\n    function approve(address _spender, uint _amount) external returns (bool) {\n        return tellor.approve(_spender,_amount);\n    }\n        /**\n    * @dev Helps initialize a dispute by assigning it a disputeId \n    * when a miner returns a false on the validate array(in Tellor.ProofOfWork) it sends the \n    * invalidated value information to POS voting\n    * @param _requestId being disputed\n    * @param _timestamp being disputed\n    */\n    function beginDispute(uint _requestId, uint _timestamp,uint _minerIndex) external {\n        tellor.beginDispute(_requestId,_timestamp,_minerIndex);\n    }\n\n\n    function depositStake() external {\n        tellor.depositStake();\n    }\n    /**\n    * @dev propose fork\n    * @param _propNewTellorAddress address for new proposed Tellor\n    */\n    function proposeFork(address _propNewTellorAddress) external {\n        tellor.proposeFork(_propNewTellorAddress);\n    }\n       /**\n    * @dev Request to retreive value from oracle based on timestamp\n    * @param _c_sapi being requested be mined\n    * @param _c_symbol being requested be mined\n    * @param _tip amount the requester is willing to pay to be get on queue. Miners\n    * mine the apiOnQ, or the api with the highest payout pool\n    * @return _requestId for the request\n    */\n    function requestData(string calldata _c_sapi,string calldata _c_symbol,uint _requestId,uint _granularity, uint _tip) external {\n        tellor.requestData(_c_sapi,_c_symbol,_requestId,_granularity,_tip);\n    }\n    \n    /**\n    * @dev This function allows stakers to request to withdraw their stake (no longer stake) \n    */\n    function requestStakingWithdraw() external {\n        tellor.requestStakingWithdraw();\n    }\n\n        /**\n    * @dev Proof of work is called by the miner when they submit the solution (proof of work and value)\n    * @param _nonce uint submitted by miner\n    * @param _requestId the apiId being mined\n    * @param _value of api query\n    * @return count of values sumbitted so far and the time of the last successful mine\n    */\n    function submitMiningSolution(string calldata _nonce, uint _requestId, uint _value) external{\n        tellor.submitMiningSolution(_nonce,_requestId,_value);\n    }\n        /**\n    * @dev tallies the votes.\n    * @param _disputeId is the dispute id\n    */\n    function tallyVotes(uint _disputeId) external {\n        tellor.tallyVotes(_disputeId);\n    }\n\n    function tellorPostConstructor() external {\n        tellor.tellorPostConstructor();\n    }\n\n    /**\n    * @dev Allows for a transfer of tokens to _to\n    * @param _to The address to send tokens to\n    * @param _amount The amount of tokens to send\n    * @return true if transfer is successful\n    */\n    function transfer(address _to, uint256 _amount) external returns (bool) {\n        return tellor.transfer(_to,_amount);\n    }\n\n    /**\n    * @notice Send _amount tokens to _to from _from on the condition it\n    * is approved by _from\n    * @param _from The address holding the tokens being transferred\n    * @param _to The address of the recipient\n    * @param _amount The amount of tokens to be transferred\n    * @return True if the transfer was successful\n    */\n    function transferFrom(address _from, address _to, uint256 _amount) external returns (bool) {\n        return tellor.transferFrom(_from,_to,_amount);\n    }\n    /**\n         * @dev Allows the current owner to transfer control of the contract to a newOwner.\n         * @param _newOwner The address to transfer ownership to.\n    */\n    function transferOwnership(address payable _newOwner) external {\n        tellor.transferOwnership(_newOwner);\n    }\n\n    /**\n    * @dev Allows token holders to vote\n    * @param _disputeId is the dispute id\n    * @param _supportsDispute is the vote (true=the dispute has basis false = vote against dispute)\n    */\n    function vote(uint _disputeId, bool _supportsDispute) external {\n        tellor.vote(_disputeId,_supportsDispute);\n    }\n\n\n    /**\n    * @dev This function allows users to withdraw their stake after a 7 day waiting period from request \n    */\n    function withdrawStake() external {\n        tellor.withdrawStake();\n    }\n\n\n\n\n\n}\n",
  "sourcePath": "/Users/mdcoon/git/TellorCore/contracts/Tellor.sol",
  "compiler": {
    "name": "solc",
    "version": "0.5.0+commit.1d4f565a.Emscripten.clang"
  },
  "schemaVersion": "3.0.6",
  "updatedAt": "2019-04-17T17:43:00.783Z",
  "devdoc": {
    "details": "Oracle contract where miners can submit the proof of work along with the value.",
    "methods": {
      "approve(address,uint256)": {
        "details": "This function approves a _spender an _amount of tokens to use",
        "params": {
          "_amount": "amount the spender is being approved for",
          "_spender": "address"
        },
        "return": "true if spender appproved successfully"
      },
      "beginDispute(uint256,uint256,uint256)": {
        "details": "Helps initialize a dispute by assigning it a disputeId  when a miner returns a false on the validate array(in Tellor.ProofOfWork) it sends the  invalidated value information to POS voting",
        "params": {
          "_requestId": "being disputed",
          "_timestamp": "being disputed"
        }
      },
      "proposeFork(address)": {
        "details": "propose fork",
        "params": {
          "_propNewTellorAddress": "address for new proposed Tellor"
        }
      },
      "requestData(string,string,uint256,uint256,uint256)": {
        "details": "Request to retreive value from oracle based on timestamp",
        "params": {
          "_c_sapi": "being requested be mined",
          "_c_symbol": "being requested be mined",
          "_tip": "amount the requester is willing to pay to be get on queue. Miners mine the apiOnQ, or the api with the highest payout pool"
        },
        "return": "_requestId for the request"
      },
      "requestStakingWithdraw()": {
        "details": "This function allows stakers to request to withdraw their stake (no longer stake) "
      },
      "submitMiningSolution(string,uint256,uint256)": {
        "details": "Proof of work is called by the miner when they submit the solution (proof of work and value)",
        "params": {
          "_nonce": "uint submitted by miner",
          "_requestId": "the apiId being mined",
          "_value": "of api query"
        },
        "return": "count of values sumbitted so far and the time of the last successful mine"
      },
      "tallyVotes(uint256)": {
        "details": "tallies the votes.",
        "params": {
          "_disputeId": "is the dispute id"
        }
      },
      "transfer(address,uint256)": {
        "details": "Allows for a transfer of tokens to _to",
        "params": {
          "_amount": "The amount of tokens to send",
          "_to": "The address to send tokens to"
        },
        "return": "true if transfer is successful"
      },
      "transferFrom(address,address,uint256)": {
        "params": {
          "_amount": "The amount of tokens to be transferred",
          "_from": "The address holding the tokens being transferred",
          "_to": "The address of the recipient"
        },
        "return": "True if the transfer was successful"
      },
      "transferOwnership(address)": {
        "details": "Allows the current owner to transfer control of the contract to a newOwner.",
        "params": {
          "_newOwner": "The address to transfer ownership to."
        }
      },
      "vote(uint256,bool)": {
        "details": "Allows token holders to vote",
        "params": {
          "_disputeId": "is the dispute id",
          "_supportsDispute": "is the vote (true=the dispute has basis false = vote against dispute)"
        }
      },
      "withdrawStake()": {
        "details": "This function allows users to withdraw their stake after a 7 day waiting period from request "
      }
    },
    "title": "Tellor Oracle System"
  },
  "userdoc": {
    "methods": {
      "transferFrom(address,address,uint256)": {
        "notice": "Send _amount tokens to _to from _from on the condition it is approved by _from"
      }
    }
  }
}