{
  "contractName": "UserContract",
  "abi": [
    {
      "constant": true,
      "inputs": [],
      "name": "spread",
      "outputs": [
        {
          "name": "",
          "type": "uint256"
        }
      ],
      "payable": false,
      "stateMutability": "view",
      "type": "function"
    },
    {
      "constant": true,
      "inputs": [],
      "name": "tributePrice",
      "outputs": [
        {
          "name": "",
          "type": "uint256"
        }
      ],
      "payable": false,
      "stateMutability": "view",
      "type": "function"
    },
    {
      "constant": true,
      "inputs": [],
      "name": "owner",
      "outputs": [
        {
          "name": "",
          "type": "address"
        }
      ],
      "payable": false,
      "stateMutability": "view",
      "type": "function"
    },
    {
      "constant": true,
      "inputs": [],
      "name": "tellorStorageAddress",
      "outputs": [
        {
          "name": "",
          "type": "address"
        }
      ],
      "payable": false,
      "stateMutability": "view",
      "type": "function"
    },
    {
      "inputs": [
        {
          "name": "_storage",
          "type": "address"
        }
      ],
      "payable": false,
      "stateMutability": "nonpayable",
      "type": "constructor"
    },
    {
      "anonymous": false,
      "inputs": [
        {
          "indexed": false,
          "name": "_previousOwner",
          "type": "address"
        },
        {
          "indexed": false,
          "name": "_newOwner",
          "type": "address"
        }
      ],
      "name": "OwnershipTransferred",
      "type": "event"
    },
    {
      "anonymous": false,
      "inputs": [
        {
          "indexed": false,
          "name": "_newPrice",
          "type": "uint256"
        }
      ],
      "name": "NewPriceSet",
      "type": "event"
    },
    {
      "constant": false,
      "inputs": [
        {
          "name": "newOwner",
          "type": "address"
        }
      ],
      "name": "transferOwnership",
      "outputs": [],
      "payable": false,
      "stateMutability": "nonpayable",
      "type": "function"
    },
    {
      "constant": false,
      "inputs": [],
      "name": "withdrawEther",
      "outputs": [],
      "payable": false,
      "stateMutability": "nonpayable",
      "type": "function"
    },
    {
      "constant": false,
      "inputs": [
        {
          "name": "c_sapi",
          "type": "string"
        },
        {
          "name": "_c_symbol",
          "type": "string"
        },
        {
          "name": "_granularity",
          "type": "uint256"
        },
        {
          "name": "_tip",
          "type": "uint256"
        }
      ],
      "name": "requestDataWithEther",
      "outputs": [],
      "payable": true,
      "stateMutability": "payable",
      "type": "function"
    },
    {
      "constant": false,
      "inputs": [
        {
          "name": "_apiId",
          "type": "uint256"
        },
        {
          "name": "_tip",
          "type": "uint256"
        }
      ],
      "name": "addTipWithEther",
      "outputs": [],
      "payable": false,
      "stateMutability": "nonpayable",
      "type": "function"
    },
    {
      "constant": false,
      "inputs": [
        {
          "name": "_spread",
          "type": "uint256"
        }
      ],
      "name": "setSpread",
      "outputs": [],
      "payable": false,
      "stateMutability": "nonpayable",
      "type": "function"
    },
    {
      "constant": false,
      "inputs": [
        {
          "name": "_price",
          "type": "uint256"
        }
      ],
      "name": "setPrice",
      "outputs": [],
      "payable": false,
      "stateMutability": "nonpayable",
      "type": "function"
    }
  ],
  "bytecode": "0x608060405234801561001057600080fd5b50604051602080610c368339810180604052602081101561003057600080fd5b810190808051906020019092919050505080600360006101000a81548173ffffffffffffffffffffffffffffffffffffffff021916908373ffffffffffffffffffffffffffffffffffffffff160217905550336000806101000a81548173ffffffffffffffffffffffffffffffffffffffff021916908373ffffffffffffffffffffffffffffffffffffffff16021790555050610b64806100d26000396000f3fe6080604052600436106100a4576000357c0100000000000000000000000000000000000000000000000000000000900463ffffffff1680634482e6f3146100a95780635c25c76c1461018b57806362fb62b5146101b65780637362377b146101e15780638da5cb5b146101f857806391b7f5ed1461024f578063a80209731461028a578063b66a261c146102e1578063e723e3b51461031c578063f2fde38b14610361575b600080fd5b610189600480360360808110156100bf57600080fd5b81019080803590602001906401000000008111156100dc57600080fd5b8201836020820111156100ee57600080fd5b8035906020019184600183028401116401000000008311171561011057600080fd5b90919293919293908035906020019064010000000081111561013157600080fd5b82018360208201111561014357600080fd5b8035906020019184600183028401116401000000008311171561016557600080fd5b909192939192939080359060200190929190803590602001909291905050506103b2565b005b34801561019757600080fd5b506101a06105e6565b6040518082815260200191505060405180910390f35b3480156101c257600080fd5b506101cb6105ec565b6040518082815260200191505060405180910390f35b3480156101ed57600080fd5b506101f66105f2565b005b34801561020457600080fd5b5061020d6106ce565b604051808273ffffffffffffffffffffffffffffffffffffffff1673ffffffffffffffffffffffffffffffffffffffff16815260200191505060405180910390f35b34801561025b57600080fd5b506102886004803603602081101561027257600080fd5b81019080803590602001909291905050506106f3565b005b34801561029657600080fd5b5061029f61078f565b604051808273ffffffffffffffffffffffffffffffffffffffff1673ffffffffffffffffffffffffffffffffffffffff16815260200191505060405180910390f35b3480156102ed57600080fd5b5061031a6004803603602081101561030457600080fd5b81019080803590602001909291905050506107b5565b005b34801561032857600080fd5b5061035f6004803603604081101561033f57600080fd5b81019080803590602001909291908035906020019092919050505061081a565b005b34801561036d57600080fd5b506103b06004803603602081101561038457600080fd5b81019080803573ffffffffffffffffffffffffffffffffffffffff1690602001909291905050506109e2565b005b6000600360009054906101000a900473ffffffffffffffffffffffffffffffffffffffff16905060025482028173ffffffffffffffffffffffffffffffffffffffff166370a08231306040518263ffffffff167c0100000000000000000000000000000000000000000000000000000000028152600401808273ffffffffffffffffffffffffffffffffffffffff1673ffffffffffffffffffffffffffffffffffffffff16815260200191505060206040518083038186803b15801561047757600080fd5b505afa15801561048b573d6000803e3d6000fd5b505050506040513d60208110156104a157600080fd5b81019080805190602001909291905050501115156104be57600080fd5b6000600360009054906101000a900473ffffffffffffffffffffffffffffffffffffffff1690508073ffffffffffffffffffffffffffffffffffffffff16633fff28168989898989896040518763ffffffff167c01000000000000000000000000000000000000000000000000000000000281526004018080602001806020018581526020018481526020018381038352898982818152602001925080828437600081840152601f19601f8201169050808301925050508381038252878782818152602001925080828437600081840152601f19601f82011690508083019250505098505050505050505050600060405180830381600087803b1580156105c457600080fd5b505af11580156105d8573d6000803e3d6000fd5b505050505050505050505050565b60015481565b60025481565b6000809054906101000a900473ffffffffffffffffffffffffffffffffffffffff1673ffffffffffffffffffffffffffffffffffffffff163373ffffffffffffffffffffffffffffffffffffffff1614151561064d57600080fd5b6000809054906101000a900473ffffffffffffffffffffffffffffffffffffffff1673ffffffffffffffffffffffffffffffffffffffff166108fc3073ffffffffffffffffffffffffffffffffffffffff16319081150290604051600060405180830381858888f193505050501580156106cb573d6000803e3d6000fd5b50565b6000809054906101000a900473ffffffffffffffffffffffffffffffffffffffff1681565b6000809054906101000a900473ffffffffffffffffffffffffffffffffffffffff1673ffffffffffffffffffffffffffffffffffffffff163373ffffffffffffffffffffffffffffffffffffffff1614151561074e57600080fd5b806002819055507f4e8ad04c3fba0cbea0ab1df84b92a72a289ddf64da15f4c1c396891d37c39b01816040518082815260200191505060405180910390a150565b600360009054906101000a900473ffffffffffffffffffffffffffffffffffffffff1681565b6000809054906101000a900473ffffffffffffffffffffffffffffffffffffffff1673ffffffffffffffffffffffffffffffffffffffff163373ffffffffffffffffffffffffffffffffffffffff1614151561081057600080fd5b8060018190555050565b6000600360009054906101000a900473ffffffffffffffffffffffffffffffffffffffff16905060025482028173ffffffffffffffffffffffffffffffffffffffff166370a08231306040518263ffffffff167c0100000000000000000000000000000000000000000000000000000000028152600401808273ffffffffffffffffffffffffffffffffffffffff1673ffffffffffffffffffffffffffffffffffffffff16815260200191505060206040518083038186803b1580156108df57600080fd5b505afa1580156108f3573d6000803e3d6000fd5b505050506040513d602081101561090957600080fd5b810190808051906020019092919050505011151561092657600080fd5b6000600360009054906101000a900473ffffffffffffffffffffffffffffffffffffffff1690508073ffffffffffffffffffffffffffffffffffffffff1663752d49a185856040518363ffffffff167c01000000000000000000000000000000000000000000000000000000000281526004018083815260200182815260200192505050600060405180830381600087803b1580156109c457600080fd5b505af11580156109d8573d6000803e3d6000fd5b5050505050505050565b6000809054906101000a900473ffffffffffffffffffffffffffffffffffffffff1673ffffffffffffffffffffffffffffffffffffffff163373ffffffffffffffffffffffffffffffffffffffff16141515610a3d57600080fd5b7f8be0079c531659141344cd1fd0a4f28419497f9722a3daafe3b4186f6b6457e06000809054906101000a900473ffffffffffffffffffffffffffffffffffffffff1682604051808373ffffffffffffffffffffffffffffffffffffffff1673ffffffffffffffffffffffffffffffffffffffff1681526020018273ffffffffffffffffffffffffffffffffffffffff1673ffffffffffffffffffffffffffffffffffffffff1681526020019250505060405180910390a1806000806101000a81548173ffffffffffffffffffffffffffffffffffffffff021916908373ffffffffffffffffffffffffffffffffffffffff1602179055505056fea165627a7a7230582047068f4284588ea133fbeb0739cb5248f934606f9af7264f6de47b4e174615da0029",
  "source": "pragma solidity ^0.5.0;\n\nimport '../TellorMaster.sol';\nimport '../Tellor.sol';\n/**\n* @title UsingTellor\n* This contracts creates for easy integration to the Tellor Tellor System\n* This contract holds the Ether and Tributes for interacting with the system\n* Note it is centralized (we can set the price of Tellor Tributes)\n* Once the tellor system is running, this can be set properly.  \n* Note deploy through centralized 'Tellor Master contract'\n*/\ncontract UserContract{\n\n\taddress payable public owner;\n\tuint public spread;//in thousands * 100.  So a 5% spread is 1000  + .05 *1000 = 1050\n\tuint public tributePrice;\n\taddress payable public tellorStorageAddress;\n\n\tevent OwnershipTransferred(address _previousOwner,address _newOwner);\n\tevent NewPriceSet(uint _newPrice);\n\n\n\n    constructor(address payable _storage) public{\n    \ttellorStorageAddress = _storage;\n    \towner = msg.sender;\n    }\n\n\n    /**\n         * @dev Allows the current owner to transfer control of the contract to a newOwner.\n         * @param newOwner The address to transfer ownership to.\n     */\n    function transferOwnership(address payable newOwner) external {\n            require(msg.sender == owner);\n            emit OwnershipTransferred(owner, newOwner);\n            owner = newOwner;\n    }\n\n\tfunction withdrawEther() external {\n\t\trequire(msg.sender == owner);\n\t\towner.transfer(address(this).balance);\n\n\t}\n\n\t//allow them to pay with their own Tributes (prevents us from increasing spread too high)\n\tfunction requestDataWithEther(string calldata c_sapi, string calldata _c_symbol,uint _granularity, uint _tip) external payable{\n\t\tTellorMaster _tellorm = TellorMaster(tellorStorageAddress);\n\t\trequire(_tellorm.balanceOf(address(this)) > _tip * tributePrice);\n\t\tTellor _tellor = Tellor(tellorStorageAddress); //we should delcall here\n\t\t_tellor.requestData(c_sapi,_c_symbol,_granularity,_tip);\n\t}\n\n\tfunction addTipWithEther(uint _apiId, uint _tip) public {\n\t\tTellorMaster _tellorm = TellorMaster(tellorStorageAddress);\n\t\trequire(_tellorm.balanceOf(address(this)) > _tip * tributePrice);\n\t\tTellor _tellor = Tellor(tellorStorageAddress); //we should delcall here\n\t\t_tellor.addTip(_apiId,_tip);\n\t}\n\n\tfunction setSpread(uint _spread) public{\n\t\trequire(msg.sender == owner);\n\t\tspread = _spread;\n\t}\n\n\tfunction setPrice(uint _price) public {\n\t\trequire(msg.sender == owner);\n\t\ttributePrice = _price;\n\t\temit NewPriceSet(_price);\n\t}\n\n}\n\n//On get last query, we should remove the bool return\n// //On get last query, should be by requestId\n// //remove requestId from requestData",
  "sourcePath": "/Users/mdcoon/git/TellorCore/contracts/userFiles/UserContract.sol",
  "compiler": {
    "name": "solc",
    "version": "0.5.0+commit.1d4f565a.Emscripten.clang"
  },
  "schemaVersion": "3.0.6",
  "updatedAt": "2019-05-06T08:06:35.240Z",
  "devdoc": {
    "methods": {
      "transferOwnership(address)": {
        "details": "Allows the current owner to transfer control of the contract to a newOwner.",
        "params": {
          "newOwner": "The address to transfer ownership to."
        }
      }
    },
    "title": "UsingTellor This contracts creates for easy integration to the Tellor Tellor System This contract holds the Ether and Tributes for interacting with the system Note it is centralized (we can set the price of Tellor Tributes) Once the tellor system is running, this can be set properly.   Note deploy through centralized 'Tellor Master contract'"
  },
  "userdoc": {
    "methods": {}
  }
}