{
  "contractName": "UtilitiesTests",
  "abi": [
    {
      "constant": true,
      "inputs": [],
      "name": "tellorMasterAddress",
      "outputs": [
        {
          "name": "",
          "type": "address"
        }
      ],
      "payable": false,
      "stateMutability": "view",
      "type": "function"
    },
    {
      "inputs": [],
      "payable": false,
      "stateMutability": "nonpayable",
      "type": "constructor"
    },
    {
      "constant": false,
      "inputs": [
        {
          "name": "_TellorMasterAddress",
          "type": "address"
        }
      ],
      "name": "setTellorMaster",
      "outputs": [],
      "payable": false,
      "stateMutability": "nonpayable",
      "type": "function"
    },
    {
      "constant": true,
      "inputs": [],
      "name": "testgetMax",
      "outputs": [
        {
          "name": "_max",
          "type": "uint256"
        },
        {
          "name": "_index",
          "type": "uint256"
        }
      ],
      "payable": false,
      "stateMutability": "view",
      "type": "function"
    },
    {
      "constant": true,
      "inputs": [],
      "name": "testgetMin",
      "outputs": [
        {
          "name": "_min",
          "type": "uint256"
        },
        {
          "name": "_index",
          "type": "uint256"
        }
      ],
      "payable": false,
      "stateMutability": "view",
      "type": "function"
    }
  ],
  "bytecode": "0x608060405234801561001057600080fd5b50336000806101000a81548173ffffffffffffffffffffffffffffffffffffffff021916908373ffffffffffffffffffffffffffffffffffffffff1602179055506104f4806100606000396000f3fe608060405234801561001057600080fd5b506004361061004c5760003560e01c80632893e758146100515780636e51bc9f146100765780637d215ec0146100ba578063b005ccae146100df575b600080fd5b610059610129565b604051808381526020018281526020019250505060405180910390f35b6100b86004803603602081101561008c57600080fd5b81019080803573ffffffffffffffffffffffffffffffffffffffff1690602001909291905050506101f7565b005b6100c26102d5565b604051808381526020018281526020019250505060405180910390f35b6100e76103a3565b604051808273ffffffffffffffffffffffffffffffffffffffff1673ffffffffffffffffffffffffffffffffffffffff16815260200191505060405180910390f35b6000806101346104a5565b600160009054906101000a900473ffffffffffffffffffffffffffffffffffffffff1673ffffffffffffffffffffffffffffffffffffffff1663b54130296040518163ffffffff1660e01b81526004016106606040518083038186803b15801561019d57600080fd5b505afa1580156101b1573d6000803e3d6000fd5b505050506040513d601f19601f820116820180604052506106608110156101d757600080fd5b810190809190505090506101ea816103c9565b8093508194505050509091565b6000809054906101000a900473ffffffffffffffffffffffffffffffffffffffff1673ffffffffffffffffffffffffffffffffffffffff163373ffffffffffffffffffffffffffffffffffffffff161461025057600080fd5b80600260006101000a81548173ffffffffffffffffffffffffffffffffffffffff021916908373ffffffffffffffffffffffffffffffffffffffff16021790555080600160006101000a81548173ffffffffffffffffffffffffffffffffffffffff021916908373ffffffffffffffffffffffffffffffffffffffff16021790555050565b6000806102e06104a5565b600160009054906101000a900473ffffffffffffffffffffffffffffffffffffffff1673ffffffffffffffffffffffffffffffffffffffff1663b54130296040518163ffffffff1660e01b81526004016106606040518083038186803b15801561034957600080fd5b505afa15801561035d573d6000803e3d6000fd5b505050506040513d601f19601f8201168201806040525061066081101561038357600080fd5b810190809190505090506103968161043c565b8093508194505050509091565b600260009054906101000a900473ffffffffffffffffffffffffffffffffffffffff1681565b600080600160330390508281603381106103df57fe5b602002015191506000600160330390505b6000811115610436578284826033811061040657fe5b602002015110156104285783816033811061041d57fe5b602002015192508091505b8080600190039150506103f0565b50915091565b6000808260016033811061044c57fe5b602002015191506000600190505b603381101561049f578284826033811061047057fe5b602002015111156104925783816033811061048757fe5b602002015192508091505b808060010191505061045a565b50915091565b60405180610660016040528060339060208202803883398082019150509050509056fea165627a7a723058201f32357c53118f70c66d4d866c7289bcbe39a1c2d90671394ea03a587ba4c8ad0029",
  "source": "pragma solidity ^0.5.0;\n\nimport \"./libraries/Utilities.sol\";\nimport \"./libraries/TellorGettersLibrary.sol\";\nimport \"./TellorMaster.sol\";\n\n/**\n* @title Utilities Tests\n* @dev These are the getter function for the two assembly code functions in the\n* Utilities library\n*/\ncontract UtilitiesTests{\n\taddress internal owner;\n\tTellorMaster internal tellorMaster; \n    address public tellorMasterAddress;\n\n    /**\n    * @dev The constructor sets the owner\n    */\n    constructor ()  public{\n    \towner = msg.sender;\n    }\n\n    /**\n    *@dev Set TellorMaster address \n    *@param _TellorMasterAddress is the Tellor Master address\n    */\n    function setTellorMaster(address payable _TellorMasterAddress) public {\n        require (msg.sender == owner);\n        tellorMasterAddress = _TellorMasterAddress;\n        tellorMaster = TellorMaster(_TellorMasterAddress);\n    }\n\n    function testgetMax() public view returns(uint _max, uint _index){\n        uint256[51] memory requests = tellorMaster.getRequestQ();    \n        (_max,_index) = Utilities.getMax(requests);\n    }\n\n    function testgetMin() public view returns(uint _min, uint _index){\n        uint256[51] memory requests = tellorMaster.getRequestQ();        \n        (_min,_index) = Utilities.getMin(requests);\n    }\n\n}",
  "sourcePath": "/Users/mdcoon/git/TellorCore/contracts/oldContracts/UtilitiesTests.sol",
  "compiler": {
    "name": "solc",
    "version": "0.5.8+commit.23d335f2.Emscripten.clang"
  },
  "schemaVersion": "3.0.11",
  "updatedAt": "2019-09-29T18:14:30.909Z",
  "devdoc": {
    "details": "These are the getter function for the two assembly code functions in the Utilities library",
    "methods": {
      "constructor": {
        "details": "The constructor sets the owner"
      }
    },
    "title": "Utilities Tests"
  },
  "userdoc": {
    "methods": {
      "setTellorMaster(address)": {
        "notice": "dev Set TellorMaster address  param _TellorMasterAddress is the Tellor Master address"
      }
    }
  }
}