{
  "contractName": "Optimistic",
  "abi": [
    {
      "constant": true,
      "inputs": [
        {
          "name": "",
          "type": "uint256"
        }
      ],
      "name": "isValue",
      "outputs": [
        {
          "name": "",
          "type": "bool"
        }
      ],
      "payable": false,
      "stateMutability": "view",
      "type": "function"
    },
    {
      "constant": true,
      "inputs": [
        {
          "name": "",
          "type": "uint256"
        }
      ],
      "name": "disputedValues",
      "outputs": [
        {
          "name": "",
          "type": "bool"
        }
      ],
      "payable": false,
      "stateMutability": "view",
      "type": "function"
    },
    {
      "constant": false,
      "inputs": [
        {
          "name": "_request",
          "type": "string"
        },
        {
          "name": "_symbol",
          "type": "string"
        },
        {
          "name": "_granularity",
          "type": "uint256"
        },
        {
          "name": "_tip",
          "type": "uint256"
        }
      ],
      "name": "requestData",
      "outputs": [],
      "payable": false,
      "stateMutability": "nonpayable",
      "type": "function"
    },
    {
      "constant": false,
      "inputs": [
        {
          "name": "_request",
          "type": "string"
        },
        {
          "name": "_symbol",
          "type": "string"
        },
        {
          "name": "_granularity",
          "type": "uint256"
        },
        {
          "name": "_tip",
          "type": "uint256"
        }
      ],
      "name": "requestDataWithEther",
      "outputs": [],
      "payable": true,
      "stateMutability": "payable",
      "type": "function"
    },
    {
      "constant": true,
      "inputs": [
        {
          "name": "",
          "type": "uint256"
        },
        {
          "name": "",
          "type": "uint256"
        }
      ],
      "name": "requestIdsIncluded",
      "outputs": [
        {
          "name": "",
          "type": "uint256"
        }
      ],
      "payable": false,
      "stateMutability": "view",
      "type": "function"
    },
    {
      "constant": true,
      "inputs": [],
      "name": "granularity",
      "outputs": [
        {
          "name": "",
          "type": "uint256"
        }
      ],
      "payable": false,
      "stateMutability": "view",
      "type": "function"
    },
    {
      "constant": true,
      "inputs": [],
      "name": "disputePeriod",
      "outputs": [
        {
          "name": "",
          "type": "uint256"
        }
      ],
      "payable": false,
      "stateMutability": "view",
      "type": "function"
    },
    {
      "constant": true,
      "inputs": [
        {
          "name": "_requestId",
          "type": "uint256"
        },
        {
          "name": "_timestamp",
          "type": "uint256"
        }
      ],
      "name": "getFirstVerifiedDataAfter",
      "outputs": [
        {
          "name": "",
          "type": "bool"
        },
        {
          "name": "",
          "type": "uint256"
        },
        {
          "name": "_timestampRetrieved",
          "type": "uint256"
        }
      ],
      "payable": false,
      "stateMutability": "view",
      "type": "function"
    },
    {
      "constant": false,
      "inputs": [
        {
          "name": "_requestId",
          "type": "uint256"
        },
        {
          "name": "_tip",
          "type": "uint256"
        }
      ],
      "name": "addTip",
      "outputs": [],
      "payable": false,
      "stateMutability": "nonpayable",
      "type": "function"
    },
    {
      "constant": true,
      "inputs": [],
      "name": "owner",
      "outputs": [
        {
          "name": "",
          "type": "address"
        }
      ],
      "payable": false,
      "stateMutability": "view",
      "type": "function"
    },
    {
      "constant": false,
      "inputs": [
        {
          "name": "_userContract",
          "type": "address"
        }
      ],
      "name": "setUserContract",
      "outputs": [],
      "payable": false,
      "stateMutability": "nonpayable",
      "type": "function"
    },
    {
      "constant": true,
      "inputs": [],
      "name": "disputeFee",
      "outputs": [
        {
          "name": "",
          "type": "uint256"
        }
      ],
      "payable": false,
      "stateMutability": "view",
      "type": "function"
    },
    {
      "constant": true,
      "inputs": [
        {
          "name": "_requestId",
          "type": "uint256"
        },
        {
          "name": "_timestamp",
          "type": "uint256"
        }
      ],
      "name": "getAnyDataAfter",
      "outputs": [
        {
          "name": "_ifRetrieve",
          "type": "bool"
        },
        {
          "name": "_value",
          "type": "uint256"
        },
        {
          "name": "_timestampRetrieved",
          "type": "uint256"
        }
      ],
      "payable": false,
      "stateMutability": "view",
      "type": "function"
    },
    {
      "constant": false,
      "inputs": [
        {
          "name": "_requestId",
          "type": "uint256"
        },
        {
          "name": "_tip",
          "type": "uint256"
        }
      ],
      "name": "addTipWithEther",
      "outputs": [],
      "payable": true,
      "stateMutability": "payable",
      "type": "function"
    },
    {
      "constant": false,
      "inputs": [
        {
          "name": "_newOwner",
          "type": "address"
        }
      ],
      "name": "transferOwnership",
      "outputs": [],
      "payable": false,
      "stateMutability": "nonpayable",
      "type": "function"
    },
    {
      "inputs": [
        {
          "name": "_userContract",
          "type": "address"
        },
        {
          "name": "_disputeFeeRequired",
          "type": "uint256"
        },
        {
          "name": "_disputePeriod",
          "type": "uint256"
        },
        {
          "name": "_requestIds",
          "type": "uint256[]"
        },
        {
          "name": "_granularity",
          "type": "uint256"
        }
      ],
      "payable": false,
      "stateMutability": "nonpayable",
      "type": "constructor"
    },
    {
      "anonymous": false,
      "inputs": [
        {
          "indexed": true,
          "name": "_timestamp",
          "type": "uint256"
        },
        {
          "indexed": false,
          "name": "_value",
          "type": "uint256"
        }
      ],
      "name": "NewValueSet",
      "type": "event"
    },
    {
      "anonymous": false,
      "inputs": [
        {
          "indexed": false,
          "name": "_disputer",
          "type": "address"
        },
        {
          "indexed": false,
          "name": "_timestamp",
          "type": "uint256"
        },
        {
          "indexed": false,
          "name": "_value",
          "type": "uint256"
        }
      ],
      "name": "ValueDisputed",
      "type": "event"
    },
    {
      "anonymous": false,
      "inputs": [
        {
          "indexed": false,
          "name": "_timestamp",
          "type": "uint256"
        },
        {
          "indexed": false,
          "name": "_value",
          "type": "uint256"
        }
      ],
      "name": "TellorValuePlaced",
      "type": "event"
    },
    {
      "anonymous": false,
      "inputs": [
        {
          "indexed": false,
          "name": "_previousOwner",
          "type": "address"
        },
        {
          "indexed": false,
          "name": "_newOwner",
          "type": "address"
        }
      ],
      "name": "OwnershipTransferred",
      "type": "event"
    },
    {
      "constant": false,
      "inputs": [
        {
          "name": "_timestamp",
          "type": "uint256"
        },
        {
          "name": "_value",
          "type": "uint256"
        }
      ],
      "name": "setValue",
      "outputs": [],
      "payable": false,
      "stateMutability": "nonpayable",
      "type": "function"
    },
    {
      "constant": false,
      "inputs": [
        {
          "name": "_timestamp",
          "type": "uint256"
        }
      ],
      "name": "disputeOptimisticValue",
      "outputs": [],
      "payable": true,
      "stateMutability": "payable",
      "type": "function"
    },
    {
      "constant": false,
      "inputs": [
        {
          "name": "_timestamp",
          "type": "uint256"
        }
      ],
      "name": "getTellorValues",
      "outputs": [
        {
          "name": "_value",
          "type": "uint256"
        },
        {
          "name": "_didGet",
          "type": "bool"
        }
      ],
      "payable": false,
      "stateMutability": "nonpayable",
      "type": "function"
    },
    {
      "constant": false,
      "inputs": [],
      "name": "withdrawETH",
      "outputs": [],
      "payable": false,
      "stateMutability": "nonpayable",
      "type": "function"
    },
    {
      "constant": true,
      "inputs": [
        {
          "name": "_timestamp",
          "type": "uint256"
        }
      ],
      "name": "getFirstUndisputedValueAfter",
      "outputs": [
        {
          "name": "",
          "type": "bool"
        },
        {
          "name": "",
          "type": "uint256"
        },
        {
          "name": "_timestampRetrieved",
          "type": "uint256"
        }
      ],
      "payable": false,
      "stateMutability": "view",
      "type": "function"
    },
    {
      "constant": true,
      "inputs": [
        {
          "name": "_timestamp",
          "type": "uint256"
        }
      ],
      "name": "getMyValuesByTimestamp",
      "outputs": [
        {
          "name": "value",
          "type": "uint256"
        }
      ],
      "payable": false,
      "stateMutability": "view",
      "type": "function"
    },
    {
      "constant": true,
      "inputs": [
        {
          "name": "_timestamp",
          "type": "uint256"
        }
      ],
      "name": "getNumberOfValuesPerTimestamp",
      "outputs": [
        {
          "name": "",
          "type": "uint256"
        }
      ],
      "payable": false,
      "stateMutability": "view",
      "type": "function"
    },
    {
      "constant": true,
      "inputs": [
        {
          "name": "_timestamp",
          "type": "uint256"
        }
      ],
      "name": "getIsValue",
      "outputs": [
        {
          "name": "",
          "type": "bool"
        }
      ],
      "payable": false,
      "stateMutability": "view",
      "type": "function"
    },
    {
      "constant": true,
      "inputs": [],
      "name": "getCurrentValue",
      "outputs": [
        {
          "name": "",
          "type": "uint256"
        }
      ],
      "payable": false,
      "stateMutability": "view",
      "type": "function"
    },
    {
      "constant": true,
      "inputs": [
        {
          "name": "_requestId",
          "type": "uint256"
        }
      ],
      "name": "getCurrentValue",
      "outputs": [
        {
          "name": "ifRetrieve",
          "type": "bool"
        },
        {
          "name": "value",
          "type": "uint256"
        },
        {
          "name": "_timestampRetrieved",
          "type": "uint256"
        }
      ],
      "payable": false,
      "stateMutability": "view",
      "type": "function"
    },
    {
      "constant": true,
      "inputs": [],
      "name": "getTimestamps",
      "outputs": [
        {
          "name": "",
          "type": "uint256[]"
        }
      ],
      "payable": false,
      "stateMutability": "view",
      "type": "function"
    },
    {
      "constant": true,
      "inputs": [],
      "name": "getRequestIds",
      "outputs": [
        {
          "name": "",
          "type": "uint256[]"
        }
      ],
      "payable": false,
      "stateMutability": "view",
      "type": "function"
    },
    {
      "constant": true,
      "inputs": [
        {
          "name": "_timestamp",
          "type": "uint256"
        }
      ],
      "name": "getRequestIdsIncluded",
      "outputs": [
        {
          "name": "",
          "type": "uint256[]"
        }
      ],
      "payable": false,
      "stateMutability": "view",
      "type": "function"
    },
    {
      "constant": true,
      "inputs": [],
      "name": "getNumberOfDisputedValues",
      "outputs": [
        {
          "name": "",
          "type": "uint256"
        }
      ],
      "payable": false,
      "stateMutability": "view",
      "type": "function"
    },
    {
      "constant": true,
      "inputs": [],
      "name": "getDisputedValues",
      "outputs": [
        {
          "name": "",
          "type": "uint256[]"
        }
      ],
      "payable": false,
      "stateMutability": "view",
      "type": "function"
    },
    {
      "constant": true,
      "inputs": [
        {
          "name": "_timestamp",
          "type": "uint256"
        }
      ],
      "name": "isDisputed",
      "outputs": [
        {
          "name": "",
          "type": "bool"
        }
      ],
      "payable": false,
      "stateMutability": "view",
      "type": "function"
    },
    {
      "constant": true,
      "inputs": [
        {
          "name": "_index",
          "type": "uint256"
        }
      ],
      "name": "getDisputedValueByIndex",
      "outputs": [
        {
          "name": "",
          "type": "uint256"
        }
      ],
      "payable": false,
      "stateMutability": "view",
      "type": "function"
    }
  ],
  "bytecode": "0x60806040523480156200001157600080fd5b5060405162002b7538038062002b75833981018060405260a08110156200003757600080fd5b8101908080519060200190929190805190602001909291908051906020019092919080516401000000008111156200006e57600080fd5b828101905060208101848111156200008557600080fd5b8151856020820283011164010000000082111715620000a357600080fd5b50509291906020018051906020019092919050505084806000806101000a81548173ffffffffffffffffffffffffffffffffffffffff021916908373ffffffffffffffffffffffffffffffffffffffff16021790555033600160006101000a81548173ffffffffffffffffffffffffffffffffffffffff021916908373ffffffffffffffffffffffffffffffffffffffff1602179055505083600a8190555082600b819055508060098190555081600790805190602001906200016892919062000174565b505050505050620001ee565b828054828255906000526020600020908101928215620001b3579160200282015b82811115620001b257825182559160200191906001019062000195565b5b509050620001c29190620001c6565b5090565b620001eb91905b80821115620001e7576000816000905550600101620001cd565b5090565b90565b61297780620001fe6000396000f3fe6080604052600436106101e35760003560e01c806371d8dd1911610102578063b63f210a11610095578063e086e5ec11610064578063e086e5ec14610bf9578063e631def714610c10578063e723e3b514610c5f578063f2fde38b14610c97576101e3565b8063b63f210a14610a67578063b9ce896b14610ad3578063d269a83c14610afe578063dc7ebf0e14610b69576101e3565b80638da5cb5b116100d15780638da5cb5b146109005780639a64f07014610957578063a1206d4e146109aa578063ac33a273146109fb576101e3565b806371d8dd19146107d4578063752d49a1146108235780637b8d56e3146108685780637ccc586e146108ad576101e3565b80634482e6f31161017a5780635bf31d4d116101495780635bf31d4d146106b25780635f059f3e146106dd578063681012e51461074857806369949a8614610773576101e3565b80634482e6f3146104e0578063550921d4146105c2578063556f0dc71461061b57806359abbfe414610646576101e3565b806336e9d632116101b657806336e9d632146102ea57806337ae9e431461033d5780633fcad964146103905780633fff2816146103f1576101e3565b8063062777ff146101e85780630f76c11414610242578063292b8cce1461026d5780632aa0bc1f1461029b575b600080fd5b3480156101f457600080fd5b506102216004803603602081101561020b57600080fd5b8101908080359060200190929190505050610ce8565b60405180838152602001821515151581526020019250505060405180910390f35b34801561024e57600080fd5b5061025761129f565b6040518082815260200191505060405180910390f35b6102996004803603602081101561028357600080fd5b8101908080359060200190929190505050611348565b005b3480156102a757600080fd5b506102d4600480360360208110156102be57600080fd5b810190808035906020019092919050505061159e565b6040518082815260200191505060405180910390f35b3480156102f657600080fd5b506103236004803603602081101561030d57600080fd5b81019080803590602001909291905050506115be565b604051808215151515815260200191505060405180910390f35b34801561034957600080fd5b506103766004803603602081101561036057600080fd5b81019080803590602001909291905050506115de565b604051808215151515815260200191505060405180910390f35b34801561039c57600080fd5b506103c9600480360360208110156103b357600080fd5b81019080803590602001909291905050506115fe565b6040518084151515158152602001838152602001828152602001935050505060405180910390f35b3480156103fd57600080fd5b506104de6004803603608081101561041457600080fd5b810190808035906020019064010000000081111561043157600080fd5b82018360208201111561044357600080fd5b8035906020019184600183028401116401000000008311171561046557600080fd5b90919293919293908035906020019064010000000081111561048657600080fd5b82018360208201111561049857600080fd5b803590602001918460018302840111640100000000831117156104ba57600080fd5b909192939192939080359060200190929190803590602001909291905050506116d1565b005b6105c0600480360360808110156104f657600080fd5b810190808035906020019064010000000081111561051357600080fd5b82018360208201111561052557600080fd5b8035906020019184600183028401116401000000008311171561054757600080fd5b90919293919293908035906020019064010000000081111561056857600080fd5b82018360208201111561057a57600080fd5b8035906020019184600183028401116401000000008311171561059c57600080fd5b909192939192939080359060200190929190803590602001909291905050506119cd565b005b3480156105ce57600080fd5b50610605600480360360408110156105e557600080fd5b810190808035906020019092919080359060200190929190505050611ad2565b6040518082815260200191505060405180910390f35b34801561062757600080fd5b50610630611b00565b6040518082815260200191505060405180910390f35b34801561065257600080fd5b5061065b611b06565b6040518080602001828103825283818151815260200191508051906020019060200280838360005b8381101561069e578082015181840152602081019050610683565b505050509050019250505060405180910390f35b3480156106be57600080fd5b506106c7611b5e565b6040518082815260200191505060405180910390f35b3480156106e957600080fd5b506107206004803603604081101561070057600080fd5b810190808035906020019092919080359060200190929190505050611b64565b6040518084151515158152602001838152602001828152602001935050505060405180910390f35b34801561075457600080fd5b5061075d611c3f565b6040518082815260200191505060405180910390f35b34801561077f57600080fd5b506107ac6004803603602081101561079657600080fd5b8101908080359060200190929190505050611c4c565b6040518084151515158152602001838152602001828152602001935050505060405180910390f35b3480156107e057600080fd5b5061080d600480360360208110156107f757600080fd5b8101908080359060200190929190505050611d48565b6040518082815260200191505060405180910390f35b34801561082f57600080fd5b506108666004803603604081101561084657600080fd5b810190808035906020019092919080359060200190929190505050611d69565b005b34801561087457600080fd5b506108ab6004803603604081101561088b57600080fd5b810190808035906020019092919080359060200190929190505050611fef565b005b3480156108b957600080fd5b506108e6600480360360208110156108d057600080fd5b81019080803590602001909291905050506121e0565b604051808215151515815260200191505060405180910390f35b34801561090c57600080fd5b5061091561220a565b604051808273ffffffffffffffffffffffffffffffffffffffff1673ffffffffffffffffffffffffffffffffffffffff16815260200191505060405180910390f35b34801561096357600080fd5b506109906004803603602081101561097a57600080fd5b8101908080359060200190929190505050612230565b604051808215151515815260200191505060405180910390f35b3480156109b657600080fd5b506109f9600480360360208110156109cd57600080fd5b81019080803573ffffffffffffffffffffffffffffffffffffffff16906020019092919050505061225a565b005b348015610a0757600080fd5b50610a10612360565b6040518080602001828103825283818151815260200191508051906020019060200280838360005b83811015610a53578082015181840152602081019050610a38565b505050509050019250505060405180910390f35b348015610a7357600080fd5b50610a7c6123b8565b6040518080602001828103825283818151815260200191508051906020019060200280838360005b83811015610abf578082015181840152602081019050610aa4565b505050509050019250505060405180910390f35b348015610adf57600080fd5b50610ae8612410565b6040518082815260200191505060405180910390f35b348015610b0a57600080fd5b50610b4160048036036040811015610b2157600080fd5b810190808035906020019092919080359060200190929190505050612416565b6040518084151515158152602001838152602001828152602001935050505060405180910390f35b348015610b7557600080fd5b50610ba260048036036020811015610b8c57600080fd5b81019080803590602001909291905050506124f1565b6040518080602001828103825283818151815260200191508051906020019060200280838360005b83811015610be5578082015181840152602081019050610bca565b505050509050019250505060405180910390f35b348015610c0557600080fd5b50610c0e61255c565b005b348015610c1c57600080fd5b50610c4960048036036020811015610c3357600080fd5b81019080803590602001909291905050506126a1565b6040518082815260200191505060405180910390f35b610c9560048036036040811015610c7557600080fd5b8101908080359060200190929190803590602001909291905050506126be565b005b348015610ca357600080fd5b50610ce660048036036020811015610cba57600080fd5b81019080803573ffffffffffffffffffffffffffffffffffffffff169060200190929190505050612757565b005b60008060008060009054906101000a900473ffffffffffffffffffffffffffffffffffffffff1673ffffffffffffffffffffffffffffffffffffffff1663a80209736040518163ffffffff1660e01b815260040160206040518083038186803b158015610d5457600080fd5b505afa158015610d68573d6000803e3d6000fd5b505050506040513d6020811015610d7e57600080fd5b8101908080519060200190929190505050905060008060009054906101000a900473ffffffffffffffffffffffffffffffffffffffff1673ffffffffffffffffffffffffffffffffffffffff1663a80209736040518163ffffffff1660e01b815260040160206040518083038186803b158015610dfa57600080fd5b505afa158015610e0e573d6000803e3d6000fd5b505050506040513d6020811015610e2457600080fd5b810190808051906020019092919050505090506000808373ffffffffffffffffffffffffffffffffffffffff166370a08231306040518263ffffffff1660e01b8152600401808273ffffffffffffffffffffffffffffffffffffffff1673ffffffffffffffffffffffffffffffffffffffff16815260200191505060206040518083038186803b158015610eb757600080fd5b505afa158015610ecb573d6000803e3d6000fd5b505050506040513d6020811015610ee157600080fd5b810190808051906020019092919050505090506000600190505b600780549050811161129557610f118189611b64565b80955081995082985050505085156111415760006009548481610f3057fe5b06840390506000600160056000848152602001908152602001600020805490500160056000848152602001908152602001600020805490506003600085815260200190815260200160002054028a0181610f8657fe5b0490508060036000848152602001908152602001600020819055507f11d6fa234e47ea0871bd2e6efeb4e7be326a7216c36990b799a61a501cfcf1c38282604051808381526020018281526020019250505060405180910390a160056000838152602001908152602001600020839080600181540180825580915050906001820390600052602060002001600090919290919091505550600015156002600084815260200190815260200160002060009054906101000a900460ff16151514156110df57600682908060018154018082558091505090600182039060005260206000200160009091929091909150555060016002600084815260200190815260200160002060006101000a81548160ff021916908315150217905550817f2afa03c814297ffc234ff967b6f0863d3c358be243103f20217c8d3a4d39f9c08a6040518082815260200191505060405180910390a261113a565b600115156004600084815260200190815260200160002060009054906101000a900460ff16151514156111395760006004600084815260200190815260200160002060006101000a81548160ff0219169083151502179055505b5b5050611288565b6007805490508573ffffffffffffffffffffffffffffffffffffffff166370a08231306040518263ffffffff1660e01b8152600401808273ffffffffffffffffffffffffffffffffffffffff1673ffffffffffffffffffffffffffffffffffffffff16815260200191505060206040518083038186803b1580156111c457600080fd5b505afa1580156111d8573d6000803e3d6000fd5b505050506040513d60208110156111ee57600080fd5b81019080805190602001909291905050501115611287578373ffffffffffffffffffffffffffffffffffffffff1663752d49a182600780549050858161123057fe5b046040518363ffffffff1660e01b81526004018083815260200182815260200192505050600060405180830381600087803b15801561126e57600080fd5b505af1158015611282573d6000803e3d6000fd5b505050505b5b8080600101915050610efb565b5050505050915091565b6000806006805490501161131b576040517f08c379a00000000000000000000000000000000000000000000000000000000081526004018080602001828103825260178152602001807f54696d657374616d707327206c656e677468206973203000000000000000000081525060200191505060405180910390fd5b61134360066001600680549050038154811061133357fe5b90600052602060002001546126a1565b905090565b600a543410156113c0576040517f08c379a000000000000000000000000000000000000000000000000000000000815260040180806020018281038252601a8152602001807f56616c75652069732062656c6f7720646973707574652066656500000000000081525060200191505060405180910390fd5b6002600082815260200190815260200160002060009054906101000a900460ff16611436576040517f08c379a00000000000000000000000000000000000000000000000000000000081526004018080602001828103825260348152602001806129186034913960400191505060405180910390fd5b600b548101600954428161144657fe5b06420311156114bd576040517f08c379a00000000000000000000000000000000000000000000000000000000081526004018080602001828103825260188152602001807f4469737075746520706572696f6420697320636c6f736564000000000000000081525060200191505060405180910390fd5b60016004600083815260200190815260200160002060006101000a81548160ff02191690831515021790555060088190806001815401808255809150509060018203906000526020600020016000909192909190915055507fb199747b7b98ffd681a09c542f7f62ba4972f6f5b7d791b6f8bba36862cbdd2b33826003600085815260200190815260200160002054604051808473ffffffffffffffffffffffffffffffffffffffff1673ffffffffffffffffffffffffffffffffffffffff168152602001838152602001828152602001935050505060405180910390a150565b600060056000838152602001908152602001600020805490509050919050565b60026020528060005260406000206000915054906101000a900460ff1681565b60046020528060005260406000206000915054906101000a900460ff1681565b60008060008060009054906101000a900473ffffffffffffffffffffffffffffffffffffffff1673ffffffffffffffffffffffffffffffffffffffff16633fcad964856040518263ffffffff1660e01b81526004018082815260200191505060606040518083038186803b15801561167557600080fd5b505afa158015611689573d6000803e3d6000fd5b505050506040513d606081101561169f57600080fd5b810190808051906020019092919080519060200190929190805190602001909291905050509250925092509193909250565b60008060009054906101000a900473ffffffffffffffffffffffffffffffffffffffff1673ffffffffffffffffffffffffffffffffffffffff1663a80209736040518163ffffffff1660e01b815260040160206040518083038186803b15801561173a57600080fd5b505afa15801561174e573d6000803e3d6000fd5b505050506040513d602081101561176457600080fd5b8101908080519060200190929190505050905060008211156118e9578073ffffffffffffffffffffffffffffffffffffffff166323b872dd3330856040518463ffffffff1660e01b8152600401808473ffffffffffffffffffffffffffffffffffffffff1673ffffffffffffffffffffffffffffffffffffffff1681526020018373ffffffffffffffffffffffffffffffffffffffff1673ffffffffffffffffffffffffffffffffffffffff1681526020018281526020019350505050602060405180830381600087803b15801561183b57600080fd5b505af115801561184f573d6000803e3d6000fd5b505050506040513d602081101561186557600080fd5b81019080805190602001909291905050506118e8576040517f08c379a000000000000000000000000000000000000000000000000000000000815260040180806020018281038252600f8152602001807f5472616e73666572206661696c6564000000000000000000000000000000000081525060200191505060405180910390fd5b5b8073ffffffffffffffffffffffffffffffffffffffff16633fff28168888888888886040518763ffffffff1660e01b81526004018080602001806020018581526020018481526020018381038352898982818152602001925080828437600081840152601f19601f8201169050808301925050508381038252878782818152602001925080828437600081840152601f19601f82011690508083019250505098505050505050505050600060405180830381600087803b1580156119ac57600080fd5b505af11580156119c0573d6000803e3d6000fd5b5050505050505050505050565b6000809054906101000a900473ffffffffffffffffffffffffffffffffffffffff1673ffffffffffffffffffffffffffffffffffffffff16634482e6f3348888888888886040518863ffffffff1660e01b81526004018080602001806020018581526020018481526020018381038352898982818152602001925080828437600081840152601f19601f8201169050808301925050508381038252878782818152602001925080828437600081840152601f19601f820116905080830192505050985050505050505050506000604051808303818588803b158015611ab157600080fd5b505af1158015611ac5573d6000803e3d6000fd5b5050505050505050505050565b60056020528160005260406000208181548110611aeb57fe5b90600052602060002001600091509150505481565b60095481565b60606006805480602002602001604051908101604052809291908181526020018280548015611b5457602002820191906000526020600020905b815481526020019060010190808311611b40575b5050505050905090565b600b5481565b60008060008060009054906101000a900473ffffffffffffffffffffffffffffffffffffffff1673ffffffffffffffffffffffffffffffffffffffff16635f059f3e86866040518363ffffffff1660e01b8152600401808381526020018281526020019250505060606040518083038186803b158015611be357600080fd5b505afa158015611bf7573d6000803e3d6000fd5b505050506040513d6060811015611c0d57600080fd5b810190808051906020019092919080519060200190929190805190602001909291905050509250925092509250925092565b6000600880549050905090565b60008060008060068054905090506000811115611d2e5760008190505b6000811115611d0b578560066001830381548110611c8357fe5b906000526020600020015410158015611cda5750600015156004600060066001850381548110611caf57fe5b9060005260206000200154815260200190815260200160002060009054906101000a900460ff161515145b15611cfd5760066001820381548110611cef57fe5b906000526020600020015492505b808060019003915050611c69565b506000821115611d2d576001611d20836126a1565b8393509350935050611d41565b5b6000806000819150809050935093509350505b9193909250565b600060088281548110611d5757fe5b90600052602060002001549050919050565b60008060009054906101000a900473ffffffffffffffffffffffffffffffffffffffff1673ffffffffffffffffffffffffffffffffffffffff1663a80209736040518163ffffffff1660e01b815260040160206040518083038186803b158015611dd257600080fd5b505afa158015611de6573d6000803e3d6000fd5b505050506040513d6020811015611dfc57600080fd5b810190808051906020019092919050505090508073ffffffffffffffffffffffffffffffffffffffff166323b872dd3330856040518463ffffffff1660e01b8152600401808473ffffffffffffffffffffffffffffffffffffffff1673ffffffffffffffffffffffffffffffffffffffff1681526020018373ffffffffffffffffffffffffffffffffffffffff1673ffffffffffffffffffffffffffffffffffffffff1681526020018281526020019350505050602060405180830381600087803b158015611eca57600080fd5b505af1158015611ede573d6000803e3d6000fd5b505050506040513d6020811015611ef457600080fd5b8101908080519060200190929190505050611f77576040517f08c379a000000000000000000000000000000000000000000000000000000000815260040180806020018281038252600f8152602001807f5472616e73666572206661696c6564000000000000000000000000000000000081525060200191505060405180910390fd5b8073ffffffffffffffffffffffffffffffffffffffff1663752d49a184846040518363ffffffff1660e01b81526004018083815260200182815260200192505050600060405180830381600087803b158015611fd257600080fd5b505af1158015611fe6573d6000803e3d6000fd5b50505050505050565b600160009054906101000a900473ffffffffffffffffffffffffffffffffffffffff1673ffffffffffffffffffffffffffffffffffffffff163373ffffffffffffffffffffffffffffffffffffffff16146120b2576040517f08c379a00000000000000000000000000000000000000000000000000000000081526004018080602001828103825260138152602001807f53656e646572206973206e6f74206f776e65720000000000000000000000000081525060200191505060405180910390fd5b600015156120bf83612230565b151514612134576040517f08c379a00000000000000000000000000000000000000000000000000000000081526004018080602001828103825260188152602001807f54696d657374616d7020697320616c726561647920736574000000000000000081525060200191505060405180910390fd5b80600360008481526020019081526020016000208190555060016002600084815260200190815260200160002060006101000a81548160ff0219169083151502179055506006829080600181540180825580915050906001820390600052602060002001600090919290919091505550817f2afa03c814297ffc234ff967b6f0863d3c358be243103f20217c8d3a4d39f9c0826040518082815260200191505060405180910390a25050565b60006004600083815260200190815260200160002060009054906101000a900460ff169050919050565b600160009054906101000a900473ffffffffffffffffffffffffffffffffffffffff1681565b60006002600083815260200190815260200160002060009054906101000a900460ff169050919050565b600160009054906101000a900473ffffffffffffffffffffffffffffffffffffffff1673ffffffffffffffffffffffffffffffffffffffff163373ffffffffffffffffffffffffffffffffffffffff161461231d576040517f08c379a00000000000000000000000000000000000000000000000000000000081526004018080602001828103825260138152602001807f53656e646572206973206e6f74206f776e65720000000000000000000000000081525060200191505060405180910390fd5b806000806101000a81548173ffffffffffffffffffffffffffffffffffffffff021916908373ffffffffffffffffffffffffffffffffffffffff16021790555050565b606060078054806020026020016040519081016040528092919081815260200182805480156123ae57602002820191906000526020600020905b81548152602001906001019080831161239a575b5050505050905090565b6060600880548060200260200160405190810160405280929190818152602001828054801561240657602002820191906000526020600020905b8154815260200190600101908083116123f2575b5050505050905090565b600a5481565b60008060008060009054906101000a900473ffffffffffffffffffffffffffffffffffffffff1673ffffffffffffffffffffffffffffffffffffffff1663d269a83c86866040518363ffffffff1660e01b8152600401808381526020018281526020019250505060606040518083038186803b15801561249557600080fd5b505afa1580156124a9573d6000803e3d6000fd5b505050506040513d60608110156124bf57600080fd5b810190808051906020019092919080519060200190929190805190602001909291905050509250925092509250925092565b60606005600083815260200190815260200160002080548060200260200160405190810160405280929190818152602001828054801561255057602002820191906000526020600020905b81548152602001906001019080831161253c575b50505050509050919050565b600160009054906101000a900473ffffffffffffffffffffffffffffffffffffffff1673ffffffffffffffffffffffffffffffffffffffff163373ffffffffffffffffffffffffffffffffffffffff161461261f576040517f08c379a00000000000000000000000000000000000000000000000000000000081526004018080602001828103825260138152602001807f53656e646572206973206e6f74206f776e65720000000000000000000000000081525060200191505060405180910390fd5b600160009054906101000a900473ffffffffffffffffffffffffffffffffffffffff1673ffffffffffffffffffffffffffffffffffffffff166108fc3073ffffffffffffffffffffffffffffffffffffffff16319081150290604051600060405180830381858888f1935050505015801561269e573d6000803e3d6000fd5b50565b600060036000838152602001908152602001600020549050919050565b6000809054906101000a900473ffffffffffffffffffffffffffffffffffffffff1673ffffffffffffffffffffffffffffffffffffffff1663e723e3b53484846040518463ffffffff1660e01b815260040180838152602001828152602001925050506000604051808303818588803b15801561273a57600080fd5b505af115801561274e573d6000803e3d6000fd5b50505050505050565b600160009054906101000a900473ffffffffffffffffffffffffffffffffffffffff1673ffffffffffffffffffffffffffffffffffffffff163373ffffffffffffffffffffffffffffffffffffffff161461281a576040517f08c379a00000000000000000000000000000000000000000000000000000000081526004018080602001828103825260138152602001807f53656e646572206973206e6f74206f776e65720000000000000000000000000081525060200191505060405180910390fd5b7f8be0079c531659141344cd1fd0a4f28419497f9722a3daafe3b4186f6b6457e0600160009054906101000a900473ffffffffffffffffffffffffffffffffffffffff1682604051808373ffffffffffffffffffffffffffffffffffffffff1673ffffffffffffffffffffffffffffffffffffffff1681526020018273ffffffffffffffffffffffffffffffffffffffff1673ffffffffffffffffffffffffffffffffffffffff1681526020019250505060405180910390a180600160006101000a81548173ffffffffffffffffffffffffffffffffffffffff021916908373ffffffffffffffffffffffffffffffffffffffff1602179055505056fe56616c756520666f72207468652074696d657374616d70206265696e6720646973707574656420646f65736e2774206578697374a165627a7a72305820aaccaa4c5acc0e307ff545577d5e83e3be13ae7c5ed132e7cb8045fd59f0a4c10029",
  "source": "pragma solidity ^0.5.0;\n\nimport \"./UsingTellor.sol\";\nimport \"../TellorMaster.sol\";\nimport \"../Tellor.sol\";\n/**\n* @title UsingTellor\n* This contracts creates for easy integration to the Tellor Tellor System\n*/\ncontract Optimistic is UsingTellor {\n    //Can we rework soem of these mappings into a struct?\n    mapping(uint256 => bool) public isValue; //mapping for timestamp to bool where it's true if the value as been set\n    mapping(uint256 => uint256) valuesByTimestamp; //mapping of timestamp to value\n    mapping(uint256 => bool) public disputedValues; //maping of timestamp to bool where it's true if the value has been disputed\n    mapping(uint256 => uint256[]) public requestIdsIncluded; //mapping of timestamp to requestsId's to include\n\n    // struct infoForTimestamp {\n    // \tbool isValue;\n    // \tuint valuesByTimestamp;\n    // \tbool disputedValues;\n    // \tuint[] requestIdsIncluded;\n    // }\n    // mapping(uint => infoForTimestamp) public infoForTimestamps;//mapping timestampt to InfoForTimestamp struct\n\n    uint256[] timestamps; //timestamps with values\n    uint256[] requestIds;\n    uint256[] disputedValuesArray;\n    uint256 public granularity;\n    uint256 public disputeFee; //In Tributes\n    uint256 public disputePeriod;\n\n    event NewValueSet(uint256 indexed _timestamp, uint256 _value);\n    event ValueDisputed(address _disputer, uint256 _timestamp, uint256 _value);\n    event TellorValuePlaced(uint256 _timestamp, uint256 _value);\n\n    /*Constructor*/\n    /**\n    * @dev This constructor function is used to pass variables to the UserContract's constructor and set several variables\n    * the variables for the Optimistic.sol constructor come for the Reader.Constructor function.\n    * @param _userContract address for UserContract\n    * @param _disputeFeeRequired the fee to dispute the optimistic price(price sumbitted by known trusted party)\n    * @param _disputePeriod is the time frame a value can be disputed after being imputed\n    * @param _requestIds are the requests Id's on the Tellor System corresponding to the data types used on this contract.\n    * It is recommended to use several requestId's that pull from several API's. If requestsId's don't exist in the Tellor\n    * System be sure to create some.\n    * @param _granularity is the amount of decimals desired on the requested value\n    */\n    constructor(address _userContract, uint256 _disputeFeeRequired, uint256 _disputePeriod, uint256[] memory _requestIds, uint256 _granularity)\n        public\n        UsingTellor(_userContract)\n    {\n        disputeFee = _disputeFeeRequired;\n        disputePeriod = _disputePeriod;\n        granularity = _granularity;\n        requestIds = _requestIds;\n    }\n\n    /*Functions*/\n    /**\n    * @dev allows contract owner, a centralized party to enter value\n    * @param _timestamp is the timestamp for the value\n    * @param _value is the value for the timestamp specified\n    */\n    function setValue(uint256 _timestamp, uint256 _value) external {\n        //Only allows owner to set value\n        require(msg.sender == owner, \"Sender is not owner\");\n        //Checks that no value has already been set for the timestamp\n        require(getIsValue(_timestamp) == false, \"Timestamp is already set\");\n        //sets timestamp\n        valuesByTimestamp[_timestamp] = _value;\n        //sets isValue to true once value is set\n        isValue[_timestamp] = true;\n        //adds timestamp to the timestamps array\n        timestamps.push(_timestamp);\n        //lets the network know a new timestamp and value have been added\n        emit NewValueSet(_timestamp, _value);\n\n    }\n\n    /**\n    * @dev allows user to initiate dispute on the value of the specified timestamp\n    * @param _timestamp is the timestamp for the value to be disputed\n    */\n    function disputeOptimisticValue(uint256 _timestamp) external payable {\n        require(msg.value >= disputeFee, \"Value is below dispute fee\");\n        //require that isValue for the timestamp being disputed to exist/be true\n        require(isValue[_timestamp], \"Value for the timestamp being disputed doesn't exist\");\n        // assert disputePeriod is still open\n        require(now - (now % granularity) <= _timestamp + disputePeriod, \"Dispute period is closed\");\n        //set the disputValues for the disputed timestamp to true\n        disputedValues[_timestamp] = true;\n        //add the disputed timestamp to the diputedValues array\n        disputedValuesArray.push(_timestamp);\n        emit ValueDisputed(msg.sender, _timestamp, valuesByTimestamp[_timestamp]);\n    }\n\n    /**\n    * @dev This function gets the Tellor requestIds values for the disputed timestamp. It averages the values on the\n    * requestsIds and replaces the value set by the contract owner, centralized party.\n    * @param _timestamp to get Tellor data from\n    * @return uint of new value and true if it was able to get Tellor data\n    */\n    function getTellorValues(uint256 _timestamp) public returns (uint256 _value, bool _didGet) {\n        //We need to get the tellor value within the granularity.  If no Tellor value is available...what then?  Simply put no Value?\n        //No basically, the dispute period for anyValue is within the granularity\n        TellorMaster _tellor = TellorMaster(tellorUserContract.tellorStorageAddress());\n        Tellor _tellorCore = Tellor(tellorUserContract.tellorStorageAddress());\n        uint256 _retrievedTimestamp;\n        uint256 _initialBalance = _tellor.balanceOf(address(this)); //Checks the balance of Tellor Tributes on this contract\n        //Loops through all the Tellor requestsId's initially(in the constructor) associated with this contract data\n        for (uint256 i = 1; i <= requestIds.length; i++) {\n            //Get all values for that requestIds' timestamp\n            //Check if any is after your given timestamp\n            //If yes, return that value. If no, then request that Id\n            (_didGet, _value, _retrievedTimestamp) = getFirstVerifiedDataAfter(i, _timestamp);\n            if (_didGet) {\n                uint256 _newTime = _retrievedTimestamp - (_retrievedTimestamp % granularity); //why are we using the mod granularity???\n                //provides the average of the requests Ids' associated with this price feed\n                uint256 _newValue = (_value + valuesByTimestamp[_newTime] * requestIdsIncluded[_newTime].length) /\n                    (requestIdsIncluded[_newTime].length + 1);\n                //Add the new timestamp and value (we don't replace???)\n                valuesByTimestamp[_newTime] = _newValue;\n                emit TellorValuePlaced(_newTime, _newValue);\n                //records the requests Ids included on the price average where all prices came from Tellor requests Ids\n                requestIdsIncluded[_newTime].push(i); //how do we make sure it's not called twice?\n                //if the value for the newTime does not exist, then push the value, update the isValue to true\n                //otherwise if the newTime is under dsipute then update the dispute status to false\n                // ??? should the else be an \"and\"\n                if (isValue[_newTime] == false) {\n                    timestamps.push(_newTime);\n                    isValue[_newTime] = true;\n                    emit NewValueSet(_newTime, _value);\n                } else if (disputedValues[_newTime] == true) {\n                    disputedValues[_newTime] = false;\n                }\n                //otherwise request the ID and split the contracts initial tributes balance to equally tip all\n                //requests Ids associated with this price feed\n            } else if (_tellor.balanceOf(address(this)) > requestIds.length) {\n                //Request Id to be mined by adding to it's tip\n                _tellorCore.addTip(i, _initialBalance / requestIds.length);\n            }\n        }\n    }\n\n    /**\n    * @dev Allows the contract owner(Tellor) to withdraw ETH from this contract\n    */\n    function withdrawETH() external {\n        require(msg.sender == owner, \"Sender is not owner\");\n        address(owner).transfer(address(this).balance);\n    }\n\n    /**\n    * @dev Get the first undisputed value after the timestamp specified. This function is used within the getTellorValues\n    * but can be used on its own.\n    * @param _timestamp to search the first undisputed value there after\n    */\n    function getFirstUndisputedValueAfter(uint256 _timestamp) public view returns (bool, uint256, uint256 _timestampRetrieved) {\n        uint256 _count = timestamps.length;\n        if (_count > 0) {\n            for (uint256 i = _count; i > 0; i--) {\n                if (timestamps[i - 1] >= _timestamp && disputedValues[timestamps[i - 1]] == false) {\n                    _timestampRetrieved = timestamps[i - 1];\n                }\n            }\n            if (_timestampRetrieved > 0) {\n                return (true, getMyValuesByTimestamp(_timestampRetrieved), _timestampRetrieved);\n            }\n        }\n        return (false, 0, 0);\n    }\n\n    /*Getters*/\n    /**\n    * @dev Getter function for the value based on the timestamp specified\n    * @param _timestamp to retreive value from\n    */\n    function getMyValuesByTimestamp(uint256 _timestamp) public view returns (uint256 value) {\n        return valuesByTimestamp[_timestamp];\n    }\n\n    /**\n    * @dev Getter function for the number of RequestIds associated with a timestamp, based on the timestamp specified\n    * @param _timestamp to retreive number of requestIds\n    * @return uint count of number of values for the spedified timestamp\n    */\n    function getNumberOfValuesPerTimestamp(uint256 _timestamp) external view returns (uint256) {\n        return requestIdsIncluded[_timestamp].length;\n    }\n\n    /**\n    * @dev Checks to if a value exists for the specifived timestamp\n    * @param _timestamp to verify\n    * @return ture if it exists\n    */\n    function getIsValue(uint256 _timestamp) public view returns (bool) {\n        return isValue[_timestamp];\n    }\n\n    /**\n    * @dev Getter function for latest value available\n    * @return latest value available\n    */\n    function getCurrentValue() external view returns (uint256) {\n        require(timestamps.length > 0, \"Timestamps' length is 0\");\n        return getMyValuesByTimestamp(timestamps[timestamps.length - 1]);\n    }\n\n    /**\n    * @dev Getter function for the timestamps available\n    * @return uint array of timestamps available\n    */\n    function getTimestamps() external view returns (uint256[] memory) {\n        return timestamps;\n    }\n\n    /**\n    * @dev Getter function for the requests Ids' from Tellor associated with this price feed\n    * @return uint array of requests Ids'\n    */\n    function getRequestIds() external view returns (uint256[] memory) {\n        return requestIds;\n    }\n\n    /**\n    * @dev Getter function for the requests Ids' from Tellor associated with this price feed\n    * at the specified timestamp. This only gets populated after a dispute is initiated and the\n    * function getTellorValues is ran.\n    * @param _timestamp to retreive the requestIds\n    * @return uint array of requests Ids' included in the calcluation of the value\n    */\n    function getRequestIdsIncluded(uint256 _timestamp) external view returns (uint256[] memory) {\n        return requestIdsIncluded[_timestamp];\n    }\n\n    /**\n    * @dev Getter function for the number of disputed values\n    * @return uint count of number of values for the spedified timestamp\n    */\n    function getNumberOfDisputedValues() external view returns (uint256) {\n        return disputedValuesArray.length;\n    }\n\n    /**\n    * @dev Getter function for all disputed values\n    * @return the array with all values under dispute\n    */\n    function getDisputedValues() external view returns (uint256[] memory) {\n        return disputedValuesArray;\n    }\n\n    /**\n    * @dev This checks if the value for the specified timestamp is under dispute\n    * @param _timestamp to check if it is under dispute\n    * @return true if it is under dispute\n    */\n    function isDisputed(uint256 _timestamp) external view returns (bool) {\n        return disputedValues[_timestamp];\n    }\n\n    /**\n    * @dev Getter function for the dispute value by index\n    * @return the value\n    */\n    function getDisputedValueByIndex(uint256 _index) external view returns (uint256) {\n        return disputedValuesArray[_index];\n    }\n\n}\n",
  "sourcePath": "/Users/mdcoon/git/TellorCore/contracts/userFiles/Optimistic.sol",
  "compiler": {
    "name": "solc",
    "version": "0.5.8+commit.23d335f2.Emscripten.clang"
  },
  "schemaVersion": "3.0.11",
  "updatedAt": "2019-10-02T13:26:13.772Z",
  "devdoc": {
    "methods": {
      "addTip(uint256,uint256)": {
        "details": "Allows the user to tip miners for the specified request using Tributes",
        "params": {
          "_requestId": "to tip",
          "_tip": "amount"
        }
      },
      "addTipWithEther(uint256,uint256)": {
        "details": "Allows user to add tip with Ether by sending the ETH to the userContract and exchanging it for Tributes at the price specified by the userContract owner.",
        "params": {
          "_requestId": "to tip",
          "_tip": "amount"
        }
      },
      "constructor": {
        "details": "This constructor function is used to pass variables to the UserContract's constructor and set several variables the variables for the Optimistic.sol constructor come for the Reader.Constructor function.",
        "params": {
          "_disputeFeeRequired": "the fee to dispute the optimistic price(price sumbitted by known trusted party)",
          "_disputePeriod": "is the time frame a value can be disputed after being imputed",
          "_granularity": "is the amount of decimals desired on the requested value",
          "_requestIds": "are the requests Id's on the Tellor System corresponding to the data types used on this contract. It is recommended to use several requestId's that pull from several API's. If requestsId's don't exist in the Tellor System be sure to create some.",
          "_userContract": "address for UserContract"
        }
      },
      "disputeOptimisticValue(uint256)": {
        "details": "allows user to initiate dispute on the value of the specified timestamp",
        "params": {
          "_timestamp": "is the timestamp for the value to be disputed"
        }
      },
      "getAnyDataAfter(uint256,uint256)": {
        "details": "Allows the user to get the first value for the requestId after the specified timestamp",
        "params": {
          "_requestId": "is the requestId to look up the value for",
          "_timestamp": "after which to search for first verified value"
        },
        "return": "bool true if it is able to retreive a value, the value, and the value's timestamp"
      },
      "getCurrentValue()": {
        "details": "Getter function for latest value available",
        "return": "latest value available"
      },
      "getCurrentValue(uint256)": {
        "details": "Allows the user to get the latest value for the requestId specified",
        "params": {
          "_requestId": "is the requestId to look up the value for"
        },
        "return": "bool true if it is able to retreive a value, the value, and the value's timestamp"
      },
      "getDisputedValueByIndex(uint256)": {
        "details": "Getter function for the dispute value by index",
        "return": "the value"
      },
      "getDisputedValues()": {
        "details": "Getter function for all disputed values",
        "return": "the array with all values under dispute"
      },
      "getFirstUndisputedValueAfter(uint256)": {
        "details": "Get the first undisputed value after the timestamp specified. This function is used within the getTellorValues but can be used on its own.",
        "params": {
          "_timestamp": "to search the first undisputed value there after"
        }
      },
      "getFirstVerifiedDataAfter(uint256,uint256)": {
        "details": "Allows the user to get the first verified value for the requestId after the specified timestamp",
        "params": {
          "_requestId": "is the requestId to look up the value for",
          "_timestamp": "after which to search for first verified value"
        },
        "return": "bool true if it is able to retreive a value, the value, and the value's timestamp, the timestamp after which it searched for the first verified value"
      },
      "getIsValue(uint256)": {
        "details": "Checks to if a value exists for the specifived timestamp",
        "params": {
          "_timestamp": "to verify"
        },
        "return": "ture if it exists"
      },
      "getMyValuesByTimestamp(uint256)": {
        "details": "Getter function for the value based on the timestamp specified",
        "params": {
          "_timestamp": "to retreive value from"
        }
      },
      "getNumberOfDisputedValues()": {
        "details": "Getter function for the number of disputed values",
        "return": "uint count of number of values for the spedified timestamp"
      },
      "getNumberOfValuesPerTimestamp(uint256)": {
        "details": "Getter function for the number of RequestIds associated with a timestamp, based on the timestamp specified",
        "params": {
          "_timestamp": "to retreive number of requestIds"
        },
        "return": "uint count of number of values for the spedified timestamp"
      },
      "getRequestIds()": {
        "details": "Getter function for the requests Ids' from Tellor associated with this price feed",
        "return": "uint array of requests Ids'"
      },
      "getRequestIdsIncluded(uint256)": {
        "details": "Getter function for the requests Ids' from Tellor associated with this price feed at the specified timestamp. This only gets populated after a dispute is initiated and the function getTellorValues is ran.",
        "params": {
          "_timestamp": "to retreive the requestIds"
        },
        "return": "uint array of requests Ids' included in the calcluation of the value"
      },
      "getTellorValues(uint256)": {
        "details": "This function gets the Tellor requestIds values for the disputed timestamp. It averages the values on the requestsIds and replaces the value set by the contract owner, centralized party.",
        "params": {
          "_timestamp": "to get Tellor data from"
        },
        "return": "uint of new value and true if it was able to get Tellor data"
      },
      "getTimestamps()": {
        "details": "Getter function for the timestamps available",
        "return": "uint array of timestamps available"
      },
      "isDisputed(uint256)": {
        "details": "This checks if the value for the specified timestamp is under dispute",
        "params": {
          "_timestamp": "to check if it is under dispute"
        },
        "return": "true if it is under dispute"
      },
      "requestData(string,string,uint256,uint256)": {
        "details": "Allows the user to submit a request for data to the oracle using Tributes Allowing this prevents us from increasing spread too high (since if we set the price too hight users will just go to an exchange and get tokens from there)",
        "params": {
          "_granularity": "is the number of decimals miners should include on the submitted value",
          "_request": "string API being requested to be mined",
          "_symbol": "is the short string symbol for the api request",
          "_tip": "amount the requester is willing to pay to be get on queue. Miners mine the onDeckQueryHash, or the api with the highest payout pool"
        }
      },
      "requestDataWithEther(string,string,uint256,uint256)": {
        "details": "Allows the user to submit a request for data to the oracle using ETH",
        "params": {
          "_granularity": "is the number of decimals miners should include on the submitted value",
          "_request": "string API being requested to be mined",
          "_symbol": "is the short string symbol for the api request",
          "_tip": "amount the requester is willing to pay to be get on queue. Miners mine the onDeckQueryHash, or the api with the highest payout pool"
        }
      },
      "setUserContract(address)": {
        "details": "allows owner to set the user contract address",
        "params": {
          "_userContract": "address"
        }
      },
      "setValue(uint256,uint256)": {
        "details": "allows contract owner, a centralized party to enter value",
        "params": {
          "_timestamp": "is the timestamp for the value",
          "_value": "is the value for the timestamp specified"
        }
      },
      "transferOwnership(address)": {
        "details": "allows owner to transfer ownership",
        "params": {
          "_newOwner": "address"
        }
      },
      "withdrawETH()": {
        "details": "Allows the contract owner(Tellor) to withdraw ETH from this contract"
      }
    },
    "title": "UsingTellor This contracts creates for easy integration to the Tellor Tellor System"
  },
  "userdoc": {
    "methods": {}
  }
}