{
  "contractName": "TellorLibrary",
  "abi": [
    {
      "anonymous": false,
      "inputs": [
        {
          "indexed": true,
          "internalType": "bytes32",
          "name": "_currentChallenge",
          "type": "bytes32"
        },
        {
          "indexed": false,
          "internalType": "uint256[5]",
          "name": "_currentRequestId",
          "type": "uint256[5]"
        },
        {
          "indexed": false,
          "internalType": "uint256",
          "name": "_difficulty",
          "type": "uint256"
        },
        {
          "indexed": false,
          "internalType": "uint256",
          "name": "_totalTips",
          "type": "uint256"
        }
      ],
      "name": "NewChallenge",
      "type": "event"
    },
    {
      "anonymous": false,
      "inputs": [
        {
          "indexed": false,
          "internalType": "uint256[5]",
          "name": "_requestId",
          "type": "uint256[5]"
        },
        {
          "indexed": false,
          "internalType": "uint256",
          "name": "_time",
          "type": "uint256"
        },
        {
          "indexed": false,
          "internalType": "uint256[5]",
          "name": "_value",
          "type": "uint256[5]"
        },
        {
          "indexed": false,
          "internalType": "uint256",
          "name": "_totalTips",
          "type": "uint256"
        },
        {
          "indexed": true,
          "internalType": "bytes32",
          "name": "_currentChallenge",
          "type": "bytes32"
        }
      ],
      "name": "NewValue",
      "type": "event"
    },
    {
      "anonymous": false,
      "inputs": [
        {
          "indexed": true,
          "internalType": "address",
          "name": "_miner",
          "type": "address"
        },
        {
          "indexed": false,
          "internalType": "string",
          "name": "_nonce",
          "type": "string"
        },
        {
          "indexed": false,
          "internalType": "uint256[5]",
          "name": "_requestId",
          "type": "uint256[5]"
        },
        {
          "indexed": false,
          "internalType": "uint256[5]",
          "name": "_value",
          "type": "uint256[5]"
        },
        {
          "indexed": true,
          "internalType": "bytes32",
          "name": "_currentChallenge",
          "type": "bytes32"
        }
      ],
      "name": "NonceSubmitted",
      "type": "event"
    },
    {
      "anonymous": false,
      "inputs": [
        {
          "indexed": true,
          "internalType": "address",
          "name": "_previousOwner",
          "type": "address"
        },
        {
          "indexed": true,
          "internalType": "address",
          "name": "_newOwner",
          "type": "address"
        }
      ],
      "name": "OwnershipProposed",
      "type": "event"
    },
    {
      "anonymous": false,
      "inputs": [
        {
          "indexed": true,
          "internalType": "address",
          "name": "_previousOwner",
          "type": "address"
        },
        {
          "indexed": true,
          "internalType": "address",
          "name": "_newOwner",
          "type": "address"
        }
      ],
      "name": "OwnershipTransferred",
      "type": "event"
    },
    {
      "anonymous": false,
      "inputs": [
        {
          "indexed": true,
          "internalType": "address",
          "name": "_sender",
          "type": "address"
        },
        {
          "indexed": true,
          "internalType": "uint256",
          "name": "_requestId",
          "type": "uint256"
        },
        {
          "indexed": false,
          "internalType": "uint256",
          "name": "_tip",
          "type": "uint256"
        },
        {
          "indexed": false,
          "internalType": "uint256",
          "name": "_totalTips",
          "type": "uint256"
        }
      ],
      "name": "TipAdded",
      "type": "event"
    },
    {
      "constant": true,
      "inputs": [],
      "name": "_owner",
      "outputs": [
        {
          "internalType": "bytes32",
          "name": "",
          "type": "bytes32"
        }
      ],
      "payable": false,
      "stateMutability": "view",
      "type": "function"
    },
    {
      "constant": true,
      "inputs": [],
      "name": "_tBlock",
      "outputs": [
        {
          "internalType": "bytes32",
          "name": "",
          "type": "bytes32"
        }
      ],
      "payable": false,
      "stateMutability": "view",
      "type": "function"
    },
    {
      "constant": true,
      "inputs": [],
      "name": "currentRequestId",
      "outputs": [
        {
          "internalType": "bytes32",
          "name": "",
          "type": "bytes32"
        }
      ],
      "payable": false,
      "stateMutability": "view",
      "type": "function"
    },
    {
      "constant": true,
      "inputs": [],
      "name": "currentReward",
      "outputs": [
        {
          "internalType": "bytes32",
          "name": "",
          "type": "bytes32"
        }
      ],
      "payable": false,
      "stateMutability": "view",
      "type": "function"
    },
    {
      "constant": true,
      "inputs": [],
      "name": "currentTotalTips",
      "outputs": [
        {
          "internalType": "bytes32",
          "name": "",
          "type": "bytes32"
        }
      ],
      "payable": false,
      "stateMutability": "view",
      "type": "function"
    },
    {
      "constant": true,
      "inputs": [],
      "name": "devShare",
      "outputs": [
        {
          "internalType": "bytes32",
          "name": "",
          "type": "bytes32"
        }
      ],
      "payable": false,
      "stateMutability": "view",
      "type": "function"
    },
    {
      "constant": true,
      "inputs": [],
      "name": "difficulty",
      "outputs": [
        {
          "internalType": "bytes32",
          "name": "",
          "type": "bytes32"
        }
      ],
      "payable": false,
      "stateMutability": "view",
      "type": "function"
    },
    {
      "constant": true,
      "inputs": [],
      "name": "pending_owner",
      "outputs": [
        {
          "internalType": "bytes32",
          "name": "",
          "type": "bytes32"
        }
      ],
      "payable": false,
      "stateMutability": "view",
      "type": "function"
    },
    {
      "constant": true,
      "inputs": [],
      "name": "requestCount",
      "outputs": [
        {
          "internalType": "bytes32",
          "name": "",
          "type": "bytes32"
        }
      ],
      "payable": false,
      "stateMutability": "view",
      "type": "function"
    },
    {
      "constant": true,
      "inputs": [],
      "name": "requestQPosition",
      "outputs": [
        {
          "internalType": "bytes32",
          "name": "",
          "type": "bytes32"
        }
      ],
      "payable": false,
      "stateMutability": "view",
      "type": "function"
    },
    {
      "constant": true,
      "inputs": [],
      "name": "runningTips",
      "outputs": [
        {
          "internalType": "bytes32",
          "name": "",
          "type": "bytes32"
        }
      ],
      "payable": false,
      "stateMutability": "view",
      "type": "function"
    },
    {
      "constant": true,
      "inputs": [],
      "name": "slotProgress",
      "outputs": [
        {
          "internalType": "bytes32",
          "name": "",
          "type": "bytes32"
        }
      ],
      "payable": false,
      "stateMutability": "view",
      "type": "function"
    },
    {
      "constant": true,
      "inputs": [],
      "name": "timeOfLastNewValue",
      "outputs": [
        {
          "internalType": "bytes32",
          "name": "",
          "type": "bytes32"
        }
      ],
      "payable": false,
      "stateMutability": "view",
      "type": "function"
    },
    {
      "constant": true,
      "inputs": [],
      "name": "timeTarget",
      "outputs": [
        {
          "internalType": "bytes32",
          "name": "",
          "type": "bytes32"
        }
      ],
      "payable": false,
      "stateMutability": "view",
      "type": "function"
    },
    {
      "constant": true,
      "inputs": [],
      "name": "totalTip",
      "outputs": [
        {
          "internalType": "bytes32",
          "name": "",
          "type": "bytes32"
        }
      ],
      "payable": false,
      "stateMutability": "view",
      "type": "function"
    },
    {
      "constant": true,
      "inputs": [],
      "name": "total_supply",
      "outputs": [
        {
          "internalType": "bytes32",
          "name": "",
          "type": "bytes32"
        }
      ],
      "payable": false,
      "stateMutability": "view",
      "type": "function"
    }
  ],
  "bytecode": "0x613f56610026600b82828239805160001a60731461001957fe5b30600052607381538281f3fe73000000000000000000000000000000000000000030146080604052600436106101a25760003560e01c80636e3cf885116100ed578063a098b5b411610096578063b0dc7c2011610070578063b0dc7c20146105ad578063b2bdfa7b146105b5578063ef84b45f146105bd576101a2565b8063a098b5b41461045e578063a4bc40671461051d578063aed04fae146105a5576101a2565b806375ad1a2a116100c757806375ad1a2a1461039257806379d0b31b1461039a5780637f4ec4c314610456576101a2565b80636e3cf8851461037a5780636fc37811146103825780636fd4f2291461038a576101a2565b80632dbfd6041161014f578063561cb04a11610129578063561cb04a146103625780635ae2bfdb1461036a5780635badbe4c14610372576101a2565b80632dbfd6041461024a578063314691ff146103305780633940e9ee1461035a576101a2565b806319cae4621161018057806319cae46214610201578063291f8b73146102095780632bf07e9e14610242576101a2565b806302e8f21b146101a757806303b3160f146101df57806307621eca146101f9575b600080fd5b8180156101b357600080fd5b506101dd600480360360608110156101ca57600080fd5b50803590602081013590604001356105f3565b005b6101e7610880565b60408051918252519081900360200190f35b6101e76108a4565b6101e76108c8565b81801561021557600080fd5b506101dd6004803603604081101561022c57600080fd5b50803590602001356001600160a01b03166108ec565b6101e7610a41565b81801561025657600080fd5b506101dd600480360360e081101561026d57600080fd5b8135919081019060408101602082013564010000000081111561028f57600080fd5b8201836020820111156102a157600080fd5b803590602001918460018302840111640100000000831117156102c357600080fd5b91908080601f016020809104026020016040519081016040528093929190818152602001838380828437600092019190915250506040805160a08181019092529396959481810194935091506005908390839080828437600092019190915250919450610a659350505050565b81801561033c57600080fd5b506101dd6004803603602081101561035357600080fd5b5035611580565b6101e7611723565b6101e7611747565b6101e761176b565b6101e761178f565b6101e76117b3565b6101e76117d7565b6101e76117fb565b6101e761181f565b8180156103a657600080fd5b506101dd600480360360608110156103bd57600080fd5b813591908101906040810160208201356401000000008111156103df57600080fd5b8201836020820111156103f157600080fd5b8035906020019184600183028401116401000000008311171561041357600080fd5b91908080601f0160208091040260200160405190810160405280939291908181526020018383808284376000920191909152509295505091359250611843915050565b6101e7612460565b81801561046a57600080fd5b506101dd6004803603608081101561048157600080fd5b813591908101906040810160208201356401000000008111156104a357600080fd5b8201836020820111156104b557600080fd5b803590602001918460018302840111640100000000831117156104d757600080fd5b91908080601f0160208091040260200160405190810160405280939291908181526020018383808284376000920191909152509295505082359350505060200135612484565b81801561052957600080fd5b506101dd600480360361018081101561054157600080fd5b8135919081019060408101602082013564010000000081111561056357600080fd5b82018360208201111561057557600080fd5b8035906020019184600183028401116401000000008311171561059757600080fd5b919350915060a08101612a02565b6101e7613513565b6101e7613537565b6101e761355b565b8180156105c957600080fd5b506101dd600480360360608110156105e057600080fd5b508035906020810135906040013561357f565b81610645576040805162461bcd60e51b815260206004820152600e60248201527f5265717565737449642069732030000000000000000000000000000000000000604482015290519081900360640190fd5b80610697576040805162461bcd60e51b815260206004820152601c60248201527f5469702073686f756c642062652067726561746572207468616e203000000000604482015290519081900360640190fd5b7f05de9147d05477c0a5dc675aeea733157f5092f82add148cf39d579cafe3dc98600090815260408085016020529020546001018281141561070b577f05de9147d05477c0a5dc675aeea733157f5092f82add148cf39d579cafe3dc9860009081526040808601602052902081905561075f565b80831061075f576040805162461bcd60e51b815260206004820181905260248201527f526571756573744964206973206e6f74206c657373207468616e20636f756e74604482015290519081900360640190fd5b604080517fc7bb46ad0000000000000000000000000000000000000000000000000000000081526004810186905233602482015230604482015260648101849052905173__TellorTransfer________________________9163c7bb46ad916084808301926000929190829003018186803b1580156107dd57600080fd5b505af41580156107f1573d6000803e3d6000fd5b5050505061080084848461357f565b600083815260488501602090815260408083207f2a9e355a92978430eca9c1aa3a9ba590094bac282594bccf82de16b83046e2c38452600401825291829020548251858152918201528151859233927fd32134405b68f6f7220f9c38ae310df1b648d16188006768d45be2f7c24e8820929081900390910190a350505050565b7f6c505cb2db6644f57b42d87bd9407b0f66788b07d0617a2bc1356a0e69e66f9a81565b7f9b6853911475b07474368644a0d922ee13bc76a15cd3e97d3e334326424a47d481565b7fb12aff7664b16cb99339be399b863feecd64d14817be7e1f042f97e3f358e64e81565b7f9dbc393ddc18fd27b1d9b1b129059925688d2f2d5818a5ec3ebb750b7c286ea66000908152603f830160205260409020546001600160a01b0316331461097a576040805162461bcd60e51b815260206004820152601360248201527f53656e646572206973206e6f74206f776e657200000000000000000000000000604482015290519081900360640190fd5b7f9dbc393ddc18fd27b1d9b1b129059925688d2f2d5818a5ec3ebb750b7c286ea66000908152603f830160205260408082205490516001600160a01b03808516939216917fb51454ce8c7f26becd312a46c4815553887f2ec876a0b8dc813b87f62edf6f8091a37f44b2657a0f8a90ed8e62f4c4cceca06eacaa9b4b25751ae1ebca9280a70abd686000908152603f929092016020526040909120805473ffffffffffffffffffffffffffffffffffffffff19166001600160a01b03909216919091179055565b7f1e344bd070f05f1c5b3f0b1266f4f20d837a0a8190a3a2da8b0375eac2ba86ea81565b7f969ea04b74d02bb4d9e6e8e57236e1b9ca31627139ae9f0e465249932e8245026000908152604080850160208181528284205484526048870181528284207f97e6eb29f6a85471f7cc9b57f9e4c3deaf398cfc9798673160d7798baf0b13a4855291905290822054909190610ae0906104b0904203613836565b7fb12aff7664b16cb99339be399b863feecd64d14817be7e1f042f97e3f358e64e60009081526040878101602052808220547fad16221efc80aaf1b7e69bd3ecb61ba5ffa539adf129c3b4ffff769c9b5bbc338352912054610fa0929003810291909105915081610b5057600191505b610b5d828201600161384e565b7fb12aff7664b16cb99339be399b863feecd64d14817be7e1f042f97e3f358e64e600090815260408881016020528082209290925587547f97e6eb29f6a85471f7cc9b57f9e4c3deaf398cfc9798673160d7798baf0b13a48252919020603c42908106900390819055610bce613cc1565b60005b6005811015610f285760015b6005811015610d9c57600082815260098901602052604081208260058110610c0157fe5b0154600084815260088b0160205260408120919250908360058110610c2257fe5b01546001600160a01b03169050825b600081118015610c605750600085815260098c0160205260409020600019820160058110610c5b57fe5b015483105b15610d2057600085815260098c0160205260409020600019820160058110610c8457fe5b0154600086815260098d01602052604090208260058110610ca157fe5b0155600085815260088c0160205260409020600019820160058110610cc257fe5b0154600086815260088d01602052604090206001600160a01b03909116908260058110610ceb57fe5b01805473ffffffffffffffffffffffffffffffffffffffff19166001600160a01b039290921691909117905560001901610c31565b83811015610d9157600085815260098c016020526040902083908260058110610d4557fe5b0155600085815260088c016020526040902082908260058110610d6457fe5b01805473ffffffffffffffffffffffffffffffffffffffff19166001600160a01b03929092169190911790555b505050600101610bdd565b5060008a60480160008a8460058110610db157fe5b602002015181526020019081526020016000209050876009016000838152602001908152602001600020600580602002604051908101604052809291908260058015610e12576020028201915b815481526020019060010190808311610dfe575b5050505050925082600260058110610e2657fe5b6020908102919091015160008681526006840183526040808220929092558481526008808c01845282822088835290850190935220610e66916005613cdf565b5060008281526009808a0160209081526040808420888552928501909152909120610e92916005613d1a565b5060008281526008890160205260408120610eac91613d51565b60008281526009890160205260408120610ec591613d51565b600381018054600181810183556000928352602080842090920187905586835260058401825260408084204390557f2a9e355a92978430eca9c1aa3a9ba590094bac282594bccf82de16b83046e2c3845260049094019091529181205501610bd1565b50827fbeb3b9f46c8d7bb00c873fca10d307538df350866d25f891ffb395147ddbdc458884848d60400160007fdb21f0c4accc4f2f5f1045353763a9ffe7091ceaf0fcceb5831858d96cf8463160001b8152602001908152602001600020546040518085600560200280838360005b83811015610faf578181015183820152602001610f97565b5050505090500184815260200183600560200280838360005b83811015610fe0578181015183820152602001610fc8565b5050505090500182815260200194505050505060405180910390a28651600083815260428b01602090815260408083209390935560348c01805460018101825590835281832001949094557f9b6853911475b07474368644a0d922ee13bc76a15cd3e97d3e334326424a47d48152818b01909352909120549081670de0b6b3a76400008111156110c257670de0b6b3a7640000650debc7902de382020490036064603282027f8fe9ded8d7c08f720cf0340699024f83522ea66b2bbfb8f557851cb9ee63b54c60009081526040808e01602052902091900490559150816110ce565b670de0b6b3a764000092505b507f9b6853911475b07474368644a0d922ee13bc76a15cd3e97d3e334326424a47d4600090815260408a810160209081528183208590557f8fe9ded8d7c08f720cf0340699024f83522ea66b2bbfb8f557851cb9ee63b54c8352818320547fd26d9834adf5a73309c4974bf654850bb699df8505e70d4cfde365c417b19dfc8452828420547fb1557182e4359a1f0c6301278e8f5b35a776ab58d39892581e357578fb287836855283852080546005890284019290920390910190557f9dbc393ddc18fd27b1d9b1b129059925688d2f2d5818a5ec3ebb750b7c286ea68452603f8d019091528183205482517fc7bb46ad000000000000000000000000000000000000000000000000000000008152600481018e90523060248201526001600160a01b0390911660448201526064810182905291518593919273__TellorTransfer________________________9263c7bb46ad92608480840193829003018186803b15801561123d57600080fd5b505af4158015611251573d6000803e3d6000fd5b50507f969ea04b74d02bb4d9e6e8e57236e1b9ca31627139ae9f0e465249932e82450260009081526040808f01602052902080546001019055506112959050613cc1565b61129e8c61385d565b905060005b60058110156113ee578181600581106112b857fe5b60200201518d60350182600581106112cc57fe5b6002020155600060018e0160488f01828585600581106112e857fe5b6020020151815260200190815260200160002060040160007f1e344bd070f05f1c5b3f0b1266f4f20d837a0a8190a3a2da8b0375eac2ba86ea60001b8152602001908152602001600020546033811061133d57fe5b015560488d01600083836005811061135157fe5b6020020151815260200190815260200160002060040160007f2a9e355a92978430eca9c1aa3a9ba590094bac282594bccf82de16b83046e2c360001b8152602001908152602001600020548d60400160007fd26d9834adf5a73309c4974bf654850bb699df8505e70d4cfde365c417b19dfc60001b81526020019081526020016000206000828254019250508190555080806001019150506112a3565b508a8660014303406040516020018080602001848152602001838152602001828103825285818151815260200191508051906020019080838360005b8381101561144257818101518382015260200161142a565b50505050905090810190601f16801561146f5780820380516001836020036101000a031916815260200191505b50945050505050604051602081830303815290604052805190602001209550858c60000181905550857f1d85ce10456e29b67de37887496d3f1fcf1b64c79c4d07484038703a9f5c1408828e60400160007fb12aff7664b16cb99339be399b863feecd64d14817be7e1f042f97e3f358e64e60001b8152602001908152602001600020548f60400160007fd26d9834adf5a73309c4974bf654850bb699df8505e70d4cfde365c417b19dfc60001b8152602001908152602001600020546040518084600560200280838360005b8381101561155457818101518382015260200161153c565b5050505091909101938452505060208201526040805191829003019150a2505050505050505050505050565b7f44b2657a0f8a90ed8e62f4c4cceca06eacaa9b4b25751ae1ebca9280a70abd686000908152603f820160205260409020546001600160a01b0316331461160e576040805162461bcd60e51b815260206004820152601b60248201527f53656e646572206973206e6f742070656e64696e67206f776e65720000000000604482015290519081900360640190fd5b7f44b2657a0f8a90ed8e62f4c4cceca06eacaa9b4b25751ae1ebca9280a70abd686000908152603f82016020526040808220547f9dbc393ddc18fd27b1d9b1b129059925688d2f2d5818a5ec3ebb750b7c286ea683528183205491516001600160a01b039182169392909116917f8be0079c531659141344cd1fd0a4f28419497f9722a3daafe3b4186f6b6457e091a37f44b2657a0f8a90ed8e62f4c4cceca06eacaa9b4b25751ae1ebca9280a70abd686000908152603f9091016020526040808220547f9dbc393ddc18fd27b1d9b1b129059925688d2f2d5818a5ec3ebb750b7c286ea683529120805473ffffffffffffffffffffffffffffffffffffffff19166001600160a01b03909216919091179055565b7fb1557182e4359a1f0c6301278e8f5b35a776ab58d39892581e357578fb28783681565b7f2a9e355a92978430eca9c1aa3a9ba590094bac282594bccf82de16b83046e2c381565b7f7584d7d8701714da9c117f5bf30af73b0b88aca5338a84a21eb28de2fe0d93b881565b7f05de9147d05477c0a5dc675aeea733157f5092f82add148cf39d579cafe3dc9881565b7f969ea04b74d02bb4d9e6e8e57236e1b9ca31627139ae9f0e465249932e82450281565b7fad16221efc80aaf1b7e69bd3ecb61ba5ffa539adf129c3b4ffff769c9b5bbc3381565b7f97e6eb29f6a85471f7cc9b57f9e4c3deaf398cfc9798673160d7798baf0b13a481565b7fd26d9834adf5a73309c4974bf654850bb699df8505e70d4cfde365c417b19dfc81565b600081815260488401602090815260408083207f97e6eb29f6a85471f7cc9b57f9e4c3deaf398cfc9798673160d7798baf0b13a48452818701909252822054909190611894906104b0904203613836565b7fb12aff7664b16cb99339be399b863feecd64d14817be7e1f042f97e3f358e64e60009081526040878101602052808220547fad16221efc80aaf1b7e69bd3ecb61ba5ffa539adf129c3b4ffff769c9b5bbc338352912054610fa092900381029190910591508161190457600191505b611911828201600161384e565b7fb12aff7664b16cb99339be399b863feecd64d14817be7e1f042f97e3f358e64e60009081526040888101602052808220929092557f97e6eb29f6a85471f7cc9b57f9e4c3deaf398cfc9798673160d7798baf0b13a4815220603c4290810690039081905561197e613d74565b6040805160a081019091526035890160056000835b828210156119d45760408051808201909152600283028501805482526001908101546001600160a01b03166020808401919091529183529092019101611993565b509293506001925050505b6005811015611afe5760008282600581106119f657fe5b60200201515190506000838360058110611a0c57fe5b602002015160200151905060008390505b600081118015611a405750846001820360058110611a3757fe5b60200201515183105b15611ab257846001820360058110611a5457fe5b602002015151858260058110611a6657fe5b60200201515284600019820160058110611a7c57fe5b602002015160200151858260058110611a9157fe5b602090810291909101516001600160a01b0390921691015260001901611a1d565b83811015611af35782858260058110611ac757fe5b60200201515281858260058110611ada57fe5b602090810291909101516001600160a01b039092169101525b5050506001016119df565b7f9b6853911475b07474368644a0d922ee13bc76a15cd3e97d3e334326424a47d460009081526040808b01602052902054611b6f577f9b6853911475b07474368644a0d922ee13bc76a15cd3e97d3e334326424a47d460009081526040808b016020529020674563918244f4000090555b7f9b6853911475b07474368644a0d922ee13bc76a15cd3e97d3e334326424a47d460009081526040808b01602052902054670de0b6b3a76400001015611c32577f9b6853911475b07474368644a0d922ee13bc76a15cd3e97d3e334326424a47d4600090815260408a81016020528082208054670de0b6b3a7640000651bd78f205bc68202049003908190557f8fe9ded8d7c08f720cf0340699024f83522ea66b2bbfb8f557851cb9ee63b54c8352912060646032909202919091049055611c6e565b7f9b6853911475b07474368644a0d922ee13bc76a15cd3e97d3e334326424a47d460009081526040808b016020529020670de0b6b3a764000090555b5060005b6005811015611dba5773__TellorTransfer________________________63c7bb46ad8a30858560058110611ca357fe5b60200201516020015160058e60400160007fd26d9834adf5a73309c4974bf654850bb699df8505e70d4cfde365c417b19dfc60001b81526020019081526020016000205481611cee57fe5b048e60400160007f9b6853911475b07474368644a0d922ee13bc76a15cd3e97d3e334326424a47d460001b815260200190815260200160002054016040518563ffffffff1660e01b815260040180858152602001846001600160a01b03166001600160a01b03168152602001836001600160a01b03166001600160a01b0316815260200182815260200194505050505060006040518083038186803b158015611d9657600080fd5b505af4158015611daa573d6000803e3d6000fd5b505060019092019150611c729050565b7f9b6853911475b07474368644a0d922ee13bc76a15cd3e97d3e334326424a47d4600090815260408a81016020818152828420547f8fe9ded8d7c08f720cf0340699024f83522ea66b2bbfb8f557851cb9ee63b54c80865284862080547fb1557182e4359a1f0c6301278e8f5b35a776ab58d39892581e357578fb2878368852868820805460059095029091019093019092557f9dbc393ddc18fd27b1d9b1b129059925688d2f2d5818a5ec3ebb750b7c286ea68652603f8f01835284862054908652929091525482517fc7bb46ad000000000000000000000000000000000000000000000000000000008152600481018e90523060248201526001600160a01b0390921660448301526064820152905173__TellorTransfer________________________9263c7bb46ad9260848082019391829003018186803b158015611f0257600080fd5b505af4158015611f16573d6000803e3d6000fd5b5050505081600260058110611f2757fe5b6020908102919091015151600085815260068901835260408082209290925560038901805460018101825590825283822001869055815160a08101835285518401516001600160a01b03908116825286850151850151811682860152868401518501518116828501526060808801518601518216908301526080808801518601519091169082015286825260088a0190935220611fc5916005613da1565b506040805160a0810182528351518152602080850151518183015284830151518284015260608086015151908301526080808601515190830152600086815260098a019091529190912061201a916005613df6565b506000838152600587016020908152604080832043905560428c0182528083208a905560348c018054600181018255908452828420018690557f6c505cb2db6644f57b42d87bd9407b0f66788b07d0617a2bc1356a0e69e66f9a83528b81019091528082208290557fad16221efc80aaf1b7e69bd3ecb61ba5ffa539adf129c3b4ffff769c9b5bbc33825290205461025814156121ae577fad16221efc80aaf1b7e69bd3ecb61ba5ffa539adf129c3b4ffff769c9b5bbc33600090815260408a810160205280822061012c90557f9b6853911475b07474368644a0d922ee13bc76a15cd3e97d3e334326424a47d4825280822080546002900490557f969ea04b74d02bb4d9e6e8e57236e1b9ca31627139ae9f0e465249932e8245028252808220670de0b6b3a764000090557fb12aff7664b16cb99339be399b863feecd64d14817be7e1f042f97e3f358e64e825290205461217c906001906003900461394a565b7fb12aff7664b16cb99339be399b863feecd64d14817be7e1f042f97e3f358e64e60009081526040808c016020529020555b5060005b60058110156122a257806001018960350182600581106121ce57fe5b60020201556001818101600090815260488b01602090815260408083207f1e344bd070f05f1c5b3f0b1266f4f20d837a0a8190a3a2da8b0375eac2ba86ea845260040190915281205490918b01906033811061222657fe5b0155600101600081815260488a01602090815260408083207f2a9e355a92978430eca9c1aa3a9ba590094bac282594bccf82de16b83046e2c384526004018252808320547fd26d9834adf5a73309c4974bf654850bb699df8505e70d4cfde365c417b19dfc8452818d01909252909120805490910190556121b2565b87896000015460014303406040516020018080602001848152602001838152602001828103825285818151815260200191508051906020019080838360005b838110156122f95781810151838201526020016122e1565b50505050905090810190601f1680156123265780820380516001836020036101000a031916815260200191505b5094505050505060405160208183030381529060405280519060200120896000018190555088600001547f1d85ce10456e29b67de37887496d3f1fcf1b64c79c4d07484038703a9f5c14086040518060a001604052806001815260200160028152602001600381526020016004815260200160058152508b60400160007fb12aff7664b16cb99339be399b863feecd64d14817be7e1f042f97e3f358e64e60001b8152602001908152602001600020548c60400160007fd26d9834adf5a73309c4974bf654850bb699df8505e70d4cfde365c417b19dfc60001b8152602001908152602001600020546040518084600560200280838360005b8381101561243757818101518382015260200161241f565b5050505091909101938452505060208201526040805191829003019150a2505050505050505050565b7f44b2657a0f8a90ed8e62f4c4cceca06eacaa9b4b25751ae1ebca9280a70abd6881565b7fad16221efc80aaf1b7e69bd3ecb61ba5ffa539adf129c3b4ffff769c9b5bbc3360009081526040808601602052902054610258146124f45760405162461bcd60e51b8152600401808060200182810382526028815260200180613efa6028913960400191505060405180910390fd5b33600090815260478501602052604090205460011461255a576040805162461bcd60e51b815260206004820152601a60248201527f4d696e657220737461747573206973206e6f74207374616b6572000000000000604482015290519081900360640190fd5b7f7584d7d8701714da9c117f5bf30af73b0b88aca5338a84a21eb28de2fe0d93b86000908152604080860160205290205482146125de576040805162461bcd60e51b815260206004820152601260248201527f5265717565737449642069732077726f6e670000000000000000000000000000604482015290519081900360640190fd5b8360400160007fb12aff7664b16cb99339be399b863feecd64d14817be7e1f042f97e3f358e64e60001b815260200190815260200160002054600260038660000154338760405160200180848152602001836001600160a01b03166001600160a01b031660601b815260140182805190602001908083835b602083106126755780518252601f199092019160209182019101612656565b6001836020036101000a038019825116818451168082178552505050505050905001935050505060405160208183030381529060405280519060200120604051602001808281526020019150506040516020818303038152906040526040518082805190602001908083835b602083106127005780518252601f1990920191602091820191016126e1565b51815160209384036101000a60001901801990921691161790526040519190930194509192505080830381855afa15801561273f573d6000803e3d6000fd5b5050506040515160601b60405160200180826bffffffffffffffffffffffff19166bffffffffffffffffffffffff191681526014019150506040516020818303038152906040526040518082805190602001908083835b602083106127b55780518252601f199092019160209182019101612796565b51815160209384036101000a60001901801990921691161790526040519190930194509192505080830381855afa1580156127f4573d6000803e3d6000fd5b5050506040513d602081101561280957600080fd5b50518161281257fe5b061561284f5760405162461bcd60e51b8152600401808060200182810382526025815260200180613ed56025913960400191505060405180910390fd5b83546000908152604185016020908152604080832033845290915290205460ff16156128ac5760405162461bcd60e51b8152600401808060200182810382526021815260200180613eb46021913960400191505060405180910390fd5b7f6c505cb2db6644f57b42d87bd9407b0f66788b07d0617a2bc1356a0e69e66f9a6000908152604080860160205290205481906035860190600581106128ee57fe5b60020201557f6c505cb2db6644f57b42d87bd9407b0f66788b07d0617a2bc1356a0e69e66f9a60009081526040808601602052902054339060358601906005811061293557fe5b600202016001908101805473ffffffffffffffffffffffffffffffffffffffff19166001600160a01b0393909316929092179091557f6c505cb2db6644f57b42d87bd9407b0f66788b07d0617a2bc1356a0e69e66f9a6000818152604087810160208181528284208054870181558a54855260418b018252838520338652825292842080547fffffffffffffffffffffffffffffffffffffffffffffffffffffffffffffff001690961790955592909152915254600514156129fc576129fc848484611843565b50505050565b6040805133602080830182905283518084038201815292840184528251928101929092206000918252604789019092529190912054600114612a8b576040805162461bcd60e51b815260206004820152601a60248201527f4d696e657220737461747573206973206e6f74207374616b6572000000000000604482015290519081900360640190fd5b60008181526040808801602052902054610384429190910311612adf5760405162461bcd60e51b815260040180806020018281038252602a815260200180613e8a602a913960400191505060405180910390fd5b6035860154833514612b38576040805162461bcd60e51b815260206004820152601360248201527f526571756573742049442069732077726f6e6700000000000000000000000000604482015290519081900360640190fd5b6037860154602084013514612b94576040805162461bcd60e51b815260206004820152601360248201527f526571756573742049442069732077726f6e6700000000000000000000000000604482015290519081900360640190fd5b6039860154604084013514612bf0576040805162461bcd60e51b815260206004820152601360248201527f526571756573742049442069732077726f6e6700000000000000000000000000604482015290519081900360640190fd5b603b860154606084013514612c4c576040805162461bcd60e51b815260206004820152601360248201527f526571756573742049442069732077726f6e6700000000000000000000000000604482015290519081900360640190fd5b603d860154608084013514612ca8576040805162461bcd60e51b815260206004820152601360248201527f526571756573742049442069732077726f6e6700000000000000000000000000604482015290519081900360640190fd5b60008181526040808801602090815281832042905588547f6c505cb2db6644f57b42d87bd9407b0f66788b07d0617a2bc1356a0e69e66f9a8452828420547fb12aff7664b16cb99339be399b863feecd64d14817be7e1f042f97e3f358e64e85529383902054835192830182815233606081901b958501959095529194939092600292600392879290918d918d91906054018383808284378083019250505094505050505060405160208183030381529060405280519060200120604051602001808281526020019150506040516020818303038152906040526040518082805190602001908083835b60208310612db15780518252601f199092019160209182019101612d92565b51815160209384036101000a60001901801990921691161790526040519190930194509192505080830381855afa158015612df0573d6000803e3d6000fd5b5050506040515160601b60405160200180826bffffffffffffffffffffffff19166bffffffffffffffffffffffff191681526014019150506040516020818303038152906040526040518082805190602001908083835b60208310612e665780518252601f199092019160209182019101612e47565b51815160209384036101000a60001901801990921691161790526040519190930194509192505080830381855afa158015612ea5573d6000803e3d6000fd5b5050506040513d6020811015612eba57600080fd5b505181612ec357fe5b061580612f0a57507f97e6eb29f6a85471f7cc9b57f9e4c3deaf398cfc9798673160d7798baf0b13a460009081526040808a0160205290205461038490603c420642030310155b612f455760405162461bcd60e51b8152600401808060200182810382526025815260200180613ed56025913960400191505060405180910390fd5b6000828152604189016020908152604080832033845290915290205460ff1615612fa05760405162461bcd60e51b8152600401808060200182810382526021815260200180613eb46021913960400191505060405180910390fd5b600082815260418901602090815260408083203380855290835281842080547fffffffffffffffffffffffffffffffffffffffffffffffffffffffffffffff001660019081179091557f969ea04b74d02bb4d9e6e8e57236e1b9ca31627139ae9f0e465249932e8245028552828d01845282852054855260488d018452828520908552600881019093529220909190836005811061303a57fe5b01805473ffffffffffffffffffffffffffffffffffffffff19166001600160a01b039290921691909117905560008080526009820160205260409020853590836005811061308457fe5b0155600160009081526009820160209081526040909120908601359083600581106130ab57fe5b01556002600090815260098201602052604090819020908601359083600581106130d157fe5b015560036000908152600982016020526040902060608601359083600581106130f657fe5b0155600460009081526009820160205260409020608086013590836005811061311b57fe5b0155600080805260088201602090815260408083207f6c505cb2db6644f57b42d87bd9407b0f66788b07d0617a2bc1356a0e69e66f9a84528c8201909252909120543391906005811061316a57fe5b01805473ffffffffffffffffffffffffffffffffffffffff19166001600160a01b03929092169190911790556001600090815260088201602090815260408083207f6c505cb2db6644f57b42d87bd9407b0f66788b07d0617a2bc1356a0e69e66f9a84528c820190925290912054339190600581106131e557fe5b01805473ffffffffffffffffffffffffffffffffffffffff19166001600160a01b03929092169190911790556002600090815260088201602090815260408083207f6c505cb2db6644f57b42d87bd9407b0f66788b07d0617a2bc1356a0e69e66f9a84528c8201909252909120543391906005811061326057fe5b01805473ffffffffffffffffffffffffffffffffffffffff19166001600160a01b03929092169190911790556003600090815260088201602090815260408083207f6c505cb2db6644f57b42d87bd9407b0f66788b07d0617a2bc1356a0e69e66f9a84528c820190925290912054339190600581106132db57fe5b01805473ffffffffffffffffffffffffffffffffffffffff19166001600160a01b03929092169190911790556004600090815260088201602090815260408083207f6c505cb2db6644f57b42d87bd9407b0f66788b07d0617a2bc1356a0e69e66f9a84528c8201909252909120543391906005811061335657fe5b01805473ffffffffffffffffffffffffffffffffffffffff19166001600160a01b039290921691909117905561338c8983613959565b7f6c505cb2db6644f57b42d87bd9407b0f66788b07d0617a2bc1356a0e69e66f9a600090815260408a8101602052902080546001908101909155820160051415613467576134358989898080601f016020809104026020016040519081016040528093929190818152602001838380828437600092019190915250506040805160a081810190925292508b91506005908390839080828437600092019190915250610a65915050565b7f6c505cb2db6644f57b42d87bd9407b0f66788b07d0617a2bc1356a0e69e66f9a60009081526040808b016020528120555b82336001600160a01b03167f0e4e65dc389613b6884b7f8c615e54fd3b894fbbbc534c990037744eea9420008a8a8a8a604051808060200184600560200280828437600083820152601f01601f191690910190508360a080828437600083820152601f01601f191690910183810383528681526020019050868680828437600083820152604051601f909101601f191690920182900397509095505050505050a3505050505050505050565b7f8fe9ded8d7c08f720cf0340699024f83522ea66b2bbfb8f557851cb9ee63b54c81565b7fdb21f0c4accc4f2f5f1045353763a9ffe7091ceaf0fcceb5831858d96cf8463181565b7f9dbc393ddc18fd27b1d9b1b129059925688d2f2d5818a5ec3ebb750b7c286ea681565b600082815260488401602090815260408083207f2a9e355a92978430eca9c1aa3a9ba590094bac282594bccf82de16b83046e2c3845260048101909252909120546135d0908363ffffffff613b0f16565b7f2a9e355a92978430eca9c1aa3a9ba590094bac282594bccf82de16b83046e2c3600090815260048301602052604090205560358401548314806136175750603784015483145b806136255750603984015483145b806136335750603b84015483145b806136415750603d84015483145b15613681577fd26d9834adf5a73309c4974bf654850bb699df8505e70d4cfde365c417b19dfc6000908152604080860160205290208054830190556129fc565b7f1e344bd070f05f1c5b3f0b1266f4f20d837a0a8190a3a2da8b0375eac2ba86ea60009081526004820160205260409020546137e5576040805161066081019182905260009182916136f591600189019060339082845b8154815260200190600101908083116136d8575050505050613b1e565b7f2a9e355a92978430eca9c1aa3a9ba590094bac282594bccf82de16b83046e2c360009081526004860160205260409020549193509150821080613737575081155b156137de577f2a9e355a92978430eca9c1aa3a9ba590094bac282594bccf82de16b83046e2c3600090815260048401602052604090205460018701826033811061377d57fe5b0155600081815260438701602090815260408083208054845260488a0183528184207f1e344bd070f05f1c5b3f0b1266f4f20d837a0a8190a3a2da8b0375eac2ba86ea85526004908101845282852085905590899055860190915290208190555b50506129fc565b7f1e344bd070f05f1c5b3f0b1266f4f20d837a0a8190a3a2da8b0375eac2ba86ea6000908152600482016020526040902054829060018601906033811061382857fe5b018054909101905550505050565b60008183106138455781613847565b825b9392505050565b60008183136138455781613847565b613865613cc1565b61386d613cc1565b613875613cc1565b604080516106608101918290526138ae91600187019060339082845b815481526020019060010190808311613891575050505050613b6d565b909250905060005b6005811015613942578281600581106138cb57fe5b602002015115613911578460430160008383600581106138e757fe5b602002015181526020019081526020016000205484826005811061390757fe5b602002015261393a565b84603501816004036005811061392357fe5b600202015484826005811061393457fe5b60200201525b6001016138b6565b505050919050565b60008183116138455781613847565b7fdb21f0c4accc4f2f5f1045353763a9ffe7091ceaf0fcceb5831858d96cf8463160009081526040808401602052808220547fd26d9834adf5a73309c4974bf654850bb699df8505e70d4cfde365c417b19dfc8352912054826139ed577fdb21f0c4accc4f2f5f1045353763a9ffe7091ceaf0fcceb5831858d96cf846316000908152604080860160205290208190559050805b600083600503838303816139fd57fe5b7f9b6853911475b07474368644a0d922ee13bc76a15cd3e97d3e334326424a47d4600090815260408881016020528082205481517fc7bb46ad000000000000000000000000000000000000000000000000000000008152600481018b90523060248201523360448201529490930460056002890404909301830160648501525191935073__TellorTransfer________________________9263c7bb46ad9260848083019392829003018186803b158015613ab757600080fd5b505af4158015613acb573d6000803e3d6000fd5b50507fd26d9834adf5a73309c4974bf654850bb699df8505e70d4cfde365c417b19dfc60009081526040978801602052969096208054929092039091555050505050565b60008282018381101561384757fe5b610640810151603260315b8015613b675782848260338110613b3c57fe5b60200201511015613b5e57838160338110613b5357fe5b602002015192508091505b60001901613b29565b50915091565b613b75613cc1565b613b7d613cc1565b60208301516000805b6005811015613c0057858160010160338110613b9e57fe5b6020020151858260058110613baf57fe5b602002015260018101848260058110613bc457fe5b602002015282858260058110613bd657fe5b60200201511015613bf857848160058110613bed57fe5b602002015192508091505b600101613b86565b5060065b6033811015613cb95782868260338110613c1a57fe5b60200201511115613cb157858160338110613c3157fe5b6020020151858360058110613c4257fe5b602002015280848360058110613c5457fe5b6020020152858160338110613c6557fe5b6020020151925060005b6005811015613caf5783868260058110613c8557fe5b60200201511015613ca757858160058110613c9c57fe5b602002015193508092505b600101613c6f565b505b600101613c04565b505050915091565b6040518060a001604052806005906020820280388339509192915050565b8260058101928215613d0a579182015b82811115613d0a578254825591600101919060010190613cef565b50613d16929150613e24565b5090565b8260058101928215613d45579182015b82811115613d45578254825591600101919060010190613d2a565b50613d16929150613e58565b506000815560010160008155600101600081556001016000815560010160009055565b6040518060a001604052806005905b613d8b613e72565b815260200190600190039081613d835790505090565b8260058101928215613d0a579160200282015b82811115613d0a578251825473ffffffffffffffffffffffffffffffffffffffff19166001600160a01b03909116178255602090920191600190910190613db4565b8260058101928215613d45579160200282015b82811115613d45578251825591602001919060010190613e09565b613e5591905b80821115613d1657805473ffffffffffffffffffffffffffffffffffffffff19168155600101613e2a565b90565b613e5591905b80821115613d165760008155600101613e5e565b60408051808201909152600080825260208201529056fe4d696e65722063616e206f6e6c792077696e2072657761726473206f6e636520706572203135206d696e4d696e657220616c7265616479207375626d6974746564207468652076616c7565496e636f7272656374206e6f6e636520666f722063757272656e74206368616c6c656e6765436f6e7472616374206861732075706772616465642c2063616c6c206e65772066756e6374696f6ea265627a7a72315820031a6cceae0b1e7279d4a9bc2185cf5b4f812418f2ce817815af33adc9b72d2864736f6c63430005100032",
  "source": "pragma solidity ^0.5.16;\n\n\nimport \"./SafeMath.sol\";\nimport \"./Utilities.sol\";\nimport \"./TellorStorage.sol\";\nimport \"./TellorTransfer.sol\";\nimport \"./TellorDispute.sol\";\nimport \"./TellorStake.sol\";\nimport \"./TellorGettersLibrary.sol\";\n\n/**\n * @title Tellor Oracle System Library\n * @dev Contains the functions' logic for the Tellor contract where miners can submit the proof of work\n * along with the value and smart contracts can requestData and tip miners.\n */\nlibrary TellorLibrary {\n    using SafeMath for uint256;\n\n    bytes32 public constant requestCount = 0x05de9147d05477c0a5dc675aeea733157f5092f82add148cf39d579cafe3dc98; //keccak256(\"requestCount\")\n    bytes32 public constant totalTip = 0x2a9e355a92978430eca9c1aa3a9ba590094bac282594bccf82de16b83046e2c3; //keccak256(\"totalTip\")\n    bytes32 public constant _tBlock = 0x969ea04b74d02bb4d9e6e8e57236e1b9ca31627139ae9f0e465249932e824502; //keccak256(\"_tBlock\")\n    bytes32 public constant timeOfLastNewValue = 0x97e6eb29f6a85471f7cc9b57f9e4c3deaf398cfc9798673160d7798baf0b13a4; //keccak256(\"timeOfLastNewValue\")\n    bytes32 public constant difficulty = 0xb12aff7664b16cb99339be399b863feecd64d14817be7e1f042f97e3f358e64e; //keccak256(\"difficulty\")\n    bytes32 public constant timeTarget = 0xad16221efc80aaf1b7e69bd3ecb61ba5ffa539adf129c3b4ffff769c9b5bbc33; //keccak256(\"timeTarget\")\n    bytes32 public constant runningTips = 0xdb21f0c4accc4f2f5f1045353763a9ffe7091ceaf0fcceb5831858d96cf84631; //keccak256(\"runningTips\")\n    bytes32 public constant currentReward = 0x9b6853911475b07474368644a0d922ee13bc76a15cd3e97d3e334326424a47d4; //keccak256(\"currentReward\")\n    bytes32 public constant total_supply = 0xb1557182e4359a1f0c6301278e8f5b35a776ab58d39892581e357578fb287836; //keccak256(\"total_supply\")\n    bytes32 public constant devShare = 0x8fe9ded8d7c08f720cf0340699024f83522ea66b2bbfb8f557851cb9ee63b54c; //keccak256(\"devShare\")\n    bytes32 public constant _owner =  0x9dbc393ddc18fd27b1d9b1b129059925688d2f2d5818a5ec3ebb750b7c286ea6; //keccak256(\"_owner\")\n    bytes32 public constant requestQPosition = 0x1e344bd070f05f1c5b3f0b1266f4f20d837a0a8190a3a2da8b0375eac2ba86ea; //keccak256(\"requestQPosition\")\n    bytes32 public constant currentTotalTips = 0xd26d9834adf5a73309c4974bf654850bb699df8505e70d4cfde365c417b19dfc; //keccak256(\"currentTotalTips\")\n    bytes32 public constant slotProgress =0x6c505cb2db6644f57b42d87bd9407b0f66788b07d0617a2bc1356a0e69e66f9a; //keccak256(\"slotProgress\")\n    bytes32 public constant pending_owner = 0x44b2657a0f8a90ed8e62f4c4cceca06eacaa9b4b25751ae1ebca9280a70abd68; //keccak256(\"pending_owner\")\n    bytes32 public constant currentRequestId = 0x7584d7d8701714da9c117f5bf30af73b0b88aca5338a84a21eb28de2fe0d93b8; //keccak256(\"currentRequestId\")\n\n\n    event TipAdded(address indexed _sender, uint256 indexed _requestId, uint256 _tip, uint256 _totalTips);\n    //emits when a new challenge is created (either on mined block or when a new request is pushed forward on waiting system)\n    event NewChallenge(\n        bytes32 indexed _currentChallenge,\n        uint256[5] _currentRequestId,\n        uint256 _difficulty,\n        uint256 _totalTips\n    );\n    //Emits upon a successful Mine, indicates the blocktime at point of the mine and the value mined\n    event NewValue(uint256[5] _requestId, uint256 _time, uint256[5] _value, uint256 _totalTips, bytes32 indexed _currentChallenge);\n    //Emits upon each mine (5 total) and shows the miner, nonce, and value submitted\n    event NonceSubmitted(address indexed _miner, string _nonce, uint256[5] _requestId, uint256[5] _value, bytes32 indexed _currentChallenge);\n    event OwnershipTransferred(address indexed _previousOwner, address indexed _newOwner);\n    event OwnershipProposed(address indexed _previousOwner, address indexed _newOwner);\n\n    /*Functions*/\n    /**\n    * @dev Add tip to Request value from oracle\n    * @param _requestId being requested to be mined\n    * @param _tip amount the requester is willing to pay to be get on queue. Miners\n    * mine the onDeckQueryHash, or the api with the highest payout pool\n    */\n    function addTip(TellorStorage.TellorStorageStruct storage self, uint256 _requestId, uint256 _tip) public {\n        require(_requestId != 0, \"RequestId is 0\");\n        require(_tip != 0, \"Tip should be greater than 0\");\n        uint256 _count =self.uintVars[requestCount] + 1;\n        if(_requestId == _count){\n            self.uintVars[requestCount] = _count;\n        }\n        else{\n            require(_requestId < _count, \"RequestId is not less than count\");\n        }\n        TellorTransfer.doTransfer(self, msg.sender, address(this), _tip);\n        //Update the information for the request that should be mined next based on the tip submitted\n        updateOnDeck(self, _requestId, _tip);\n        emit TipAdded(msg.sender, _requestId, _tip, self.requestDetails[_requestId].apiUintVars[totalTip]);\n    }\n\n   /**\n    * @dev This function is called by submitMiningSolution and adjusts the difficulty, sorts and stores the first\n    * 5 values received, pays the miners, the dev share and assigns a new challenge\n    * @param _nonce or solution for the PoW  for the requestId\n    * @param _requestId for the current request being mined\n    */\n    function newBlock(TellorStorage.TellorStorageStruct storage self, string memory _nonce, uint256[5] memory _requestId) public {\n        TellorStorage.Request storage _tblock = self.requestDetails[self.uintVars[_tBlock]];\n        // If the difference between the timeTarget and how long it takes to solve the challenge this updates the challenge\n        //difficulty up or donw by the difference between the target time and how long it took to solve the previous challenge\n        //otherwise it sets it to 1\n        int256 _change = int256(SafeMath.min(1200, (now - self.uintVars[timeOfLastNewValue])));\n        int256 _diff = int256(self.uintVars[difficulty]);\n        _change = (_diff * (int256(self.uintVars[timeTarget]) - _change)) / 4000;\n        if (_change == 0) {\n                _change = 1;\n            }\n        self.uintVars[difficulty]  = uint256(SafeMath.max(_diff + _change,1));\n        //Sets time of value submission rounded to 1 minute\n        bytes32 _currChallenge = self.currentChallenge;\n        uint256 _timeOfLastNewValue = now - (now % 1 minutes);\n        self.uintVars[timeOfLastNewValue] = _timeOfLastNewValue;\n        uint[5] memory a; \n        for (uint k = 0; k < 5; k++) {\n            for (uint i = 1; i < 5; i++) {\n                uint256 temp = _tblock.valuesByTimestamp[k][i];\n                address temp2 = _tblock.minersByValue[k][i];\n                uint256 j = i;\n                while (j > 0 && temp < _tblock.valuesByTimestamp[k][j - 1]) {\n                    _tblock.valuesByTimestamp[k][j] = _tblock.valuesByTimestamp[k][j - 1];\n                    _tblock.minersByValue[k][j] = _tblock.minersByValue[k][j - 1];\n                    j--;\n                }\n                if (j < i) {\n                    _tblock.valuesByTimestamp[k][j] = temp;\n                    _tblock.minersByValue[k][j] = temp2;\n                }\n            }\n            TellorStorage.Request storage _request = self.requestDetails[_requestId[k]];\n            //Save the official(finalValue), timestamp of it, 5 miners and their submitted values for it, and its block number\n            a = _tblock.valuesByTimestamp[k];\n            _request.finalValues[_timeOfLastNewValue] = a[2];\n            _request.minersByValue[_timeOfLastNewValue] = _tblock.minersByValue[k];\n            _request.valuesByTimestamp[_timeOfLastNewValue] = _tblock.valuesByTimestamp[k];\n            delete _tblock.minersByValue[k];\n            delete _tblock.valuesByTimestamp[k];\n            _request.requestTimestamps.push(_timeOfLastNewValue);\n            _request.minedBlockNum[_timeOfLastNewValue] = block.number;\n            _request.apiUintVars[totalTip] = 0;\n        }\n            emit NewValue(\n                _requestId,\n                _timeOfLastNewValue,\n                a,\n                self.uintVars[runningTips],\n                _currChallenge\n            );\n        //map the timeOfLastValue to the requestId that was just mined\n        self.requestIdByTimestamp[_timeOfLastNewValue] = _requestId[0];\n        //add timeOfLastValue to the newValueTimestamps array\n        self.newValueTimestamps.push(_timeOfLastNewValue);\n\n        uint _currReward = self.uintVars[currentReward];\n        //WARNING Reusing _timeOfLastNewValue to avoid stack too deep\n        _timeOfLastNewValue = _currReward; \n        if (_currReward > 1e18) {\n            //These number represent the inflation adjustement that started in 03/2019\n            _currReward = _currReward - _currReward *  15306316590563/1e18; \n            self.uintVars[devShare] = _currReward * 50/100;\n            _timeOfLastNewValue = _currReward;\n        } else {\n            _timeOfLastNewValue = 1e18;\n        }\n        self.uintVars[currentReward] = _timeOfLastNewValue;\n        _currReward = _timeOfLastNewValue;\n        uint _devShare = self.uintVars[devShare]; \n        //update the total supply\n        self.uintVars[total_supply] +=  _devShare + _currReward*5 - (self.uintVars[currentTotalTips]);\n        TellorTransfer.doTransfer(self, address(this), self.addressVars[_owner],  _devShare);\n        self.uintVars[_tBlock] ++;\n\n        uint256[5] memory _topId = TellorStake.getTopRequestIDs(self);\n        for(uint i = 0; i< 5;i++){\n            self.currentMiners[i].value = _topId[i];\n            self.requestQ[self.requestDetails[_topId[i]].apiUintVars[requestQPosition]] = 0;\n            self.uintVars[currentTotalTips] += self.requestDetails[_topId[i]].apiUintVars[totalTip];\n        }\n        //Issue the the next challenge\n       \n        _currChallenge = keccak256(abi.encode(_nonce, _currChallenge, blockhash(block.number - 1)));\n        self.currentChallenge = _currChallenge; // Save hash for next proof\n        emit NewChallenge(\n            _currChallenge,\n            _topId,\n            self.uintVars[difficulty],\n            self.uintVars[currentTotalTips]\n        );\n    }\n\n/**\n    * @dev This function is called by submitMiningSolution and adjusts the difficulty, sorts and stores the first\n    * 5 values received, pays the miners, the dev share and assigns a new challenge\n    * @param _nonce or solution for the PoW  for the requestId\n    * @param _requestId for the current request being mined\n    */\n    function newBlock(TellorStorage.TellorStorageStruct storage self, string memory _nonce, uint256 _requestId) public {\n        TellorStorage.Request storage _request = self.requestDetails[_requestId];\n\n        // If the difference between the timeTarget and how long it takes to solve the challenge this updates the challenge\n        //difficulty up or donw by the difference between the target time and how long it took to solve the prevous challenge\n        //otherwise it sets it to 1\n        int256 _change = int256(SafeMath.min(1200, (now - self.uintVars[timeOfLastNewValue])));\n       int256 _diff = int256(self.uintVars[difficulty]);\n        _change = (_diff * (int256(self.uintVars[timeTarget]) - _change)) / 4000;\n        \n        if (_change == 0) {\n                _change = 1;\n            }\n        self.uintVars[difficulty]  = uint256(SafeMath.max(_diff+ _change,1));\n        //Sets time of value submission rounded to 1 minute\n        uint256 _timeOfLastNewValue = now - (now % 1 minutes);\n        self.uintVars[timeOfLastNewValue] = _timeOfLastNewValue;\n\n        //The sorting algorithm that sorts the values of the first five values that come in\n        TellorStorage.Details[5] memory a = self.currentMiners;\n        uint256 i;\n        for (i = 1; i < 5; i++) {\n            uint256 temp = a[i].value;\n            address temp2 = a[i].miner;\n            uint256 j = i;\n            while (j > 0 && temp < a[j - 1].value) {\n                a[j].value = a[j - 1].value;\n                a[j].miner = a[j - 1].miner;\n                j--;\n            }\n            if (j < i) {\n                a[j].value = temp;\n                a[j].miner = temp2;\n            }\n        }\n\n        //Pay the miners \n        //adjust by payout = payout * ratio 0.000030612633181126/1e18  \n        if(self.uintVars[currentReward] == 0){\n            self.uintVars[currentReward] = 5e18;\n        }\n        if (self.uintVars[currentReward] > 1e18) {\n        self.uintVars[currentReward] = self.uintVars[currentReward] - self.uintVars[currentReward] * 30612633181126/1e18; \n        self.uintVars[devShare] = self.uintVars[currentReward] * 50/100;\n        } else {\n            self.uintVars[currentReward] = 1e18;\n        }\n        for (i = 0; i < 5; i++) {\n            TellorTransfer.doTransfer(self, address(this), a[i].miner, self.uintVars[currentReward]  + self.uintVars[currentTotalTips] / 5);\n        }\n        //update the total supply\n        self.uintVars[total_supply] +=  self.uintVars[devShare] + self.uintVars[currentReward]*5 ;\n        //pay the dev-share\n        TellorTransfer.doTransfer(self, address(this), self.addressVars[_owner],  self.uintVars[devShare]);\n        //Save the official(finalValue), timestamp of it, 5 miners and their submitted values for it, and its block number\n        _request.finalValues[_timeOfLastNewValue] = a[2].value;\n        _request.requestTimestamps.push(_timeOfLastNewValue);\n        //these are miners by timestamp\n        _request.minersByValue[_timeOfLastNewValue] = [a[0].miner, a[1].miner, a[2].miner, a[3].miner, a[4].miner];\n        _request.valuesByTimestamp[_timeOfLastNewValue] = [a[0].value, a[1].value, a[2].value, a[3].value, a[4].value];\n        _request.minedBlockNum[_timeOfLastNewValue] = block.number;\n        //map the timeOfLastValue to the requestId that was just mined\n        self.requestIdByTimestamp[_timeOfLastNewValue] = _requestId;\n        //add timeOfLastValue to the newValueTimestamps array\n        self.newValueTimestamps.push(_timeOfLastNewValue);\n        //re-start the count for the slot progress to zero before the new request mining starts\n        self.uintVars[slotProgress] = 0;\n\n\n        \n        if(self.uintVars[timeTarget] == 600){\n            self.uintVars[timeTarget] = 300;\n            self.uintVars[currentReward] = self.uintVars[currentReward]/2;\n            self.uintVars[_tBlock] = 1e18;\n            self.uintVars[difficulty] = SafeMath.max(1,self.uintVars[difficulty]/3);\n        }\n        for(i = 0; i< 5;i++){\n            self.currentMiners[i].value = i+1;\n            self.requestQ[self.requestDetails[i+1].apiUintVars[requestQPosition]] = 0;\n            self.uintVars[currentTotalTips] += self.requestDetails[i+1].apiUintVars[totalTip];\n        }\n        self.currentChallenge = keccak256(abi.encode(_nonce, self.currentChallenge, blockhash(block.number - 1))); // Save hash for next proof\n        emit NewChallenge(\n            self.currentChallenge,\n            [uint256(1),uint256(2),uint256(3),uint256(4),uint256(5)],\n            self.uintVars[difficulty],\n            self.uintVars[currentTotalTips]\n        );\n    }\n\n    /**\n    * @dev Proof of work is called by the miner when they submit the solution (proof of work and value)\n    * @param _nonce uint submitted by miner\n    * @param _requestId the apiId being mined\n    * @param _value of api query\n    */\n    function submitMiningSolution(TellorStorage.TellorStorageStruct storage self, string memory _nonce, uint256 _requestId, uint256 _value)\n        public\n    {\n\n        require (self.uintVars[timeTarget] == 600, \"Contract has upgraded, call new function\");\n        //require miner is staked\n        require(self.stakerDetails[msg.sender].currentStatus == 1, \"Miner status is not staker\");\n\n        //Check the miner is submitting the pow for the current request Id\n        require(_requestId == self.uintVars[currentRequestId], \"RequestId is wrong\");\n\n        //Saving the challenge information as unique by using the msg.sender\n        require(\n            uint256(\n                sha256(abi.encodePacked(ripemd160(abi.encodePacked(keccak256(abi.encodePacked(self.currentChallenge, msg.sender, _nonce))))))\n            ) %\n                self.uintVars[difficulty] ==\n                0,\n            \"Incorrect nonce for current challenge\"\n        );\n\n        //Make sure the miner does not submit a value more than once\n        require(self.minersByChallenge[self.currentChallenge][msg.sender] == false, \"Miner already submitted the value\");\n\n        //Save the miner and value received\n        self.currentMiners[self.uintVars[slotProgress]].value = _value;\n        self.currentMiners[self.uintVars[slotProgress]].miner = msg.sender;\n\n        //Add to the count how many values have been submitted, since only 5 are taken per request\n        self.uintVars[slotProgress]++;\n\n        //Update the miner status to true once they submit a value so they don't submit more than once\n        self.minersByChallenge[self.currentChallenge][msg.sender] = true;\n        if (self.uintVars[slotProgress] == 5) {\n            newBlock(self, _nonce, _requestId);\n        }\n    }\n\n\n\n\n    /**\n    * @dev Proof of work is called by the miner when they submit the solution (proof of work and value)\n    * @param _nonce uint submitted by miner\n    * @param _requestId is the array of the 5 PSR's being mined\n    * @param _value is an array of 5 values\n    */\n    function submitMiningSolution(TellorStorage.TellorStorageStruct storage self, string calldata _nonce,uint256[5] calldata _requestId, uint256[5] calldata _value)\n        external\n    {\n        //Verifying Miner Eligibility\n        bytes32 _hashMsgSender = keccak256(abi.encode(msg.sender));\n        require(self.stakerDetails[msg.sender].currentStatus == 1, \"Miner status is not staker\");\n        require(now - self.uintVars[_hashMsgSender] > 15 minutes, \"Miner can only win rewards once per 15 min\");\n        require(_requestId[0] ==  self.currentMiners[0].value,\"Request ID is wrong\");\n        require(_requestId[1] ==  self.currentMiners[1].value,\"Request ID is wrong\");\n        require(_requestId[2] ==  self.currentMiners[2].value,\"Request ID is wrong\");\n        require(_requestId[3] ==  self.currentMiners[3].value,\"Request ID is wrong\");\n        require(_requestId[4] ==  self.currentMiners[4].value,\"Request ID is wrong\");\n        self.uintVars[_hashMsgSender] = now;\n\n        \n        bytes32 _currChallenge = self.currentChallenge;\n        uint256 _slotProgress = self.uintVars[slotProgress]; \n        //Saving the challenge information as unique by using the msg.sender\n        require(uint256(\n                sha256(abi.encodePacked(ripemd160(abi.encodePacked(keccak256(abi.encodePacked(_currChallenge, msg.sender, _nonce))))))\n            ) %\n                self.uintVars[difficulty] == 0\n                || (now - (now % 1 minutes)) - self.uintVars[timeOfLastNewValue] >= 15 minutes,\n            \"Incorrect nonce for current challenge\"\n        );\n\n        //Checking and updating Miner Status\n        require(self.minersByChallenge[_currChallenge][msg.sender] == false, \"Miner already submitted the value\");\n        //Update the miner status to true once they submit a value so they don't submit more than once\n        self.minersByChallenge[_currChallenge][msg.sender] = true;\n\n        //Updating Request\n        TellorStorage.Request storage _tblock = self.requestDetails[self.uintVars[_tBlock]];\n        _tblock.minersByValue[1][_slotProgress]= msg.sender; \n        //Assigng directly is cheaper than using a for loop\n        _tblock.valuesByTimestamp[0][_slotProgress] = _value[0];\n        _tblock.valuesByTimestamp[1][_slotProgress] = _value[1];\n        _tblock.valuesByTimestamp[2][_slotProgress] = _value[2];\n        _tblock.valuesByTimestamp[3][_slotProgress] = _value[3];\n        _tblock.valuesByTimestamp[4][_slotProgress] = _value[4];\n        _tblock.minersByValue[0][self.uintVars[slotProgress]]= msg.sender;\n        _tblock.minersByValue[1][self.uintVars[slotProgress]]= msg.sender;\n        _tblock.minersByValue[2][self.uintVars[slotProgress]]= msg.sender;\n        _tblock.minersByValue[3][self.uintVars[slotProgress]]= msg.sender;\n        _tblock.minersByValue[4][self.uintVars[slotProgress]]= msg.sender;\n\n        //Internal Function Added to allow for more stack variables\n        _payReward(self, _slotProgress);\n        self.uintVars[slotProgress]++;\n\n        //If 5 values have been received, adjust the difficulty otherwise sort the values until 5 are received         \n        if (_slotProgress + 1 == 5) { //slotProgress has been incremented, but we're using the variable on stack to save gas\n            newBlock(self, _nonce, _requestId);\n            self.uintVars[slotProgress] = 0;\n        }\n        emit NonceSubmitted(msg.sender, _nonce, _requestId, _value, _currChallenge);\n    }\n     /**\n    * @dev Internal function to calculate and pay rewards to miners\n    * @param _slotProgress A value indicating which position is this miner is withing the first 5.\n    */\n    function _payReward(TellorStorage.TellorStorageStruct storage self, uint _slotProgress) internal {\n        uint _runningTips = self.uintVars[runningTips]; \n        uint _currentTotalTips = self.uintVars[currentTotalTips];\n        if(_slotProgress == 0){\n            _runningTips = _currentTotalTips;\n            self.uintVars[runningTips] = _currentTotalTips;\n        }\n        uint _extraTip = (_currentTotalTips-_runningTips)/(5-_slotProgress);\n        TellorTransfer.doTransfer(self, address(this), msg.sender, self.uintVars[currentReward]  + _runningTips / 2 / 5 + _extraTip);\n        self.uintVars[currentTotalTips] -= _extraTip;\n    }\n\n\n    /**\n    * @dev Allows the current owner to propose transfer control of the contract to a\n    * newOwner and the ownership is pending until the new owner calls the claimOwnership\n    * function\n    * @param _pendingOwner The address to transfer ownership to.\n    */\n    function proposeOwnership(TellorStorage.TellorStorageStruct storage self, address payable _pendingOwner) public {\n        require(msg.sender == self.addressVars[_owner], \"Sender is not owner\");\n        emit OwnershipProposed(self.addressVars[_owner], _pendingOwner);\n        self.addressVars[pending_owner] = _pendingOwner;\n    }\n\n    /**\n    * @dev Allows the new owner to claim control of the contract\n    */\n    function claimOwnership(TellorStorage.TellorStorageStruct storage self) public {\n        require(msg.sender == self.addressVars[pending_owner], \"Sender is not pending owner\");\n        emit OwnershipTransferred(self.addressVars[_owner], self.addressVars[pending_owner]);\n        self.addressVars[_owner] = self.addressVars[pending_owner];\n    }\n\n    /**\n    * @dev This function updates APIonQ and the requestQ when requestData or addTip are ran\n    * @param _requestId being requested\n    * @param _tip is the tip to add\n    */\n    function updateOnDeck(TellorStorage.TellorStorageStruct storage self, uint256 _requestId, uint256 _tip) public {\n        TellorStorage.Request storage _request = self.requestDetails[_requestId];\n        _request.apiUintVars[totalTip] = _request.apiUintVars[totalTip].add(_tip);\n        if(self.currentMiners[0].value == _requestId || self.currentMiners[1].value== _requestId ||self.currentMiners[2].value == _requestId||self.currentMiners[3].value== _requestId || self.currentMiners[4].value== _requestId ){\n            self.uintVars[currentTotalTips] += _tip;\n        }\n        else {\n            //if the request is not part of the requestQ[51] array\n            //then add to the requestQ[51] only if the _payout/tip is greater than the minimum(tip) in the requestQ[51] array\n            if (_request.apiUintVars[requestQPosition] == 0) {\n                uint256 _min;\n                uint256 _index;\n                (_min, _index) = Utilities.getMin(self.requestQ);\n                //we have to zero out the oldOne\n                //if the _payout is greater than the current minimum payout in the requestQ[51] or if the minimum is zero\n                //then add it to the requestQ array aand map its index information to the requestId and the apiUintvars\n                if (_request.apiUintVars[totalTip] > _min || _min == 0) {\n                    self.requestQ[_index] = _request.apiUintVars[totalTip];\n                    self.requestDetails[self.requestIdByRequestQIndex[_index]].apiUintVars[requestQPosition] = 0;\n                    self.requestIdByRequestQIndex[_index] = _requestId;\n                    _request.apiUintVars[requestQPosition] = _index;\n                }\n                // else if the requestid is part of the requestQ[51] then update the tip for it\n            } else{\n                self.requestQ[_request.apiUintVars[requestQPosition]] += _tip;\n            }\n        }\n    }\n\n\n/**********************CHEAT Functions for Testing******************************/\n/**********************CHEAT Functions for Testing******************************/\n/**********************CHEAT Functions for Testing--No Nonce******************************/\n\n\n    // /*This is a cheat for demo purposes, will delete upon actual launch*/\n    // function theLazyCoon(TellorStorage.TellorStorageStruct storage self,address _address, uint _amount) public {\n    //     self.uintVars[total_supply] += _amount;\n    //     TellorTransfer.updateBalanceAtNow(self.balances[_address],_amount);\n    // } \n\n    // /**\n    // * @dev Proof of work is called by the miner when they submit the solution (proof of work and value)\n    // * @param _nonce uint submitted by miner\n    // * @param _requestId the apiId being mined\n    // * @param _value of api query\n    // ** OLD!!!!!!!!\n    // */\n    // function testSubmitMiningSolution(TellorStorage.TellorStorageStruct storage self, string memory _nonce, uint256 _requestId, uint256 _value)\n    //     public\n    // {\n    //     require (self.uintVars[timeTarget] == 600, \"Contract has upgraded, call new function\");\n    //     //require miner is staked\n    //     require(self.stakerDetails[msg.sender].currentStatus == 1, \"Miner status is not staker\");\n    //     //Check the miner is submitting the pow for the current request Id\n    //     require(_requestId == self.uintVars[currentRequestId], \"RequestId is wrong\");\n    //     //Saving the challenge information as unique by using the msg.sender\n    //     // require(\n    //     //     uint256(\n    //     //         sha256(abi.encodePacked(ripemd160(abi.encodePacked(keccak256(abi.encodePacked(self.currentChallenge, msg.sender, _nonce))))))\n    //     //     ) %\n    //     //         self.uintVars[difficulty] ==\n    //     //         0,\n    //     //     \"Incorrect nonce for current challenge\"\n    //     // );\n    //     //Make sure the miner does not submit a value more than once\n    //     require(self.minersByChallenge[self.currentChallenge][msg.sender] == false, \"Miner already submitted the value\");\n    //     //Save the miner and value received\n    //     uint256 _slotProgress = self.uintVars[slotProgress]; \n    //     self.currentMiners[_slotProgress].value = _value;\n    //     self.currentMiners[_slotProgress].miner = msg.sender;\n    //     //Add to the count how many values have been submitted, since only 5 are taken per request\n    //     self.uintVars[slotProgress]++;\n    //     //Update the miner status to true once they submit a value so they don't submit more than once\n    //     self.minersByChallenge[self.currentChallenge][msg.sender] = true;\n    //     //If 5 values have been received, adjust the difficulty otherwise sort the values until 5 are received\n    //     if (_slotProgress + 1 == 5) {\n    //         newBlock(self, _nonce, _requestId);\n    //     }\n    // }\n\n    // /**\n    // * @dev Proof of work is called by the miner when they submit the solution (proof of work and value)\n    // * @param _nonce uint submitted by miner\n    // * @param _requestId is the array of the 5 PSR's being mined\n    // * @param _value is an array of 5 values\n    // */\n    // function testSubmitMiningSolution(TellorStorage.TellorStorageStruct storage self, string memory _nonce,uint256[5] memory _requestId, uint256[5] memory _value)\n    //     public\n    // {\n    //     bytes32 _hashMsgSender = keccak256(abi.encode(msg.sender));\n    //     require(self.stakerDetails[msg.sender].currentStatus == 1, \"Miner status is not staker\");\n    //     //require(now - self.uintVars[_hashMsgSender] > 15 minutes, \"Miner can only win rewards once per 15 min\");\n    //     require(_requestId[0] ==  self.currentMiners[0].value,\"Request ID is wrong\");\n    //     require(_requestId[1] ==  self.currentMiners[1].value,\"Request ID is wrong\");\n    //     require(_requestId[2] ==  self.currentMiners[2].value,\"Request ID is wrong\");\n    //     require(_requestId[3] ==  self.currentMiners[3].value,\"Request ID is wrong\");\n    //     require(_requestId[4] ==  self.currentMiners[4].value,\"Request ID is wrong\");\n    //     self.uintVars[_hashMsgSender] = now;\n\n    //     bytes32 _currChallenge = self.currentChallenge;\n    //     uint256 _slotProgress = self.uintVars[slotProgress];\n\n    //     //Saving the challenge information as unique by using the msg.sender\n    //     // require(uint256(\n    //     //         sha256(abi.encodePacked(ripemd160(abi.encodePacked(keccak256(abi.encodePacked(self.currentChallenge, msg.sender, _nonce))))))\n    //     //     ) %\n    //     //         self.uintVars[difficulty] == 0\n    //     //         || (now - (now % 1 minutes)) - self.uintVars[timeOfLastNewValue] >= 15 minutes,\n    //     //     \"Incorrect nonce for current challenge\"\n    //     // );\n\n    //     //Checking and updating Miner Status\n    //     require(self.minersByChallenge[_currChallenge][msg.sender] == false, \"Miner already submitted the value\");\n    //     //Update the miner status to true once they submit a value so they don't submit more than once\n    //     self.minersByChallenge[_currChallenge][msg.sender] = true;\n\n    //     //Updating Request\n    //     TellorStorage.Request storage _tblock = self.requestDetails[self.uintVars[_tBlock]];\n    //     _tblock.minersByValue[1][_slotProgress]= msg.sender; \n    //     //this will fill the currentMiners array\n    //     _tblock.valuesByTimestamp[0][_slotProgress] = _value[0];\n    //     _tblock.valuesByTimestamp[1][_slotProgress] = _value[1];\n    //     _tblock.valuesByTimestamp[2][_slotProgress] = _value[2];\n    //     _tblock.valuesByTimestamp[3][_slotProgress] = _value[3];\n    //     _tblock.valuesByTimestamp[4][_slotProgress] = _value[4];\n    //     //Save the miner and value received\n    //     _tblock.minersByValue[0][self.uintVars[slotProgress]]= msg.sender;\n    //     _tblock.minersByValue[1][self.uintVars[slotProgress]]= msg.sender;\n    //     _tblock.minersByValue[2][self.uintVars[slotProgress]]= msg.sender;\n    //     _tblock.minersByValue[3][self.uintVars[slotProgress]]= msg.sender;\n    //     _tblock.minersByValue[4][self.uintVars[slotProgress]]= msg.sender;\n      \n\n    //     //Internal Function Added to allow for more stack variables\n    //     _payReward(self, _slotProgress);\n    //     self.uintVars[slotProgress]++;\n\n    //     //If 5 values have been received, adjust the difficulty otherwise sort the values until 5 are received \n    //     if (_slotProgress + 1 == 5) { //slotProgress has been incremented, but we're using the variable on stack to save gas\n    //         newBlock(self, _nonce, _requestId);\n    //         self.uintVars[slotProgress] = 0;\n    //     }\n\n    //     emit NonceSubmitted(msg.sender, _nonce, _requestId, _value, _currChallenge);\n       \n    // }\n}\n",
  "sourcePath": "/home/samkuhlmann/Documents/ody/tellor/TellorCoreV2/contracts/libraries/TellorLibrary.sol",
  "compiler": {
    "name": "solc",
    "version": "0.5.16+commit.9c3226ce.Emscripten.clang"
  },
  "schemaVersion": "3.2.3",
  "updatedAt": "2020-09-16T20:41:37.222Z",
  "devdoc": {
    "details": "Contains the functions' logic for the Tellor contract where miners can submit the proof of work along with the value and smart contracts can requestData and tip miners.",
    "methods": {
      "addTip(TellorStorage.TellorStorageStruct storage,uint256,uint256)": {
        "details": "Add tip to Request value from oracle",
        "params": {
          "_requestId": "being requested to be mined",
          "_tip": "amount the requester is willing to pay to be get on queue. Miners mine the onDeckQueryHash, or the api with the highest payout pool"
        }
      },
      "claimOwnership(TellorStorage.TellorStorageStruct storage)": {
        "details": "Allows the new owner to claim control of the contract"
      },
      "newBlock(TellorStorage.TellorStorageStruct storage,string,uint256)": {
        "details": "This function is called by submitMiningSolution and adjusts the difficulty, sorts and stores the first 5 values received, pays the miners, the dev share and assigns a new challenge",
        "params": {
          "_nonce": "or solution for the PoW  for the requestId",
          "_requestId": "for the current request being mined"
        }
      },
      "newBlock(TellorStorage.TellorStorageStruct storage,string,uint256[5])": {
        "details": "This function is called by submitMiningSolution and adjusts the difficulty, sorts and stores the first 5 values received, pays the miners, the dev share and assigns a new challenge",
        "params": {
          "_nonce": "or solution for the PoW  for the requestId",
          "_requestId": "for the current request being mined"
        }
      },
      "proposeOwnership(TellorStorage.TellorStorageStruct storage,address)": {
        "details": "Allows the current owner to propose transfer control of the contract to a newOwner and the ownership is pending until the new owner calls the claimOwnership function",
        "params": {
          "_pendingOwner": "The address to transfer ownership to."
        }
      },
      "submitMiningSolution(TellorStorage.TellorStorageStruct storage,string,uint256,uint256)": {
        "details": "Proof of work is called by the miner when they submit the solution (proof of work and value)",
        "params": {
          "_nonce": "uint submitted by miner",
          "_requestId": "the apiId being mined",
          "_value": "of api query"
        }
      },
      "submitMiningSolution(TellorStorage.TellorStorageStruct storage,string,uint256[5],uint256[5])": {
        "details": "Proof of work is called by the miner when they submit the solution (proof of work and value)",
        "params": {
          "_nonce": "uint submitted by miner",
          "_requestId": "is the array of the 5 PSR's being mined",
          "_value": "is an array of 5 values"
        }
      },
      "updateOnDeck(TellorStorage.TellorStorageStruct storage,uint256,uint256)": {
        "details": "This function updates APIonQ and the requestQ when requestData or addTip are ran",
        "params": {
          "_requestId": "being requested",
          "_tip": "is the tip to add"
        }
      }
    },
    "title": "Tellor Oracle System Library"
  },
  "userdoc": {
    "methods": {}
  }
}