{
  "contractName": "TellorTransfer",
  "abi": [
    {
      "anonymous": false,
      "inputs": [
        {
          "indexed": true,
          "internalType": "address",
          "name": "_owner",
          "type": "address"
        },
        {
          "indexed": true,
          "internalType": "address",
          "name": "_spender",
          "type": "address"
        },
        {
          "indexed": false,
          "internalType": "uint256",
          "name": "_value",
          "type": "uint256"
        }
      ],
      "name": "Approval",
      "type": "event"
    },
    {
      "anonymous": false,
      "inputs": [
        {
          "indexed": true,
          "internalType": "address",
          "name": "_from",
          "type": "address"
        },
        {
          "indexed": true,
          "internalType": "address",
          "name": "_to",
          "type": "address"
        },
        {
          "indexed": false,
          "internalType": "uint256",
          "name": "_value",
          "type": "uint256"
        }
      ],
      "name": "Transfer",
      "type": "event"
    },
    {
      "constant": true,
      "inputs": [],
      "name": "stakeAmount",
      "outputs": [
        {
          "internalType": "bytes32",
          "name": "",
          "type": "bytes32"
        }
      ],
      "payable": false,
      "stateMutability": "view",
      "type": "function"
    }
  ],
  "bytecode": "0x610d85610026600b82828239805160001a60731461001957fe5b30600052607381538281f3fe73000000000000000000000000000000000000000030146080604052600436106100c85760003560e01c8063bf32006c11610080578063c84b96f511610065578063c84b96f514610297578063ca501899146102e3578063eb7bdc0814610339576100c8565b8063bf32006c146101fe578063c7bb46ad1461023f576100c8565b8063850dcc32116100b1578063850dcc321461012657806393b182b314610186578063acaab9e2146101bf576100c8565b80633f48b1ff146100cd57806360c7dc471461011e575b600080fd5b61010c600480360360608110156100e357600080fd5b5080359073ffffffffffffffffffffffffffffffffffffffff6020820135169060400135610369565b60408051918252519081900360200190f35b61010c6105e3565b81801561013257600080fd5b506101726004803603606081101561014957600080fd5b5080359073ffffffffffffffffffffffffffffffffffffffff6020820135169060400135610607565b604080519115158252519081900360200190f35b61010c6004803603604081101561019c57600080fd5b508035906020013573ffffffffffffffffffffffffffffffffffffffff16610776565b610172600480360360608110156101d557600080fd5b5080359073ffffffffffffffffffffffffffffffffffffffff6020820135169060400135610783565b61010c6004803603606081101561021457600080fd5b5080359073ffffffffffffffffffffffffffffffffffffffff6020820135811691604001351661084d565b81801561024b57600080fd5b506102956004803603608081101561026257600080fd5b5080359073ffffffffffffffffffffffffffffffffffffffff602082013581169160408101359091169060600135610887565b005b8180156102a357600080fd5b50610172600480360360608110156102ba57600080fd5b5080359073ffffffffffffffffffffffffffffffffffffffff6020820135169060400135610ab5565b8180156102ef57600080fd5b506101726004803603608081101561030657600080fd5b5080359073ffffffffffffffffffffffffffffffffffffffff602082013581169160408101359091169060600135610acd565b81801561034557600080fd5b506102956004803603604081101561035c57600080fd5b5080359060200135610ba4565b73ffffffffffffffffffffffffffffffffffffffff8216600090815260458401602090815260408083208054825181850281018501909352808352606093859084015b8282101561040b57600084815260209081902060408051808201909152908401546fffffffffffffffffffffffffffffffff808216835270010000000000000000000000000000000090910416818301528252600190920191016103ac565b50505050905080516000148061044a5750828160008151811061042a57fe5b6020026020010151600001516fffffffffffffffffffffffffffffffff16115b156104595760009150506105dc565b8060018251038151811061046957fe5b6020026020010151600001516fffffffffffffffffffffffffffffffff1683106104c3578060018251038151811061049d57fe5b6020026020010151602001516fffffffffffffffffffffffffffffffff169150506105dc565b80516000907ffffffffffffffffffffffffffffffffffffffffffffffffffffffffffffffffe015b818111156105ac57600060026001838501010490508584828151811061050d57fe5b6020026020010151600001516fffffffffffffffffffffffffffffffff1614156105665783818151811061053d57fe5b6020026020010151602001516fffffffffffffffffffffffffffffffff169450505050506105dc565b8584828151811061057357fe5b6020026020010151600001516fffffffffffffffffffffffffffffffff16101561059f578092506105a6565b6001810391505b506104eb565b8282815181106105b857fe5b6020026020010151602001516fffffffffffffffffffffffffffffffff1693505050505b9392505050565b7f7be108969d31a3f0b261465c71f2b0ba9301cd914d55d9091c3b36a49d4d41b281565b600073ffffffffffffffffffffffffffffffffffffffff8316610671576040805162461bcd60e51b815260206004820152601460248201527f5370656e64657220697320302d61646472657373000000000000000000000000604482015290519081900360640190fd5b336000908152604685016020908152604080832073ffffffffffffffffffffffffffffffffffffffff8716845290915290205415806106ae575081155b6106ff576040805162461bcd60e51b815260206004820152601b60248201527f5370656e64657220697320616c726561647920617070726f7665640000000000604482015290519081900360640190fd5b336000818152604686016020908152604080832073ffffffffffffffffffffffffffffffffffffffff881680855290835292819020869055805186815290519293927f8c5be1e5ebec7d5bd14f71427d1e84f3dd0314c0f7b2291e5b200ac8c7c3b925929181900390910190a35060019392505050565b60006105dc838343610369565b73ffffffffffffffffffffffffffffffffffffffff82166000908152604784016020526040812054158015906107e0575073ffffffffffffffffffffffffffffffffffffffff831660009081526047850160205260409020546005115b15610838577f7be108969d31a3f0b261465c71f2b0ba9301cd914d55d9091c3b36a49d4d41b26000908152604080860160205290205482906108228686610776565b0310610830575060016105dc565b5060006105dc565b816108438585610776565b1015949350505050565b73ffffffffffffffffffffffffffffffffffffffff9182166000908152604693909301602090815260408085209290931684525290205490565b806108c35760405162461bcd60e51b8152600401808060200182810382526021815260200180610d306021913960400191505060405180910390fd5b73ffffffffffffffffffffffffffffffffffffffff821661092b576040805162461bcd60e51b815260206004820152601560248201527f5265636569766572206973203020616464726573730000000000000000000000604482015290519081900360640190fd5b610936848483610783565b6109715760405162461bcd60e51b8152600401808060200182810382526027815260200180610d096027913960400191505060405180910390fd5b600061097d8585610776565b73ffffffffffffffffffffffffffffffffffffffff8516600090815260458701602052604090209091506109b390838303610ba4565b6109bd8584610776565b9050808282011015610a16576040805162461bcd60e51b815260206004820152601160248201527f4f766572666c6f772068617070656e6564000000000000000000000000000000604482015290519081900360640190fd5b73ffffffffffffffffffffffffffffffffffffffff831660009081526045860160205260409020610a4990828401610ba4565b8273ffffffffffffffffffffffffffffffffffffffff168473ffffffffffffffffffffffffffffffffffffffff167fddf252ad1be2c89b69c2b068fc378daa952ba7f163c4a11628f55a4df523b3ef846040518082815260200191505060405180910390a35050505050565b6000610ac384338585610887565b5060019392505050565b73ffffffffffffffffffffffffffffffffffffffff831660009081526046850160209081526040808320338452909152812054821115610b54576040805162461bcd60e51b815260206004820152601260248201527f416c6c6f77616e63652069732077726f6e670000000000000000000000000000604482015290519081900360640190fd5b73ffffffffffffffffffffffffffffffffffffffff841660009081526046860160209081526040808320338452909152902080548390039055610b9985858585610887565b506001949350505050565b81541580610c0057508154439083907fffffffffffffffffffffffffffffffffffffffffffffffffffffffffffffffff8101908110610bdf57fe5b6000918252602090912001546fffffffffffffffffffffffffffffffff1614155b15610c965760408051808201909152436fffffffffffffffffffffffffffffffff90811682528281166020808401918252855460018101875560008781529190912093519301805491517fffffffffffffffffffffffffffffffff000000000000000000000000000000009092169383169390931782167001000000000000000000000000000000009190921602179055610d04565b815460009083907fffffffffffffffffffffffffffffffffffffffffffffffffffffffffffffffff8101908110610cc957fe5b600091825260209091200180546fffffffffffffffffffffffffffffffff808516700100000000000000000000000000000000029116179055505b505056fe53686f756c6420686176652073756666696369656e742062616c616e636520746f207472616465547269656420746f2073656e64206e6f6e2d706f73697469766520616d6f756e74a265627a7a72315820a3ec27715dbd3bd02153e6f1b60547a259958dc12bcdc4dd4317211b8e90b5dd64736f6c63430005100032",
  "source": "pragma solidity ^0.5.16;\n\nimport \"./SafeMath.sol\";\nimport \"./TellorStorage.sol\";\n\n/**\n* @title Tellor Transfer\n* @dev Contains the methods related to transfers and ERC20. Tellor.sol and TellorGetters.sol\n* reference this library for function's logic.\n*/\nlibrary TellorTransfer {\n    using SafeMath for uint256;\n\n    event Approval(address indexed _owner, address indexed _spender, uint256 _value); //ERC20 Approval event\n    event Transfer(address indexed _from, address indexed _to, uint256 _value); //ERC20 Transfer Event\n\n    bytes32 public constant stakeAmount = 0x7be108969d31a3f0b261465c71f2b0ba9301cd914d55d9091c3b36a49d4d41b2; //keccak256(\"stakeAmount\")\n\n    /*Functions*/\n\n    /**\n    * @dev Allows for a transfer of tokens to _to\n    * @param _to The address to send tokens to\n    * @param _amount The amount of tokens to send\n    * @return true if transfer is successful\n    */\n    function transfer(TellorStorage.TellorStorageStruct storage self, address _to, uint256 _amount) public returns (bool success) {\n        doTransfer(self, msg.sender, _to, _amount);\n        return true;\n    }\n\n    /**\n    * @notice Send _amount tokens to _to from _from on the condition it\n    * is approved by _from\n    * @param _from The address holding the tokens being transferred\n    * @param _to The address of the recipient\n    * @param _amount The amount of tokens to be transferred\n    * @return True if the transfer was successful\n    */\n    function transferFrom(TellorStorage.TellorStorageStruct storage self, address _from, address _to, uint256 _amount)\n        public\n        returns (bool success)\n    {\n        require(self.allowed[_from][msg.sender] >= _amount, \"Allowance is wrong\");\n        self.allowed[_from][msg.sender] -= _amount;\n        doTransfer(self, _from, _to, _amount);\n        return true;\n    }\n\n    /**\n    * @dev This function approves a _spender an _amount of tokens to use\n    * @param _spender address\n    * @param _amount amount the spender is being approved for\n    * @return true if spender appproved successfully\n    */\n    function approve(TellorStorage.TellorStorageStruct storage self, address _spender, uint256 _amount) public returns (bool) {\n        require(_spender != address(0), \"Spender is 0-address\");\n        require(self.allowed[msg.sender][_spender] == 0 || _amount == 0, \"Spender is already approved\");\n        self.allowed[msg.sender][_spender] = _amount;\n        emit Approval(msg.sender, _spender, _amount);\n        return true;\n    }\n\n    /**\n    * @param _user address of party with the balance\n    * @param _spender address of spender of parties said balance\n    * @return Returns the remaining allowance of tokens granted to the _spender from the _user\n    */\n    function allowance(TellorStorage.TellorStorageStruct storage self, address _user, address _spender) public view returns (uint256) {\n        return self.allowed[_user][_spender];\n    }\n\n    /**\n    * @dev Completes POWO transfers by updating the balances on the current block number\n    * @param _from address to transfer from\n    * @param _to addres to transfer to\n    * @param _amount to transfer\n    */\n    function doTransfer(TellorStorage.TellorStorageStruct storage self, address _from, address _to, uint256 _amount) public {\n        require(_amount != 0, \"Tried to send non-positive amount\");\n        require(_to != address(0), \"Receiver is 0 address\");\n        require(allowedToTrade(self, _from, _amount), \"Should have sufficient balance to trade\");\n        uint256 previousBalance = balanceOf(self, _from);\n        updateBalanceAtNow(self.balances[_from], previousBalance - _amount);\n        previousBalance = balanceOf(self,_to);\n        require(previousBalance + _amount >= previousBalance, \"Overflow happened\"); // Check for overflow\n        updateBalanceAtNow(self.balances[_to], previousBalance + _amount);\n        emit Transfer(_from, _to, _amount);\n    }\n\n    /**\n    * @dev Gets balance of owner specified\n    * @param _user is the owner address used to look up the balance\n    * @return Returns the balance associated with the passed in _user\n    */\n    function balanceOf(TellorStorage.TellorStorageStruct storage self, address _user) public view returns (uint256) {\n        return balanceOfAt(self, _user, block.number);\n    }\n\n    /**\n    * @dev Queries the balance of _user at a specific _blockNumber\n    * @param _user The address from which the balance will be retrieved\n    * @param _blockNumber The block number when the balance is queried\n    * @return The balance at _blockNumber specified\n    */\n    function balanceOfAt(TellorStorage.TellorStorageStruct storage self, address _user, uint256 _blockNumber) public view returns (uint256) {\n        TellorStorage.Checkpoint[] memory checkpoints = self.balances[_user];\n        if (checkpoints.length == 0|| checkpoints[0].fromBlock > _blockNumber) {\n            return 0;\n        } else {\n            if (_blockNumber >= checkpoints[checkpoints.length - 1].fromBlock) return checkpoints[checkpoints.length - 1].value;\n            // Binary search of the value in the array\n            uint256 min = 0;\n            uint256 max = checkpoints.length - 2;\n            while (max > min) {\n                uint256 mid = (max + min + 1) / 2;\n                if  (checkpoints[mid].fromBlock ==_blockNumber){\n                    return checkpoints[mid].value;\n                }else if(checkpoints[mid].fromBlock < _blockNumber) {\n                    min = mid;\n                } else {\n                    max = mid - 1;\n                }\n            }\n            return checkpoints[min].value;\n        }\n    }\n    /**\n    * @dev This function returns whether or not a given user is allowed to trade a given amount\n    * and removing the staked amount from their balance if they are staked\n    * @param _user address of user\n    * @param _amount to check if the user can spend\n    * @return true if they are allowed to spend the amount being checked\n    */\n    function allowedToTrade(TellorStorage.TellorStorageStruct storage self, address _user, uint256 _amount) public view returns (bool) { \n        if (self.stakerDetails[_user].currentStatus != 0 && self.stakerDetails[_user].currentStatus < 5) {\n            //Subtracts the stakeAmount from balance if the _user is staked\n            if (balanceOf(self, _user)- self.uintVars[stakeAmount] >= _amount) {\n                return true;\n            }\n            return false;\n        } \n        return (balanceOf(self, _user) >= _amount);\n    }\n\n    /**\n    * @dev Updates balance for from and to on the current block number via doTransfer\n    * @param checkpoints gets the mapping for the balances[owner]\n    * @param _value is the new balance\n    */\n    function updateBalanceAtNow(TellorStorage.Checkpoint[] storage checkpoints, uint256 _value) public {\n        if (checkpoints.length == 0 || checkpoints[checkpoints.length - 1].fromBlock != block.number) {\n           checkpoints.push(TellorStorage.Checkpoint({\n                fromBlock : uint128(block.number),\n                value : uint128(_value)\n            }));\n        } else {\n            TellorStorage.Checkpoint storage oldCheckPoint = checkpoints[checkpoints.length - 1];\n            oldCheckPoint.value = uint128(_value);\n        }\n    }\n}\n",
  "sourcePath": "/home/samkuhlmann/Documents/ody/tellor/TellorCoreV2/contracts/libraries/TellorTransfer.sol",
  "compiler": {
    "name": "solc",
    "version": "0.5.16+commit.9c3226ce.Emscripten.clang"
  },
  "schemaVersion": "3.2.3",
  "updatedAt": "2020-09-16T20:41:37.257Z",
  "devdoc": {
    "details": "Contains the methods related to transfers and ERC20. Tellor.sol and TellorGetters.sol reference this library for function's logic.",
    "methods": {
      "allowance(TellorStorage.TellorStorageStruct storage,address,address)": {
        "params": {
          "_spender": "address of spender of parties said balance",
          "_user": "address of party with the balance"
        },
        "return": "Returns the remaining allowance of tokens granted to the _spender from the _user"
      },
      "allowedToTrade(TellorStorage.TellorStorageStruct storage,address,uint256)": {
        "details": "This function returns whether or not a given user is allowed to trade a given amount and removing the staked amount from their balance if they are staked",
        "params": {
          "_amount": "to check if the user can spend",
          "_user": "address of user"
        },
        "return": "true if they are allowed to spend the amount being checked"
      },
      "approve(TellorStorage.TellorStorageStruct storage,address,uint256)": {
        "details": "This function approves a _spender an _amount of tokens to use",
        "params": {
          "_amount": "amount the spender is being approved for",
          "_spender": "address"
        },
        "return": "true if spender appproved successfully"
      },
      "balanceOf(TellorStorage.TellorStorageStruct storage,address)": {
        "details": "Gets balance of owner specified",
        "params": {
          "_user": "is the owner address used to look up the balance"
        },
        "return": "Returns the balance associated with the passed in _user"
      },
      "balanceOfAt(TellorStorage.TellorStorageStruct storage,address,uint256)": {
        "details": "Queries the balance of _user at a specific _blockNumber",
        "params": {
          "_blockNumber": "The block number when the balance is queried",
          "_user": "The address from which the balance will be retrieved"
        },
        "return": "The balance at _blockNumber specified"
      },
      "doTransfer(TellorStorage.TellorStorageStruct storage,address,address,uint256)": {
        "details": "Completes POWO transfers by updating the balances on the current block number",
        "params": {
          "_amount": "to transfer",
          "_from": "address to transfer from",
          "_to": "addres to transfer to"
        }
      },
      "transfer(TellorStorage.TellorStorageStruct storage,address,uint256)": {
        "details": "Allows for a transfer of tokens to _to",
        "params": {
          "_amount": "The amount of tokens to send",
          "_to": "The address to send tokens to"
        },
        "return": "true if transfer is successful"
      },
      "transferFrom(TellorStorage.TellorStorageStruct storage,address,address,uint256)": {
        "params": {
          "_amount": "The amount of tokens to be transferred",
          "_from": "The address holding the tokens being transferred",
          "_to": "The address of the recipient"
        },
        "return": "True if the transfer was successful"
      },
      "updateBalanceAtNow(TellorStorage.Checkpoint[] storage,uint256)": {
        "details": "Updates balance for from and to on the current block number via doTransfer",
        "params": {
          "_value": "is the new balance",
          "checkpoints": "gets the mapping for the balances[owner]"
        }
      }
    },
    "title": "Tellor Transfer"
  },
  "userdoc": {
    "methods": {
      "transferFrom(TellorStorage.TellorStorageStruct storage,address,address,uint256)": {
        "notice": "Send _amount tokens to _to from _from on the condition it is approved by _from"
      }
    }
  }
}