{
  "contractName": "Tellor",
  "abi": [
    {
      "constant": false,
      "inputs": [
        {
          "internalType": "uint256",
          "name": "_requestId",
          "type": "uint256"
        },
        {
          "internalType": "uint256",
          "name": "_timestamp",
          "type": "uint256"
        },
        {
          "internalType": "uint256",
          "name": "_minerIndex",
          "type": "uint256"
        }
      ],
      "name": "beginDispute",
      "outputs": [],
      "payable": false,
      "stateMutability": "nonpayable",
      "type": "function"
    },
    {
      "constant": false,
      "inputs": [
        {
          "internalType": "uint256",
          "name": "_disputeId",
          "type": "uint256"
        },
        {
          "internalType": "bool",
          "name": "_supportsDispute",
          "type": "bool"
        }
      ],
      "name": "vote",
      "outputs": [],
      "payable": false,
      "stateMutability": "nonpayable",
      "type": "function"
    },
    {
      "constant": false,
      "inputs": [
        {
          "internalType": "uint256",
          "name": "_disputeId",
          "type": "uint256"
        }
      ],
      "name": "tallyVotes",
      "outputs": [],
      "payable": false,
      "stateMutability": "nonpayable",
      "type": "function"
    },
    {
      "constant": false,
      "inputs": [
        {
          "internalType": "address",
          "name": "_propNewTellorAddress",
          "type": "address"
        }
      ],
      "name": "proposeFork",
      "outputs": [],
      "payable": false,
      "stateMutability": "nonpayable",
      "type": "function"
    },
    {
      "constant": false,
      "inputs": [
        {
          "internalType": "uint256",
          "name": "_requestId",
          "type": "uint256"
        },
        {
          "internalType": "uint256",
          "name": "_tip",
          "type": "uint256"
        }
      ],
      "name": "addTip",
      "outputs": [],
      "payable": false,
      "stateMutability": "nonpayable",
      "type": "function"
    },
    {
      "constant": false,
      "inputs": [
        {
          "internalType": "string",
          "name": "_nonce",
          "type": "string"
        },
        {
          "internalType": "uint256[5]",
          "name": "_requestId",
          "type": "uint256[5]"
        },
        {
          "internalType": "uint256[5]",
          "name": "_value",
          "type": "uint256[5]"
        }
      ],
      "name": "submitMiningSolution",
      "outputs": [],
      "payable": false,
      "stateMutability": "nonpayable",
      "type": "function"
    },
    {
      "constant": false,
      "inputs": [
        {
          "internalType": "string",
          "name": "_nonce",
          "type": "string"
        },
        {
          "internalType": "uint256",
          "name": "_requestId",
          "type": "uint256"
        },
        {
          "internalType": "uint256",
          "name": "_value",
          "type": "uint256"
        }
      ],
      "name": "submitMiningSolution",
      "outputs": [],
      "payable": false,
      "stateMutability": "nonpayable",
      "type": "function"
    },
    {
      "constant": false,
      "inputs": [
        {
          "internalType": "address payable",
          "name": "_pendingOwner",
          "type": "address"
        }
      ],
      "name": "proposeOwnership",
      "outputs": [],
      "payable": false,
      "stateMutability": "nonpayable",
      "type": "function"
    },
    {
      "constant": false,
      "inputs": [],
      "name": "claimOwnership",
      "outputs": [],
      "payable": false,
      "stateMutability": "nonpayable",
      "type": "function"
    },
    {
      "constant": false,
      "inputs": [],
      "name": "depositStake",
      "outputs": [],
      "payable": false,
      "stateMutability": "nonpayable",
      "type": "function"
    },
    {
      "constant": false,
      "inputs": [],
      "name": "requestStakingWithdraw",
      "outputs": [],
      "payable": false,
      "stateMutability": "nonpayable",
      "type": "function"
    },
    {
      "constant": false,
      "inputs": [],
      "name": "withdrawStake",
      "outputs": [],
      "payable": false,
      "stateMutability": "nonpayable",
      "type": "function"
    },
    {
      "constant": false,
      "inputs": [
        {
          "internalType": "address",
          "name": "_spender",
          "type": "address"
        },
        {
          "internalType": "uint256",
          "name": "_amount",
          "type": "uint256"
        }
      ],
      "name": "approve",
      "outputs": [
        {
          "internalType": "bool",
          "name": "",
          "type": "bool"
        }
      ],
      "payable": false,
      "stateMutability": "nonpayable",
      "type": "function"
    },
    {
      "constant": false,
      "inputs": [
        {
          "internalType": "address",
          "name": "_to",
          "type": "address"
        },
        {
          "internalType": "uint256",
          "name": "_amount",
          "type": "uint256"
        }
      ],
      "name": "transfer",
      "outputs": [
        {
          "internalType": "bool",
          "name": "",
          "type": "bool"
        }
      ],
      "payable": false,
      "stateMutability": "nonpayable",
      "type": "function"
    },
    {
      "constant": false,
      "inputs": [
        {
          "internalType": "address",
          "name": "_from",
          "type": "address"
        },
        {
          "internalType": "address",
          "name": "_to",
          "type": "address"
        },
        {
          "internalType": "uint256",
          "name": "_amount",
          "type": "uint256"
        }
      ],
      "name": "transferFrom",
      "outputs": [
        {
          "internalType": "bool",
          "name": "",
          "type": "bool"
        }
      ],
      "payable": false,
      "stateMutability": "nonpayable",
      "type": "function"
    },
    {
      "constant": true,
      "inputs": [],
      "name": "name",
      "outputs": [
        {
          "internalType": "string",
          "name": "",
          "type": "string"
        }
      ],
      "payable": false,
      "stateMutability": "pure",
      "type": "function"
    },
    {
      "constant": true,
      "inputs": [],
      "name": "symbol",
      "outputs": [
        {
          "internalType": "string",
          "name": "",
          "type": "string"
        }
      ],
      "payable": false,
      "stateMutability": "pure",
      "type": "function"
    },
    {
      "constant": true,
      "inputs": [],
      "name": "decimals",
      "outputs": [
        {
          "internalType": "uint8",
          "name": "",
          "type": "uint8"
        }
      ],
      "payable": false,
      "stateMutability": "pure",
      "type": "function"
    },
    {
      "constant": true,
      "inputs": [],
      "name": "getNewCurrentVariables",
      "outputs": [
        {
          "internalType": "bytes32",
          "name": "_challenge",
          "type": "bytes32"
        },
        {
          "internalType": "uint256[5]",
          "name": "_requestIds",
          "type": "uint256[5]"
        },
        {
          "internalType": "uint256",
          "name": "_difficutly",
          "type": "uint256"
        },
        {
          "internalType": "uint256",
          "name": "_tip",
          "type": "uint256"
        }
      ],
      "payable": false,
      "stateMutability": "view",
      "type": "function"
    },
    {
      "constant": true,
      "inputs": [],
      "name": "getTopRequestIDs",
      "outputs": [
        {
          "internalType": "uint256[5]",
          "name": "_requestIds",
          "type": "uint256[5]"
        }
      ],
      "payable": false,
      "stateMutability": "view",
      "type": "function"
    },
    {
      "constant": true,
      "inputs": [],
      "name": "getNewVariablesOnDeck",
      "outputs": [
        {
          "internalType": "uint256[5]",
          "name": "idsOnDeck",
          "type": "uint256[5]"
        },
        {
          "internalType": "uint256[5]",
          "name": "tipsOnDeck",
          "type": "uint256[5]"
        }
      ],
      "payable": false,
      "stateMutability": "view",
      "type": "function"
    },
    {
      "constant": false,
      "inputs": [
        {
          "internalType": "uint256",
          "name": "_disputeId",
          "type": "uint256"
        }
      ],
      "name": "updateTellor",
      "outputs": [],
      "payable": false,
      "stateMutability": "nonpayable",
      "type": "function"
    },
    {
      "constant": false,
      "inputs": [
        {
          "internalType": "uint256",
          "name": "_disputeId",
          "type": "uint256"
        }
      ],
      "name": "unlockDisputeFee",
      "outputs": [],
      "payable": false,
      "stateMutability": "nonpayable",
      "type": "function"
    }
  ],
  "bytecode": "0x608060405234801561001057600080fd5b506114c6806100206000396000f3fe608060405234801561001057600080fd5b506004361061018d5760003560e01c806368c180d5116100e35780639a7077ab1161008c578063c9d27afe11610066578063c9d27afe146105b7578063f458ab98146105dc578063fe1cd15d146105f95761018d565b80639a7077ab1461050a578063a9059cbb14610576578063bed9d861146105af5761018d565b80638581af19116100bd5780638581af19146104bc57806395d89b41146104e55780639a01ca13146104ed5761018d565b806368c180d5146103f0578063710bf32214610466578063752d49a1146104995761018d565b806328449c3a116101455780634350283e1161011f5780634350283e146103575780634d318b0e146103cb5780634e71e0c8146103e85761018d565b806328449c3a146102dc578063313ce567146102e45780634049f198146103025761018d565b80630d2d76a2116101765780630d2d76a21461025c57806323b872dd1461026657806326b7d9f6146102a95761018d565b806306fdde0314610192578063095ea7b31461020f575b600080fd5b61019a610639565b6040805160208082528351818301528351919283929083019185019080838360005b838110156101d45781810151838201526020016101bc565b50505050905090810190601f1680156102015780820380516001836020036101000a031916815260200191505b509250505060405180910390f35b6102486004803603604081101561022557600080fd5b5073ffffffffffffffffffffffffffffffffffffffff8135169060200135610670565b604080519115158252519081900360200190f35b610264610733565b005b6102486004803603606081101561027c57600080fd5b5073ffffffffffffffffffffffffffffffffffffffff8135811691602081013590911690604001356107b6565b610264600480360360208110156102bf57600080fd5b503573ffffffffffffffffffffffffffffffffffffffff16610882565b610264610922565b6102ec61098b565b6040805160ff9092168252519081900360200190f35b61030a610990565b604051848152602081018460a080838360005b8381101561033557818101518382015260200161031d565b5050505090500183815260200182815260200194505050505060405180910390f35b610264600480360361016081101561036e57600080fd5b81019060208101813564010000000081111561038957600080fd5b82018360208201111561039b57600080fd5b803590602001918460018302840111640100000000831117156103bd57600080fd5b919350915060a081016109b5565b610264600480360360208110156103e157600080fd5b5035610acb565b610264610b3b565b6102646004803603606081101561040657600080fd5b81019060208101813564010000000081111561042157600080fd5b82018360208201111561043357600080fd5b8035906020019184600183028401116401000000008311171561045557600080fd5b919350915080359060200135610ba4565b6102646004803603602081101561047c57600080fd5b503573ffffffffffffffffffffffffffffffffffffffff16610c3a565b610264600480360360408110156104af57600080fd5b5080359060200135610cbf565b610264600480360360608110156104d257600080fd5b5080359060208101359060400135610d52565b61019a610ded565b6102646004803603602081101561050357600080fd5b5035610e24565b610512610e94565b604051808360a080838360005b8381101561053757818101518382015260200161051f565b5050505090500182600560200280838360005b8381101561056257818101518382015260200161054a565b505050509050019250505060405180910390f35b6102486004803603604081101561058c57600080fd5b5073ffffffffffffffffffffffffffffffffffffffff8135169060200135610eb6565b610264610f46565b610264600480360360408110156105cd57600080fd5b50803590602001351515610faf565b610264600480360360208110156105f257600080fd5b5035611027565b610601611097565b604051808260a080838360005b8381101561062657818101518382015260200161060e565b5050505090500191505060405180910390f35b60408051808201909152600f81527f54656c6c6f722054726962757465730000000000000000000000000000000000602082015290565b604080517f850dcc3200000000000000000000000000000000000000000000000000000000815260006004820181905273ffffffffffffffffffffffffffffffffffffffff8516602483015260448201849052915173__TellorTransfer________________________9163850dcc32916064808301926020929190829003018186803b15801561070057600080fd5b505af4158015610714573d6000803e3d6000fd5b505050506040513d602081101561072a57600080fd5b50519392505050565b604080517f820a2d66000000000000000000000000000000000000000000000000000000008152600060048201819052915173__TellorStake___________________________9263820a2d669260248082019391829003018186803b15801561079c57600080fd5b505af41580156107b0573d6000803e3d6000fd5b50505050565b604080517fca50189900000000000000000000000000000000000000000000000000000000815260006004820181905273ffffffffffffffffffffffffffffffffffffffff80871660248401528516604483015260648201849052915173__TellorTransfer________________________9163ca501899916084808301926020929190829003018186803b15801561084e57600080fd5b505af4158015610862573d6000803e3d6000fd5b505050506040513d602081101561087857600080fd5b5051949350505050565b604080517f694bf49f00000000000000000000000000000000000000000000000000000000815260006004820181905273ffffffffffffffffffffffffffffffffffffffff84166024830152915173__TellorDispute_________________________9263694bf49f9260448082019391829003018186803b15801561090757600080fd5b505af415801561091b573d6000803e3d6000fd5b5050505050565b604080517fc9cf5e4c000000000000000000000000000000000000000000000000000000008152600060048201819052915173__TellorStake___________________________9263c9cf5e4c9260248082019391829003018186803b15801561079c57600080fd5b601290565b600061099a611473565b6000806109a760006110ae565b935093509350935090919293565b600073__TellorLibrary_________________________63a4bc40679091868686866040518663ffffffff1660e01b8152600401808681526020018060200184600560200280828437600083820152601f017fffffffffffffffffffffffffffffffffffffffffffffffffffffffffffffffe01690910190508360a080828437600083820152601f017fffffffffffffffffffffffffffffffffffffffffffffffffffffffffffffffe01690910183810383528681526020019050868680828437600081840152601f19601f820116905080830192505050965050505050505060006040518083038186803b158015610aad57600080fd5b505af4158015610ac1573d6000803e3d6000fd5b5050505050505050565b604080517fdef6fac700000000000000000000000000000000000000000000000000000000815260006004820181905260248201849052915173__TellorDispute_________________________9263def6fac79260448082019391829003018186803b15801561090757600080fd5b604080517f314691ff000000000000000000000000000000000000000000000000000000008152600060048201819052915173__TellorLibrary_________________________9263314691ff9260248082019391829003018186803b15801561079c57600080fd5b600073__TellorLibrary_________________________63a098b5b49091868686866040518663ffffffff1660e01b815260040180868152602001806020018481526020018381526020018281038252868682818152602001925080828437600081840152601f19601f820116905080830192505050965050505050505060006040518083038186803b158015610aad57600080fd5b604080517f291f8b7300000000000000000000000000000000000000000000000000000000815260006004820181905273ffffffffffffffffffffffffffffffffffffffff84166024830152915173__TellorLibrary_________________________9263291f8b739260448082019391829003018186803b15801561090757600080fd5b604080517f02e8f21b0000000000000000000000000000000000000000000000000000000081526000600482018190526024820185905260448201849052915173__TellorLibrary_________________________926302e8f21b9260648082019391829003018186803b158015610d3657600080fd5b505af4158015610d4a573d6000803e3d6000fd5b505050505050565b604080517fca9a4ea5000000000000000000000000000000000000000000000000000000008152600060048201819052602482018690526044820185905260648201849052915173__TellorDispute_________________________9263ca9a4ea59260848082019391829003018186803b158015610dd057600080fd5b505af4158015610de4573d6000803e3d6000fd5b50505050505050565b60408051808201909152600381527f5452420000000000000000000000000000000000000000000000000000000000602082015290565b604080517f97f5f97200000000000000000000000000000000000000000000000000000000815260006004820181905260248201849052915173__TellorDispute_________________________926397f5f9729260448082019391829003018186803b15801561090757600080fd5b610e9c611473565b610ea4611473565b610eae600061117d565b915091509091565b604080517fc84b96f500000000000000000000000000000000000000000000000000000000815260006004820181905273ffffffffffffffffffffffffffffffffffffffff8516602483015260448201849052915173__TellorTransfer________________________9163c84b96f5916064808301926020929190829003018186803b15801561070057600080fd5b604080517f44bacc4b000000000000000000000000000000000000000000000000000000008152600060048201819052915173__TellorStake___________________________926344bacc4b9260248082019391829003018186803b15801561079c57600080fd5b604080517f2da0706e000000000000000000000000000000000000000000000000000000008152600060048201819052602482018590528315156044830152915173__TellorDispute_________________________92632da0706e9260648082019391829003018186803b158015610d3657600080fd5b604080517f22048ecf00000000000000000000000000000000000000000000000000000000815260006004820181905260248201849052915173__TellorDispute_________________________926322048ecf9260448082019391829003018186803b15801561090757600080fd5b61109f611473565b6110a96000611232565b905090565b60006110b8611473565b600080805b60058110156110f3578560350181600581106110d557fe5b60020201548482600581106110e657fe5b60200201526001016110bd565b50508354604080517f646966666963756c7479000000000000000000000000000000000000000000008152815190819003600a01812060009081528288016020818152848320547f63757272656e74546f74616c54697073000000000000000000000000000000008552855194859003601001909420835252919091205491945091509193509193565b611185611473565b61118d611473565b61119683611232565b915060005b600581101561122c578360480160008483600581106111b657fe5b60200201518152602001908152602001600020600401600060405180807f746f74616c5469700000000000000000000000000000000000000000000000008152506008019050604051809103902081526020019081526020016000205482826005811061121f57fe5b602002015260010161119b565b50915091565b61123a611473565b611242611473565b61124a611473565b6040805161066081019182905261128391600187019060339082845b81548152602001906001019080831161126657505050505061131f565b909250905060005b6005811015611317578281600581106112a057fe5b6020020151156112e6578460430160008383600581106112bc57fe5b60200201518152602001908152602001600020548482600581106112dc57fe5b602002015261130f565b8460350181600403600581106112f857fe5b600202015484826005811061130957fe5b60200201525b60010161128b565b505050919050565b611327611473565b61132f611473565b60208301516000805b60058110156113b25785816001016033811061135057fe5b602002015185826005811061136157fe5b60200201526001810184826005811061137657fe5b60200201528285826005811061138857fe5b602002015110156113aa5784816005811061139f57fe5b602002015192508091505b600101611338565b5060065b603381101561146b57828682603381106113cc57fe5b60200201511115611463578581603381106113e357fe5b60200201518583600581106113f457fe5b60200201528084836005811061140657fe5b602002015285816033811061141757fe5b6020020151925060005b6005811015611461578386826005811061143757fe5b602002015110156114595785816005811061144e57fe5b602002015193508092505b600101611421565b505b6001016113b6565b505050915091565b6040518060a00160405280600590602082028038833950919291505056fea265627a7a72315820abfc94885e1826a8f419b6035d6bbade04196f59626c1d947a64dcbbbc4bc29a64736f6c63430005100032",
  "source": "pragma solidity ^0.5.16;\n\n\nimport \"./libraries/SafeMath.sol\";\nimport \"./libraries/TellorStorage.sol\";\nimport \"./libraries/TellorTransfer.sol\";\nimport \"./libraries/TellorDispute.sol\";\nimport \"./libraries/TellorStake.sol\";\nimport \"./libraries/TellorLibrary.sol\";\n\n/**\n * @title Tellor Oracle System\n * @dev Oracle contract where miners can submit the proof of work along with the value.\n * The logic for this contract is in TellorLibrary.sol, TellorDispute.sol, TellorStake.sol,\n * and TellorTransfer.sol\n */\ncontract Tellor {\n    using SafeMath for uint256;\n\n    using TellorDispute for TellorStorage.TellorStorageStruct;\n    using TellorLibrary for TellorStorage.TellorStorageStruct;\n    using TellorStake for TellorStorage.TellorStorageStruct;\n    using TellorTransfer for TellorStorage.TellorStorageStruct;\n\n    TellorStorage.TellorStorageStruct tellor;\n\n    /*Functions*/\n\n    /**\n    * @dev Helps initialize a dispute by assigning it a disputeId\n    * when a miner returns a false on the validate array(in Tellor.ProofOfWork) it sends the\n    * invalidated value information to POS voting\n    * @param _requestId being disputed\n    * @param _timestamp being disputed\n    * @param _minerIndex the index of the miner that submitted the value being disputed. Since each official value\n    * requires 5 miners to submit a value.\n    */\n    function beginDispute(uint256 _requestId, uint256 _timestamp, uint256 _minerIndex) external {\n        tellor.beginDispute(_requestId, _timestamp, _minerIndex);\n    }\n\n    /**\n    * @dev Allows token holders to vote\n    * @param _disputeId is the dispute id\n    * @param _supportsDispute is the vote (true=the dispute has basis false = vote against dispute)\n    */\n    function vote(uint256 _disputeId, bool _supportsDispute) external {\n        tellor.vote(_disputeId, _supportsDispute);\n    }\n\n    /**\n    * @dev tallies the votes.\n    * @param _disputeId is the dispute id\n    */\n    function tallyVotes(uint256 _disputeId) external {\n        tellor.tallyVotes(_disputeId);\n    }\n\n    /**\n    * @dev Allows for a fork to be proposed\n    * @param _propNewTellorAddress address for new proposed Tellor\n    */\n    function proposeFork(address _propNewTellorAddress) external {\n        tellor.proposeFork(_propNewTellorAddress);\n    }\n\n    /**\n    * @dev Add tip to Request value from oracle\n    * @param _requestId being requested to be mined\n    * @param _tip amount the requester is willing to pay to be get on queue. Miners\n    * mine the onDeckQueryHash, or the api with the highest payout pool\n    */\n    function addTip(uint256 _requestId, uint256 _tip) external {\n        tellor.addTip(_requestId, _tip);\n    }\n\n\n    /**\n    * @dev This is called by the miner when they submit the PoW solution (proof of work and value)\n    * @param _nonce uint submitted by miner\n    * @param _requestId the apiId being mined\n    * @param _value of api query\n    * \n    */\n    function submitMiningSolution(string calldata _nonce, uint256 _requestId, uint256 _value) external {\n        tellor.submitMiningSolution(_nonce, _requestId, _value);\n    }\n\n    /**\n    * @dev This is called by the miner when they submit the PoW solution (proof of work and value)\n    * @param _nonce uint submitted by miner\n    * @param _requestId is the array of the 5 PSR's being mined\n    * @param _value is an array of 5 values\n    */\n    function submitMiningSolution(string calldata _nonce,uint256[5] calldata _requestId, uint256[5] calldata _value) external {\n        tellor.submitMiningSolution(_nonce,_requestId, _value);\n    }\n\n\n    /**\n    * @dev Allows the current owner to propose transfer control of the contract to a\n    * newOwner and the ownership is pending until the new owner calls the claimOwnership\n    * function\n    * @param _pendingOwner The address to transfer ownership to.\n    */\n    function proposeOwnership(address payable _pendingOwner) external {\n        tellor.proposeOwnership(_pendingOwner);\n    }\n\n    /**\n    * @dev Allows the new owner to claim control of the contract\n    */\n    function claimOwnership() external {\n        tellor.claimOwnership();\n    }\n\n    /**\n    * @dev This function allows miners to deposit their stake.\n    */\n    function depositStake() external {\n        tellor.depositStake();\n    }\n\n    /**\n    * @dev This function allows stakers to request to withdraw their stake (no longer stake)\n    * once they lock for withdraw(stakes.currentStatus = 2) they are locked for 7 days before they\n    * can withdraw the stake\n    */\n    function requestStakingWithdraw() external {\n        tellor.requestStakingWithdraw();\n    }\n\n    /**\n    * @dev This function allows users to withdraw their stake after a 7 day waiting period from request\n    */\n    function withdrawStake() external {\n        tellor.withdrawStake();\n    }\n\n    /**\n    * @dev This function approves a _spender an _amount of tokens to use\n    * @param _spender address\n    * @param _amount amount the spender is being approved for\n    * @return true if spender appproved successfully\n    */\n    function approve(address _spender, uint256 _amount) external returns (bool) {\n        return tellor.approve(_spender, _amount);\n    }\n\n    /**\n    * @dev Allows for a transfer of tokens to _to\n    * @param _to The address to send tokens to\n    * @param _amount The amount of tokens to send\n    * @return true if transfer is successful\n    */\n    function transfer(address _to, uint256 _amount) external returns (bool) {\n        return tellor.transfer(_to, _amount);\n    }\n\n    /**\n    * @dev Sends _amount tokens to _to from _from on the condition it\n    * is approved by _from\n    * @param _from The address holding the tokens being transferred\n    * @param _to The address of the recipient\n    * @param _amount The amount of tokens to be transferred\n    * @return True if the transfer was successful\n    */\n    function transferFrom(address _from, address _to, uint256 _amount) external returns (bool) {\n        return tellor.transferFrom(_from, _to, _amount);\n    }\n\n    /**\n    * @dev Allows users to access the token's name\n    */\n    function name() external pure returns (string memory) {\n        return \"Tellor Tributes\";\n    }\n\n    /**\n    * @dev Allows users to access the token's symbol\n    */\n    function symbol() external pure returns (string memory) {\n        return \"TRB\";\n    }\n\n    /**\n    * @dev Allows users to access the number of decimals\n    */\n    function decimals() external pure returns (uint8) {\n        return 18;\n    }\n\n    /**\n    * @dev Getter for the current variables that include the 5 requests Id's\n    * @return the challenge, 5 requestsId, difficulty and tip\n    */\n    function getNewCurrentVariables() external view returns(bytes32 _challenge,uint[5] memory _requestIds,uint256 _difficutly, uint256 _tip){\n        return tellor.getNewCurrentVariables();\n    }\n\n    /**\n    * @dev Getter for the top tipped 5 requests Id's\n    * @return the 5 requestsId\n    */\n    function getTopRequestIDs() external view returns(uint256[5] memory _requestIds){\n        return tellor.getTopRequestIDs();\n    }\n\n    /**\n    * @dev Getter for the 5 requests Id's next in line to get mined\n    * @return the 5 requestsId\n    */\n    function getNewVariablesOnDeck() external view returns (uint256[5] memory idsOnDeck, uint256[5] memory tipsOnDeck) {\n        return tellor.getNewVariablesOnDeck();\n    }\n\n    /**\n    * @dev Updates the Tellor address after a proposed fork has \n    * passed the vote and day has gone by without a dispute\n    * @param _disputeId the disputeId for the proposed fork\n    */\n     function updateTellor(uint _disputeId) external{\n        return tellor.updateTellor(_disputeId);\n    }\n\n    /**\n    * @dev Allows disputer to unlock the dispute fee\n    * @param _disputeId to unlock fee from\n    */\n     function unlockDisputeFee (uint _disputeId) external{\n        return tellor.unlockDisputeFee(_disputeId);\n    }\n\n    /*******************TEST Functions NOT INCLUDED ON PRODUCTION/MAINNET/RINKEBY******/\n    // /*This is a cheat for demo purposes, will delete upon actual launch*/\n    // function theLazyCoon(address _address, uint _amount) external {\n    //     tellor.theLazyCoon(_address,_amount);\n    // }\n\n    // function testSubmitMiningSolution(string calldata _nonce, uint256 _requestId, uint256 _value) external {\n    //     tellor.testSubmitMiningSolution(_nonce, _requestId, _value);\n    // }\n\n    // function testSubmitMiningSolution(string calldata _nonce,uint256[5] calldata _requestId, uint256[5] calldata _value) external {\n    //     tellor.testSubmitMiningSolution(_nonce,_requestId, _value);\n    // }\n    /***************END TEST Functions NOT INCLUDED ON PRODUCTION/MAINNET/RINKEBY******/\n }\n",
  "sourcePath": "/home/samkuhlmann/Documents/ody/tellor/TellorCoreV2/contracts/Tellor.sol",
  "compiler": {
    "name": "solc",
    "version": "0.5.16+commit.9c3226ce.Emscripten.clang"
  },
  "schemaVersion": "3.2.3",
  "updatedAt": "2020-09-16T20:41:37.177Z",
  "devdoc": {
    "details": "Oracle contract where miners can submit the proof of work along with the value. The logic for this contract is in TellorLibrary.sol, TellorDispute.sol, TellorStake.sol, and TellorTransfer.sol",
    "methods": {
      "addTip(uint256,uint256)": {
        "details": "Add tip to Request value from oracle",
        "params": {
          "_requestId": "being requested to be mined",
          "_tip": "amount the requester is willing to pay to be get on queue. Miners mine the onDeckQueryHash, or the api with the highest payout pool"
        }
      },
      "approve(address,uint256)": {
        "details": "This function approves a _spender an _amount of tokens to use",
        "params": {
          "_amount": "amount the spender is being approved for",
          "_spender": "address"
        },
        "return": "true if spender appproved successfully"
      },
      "beginDispute(uint256,uint256,uint256)": {
        "details": "Helps initialize a dispute by assigning it a disputeId when a miner returns a false on the validate array(in Tellor.ProofOfWork) it sends the invalidated value information to POS voting",
        "params": {
          "_minerIndex": "the index of the miner that submitted the value being disputed. Since each official value requires 5 miners to submit a value.",
          "_requestId": "being disputed",
          "_timestamp": "being disputed"
        }
      },
      "claimOwnership()": {
        "details": "Allows the new owner to claim control of the contract"
      },
      "decimals()": {
        "details": "Allows users to access the number of decimals"
      },
      "depositStake()": {
        "details": "This function allows miners to deposit their stake."
      },
      "getNewCurrentVariables()": {
        "details": "Getter for the current variables that include the 5 requests Id's",
        "return": "the challenge, 5 requestsId, difficulty and tip"
      },
      "getNewVariablesOnDeck()": {
        "details": "Getter for the 5 requests Id's next in line to get mined",
        "return": "the 5 requestsId"
      },
      "getTopRequestIDs()": {
        "details": "Getter for the top tipped 5 requests Id's",
        "return": "the 5 requestsId"
      },
      "name()": {
        "details": "Allows users to access the token's name"
      },
      "proposeFork(address)": {
        "details": "Allows for a fork to be proposed",
        "params": {
          "_propNewTellorAddress": "address for new proposed Tellor"
        }
      },
      "proposeOwnership(address)": {
        "details": "Allows the current owner to propose transfer control of the contract to a newOwner and the ownership is pending until the new owner calls the claimOwnership function",
        "params": {
          "_pendingOwner": "The address to transfer ownership to."
        }
      },
      "requestStakingWithdraw()": {
        "details": "This function allows stakers to request to withdraw their stake (no longer stake) once they lock for withdraw(stakes.currentStatus = 2) they are locked for 7 days before they can withdraw the stake"
      },
      "submitMiningSolution(string,uint256,uint256)": {
        "details": "This is called by the miner when they submit the PoW solution (proof of work and value)",
        "params": {
          "_nonce": "uint submitted by miner",
          "_requestId": "the apiId being mined",
          "_value": "of api query     "
        }
      },
      "submitMiningSolution(string,uint256[5],uint256[5])": {
        "details": "This is called by the miner when they submit the PoW solution (proof of work and value)",
        "params": {
          "_nonce": "uint submitted by miner",
          "_requestId": "is the array of the 5 PSR's being mined",
          "_value": "is an array of 5 values"
        }
      },
      "symbol()": {
        "details": "Allows users to access the token's symbol"
      },
      "tallyVotes(uint256)": {
        "details": "tallies the votes.",
        "params": {
          "_disputeId": "is the dispute id"
        }
      },
      "transfer(address,uint256)": {
        "details": "Allows for a transfer of tokens to _to",
        "params": {
          "_amount": "The amount of tokens to send",
          "_to": "The address to send tokens to"
        },
        "return": "true if transfer is successful"
      },
      "transferFrom(address,address,uint256)": {
        "details": "Sends _amount tokens to _to from _from on the condition it is approved by _from",
        "params": {
          "_amount": "The amount of tokens to be transferred",
          "_from": "The address holding the tokens being transferred",
          "_to": "The address of the recipient"
        },
        "return": "True if the transfer was successful"
      },
      "unlockDisputeFee(uint256)": {
        "details": "Allows disputer to unlock the dispute fee",
        "params": {
          "_disputeId": "to unlock fee from"
        }
      },
      "updateTellor(uint256)": {
        "details": "Updates the Tellor address after a proposed fork has  passed the vote and day has gone by without a dispute",
        "params": {
          "_disputeId": "the disputeId for the proposed fork"
        }
      },
      "vote(uint256,bool)": {
        "details": "Allows token holders to vote",
        "params": {
          "_disputeId": "is the dispute id",
          "_supportsDispute": "is the vote (true=the dispute has basis false = vote against dispute)"
        }
      },
      "withdrawStake()": {
        "details": "This function allows users to withdraw their stake after a 7 day waiting period from request"
      }
    },
    "title": "Tellor Oracle System"
  },
  "userdoc": {
    "methods": {}
  }
}