{
  "contractName": "TellorFund",
  "abi": [
    {
      "constant": false,
      "inputs": [
        {
          "name": "_requestId",
          "type": "uint256"
        }
      ],
      "name": "addTipWithEther",
      "outputs": [],
      "payable": true,
      "stateMutability": "payable",
      "type": "function"
    },
    {
      "constant": true,
      "inputs": [
        {
          "name": "_requestId",
          "type": "uint256"
        }
      ],
      "name": "getCurrentValue",
      "outputs": [
        {
          "name": "ifRetrieve",
          "type": "bool"
        },
        {
          "name": "value",
          "type": "uint256"
        },
        {
          "name": "_timestampRetrieved",
          "type": "uint256"
        }
      ],
      "payable": false,
      "stateMutability": "view",
      "type": "function"
    },
    {
      "constant": false,
      "inputs": [
        {
          "name": "_request",
          "type": "string"
        },
        {
          "name": "_symbol",
          "type": "string"
        },
        {
          "name": "_granularity",
          "type": "uint256"
        },
        {
          "name": "_tip",
          "type": "uint256"
        }
      ],
      "name": "requestData",
      "outputs": [],
      "payable": false,
      "stateMutability": "nonpayable",
      "type": "function"
    },
    {
      "constant": true,
      "inputs": [],
      "name": "granularity",
      "outputs": [
        {
          "name": "",
          "type": "uint256"
        }
      ],
      "payable": false,
      "stateMutability": "view",
      "type": "function"
    },
    {
      "constant": true,
      "inputs": [
        {
          "name": "_requestId",
          "type": "uint256"
        },
        {
          "name": "_timestamp",
          "type": "uint256"
        }
      ],
      "name": "getFirstVerifiedDataAfter",
      "outputs": [
        {
          "name": "",
          "type": "bool"
        },
        {
          "name": "",
          "type": "uint256"
        },
        {
          "name": "_timestampRetrieved",
          "type": "uint256"
        }
      ],
      "payable": false,
      "stateMutability": "view",
      "type": "function"
    },
    {
      "constant": false,
      "inputs": [
        {
          "name": "_requestId",
          "type": "uint256"
        },
        {
          "name": "_tip",
          "type": "uint256"
        }
      ],
      "name": "addTip",
      "outputs": [],
      "payable": false,
      "stateMutability": "nonpayable",
      "type": "function"
    },
    {
      "constant": true,
      "inputs": [],
      "name": "owner",
      "outputs": [
        {
          "name": "",
          "type": "address"
        }
      ],
      "payable": false,
      "stateMutability": "view",
      "type": "function"
    },
    {
      "constant": true,
      "inputs": [],
      "name": "tellorPriceID",
      "outputs": [
        {
          "name": "",
          "type": "uint256"
        }
      ],
      "payable": false,
      "stateMutability": "view",
      "type": "function"
    },
    {
      "constant": false,
      "inputs": [
        {
          "name": "_userContract",
          "type": "address"
        }
      ],
      "name": "setUserContract",
      "outputs": [],
      "payable": false,
      "stateMutability": "nonpayable",
      "type": "function"
    },
    {
      "constant": false,
      "inputs": [
        {
          "name": "_request",
          "type": "string"
        },
        {
          "name": "_symbol",
          "type": "string"
        },
        {
          "name": "_granularity",
          "type": "uint256"
        }
      ],
      "name": "requestDataWithEther",
      "outputs": [],
      "payable": true,
      "stateMutability": "payable",
      "type": "function"
    },
    {
      "constant": true,
      "inputs": [
        {
          "name": "_bytesId",
          "type": "bytes32"
        }
      ],
      "name": "resultFor",
      "outputs": [
        {
          "name": "timestamp",
          "type": "uint256"
        },
        {
          "name": "outcome",
          "type": "int256"
        },
        {
          "name": "status",
          "type": "int256"
        }
      ],
      "payable": false,
      "stateMutability": "view",
      "type": "function"
    },
    {
      "constant": true,
      "inputs": [
        {
          "name": "_requestId",
          "type": "uint256"
        },
        {
          "name": "_timestamp",
          "type": "uint256"
        }
      ],
      "name": "getAnyDataAfter",
      "outputs": [
        {
          "name": "_ifRetrieve",
          "type": "bool"
        },
        {
          "name": "_value",
          "type": "uint256"
        },
        {
          "name": "_timestampRetrieved",
          "type": "uint256"
        }
      ],
      "payable": false,
      "stateMutability": "view",
      "type": "function"
    },
    {
      "constant": false,
      "inputs": [
        {
          "name": "_newOwner",
          "type": "address"
        }
      ],
      "name": "transferOwnership",
      "outputs": [],
      "payable": false,
      "stateMutability": "nonpayable",
      "type": "function"
    },
    {
      "inputs": [
        {
          "name": "_userContract",
          "type": "address"
        },
        {
          "name": "_tellorPriceID",
          "type": "uint256"
        },
        {
          "name": "_granularity",
          "type": "uint256"
        }
      ],
      "payable": false,
      "stateMutability": "nonpayable",
      "type": "constructor"
    },
    {
      "anonymous": false,
      "inputs": [
        {
          "indexed": false,
          "name": "_id",
          "type": "uint256"
        },
        {
          "indexed": false,
          "name": "_title",
          "type": "string"
        },
        {
          "indexed": false,
          "name": "_desc",
          "type": "string"
        },
        {
          "indexed": false,
          "name": "_minAmountUSD",
          "type": "uint256"
        },
        {
          "indexed": false,
          "name": "_daystilComplete",
          "type": "uint256"
        }
      ],
      "name": "NewProposal",
      "type": "event"
    },
    {
      "anonymous": false,
      "inputs": [
        {
          "indexed": false,
          "name": "_id",
          "type": "uint256"
        },
        {
          "indexed": false,
          "name": "_funder",
          "type": "address"
        },
        {
          "indexed": false,
          "name": "_amount",
          "type": "uint256"
        }
      ],
      "name": "ProposalFunded",
      "type": "event"
    },
    {
      "anonymous": false,
      "inputs": [
        {
          "indexed": false,
          "name": "_id",
          "type": "uint256"
        },
        {
          "indexed": false,
          "name": "_funded",
          "type": "bool"
        },
        {
          "indexed": false,
          "name": "_amount",
          "type": "uint256"
        }
      ],
      "name": "ProposalClosed",
      "type": "event"
    },
    {
      "anonymous": false,
      "inputs": [
        {
          "indexed": false,
          "name": "_previousOwner",
          "type": "address"
        },
        {
          "indexed": false,
          "name": "_newOwner",
          "type": "address"
        }
      ],
      "name": "OwnershipTransferred",
      "type": "event"
    },
    {
      "constant": false,
      "inputs": [
        {
          "name": "_title",
          "type": "string"
        },
        {
          "name": "_desc",
          "type": "string"
        },
        {
          "name": "_minAmountUSD",
          "type": "uint256"
        },
        {
          "name": "_daystilComplete",
          "type": "uint256"
        }
      ],
      "name": "createProposal",
      "outputs": [
        {
          "name": "_id",
          "type": "uint256"
        }
      ],
      "payable": false,
      "stateMutability": "nonpayable",
      "type": "function"
    },
    {
      "constant": false,
      "inputs": [
        {
          "name": "_id",
          "type": "uint256"
        },
        {
          "name": "_amountTRB",
          "type": "uint256"
        }
      ],
      "name": "fund",
      "outputs": [],
      "payable": false,
      "stateMutability": "nonpayable",
      "type": "function"
    },
    {
      "constant": false,
      "inputs": [
        {
          "name": "_id",
          "type": "uint256"
        }
      ],
      "name": "closeProposal",
      "outputs": [],
      "payable": false,
      "stateMutability": "nonpayable",
      "type": "function"
    },
    {
      "constant": false,
      "inputs": [],
      "name": "withdrawMoney",
      "outputs": [],
      "payable": false,
      "stateMutability": "nonpayable",
      "type": "function"
    },
    {
      "constant": true,
      "inputs": [],
      "name": "getAllOpenProposals",
      "outputs": [
        {
          "name": "",
          "type": "uint256[]"
        }
      ],
      "payable": false,
      "stateMutability": "view",
      "type": "function"
    },
    {
      "constant": false,
      "inputs": [
        {
          "name": "_user",
          "type": "address"
        }
      ],
      "name": "getAvailableForWithdraw",
      "outputs": [
        {
          "name": "",
          "type": "uint256"
        }
      ],
      "payable": false,
      "stateMutability": "nonpayable",
      "type": "function"
    },
    {
      "constant": true,
      "inputs": [
        {
          "name": "_id",
          "type": "uint256"
        }
      ],
      "name": "getProposalById",
      "outputs": [
        {
          "name": "",
          "type": "string"
        },
        {
          "name": "",
          "type": "string"
        },
        {
          "name": "",
          "type": "address"
        },
        {
          "name": "",
          "type": "uint256"
        },
        {
          "name": "",
          "type": "uint256"
        },
        {
          "name": "",
          "type": "uint256"
        },
        {
          "name": "",
          "type": "bool"
        },
        {
          "name": "",
          "type": "bool"
        },
        {
          "name": "",
          "type": "uint256"
        }
      ],
      "payable": false,
      "stateMutability": "view",
      "type": "function"
    },
    {
      "constant": true,
      "inputs": [
        {
          "name": "_funder",
          "type": "address"
        }
      ],
      "name": "getProposalsByAddress",
      "outputs": [
        {
          "name": "propArray",
          "type": "uint256[]"
        },
        {
          "name": "amountArray",
          "type": "uint256[]"
        }
      ],
      "payable": false,
      "stateMutability": "view",
      "type": "function"
    },
    {
      "constant": true,
      "inputs": [
        {
          "name": "_id",
          "type": "uint256"
        }
      ],
      "name": "getAddressesById",
      "outputs": [
        {
          "name": "addArray",
          "type": "address[]"
        }
      ],
      "payable": false,
      "stateMutability": "view",
      "type": "function"
    },
    {
      "constant": true,
      "inputs": [
        {
          "name": "_id",
          "type": "uint256"
        }
      ],
      "name": "percentFunded",
      "outputs": [
        {
          "name": "",
          "type": "uint256"
        }
      ],
      "payable": false,
      "stateMutability": "view",
      "type": "function"
    },
    {
      "constant": true,
      "inputs": [],
      "name": "viewTellorPrice",
      "outputs": [
        {
          "name": "",
          "type": "uint256"
        }
      ],
      "payable": false,
      "stateMutability": "view",
      "type": "function"
    },
    {
      "constant": true,
      "inputs": [],
      "name": "getProposalCount",
      "outputs": [
        {
          "name": "",
          "type": "uint256"
        }
      ],
      "payable": false,
      "stateMutability": "view",
      "type": "function"
    },
    {
      "constant": true,
      "inputs": [],
      "name": "tellorAddress",
      "outputs": [
        {
          "name": "",
          "type": "address"
        }
      ],
      "payable": false,
      "stateMutability": "view",
      "type": "function"
    }
  ],
  "bytecode": "0x60806040523480156200001157600080fd5b50604051606080620037f5833981018060405260608110156200003357600080fd5b8101908080519060200190929190805190602001909291908051906020019092919050505082806000806101000a81548173ffffffffffffffffffffffffffffffffffffffff021916908373ffffffffffffffffffffffffffffffffffffffff16021790555033600160006101000a81548173ffffffffffffffffffffffffffffffffffffffff021916908373ffffffffffffffffffffffffffffffffffffffff16021790555050600160028190555081600381905550806004819055506005805480919060010162000107919062000111565b5050505062000168565b8154818355818111156200013b578183600052602060002091820191016200013a919062000140565b5b505050565b6200016591905b808211156200016157600081600090555060010162000147565b5090565b90565b61367d80620001786000396000f3fe6080604052600436106101815760003560e01c8063752d49a1116100d1578063ac4460021161008a578063c08cc02d11610064578063c08cc02d14610bc9578063d09cc57e14610bf4578063d269a83c14610c51578063f2fde38b14610cbc57610181565b8063ac44600214610a4a578063bb19e29614610a61578063be407cf214610b3957610181565b8063752d49a11461089e578063811ad5e3146108e35780638da5cb5b14610932578063a11a12e214610989578063a1206d4e146109b4578063a65e2cfd14610a0557610181565b80633aedd6611161013e5780633fff2816116101185780633fff281614610616578063556f0dc7146107055780635f059f3e146107305780636b5e17661461079b57610181565b80633aedd6611461045b5780633ed2ab0a146104c75780633fcad964146105b557610181565b80630386a016146101865780630fc8deca146101c157806316c039c7146102265780632639e0b0146102515780633347c8fe1461027f5780633656de21146102d6575b600080fd5b34801561019257600080fd5b506101bf600480360360208110156101a957600080fd5b8101908080359060200190929190505050610d0d565b005b3480156101cd57600080fd5b50610210600480360360208110156101e457600080fd5b81019080803573ffffffffffffffffffffffffffffffffffffffff169060200190929190505050611158565b6040518082815260200191505060405180910390f35b34801561023257600080fd5b5061023b6111a1565b6040518082815260200191505060405180910390f35b61027d6004803603602081101561026757600080fd5b810190808035906020019092919050505061125f565b005b34801561028b57600080fd5b506102946112ef565b604051808273ffffffffffffffffffffffffffffffffffffffff1673ffffffffffffffffffffffffffffffffffffffff16815260200191505060405180910390f35b3480156102e257600080fd5b5061030f600480360360208110156102f957600080fd5b8101908080359060200190929190505050611398565b6040518080602001806020018a73ffffffffffffffffffffffffffffffffffffffff1673ffffffffffffffffffffffffffffffffffffffff168152602001898152602001888152602001878152602001861515151581526020018515151515815260200184815260200183810383528c818151815260200191508051906020019080838360005b838110156103b1578082015181840152602081019050610396565b50505050905090810190601f1680156103de5780820380516001836020036101000a031916815260200191505b5083810382528b818151815260200191508051906020019080838360005b838110156104175780820151818401526020810190506103fc565b50505050905090810190601f1680156104445780820380516001836020036101000a031916815260200191505b509b50505050505050505050505060405180910390f35b34801561046757600080fd5b5061047061163a565b6040518080602001828103825283818151815260200191508051906020019060200280838360005b838110156104b3578082015181840152602081019050610498565b505050509050019250505060405180910390f35b3480156104d357600080fd5b50610516600480360360208110156104ea57600080fd5b81019080803573ffffffffffffffffffffffffffffffffffffffff169060200190929190505050611692565b604051808060200180602001838103835285818151815260200191508051906020019060200280838360005b8381101561055d578082015181840152602081019050610542565b50505050905001838103825284818151815260200191508051906020019060200280838360005b8381101561059f578082015181840152602081019050610584565b5050505090500194505050505060405180910390f35b3480156105c157600080fd5b506105ee600480360360208110156105d857600080fd5b8101908080359060200190929190505050611831565b6040518084151515158152602001838152602001828152602001935050505060405180910390f35b34801561062257600080fd5b506107036004803603608081101561063957600080fd5b810190808035906020019064010000000081111561065657600080fd5b82018360208201111561066857600080fd5b8035906020019184600183028401116401000000008311171561068a57600080fd5b9091929391929390803590602001906401000000008111156106ab57600080fd5b8201836020820111156106bd57600080fd5b803590602001918460018302840111640100000000831117156106df57600080fd5b90919293919293908035906020019092919080359060200190929190505050611904565b005b34801561071157600080fd5b5061071a611c00565b6040518082815260200191505060405180910390f35b34801561073c57600080fd5b506107736004803603604081101561075357600080fd5b810190808035906020019092919080359060200190929190505050611c06565b6040518084151515158152602001838152602001828152602001935050505060405180910390f35b3480156107a757600080fd5b50610888600480360360808110156107be57600080fd5b81019080803590602001906401000000008111156107db57600080fd5b8201836020820111156107ed57600080fd5b8035906020019184600183028401116401000000008311171561080f57600080fd5b90919293919293908035906020019064010000000081111561083057600080fd5b82018360208201111561084257600080fd5b8035906020019184600183028401116401000000008311171561086457600080fd5b90919293919293908035906020019092919080359060200190929190505050611ce1565b6040518082815260200191505060405180910390f35b3480156108aa57600080fd5b506108e1600480360360408110156108c157600080fd5b81019080803590602001909291908035906020019092919050505061229d565b005b3480156108ef57600080fd5b5061091c6004803603602081101561090657600080fd5b8101908080359060200190929190505050612523565b6040518082815260200191505060405180910390f35b34801561093e57600080fd5b50610947612773565b604051808273ffffffffffffffffffffffffffffffffffffffff1673ffffffffffffffffffffffffffffffffffffffff16815260200191505060405180910390f35b34801561099557600080fd5b5061099e612799565b6040518082815260200191505060405180910390f35b3480156109c057600080fd5b50610a03600480360360208110156109d757600080fd5b81019080803573ffffffffffffffffffffffffffffffffffffffff16906020019092919050505061279f565b005b348015610a1157600080fd5b50610a4860048036036040811015610a2857600080fd5b8101908080359060200190929190803590602001909291905050506128a5565b005b348015610a5657600080fd5b50610a5f612ce8565b005b610b3760048036036060811015610a7757600080fd5b8101908080359060200190640100000000811115610a9457600080fd5b820183602082011115610aa657600080fd5b80359060200191846001830284011164010000000083111715610ac857600080fd5b909192939192939080359060200190640100000000811115610ae957600080fd5b820183602082011115610afb57600080fd5b80359060200191846001830284011164010000000083111715610b1d57600080fd5b909192939192939080359060200190929190505050612ede565b005b348015610b4557600080fd5b50610b7260048036036020811015610b5c57600080fd5b8101908080359060200190929190505050612fda565b6040518080602001828103825283818151815260200191508051906020019060200280838360005b83811015610bb5578082015181840152602081019050610b9a565b505050509050019250505060405180910390f35b348015610bd557600080fd5b50610bde61315c565b6040518082815260200191505060405180910390f35b348015610c0057600080fd5b50610c2d60048036036020811015610c1757600080fd5b8101908080359060200190929190505050613169565b60405180848152602001838152602001828152602001935050505060405180910390f35b348015610c5d57600080fd5b50610c9460048036036040811015610c7457600080fd5b81019080803590602001909291908035906020019092919050505061323c565b6040518084151515158152602001838152602001828152602001935050505060405180910390f35b348015610cc857600080fd5b50610d0b60048036036020811015610cdf57600080fd5b81019080803573ffffffffffffffffffffffffffffffffffffffff169060200190929190505050613317565b005b60006006600083815260200190815260200160002090508060060160009054906101000a900460ff16610d3f57600080fd5b60008211610d4c57600080fd5b80600401544211610d5c57600080fd5b60008060009054906101000a900473ffffffffffffffffffffffffffffffffffffffff1673ffffffffffffffffffffffffffffffffffffffff1663a80209736040518163ffffffff1660e01b815260040160206040518083038186803b158015610dc557600080fd5b505afa158015610dd9573d6000803e3d6000fd5b505050506040513d6020811015610def57600080fd5b810190808051906020019092919050505090506064610e0d84612523565b10610f1f5760018260060160016101000a81548160ff0219169083151502179055508073ffffffffffffffffffffffffffffffffffffffff1663a9059cbb8360020160009054906101000a900473ffffffffffffffffffffffffffffffffffffffff1684600501546040518363ffffffff1660e01b8152600401808373ffffffffffffffffffffffffffffffffffffffff1673ffffffffffffffffffffffffffffffffffffffff16815260200182815260200192505050602060405180830381600087803b158015610ede57600080fd5b505af1158015610ef2573d6000803e3d6000fd5b505050506040513d6020811015610f0857600080fd5b810190808051906020019092919050505050610fff565b600060076000858152602001908152602001600020905060008090505b8180549050811015610ffc57818181548110610f5457fe5b906000526020600020906002020160010154600a6000848481548110610f7657fe5b906000526020600020906002020160000160009054906101000a900473ffffffffffffffffffffffffffffffffffffffff1673ffffffffffffffffffffffffffffffffffffffff1673ffffffffffffffffffffffffffffffffffffffff168152602001908152602001600020600082825401925050819055508080600101915050610f3c565b50505b60006009600085815260200190815260200160002054905060016005805490500381141561104257600580548091906001900361103c91906134d7565b506110cb565b600060056001600580549050038154811061105957fe5b90600052602060002001549050806005838154811061107457fe5b906000526020600020018190555081600960008381526020019081526020016000208190555060058054809190600190036110af91906134d7565b5060006009600087815260200190815260200160002081905550505b60008360060160006101000a81548160ff0219169083151502179055507f769c308d4fdba3700f25352c34ea872c7dbe3a52475adf9650f609457ae71176848460060160019054906101000a900460ff1685600501546040518084815260200183151515158152602001828152602001935050505060405180910390a16000836005018190555050505050565b6000600a60008373ffffffffffffffffffffffffffffffffffffffff1673ffffffffffffffffffffffffffffffffffffffff168152602001908152602001600020549050919050565b6000806000806111b2600354611831565b809350819450829550505050826111cf576000935050505061125c565b610e10420381111561124a576000607890505b610960811015611248576111fd600354603c8302420361323c565b8094508195508296505050508380156112195750610e10420382105b1561122857610960905061123b565b8361123a57600094505050505061125c565b5b80806001019150506111e2565b505b600454828161125557fe5b0493505050505b90565b6000809054906101000a900473ffffffffffffffffffffffffffffffffffffffff1673ffffffffffffffffffffffffffffffffffffffff16632639e0b034836040518363ffffffff1660e01b8152600401808281526020019150506000604051808303818588803b1580156112d357600080fd5b505af11580156112e7573d6000803e3d6000fd5b505050505050565b60008060009054906101000a900473ffffffffffffffffffffffffffffffffffffffff1673ffffffffffffffffffffffffffffffffffffffff1663a80209736040518163ffffffff1660e01b815260040160206040518083038186803b15801561135857600080fd5b505afa15801561136c573d6000803e3d6000fd5b505050506040513d602081101561138257600080fd5b8101908080519060200190929190505050905090565b60608060008060008060008060006113ae613503565b600660008c815260200190815260200160002060405180610100016040529081600082018054600181600116156101000203166002900480601f0160208091040260200160405190810160405280929190818152602001828054600181600116156101000203166002900480156114665780601f1061143b57610100808354040283529160200191611466565b820191906000526020600020905b81548152906001019060200180831161144957829003601f168201915b50505050508152602001600182018054600181600116156101000203166002900480601f0160208091040260200160405190810160405280929190818152602001828054600181600116156101000203166002900480156115085780601f106114dd57610100808354040283529160200191611508565b820191906000526020600020905b8154815290600101906020018083116114eb57829003601f168201915b505050505081526020016002820160009054906101000a900473ffffffffffffffffffffffffffffffffffffffff1673ffffffffffffffffffffffffffffffffffffffff1673ffffffffffffffffffffffffffffffffffffffff1681526020016003820154815260200160048201548152602001600582015481526020016006820160009054906101000a900460ff161515151581526020016006820160019054906101000a900460ff1615151515815250509050806000015181602001518260400151836060015184608001518560a001518660c001518760e001518860600151670de0b6b3a76400006115fb6111a1565b8b60a00151028161160857fe5b046064028161161357fe5b04889850879750995099509950995099509950995099509950509193959799909294969850565b6060600580548060200260200160405190810160405280929190818152602001828054801561168857602002820191906000526020600020905b815481526020019060010190808311611674575b5050505050905090565b6060806060600860008573ffffffffffffffffffffffffffffffffffffffff1673ffffffffffffffffffffffffffffffffffffffff168152602001908152602001600020805480602002602001604051908101604052809291908181526020016000905b8282101561173c578382906000526020600020906002020160405180604001604052908160008201548152602001600182015481525050815260200190600101906116f6565b50505050905080516040519080825280602002602001820160405280156117725781602001602082028038833980820191505090505b50925080516040519080825280602002602001820160405280156117a55781602001602082028038833980820191505090505b50915060008090505b8151811015611824578181815181106117c357fe5b6020026020010151600001518482815181106117db57fe5b6020026020010181815250508181815181106117f357fe5b60200260200101516020015183828151811061180b57fe5b60200260200101818152505080806001019150506117ae565b5082829250925050915091565b60008060008060009054906101000a900473ffffffffffffffffffffffffffffffffffffffff1673ffffffffffffffffffffffffffffffffffffffff16633fcad964856040518263ffffffff1660e01b81526004018082815260200191505060606040518083038186803b1580156118a857600080fd5b505afa1580156118bc573d6000803e3d6000fd5b505050506040513d60608110156118d257600080fd5b810190808051906020019092919080519060200190929190805190602001909291905050509250925092509193909250565b60008060009054906101000a900473ffffffffffffffffffffffffffffffffffffffff1673ffffffffffffffffffffffffffffffffffffffff1663a80209736040518163ffffffff1660e01b815260040160206040518083038186803b15801561196d57600080fd5b505afa158015611981573d6000803e3d6000fd5b505050506040513d602081101561199757600080fd5b810190808051906020019092919050505090506000821115611b1c578073ffffffffffffffffffffffffffffffffffffffff166323b872dd3330856040518463ffffffff1660e01b8152600401808473ffffffffffffffffffffffffffffffffffffffff1673ffffffffffffffffffffffffffffffffffffffff1681526020018373ffffffffffffffffffffffffffffffffffffffff1673ffffffffffffffffffffffffffffffffffffffff1681526020018281526020019350505050602060405180830381600087803b158015611a6e57600080fd5b505af1158015611a82573d6000803e3d6000fd5b505050506040513d6020811015611a9857600080fd5b8101908080519060200190929190505050611b1b576040517f08c379a000000000000000000000000000000000000000000000000000000000815260040180806020018281038252600f8152602001807f5472616e73666572206661696c6564000000000000000000000000000000000081525060200191505060405180910390fd5b5b8073ffffffffffffffffffffffffffffffffffffffff16633fff28168888888888886040518763ffffffff1660e01b81526004018080602001806020018581526020018481526020018381038352898982818152602001925080828437600081840152601f19601f8201169050808301925050508381038252878782818152602001925080828437600081840152601f19601f82011690508083019250505098505050505050505050600060405180830381600087803b158015611bdf57600080fd5b505af1158015611bf3573d6000803e3d6000fd5b5050505050505050505050565b60045481565b60008060008060009054906101000a900473ffffffffffffffffffffffffffffffffffffffff1673ffffffffffffffffffffffffffffffffffffffff16635f059f3e86866040518363ffffffff1660e01b8152600401808381526020018281526020019250505060606040518083038186803b158015611c8557600080fd5b505afa158015611c99573d6000803e3d6000fd5b505050506040513d6060811015611caf57600080fd5b810190808051906020019092919080519060200190929190805190602001909291905050509250925092509250925092565b6000806000809054906101000a900473ffffffffffffffffffffffffffffffffffffffff1673ffffffffffffffffffffffffffffffffffffffff1663a80209736040518163ffffffff1660e01b815260040160206040518083038186803b158015611d4b57600080fd5b505afa158015611d5f573d6000803e3d6000fd5b505050506040513d6020811015611d7557600080fd5b810190808051906020019092919050505090508073ffffffffffffffffffffffffffffffffffffffff166323b872dd3330670de0b6b3a76400006040518463ffffffff1660e01b8152600401808473ffffffffffffffffffffffffffffffffffffffff1673ffffffffffffffffffffffffffffffffffffffff1681526020018373ffffffffffffffffffffffffffffffffffffffff1673ffffffffffffffffffffffffffffffffffffffff1681526020018281526020019350505050602060405180830381600087803b158015611e4b57600080fd5b505af1158015611e5f573d6000803e3d6000fd5b505050506040513d6020811015611e7557600080fd5b8101908080519060200190929190505050611ef8576040517f08c379a00000000000000000000000000000000000000000000000000000000081526004018080602001828103825260178152602001807f56697267696e20536163726966696365204661696c656400000000000000000081525060200191505060405180910390fd5b601e8310611f0557600080fd5b600254915060026000815480929190600101919050555060405180610100016040528089898080601f016020809104026020016040519081016040528093929190818152602001838380828437600081840152601f19601f82011690508083019250505050505050815260200187878080601f016020809104026020016040519081016040528093929190818152602001838380828437600081840152601f19601f8201169050808301925050505050505081526020013373ffffffffffffffffffffffffffffffffffffffff168152602001858152602001620151808502420181526020016000815260200160011515815260200160001515815250600660008481526020019081526020016000206000820151816000019080519060200190612031929190613562565b50602082015181600101908051906020019061204e929190613562565b5060408201518160020160006101000a81548173ffffffffffffffffffffffffffffffffffffffff021916908373ffffffffffffffffffffffffffffffffffffffff160217905550606082015181600301556080820151816004015560a0820151816005015560c08201518160060160006101000a81548160ff02191690831515021790555060e08201518160060160016101000a81548160ff021916908315150217905550905050600580549050600960008481526020019081526020016000208190555060058290806001815401808255809150509060018203906000526020600020016000909192909190915055506121486135e2565b604051806040016040528084815260200160008152509050600860003373ffffffffffffffffffffffffffffffffffffffff1673ffffffffffffffffffffffffffffffffffffffff168152602001908152602001600020819080600181540180825580915050906001820390600052602060002090600202016000909192909190915060008201518160000155602082015181600101555050507f2139066e053196905e5351420c0068d9eaa024551a0b8198eeb4cbaa120c97d1838a8a8a8a8a8a6040518088815260200180602001806020018581526020018481526020018381038352898982818152602001925080828437600081840152601f19601f8201169050808301925050508381038252878782818152602001925080828437600081840152601f19601f820116905080830192505050995050505050505050505060405180910390a150509695505050505050565b60008060009054906101000a900473ffffffffffffffffffffffffffffffffffffffff1673ffffffffffffffffffffffffffffffffffffffff1663a80209736040518163ffffffff1660e01b815260040160206040518083038186803b15801561230657600080fd5b505afa15801561231a573d6000803e3d6000fd5b505050506040513d602081101561233057600080fd5b810190808051906020019092919050505090508073ffffffffffffffffffffffffffffffffffffffff166323b872dd3330856040518463ffffffff1660e01b8152600401808473ffffffffffffffffffffffffffffffffffffffff1673ffffffffffffffffffffffffffffffffffffffff1681526020018373ffffffffffffffffffffffffffffffffffffffff1673ffffffffffffffffffffffffffffffffffffffff1681526020018281526020019350505050602060405180830381600087803b1580156123fe57600080fd5b505af1158015612412573d6000803e3d6000fd5b505050506040513d602081101561242857600080fd5b81019080805190602001909291905050506124ab576040517f08c379a000000000000000000000000000000000000000000000000000000000815260040180806020018281038252600f8152602001807f5472616e73666572206661696c6564000000000000000000000000000000000081525060200191505060405180910390fd5b8073ffffffffffffffffffffffffffffffffffffffff1663752d49a184846040518363ffffffff1660e01b81526004018083815260200182815260200192505050600060405180830381600087803b15801561250657600080fd5b505af115801561251a573d6000803e3d6000fd5b50505050505050565b600061252d613503565b6006600084815260200190815260200160002060405180610100016040529081600082018054600181600116156101000203166002900480601f0160208091040260200160405190810160405280929190818152602001828054600181600116156101000203166002900480156125e55780601f106125ba576101008083540402835291602001916125e5565b820191906000526020600020905b8154815290600101906020018083116125c857829003601f168201915b50505050508152602001600182018054600181600116156101000203166002900480601f0160208091040260200160405190810160405280929190818152602001828054600181600116156101000203166002900480156126875780601f1061265c57610100808354040283529160200191612687565b820191906000526020600020905b81548152906001019060200180831161266a57829003601f168201915b505050505081526020016002820160009054906101000a900473ffffffffffffffffffffffffffffffffffffffff1673ffffffffffffffffffffffffffffffffffffffff1673ffffffffffffffffffffffffffffffffffffffff1681526020016003820154815260200160048201548152602001600582015481526020016006820160009054906101000a900460ff161515151581526020016006820160019054906101000a900460ff16151515158152505090508060600151670de0b6b3a76400006127526111a1565b8360a00151028161275f57fe5b046064028161276a57fe5b04915050919050565b600160009054906101000a900473ffffffffffffffffffffffffffffffffffffffff1681565b60035481565b600160009054906101000a900473ffffffffffffffffffffffffffffffffffffffff1673ffffffffffffffffffffffffffffffffffffffff163373ffffffffffffffffffffffffffffffffffffffff1614612862576040517f08c379a00000000000000000000000000000000000000000000000000000000081526004018080602001828103825260138152602001807f53656e646572206973206e6f74206f776e65720000000000000000000000000081525060200191505060405180910390fd5b806000806101000a81548173ffffffffffffffffffffffffffffffffffffffff021916908373ffffffffffffffffffffffffffffffffffffffff16021790555050565b600081116128b257600080fd5b60006006600084815260200190815260200160002090508060060160009054906101000a900460ff166128e457600080fd5b60008060009054906101000a900473ffffffffffffffffffffffffffffffffffffffff1673ffffffffffffffffffffffffffffffffffffffff1663a80209736040518163ffffffff1660e01b815260040160206040518083038186803b15801561294d57600080fd5b505afa158015612961573d6000803e3d6000fd5b505050506040513d602081101561297757600080fd5b810190808051906020019092919050505090508073ffffffffffffffffffffffffffffffffffffffff166323b872dd3330866040518463ffffffff1660e01b8152600401808473ffffffffffffffffffffffffffffffffffffffff1673ffffffffffffffffffffffffffffffffffffffff1681526020018373ffffffffffffffffffffffffffffffffffffffff1673ffffffffffffffffffffffffffffffffffffffff1681526020018281526020019350505050602060405180830381600087803b158015612a4557600080fd5b505af1158015612a59573d6000803e3d6000fd5b505050506040513d6020811015612a6f57600080fd5b8101908080519060200190929190505050612af2576040517f08c379a000000000000000000000000000000000000000000000000000000000815260040180806020018281038252600e8152602001807f46756e64696e67204661696c656400000000000000000000000000000000000081525060200191505060405180910390fd5b612afa6135e2565b6040518060400160405280868152602001858152509050600860003373ffffffffffffffffffffffffffffffffffffffff1673ffffffffffffffffffffffffffffffffffffffff16815260200190815260200160002081908060018154018082558091505090600182039060005260206000209060020201600090919290919091506000820151816000015560208201518160010155505050838360050160008282540192505081905550612bad6135fc565b60405180604001604052803373ffffffffffffffffffffffffffffffffffffffff16815260200186815250905060076000878152602001908152602001600020819080600181540180825580915050906001820390600052602060002090600202016000909192909190915060008201518160000160006101000a81548173ffffffffffffffffffffffffffffffffffffffff021916908373ffffffffffffffffffffffffffffffffffffffff160217905550602082015181600101555050507f5b47478b1a9bcccc0683800f537f513a17c66ebb7a9b7e2773053b37fc83bb05863387604051808481526020018373ffffffffffffffffffffffffffffffffffffffff1673ffffffffffffffffffffffffffffffffffffffff168152602001828152602001935050505060405180910390a1505050505050565b60008060009054906101000a900473ffffffffffffffffffffffffffffffffffffffff1673ffffffffffffffffffffffffffffffffffffffff1663a80209736040518163ffffffff1660e01b815260040160206040518083038186803b158015612d5157600080fd5b505afa158015612d65573d6000803e3d6000fd5b505050506040513d6020811015612d7b57600080fd5b810190808051906020019092919050505090506000600a60003373ffffffffffffffffffffffffffffffffffffffff1673ffffffffffffffffffffffffffffffffffffffff1681526020019081526020016000205490506000600a60003373ffffffffffffffffffffffffffffffffffffffff1673ffffffffffffffffffffffffffffffffffffffff168152602001908152602001600020819055508173ffffffffffffffffffffffffffffffffffffffff1663a9059cbb33836040518363ffffffff1660e01b8152600401808373ffffffffffffffffffffffffffffffffffffffff1673ffffffffffffffffffffffffffffffffffffffff16815260200182815260200192505050602060405180830381600087803b158015612e9e57600080fd5b505af1158015612eb2573d6000803e3d6000fd5b505050506040513d6020811015612ec857600080fd5b8101908080519060200190929190505050505050565b6000809054906101000a900473ffffffffffffffffffffffffffffffffffffffff1673ffffffffffffffffffffffffffffffffffffffff1663bb19e2963487878787876040518763ffffffff1660e01b81526004018080602001806020018481526020018381038352888882818152602001925080828437600081840152601f19601f8201169050808301925050508381038252868682818152602001925080828437600081840152601f19601f8201169050808301925050509750505050505050506000604051808303818588803b158015612fba57600080fd5b505af1158015612fce573d6000803e3d6000fd5b50505050505050505050565b60608060076000848152602001908152602001600020805480602002602001604051908101604052809291908181526020016000905b828210156130a257838290600052602060002090600202016040518060400160405290816000820160009054906101000a900473ffffffffffffffffffffffffffffffffffffffff1673ffffffffffffffffffffffffffffffffffffffff1673ffffffffffffffffffffffffffffffffffffffff16815260200160018201548152505081526020019060010190613010565b50505050905080516040519080825280602002602001820160405280156130d85781602001602082028038833980820191505090505b50915060008090505b8151811015613155578181815181106130f657fe5b60200260200101516000015183828151811061310e57fe5b602002602001019073ffffffffffffffffffffffffffffffffffffffff16908173ffffffffffffffffffffffffffffffffffffffff168152505080806001019150506130e1565b5050919050565b6000600160025403905090565b60008060008060009054906101000a900473ffffffffffffffffffffffffffffffffffffffff1673ffffffffffffffffffffffffffffffffffffffff1663d09cc57e856040518263ffffffff1660e01b81526004018082815260200191505060606040518083038186803b1580156131e057600080fd5b505afa1580156131f4573d6000803e3d6000fd5b505050506040513d606081101561320a57600080fd5b810190808051906020019092919080519060200190929190805190602001909291905050509250925092509193909250565b60008060008060009054906101000a900473ffffffffffffffffffffffffffffffffffffffff1673ffffffffffffffffffffffffffffffffffffffff1663d269a83c86866040518363ffffffff1660e01b8152600401808381526020018281526020019250505060606040518083038186803b1580156132bb57600080fd5b505afa1580156132cf573d6000803e3d6000fd5b505050506040513d60608110156132e557600080fd5b810190808051906020019092919080519060200190929190805190602001909291905050509250925092509250925092565b600160009054906101000a900473ffffffffffffffffffffffffffffffffffffffff1673ffffffffffffffffffffffffffffffffffffffff163373ffffffffffffffffffffffffffffffffffffffff16146133da576040517f08c379a00000000000000000000000000000000000000000000000000000000081526004018080602001828103825260138152602001807f53656e646572206973206e6f74206f776e65720000000000000000000000000081525060200191505060405180910390fd5b7f8be0079c531659141344cd1fd0a4f28419497f9722a3daafe3b4186f6b6457e0600160009054906101000a900473ffffffffffffffffffffffffffffffffffffffff1682604051808373ffffffffffffffffffffffffffffffffffffffff1673ffffffffffffffffffffffffffffffffffffffff1681526020018273ffffffffffffffffffffffffffffffffffffffff1673ffffffffffffffffffffffffffffffffffffffff1681526020019250505060405180910390a180600160006101000a81548173ffffffffffffffffffffffffffffffffffffffff021916908373ffffffffffffffffffffffffffffffffffffffff16021790555050565b8154818355818111156134fe578183600052602060002091820191016134fd919061362c565b5b505050565b6040518061010001604052806060815260200160608152602001600073ffffffffffffffffffffffffffffffffffffffff1681526020016000815260200160008152602001600081526020016000151581526020016000151581525090565b828054600181600116156101000203166002900490600052602060002090601f016020900481019282601f106135a357805160ff19168380011785556135d1565b828001600101855582156135d1579182015b828111156135d05782518255916020019190600101906135b5565b5b5090506135de919061362c565b5090565b604051806040016040528060008152602001600081525090565b6040518060400160405280600073ffffffffffffffffffffffffffffffffffffffff168152602001600081525090565b61364e91905b8082111561364a576000816000905550600101613632565b5090565b9056fea165627a7a72305820021b5a88f750d1ddce4c9e2386be654fb40932a525dca3915b54f1e8d41da80b0029",
  "source": "pragma solidity >=0.4.21;\nimport \"usingtellor/contracts/UsingTellor.sol\";\n\n\ncontract TellorFund is UsingTellor{\n\n\tuint private proposalCount;\n\tuint public tellorPriceID;\n\tuint public granularity;\n\tuint[] openProposals;\n\n\tstruct Proposal{\n\t\tstring title;\n\t\tstring description;\n\t\taddress owner;\n\t\tuint minAmountUSD;\n\t\tuint expirationDate;\n\t\tuint trbBalance;\n\t\tbool open;\n\t\tbool passed;\n\t}\n\n\tstruct Funder{\n\t\taddress funder;\n\t\tuint amount;\n\t}\n\n\tstruct Statement{\n\t\tuint id;\n\t\tuint amount;\n\t}\n\tmapping(uint => Proposal) idToProposal;\n\tmapping(uint => Funder[]) idToFunders;\n\tmapping(address => Statement[]) addressToStatements;\n\tmapping(uint => uint) idToOpenIndex;\n\tmapping(address => uint) availableForWithdraw;\n\n\tevent NewProposal(uint _id,string _title,string _desc,uint _minAmountUSD,uint _daystilComplete);\n\tevent ProposalFunded(uint _id, address _funder, uint _amount);\n\tevent ProposalClosed(uint _id, bool _funded, uint _amount);\n\n    constructor(address _userContract, uint _tellorPriceID, uint _granularity) public UsingTellor(_userContract){\n    \tproposalCount = 1;\n    \ttellorPriceID = _tellorPriceID;\n    \tgranularity = _granularity;\n    \topenProposals.length++;\n    }\n\n\n    //be sure to approve first\n\tfunction createProposal(string calldata _title, string calldata _desc,uint _minAmountUSD, uint _daystilComplete) external returns(uint _id){\n\t\tTellor _tellor = Tellor(tellorUserContract.tellorStorageAddress());\n        require(_tellor.transferFrom(msg.sender,address(this),1e18), \"Virgin Sacrifice Failed\");\n\t\trequire(_daystilComplete < 30);\n\t\t_id = proposalCount;\n\t\tproposalCount++;\n\t\tidToProposal[_id] = Proposal({\n\t\t\ttitle:_title,\n\t\t\tdescription:_desc,\n\t\t\towner:msg.sender,\n\t\t\tminAmountUSD:_minAmountUSD,\n\t\t\texpirationDate:now + _daystilComplete * 86400,\n\t\t\ttrbBalance:0,\n\t\t\topen:true,\n\t\t\tpassed:false\n\t\t});\n\t\tidToOpenIndex[_id] = openProposals.length;\n\t\topenProposals.push(_id);\n\t\tStatement memory thisStatement= Statement({\n        \tid:_id,\n        \tamount:0\n        });\n        addressToStatements[msg.sender].push(thisStatement);\n\n\n\temit NewProposal(_id,_title,_desc,_minAmountUSD,_daystilComplete);\n\t}\n\n\tfunction fund(uint _id, uint _amountTRB) external {\n\t\trequire(_amountTRB > 0);\n\t\tProposal storage thisProp = idToProposal[_id];\n\t\trequire(thisProp.open);\n\t\tTellor _tellor = Tellor(tellorUserContract.tellorStorageAddress());\n        require(_tellor.transferFrom(msg.sender,address(this),_amountTRB), \"Funding Failed\");\n        Statement memory thisStatement= Statement({\n        \tid:_id,\n        \tamount:_amountTRB\n        \t});\n        addressToStatements[msg.sender].push(thisStatement);\n        thisProp.trbBalance += _amountTRB;\n\n        Funder memory thisFunder = Funder({\n        \tfunder:msg.sender,\n        \tamount:_amountTRB\n        });\n        idToFunders[_id].push(thisFunder);\n        emit ProposalFunded(_id,msg.sender,_amountTRB);\n\n\t}\n\n\tfunction closeProposal(uint _id) external{\n\t\tProposal storage thisProp = idToProposal[_id];\n\t\trequire(thisProp.open);\n\t\trequire(_id > 0);\n\t\trequire(now > thisProp.expirationDate);\n\t\tTellor _tellor = Tellor(tellorUserContract.tellorStorageAddress());\n\t\tif(percentFunded(_id) >= 100){\n\t\t\tthisProp.passed = true;\n\t\t\t_tellor.transfer(thisProp.owner,thisProp.trbBalance);\n\t\t}\n\t\telse{\n\t\t\tFunder[] storage theseFunders = idToFunders[_id];\n\t\t\tfor(uint i=0;i < theseFunders.length;i++){\n\t\t\t\tavailableForWithdraw[theseFunders[i].funder] += theseFunders[i].amount; \n\t\t\t}\n\t\t}\n\t\tuint _index = idToOpenIndex[_id];\n\t\tif(_index == openProposals.length - 1){\n\t\t\topenProposals.length--;\n\t\t}\n\t\telse{\n\t\t\tuint _lastId = openProposals[openProposals.length - 1];\n\t\t\topenProposals[_index] = _lastId;\n\t\t\tidToOpenIndex[_lastId] = _index;\n\t\t\topenProposals.length--;\n\t\t\tidToOpenIndex[_id] = 0;\n\t\t}\n\t\tthisProp.open = false;\n\t\temit ProposalClosed(_id,thisProp.passed,thisProp.trbBalance);\n\t\tthisProp.trbBalance = 0;\n\t}\n\n \tfunction withdrawMoney() external{\n \t\tTellor _tellor = Tellor(tellorUserContract.tellorStorageAddress());\n \t\tuint _amt = availableForWithdraw[msg.sender];\n \t\tavailableForWithdraw[msg.sender] =0;\n\t\t_tellor.transfer(msg.sender,_amt);\n \t}\n\n\tfunction getAllOpenProposals() external view returns(uint[] memory){\n\t\treturn openProposals;\n\t}\n\n\tfunction getAvailableForWithdraw(address _user) external returns(uint){\n\t\treturn availableForWithdraw[_user];\n\t}\n\n\tfunction getProposalById(uint _id) external view returns(string memory,string memory,address,uint,uint,uint,bool,bool,uint){\n\t\tProposal memory t = idToProposal[_id];\n\t\treturn (t.title,t.description,t.owner,t.minAmountUSD,t.expirationDate,t.trbBalance,t.open,t.passed,100 * (t.trbBalance* viewTellorPrice()/1e18) / t.minAmountUSD);\n\t}\n\n\n\tfunction getProposalsByAddress(address _funder) public view returns(uint[] memory propArray,uint[] memory amountArray){\n\t\tStatement[] memory theseStatements = addressToStatements[_funder];\n\t\tpropArray = new uint[](theseStatements.length);\n\t\tamountArray = new uint[](theseStatements.length);\n\t\tfor(uint i=0;i < theseStatements.length;i++){\n\t\t\tpropArray[i] = theseStatements[i].id;\n\t\t\tamountArray[i]= theseStatements[i].amount;\n\t\t}\n\t\treturn (propArray,amountArray);\n\t}\n\n\tfunction getAddressesById(uint _id) public view returns(address[] memory addArray){\n\t\t\tFunder[] memory theseFunders = idToFunders[_id];\n\t\t\taddArray = new address[](theseFunders.length);\n\t\t\tfor(uint i=0;i < theseFunders.length;i++){\n\t\t\t\taddArray[i] = theseFunders[i].funder;\n\t\t\t}\n\t}\n\n\tfunction percentFunded(uint _id) public view returns(uint){\n\t\t\tProposal memory thisProp = idToProposal[_id];\n\t\t\treturn  100 * (thisProp.trbBalance* viewTellorPrice()/1e18) / thisProp.minAmountUSD ;\n\t}\n\n\tfunction viewTellorPrice() public view returns(uint){\n\t\tbool _didget;\n\t\tuint _value;\n\t\tuint _timestamp;\n\t\t(_didget,_value,_timestamp) = getCurrentValue(tellorPriceID);\n\t\tif(!_didget){\n\t\t\treturn 0;\n\t\t}\n\t\telse if(_timestamp > now - 60 minutes){\n\t\t\tfor(uint i=120;i< 2400;i++){\n\t\t\t\t(_didget,_value,_timestamp) = getAnyDataAfter(tellorPriceID,now - i * 60);\n\t\t\t\tif(_didget && _timestamp < now - 60 minutes){\n\t\t\t\t\ti = 2400;\n\t\t\t\t}\n\t\t\t\telse if(!_didget){\n\t\t\t\t\treturn 0;\n\t\t\t\t}\n\t\t\t}\n\n\t\t}\n\t\treturn _value/granularity;\n\t}\n\n\tfunction getProposalCount() public view returns(uint){\n\t\treturn proposalCount -1;\n\t}\n\tfunction tellorAddress() public view returns(address){\n\t\treturn tellorUserContract.tellorStorageAddress();\n\t}\n}\n",
  "sourcePath": "C:/company/code/tellor.fund/contracts/TellorFund.sol",
  "compiler": {
    "name": "solc",
    "version": "0.5.8+commit.23d335f2.Emscripten.clang"
  },
  "schemaVersion": "3.0.16",
  "updatedAt": "2020-02-14T14:54:37.820Z",
  "devdoc": {
    "methods": {
      "addTip(uint256,uint256)": {
        "details": "Allows the user to tip miners for the specified request using Tributes\r",
        "params": {
          "_requestId": "to tip\r",
          "_tip": "amount\r"
        }
      },
      "addTipWithEther(uint256)": {
        "details": "Allows user to add tip with Ether by sending the ETH to the userContract and exchanging it for Tributes\r at the price specified by the userContract owner.\r",
        "params": {
          "_requestId": "to tip\r"
        }
      },
      "getAnyDataAfter(uint256,uint256)": {
        "details": "Allows the user to get the first value for the requestId after the specified timestamp\r",
        "params": {
          "_requestId": "is the requestId to look up the value for\r",
          "_timestamp": "after which to search for first verified value\r"
        },
        "return": "bool true if it is able to retreive a value, the value, and the value's timestamp\r"
      },
      "getCurrentValue(uint256)": {
        "details": "Allows the user to get the latest value for the requestId specified\r",
        "params": {
          "_requestId": "is the requestId to look up the value for\r"
        },
        "return": "bool true if it is able to retreive a value, the value, and the value's timestamp\r"
      },
      "getFirstVerifiedDataAfter(uint256,uint256)": {
        "details": "Allows the user to get the first verified value for the requestId after the specified timestamp\r",
        "params": {
          "_requestId": "is the requestId to look up the value for\r",
          "_timestamp": "after which to search for first verified value\r"
        },
        "return": "bool true if it is able to retreive a value, the value, and the value's timestamp, the timestamp after\r which it searched for the first verified value\r"
      },
      "requestData(string,string,uint256,uint256)": {
        "details": "Allows the user to submit a request for data to the oracle using Tributes\r Allowing this prevents us from increasing spread too high (since if we set the price too hight\r users will just go to an exchange and get tokens from there)\r",
        "params": {
          "_granularity": "is the number of decimals miners should include on the submitted value\r",
          "_request": "string API being requested to be mined\r",
          "_symbol": "is the short string symbol for the api request\r",
          "_tip": "amount the requester is willing to pay to be get on queue. Miners\r mine the onDeckQueryHash, or the api with the highest payout pool\r"
        }
      },
      "requestDataWithEther(string,string,uint256)": {
        "details": "Allows the user to submit a request for data to the oracle using ETH\r",
        "params": {
          "_granularity": "is the number of decimals miners should include on the submitted value\r",
          "_request": "string API being requested to be mined\r",
          "_symbol": "is the short string symbol for the api request\r"
        }
      },
      "resultFor(bytes32)": {
        "details": "Allows the user to get the latest value for the requestId specified using the \r ADO specification for the standard inteface for price oracles\r",
        "params": {
          "_bytesId": "is the ADO standarized bytes32 price/key value pair identifier\r"
        },
        "return": "the timestamp, outcome or value/ and the status code (for retreived, null, etc...)\r"
      },
      "setUserContract(address)": {
        "details": "allows owner to set the user contract address\r",
        "params": {
          "_userContract": "address\r"
        }
      },
      "transferOwnership(address)": {
        "details": "allows owner to transfer ownership\r",
        "params": {
          "_newOwner": "address\r"
        }
      }
    }
  },
  "userdoc": {
    "methods": {}
  }
}