{
  "contractName": "UsingTellor",
  "abi": [
    {
      "constant": true,
      "inputs": [],
      "name": "owner",
      "outputs": [
        {
          "name": "",
          "type": "address"
        }
      ],
      "payable": false,
      "stateMutability": "view",
      "type": "function"
    },
    {
      "inputs": [
        {
          "name": "_userContract",
          "type": "address"
        }
      ],
      "payable": false,
      "stateMutability": "nonpayable",
      "type": "constructor"
    },
    {
      "anonymous": false,
      "inputs": [
        {
          "indexed": false,
          "name": "_previousOwner",
          "type": "address"
        },
        {
          "indexed": false,
          "name": "_newOwner",
          "type": "address"
        }
      ],
      "name": "OwnershipTransferred",
      "type": "event"
    },
    {
      "constant": true,
      "inputs": [
        {
          "name": "_requestId",
          "type": "uint256"
        }
      ],
      "name": "getCurrentValue",
      "outputs": [
        {
          "name": "ifRetrieve",
          "type": "bool"
        },
        {
          "name": "value",
          "type": "uint256"
        },
        {
          "name": "_timestampRetrieved",
          "type": "uint256"
        }
      ],
      "payable": false,
      "stateMutability": "view",
      "type": "function"
    },
    {
      "constant": true,
      "inputs": [
        {
          "name": "_requestId",
          "type": "uint256"
        },
        {
          "name": "_timestamp",
          "type": "uint256"
        }
      ],
      "name": "getFirstVerifiedDataAfter",
      "outputs": [
        {
          "name": "",
          "type": "bool"
        },
        {
          "name": "",
          "type": "uint256"
        },
        {
          "name": "_timestampRetrieved",
          "type": "uint256"
        }
      ],
      "payable": false,
      "stateMutability": "view",
      "type": "function"
    },
    {
      "constant": true,
      "inputs": [
        {
          "name": "_requestId",
          "type": "uint256"
        },
        {
          "name": "_timestamp",
          "type": "uint256"
        }
      ],
      "name": "getAnyDataAfter",
      "outputs": [
        {
          "name": "_ifRetrieve",
          "type": "bool"
        },
        {
          "name": "_value",
          "type": "uint256"
        },
        {
          "name": "_timestampRetrieved",
          "type": "uint256"
        }
      ],
      "payable": false,
      "stateMutability": "view",
      "type": "function"
    },
    {
      "constant": false,
      "inputs": [
        {
          "name": "_request",
          "type": "string"
        },
        {
          "name": "_symbol",
          "type": "string"
        },
        {
          "name": "_granularity",
          "type": "uint256"
        },
        {
          "name": "_tip",
          "type": "uint256"
        }
      ],
      "name": "requestData",
      "outputs": [],
      "payable": false,
      "stateMutability": "nonpayable",
      "type": "function"
    },
    {
      "constant": false,
      "inputs": [
        {
          "name": "_request",
          "type": "string"
        },
        {
          "name": "_symbol",
          "type": "string"
        },
        {
          "name": "_granularity",
          "type": "uint256"
        },
        {
          "name": "_tip",
          "type": "uint256"
        }
      ],
      "name": "requestDataWithEther",
      "outputs": [],
      "payable": true,
      "stateMutability": "payable",
      "type": "function"
    },
    {
      "constant": false,
      "inputs": [
        {
          "name": "_requestId",
          "type": "uint256"
        },
        {
          "name": "_tip",
          "type": "uint256"
        }
      ],
      "name": "addTip",
      "outputs": [],
      "payable": false,
      "stateMutability": "nonpayable",
      "type": "function"
    },
    {
      "constant": false,
      "inputs": [
        {
          "name": "_requestId",
          "type": "uint256"
        },
        {
          "name": "_tip",
          "type": "uint256"
        }
      ],
      "name": "addTipWithEther",
      "outputs": [],
      "payable": true,
      "stateMutability": "payable",
      "type": "function"
    },
    {
      "constant": false,
      "inputs": [
        {
          "name": "_userContract",
          "type": "address"
        }
      ],
      "name": "setUserContract",
      "outputs": [],
      "payable": false,
      "stateMutability": "nonpayable",
      "type": "function"
    },
    {
      "constant": false,
      "inputs": [
        {
          "name": "_newOwner",
          "type": "address"
        }
      ],
      "name": "transferOwnership",
      "outputs": [],
      "payable": false,
      "stateMutability": "nonpayable",
      "type": "function"
    }
  ],
  "bytecode": "0x608060405234801561001057600080fd5b506040516020806112a78339810180604052602081101561003057600080fd5b8101908080519060200190929190505050806000806101000a81548173ffffffffffffffffffffffffffffffffffffffff021916908373ffffffffffffffffffffffffffffffffffffffff16021790555033600160006101000a81548173ffffffffffffffffffffffffffffffffffffffff021916908373ffffffffffffffffffffffffffffffffffffffff160217905550506111d5806100d26000396000f3fe6080604052600436106100915760003560e01c80638da5cb5b116100595780638da5cb5b14610378578063a1206d4e146103cf578063d269a83c14610420578063e723e3b51461048b578063f2fde38b146104c357610091565b80633fcad964146100965780633fff2816146100f75780634482e6f3146101e65780635f059f3e146102c8578063752d49a114610333575b600080fd5b3480156100a257600080fd5b506100cf600480360360208110156100b957600080fd5b8101908080359060200190929190505050610514565b6040518084151515158152602001838152602001828152602001935050505060405180910390f35b34801561010357600080fd5b506101e46004803603608081101561011a57600080fd5b810190808035906020019064010000000081111561013757600080fd5b82018360208201111561014957600080fd5b8035906020019184600183028401116401000000008311171561016b57600080fd5b90919293919293908035906020019064010000000081111561018c57600080fd5b82018360208201111561019e57600080fd5b803590602001918460018302840111640100000000831117156101c057600080fd5b909192939192939080359060200190929190803590602001909291905050506105e7565b005b6102c6600480360360808110156101fc57600080fd5b810190808035906020019064010000000081111561021957600080fd5b82018360208201111561022b57600080fd5b8035906020019184600183028401116401000000008311171561024d57600080fd5b90919293919293908035906020019064010000000081111561026e57600080fd5b82018360208201111561028057600080fd5b803590602001918460018302840111640100000000831117156102a257600080fd5b909192939192939080359060200190929190803590602001909291905050506108e3565b005b3480156102d457600080fd5b5061030b600480360360408110156102eb57600080fd5b8101908080359060200190929190803590602001909291905050506109e8565b6040518084151515158152602001838152602001828152602001935050505060405180910390f35b34801561033f57600080fd5b506103766004803603604081101561035657600080fd5b810190808035906020019092919080359060200190929190505050610ac3565b005b34801561038457600080fd5b5061038d610d49565b604051808273ffffffffffffffffffffffffffffffffffffffff1673ffffffffffffffffffffffffffffffffffffffff16815260200191505060405180910390f35b3480156103db57600080fd5b5061041e600480360360208110156103f257600080fd5b81019080803573ffffffffffffffffffffffffffffffffffffffff169060200190929190505050610d6f565b005b34801561042c57600080fd5b506104636004803603604081101561044357600080fd5b810190808035906020019092919080359060200190929190505050610e75565b6040518084151515158152602001838152602001828152602001935050505060405180910390f35b6104c1600480360360408110156104a157600080fd5b810190808035906020019092919080359060200190929190505050610f50565b005b3480156104cf57600080fd5b50610512600480360360208110156104e657600080fd5b81019080803573ffffffffffffffffffffffffffffffffffffffff169060200190929190505050610fe9565b005b60008060008060009054906101000a900473ffffffffffffffffffffffffffffffffffffffff1673ffffffffffffffffffffffffffffffffffffffff16633fcad964856040518263ffffffff1660e01b81526004018082815260200191505060606040518083038186803b15801561058b57600080fd5b505afa15801561059f573d6000803e3d6000fd5b505050506040513d60608110156105b557600080fd5b810190808051906020019092919080519060200190929190805190602001909291905050509250925092509193909250565b60008060009054906101000a900473ffffffffffffffffffffffffffffffffffffffff1673ffffffffffffffffffffffffffffffffffffffff1663a80209736040518163ffffffff1660e01b815260040160206040518083038186803b15801561065057600080fd5b505afa158015610664573d6000803e3d6000fd5b505050506040513d602081101561067a57600080fd5b8101908080519060200190929190505050905060008211156107ff578073ffffffffffffffffffffffffffffffffffffffff166323b872dd3330856040518463ffffffff1660e01b8152600401808473ffffffffffffffffffffffffffffffffffffffff1673ffffffffffffffffffffffffffffffffffffffff1681526020018373ffffffffffffffffffffffffffffffffffffffff1673ffffffffffffffffffffffffffffffffffffffff1681526020018281526020019350505050602060405180830381600087803b15801561075157600080fd5b505af1158015610765573d6000803e3d6000fd5b505050506040513d602081101561077b57600080fd5b81019080805190602001909291905050506107fe576040517f08c379a000000000000000000000000000000000000000000000000000000000815260040180806020018281038252600f8152602001807f5472616e73666572206661696c6564000000000000000000000000000000000081525060200191505060405180910390fd5b5b8073ffffffffffffffffffffffffffffffffffffffff16633fff28168888888888886040518763ffffffff1660e01b81526004018080602001806020018581526020018481526020018381038352898982818152602001925080828437600081840152601f19601f8201169050808301925050508381038252878782818152602001925080828437600081840152601f19601f82011690508083019250505098505050505050505050600060405180830381600087803b1580156108c257600080fd5b505af11580156108d6573d6000803e3d6000fd5b5050505050505050505050565b6000809054906101000a900473ffffffffffffffffffffffffffffffffffffffff1673ffffffffffffffffffffffffffffffffffffffff16634482e6f3348888888888886040518863ffffffff1660e01b81526004018080602001806020018581526020018481526020018381038352898982818152602001925080828437600081840152601f19601f8201169050808301925050508381038252878782818152602001925080828437600081840152601f19601f820116905080830192505050985050505050505050506000604051808303818588803b1580156109c757600080fd5b505af11580156109db573d6000803e3d6000fd5b5050505050505050505050565b60008060008060009054906101000a900473ffffffffffffffffffffffffffffffffffffffff1673ffffffffffffffffffffffffffffffffffffffff16635f059f3e86866040518363ffffffff1660e01b8152600401808381526020018281526020019250505060606040518083038186803b158015610a6757600080fd5b505afa158015610a7b573d6000803e3d6000fd5b505050506040513d6060811015610a9157600080fd5b810190808051906020019092919080519060200190929190805190602001909291905050509250925092509250925092565b60008060009054906101000a900473ffffffffffffffffffffffffffffffffffffffff1673ffffffffffffffffffffffffffffffffffffffff1663a80209736040518163ffffffff1660e01b815260040160206040518083038186803b158015610b2c57600080fd5b505afa158015610b40573d6000803e3d6000fd5b505050506040513d6020811015610b5657600080fd5b810190808051906020019092919050505090508073ffffffffffffffffffffffffffffffffffffffff166323b872dd3330856040518463ffffffff1660e01b8152600401808473ffffffffffffffffffffffffffffffffffffffff1673ffffffffffffffffffffffffffffffffffffffff1681526020018373ffffffffffffffffffffffffffffffffffffffff1673ffffffffffffffffffffffffffffffffffffffff1681526020018281526020019350505050602060405180830381600087803b158015610c2457600080fd5b505af1158015610c38573d6000803e3d6000fd5b505050506040513d6020811015610c4e57600080fd5b8101908080519060200190929190505050610cd1576040517f08c379a000000000000000000000000000000000000000000000000000000000815260040180806020018281038252600f8152602001807f5472616e73666572206661696c6564000000000000000000000000000000000081525060200191505060405180910390fd5b8073ffffffffffffffffffffffffffffffffffffffff1663752d49a184846040518363ffffffff1660e01b81526004018083815260200182815260200192505050600060405180830381600087803b158015610d2c57600080fd5b505af1158015610d40573d6000803e3d6000fd5b50505050505050565b600160009054906101000a900473ffffffffffffffffffffffffffffffffffffffff1681565b600160009054906101000a900473ffffffffffffffffffffffffffffffffffffffff1673ffffffffffffffffffffffffffffffffffffffff163373ffffffffffffffffffffffffffffffffffffffff1614610e32576040517f08c379a00000000000000000000000000000000000000000000000000000000081526004018080602001828103825260138152602001807f53656e646572206973206e6f74206f776e65720000000000000000000000000081525060200191505060405180910390fd5b806000806101000a81548173ffffffffffffffffffffffffffffffffffffffff021916908373ffffffffffffffffffffffffffffffffffffffff16021790555050565b60008060008060009054906101000a900473ffffffffffffffffffffffffffffffffffffffff1673ffffffffffffffffffffffffffffffffffffffff1663d269a83c86866040518363ffffffff1660e01b8152600401808381526020018281526020019250505060606040518083038186803b158015610ef457600080fd5b505afa158015610f08573d6000803e3d6000fd5b505050506040513d6060811015610f1e57600080fd5b810190808051906020019092919080519060200190929190805190602001909291905050509250925092509250925092565b6000809054906101000a900473ffffffffffffffffffffffffffffffffffffffff1673ffffffffffffffffffffffffffffffffffffffff1663e723e3b53484846040518463ffffffff1660e01b815260040180838152602001828152602001925050506000604051808303818588803b158015610fcc57600080fd5b505af1158015610fe0573d6000803e3d6000fd5b50505050505050565b600160009054906101000a900473ffffffffffffffffffffffffffffffffffffffff1673ffffffffffffffffffffffffffffffffffffffff163373ffffffffffffffffffffffffffffffffffffffff16146110ac576040517f08c379a00000000000000000000000000000000000000000000000000000000081526004018080602001828103825260138152602001807f53656e646572206973206e6f74206f776e65720000000000000000000000000081525060200191505060405180910390fd5b7f8be0079c531659141344cd1fd0a4f28419497f9722a3daafe3b4186f6b6457e0600160009054906101000a900473ffffffffffffffffffffffffffffffffffffffff1682604051808373ffffffffffffffffffffffffffffffffffffffff1673ffffffffffffffffffffffffffffffffffffffff1681526020018273ffffffffffffffffffffffffffffffffffffffff1673ffffffffffffffffffffffffffffffffffffffff1681526020019250505060405180910390a180600160006101000a81548173ffffffffffffffffffffffffffffffffffffffff021916908373ffffffffffffffffffffffffffffffffffffffff1602179055505056fea165627a7a723058202c172ad1f076201276ae05c35fbddc43a8a8e842c6016599bbdd193760a33bb70029",
  "source": "pragma solidity ^0.5.0;\n\nimport \"../Tellor.sol\";\nimport \"../TellorMaster.sol\";\nimport \"./UserContract.sol\";\n/**\n* @title UsingTellor\n* This contracts creates for easy integration to the Tellor Tellor System\n*/\ncontract UsingTellor {\n    UserContract tellorUserContract;\n    address payable public owner;\n\n    event OwnershipTransferred(address _previousOwner, address _newOwner);\n\n    /*Constructor*/\n    /**\n    * @dev This function sents the owner and userContract address\n    * @param _userContract is the UserContract.sol address\n    */\n    constructor(address _userContract) public {\n        tellorUserContract = UserContract(_userContract);\n        owner = msg.sender;\n    }\n\n    /*Functions*/\n    /**\n    * @dev Allows the user to get the latest value for the requestId specified\n    * @param _requestId is the requestId to look up the value for\n    * @return bool true if it is able to retreive a value, the value, and the value's timestamp\n    */\n    function getCurrentValue(uint256 _requestId) public view returns (bool ifRetrieve, uint256 value, uint256 _timestampRetrieved) {\n        return tellorUserContract.getCurrentValue(_requestId);\n    }\n\n    //How can we make this one more efficient?\n    /**\n    * @dev Allows the user to get the first verified value for the requestId after the specified timestamp\n    * @param _requestId is the requestId to look up the value for\n    * @param _timestamp after which to search for first verified value\n    * @return bool true if it is able to retreive a value, the value, and the value's timestamp, the timestamp after\n    * which it searched for the first verified value\n    */\n    function getFirstVerifiedDataAfter(uint256 _requestId, uint256 _timestamp) public view returns (bool, uint256, uint256 _timestampRetrieved) {\n        return tellorUserContract.getFirstVerifiedDataAfter(_requestId, _timestamp);\n    }\n\n    /**\n    * @dev Allows the user to get the first value for the requestId after the specified timestamp\n    * @param _requestId is the requestId to look up the value for\n    * @param _timestamp after which to search for first verified value\n    * @return bool true if it is able to retreive a value, the value, and the value's timestamp\n    */\n    function getAnyDataAfter(uint256 _requestId, uint256 _timestamp)\n        public\n        view\n        returns (bool _ifRetrieve, uint256 _value, uint256 _timestampRetrieved)\n    {\n        return tellorUserContract.getAnyDataAfter(_requestId, _timestamp);\n    }\n\n    /**\n    * @dev Allows the user to submit a request for data to the oracle using Tributes\n    * Allowing this prevents us from increasing spread too high (since if we set the price too hight\n    * users will just go to an exchange and get tokens from there)\n    * @param _request string API being requested to be mined\n    * @param _symbol is the short string symbol for the api request\n    * @param _granularity is the number of decimals miners should include on the submitted value\n    * @param _tip amount the requester is willing to pay to be get on queue. Miners\n    * mine the onDeckQueryHash, or the api with the highest payout pool\n    */\n    function requestData(string calldata _request, string calldata _symbol, uint256 _granularity, uint256 _tip) external {\n        Tellor _tellor = Tellor(tellorUserContract.tellorStorageAddress());\n        if (_tip > 0) {\n            require(_tellor.transferFrom(msg.sender, address(this), _tip), \"Transfer failed\");\n        }\n        _tellor.requestData(_request, _symbol, _granularity, _tip);\n    }\n\n    /**\n    * @dev Allows the user to submit a request for data to the oracle using ETH\n    * @param _request string API being requested to be mined\n    * @param _symbol is the short string symbol for the api request\n    * @param _granularity is the number of decimals miners should include on the submitted value\n    * @param _tip amount the requester is willing to pay to be get on queue. Miners\n    * mine the onDeckQueryHash, or the api with the highest payout pool\n    */\n    function requestDataWithEther(string calldata _request, string calldata _symbol, uint256 _granularity, uint256 _tip) external payable {\n        tellorUserContract.requestDataWithEther.value(msg.value)(_request, _symbol, _granularity, _tip);\n    }\n\n    /**\n    * @dev Allows the user to tip miners for the specified request using Tributes\n    * @param _requestId to tip\n    * @param _tip amount\n    */\n    function addTip(uint256 _requestId, uint256 _tip) public {\n        Tellor _tellor = Tellor(tellorUserContract.tellorStorageAddress());\n        require(_tellor.transferFrom(msg.sender, address(this), _tip), \"Transfer failed\");\n        _tellor.addTip(_requestId, _tip);\n    }\n\n    /**\n    * @dev Allows user to add tip with Ether by sending the ETH to the userContract and exchanging it for Tributes\n    * at the price specified by the userContract owner.\n    * @param _requestId to tip\n    * @param _tip amount\n    */\n    function addTipWithEther(uint256 _requestId, uint256 _tip) public payable {\n        UserContract(tellorUserContract).addTipWithEther.value(msg.value)(_requestId, _tip);\n    }\n\n    /**\n    * @dev allows owner to set the user contract address\n    * @param _userContract address\n    */\n    function setUserContract(address _userContract) public {\n        require(msg.sender == owner, \"Sender is not owner\"); //who should this be?\n        tellorUserContract = UserContract(_userContract);\n    }\n\n    /**\n    * @dev allows owner to transfer ownership\n    * @param _newOwner address\n    */\n    function transferOwnership(address payable _newOwner) external {\n        require(msg.sender == owner, \"Sender is not owner\");\n        emit OwnershipTransferred(owner, _newOwner);\n        owner = _newOwner;\n    }\n}\n",
  "sourcePath": "/Users/mdcoon/git/TellorCore/contracts/userFiles/UsingTellor.sol",
  "compiler": {
    "name": "solc",
    "version": "0.5.8+commit.23d335f2.Emscripten.clang"
  },
  "schemaVersion": "3.0.11",
  "updatedAt": "2019-10-02T13:26:13.793Z",
  "devdoc": {
    "methods": {
      "addTip(uint256,uint256)": {
        "details": "Allows the user to tip miners for the specified request using Tributes",
        "params": {
          "_requestId": "to tip",
          "_tip": "amount"
        }
      },
      "addTipWithEther(uint256,uint256)": {
        "details": "Allows user to add tip with Ether by sending the ETH to the userContract and exchanging it for Tributes at the price specified by the userContract owner.",
        "params": {
          "_requestId": "to tip",
          "_tip": "amount"
        }
      },
      "constructor": {
        "details": "This function sents the owner and userContract address",
        "params": {
          "_userContract": "is the UserContract.sol address"
        }
      },
      "getAnyDataAfter(uint256,uint256)": {
        "details": "Allows the user to get the first value for the requestId after the specified timestamp",
        "params": {
          "_requestId": "is the requestId to look up the value for",
          "_timestamp": "after which to search for first verified value"
        },
        "return": "bool true if it is able to retreive a value, the value, and the value's timestamp"
      },
      "getCurrentValue(uint256)": {
        "details": "Allows the user to get the latest value for the requestId specified",
        "params": {
          "_requestId": "is the requestId to look up the value for"
        },
        "return": "bool true if it is able to retreive a value, the value, and the value's timestamp"
      },
      "getFirstVerifiedDataAfter(uint256,uint256)": {
        "details": "Allows the user to get the first verified value for the requestId after the specified timestamp",
        "params": {
          "_requestId": "is the requestId to look up the value for",
          "_timestamp": "after which to search for first verified value"
        },
        "return": "bool true if it is able to retreive a value, the value, and the value's timestamp, the timestamp after which it searched for the first verified value"
      },
      "requestData(string,string,uint256,uint256)": {
        "details": "Allows the user to submit a request for data to the oracle using Tributes Allowing this prevents us from increasing spread too high (since if we set the price too hight users will just go to an exchange and get tokens from there)",
        "params": {
          "_granularity": "is the number of decimals miners should include on the submitted value",
          "_request": "string API being requested to be mined",
          "_symbol": "is the short string symbol for the api request",
          "_tip": "amount the requester is willing to pay to be get on queue. Miners mine the onDeckQueryHash, or the api with the highest payout pool"
        }
      },
      "requestDataWithEther(string,string,uint256,uint256)": {
        "details": "Allows the user to submit a request for data to the oracle using ETH",
        "params": {
          "_granularity": "is the number of decimals miners should include on the submitted value",
          "_request": "string API being requested to be mined",
          "_symbol": "is the short string symbol for the api request",
          "_tip": "amount the requester is willing to pay to be get on queue. Miners mine the onDeckQueryHash, or the api with the highest payout pool"
        }
      },
      "setUserContract(address)": {
        "details": "allows owner to set the user contract address",
        "params": {
          "_userContract": "address"
        }
      },
      "transferOwnership(address)": {
        "details": "allows owner to transfer ownership",
        "params": {
          "_newOwner": "address"
        }
      }
    },
    "title": "UsingTellor This contracts creates for easy integration to the Tellor Tellor System"
  },
  "userdoc": {
    "methods": {}
  }
}