{
  "contractName": "UtilitiesTests",
  "abi": [
    {
      "constant": true,
      "inputs": [],
      "name": "tellorMasterAddress",
      "outputs": [
        {
          "name": "",
          "type": "address"
        }
      ],
      "payable": false,
      "stateMutability": "view",
      "type": "function"
    },
    {
      "inputs": [],
      "payable": false,
      "stateMutability": "nonpayable",
      "type": "constructor"
    },
    {
      "constant": false,
      "inputs": [
        {
          "name": "_TellorMasterAddress",
          "type": "address"
        }
      ],
      "name": "setTellorMaster",
      "outputs": [],
      "payable": false,
      "stateMutability": "nonpayable",
      "type": "function"
    },
    {
      "constant": true,
      "inputs": [],
      "name": "testgetMax",
      "outputs": [
        {
          "name": "_max",
          "type": "uint256"
        },
        {
          "name": "_index",
          "type": "uint256"
        }
      ],
      "payable": false,
      "stateMutability": "view",
      "type": "function"
    },
    {
      "constant": true,
      "inputs": [],
      "name": "testgetMin",
      "outputs": [
        {
          "name": "_min",
          "type": "uint256"
        },
        {
          "name": "_index",
          "type": "uint256"
        }
      ],
      "payable": false,
      "stateMutability": "view",
      "type": "function"
    }
  ],
  "bytecode": "0x608060405234801561001057600080fd5b50336000806101000a81548173ffffffffffffffffffffffffffffffffffffffff021916908373ffffffffffffffffffffffffffffffffffffffff16021790555061055d806100606000396000f3fe608060405234801561001057600080fd5b506004361061004c5760003560e01c80632893e758146100515780636e51bc9f146100765780637d215ec0146100ba578063b005ccae146100df575b600080fd5b610059610129565b604051808381526020018281526020019250505060405180910390f35b6100b86004803603602081101561008c57600080fd5b81019080803573ffffffffffffffffffffffffffffffffffffffff1690602001909291905050506101f7565b005b6100c261033e565b604051808381526020018281526020019250505060405180910390f35b6100e761040c565b604051808273ffffffffffffffffffffffffffffffffffffffff1673ffffffffffffffffffffffffffffffffffffffff16815260200191505060405180910390f35b60008061013461050e565b600160009054906101000a900473ffffffffffffffffffffffffffffffffffffffff1673ffffffffffffffffffffffffffffffffffffffff1663b54130296040518163ffffffff1660e01b81526004016106606040518083038186803b15801561019d57600080fd5b505afa1580156101b1573d6000803e3d6000fd5b505050506040513d601f19601f820116820180604052506106608110156101d757600080fd5b810190809190505090506101ea81610432565b8093508194505050509091565b6000809054906101000a900473ffffffffffffffffffffffffffffffffffffffff1673ffffffffffffffffffffffffffffffffffffffff163373ffffffffffffffffffffffffffffffffffffffff16146102b9576040517f08c379a00000000000000000000000000000000000000000000000000000000081526004018080602001828103825260138152602001807f53656e646572206973206e6f74206f776e65720000000000000000000000000081525060200191505060405180910390fd5b80600260006101000a81548173ffffffffffffffffffffffffffffffffffffffff021916908373ffffffffffffffffffffffffffffffffffffffff16021790555080600160006101000a81548173ffffffffffffffffffffffffffffffffffffffff021916908373ffffffffffffffffffffffffffffffffffffffff16021790555050565b60008061034961050e565b600160009054906101000a900473ffffffffffffffffffffffffffffffffffffffff1673ffffffffffffffffffffffffffffffffffffffff1663b54130296040518163ffffffff1660e01b81526004016106606040518083038186803b1580156103b257600080fd5b505afa1580156103c6573d6000803e3d6000fd5b505050506040513d601f19601f820116820180604052506106608110156103ec57600080fd5b810190809190505090506103ff816104a5565b8093508194505050509091565b600260009054906101000a900473ffffffffffffffffffffffffffffffffffffffff1681565b6000806001603303905082816033811061044857fe5b602002015191506000600160330390505b600081111561049f578284826033811061046f57fe5b602002015110156104915783816033811061048657fe5b602002015192508091505b808060019003915050610459565b50915091565b600080826001603381106104b557fe5b602002015191506000600190505b603381101561050857828482603381106104d957fe5b602002015111156104fb578381603381106104f057fe5b602002015192508091505b80806001019150506104c3565b50915091565b60405180610660016040528060339060208202803883398082019150509050509056fea165627a7a72305820409c41eb143cf0d4730d7d6d622668d45c1b257384a4287bdf795f6842b7625e0029",
  "source": "pragma solidity ^0.5.0;\n\nimport \"./libraries/Utilities.sol\";\nimport \"./libraries/TellorGettersLibrary.sol\";\nimport \"./TellorMaster.sol\";\n\n/**\n* @title Utilities Tests\n* @dev These are the getter function for the two assembly code functions in the\n* Utilities library\n*/\ncontract UtilitiesTests {\n    address internal owner;\n    TellorMaster internal tellorMaster;\n    address public tellorMasterAddress;\n\n    /**\n    * @dev The constructor sets the owner\n    */\n    constructor() public {\n        owner = msg.sender;\n    }\n\n    /**\n    *@dev Set TellorMaster address\n    *@param _TellorMasterAddress is the Tellor Master address\n    */\n    function setTellorMaster(address payable _TellorMasterAddress) public {\n        require(msg.sender == owner, \"Sender is not owner\");\n        tellorMasterAddress = _TellorMasterAddress;\n        tellorMaster = TellorMaster(_TellorMasterAddress);\n    }\n\n    function testgetMax() public view returns (uint256 _max, uint256 _index) {\n        uint256[51] memory requests = tellorMaster.getRequestQ();\n        (_max, _index) = Utilities.getMax(requests);\n    }\n\n    function testgetMin() public view returns (uint256 _min, uint256 _index) {\n        uint256[51] memory requests = tellorMaster.getRequestQ();\n        (_min, _index) = Utilities.getMin(requests);\n    }\n\n}\n",
  "sourcePath": "/Users/mdcoon/git/TellorCore/contracts/UtilitiesTests.sol",
  "compiler": {
    "name": "solc",
    "version": "0.5.8+commit.23d335f2.Emscripten.clang"
  },
  "schemaVersion": "3.0.11",
  "updatedAt": "2019-10-02T13:26:13.649Z",
  "devdoc": {
    "details": "These are the getter function for the two assembly code functions in the Utilities library",
    "methods": {
      "constructor": {
        "details": "The constructor sets the owner"
      }
    },
    "title": "Utilities Tests"
  },
  "userdoc": {
    "methods": {
      "setTellorMaster(address)": {
        "notice": "dev Set TellorMaster address param _TellorMasterAddress is the Tellor Master address"
      }
    }
  }
}