{
  "contractName": "Optimistic",
  "abi": [
    {
      "constant": true,
      "inputs": [
        {
          "name": "",
          "type": "uint256"
        }
      ],
      "name": "isValue",
      "outputs": [
        {
          "name": "",
          "type": "bool"
        }
      ],
      "payable": false,
      "stateMutability": "view",
      "type": "function"
    },
    {
      "constant": true,
      "inputs": [
        {
          "name": "",
          "type": "uint256"
        }
      ],
      "name": "disputedValues",
      "outputs": [
        {
          "name": "",
          "type": "bool"
        }
      ],
      "payable": false,
      "stateMutability": "view",
      "type": "function"
    },
    {
      "constant": false,
      "inputs": [
        {
          "name": "_request",
          "type": "string"
        },
        {
          "name": "_symbol",
          "type": "string"
        },
        {
          "name": "_granularity",
          "type": "uint256"
        },
        {
          "name": "_tip",
          "type": "uint256"
        }
      ],
      "name": "requestData",
      "outputs": [],
      "payable": false,
      "stateMutability": "nonpayable",
      "type": "function"
    },
    {
      "constant": false,
      "inputs": [
        {
          "name": "_request",
          "type": "string"
        },
        {
          "name": "_symbol",
          "type": "string"
        },
        {
          "name": "_granularity",
          "type": "uint256"
        },
        {
          "name": "_tip",
          "type": "uint256"
        }
      ],
      "name": "requestDataWithEther",
      "outputs": [],
      "payable": true,
      "stateMutability": "payable",
      "type": "function"
    },
    {
      "constant": true,
      "inputs": [
        {
          "name": "",
          "type": "uint256"
        },
        {
          "name": "",
          "type": "uint256"
        }
      ],
      "name": "requestIdsIncluded",
      "outputs": [
        {
          "name": "",
          "type": "uint256"
        }
      ],
      "payable": false,
      "stateMutability": "view",
      "type": "function"
    },
    {
      "constant": true,
      "inputs": [],
      "name": "granularity",
      "outputs": [
        {
          "name": "",
          "type": "uint256"
        }
      ],
      "payable": false,
      "stateMutability": "view",
      "type": "function"
    },
    {
      "constant": true,
      "inputs": [],
      "name": "disputePeriod",
      "outputs": [
        {
          "name": "",
          "type": "uint256"
        }
      ],
      "payable": false,
      "stateMutability": "view",
      "type": "function"
    },
    {
      "constant": true,
      "inputs": [
        {
          "name": "_requestId",
          "type": "uint256"
        },
        {
          "name": "_timestamp",
          "type": "uint256"
        }
      ],
      "name": "getFirstVerifiedDataAfter",
      "outputs": [
        {
          "name": "",
          "type": "bool"
        },
        {
          "name": "",
          "type": "uint256"
        },
        {
          "name": "_timestampRetrieved",
          "type": "uint256"
        }
      ],
      "payable": false,
      "stateMutability": "view",
      "type": "function"
    },
    {
      "constant": false,
      "inputs": [
        {
          "name": "_requestId",
          "type": "uint256"
        },
        {
          "name": "_tip",
          "type": "uint256"
        }
      ],
      "name": "addTip",
      "outputs": [],
      "payable": false,
      "stateMutability": "nonpayable",
      "type": "function"
    },
    {
      "constant": true,
      "inputs": [],
      "name": "owner",
      "outputs": [
        {
          "name": "",
          "type": "address"
        }
      ],
      "payable": false,
      "stateMutability": "view",
      "type": "function"
    },
    {
      "constant": false,
      "inputs": [
        {
          "name": "_userContract",
          "type": "address"
        }
      ],
      "name": "setUserContract",
      "outputs": [],
      "payable": false,
      "stateMutability": "nonpayable",
      "type": "function"
    },
    {
      "constant": true,
      "inputs": [],
      "name": "disputeFee",
      "outputs": [
        {
          "name": "",
          "type": "uint256"
        }
      ],
      "payable": false,
      "stateMutability": "view",
      "type": "function"
    },
    {
      "constant": true,
      "inputs": [
        {
          "name": "_requestId",
          "type": "uint256"
        },
        {
          "name": "_timestamp",
          "type": "uint256"
        }
      ],
      "name": "getAnyDataAfter",
      "outputs": [
        {
          "name": "_ifRetrieve",
          "type": "bool"
        },
        {
          "name": "_value",
          "type": "uint256"
        },
        {
          "name": "_timestampRetrieved",
          "type": "uint256"
        }
      ],
      "payable": false,
      "stateMutability": "view",
      "type": "function"
    },
    {
      "constant": false,
      "inputs": [
        {
          "name": "_requestId",
          "type": "uint256"
        },
        {
          "name": "_tip",
          "type": "uint256"
        }
      ],
      "name": "addTipWithEther",
      "outputs": [],
      "payable": false,
      "stateMutability": "nonpayable",
      "type": "function"
    },
    {
      "constant": false,
      "inputs": [
        {
          "name": "_newOwner",
          "type": "address"
        }
      ],
      "name": "transferOwnership",
      "outputs": [],
      "payable": false,
      "stateMutability": "nonpayable",
      "type": "function"
    },
    {
      "inputs": [
        {
          "name": "_userContract",
          "type": "address"
        },
        {
          "name": "_disputeFeeRequired",
          "type": "uint256"
        },
        {
          "name": "_disputePeriod",
          "type": "uint256"
        },
        {
          "name": "_requestIds",
          "type": "uint256[]"
        },
        {
          "name": "_granularity",
          "type": "uint256"
        }
      ],
      "payable": false,
      "stateMutability": "nonpayable",
      "type": "constructor"
    },
    {
      "anonymous": false,
      "inputs": [
        {
          "indexed": true,
          "name": "_timestamp",
          "type": "uint256"
        },
        {
          "indexed": false,
          "name": "_value",
          "type": "uint256"
        }
      ],
      "name": "NewValueSet",
      "type": "event"
    },
    {
      "anonymous": false,
      "inputs": [
        {
          "indexed": false,
          "name": "_disputer",
          "type": "address"
        },
        {
          "indexed": false,
          "name": "_timestamp",
          "type": "uint256"
        },
        {
          "indexed": false,
          "name": "_value",
          "type": "uint256"
        }
      ],
      "name": "ValueDisputed",
      "type": "event"
    },
    {
      "anonymous": false,
      "inputs": [
        {
          "indexed": false,
          "name": "_previousOwner",
          "type": "address"
        },
        {
          "indexed": false,
          "name": "_newOwner",
          "type": "address"
        }
      ],
      "name": "OwnershipTransferred",
      "type": "event"
    },
    {
      "constant": false,
      "inputs": [
        {
          "name": "_timestamp",
          "type": "uint256"
        },
        {
          "name": "_value",
          "type": "uint256"
        }
      ],
      "name": "setValue",
      "outputs": [],
      "payable": false,
      "stateMutability": "nonpayable",
      "type": "function"
    },
    {
      "constant": false,
      "inputs": [
        {
          "name": "_timestamp",
          "type": "uint256"
        }
      ],
      "name": "disputeOptimisticValue",
      "outputs": [],
      "payable": false,
      "stateMutability": "nonpayable",
      "type": "function"
    },
    {
      "constant": true,
      "inputs": [
        {
          "name": "_timestamp",
          "type": "uint256"
        }
      ],
      "name": "getMyValuesByTimestamp",
      "outputs": [
        {
          "name": "value",
          "type": "uint256"
        }
      ],
      "payable": false,
      "stateMutability": "view",
      "type": "function"
    },
    {
      "constant": true,
      "inputs": [
        {
          "name": "_timestamp",
          "type": "uint256"
        }
      ],
      "name": "getNumberOfValuesPerTimestamp",
      "outputs": [
        {
          "name": "",
          "type": "uint256"
        }
      ],
      "payable": false,
      "stateMutability": "view",
      "type": "function"
    },
    {
      "constant": true,
      "inputs": [
        {
          "name": "_timestamp",
          "type": "uint256"
        }
      ],
      "name": "getIsValue",
      "outputs": [
        {
          "name": "",
          "type": "bool"
        }
      ],
      "payable": false,
      "stateMutability": "view",
      "type": "function"
    },
    {
      "constant": false,
      "inputs": [
        {
          "name": "_timestamp",
          "type": "uint256"
        }
      ],
      "name": "getTellorValues",
      "outputs": [
        {
          "name": "_value",
          "type": "uint256"
        },
        {
          "name": "_didGet",
          "type": "bool"
        }
      ],
      "payable": false,
      "stateMutability": "nonpayable",
      "type": "function"
    },
    {
      "constant": true,
      "inputs": [
        {
          "name": "_timestamp",
          "type": "uint256"
        }
      ],
      "name": "getLastValueAfter",
      "outputs": [
        {
          "name": "",
          "type": "bool"
        },
        {
          "name": "",
          "type": "uint256"
        },
        {
          "name": "_timestampRetrieved",
          "type": "uint256"
        }
      ],
      "payable": false,
      "stateMutability": "view",
      "type": "function"
    },
    {
      "constant": true,
      "inputs": [
        {
          "name": "_timestamp",
          "type": "uint256"
        }
      ],
      "name": "getLastUndisputedValueAfter",
      "outputs": [
        {
          "name": "",
          "type": "bool"
        },
        {
          "name": "",
          "type": "uint256"
        },
        {
          "name": "_timestampRetrieved",
          "type": "uint256"
        }
      ],
      "payable": false,
      "stateMutability": "view",
      "type": "function"
    },
    {
      "constant": true,
      "inputs": [],
      "name": "getCurrentValue",
      "outputs": [
        {
          "name": "",
          "type": "uint256"
        }
      ],
      "payable": false,
      "stateMutability": "view",
      "type": "function"
    },
    {
      "constant": true,
      "inputs": [
        {
          "name": "_requestId",
          "type": "uint256"
        }
      ],
      "name": "getCurrentValue",
      "outputs": [
        {
          "name": "ifRetrieve",
          "type": "bool"
        },
        {
          "name": "value",
          "type": "uint256"
        },
        {
          "name": "_timestampRetrieved",
          "type": "uint256"
        }
      ],
      "payable": false,
      "stateMutability": "view",
      "type": "function"
    },
    {
      "constant": true,
      "inputs": [],
      "name": "getTimestamps",
      "outputs": [
        {
          "name": "",
          "type": "uint256[]"
        }
      ],
      "payable": false,
      "stateMutability": "view",
      "type": "function"
    }
  ],
  "bytecode": "0x60806040523480156200001157600080fd5b5060405162002d0838038062002d08833981018060405260a08110156200003757600080fd5b8101908080519060200190929190805190602001909291908051906020019092919080516401000000008111156200006e57600080fd5b828101905060208101848111156200008557600080fd5b8151856020820283011164010000000082111715620000a357600080fd5b50509291906020018051906020019092919050505084806000806101000a81548173ffffffffffffffffffffffffffffffffffffffff021916908373ffffffffffffffffffffffffffffffffffffffff16021790555033600160006101000a81548173ffffffffffffffffffffffffffffffffffffffff021916908373ffffffffffffffffffffffffffffffffffffffff1602179055505083600881905550826009819055508060078190555081600690805190602001906200016892919062000174565b505050505050620001ee565b828054828255906000526020600020908101928215620001b3579160200282015b82811115620001b257825182559160200191906001019062000195565b5b509050620001c29190620001c6565b5090565b620001eb91905b80821115620001e7576000816000905550600101620001cd565b5090565b90565b612b0a80620001fe6000396000f3fe608060405260043610610154576000357c0100000000000000000000000000000000000000000000000000000000900463ffffffff168063062777ff146101595780630f76c114146101b3578063292b8cce146101de5780632aa0bc1f1461021957806336e9d6321461026857806337ae9e43146102bb5780633fcad9641461030e5780633fff28161461036f5780634482e6f31461045e578063550921d414610540578063556f0dc71461059957806359abbfe4146105c45780635bf31d4d146106305780635f059f3e1461065b578063752d49a1146106c65780637b8d56e31461070b57806389055867146107505780638da5cb5b146107b15780639a64f07014610808578063a1206d4e1461085b578063b97b267b146108ac578063b9ce896b1461090d578063d269a83c14610938578063e631def7146109a3578063e723e3b5146109f2578063f2fde38b14610a37575b600080fd5b34801561016557600080fd5b506101926004803603602081101561017c57600080fd5b8101908080359060200190929190505050610a88565b60405180838152602001821515151581526020019250505060405180910390f35b3480156101bf57600080fd5b506101c8610f87565b6040518082815260200191505060405180910390f35b3480156101ea57600080fd5b506102176004803603602081101561020157600080fd5b8101908080359060200190929190505050610fb8565b005b34801561022557600080fd5b506102526004803603602081101561023c57600080fd5b810190808035906020019092919050505061126c565b6040518082815260200191505060405180910390f35b34801561027457600080fd5b506102a16004803603602081101561028b57600080fd5b810190808035906020019092919050505061128c565b604051808215151515815260200191505060405180910390f35b3480156102c757600080fd5b506102f4600480360360208110156102de57600080fd5b81019080803590602001909291905050506112ac565b604051808215151515815260200191505060405180910390f35b34801561031a57600080fd5b506103476004803603602081101561033157600080fd5b81019080803590602001909291905050506112cc565b6040518084151515158152602001838152602001828152602001935050505060405180910390f35b34801561037b57600080fd5b5061045c6004803603608081101561039257600080fd5b81019080803590602001906401000000008111156103af57600080fd5b8201836020820111156103c157600080fd5b803590602001918460018302840111640100000000831117156103e357600080fd5b90919293919293908035906020019064010000000081111561040457600080fd5b82018360208201111561041657600080fd5b8035906020019184600183028401116401000000008311171561043857600080fd5b909192939192939080359060200190929190803590602001909291905050506115d7565b005b61053e6004803603608081101561047457600080fd5b810190808035906020019064010000000081111561049157600080fd5b8201836020820111156104a357600080fd5b803590602001918460018302840111640100000000831117156104c557600080fd5b9091929391929390803590602001906401000000008111156104e657600080fd5b8201836020820111156104f857600080fd5b8035906020019184600183028401116401000000008311171561051a57600080fd5b90919293919293908035906020019092919080359060200190929190505050611882565b005b34801561054c57600080fd5b506105836004803603604081101561056357600080fd5b8101908080359060200190929190803590602001909291905050506119a2565b6040518082815260200191505060405180910390f35b3480156105a557600080fd5b506105ae6119d2565b6040518082815260200191505060405180910390f35b3480156105d057600080fd5b506105d96119d8565b6040518080602001828103825283818151815260200191508051906020019060200280838360005b8381101561061c578082015181840152602081019050610601565b505050509050019250505060405180910390f35b34801561063c57600080fd5b50610645611a30565b6040518082815260200191505060405180910390f35b34801561066757600080fd5b5061069e6004803603604081101561067e57600080fd5b810190808035906020019092919080359060200190929190505050611a36565b6040518084151515158152602001838152602001828152602001935050505060405180910390f35b3480156106d257600080fd5b50610709600480360360408110156106e957600080fd5b810190808035906020019092919080359060200190929190505050611ee7565b005b34801561071757600080fd5b5061074e6004803603604081101561072e57600080fd5b81019080803590602001909291908035906020019092919050505061211c565b005b34801561075c57600080fd5b506107896004803603602081101561077357600080fd5b810190808035906020019092919050505061223f565b6040518084151515158152602001838152602001828152602001935050505060405180910390f35b3480156107bd57600080fd5b506107c66122f2565b604051808273ffffffffffffffffffffffffffffffffffffffff1673ffffffffffffffffffffffffffffffffffffffff16815260200191505060405180910390f35b34801561081457600080fd5b506108416004803603602081101561082b57600080fd5b8101908080359060200190929190505050612318565b604051808215151515815260200191505060405180910390f35b34801561086757600080fd5b506108aa6004803603602081101561087e57600080fd5b81019080803573ffffffffffffffffffffffffffffffffffffffff169060200190929190505050612342565b005b3480156108b857600080fd5b506108e5600480360360208110156108cf57600080fd5b81019080803590602001909291905050506123e1565b6040518084151515158152602001838152602001828152602001935050505060405180910390f35b34801561091957600080fd5b506109226124bc565b6040518082815260200191505060405180910390f35b34801561094457600080fd5b5061097b6004803603604081101561095b57600080fd5b8101908080359060200190929190803590602001909291905050506124c2565b6040518084151515158152602001838152602001828152602001935050505060405180910390f35b3480156109af57600080fd5b506109dc600480360360208110156109c657600080fd5b81019080803590602001909291905050506128b4565b6040518082815260200191505060405180910390f35b3480156109fe57600080fd5b50610a3560048036036040811015610a1557600080fd5b8101908080359060200190929190803590602001909291905050506128d1565b005b348015610a4357600080fd5b50610a8660048036036020811015610a5a57600080fd5b81019080803573ffffffffffffffffffffffffffffffffffffffff169060200190929190505050612985565b005b60008060008060009054906101000a900473ffffffffffffffffffffffffffffffffffffffff1673ffffffffffffffffffffffffffffffffffffffff1663a80209736040518163ffffffff167c010000000000000000000000000000000000000000000000000000000002815260040160206040518083038186803b158015610b1057600080fd5b505afa158015610b24573d6000803e3d6000fd5b505050506040513d6020811015610b3a57600080fd5b8101908080519060200190929190505050905060008060009054906101000a900473ffffffffffffffffffffffffffffffffffffffff1673ffffffffffffffffffffffffffffffffffffffff1663a80209736040518163ffffffff167c010000000000000000000000000000000000000000000000000000000002815260040160206040518083038186803b158015610bd257600080fd5b505afa158015610be6573d6000803e3d6000fd5b505050506040513d6020811015610bfc57600080fd5b810190808051906020019092919050505090506000808373ffffffffffffffffffffffffffffffffffffffff166370a08231306040518263ffffffff167c0100000000000000000000000000000000000000000000000000000000028152600401808273ffffffffffffffffffffffffffffffffffffffff1673ffffffffffffffffffffffffffffffffffffffff16815260200191505060206040518083038186803b158015610cab57600080fd5b505afa158015610cbf573d6000803e3d6000fd5b505050506040513d6020811015610cd557600080fd5b8101908080519060200190929190505050905060008090505b600680549050811015610f7d57610d058189611a36565b8095508199508298505050508515610def576001600560008a81526020019081526020016000208054905001600560008a815260200190815260200160002080549050600a600060075487811515610d5957fe5b068703815260200190815260200160002054028801811515610d7757fe5b04600a600060075486811515610d8957fe5b0686038152602001908152602001600020819055506005600060075485811515610daf57fe5b0685038152602001908152602001600020819080600181540180825580915050906001820390600052602060002001600090919290919091505550610f70565b6006805490508573ffffffffffffffffffffffffffffffffffffffff166370a08231306040518263ffffffff167c0100000000000000000000000000000000000000000000000000000000028152600401808273ffffffffffffffffffffffffffffffffffffffff1673ffffffffffffffffffffffffffffffffffffffff16815260200191505060206040518083038186803b158015610e8e57600080fd5b505afa158015610ea2573d6000803e3d6000fd5b505050506040513d6020811015610eb857600080fd5b81019080805190602001909291905050501115610f6f578373ffffffffffffffffffffffffffffffffffffffff1663752d49a18260068054905085811515610efc57fe5b046040518363ffffffff167c01000000000000000000000000000000000000000000000000000000000281526004018083815260200182815260200192505050600060405180830381600087803b158015610f5657600080fd5b505af1158015610f6a573d6000803e3d6000fd5b505050505b5b8080600101915050610cee565b5050505050915091565b6000610fb36003600160038054905003815481101515610fa357fe5b90600052602060002001546128b4565b905090565b60008060009054906101000a900473ffffffffffffffffffffffffffffffffffffffff1673ffffffffffffffffffffffffffffffffffffffff1663a80209736040518163ffffffff167c010000000000000000000000000000000000000000000000000000000002815260040160206040518083038186803b15801561103d57600080fd5b505afa158015611051573d6000803e3d6000fd5b505050506040513d602081101561106757600080fd5b810190808051906020019092919050505090506008548173ffffffffffffffffffffffffffffffffffffffff166370a08231306040518263ffffffff167c0100000000000000000000000000000000000000000000000000000000028152600401808273ffffffffffffffffffffffffffffffffffffffff1673ffffffffffffffffffffffffffffffffffffffff16815260200191505060206040518083038186803b15801561111657600080fd5b505afa15801561112a573d6000803e3d6000fd5b505050506040513d602081101561114057600080fd5b81019080805190602001909291905050501015151561115e57600080fd5b6002600083815260200190815260200160002060009054906101000a900460ff16151561118a57600080fd5b60095482016007544281151561119c57fe5b0642031015156111ab57600080fd5b60016004600084815260200190815260200160002060006101000a81548160ff0219169083151502179055507fb199747b7b98ffd681a09c542f7f62ba4972f6f5b7d791b6f8bba36862cbdd2b3383600a600086815260200190815260200160002054604051808473ffffffffffffffffffffffffffffffffffffffff1673ffffffffffffffffffffffffffffffffffffffff168152602001838152602001828152602001935050505060405180910390a161126682610a88565b50505050565b600060056000838152602001908152602001600020805490509050919050565b60026020528060005260406000206000915054906101000a900460ff1681565b60046020528060005260406000206000915054906101000a900460ff1681565b6000806000806000809054906101000a900473ffffffffffffffffffffffffffffffffffffffff1673ffffffffffffffffffffffffffffffffffffffff1663a80209736040518163ffffffff167c010000000000000000000000000000000000000000000000000000000002815260040160206040518083038186803b15801561135557600080fd5b505afa158015611369573d6000803e3d6000fd5b505050506040513d602081101561137f57600080fd5b8101908080519060200190929190505050905060008173ffffffffffffffffffffffffffffffffffffffff166346eee1c4876040518263ffffffff167c01000000000000000000000000000000000000000000000000000000000281526004018082815260200191505060206040518083038186803b15801561140157600080fd5b505afa158015611415573d6000803e3d6000fd5b505050506040513d602081101561142b57600080fd5b8101908080519060200190929190505050905060008111156115bc578173ffffffffffffffffffffffffffffffffffffffff166377fbb66387600184036040518363ffffffff167c0100000000000000000000000000000000000000000000000000000000028152600401808381526020018281526020019250505060206040518083038186803b1580156114bf57600080fd5b505afa1580156114d3573d6000803e3d6000fd5b505050506040513d60208110156114e957600080fd5b8101908080519060200190929190505050925060018273ffffffffffffffffffffffffffffffffffffffff166393fa491588866040518363ffffffff167c0100000000000000000000000000000000000000000000000000000000028152600401808381526020018281526020019250505060206040518083038186803b15801561157357600080fd5b505afa158015611587573d6000803e3d6000fd5b505050506040513d602081101561159d57600080fd5b81019080805190602001909291905050508494509450945050506115d0565b600080600081915080905094509450945050505b9193909250565b60008060009054906101000a900473ffffffffffffffffffffffffffffffffffffffff1673ffffffffffffffffffffffffffffffffffffffff1663a80209736040518163ffffffff167c010000000000000000000000000000000000000000000000000000000002815260040160206040518083038186803b15801561165c57600080fd5b505afa158015611670573d6000803e3d6000fd5b505050506040513d602081101561168657600080fd5b810190808051906020019092919050505090506000821115611782578073ffffffffffffffffffffffffffffffffffffffff1663a9059cbb30846040518363ffffffff167c0100000000000000000000000000000000000000000000000000000000028152600401808373ffffffffffffffffffffffffffffffffffffffff1673ffffffffffffffffffffffffffffffffffffffff16815260200182815260200192505050602060405180830381600087803b15801561174557600080fd5b505af1158015611759573d6000803e3d6000fd5b505050506040513d602081101561176f57600080fd5b8101908080519060200190929190505050505b8073ffffffffffffffffffffffffffffffffffffffff16633fff28168888888888886040518763ffffffff167c01000000000000000000000000000000000000000000000000000000000281526004018080602001806020018581526020018481526020018381038352898982818152602001925080828437600081840152601f19601f8201169050808301925050508381038252878782818152602001925080828437600081840152601f19601f82011690508083019250505098505050505050505050600060405180830381600087803b15801561186157600080fd5b505af1158015611875573d6000803e3d6000fd5b5050505050505050505050565b6000809054906101000a900473ffffffffffffffffffffffffffffffffffffffff1673ffffffffffffffffffffffffffffffffffffffff16634482e6f38787878787876040518763ffffffff167c01000000000000000000000000000000000000000000000000000000000281526004018080602001806020018581526020018481526020018381038352898982818152602001925080828437600081840152601f19601f8201169050808301925050508381038252878782818152602001925080828437600081840152601f19601f82011690508083019250505098505050505050505050600060405180830381600087803b15801561198257600080fd5b505af1158015611996573d6000803e3d6000fd5b50505050505050505050565b6005602052816000526040600020818154811015156119bd57fe5b90600052602060002001600091509150505481565b60075481565b60606003805480602002602001604051908101604052809291908181526020018280548015611a2657602002820191906000526020600020905b815481526020019060010190808311611a12575b5050505050905090565b60095481565b6000806000806000809054906101000a900473ffffffffffffffffffffffffffffffffffffffff1673ffffffffffffffffffffffffffffffffffffffff1663a80209736040518163ffffffff167c010000000000000000000000000000000000000000000000000000000002815260040160206040518083038186803b158015611abf57600080fd5b505afa158015611ad3573d6000803e3d6000fd5b505050506040513d6020811015611ae957600080fd5b8101908080519060200190929190505050905060008173ffffffffffffffffffffffffffffffffffffffff166346eee1c4886040518263ffffffff167c01000000000000000000000000000000000000000000000000000000000281526004018082815260200191505060206040518083038186803b158015611b6b57600080fd5b505afa158015611b7f573d6000803e3d6000fd5b505050506040513d6020811015611b9557600080fd5b810190808051906020019092919050505090506000811115611ecc5760006001820390505b6000811115611e0157868373ffffffffffffffffffffffffffffffffffffffff166377fbb6638a846040518363ffffffff167c0100000000000000000000000000000000000000000000000000000000028152600401808381526020018281526020019250505060206040518083038186803b158015611c3957600080fd5b505afa158015611c4d573d6000803e3d6000fd5b505050506040513d6020811015611c6357600080fd5b8101908080519060200190929190505050108015611d3457506201518042038373ffffffffffffffffffffffffffffffffffffffff166377fbb6638a846040518363ffffffff167c0100000000000000000000000000000000000000000000000000000000028152600401808381526020018281526020019250505060206040518083038186803b158015611cf757600080fd5b505afa158015611d0b573d6000803e3d6000fd5b505050506040513d6020811015611d2157600080fd5b8101908080519060200190929190505050105b15611df3578273ffffffffffffffffffffffffffffffffffffffff166377fbb66389600184016040518363ffffffff167c0100000000000000000000000000000000000000000000000000000000028152600401808381526020018281526020019250505060206040518083038186803b158015611db157600080fd5b505afa158015611dc5573d6000803e3d6000fd5b505050506040513d6020811015611ddb57600080fd5b81019080805190602001909291905050509350600090505b808060019003915050611bba565b506000831115611ecb5760018273ffffffffffffffffffffffffffffffffffffffff166393fa491589866040518363ffffffff167c0100000000000000000000000000000000000000000000000000000000028152600401808381526020018281526020019250505060206040518083038186803b158015611e8257600080fd5b505afa158015611e96573d6000803e3d6000fd5b505050506040513d6020811015611eac57600080fd5b8101908080519060200190929190505050849450945094505050611ee0565b5b600080600081915080905094509450945050505b9250925092565b60008060009054906101000a900473ffffffffffffffffffffffffffffffffffffffff1673ffffffffffffffffffffffffffffffffffffffff1663a80209736040518163ffffffff167c010000000000000000000000000000000000000000000000000000000002815260040160206040518083038186803b158015611f6c57600080fd5b505afa158015611f80573d6000803e3d6000fd5b505050506040513d6020811015611f9657600080fd5b810190808051906020019092919050505090508073ffffffffffffffffffffffffffffffffffffffff1663a9059cbb30846040518363ffffffff167c0100000000000000000000000000000000000000000000000000000000028152600401808373ffffffffffffffffffffffffffffffffffffffff1673ffffffffffffffffffffffffffffffffffffffff16815260200182815260200192505050602060405180830381600087803b15801561204c57600080fd5b505af1158015612060573d6000803e3d6000fd5b505050506040513d602081101561207657600080fd5b8101908080519060200190929190505050508073ffffffffffffffffffffffffffffffffffffffff1663752d49a184846040518363ffffffff167c01000000000000000000000000000000000000000000000000000000000281526004018083815260200182815260200192505050600060405180830381600087803b1580156120ff57600080fd5b505af1158015612113573d6000803e3d6000fd5b50505050505050565b600160009054906101000a900473ffffffffffffffffffffffffffffffffffffffff1673ffffffffffffffffffffffffffffffffffffffff163373ffffffffffffffffffffffffffffffffffffffff1614151561217857600080fd5b6000151561218583612318565b151514151561219357600080fd5b80600a60008481526020019081526020016000208190555060016002600084815260200190815260200160002060006101000a81548160ff0219169083151502179055506003829080600181540180825580915050906001820390600052602060002001600090919290919091505550817f2afa03c814297ffc234ff967b6f0863d3c358be243103f20217c8d3a4d39f9c0826040518082815260200191505060405180910390a25050565b600080600080600380549050905060008111156122d85760006001820390505b60008111156122b5578560038281548110151561227857fe5b90600052602060002001541015156122a75760038181548110151561229957fe5b906000526020600020015492505b80806001900391505061225f565b5060008211156122d75760016122ca836128b4565b83935093509350506122eb565b5b6000806000819150809050935093509350505b9193909250565b600160009054906101000a900473ffffffffffffffffffffffffffffffffffffffff1681565b60006002600083815260200190815260200160002060009054906101000a900460ff169050919050565b600160009054906101000a900473ffffffffffffffffffffffffffffffffffffffff1673ffffffffffffffffffffffffffffffffffffffff163373ffffffffffffffffffffffffffffffffffffffff1614151561239e57600080fd5b806000806101000a81548173ffffffffffffffffffffffffffffffffffffffff021916908373ffffffffffffffffffffffffffffffffffffffff16021790555050565b600080600080600380549050905060008111156124a25760006001820390505b600081111561247f578560038281548110151561241a57fe5b90600052602060002001541015801561244f5750600954420360038281548110151561244257fe5b9060005260206000200154115b156124715760038181548110151561246357fe5b906000526020600020015492505b808060019003915050612401565b5060008211156124a1576001612494836128b4565b83935093509350506124b5565b5b6000806000819150809050935093509350505b9193909250565b60085481565b6000806000806000809054906101000a900473ffffffffffffffffffffffffffffffffffffffff1673ffffffffffffffffffffffffffffffffffffffff1663a80209736040518163ffffffff167c010000000000000000000000000000000000000000000000000000000002815260040160206040518083038186803b15801561254b57600080fd5b505afa15801561255f573d6000803e3d6000fd5b505050506040513d602081101561257557600080fd5b8101908080519060200190929190505050905060008173ffffffffffffffffffffffffffffffffffffffff166346eee1c4886040518263ffffffff167c01000000000000000000000000000000000000000000000000000000000281526004018082815260200191505060206040518083038186803b1580156125f757600080fd5b505afa15801561260b573d6000803e3d6000fd5b505050506040513d602081101561262157600080fd5b8101908080519060200190929190505050905060008111156128995760006001820390505b60008111156127ce57868373ffffffffffffffffffffffffffffffffffffffff166377fbb6638a846040518363ffffffff167c0100000000000000000000000000000000000000000000000000000000028152600401808381526020018281526020019250505060206040518083038186803b1580156126c557600080fd5b505afa1580156126d9573d6000803e3d6000fd5b505050506040513d60208110156126ef57600080fd5b810190808051906020019092919050505010156127c0578273ffffffffffffffffffffffffffffffffffffffff166377fbb66389600184016040518363ffffffff167c0100000000000000000000000000000000000000000000000000000000028152600401808381526020018281526020019250505060206040518083038186803b15801561277e57600080fd5b505afa158015612792573d6000803e3d6000fd5b505050506040513d60208110156127a857600080fd5b81019080805190602001909291905050509350600090505b808060019003915050612646565b5060008311156128985760018273ffffffffffffffffffffffffffffffffffffffff166393fa491589866040518363ffffffff167c0100000000000000000000000000000000000000000000000000000000028152600401808381526020018281526020019250505060206040518083038186803b15801561284f57600080fd5b505afa158015612863573d6000803e3d6000fd5b505050506040513d602081101561287957600080fd5b81019080805190602001909291905050508494509450945050506128ad565b5b600080600081915080905094509450945050505b9250925092565b6000600a6000838152602001908152602001600020549050919050565b6000809054906101000a900473ffffffffffffffffffffffffffffffffffffffff1673ffffffffffffffffffffffffffffffffffffffff1663e723e3b583836040518363ffffffff167c01000000000000000000000000000000000000000000000000000000000281526004018083815260200182815260200192505050600060405180830381600087803b15801561296957600080fd5b505af115801561297d573d6000803e3d6000fd5b505050505050565b600160009054906101000a900473ffffffffffffffffffffffffffffffffffffffff1673ffffffffffffffffffffffffffffffffffffffff163373ffffffffffffffffffffffffffffffffffffffff161415156129e157600080fd5b7f8be0079c531659141344cd1fd0a4f28419497f9722a3daafe3b4186f6b6457e0600160009054906101000a900473ffffffffffffffffffffffffffffffffffffffff1682604051808373ffffffffffffffffffffffffffffffffffffffff1673ffffffffffffffffffffffffffffffffffffffff1681526020018273ffffffffffffffffffffffffffffffffffffffff1673ffffffffffffffffffffffffffffffffffffffff1681526020019250505060405180910390a180600160006101000a81548173ffffffffffffffffffffffffffffffffffffffff021916908373ffffffffffffffffffffffffffffffffffffffff1602179055505056fea165627a7a72305820de998670e8a7e4dba01ce33701a4ccbc0bf5c798cc78354ee3f4701e4b68bba30029",
  "source": "pragma solidity ^0.5.0;\n\nimport './UsingTellor.sol';\nimport '../TellorMaster.sol';\nimport '../Tellor.sol';\n/**\n* @title UsingTellor\n* This contracts creates for easy integration to the Tellor Tellor System\n*/\ncontract Optimistic is UsingTellor{\n\n\t//Can we rework soem of these mappings into a struct?\n\tmapping(uint => bool) public isValue;\n\tuint[] timestamps; //timestamps with values\n\tmapping(uint => bool) public disputedValues;\n\tmapping(uint => uint[]) public requestIdsIncluded;\n\tuint[] requestIds;\n\tuint public granularity;\n\tuint public disputeFee; //In Tributes\n\tuint public disputePeriod;\n\tmapping(uint => uint) valuesByTimestamp;\n\n\n\tevent NewValueSet(uint indexed _timestamp, uint _value);\n\tevent ValueDisputed(address _disputer,uint _timestamp, uint _value);\n\n\t//A list of parties who can set the values (must not be blank)\n\t//The off\n\tconstructor(address _userContract, uint _disputeFeeRequired, uint _disputePeriod, uint[] memory _requestIds, uint _granularity) UsingTellor(_userContract) public{\n\t\tdisputeFee = _disputeFeeRequired;\n\t\tdisputePeriod = _disputePeriod;\n\t\tgranularity = _granularity;\n\t\trequestIds = _requestIds;\n\t}\n\n\n\tfunction setValue(uint _timestamp, uint _value) external{\n\t\trequire(msg.sender == owner);\n\t\trequire(getIsValue(_timestamp) == false);\n\t\tvaluesByTimestamp[_timestamp] = _value;\n\t\tisValue[_timestamp] = true;\n\t\ttimestamps.push(_timestamp);\n\t\temit NewValueSet(_timestamp,_value);\n\n\t}\n\n\tfunction disputeOptimisticValue(uint _timestamp) external{\n\t\tTellorMaster _tellor = TellorMaster(tellorUserContract.tellorStorageAddress());\n\t\trequire(_tellor.balanceOf(address(this)) >= disputeFee);\n\t\trequire(isValue[_timestamp]);\n\t\trequire(now - now % granularity  < _timestamp + disputePeriod);\n\t\tdisputedValues[_timestamp] = true;\n\t\temit ValueDisputed(msg.sender,_timestamp,valuesByTimestamp[_timestamp]);\n\t\tgetTellorValues(_timestamp);\n\t}\n\n\n\tfunction getMyValuesByTimestamp(uint _timestamp) public view returns(uint value){\n\t\treturn valuesByTimestamp[_timestamp];\n\t}\n\n\n\tfunction getNumberOfValuesPerTimestamp(uint _timestamp) external view returns(uint){\n\t\t\treturn requestIdsIncluded[_timestamp].length;\n\t}\n\n\tfunction getIsValue(uint _timestamp) public view returns(bool){\n\t\treturn isValue[_timestamp];\n\t}\n\n\tfunction getTellorValues(uint _timestamp) public returns(uint _value, bool _didGet){\n\t\t//We need to get the tellor value within the granularity.  If no Tellor value is available...what then?  Simply put no Value?  \n\t\t//No basically, the dispute period for anyValue is within the granularity\n\t\tTellorMaster _tellor = TellorMaster(tellorUserContract.tellorStorageAddress());\n\t\tTellor _tellorCore = Tellor(tellorUserContract.tellorStorageAddress());\n\t\tuint _retrievedTimestamp;\n\t\tuint _initialBalance = _tellor.balanceOf(address(this));\n\t\tfor(uint i = 0; i < requestIds.length; i++){\n\t\t\t//Get all timestamps for that requestId\n\t\t\t//Check if any is after your given timestamp\n\t\t\t//If yes, return that value to the .  If no, then request that Id\n\t\t\t(_didGet,_value,_retrievedTimestamp) = getFirstVerifiedDataAfter(i,_timestamp);\n\t\t\tif(_didGet){\n\t\t\t\tvaluesByTimestamp[_retrievedTimestamp - _retrievedTimestamp % granularity] = (_value + valuesByTimestamp[_retrievedTimestamp - _retrievedTimestamp % granularity] * requestIdsIncluded[_timestamp].length) / (requestIdsIncluded[_timestamp].length + 1);\n\t\t\t\trequestIdsIncluded[_retrievedTimestamp - _retrievedTimestamp % granularity].push(i); //how do we make sure it's not called twice?\n\t\t\t}\n\t\t\telse{\n\t\t\t\tif(_tellor.balanceOf(address(this)) > requestIds.length){\n\t\t\t\t\t_tellorCore.addTip(i, _initialBalance / requestIds.length);\n\t\t\t\t}\n\t\t\t}\n\t\t}\n\t}\n\n\tfunction getLastValueAfter(uint _timestamp) external view returns(bool,uint,uint _timestampRetrieved){\n\t\tuint _count = timestamps.length ;\n\t\tif(_count > 0){\n\t\t\t\tfor(uint i = _count - 1;i > 0;i--){\n\t\t\t\t\tif(timestamps[i] >= _timestamp){\n\t\t\t\t\t\t_timestampRetrieved = timestamps[i];\n\t\t\t\t\t}\n\t\t\t\t}\n\t\t\t\tif(_timestampRetrieved > 0){\n\t\t\t\t\treturn(true,getMyValuesByTimestamp(_timestampRetrieved),_timestampRetrieved);\n\t\t\t\t}\n        }\n        return(false,0,0);\n\t}\n\n\tfunction getLastUndisputedValueAfter(uint _timestamp) external view returns(bool,uint, uint _timestampRetrieved){\n\t\tuint _count = timestamps.length;\n\t\tif(_count > 0){\n\t\t\t\tfor(uint i = _count - 1;i > 0;i--){\n\n\t\t\t\t\tif(timestamps[i] >= _timestamp && timestamps[i] > block.timestamp - disputePeriod){\n\t\t\t\t\t\t_timestampRetrieved = timestamps[i];\n\t\t\t\t\t}\n\t\t\t\t}\n\t\t\t\tif(_timestampRetrieved > 0){\n\t\t\t\t\treturn(true,getMyValuesByTimestamp(_timestampRetrieved),_timestampRetrieved);\n\t\t\t\t}\n        }\n        return(false,0,0);\n\t}\n\n\tfunction getCurrentValue() external view returns(uint){\n\t\treturn getMyValuesByTimestamp(timestamps[timestamps.length -1]);\n\t}\n\n\tfunction getTimestamps() external view returns(uint[] memory){\n\t\treturn timestamps;\n\t}\n}\n\n//On get last query, should be by requestId\n//add a sender to each of pieces (requestData/addValuePool)\n//remove requestId from requestData\n//somehow be able to get the most recent tip (or payout) and that is the dispute Fee\n//make sure we use SafeMath\n//add usingEther",
  "sourcePath": "/Users/mdcoon/git/TellorCore/contracts/userFiles/Optimistic.sol",
  "compiler": {
    "name": "solc",
    "version": "0.5.0+commit.1d4f565a.Emscripten.clang"
  },
  "schemaVersion": "3.0.6",
  "updatedAt": "2019-05-06T08:06:35.233Z",
  "devdoc": {
    "methods": {},
    "title": "UsingTellor This contracts creates for easy integration to the Tellor Tellor System"
  },
  "userdoc": {
    "methods": {}
  }
}