{
  "contractName": "Reader",
  "abi": [
    {
      "constant": false,
      "inputs": [
        {
          "name": "_timestamp",
          "type": "uint256"
        }
      ],
      "name": "getTellorValues",
      "outputs": [
        {
          "name": "_value",
          "type": "uint256"
        },
        {
          "name": "_didGet",
          "type": "bool"
        }
      ],
      "payable": false,
      "stateMutability": "nonpayable",
      "type": "function"
    },
    {
      "constant": true,
      "inputs": [],
      "name": "getCurrentValue",
      "outputs": [
        {
          "name": "",
          "type": "uint256"
        }
      ],
      "payable": false,
      "stateMutability": "view",
      "type": "function"
    },
    {
      "constant": true,
      "inputs": [],
      "name": "endValue",
      "outputs": [
        {
          "name": "",
          "type": "uint256"
        }
      ],
      "payable": false,
      "stateMutability": "view",
      "type": "function"
    },
    {
      "constant": false,
      "inputs": [
        {
          "name": "_timestamp",
          "type": "uint256"
        }
      ],
      "name": "disputeOptimisticValue",
      "outputs": [],
      "payable": false,
      "stateMutability": "nonpayable",
      "type": "function"
    },
    {
      "constant": true,
      "inputs": [
        {
          "name": "_timestamp",
          "type": "uint256"
        }
      ],
      "name": "getNumberOfValuesPerTimestamp",
      "outputs": [
        {
          "name": "",
          "type": "uint256"
        }
      ],
      "payable": false,
      "stateMutability": "view",
      "type": "function"
    },
    {
      "constant": true,
      "inputs": [
        {
          "name": "",
          "type": "uint256"
        }
      ],
      "name": "isValue",
      "outputs": [
        {
          "name": "",
          "type": "bool"
        }
      ],
      "payable": false,
      "stateMutability": "view",
      "type": "function"
    },
    {
      "constant": true,
      "inputs": [
        {
          "name": "",
          "type": "uint256"
        }
      ],
      "name": "disputedValues",
      "outputs": [
        {
          "name": "",
          "type": "bool"
        }
      ],
      "payable": false,
      "stateMutability": "view",
      "type": "function"
    },
    {
      "constant": true,
      "inputs": [],
      "name": "endDateTime",
      "outputs": [
        {
          "name": "",
          "type": "uint256"
        }
      ],
      "payable": false,
      "stateMutability": "view",
      "type": "function"
    },
    {
      "constant": true,
      "inputs": [],
      "name": "startValue",
      "outputs": [
        {
          "name": "",
          "type": "uint256"
        }
      ],
      "payable": false,
      "stateMutability": "view",
      "type": "function"
    },
    {
      "constant": true,
      "inputs": [
        {
          "name": "_requestId",
          "type": "uint256"
        }
      ],
      "name": "getCurrentValue",
      "outputs": [
        {
          "name": "ifRetrieve",
          "type": "bool"
        },
        {
          "name": "value",
          "type": "uint256"
        },
        {
          "name": "_timestampRetrieved",
          "type": "uint256"
        }
      ],
      "payable": false,
      "stateMutability": "view",
      "type": "function"
    },
    {
      "constant": false,
      "inputs": [
        {
          "name": "_request",
          "type": "string"
        },
        {
          "name": "_symbol",
          "type": "string"
        },
        {
          "name": "_granularity",
          "type": "uint256"
        },
        {
          "name": "_tip",
          "type": "uint256"
        }
      ],
      "name": "requestData",
      "outputs": [],
      "payable": false,
      "stateMutability": "nonpayable",
      "type": "function"
    },
    {
      "constant": false,
      "inputs": [
        {
          "name": "_request",
          "type": "string"
        },
        {
          "name": "_symbol",
          "type": "string"
        },
        {
          "name": "_granularity",
          "type": "uint256"
        },
        {
          "name": "_tip",
          "type": "uint256"
        }
      ],
      "name": "requestDataWithEther",
      "outputs": [],
      "payable": true,
      "stateMutability": "payable",
      "type": "function"
    },
    {
      "constant": true,
      "inputs": [
        {
          "name": "",
          "type": "uint256"
        },
        {
          "name": "",
          "type": "uint256"
        }
      ],
      "name": "requestIdsIncluded",
      "outputs": [
        {
          "name": "",
          "type": "uint256"
        }
      ],
      "payable": false,
      "stateMutability": "view",
      "type": "function"
    },
    {
      "constant": true,
      "inputs": [],
      "name": "granularity",
      "outputs": [
        {
          "name": "",
          "type": "uint256"
        }
      ],
      "payable": false,
      "stateMutability": "view",
      "type": "function"
    },
    {
      "constant": true,
      "inputs": [],
      "name": "getTimestamps",
      "outputs": [
        {
          "name": "",
          "type": "uint256[]"
        }
      ],
      "payable": false,
      "stateMutability": "view",
      "type": "function"
    },
    {
      "constant": true,
      "inputs": [],
      "name": "disputePeriod",
      "outputs": [
        {
          "name": "",
          "type": "uint256"
        }
      ],
      "payable": false,
      "stateMutability": "view",
      "type": "function"
    },
    {
      "constant": true,
      "inputs": [
        {
          "name": "_requestId",
          "type": "uint256"
        },
        {
          "name": "_timestamp",
          "type": "uint256"
        }
      ],
      "name": "getFirstVerifiedDataAfter",
      "outputs": [
        {
          "name": "",
          "type": "bool"
        },
        {
          "name": "",
          "type": "uint256"
        },
        {
          "name": "_timestampRetrieved",
          "type": "uint256"
        }
      ],
      "payable": false,
      "stateMutability": "view",
      "type": "function"
    },
    {
      "constant": false,
      "inputs": [
        {
          "name": "_requestId",
          "type": "uint256"
        },
        {
          "name": "_tip",
          "type": "uint256"
        }
      ],
      "name": "addTip",
      "outputs": [],
      "payable": false,
      "stateMutability": "nonpayable",
      "type": "function"
    },
    {
      "constant": true,
      "inputs": [],
      "name": "startDateTime",
      "outputs": [
        {
          "name": "",
          "type": "uint256"
        }
      ],
      "payable": false,
      "stateMutability": "view",
      "type": "function"
    },
    {
      "constant": false,
      "inputs": [
        {
          "name": "_timestamp",
          "type": "uint256"
        },
        {
          "name": "_value",
          "type": "uint256"
        }
      ],
      "name": "setValue",
      "outputs": [],
      "payable": false,
      "stateMutability": "nonpayable",
      "type": "function"
    },
    {
      "constant": true,
      "inputs": [
        {
          "name": "_timestamp",
          "type": "uint256"
        }
      ],
      "name": "getLastValueAfter",
      "outputs": [
        {
          "name": "",
          "type": "bool"
        },
        {
          "name": "",
          "type": "uint256"
        },
        {
          "name": "_timestampRetrieved",
          "type": "uint256"
        }
      ],
      "payable": false,
      "stateMutability": "view",
      "type": "function"
    },
    {
      "constant": true,
      "inputs": [],
      "name": "owner",
      "outputs": [
        {
          "name": "",
          "type": "address"
        }
      ],
      "payable": false,
      "stateMutability": "view",
      "type": "function"
    },
    {
      "constant": true,
      "inputs": [],
      "name": "contractEnded",
      "outputs": [
        {
          "name": "",
          "type": "bool"
        }
      ],
      "payable": false,
      "stateMutability": "view",
      "type": "function"
    },
    {
      "constant": true,
      "inputs": [
        {
          "name": "_timestamp",
          "type": "uint256"
        }
      ],
      "name": "getIsValue",
      "outputs": [
        {
          "name": "",
          "type": "bool"
        }
      ],
      "payable": false,
      "stateMutability": "view",
      "type": "function"
    },
    {
      "constant": false,
      "inputs": [
        {
          "name": "_userContract",
          "type": "address"
        }
      ],
      "name": "setUserContract",
      "outputs": [],
      "payable": false,
      "stateMutability": "nonpayable",
      "type": "function"
    },
    {
      "constant": true,
      "inputs": [
        {
          "name": "_timestamp",
          "type": "uint256"
        }
      ],
      "name": "getLastUndisputedValueAfter",
      "outputs": [
        {
          "name": "",
          "type": "bool"
        },
        {
          "name": "",
          "type": "uint256"
        },
        {
          "name": "_timestampRetrieved",
          "type": "uint256"
        }
      ],
      "payable": false,
      "stateMutability": "view",
      "type": "function"
    },
    {
      "constant": true,
      "inputs": [],
      "name": "disputeFee",
      "outputs": [
        {
          "name": "",
          "type": "uint256"
        }
      ],
      "payable": false,
      "stateMutability": "view",
      "type": "function"
    },
    {
      "constant": true,
      "inputs": [],
      "name": "longWins",
      "outputs": [
        {
          "name": "",
          "type": "bool"
        }
      ],
      "payable": false,
      "stateMutability": "view",
      "type": "function"
    },
    {
      "constant": true,
      "inputs": [
        {
          "name": "_requestId",
          "type": "uint256"
        },
        {
          "name": "_timestamp",
          "type": "uint256"
        }
      ],
      "name": "getAnyDataAfter",
      "outputs": [
        {
          "name": "_ifRetrieve",
          "type": "bool"
        },
        {
          "name": "_value",
          "type": "uint256"
        },
        {
          "name": "_timestampRetrieved",
          "type": "uint256"
        }
      ],
      "payable": false,
      "stateMutability": "view",
      "type": "function"
    },
    {
      "constant": true,
      "inputs": [
        {
          "name": "_timestamp",
          "type": "uint256"
        }
      ],
      "name": "getMyValuesByTimestamp",
      "outputs": [
        {
          "name": "value",
          "type": "uint256"
        }
      ],
      "payable": false,
      "stateMutability": "view",
      "type": "function"
    },
    {
      "constant": false,
      "inputs": [
        {
          "name": "_requestId",
          "type": "uint256"
        },
        {
          "name": "_tip",
          "type": "uint256"
        }
      ],
      "name": "addTipWithEther",
      "outputs": [],
      "payable": false,
      "stateMutability": "nonpayable",
      "type": "function"
    },
    {
      "constant": false,
      "inputs": [
        {
          "name": "_newOwner",
          "type": "address"
        }
      ],
      "name": "transferOwnership",
      "outputs": [],
      "payable": false,
      "stateMutability": "nonpayable",
      "type": "function"
    },
    {
      "inputs": [
        {
          "name": "_userContract",
          "type": "address"
        },
        {
          "name": "_disputeFeeRequired",
          "type": "uint256"
        },
        {
          "name": "_disputePeriod",
          "type": "uint256"
        },
        {
          "name": "_requestIds",
          "type": "uint256[]"
        },
        {
          "name": "_granularity",
          "type": "uint256"
        }
      ],
      "payable": false,
      "stateMutability": "nonpayable",
      "type": "constructor"
    },
    {
      "anonymous": false,
      "inputs": [
        {
          "indexed": false,
          "name": "_svalue",
          "type": "uint256"
        },
        {
          "indexed": false,
          "name": "_evalue",
          "type": "uint256"
        }
      ],
      "name": "ContractSettled",
      "type": "event"
    },
    {
      "anonymous": false,
      "inputs": [
        {
          "indexed": true,
          "name": "_timestamp",
          "type": "uint256"
        },
        {
          "indexed": false,
          "name": "_value",
          "type": "uint256"
        }
      ],
      "name": "NewValueSet",
      "type": "event"
    },
    {
      "anonymous": false,
      "inputs": [
        {
          "indexed": false,
          "name": "_disputer",
          "type": "address"
        },
        {
          "indexed": false,
          "name": "_timestamp",
          "type": "uint256"
        },
        {
          "indexed": false,
          "name": "_value",
          "type": "uint256"
        }
      ],
      "name": "ValueDisputed",
      "type": "event"
    },
    {
      "anonymous": false,
      "inputs": [
        {
          "indexed": false,
          "name": "_previousOwner",
          "type": "address"
        },
        {
          "indexed": false,
          "name": "_newOwner",
          "type": "address"
        }
      ],
      "name": "OwnershipTransferred",
      "type": "event"
    },
    {
      "constant": false,
      "inputs": [
        {
          "name": "_duration",
          "type": "uint256"
        }
      ],
      "name": "testContract",
      "outputs": [],
      "payable": false,
      "stateMutability": "nonpayable",
      "type": "function"
    },
    {
      "constant": false,
      "inputs": [],
      "name": "settleContracts",
      "outputs": [],
      "payable": false,
      "stateMutability": "nonpayable",
      "type": "function"
    }
  ],
  "bytecode": "0x60806040523480156200001157600080fd5b506040516200300138038062003001833981018060405260a08110156200003757600080fd5b8101908080519060200190929190805190602001909291908051906020019092919080516401000000008111156200006e57600080fd5b828101905060208101848111156200008557600080fd5b8151856020820283011164010000000082111715620000a357600080fd5b505092919060200180519060200190929190505050848484848484806000806101000a81548173ffffffffffffffffffffffffffffffffffffffff021916908373ffffffffffffffffffffffffffffffffffffffff16021790555033600160006101000a81548173ffffffffffffffffffffffffffffffffffffffff021916908373ffffffffffffffffffffffffffffffffffffffff1602179055505083600881905550826009819055508060078190555081600690805190602001906200016d9291906200017e565b5050505050505050505050620001f8565b828054828255906000526020600020908101928215620001bd579160200282015b82811115620001bc5782518255916020019190600101906200019f565b5b509050620001cc9190620001d0565b5090565b620001f591905b80821115620001f1576000816000905550600101620001d7565b5090565b90565b612df980620002086000396000f3fe6080604052600436106101ac576000357c0100000000000000000000000000000000000000000000000000000000900463ffffffff168063062777ff146101b15780630f76c1141461020b57806316e72abb146102365780631714b0c514610261578063292b8cce1461029c5780632aa0bc1f146102d757806336e9d6321461032657806337ae9e43146103795780633c9177cd146103cc5780633f35ff32146103f75780633fcad964146104225780633fff2816146104835780634482e6f314610572578063550921d414610654578063556f0dc7146106ad57806359abbfe4146106d85780635bf31d4d146107445780635f059f3e1461076f578063752d49a1146107da578063775f75df1461081f5780637b8d56e31461084a578063871058011461088f57806389055867146108a65780638da5cb5b1461090757806391bf116f1461095e5780639a64f0701461098d578063a1206d4e146109e0578063b97b267b14610a31578063b9ce896b14610a92578063bad4d21e14610abd578063d269a83c14610aec578063e631def714610b57578063e723e3b514610ba6578063f2fde38b14610beb575b600080fd5b3480156101bd57600080fd5b506101ea600480360360208110156101d457600080fd5b8101908080359060200190929190505050610c3c565b60405180838152602001821515151581526020019250505060405180910390f35b34801561021757600080fd5b5061022061113b565b6040518082815260200191505060405180910390f35b34801561024257600080fd5b5061024b61116c565b6040518082815260200191505060405180910390f35b34801561026d57600080fd5b5061029a6004803603602081101561028457600080fd5b8101908080359060200190929190505050611172565b005b3480156102a857600080fd5b506102d5600480360360208110156102bf57600080fd5b81019080803590602001909291905050506111a3565b005b3480156102e357600080fd5b50610310600480360360208110156102fa57600080fd5b8101908080359060200190929190505050611457565b6040518082815260200191505060405180910390f35b34801561033257600080fd5b5061035f6004803603602081101561034957600080fd5b8101908080359060200190929190505050611477565b604051808215151515815260200191505060405180910390f35b34801561038557600080fd5b506103b26004803603602081101561039c57600080fd5b8101908080359060200190929190505050611497565b604051808215151515815260200191505060405180910390f35b3480156103d857600080fd5b506103e16114b7565b6040518082815260200191505060405180910390f35b34801561040357600080fd5b5061040c6114bd565b6040518082815260200191505060405180910390f35b34801561042e57600080fd5b5061045b6004803603602081101561044557600080fd5b81019080803590602001909291905050506114c3565b6040518084151515158152602001838152602001828152602001935050505060405180910390f35b34801561048f57600080fd5b50610570600480360360808110156104a657600080fd5b81019080803590602001906401000000008111156104c357600080fd5b8201836020820111156104d557600080fd5b803590602001918460018302840111640100000000831117156104f757600080fd5b90919293919293908035906020019064010000000081111561051857600080fd5b82018360208201111561052a57600080fd5b8035906020019184600183028401116401000000008311171561054c57600080fd5b909192939192939080359060200190929190803590602001909291905050506117ce565b005b6106526004803603608081101561058857600080fd5b81019080803590602001906401000000008111156105a557600080fd5b8201836020820111156105b757600080fd5b803590602001918460018302840111640100000000831117156105d957600080fd5b9091929391929390803590602001906401000000008111156105fa57600080fd5b82018360208201111561060c57600080fd5b8035906020019184600183028401116401000000008311171561062e57600080fd5b90919293919293908035906020019092919080359060200190929190505050611a79565b005b34801561066057600080fd5b506106976004803603604081101561067757600080fd5b810190808035906020019092919080359060200190929190505050611b99565b6040518082815260200191505060405180910390f35b3480156106b957600080fd5b506106c2611bc9565b6040518082815260200191505060405180910390f35b3480156106e457600080fd5b506106ed611bcf565b6040518080602001828103825283818151815260200191508051906020019060200280838360005b83811015610730578082015181840152602081019050610715565b505050509050019250505060405180910390f35b34801561075057600080fd5b50610759611c27565b6040518082815260200191505060405180910390f35b34801561077b57600080fd5b506107b26004803603604081101561079257600080fd5b810190808035906020019092919080359060200190929190505050611c2d565b6040518084151515158152602001838152602001828152602001935050505060405180910390f35b3480156107e657600080fd5b5061081d600480360360408110156107fd57600080fd5b8101908080359060200190929190803590602001909291905050506120de565b005b34801561082b57600080fd5b50610834612313565b6040518082815260200191505060405180910390f35b34801561085657600080fd5b5061088d6004803603604081101561086d57600080fd5b810190808035906020019092919080359060200190929190505050612319565b005b34801561089b57600080fd5b506108a461243c565b005b3480156108b257600080fd5b506108df600480360360208110156108c957600080fd5b8101908080359060200190929190505050612508565b6040518084151515158152602001838152602001828152602001935050505060405180910390f35b34801561091357600080fd5b5061091c6125bb565b604051808273ffffffffffffffffffffffffffffffffffffffff1673ffffffffffffffffffffffffffffffffffffffff16815260200191505060405180910390f35b34801561096a57600080fd5b506109736125e1565b604051808215151515815260200191505060405180910390f35b34801561099957600080fd5b506109c6600480360360208110156109b057600080fd5b81019080803590602001909291905050506125f4565b604051808215151515815260200191505060405180910390f35b3480156109ec57600080fd5b50610a2f60048036036020811015610a0357600080fd5b81019080803573ffffffffffffffffffffffffffffffffffffffff16906020019092919050505061261e565b005b348015610a3d57600080fd5b50610a6a60048036036020811015610a5457600080fd5b81019080803590602001909291905050506126bd565b6040518084151515158152602001838152602001828152602001935050505060405180910390f35b348015610a9e57600080fd5b50610aa7612798565b6040518082815260200191505060405180910390f35b348015610ac957600080fd5b50610ad261279e565b604051808215151515815260200191505060405180910390f35b348015610af857600080fd5b50610b2f60048036036040811015610b0f57600080fd5b8101908080359060200190929190803590602001909291905050506127b1565b6040518084151515158152602001838152602001828152602001935050505060405180910390f35b348015610b6357600080fd5b50610b9060048036036020811015610b7a57600080fd5b8101908080359060200190929190505050612ba3565b6040518082815260200191505060405180910390f35b348015610bb257600080fd5b50610be960048036036040811015610bc957600080fd5b810190808035906020019092919080359060200190929190505050612bc0565b005b348015610bf757600080fd5b50610c3a60048036036020811015610c0e57600080fd5b81019080803573ffffffffffffffffffffffffffffffffffffffff169060200190929190505050612c74565b005b60008060008060009054906101000a900473ffffffffffffffffffffffffffffffffffffffff1673ffffffffffffffffffffffffffffffffffffffff1663a80209736040518163ffffffff167c010000000000000000000000000000000000000000000000000000000002815260040160206040518083038186803b158015610cc457600080fd5b505afa158015610cd8573d6000803e3d6000fd5b505050506040513d6020811015610cee57600080fd5b8101908080519060200190929190505050905060008060009054906101000a900473ffffffffffffffffffffffffffffffffffffffff1673ffffffffffffffffffffffffffffffffffffffff1663a80209736040518163ffffffff167c010000000000000000000000000000000000000000000000000000000002815260040160206040518083038186803b158015610d8657600080fd5b505afa158015610d9a573d6000803e3d6000fd5b505050506040513d6020811015610db057600080fd5b810190808051906020019092919050505090506000808373ffffffffffffffffffffffffffffffffffffffff166370a08231306040518263ffffffff167c0100000000000000000000000000000000000000000000000000000000028152600401808273ffffffffffffffffffffffffffffffffffffffff1673ffffffffffffffffffffffffffffffffffffffff16815260200191505060206040518083038186803b158015610e5f57600080fd5b505afa158015610e73573d6000803e3d6000fd5b505050506040513d6020811015610e8957600080fd5b8101908080519060200190929190505050905060008090505b60068054905081101561113157610eb98189611c2d565b8095508199508298505050508515610fa3576001600560008a81526020019081526020016000208054905001600560008a815260200190815260200160002080549050600a600060075487811515610f0d57fe5b068703815260200190815260200160002054028801811515610f2b57fe5b04600a600060075486811515610f3d57fe5b0686038152602001908152602001600020819055506005600060075485811515610f6357fe5b0685038152602001908152602001600020819080600181540180825580915050906001820390600052602060002001600090919290919091505550611124565b6006805490508573ffffffffffffffffffffffffffffffffffffffff166370a08231306040518263ffffffff167c0100000000000000000000000000000000000000000000000000000000028152600401808273ffffffffffffffffffffffffffffffffffffffff1673ffffffffffffffffffffffffffffffffffffffff16815260200191505060206040518083038186803b15801561104257600080fd5b505afa158015611056573d6000803e3d6000fd5b505050506040513d602081101561106c57600080fd5b81019080805190602001909291905050501115611123578373ffffffffffffffffffffffffffffffffffffffff1663752d49a182600680549050858115156110b057fe5b046040518363ffffffff167c01000000000000000000000000000000000000000000000000000000000281526004018083815260200182815260200192505050600060405180830381600087803b15801561110a57600080fd5b505af115801561111e573d6000803e3d6000fd5b505050505b5b8080600101915050610ea2565b5050505050915091565b6000611167600360016003805490500381548110151561115757fe5b9060005260206000200154612ba3565b905090565b600e5481565b6007544281151561117f57fe5b064203600b81905550806007544281151561119657fe5b06420301600c8190555050565b60008060009054906101000a900473ffffffffffffffffffffffffffffffffffffffff1673ffffffffffffffffffffffffffffffffffffffff1663a80209736040518163ffffffff167c010000000000000000000000000000000000000000000000000000000002815260040160206040518083038186803b15801561122857600080fd5b505afa15801561123c573d6000803e3d6000fd5b505050506040513d602081101561125257600080fd5b810190808051906020019092919050505090506008548173ffffffffffffffffffffffffffffffffffffffff166370a08231306040518263ffffffff167c0100000000000000000000000000000000000000000000000000000000028152600401808273ffffffffffffffffffffffffffffffffffffffff1673ffffffffffffffffffffffffffffffffffffffff16815260200191505060206040518083038186803b15801561130157600080fd5b505afa158015611315573d6000803e3d6000fd5b505050506040513d602081101561132b57600080fd5b81019080805190602001909291905050501015151561134957600080fd5b6002600083815260200190815260200160002060009054906101000a900460ff16151561137557600080fd5b60095482016007544281151561138757fe5b06420310151561139657600080fd5b60016004600084815260200190815260200160002060006101000a81548160ff0219169083151502179055507fb199747b7b98ffd681a09c542f7f62ba4972f6f5b7d791b6f8bba36862cbdd2b3383600a600086815260200190815260200160002054604051808473ffffffffffffffffffffffffffffffffffffffff1673ffffffffffffffffffffffffffffffffffffffff168152602001838152602001828152602001935050505060405180910390a161145182610c3c565b50505050565b600060056000838152602001908152602001600020805490509050919050565b60026020528060005260406000206000915054906101000a900460ff1681565b60046020528060005260406000206000915054906101000a900460ff1681565b600c5481565b600d5481565b6000806000806000809054906101000a900473ffffffffffffffffffffffffffffffffffffffff1673ffffffffffffffffffffffffffffffffffffffff1663a80209736040518163ffffffff167c010000000000000000000000000000000000000000000000000000000002815260040160206040518083038186803b15801561154c57600080fd5b505afa158015611560573d6000803e3d6000fd5b505050506040513d602081101561157657600080fd5b8101908080519060200190929190505050905060008173ffffffffffffffffffffffffffffffffffffffff166346eee1c4876040518263ffffffff167c01000000000000000000000000000000000000000000000000000000000281526004018082815260200191505060206040518083038186803b1580156115f857600080fd5b505afa15801561160c573d6000803e3d6000fd5b505050506040513d602081101561162257600080fd5b8101908080519060200190929190505050905060008111156117b3578173ffffffffffffffffffffffffffffffffffffffff166377fbb66387600184036040518363ffffffff167c0100000000000000000000000000000000000000000000000000000000028152600401808381526020018281526020019250505060206040518083038186803b1580156116b657600080fd5b505afa1580156116ca573d6000803e3d6000fd5b505050506040513d60208110156116e057600080fd5b8101908080519060200190929190505050925060018273ffffffffffffffffffffffffffffffffffffffff166393fa491588866040518363ffffffff167c0100000000000000000000000000000000000000000000000000000000028152600401808381526020018281526020019250505060206040518083038186803b15801561176a57600080fd5b505afa15801561177e573d6000803e3d6000fd5b505050506040513d602081101561179457600080fd5b81019080805190602001909291905050508494509450945050506117c7565b600080600081915080905094509450945050505b9193909250565b60008060009054906101000a900473ffffffffffffffffffffffffffffffffffffffff1673ffffffffffffffffffffffffffffffffffffffff1663a80209736040518163ffffffff167c010000000000000000000000000000000000000000000000000000000002815260040160206040518083038186803b15801561185357600080fd5b505afa158015611867573d6000803e3d6000fd5b505050506040513d602081101561187d57600080fd5b810190808051906020019092919050505090506000821115611979578073ffffffffffffffffffffffffffffffffffffffff1663a9059cbb30846040518363ffffffff167c0100000000000000000000000000000000000000000000000000000000028152600401808373ffffffffffffffffffffffffffffffffffffffff1673ffffffffffffffffffffffffffffffffffffffff16815260200182815260200192505050602060405180830381600087803b15801561193c57600080fd5b505af1158015611950573d6000803e3d6000fd5b505050506040513d602081101561196657600080fd5b8101908080519060200190929190505050505b8073ffffffffffffffffffffffffffffffffffffffff16633fff28168888888888886040518763ffffffff167c01000000000000000000000000000000000000000000000000000000000281526004018080602001806020018581526020018481526020018381038352898982818152602001925080828437600081840152601f19601f8201169050808301925050508381038252878782818152602001925080828437600081840152601f19601f82011690508083019250505098505050505050505050600060405180830381600087803b158015611a5857600080fd5b505af1158015611a6c573d6000803e3d6000fd5b5050505050505050505050565b6000809054906101000a900473ffffffffffffffffffffffffffffffffffffffff1673ffffffffffffffffffffffffffffffffffffffff16634482e6f38787878787876040518763ffffffff167c01000000000000000000000000000000000000000000000000000000000281526004018080602001806020018581526020018481526020018381038352898982818152602001925080828437600081840152601f19601f8201169050808301925050508381038252878782818152602001925080828437600081840152601f19601f82011690508083019250505098505050505050505050600060405180830381600087803b158015611b7957600080fd5b505af1158015611b8d573d6000803e3d6000fd5b50505050505050505050565b600560205281600052604060002081815481101515611bb457fe5b90600052602060002001600091509150505481565b60075481565b60606003805480602002602001604051908101604052809291908181526020018280548015611c1d57602002820191906000526020600020905b815481526020019060010190808311611c09575b5050505050905090565b60095481565b6000806000806000809054906101000a900473ffffffffffffffffffffffffffffffffffffffff1673ffffffffffffffffffffffffffffffffffffffff1663a80209736040518163ffffffff167c010000000000000000000000000000000000000000000000000000000002815260040160206040518083038186803b158015611cb657600080fd5b505afa158015611cca573d6000803e3d6000fd5b505050506040513d6020811015611ce057600080fd5b8101908080519060200190929190505050905060008173ffffffffffffffffffffffffffffffffffffffff166346eee1c4886040518263ffffffff167c01000000000000000000000000000000000000000000000000000000000281526004018082815260200191505060206040518083038186803b158015611d6257600080fd5b505afa158015611d76573d6000803e3d6000fd5b505050506040513d6020811015611d8c57600080fd5b8101908080519060200190929190505050905060008111156120c35760006001820390505b6000811115611ff857868373ffffffffffffffffffffffffffffffffffffffff166377fbb6638a846040518363ffffffff167c0100000000000000000000000000000000000000000000000000000000028152600401808381526020018281526020019250505060206040518083038186803b158015611e3057600080fd5b505afa158015611e44573d6000803e3d6000fd5b505050506040513d6020811015611e5a57600080fd5b8101908080519060200190929190505050108015611f2b57506201518042038373ffffffffffffffffffffffffffffffffffffffff166377fbb6638a846040518363ffffffff167c0100000000000000000000000000000000000000000000000000000000028152600401808381526020018281526020019250505060206040518083038186803b158015611eee57600080fd5b505afa158015611f02573d6000803e3d6000fd5b505050506040513d6020811015611f1857600080fd5b8101908080519060200190929190505050105b15611fea578273ffffffffffffffffffffffffffffffffffffffff166377fbb66389600184016040518363ffffffff167c0100000000000000000000000000000000000000000000000000000000028152600401808381526020018281526020019250505060206040518083038186803b158015611fa857600080fd5b505afa158015611fbc573d6000803e3d6000fd5b505050506040513d6020811015611fd257600080fd5b81019080805190602001909291905050509350600090505b808060019003915050611db1565b5060008311156120c25760018273ffffffffffffffffffffffffffffffffffffffff166393fa491589866040518363ffffffff167c0100000000000000000000000000000000000000000000000000000000028152600401808381526020018281526020019250505060206040518083038186803b15801561207957600080fd5b505afa15801561208d573d6000803e3d6000fd5b505050506040513d60208110156120a357600080fd5b81019080805190602001909291905050508494509450945050506120d7565b5b600080600081915080905094509450945050505b9250925092565b60008060009054906101000a900473ffffffffffffffffffffffffffffffffffffffff1673ffffffffffffffffffffffffffffffffffffffff1663a80209736040518163ffffffff167c010000000000000000000000000000000000000000000000000000000002815260040160206040518083038186803b15801561216357600080fd5b505afa158015612177573d6000803e3d6000fd5b505050506040513d602081101561218d57600080fd5b810190808051906020019092919050505090508073ffffffffffffffffffffffffffffffffffffffff1663a9059cbb30846040518363ffffffff167c0100000000000000000000000000000000000000000000000000000000028152600401808373ffffffffffffffffffffffffffffffffffffffff1673ffffffffffffffffffffffffffffffffffffffff16815260200182815260200192505050602060405180830381600087803b15801561224357600080fd5b505af1158015612257573d6000803e3d6000fd5b505050506040513d602081101561226d57600080fd5b8101908080519060200190929190505050508073ffffffffffffffffffffffffffffffffffffffff1663752d49a184846040518363ffffffff167c01000000000000000000000000000000000000000000000000000000000281526004018083815260200182815260200192505050600060405180830381600087803b1580156122f657600080fd5b505af115801561230a573d6000803e3d6000fd5b50505050505050565b600b5481565b600160009054906101000a900473ffffffffffffffffffffffffffffffffffffffff1673ffffffffffffffffffffffffffffffffffffffff163373ffffffffffffffffffffffffffffffffffffffff1614151561237557600080fd5b60001515612382836125f4565b151514151561239057600080fd5b80600a60008481526020019081526020016000208190555060016002600084815260200190815260200160002060006101000a81548160ff0219169083151502179055506003829080600181540180825580915050906001820390600052602060002001600090919290919091505550817f2afa03c814297ffc234ff967b6f0863d3c358be243103f20217c8d3a4d39f9c0826040518082815260200191505060405180910390a25050565b612447600b546125f4565b1561250657612457600b54612ba3565b600d81905550612468600c546125f4565b1561250557612478600c54612ba3565b600e81905550600d54600e5411156124a6576001600f60006101000a81548160ff0219169083151502179055505b6001600f60016101000a81548160ff0219169083151502179055507fbbdea414ca4370d674fd5e370fbc6d7da2dafff34ec019faaf1c36b1180a314b600d54600e54604051808381526020018281526020019250505060405180910390a15b5b565b600080600080600380549050905060008111156125a15760006001820390505b600081111561257e578560038281548110151561254157fe5b90600052602060002001541015156125705760038181548110151561256257fe5b906000526020600020015492505b808060019003915050612528565b5060008211156125a057600161259383612ba3565b83935093509350506125b4565b5b6000806000819150809050935093509350505b9193909250565b600160009054906101000a900473ffffffffffffffffffffffffffffffffffffffff1681565b600f60019054906101000a900460ff1681565b60006002600083815260200190815260200160002060009054906101000a900460ff169050919050565b600160009054906101000a900473ffffffffffffffffffffffffffffffffffffffff1673ffffffffffffffffffffffffffffffffffffffff163373ffffffffffffffffffffffffffffffffffffffff1614151561267a57600080fd5b806000806101000a81548173ffffffffffffffffffffffffffffffffffffffff021916908373ffffffffffffffffffffffffffffffffffffffff16021790555050565b6000806000806003805490509050600081111561277e5760006001820390505b600081111561275b57856003828154811015156126f657fe5b90600052602060002001541015801561272b5750600954420360038281548110151561271e57fe5b9060005260206000200154115b1561274d5760038181548110151561273f57fe5b906000526020600020015492505b8080600190039150506126dd565b50600082111561277d57600161277083612ba3565b8393509350935050612791565b5b6000806000819150809050935093509350505b9193909250565b60085481565b600f60009054906101000a900460ff1681565b6000806000806000809054906101000a900473ffffffffffffffffffffffffffffffffffffffff1673ffffffffffffffffffffffffffffffffffffffff1663a80209736040518163ffffffff167c010000000000000000000000000000000000000000000000000000000002815260040160206040518083038186803b15801561283a57600080fd5b505afa15801561284e573d6000803e3d6000fd5b505050506040513d602081101561286457600080fd5b8101908080519060200190929190505050905060008173ffffffffffffffffffffffffffffffffffffffff166346eee1c4886040518263ffffffff167c01000000000000000000000000000000000000000000000000000000000281526004018082815260200191505060206040518083038186803b1580156128e657600080fd5b505afa1580156128fa573d6000803e3d6000fd5b505050506040513d602081101561291057600080fd5b810190808051906020019092919050505090506000811115612b885760006001820390505b6000811115612abd57868373ffffffffffffffffffffffffffffffffffffffff166377fbb6638a846040518363ffffffff167c0100000000000000000000000000000000000000000000000000000000028152600401808381526020018281526020019250505060206040518083038186803b1580156129b457600080fd5b505afa1580156129c8573d6000803e3d6000fd5b505050506040513d60208110156129de57600080fd5b81019080805190602001909291905050501015612aaf578273ffffffffffffffffffffffffffffffffffffffff166377fbb66389600184016040518363ffffffff167c0100000000000000000000000000000000000000000000000000000000028152600401808381526020018281526020019250505060206040518083038186803b158015612a6d57600080fd5b505afa158015612a81573d6000803e3d6000fd5b505050506040513d6020811015612a9757600080fd5b81019080805190602001909291905050509350600090505b808060019003915050612935565b506000831115612b875760018273ffffffffffffffffffffffffffffffffffffffff166393fa491589866040518363ffffffff167c0100000000000000000000000000000000000000000000000000000000028152600401808381526020018281526020019250505060206040518083038186803b158015612b3e57600080fd5b505afa158015612b52573d6000803e3d6000fd5b505050506040513d6020811015612b6857600080fd5b8101908080519060200190929190505050849450945094505050612b9c565b5b600080600081915080905094509450945050505b9250925092565b6000600a6000838152602001908152602001600020549050919050565b6000809054906101000a900473ffffffffffffffffffffffffffffffffffffffff1673ffffffffffffffffffffffffffffffffffffffff1663e723e3b583836040518363ffffffff167c01000000000000000000000000000000000000000000000000000000000281526004018083815260200182815260200192505050600060405180830381600087803b158015612c5857600080fd5b505af1158015612c6c573d6000803e3d6000fd5b505050505050565b600160009054906101000a900473ffffffffffffffffffffffffffffffffffffffff1673ffffffffffffffffffffffffffffffffffffffff163373ffffffffffffffffffffffffffffffffffffffff16141515612cd057600080fd5b7f8be0079c531659141344cd1fd0a4f28419497f9722a3daafe3b4186f6b6457e0600160009054906101000a900473ffffffffffffffffffffffffffffffffffffffff1682604051808373ffffffffffffffffffffffffffffffffffffffff1673ffffffffffffffffffffffffffffffffffffffff1681526020018273ffffffffffffffffffffffffffffffffffffffff1673ffffffffffffffffffffffffffffffffffffffff1681526020019250505060405180910390a180600160006101000a81548173ffffffffffffffffffffffffffffffffffffffff021916908373ffffffffffffffffffffffffffffffffffffffff1602179055505056fea165627a7a72305820028ff8c83ab9eb1421f881c6c030f8d82fcbcf1380d233cbe774c31e754613a70029",
  "source": "pragma solidity ^0.5.0;\n\nimport './Optimistic.sol';\n/**\n* @title Reader\n* This contracts is a pretend contract using Tellor that compares two time values\n*/\ncontract Reader is Optimistic{\n\n\tuint public startDateTime;\n\tuint public endDateTime;\n\tuint public startValue;\n\tuint public endValue;\n\tbool public longWins;\n\tbool public contractEnded;\n\tevent ContractSettled(uint _svalue, uint _evalue);\n\n\tconstructor(address _userContract, uint _disputeFeeRequired, uint _disputePeriod, uint[] memory _requestIds, uint _granularity) Optimistic(_userContract,_disputeFeeRequired,_disputePeriod, _requestIds,_granularity) public {}\n\n\tfunction testContract(uint _duration) external {\n\t\tstartDateTime = now - now % granularity;\n\t\tendDateTime = now - now % granularity + _duration;\n\t}\n\n\tfunction settleContracts() external{\n\t\tif(getIsValue(startDateTime)){\n\t\t\tstartValue =  getMyValuesByTimestamp(startDateTime);\n\t\t\tif(getIsValue(endDateTime)){\n\t\t\t\tendValue = getMyValuesByTimestamp(endDateTime);\n\t\t\t\tif(endValue > startValue){\n\t\t\t\t\tlongWins = true;\n\t\t\t\t}\n\t\t\t\tcontractEnded = true;\n\t\t\t\temit ContractSettled(startValue, endValue);\n\t\t\t}\n\t\t}\n\t}\n}",
  "sourcePath": "/Users/mdcoon/git/TellorCore/contracts/userFiles/Reader.sol",
  "compiler": {
    "name": "solc",
    "version": "0.5.0+commit.1d4f565a.Emscripten.clang"
  },
  "schemaVersion": "3.0.6",
  "updatedAt": "2019-05-06T08:06:35.238Z",
  "devdoc": {
    "methods": {},
    "title": "Reader This contracts is a pretend contract using Tellor that compares two time values"
  },
  "userdoc": {
    "methods": {}
  }
}