{
  "contractName": "UsingTellor",
  "abi": [
    {
      "constant": true,
      "inputs": [],
      "name": "owner",
      "outputs": [
        {
          "name": "",
          "type": "address"
        }
      ],
      "payable": false,
      "stateMutability": "view",
      "type": "function"
    },
    {
      "inputs": [
        {
          "name": "_user",
          "type": "address"
        }
      ],
      "payable": false,
      "stateMutability": "nonpayable",
      "type": "constructor"
    },
    {
      "anonymous": false,
      "inputs": [
        {
          "indexed": false,
          "name": "_previousOwner",
          "type": "address"
        },
        {
          "indexed": false,
          "name": "_newOwner",
          "type": "address"
        }
      ],
      "name": "OwnershipTransferred",
      "type": "event"
    },
    {
      "constant": true,
      "inputs": [
        {
          "name": "_requestId",
          "type": "uint256"
        }
      ],
      "name": "getCurrentValue",
      "outputs": [
        {
          "name": "ifRetrieve",
          "type": "bool"
        },
        {
          "name": "value",
          "type": "uint256"
        },
        {
          "name": "_timestampRetrieved",
          "type": "uint256"
        }
      ],
      "payable": false,
      "stateMutability": "view",
      "type": "function"
    },
    {
      "constant": true,
      "inputs": [
        {
          "name": "_requestId",
          "type": "uint256"
        },
        {
          "name": "_timestamp",
          "type": "uint256"
        }
      ],
      "name": "getFirstVerifiedDataAfter",
      "outputs": [
        {
          "name": "",
          "type": "bool"
        },
        {
          "name": "",
          "type": "uint256"
        },
        {
          "name": "_timestampRetrieved",
          "type": "uint256"
        }
      ],
      "payable": false,
      "stateMutability": "view",
      "type": "function"
    },
    {
      "constant": true,
      "inputs": [
        {
          "name": "_requestId",
          "type": "uint256"
        },
        {
          "name": "_timestamp",
          "type": "uint256"
        }
      ],
      "name": "getAnyDataAfter",
      "outputs": [
        {
          "name": "_ifRetrieve",
          "type": "bool"
        },
        {
          "name": "_value",
          "type": "uint256"
        },
        {
          "name": "_timestampRetrieved",
          "type": "uint256"
        }
      ],
      "payable": false,
      "stateMutability": "view",
      "type": "function"
    },
    {
      "constant": false,
      "inputs": [
        {
          "name": "_request",
          "type": "string"
        },
        {
          "name": "_symbol",
          "type": "string"
        },
        {
          "name": "_granularity",
          "type": "uint256"
        },
        {
          "name": "_tip",
          "type": "uint256"
        }
      ],
      "name": "requestData",
      "outputs": [],
      "payable": false,
      "stateMutability": "nonpayable",
      "type": "function"
    },
    {
      "constant": false,
      "inputs": [
        {
          "name": "_request",
          "type": "string"
        },
        {
          "name": "_symbol",
          "type": "string"
        },
        {
          "name": "_granularity",
          "type": "uint256"
        },
        {
          "name": "_tip",
          "type": "uint256"
        }
      ],
      "name": "requestDataWithEther",
      "outputs": [],
      "payable": true,
      "stateMutability": "payable",
      "type": "function"
    },
    {
      "constant": false,
      "inputs": [
        {
          "name": "_requestId",
          "type": "uint256"
        },
        {
          "name": "_tip",
          "type": "uint256"
        }
      ],
      "name": "addTip",
      "outputs": [],
      "payable": false,
      "stateMutability": "nonpayable",
      "type": "function"
    },
    {
      "constant": false,
      "inputs": [
        {
          "name": "_requestId",
          "type": "uint256"
        },
        {
          "name": "_tip",
          "type": "uint256"
        }
      ],
      "name": "addTipWithEther",
      "outputs": [],
      "payable": false,
      "stateMutability": "nonpayable",
      "type": "function"
    },
    {
      "constant": false,
      "inputs": [
        {
          "name": "_userContract",
          "type": "address"
        }
      ],
      "name": "setUserContract",
      "outputs": [],
      "payable": false,
      "stateMutability": "nonpayable",
      "type": "function"
    },
    {
      "constant": false,
      "inputs": [
        {
          "name": "_newOwner",
          "type": "address"
        }
      ],
      "name": "transferOwnership",
      "outputs": [],
      "payable": false,
      "stateMutability": "nonpayable",
      "type": "function"
    }
  ],
  "bytecode": "0x608060405234801561001057600080fd5b50604051602080611ab28339810180604052602081101561003057600080fd5b8101908080519060200190929190505050806000806101000a81548173ffffffffffffffffffffffffffffffffffffffff021916908373ffffffffffffffffffffffffffffffffffffffff16021790555033600160006101000a81548173ffffffffffffffffffffffffffffffffffffffff021916908373ffffffffffffffffffffffffffffffffffffffff160217905550506119e0806100d26000396000f3fe6080604052600436106100a4576000357c0100000000000000000000000000000000000000000000000000000000900463ffffffff1680633fcad964146100a95780633fff28161461010a5780634482e6f3146101f95780635f059f3e146102db578063752d49a1146103465780638da5cb5b1461038b578063a1206d4e146103e2578063d269a83c14610433578063e723e3b51461049e578063f2fde38b146104e3575b600080fd5b3480156100b557600080fd5b506100e2600480360360208110156100cc57600080fd5b8101908080359060200190929190505050610534565b6040518084151515158152602001838152602001828152602001935050505060405180910390f35b34801561011657600080fd5b506101f76004803603608081101561012d57600080fd5b810190808035906020019064010000000081111561014a57600080fd5b82018360208201111561015c57600080fd5b8035906020019184600183028401116401000000008311171561017e57600080fd5b90919293919293908035906020019064010000000081111561019f57600080fd5b8201836020820111156101b157600080fd5b803590602001918460018302840111640100000000831117156101d357600080fd5b9091929391929390803590602001909291908035906020019092919050505061083f565b005b6102d96004803603608081101561020f57600080fd5b810190808035906020019064010000000081111561022c57600080fd5b82018360208201111561023e57600080fd5b8035906020019184600183028401116401000000008311171561026057600080fd5b90919293919293908035906020019064010000000081111561028157600080fd5b82018360208201111561029357600080fd5b803590602001918460018302840111640100000000831117156102b557600080fd5b90919293919293908035906020019092919080359060200190929190505050610aea565b005b3480156102e757600080fd5b5061031e600480360360408110156102fe57600080fd5b810190808035906020019092919080359060200190929190505050610c0a565b6040518084151515158152602001838152602001828152602001935050505060405180910390f35b34801561035257600080fd5b506103896004803603604081101561036957600080fd5b8101908080359060200190929190803590602001909291905050506110bb565b005b34801561039757600080fd5b506103a06112f0565b604051808273ffffffffffffffffffffffffffffffffffffffff1673ffffffffffffffffffffffffffffffffffffffff16815260200191505060405180910390f35b3480156103ee57600080fd5b506104316004803603602081101561040557600080fd5b81019080803573ffffffffffffffffffffffffffffffffffffffff169060200190929190505050611316565b005b34801561043f57600080fd5b506104766004803603604081101561045657600080fd5b8101908080359060200190929190803590602001909291905050506113b5565b6040518084151515158152602001838152602001828152602001935050505060405180910390f35b3480156104aa57600080fd5b506104e1600480360360408110156104c157600080fd5b8101908080359060200190929190803590602001909291905050506117a7565b005b3480156104ef57600080fd5b506105326004803603602081101561050657600080fd5b81019080803573ffffffffffffffffffffffffffffffffffffffff16906020019092919050505061185b565b005b6000806000806000809054906101000a900473ffffffffffffffffffffffffffffffffffffffff1673ffffffffffffffffffffffffffffffffffffffff1663a80209736040518163ffffffff167c010000000000000000000000000000000000000000000000000000000002815260040160206040518083038186803b1580156105bd57600080fd5b505afa1580156105d1573d6000803e3d6000fd5b505050506040513d60208110156105e757600080fd5b8101908080519060200190929190505050905060008173ffffffffffffffffffffffffffffffffffffffff166346eee1c4876040518263ffffffff167c01000000000000000000000000000000000000000000000000000000000281526004018082815260200191505060206040518083038186803b15801561066957600080fd5b505afa15801561067d573d6000803e3d6000fd5b505050506040513d602081101561069357600080fd5b810190808051906020019092919050505090506000811115610824578173ffffffffffffffffffffffffffffffffffffffff166377fbb66387600184036040518363ffffffff167c0100000000000000000000000000000000000000000000000000000000028152600401808381526020018281526020019250505060206040518083038186803b15801561072757600080fd5b505afa15801561073b573d6000803e3d6000fd5b505050506040513d602081101561075157600080fd5b8101908080519060200190929190505050925060018273ffffffffffffffffffffffffffffffffffffffff166393fa491588866040518363ffffffff167c0100000000000000000000000000000000000000000000000000000000028152600401808381526020018281526020019250505060206040518083038186803b1580156107db57600080fd5b505afa1580156107ef573d6000803e3d6000fd5b505050506040513d602081101561080557600080fd5b8101908080519060200190929190505050849450945094505050610838565b600080600081915080905094509450945050505b9193909250565b60008060009054906101000a900473ffffffffffffffffffffffffffffffffffffffff1673ffffffffffffffffffffffffffffffffffffffff1663a80209736040518163ffffffff167c010000000000000000000000000000000000000000000000000000000002815260040160206040518083038186803b1580156108c457600080fd5b505afa1580156108d8573d6000803e3d6000fd5b505050506040513d60208110156108ee57600080fd5b8101908080519060200190929190505050905060008211156109ea578073ffffffffffffffffffffffffffffffffffffffff1663a9059cbb30846040518363ffffffff167c0100000000000000000000000000000000000000000000000000000000028152600401808373ffffffffffffffffffffffffffffffffffffffff1673ffffffffffffffffffffffffffffffffffffffff16815260200182815260200192505050602060405180830381600087803b1580156109ad57600080fd5b505af11580156109c1573d6000803e3d6000fd5b505050506040513d60208110156109d757600080fd5b8101908080519060200190929190505050505b8073ffffffffffffffffffffffffffffffffffffffff16633fff28168888888888886040518763ffffffff167c01000000000000000000000000000000000000000000000000000000000281526004018080602001806020018581526020018481526020018381038352898982818152602001925080828437600081840152601f19601f8201169050808301925050508381038252878782818152602001925080828437600081840152601f19601f82011690508083019250505098505050505050505050600060405180830381600087803b158015610ac957600080fd5b505af1158015610add573d6000803e3d6000fd5b5050505050505050505050565b6000809054906101000a900473ffffffffffffffffffffffffffffffffffffffff1673ffffffffffffffffffffffffffffffffffffffff16634482e6f38787878787876040518763ffffffff167c01000000000000000000000000000000000000000000000000000000000281526004018080602001806020018581526020018481526020018381038352898982818152602001925080828437600081840152601f19601f8201169050808301925050508381038252878782818152602001925080828437600081840152601f19601f82011690508083019250505098505050505050505050600060405180830381600087803b158015610bea57600080fd5b505af1158015610bfe573d6000803e3d6000fd5b50505050505050505050565b6000806000806000809054906101000a900473ffffffffffffffffffffffffffffffffffffffff1673ffffffffffffffffffffffffffffffffffffffff1663a80209736040518163ffffffff167c010000000000000000000000000000000000000000000000000000000002815260040160206040518083038186803b158015610c9357600080fd5b505afa158015610ca7573d6000803e3d6000fd5b505050506040513d6020811015610cbd57600080fd5b8101908080519060200190929190505050905060008173ffffffffffffffffffffffffffffffffffffffff166346eee1c4886040518263ffffffff167c01000000000000000000000000000000000000000000000000000000000281526004018082815260200191505060206040518083038186803b158015610d3f57600080fd5b505afa158015610d53573d6000803e3d6000fd5b505050506040513d6020811015610d6957600080fd5b8101908080519060200190929190505050905060008111156110a05760006001820390505b6000811115610fd557868373ffffffffffffffffffffffffffffffffffffffff166377fbb6638a846040518363ffffffff167c0100000000000000000000000000000000000000000000000000000000028152600401808381526020018281526020019250505060206040518083038186803b158015610e0d57600080fd5b505afa158015610e21573d6000803e3d6000fd5b505050506040513d6020811015610e3757600080fd5b8101908080519060200190929190505050108015610f0857506201518042038373ffffffffffffffffffffffffffffffffffffffff166377fbb6638a846040518363ffffffff167c0100000000000000000000000000000000000000000000000000000000028152600401808381526020018281526020019250505060206040518083038186803b158015610ecb57600080fd5b505afa158015610edf573d6000803e3d6000fd5b505050506040513d6020811015610ef557600080fd5b8101908080519060200190929190505050105b15610fc7578273ffffffffffffffffffffffffffffffffffffffff166377fbb66389600184016040518363ffffffff167c0100000000000000000000000000000000000000000000000000000000028152600401808381526020018281526020019250505060206040518083038186803b158015610f8557600080fd5b505afa158015610f99573d6000803e3d6000fd5b505050506040513d6020811015610faf57600080fd5b81019080805190602001909291905050509350600090505b808060019003915050610d8e565b50600083111561109f5760018273ffffffffffffffffffffffffffffffffffffffff166393fa491589866040518363ffffffff167c0100000000000000000000000000000000000000000000000000000000028152600401808381526020018281526020019250505060206040518083038186803b15801561105657600080fd5b505afa15801561106a573d6000803e3d6000fd5b505050506040513d602081101561108057600080fd5b81019080805190602001909291905050508494509450945050506110b4565b5b600080600081915080905094509450945050505b9250925092565b60008060009054906101000a900473ffffffffffffffffffffffffffffffffffffffff1673ffffffffffffffffffffffffffffffffffffffff1663a80209736040518163ffffffff167c010000000000000000000000000000000000000000000000000000000002815260040160206040518083038186803b15801561114057600080fd5b505afa158015611154573d6000803e3d6000fd5b505050506040513d602081101561116a57600080fd5b810190808051906020019092919050505090508073ffffffffffffffffffffffffffffffffffffffff1663a9059cbb30846040518363ffffffff167c0100000000000000000000000000000000000000000000000000000000028152600401808373ffffffffffffffffffffffffffffffffffffffff1673ffffffffffffffffffffffffffffffffffffffff16815260200182815260200192505050602060405180830381600087803b15801561122057600080fd5b505af1158015611234573d6000803e3d6000fd5b505050506040513d602081101561124a57600080fd5b8101908080519060200190929190505050508073ffffffffffffffffffffffffffffffffffffffff1663752d49a184846040518363ffffffff167c01000000000000000000000000000000000000000000000000000000000281526004018083815260200182815260200192505050600060405180830381600087803b1580156112d357600080fd5b505af11580156112e7573d6000803e3d6000fd5b50505050505050565b600160009054906101000a900473ffffffffffffffffffffffffffffffffffffffff1681565b600160009054906101000a900473ffffffffffffffffffffffffffffffffffffffff1673ffffffffffffffffffffffffffffffffffffffff163373ffffffffffffffffffffffffffffffffffffffff1614151561137257600080fd5b806000806101000a81548173ffffffffffffffffffffffffffffffffffffffff021916908373ffffffffffffffffffffffffffffffffffffffff16021790555050565b6000806000806000809054906101000a900473ffffffffffffffffffffffffffffffffffffffff1673ffffffffffffffffffffffffffffffffffffffff1663a80209736040518163ffffffff167c010000000000000000000000000000000000000000000000000000000002815260040160206040518083038186803b15801561143e57600080fd5b505afa158015611452573d6000803e3d6000fd5b505050506040513d602081101561146857600080fd5b8101908080519060200190929190505050905060008173ffffffffffffffffffffffffffffffffffffffff166346eee1c4886040518263ffffffff167c01000000000000000000000000000000000000000000000000000000000281526004018082815260200191505060206040518083038186803b1580156114ea57600080fd5b505afa1580156114fe573d6000803e3d6000fd5b505050506040513d602081101561151457600080fd5b81019080805190602001909291905050509050600081111561178c5760006001820390505b60008111156116c157868373ffffffffffffffffffffffffffffffffffffffff166377fbb6638a846040518363ffffffff167c0100000000000000000000000000000000000000000000000000000000028152600401808381526020018281526020019250505060206040518083038186803b1580156115b857600080fd5b505afa1580156115cc573d6000803e3d6000fd5b505050506040513d60208110156115e257600080fd5b810190808051906020019092919050505010156116b3578273ffffffffffffffffffffffffffffffffffffffff166377fbb66389600184016040518363ffffffff167c0100000000000000000000000000000000000000000000000000000000028152600401808381526020018281526020019250505060206040518083038186803b15801561167157600080fd5b505afa158015611685573d6000803e3d6000fd5b505050506040513d602081101561169b57600080fd5b81019080805190602001909291905050509350600090505b808060019003915050611539565b50600083111561178b5760018273ffffffffffffffffffffffffffffffffffffffff166393fa491589866040518363ffffffff167c0100000000000000000000000000000000000000000000000000000000028152600401808381526020018281526020019250505060206040518083038186803b15801561174257600080fd5b505afa158015611756573d6000803e3d6000fd5b505050506040513d602081101561176c57600080fd5b81019080805190602001909291905050508494509450945050506117a0565b5b600080600081915080905094509450945050505b9250925092565b6000809054906101000a900473ffffffffffffffffffffffffffffffffffffffff1673ffffffffffffffffffffffffffffffffffffffff1663e723e3b583836040518363ffffffff167c01000000000000000000000000000000000000000000000000000000000281526004018083815260200182815260200192505050600060405180830381600087803b15801561183f57600080fd5b505af1158015611853573d6000803e3d6000fd5b505050505050565b600160009054906101000a900473ffffffffffffffffffffffffffffffffffffffff1673ffffffffffffffffffffffffffffffffffffffff163373ffffffffffffffffffffffffffffffffffffffff161415156118b757600080fd5b7f8be0079c531659141344cd1fd0a4f28419497f9722a3daafe3b4186f6b6457e0600160009054906101000a900473ffffffffffffffffffffffffffffffffffffffff1682604051808373ffffffffffffffffffffffffffffffffffffffff1673ffffffffffffffffffffffffffffffffffffffff1681526020018273ffffffffffffffffffffffffffffffffffffffff1673ffffffffffffffffffffffffffffffffffffffff1681526020019250505060405180910390a180600160006101000a81548173ffffffffffffffffffffffffffffffffffffffff021916908373ffffffffffffffffffffffffffffffffffffffff1602179055505056fea165627a7a72305820cee350d6c70426197a10008d46dabbd4039b05c391bcd54e0d74540811c636cb0029",
  "source": "pragma solidity ^0.5.0;\n\nimport '../Tellor.sol';\nimport '../TellorMaster.sol';\nimport './UserContract.sol';\n/**\n* @title UsingTellor\n* This contracts creates for easy integration to the Tellor Tellor System\n*/\ncontract UsingTellor{\n\tUserContract tellorUserContract;\n\taddress public owner;\n\t\n\tevent OwnershipTransferred(address _previousOwner,address _newOwner);\n\n\n    constructor(address _user)public {\n    \ttellorUserContract = UserContract(_user);\n    \towner = msg.sender;\n    }\n\n\tfunction getCurrentValue(uint _requestId) public view returns(bool ifRetrieve, uint value, uint _timestampRetrieved) {\n\t\tTellorMaster _tellor = TellorMaster(tellorUserContract.tellorStorageAddress());\n\t\tuint _count = _tellor.getNewValueCountbyRequestId(_requestId) ;\n\t\tif(_count > 0){\n\t\t\t\t_timestampRetrieved = _tellor.getTimestampbyRequestIDandIndex(_requestId,_count -1);//will this work with a zero index? (or insta hit?)\n\t\t\t\treturn(true,_tellor.retrieveData(_requestId,_timestampRetrieved),_timestampRetrieved);\n        }\n        return(false,0,0);\n\t}\n\n\tfunction getFirstVerifiedDataAfter(uint _requestId, uint _timestamp) public view returns(bool,uint,uint _timestampRetrieved) {\n\t\tTellorMaster _tellor = TellorMaster(tellorUserContract.tellorStorageAddress());\n\t\tuint _count = _tellor.getNewValueCountbyRequestId(_requestId) ;\n\t\tif(_count > 0){\n\t\t\t\tfor(uint i = _count - 1;i > 0;i--){\n\t\t\t\t\tif(_tellor.getTimestampbyRequestIDandIndex(_requestId,i) < _timestamp && _tellor.getTimestampbyRequestIDandIndex(_requestId,i) < block.timestamp - 86400){\n\t\t\t\t\t\t_timestampRetrieved = _tellor.getTimestampbyRequestIDandIndex(_requestId,i + 1);//will this work with a zero index? (or insta hit?)\n\t\t\t\t\t\ti  = 0;\n\t\t\t\t\t}\n\t\t\t\t}\n\t\t\t\tif(_timestampRetrieved > 0){\n\t\t\t\t\treturn(true,_tellor.retrieveData(_requestId,_timestampRetrieved),_timestampRetrieved);\n\t\t\t\t}\n        }\n        return(false,0,0);\n\t}\n\t\n\n\tfunction getAnyDataAfter(uint _requestId, uint _timestamp) public view returns(bool _ifRetrieve, uint _value, uint _timestampRetrieved){\n\t\tTellorMaster _tellor = TellorMaster(tellorUserContract.tellorStorageAddress());\n\t\tuint _count = _tellor.getNewValueCountbyRequestId(_requestId) ;\n\t\tif(_count > 0){\n\t\t\t\tfor(uint i = _count - 1;i > 0;i--){\n\t\t\t\t\tif(_tellor.getTimestampbyRequestIDandIndex(_requestId,i) < _timestamp){\n\t\t\t\t\t\t_timestampRetrieved = _tellor.getTimestampbyRequestIDandIndex(_requestId,i + 1);//will this work with a zero index? (or insta hit?)\n\t\t\t\t\t\ti  = 0;\n\t\t\t\t\t}\n\t\t\t\t}\n\t\t\t\tif(_timestampRetrieved > 0){\n\t\t\t\t\treturn(true,_tellor.retrieveData(_requestId,_timestampRetrieved),_timestampRetrieved);\n\t\t\t\t}\n        }\n        return(false,0,0);\n\t}\n\n\tfunction requestData(string calldata _request,string calldata _symbol,uint _granularity, uint _tip) external{\n\t\tTellor _tellor = Tellor(tellorUserContract.tellorStorageAddress());\n\t\tif(_tip > 0){\n\t\t\t_tellor.transfer(address(this),_tip);\n\t\t}\n\t\t_tellor.requestData(_request,_symbol,_granularity,_tip);\n\t}\n\n\tfunction requestDataWithEther(string calldata _request,string calldata _symbol,uint _granularity, uint _tip) payable external{\n\t\ttellorUserContract.requestDataWithEther(_request,_symbol,_granularity,_tip);\n\t}\n\n\tfunction addTip(uint _requestId, uint _tip) public {\n\t\tTellor _tellor = Tellor(tellorUserContract.tellorStorageAddress());\n\t\t_tellor.transfer(address(this),_tip);\n\t\t_tellor.addTip(_requestId,_tip);\n\t}\n\n\tfunction addTipWithEther(uint _requestId, uint _tip) public {\n\t\tUserContract(tellorUserContract).addTipWithEther(_requestId,_tip);\n\t}\n\n\tfunction setUserContract(address _userContract) public {\n\t\trequire(msg.sender == owner);//who should this be?\n\t\ttellorUserContract = UserContract(_userContract);\n\t}\n\n\tfunction transferOwnership(address payable _newOwner) external {\n            require(msg.sender == owner);\n            emit OwnershipTransferred(owner, _newOwner);\n            owner = _newOwner;\n    }\n}\n\n\n",
  "sourcePath": "/Users/mdcoon/git/TellorCore/contracts/userFiles/UsingTellor.sol",
  "compiler": {
    "name": "solc",
    "version": "0.5.0+commit.1d4f565a.Emscripten.clang"
  },
  "schemaVersion": "3.0.6",
  "updatedAt": "2019-05-06T08:06:35.242Z",
  "devdoc": {
    "methods": {},
    "title": "UsingTellor This contracts creates for easy integration to the Tellor Tellor System"
  },
  "userdoc": {
    "methods": {}
  }
}